{
	"CASINO/casino.sol": {
		"casino": {
			"abi": [
				{
					"inputs": [
						{
							"internalType": "address",
							"name": "_token",
							"type": "address"
						}
					],
					"stateMutability": "nonpayable",
					"type": "constructor"
				},
				{
					"inputs": [
						{
							"internalType": "uint256",
							"name": "_option",
							"type": "uint256"
						},
						{
							"internalType": "uint256",
							"name": "_amount",
							"type": "uint256"
						}
					],
					"name": "bet",
					"outputs": [],
					"stateMutability": "nonpayable",
					"type": "function"
				},
				{
					"inputs": [],
					"name": "collectTokenOwner",
					"outputs": [],
					"stateMutability": "nonpayable",
					"type": "function"
				},
				{
					"inputs": [],
					"name": "number",
					"outputs": [
						{
							"internalType": "uint256",
							"name": "",
							"type": "uint256"
						}
					],
					"stateMutability": "view",
					"type": "function"
				}
			],
			"devdoc": {
				"kind": "dev",
				"methods": {},
				"version": 1
			},
			"evm": {
				"assembly": "    /* \"CASINO/casino.sol\":116:1617  contract casino {... */\n  mstore(0x40, 0x80)\n    /* \"CASINO/casino.sol\":284:376  constructor(address _token){... */\n  callvalue\n  dup1\n  iszero\n  tag_1\n  jumpi\n  0x00\n  dup1\n  revert\ntag_1:\n  pop\n  mload(0x40)\n  sub(codesize, bytecodeSize)\n  dup1\n  bytecodeSize\n  dup4\n  codecopy\n  dup2\n  dup2\n  add\n  0x40\n  mstore\n  dup2\n  add\n  swap1\n  tag_2\n  swap2\n  swap1\n  tag_3\n  jump\t// in\ntag_2:\n    /* \"CASINO/casino.sol\":328:338  msg.sender */\n  caller\n    /* \"CASINO/casino.sol\":321:326  owner */\n  0x02\n  0x00\n    /* \"CASINO/casino.sol\":321:338  owner =msg.sender */\n  0x0100\n  exp\n  dup2\n  sload\n  dup2\n  0xffffffffffffffffffffffffffffffffffffffff\n  mul\n  not\n  and\n  swap1\n  dup4\n  0xffffffffffffffffffffffffffffffffffffffff\n  and\n  mul\n  or\n  swap1\n  sstore\n  pop\n    /* \"CASINO/casino.sol\":362:368  _token */\n  dup1\n    /* \"CASINO/casino.sol\":348:353  token */\n  0x00\n  dup1\n    /* \"CASINO/casino.sol\":348:369  token = ERC20(_token) */\n  0x0100\n  exp\n  dup2\n  sload\n  dup2\n  0xffffffffffffffffffffffffffffffffffffffff\n  mul\n  not\n  and\n  swap1\n  dup4\n  0xffffffffffffffffffffffffffffffffffffffff\n  and\n  mul\n  or\n  swap1\n  sstore\n  pop\n    /* \"CASINO/casino.sol\":284:376  constructor(address _token){... */\n  pop\n    /* \"CASINO/casino.sol\":116:1617  contract casino {... */\n  jump(tag_6)\n    /* \"#utility.yul\":88:205   */\ntag_8:\n    /* \"#utility.yul\":197:198   */\n  0x00\n    /* \"#utility.yul\":194:195   */\n  dup1\n    /* \"#utility.yul\":187:199   */\n  revert\n    /* \"#utility.yul\":334:460   */\ntag_10:\n    /* \"#utility.yul\":371:378   */\n  0x00\n    /* \"#utility.yul\":411:453   */\n  0xffffffffffffffffffffffffffffffffffffffff\n    /* \"#utility.yul\":404:409   */\n  dup3\n    /* \"#utility.yul\":400:454   */\n  and\n    /* \"#utility.yul\":389:454   */\n  swap1\n  pop\n    /* \"#utility.yul\":334:460   */\n  swap2\n  swap1\n  pop\n  jump\t// out\n    /* \"#utility.yul\":466:562   */\ntag_11:\n    /* \"#utility.yul\":503:510   */\n  0x00\n    /* \"#utility.yul\":532:556   */\n  tag_20\n    /* \"#utility.yul\":550:555   */\n  dup3\n    /* \"#utility.yul\":532:556   */\n  tag_10\n  jump\t// in\ntag_20:\n    /* \"#utility.yul\":521:556   */\n  swap1\n  pop\n    /* \"#utility.yul\":466:562   */\n  swap2\n  swap1\n  pop\n  jump\t// out\n    /* \"#utility.yul\":568:690   */\ntag_12:\n    /* \"#utility.yul\":641:665   */\n  tag_22\n    /* \"#utility.yul\":659:664   */\n  dup2\n    /* \"#utility.yul\":641:665   */\n  tag_11\n  jump\t// in\ntag_22:\n    /* \"#utility.yul\":634:639   */\n  dup2\n    /* \"#utility.yul\":631:666   */\n  eq\n    /* \"#utility.yul\":621:684   */\n  tag_23\n  jumpi\n    /* \"#utility.yul\":680:681   */\n  0x00\n    /* \"#utility.yul\":677:678   */\n  dup1\n    /* \"#utility.yul\":670:682   */\n  revert\n    /* \"#utility.yul\":621:684   */\ntag_23:\n    /* \"#utility.yul\":568:690   */\n  pop\n  jump\t// out\n    /* \"#utility.yul\":696:839   */\ntag_13:\n    /* \"#utility.yul\":753:758   */\n  0x00\n    /* \"#utility.yul\":784:790   */\n  dup2\n    /* \"#utility.yul\":778:791   */\n  mload\n    /* \"#utility.yul\":769:791   */\n  swap1\n  pop\n    /* \"#utility.yul\":800:833   */\n  tag_25\n    /* \"#utility.yul\":827:832   */\n  dup2\n    /* \"#utility.yul\":800:833   */\n  tag_12\n  jump\t// in\ntag_25:\n    /* \"#utility.yul\":696:839   */\n  swap3\n  swap2\n  pop\n  pop\n  jump\t// out\n    /* \"#utility.yul\":845:1196   */\ntag_3:\n    /* \"#utility.yul\":915:921   */\n  0x00\n    /* \"#utility.yul\":964:966   */\n  0x20\n    /* \"#utility.yul\":952:961   */\n  dup3\n    /* \"#utility.yul\":943:950   */\n  dup5\n    /* \"#utility.yul\":939:962   */\n  sub\n    /* \"#utility.yul\":935:967   */\n  slt\n    /* \"#utility.yul\":932:1051   */\n  iszero\n  tag_27\n  jumpi\n    /* \"#utility.yul\":970:1049   */\n  tag_28\n  tag_8\n  jump\t// in\ntag_28:\n    /* \"#utility.yul\":932:1051   */\ntag_27:\n    /* \"#utility.yul\":1090:1091   */\n  0x00\n    /* \"#utility.yul\":1115:1179   */\n  tag_29\n    /* \"#utility.yul\":1171:1178   */\n  dup5\n    /* \"#utility.yul\":1162:1168   */\n  dup3\n    /* \"#utility.yul\":1151:1160   */\n  dup6\n    /* \"#utility.yul\":1147:1169   */\n  add\n    /* \"#utility.yul\":1115:1179   */\n  tag_13\n  jump\t// in\ntag_29:\n    /* \"#utility.yul\":1105:1179   */\n  swap2\n  pop\n    /* \"#utility.yul\":1061:1189   */\n  pop\n    /* \"#utility.yul\":845:1196   */\n  swap3\n  swap2\n  pop\n  pop\n  jump\t// out\n    /* \"CASINO/casino.sol\":116:1617  contract casino {... */\ntag_6:\n  dataSize(sub_0)\n  dup1\n  dataOffset(sub_0)\n  0x00\n  codecopy\n  0x00\n  return\nstop\n\nsub_0: assembly {\n        /* \"CASINO/casino.sol\":116:1617  contract casino {... */\n      mstore(0x40, 0x80)\n      callvalue\n      dup1\n      iszero\n      tag_1\n      jumpi\n      0x00\n      dup1\n      revert\n    tag_1:\n      pop\n      jumpi(tag_2, lt(calldatasize, 0x04))\n      shr(0xe0, calldataload(0x00))\n      dup1\n      0x6ffcc719\n      eq\n      tag_3\n      jumpi\n      dup1\n      0x8381f58a\n      eq\n      tag_4\n      jumpi\n      dup1\n      0xe3a6e4fc\n      eq\n      tag_5\n      jumpi\n    tag_2:\n      0x00\n      dup1\n      revert\n        /* \"CASINO/casino.sol\":634:1086  function bet(uint256 _option,uint256 _amount) public {... */\n    tag_3:\n      tag_6\n      0x04\n      dup1\n      calldatasize\n      sub\n      dup2\n      add\n      swap1\n      tag_7\n      swap2\n      swap1\n      tag_8\n      jump\t// in\n    tag_7:\n      tag_9\n      jump\t// in\n    tag_6:\n      stop\n        /* \"CASINO/casino.sol\":255:276  uint256 public number */\n    tag_4:\n      tag_10\n      tag_11\n      jump\t// in\n    tag_10:\n      mload(0x40)\n      tag_12\n      swap2\n      swap1\n      tag_13\n      jump\t// in\n    tag_12:\n      mload(0x40)\n      dup1\n      swap2\n      sub\n      swap1\n      return\n        /* \"CASINO/casino.sol\":1442:1615  function collectTokenOwner() public {... */\n    tag_5:\n      tag_14\n      tag_15\n      jump\t// in\n    tag_14:\n      stop\n        /* \"CASINO/casino.sol\":634:1086  function bet(uint256 _option,uint256 _amount) public {... */\n    tag_9:\n        /* \"CASINO/casino.sol\":745:746  2 */\n      0x02\n        /* \"CASINO/casino.sol\":736:743  _amount */\n      dup2\n        /* \"CASINO/casino.sol\":736:746  _amount *2 */\n      tag_17\n      swap2\n      swap1\n      tag_18\n      jump\t// in\n    tag_17:\n        /* \"CASINO/casino.sol\":705:710  token */\n      0x00\n      dup1\n      sload\n      swap1\n      0x0100\n      exp\n      swap1\n      div\n      0xffffffffffffffffffffffffffffffffffffffff\n      and\n        /* \"CASINO/casino.sol\":705:720  token.balanceOf */\n      0xffffffffffffffffffffffffffffffffffffffff\n      and\n      0x70a08231\n        /* \"CASINO/casino.sol\":729:733  this */\n      address\n        /* \"CASINO/casino.sol\":705:735  token.balanceOf(address(this)) */\n      mload(0x40)\n      dup3\n      0xffffffff\n      and\n      0xe0\n      shl\n      dup2\n      mstore\n      0x04\n      add\n      tag_19\n      swap2\n      swap1\n      tag_20\n      jump\t// in\n    tag_19:\n      0x20\n      mload(0x40)\n      dup1\n      dup4\n      sub\n      dup2\n      dup7\n      gas\n      staticcall\n      iszero\n      dup1\n      iszero\n      tag_22\n      jumpi\n      returndatasize\n      0x00\n      dup1\n      returndatacopy\n      revert(0x00, returndatasize)\n    tag_22:\n      pop\n      pop\n      pop\n      pop\n      mload(0x40)\n      returndatasize\n      not(0x1f)\n      0x1f\n      dup3\n      add\n      and\n      dup3\n      add\n      dup1\n      0x40\n      mstore\n      pop\n      dup2\n      add\n      swap1\n      tag_23\n      swap2\n      swap1\n      tag_24\n      jump\t// in\n    tag_23:\n        /* \"CASINO/casino.sol\":705:746  token.balanceOf(address(this))>_amount *2 */\n      gt\n        /* \"CASINO/casino.sol\":697:779  require(token.balanceOf(address(this))>_amount *2 , \"Currently Betting is risky.\") */\n      tag_25\n      jumpi\n      mload(0x40)\n      0x08c379a000000000000000000000000000000000000000000000000000000000\n      dup2\n      mstore\n      0x04\n      add\n      tag_26\n      swap1\n      tag_27\n      jump\t// in\n    tag_26:\n      mload(0x40)\n      dup1\n      swap2\n      sub\n      swap1\n      revert\n    tag_25:\n        /* \"CASINO/casino.sol\":798:805  _option */\n      dup2\n        /* \"CASINO/casino.sol\":789:795  option */\n      0x03\n        /* \"CASINO/casino.sol\":789:805  option = _option */\n      dup2\n      swap1\n      sstore\n      pop\n        /* \"CASINO/casino.sol\":824:831  _amount */\n      dup1\n        /* \"CASINO/casino.sol\":815:821  amount */\n      0x04\n        /* \"CASINO/casino.sol\":815:831  amount = _amount */\n      dup2\n      swap1\n      sstore\n      pop\n        /* \"CASINO/casino.sol\":841:852  uint256 win */\n      0x00\n        /* \"CASINO/casino.sol\":863:864  2 */\n      0x02\n        /* \"CASINO/casino.sol\":856:862  amount */\n      sload(0x04)\n        /* \"CASINO/casino.sol\":856:864  amount*2 */\n      tag_28\n      swap2\n      swap1\n      tag_18\n      jump\t// in\n    tag_28:\n        /* \"CASINO/casino.sol\":841:865  uint256 win = (amount*2) */\n      swap1\n      pop\n        /* \"CASINO/casino.sol\":875:880  token */\n      0x00\n      dup1\n      sload\n      swap1\n      0x0100\n      exp\n      swap1\n      div\n      0xffffffffffffffffffffffffffffffffffffffff\n      and\n        /* \"CASINO/casino.sol\":875:893  token.transferFrom */\n      0xffffffffffffffffffffffffffffffffffffffff\n      and\n      0x23b872dd\n        /* \"CASINO/casino.sol\":894:904  msg.sender */\n      caller\n        /* \"CASINO/casino.sol\":913:917  this */\n      address\n        /* \"CASINO/casino.sol\":919:926  _amount */\n      dup6\n        /* \"CASINO/casino.sol\":875:927  token.transferFrom(msg.sender,address(this),_amount) */\n      mload(0x40)\n      dup5\n      0xffffffff\n      and\n      0xe0\n      shl\n      dup2\n      mstore\n      0x04\n      add\n      tag_29\n      swap4\n      swap3\n      swap2\n      swap1\n      tag_30\n      jump\t// in\n    tag_29:\n      0x20\n      mload(0x40)\n      dup1\n      dup4\n      sub\n      dup2\n      0x00\n      dup8\n      gas\n      call\n      iszero\n      dup1\n      iszero\n      tag_32\n      jumpi\n      returndatasize\n      0x00\n      dup1\n      returndatacopy\n      revert(0x00, returndatasize)\n    tag_32:\n      pop\n      pop\n      pop\n      pop\n      mload(0x40)\n      returndatasize\n      not(0x1f)\n      0x1f\n      dup3\n      add\n      and\n      dup3\n      add\n      dup1\n      0x40\n      mstore\n      pop\n      dup2\n      add\n      swap1\n      tag_33\n      swap2\n      swap1\n      tag_34\n      jump\t// in\n    tag_33:\n      pop\n        /* \"CASINO/casino.sol\":940:977  compareNum(_option,getRandomNumber()) */\n      tag_35\n        /* \"CASINO/casino.sol\":951:958  _option */\n      dup4\n        /* \"CASINO/casino.sol\":959:976  getRandomNumber() */\n      tag_36\n        /* \"CASINO/casino.sol\":959:974  getRandomNumber */\n      tag_37\n        /* \"CASINO/casino.sol\":959:976  getRandomNumber() */\n      jump\t// in\n    tag_36:\n        /* \"CASINO/casino.sol\":940:950  compareNum */\n      tag_38\n        /* \"CASINO/casino.sol\":940:977  compareNum(_option,getRandomNumber()) */\n      jump\t// in\n    tag_35:\n        /* \"CASINO/casino.sol\":937:1080  if(compareNum(_option,getRandomNumber())){... */\n      iszero\n      tag_39\n      jumpi\n        /* \"CASINO/casino.sol\":1000:1005  token */\n      0x00\n      dup1\n      sload\n      swap1\n      0x0100\n      exp\n      swap1\n      div\n      0xffffffffffffffffffffffffffffffffffffffff\n      and\n        /* \"CASINO/casino.sol\":1000:1014  token.transfer */\n      0xffffffffffffffffffffffffffffffffffffffff\n      and\n      0xa9059cbb\n        /* \"CASINO/casino.sol\":1015:1025  msg.sender */\n      caller\n        /* \"CASINO/casino.sol\":1028:1031  win */\n      dup4\n        /* \"CASINO/casino.sol\":1000:1032  token.transfer(msg.sender , win) */\n      mload(0x40)\n      dup4\n      0xffffffff\n      and\n      0xe0\n      shl\n      dup2\n      mstore\n      0x04\n      add\n      tag_40\n      swap3\n      swap2\n      swap1\n      tag_41\n      jump\t// in\n    tag_40:\n      0x20\n      mload(0x40)\n      dup1\n      dup4\n      sub\n      dup2\n      0x00\n      dup8\n      gas\n      call\n      iszero\n      dup1\n      iszero\n      tag_43\n      jumpi\n      returndatasize\n      0x00\n      dup1\n      returndatacopy\n      revert(0x00, returndatasize)\n    tag_43:\n      pop\n      pop\n      pop\n      pop\n      mload(0x40)\n      returndatasize\n      not(0x1f)\n      0x1f\n      dup3\n      add\n      and\n      dup3\n      add\n      dup1\n      0x40\n      mstore\n      pop\n      dup2\n      add\n      swap1\n      tag_44\n      swap2\n      swap1\n      tag_34\n      jump\t// in\n    tag_44:\n        /* \"CASINO/casino.sol\":992:1069  require(token.transfer(msg.sender , win),\"Contract have not inough balance.\") */\n      tag_45\n      jumpi\n      mload(0x40)\n      0x08c379a000000000000000000000000000000000000000000000000000000000\n      dup2\n      mstore\n      0x04\n      add\n      tag_46\n      swap1\n      tag_47\n      jump\t// in\n    tag_46:\n      mload(0x40)\n      dup1\n      swap2\n      sub\n      swap1\n      revert\n    tag_45:\n        /* \"CASINO/casino.sol\":937:1080  if(compareNum(_option,getRandomNumber())){... */\n    tag_39:\n        /* \"CASINO/casino.sol\":687:1086  {... */\n      pop\n        /* \"CASINO/casino.sol\":634:1086  function bet(uint256 _option,uint256 _amount) public {... */\n      pop\n      pop\n      jump\t// out\n        /* \"CASINO/casino.sol\":255:276  uint256 public number */\n    tag_11:\n      sload(0x05)\n      dup2\n      jump\t// out\n        /* \"CASINO/casino.sol\":1442:1615  function collectTokenOwner() public {... */\n    tag_15:\n        /* \"CASINO/casino.sol\":1510:1515  owner */\n      0x02\n      0x00\n      swap1\n      sload\n      swap1\n      0x0100\n      exp\n      swap1\n      div\n      0xffffffffffffffffffffffffffffffffffffffff\n      and\n        /* \"CASINO/casino.sol\":1496:1515  msg.sender == owner */\n      0xffffffffffffffffffffffffffffffffffffffff\n      and\n        /* \"CASINO/casino.sol\":1496:1506  msg.sender */\n      caller\n        /* \"CASINO/casino.sol\":1496:1515  msg.sender == owner */\n      0xffffffffffffffffffffffffffffffffffffffff\n      and\n      eq\n        /* \"CASINO/casino.sol\":1488:1541  require(msg.sender == owner , \"You are Not an Owner\") */\n      tag_49\n      jumpi\n      mload(0x40)\n      0x08c379a000000000000000000000000000000000000000000000000000000000\n      dup2\n      mstore\n      0x04\n      add\n      tag_50\n      swap1\n      tag_51\n      jump\t// in\n    tag_50:\n      mload(0x40)\n      dup1\n      swap2\n      sub\n      swap1\n      revert\n    tag_49:\n        /* \"CASINO/casino.sol\":1551:1556  token */\n      0x00\n      dup1\n      sload\n      swap1\n      0x0100\n      exp\n      swap1\n      div\n      0xffffffffffffffffffffffffffffffffffffffff\n      and\n        /* \"CASINO/casino.sol\":1551:1565  token.transfer */\n      0xffffffffffffffffffffffffffffffffffffffff\n      and\n      0xa9059cbb\n        /* \"CASINO/casino.sol\":1566:1576  msg.sender */\n      caller\n        /* \"CASINO/casino.sol\":1577:1582  token */\n      0x00\n      dup1\n      sload\n      swap1\n      0x0100\n      exp\n      swap1\n      div\n      0xffffffffffffffffffffffffffffffffffffffff\n      and\n        /* \"CASINO/casino.sol\":1577:1592  token.balanceOf */\n      0xffffffffffffffffffffffffffffffffffffffff\n      and\n      0x70a08231\n        /* \"CASINO/casino.sol\":1601:1605  this */\n      address\n        /* \"CASINO/casino.sol\":1577:1607  token.balanceOf(address(this)) */\n      mload(0x40)\n      dup3\n      0xffffffff\n      and\n      0xe0\n      shl\n      dup2\n      mstore\n      0x04\n      add\n      tag_52\n      swap2\n      swap1\n      tag_20\n      jump\t// in\n    tag_52:\n      0x20\n      mload(0x40)\n      dup1\n      dup4\n      sub\n      dup2\n      dup7\n      gas\n      staticcall\n      iszero\n      dup1\n      iszero\n      tag_54\n      jumpi\n      returndatasize\n      0x00\n      dup1\n      returndatacopy\n      revert(0x00, returndatasize)\n    tag_54:\n      pop\n      pop\n      pop\n      pop\n      mload(0x40)\n      returndatasize\n      not(0x1f)\n      0x1f\n      dup3\n      add\n      and\n      dup3\n      add\n      dup1\n      0x40\n      mstore\n      pop\n      dup2\n      add\n      swap1\n      tag_55\n      swap2\n      swap1\n      tag_24\n      jump\t// in\n    tag_55:\n        /* \"CASINO/casino.sol\":1551:1608  token.transfer(msg.sender,token.balanceOf(address(this))) */\n      mload(0x40)\n      dup4\n      0xffffffff\n      and\n      0xe0\n      shl\n      dup2\n      mstore\n      0x04\n      add\n      tag_56\n      swap3\n      swap2\n      swap1\n      tag_41\n      jump\t// in\n    tag_56:\n      0x20\n      mload(0x40)\n      dup1\n      dup4\n      sub\n      dup2\n      0x00\n      dup8\n      gas\n      call\n      iszero\n      dup1\n      iszero\n      tag_58\n      jumpi\n      returndatasize\n      0x00\n      dup1\n      returndatacopy\n      revert(0x00, returndatasize)\n    tag_58:\n      pop\n      pop\n      pop\n      pop\n      mload(0x40)\n      returndatasize\n      not(0x1f)\n      0x1f\n      dup3\n      add\n      and\n      dup3\n      add\n      dup1\n      0x40\n      mstore\n      pop\n      dup2\n      add\n      swap1\n      tag_59\n      swap2\n      swap1\n      tag_34\n      jump\t// in\n    tag_59:\n      pop\n        /* \"CASINO/casino.sol\":1442:1615  function collectTokenOwner() public {... */\n      jump\t// out\n        /* \"CASINO/casino.sol\":384:629  function getRandomNumber() private returns (uint256) {... */\n    tag_37:\n        /* \"CASINO/casino.sol\":428:435  uint256 */\n      0x00\n        /* \"CASINO/casino.sol\":447:467  uint256 randomNumber */\n      dup1\n        /* \"CASINO/casino.sol\":545:547  10 */\n      0x0a\n        /* \"CASINO/casino.sol\":505:520  block.timestamp */\n      timestamp\n        /* \"CASINO/casino.sol\":522:532  msg.sender */\n      caller\n        /* \"CASINO/casino.sol\":534:539  nonce */\n      sload(0x01)\n        /* \"CASINO/casino.sol\":488:540  abi.encodePacked(block.timestamp, msg.sender, nonce) */\n      add(0x20, mload(0x40))\n      tag_61\n      swap4\n      swap3\n      swap2\n      swap1\n      tag_62\n      jump\t// in\n    tag_61:\n      mload(0x40)\n      0x20\n      dup2\n      dup4\n      sub\n      sub\n      dup2\n      mstore\n      swap1\n      0x40\n      mstore\n        /* \"CASINO/casino.sol\":478:541  keccak256(abi.encodePacked(block.timestamp, msg.sender, nonce)) */\n      dup1\n      mload\n      swap1\n      0x20\n      add\n      keccak256\n        /* \"CASINO/casino.sol\":470:542  uint256(keccak256(abi.encodePacked(block.timestamp, msg.sender, nonce))) */\n      0x00\n      shr\n        /* \"CASINO/casino.sol\":470:547  uint256(keccak256(abi.encodePacked(block.timestamp, msg.sender, nonce))) % 10 */\n      tag_63\n      swap2\n      swap1\n      tag_64\n      jump\t// in\n    tag_63:\n        /* \"CASINO/casino.sol\":447:547  uint256 randomNumber = uint256(keccak256(abi.encodePacked(block.timestamp, msg.sender, nonce))) % 10 */\n      swap1\n      pop\n        /* \"CASINO/casino.sol\":557:562  nonce */\n      0x01\n      0x00\n        /* \"CASINO/casino.sol\":557:564  nonce++ */\n      dup2\n      sload\n      dup1\n      swap3\n      swap2\n      swap1\n      tag_65\n      swap1\n      tag_66\n      jump\t// in\n    tag_65:\n      swap2\n      swap1\n      pop\n      sstore\n      pop\n        /* \"CASINO/casino.sol\":581:593  randomNumber */\n      dup1\n        /* \"CASINO/casino.sol\":574:580  number */\n      0x05\n        /* \"CASINO/casino.sol\":574:593  number=randomNumber */\n      dup2\n      swap1\n      sstore\n      pop\n        /* \"CASINO/casino.sol\":610:622  randomNumber */\n      dup1\n        /* \"CASINO/casino.sol\":603:622  return randomNumber */\n      swap2\n      pop\n      pop\n        /* \"CASINO/casino.sol\":384:629  function getRandomNumber() private returns (uint256) {... */\n      swap1\n      jump\t// out\n        /* \"CASINO/casino.sol\":1091:1436  function compareNum(uint256 argument, uint256 num) private pure returns (bool) {... */\n    tag_38:\n        /* \"CASINO/casino.sol\":1164:1168  bool */\n      0x00\n        /* \"CASINO/casino.sol\":1196:1197  1 */\n      0x01\n        /* \"CASINO/casino.sol\":1184:1192  argument */\n      dup4\n        /* \"CASINO/casino.sol\":1184:1197  argument == 1 */\n      sub\n        /* \"CASINO/casino.sol\":1180:1430  if (argument == 1) {... */\n      tag_68\n      jumpi\n        /* \"CASINO/casino.sol\":1227:1228  5 */\n      0x05\n        /* \"CASINO/casino.sol\":1221:1224  num */\n      dup3\n        /* \"CASINO/casino.sol\":1221:1228  num > 5 */\n      gt\n        /* \"CASINO/casino.sol\":1213:1229  return (num > 5) */\n      swap1\n      pop\n      jump(tag_67)\n        /* \"CASINO/casino.sol\":1180:1430  if (argument == 1) {... */\n    tag_68:\n        /* \"CASINO/casino.sol\":1262:1263  2 */\n      0x02\n        /* \"CASINO/casino.sol\":1250:1258  argument */\n      dup4\n        /* \"CASINO/casino.sol\":1250:1263  argument == 2 */\n      sub\n        /* \"CASINO/casino.sol\":1246:1430  if (argument == 2) {... */\n      tag_70\n      jumpi\n        /* \"CASINO/casino.sol\":1293:1294  5 */\n      0x05\n        /* \"CASINO/casino.sol\":1287:1290  num */\n      dup3\n        /* \"CASINO/casino.sol\":1287:1294  num < 5 */\n      lt\n        /* \"CASINO/casino.sol\":1279:1295  return (num < 5) */\n      swap1\n      pop\n      jump(tag_67)\n        /* \"CASINO/casino.sol\":1246:1430  if (argument == 2) {... */\n    tag_70:\n        /* \"CASINO/casino.sol\":1328:1329  3 */\n      0x03\n        /* \"CASINO/casino.sol\":1316:1324  argument */\n      dup4\n        /* \"CASINO/casino.sol\":1316:1329  argument == 3 */\n      sub\n        /* \"CASINO/casino.sol\":1312:1430  if (argument == 3) {... */\n      tag_72\n      jumpi\n        /* \"CASINO/casino.sol\":1360:1361  5 */\n      0x05\n        /* \"CASINO/casino.sol\":1353:1356  num */\n      dup3\n        /* \"CASINO/casino.sol\":1353:1361  num == 5 */\n      eq\n        /* \"CASINO/casino.sol\":1345:1362  return (num == 5) */\n      swap1\n      pop\n      jump(tag_67)\n        /* \"CASINO/casino.sol\":1312:1430  if (argument == 3) {... */\n    tag_72:\n        /* \"CASINO/casino.sol\":1393:1419  revert(\"Invalid argument\") */\n      mload(0x40)\n      0x08c379a000000000000000000000000000000000000000000000000000000000\n      dup2\n      mstore\n      0x04\n      add\n      tag_74\n      swap1\n      tag_75\n      jump\t// in\n    tag_74:\n      mload(0x40)\n      dup1\n      swap2\n      sub\n      swap1\n      revert\n        /* \"CASINO/casino.sol\":1091:1436  function compareNum(uint256 argument, uint256 num) private pure returns (bool) {... */\n    tag_67:\n      swap3\n      swap2\n      pop\n      pop\n      jump\t// out\n        /* \"#utility.yul\":88:205   */\n    tag_77:\n        /* \"#utility.yul\":197:198   */\n      0x00\n        /* \"#utility.yul\":194:195   */\n      dup1\n        /* \"#utility.yul\":187:199   */\n      revert\n        /* \"#utility.yul\":334:411   */\n    tag_79:\n        /* \"#utility.yul\":371:378   */\n      0x00\n        /* \"#utility.yul\":400:405   */\n      dup2\n        /* \"#utility.yul\":389:405   */\n      swap1\n      pop\n        /* \"#utility.yul\":334:411   */\n      swap2\n      swap1\n      pop\n      jump\t// out\n        /* \"#utility.yul\":417:539   */\n    tag_80:\n        /* \"#utility.yul\":490:514   */\n      tag_113\n        /* \"#utility.yul\":508:513   */\n      dup2\n        /* \"#utility.yul\":490:514   */\n      tag_79\n      jump\t// in\n    tag_113:\n        /* \"#utility.yul\":483:488   */\n      dup2\n        /* \"#utility.yul\":480:515   */\n      eq\n        /* \"#utility.yul\":470:533   */\n      tag_114\n      jumpi\n        /* \"#utility.yul\":529:530   */\n      0x00\n        /* \"#utility.yul\":526:527   */\n      dup1\n        /* \"#utility.yul\":519:531   */\n      revert\n        /* \"#utility.yul\":470:533   */\n    tag_114:\n        /* \"#utility.yul\":417:539   */\n      pop\n      jump\t// out\n        /* \"#utility.yul\":545:684   */\n    tag_81:\n        /* \"#utility.yul\":591:596   */\n      0x00\n        /* \"#utility.yul\":629:635   */\n      dup2\n        /* \"#utility.yul\":616:636   */\n      calldataload\n        /* \"#utility.yul\":607:636   */\n      swap1\n      pop\n        /* \"#utility.yul\":645:678   */\n      tag_116\n        /* \"#utility.yul\":672:677   */\n      dup2\n        /* \"#utility.yul\":645:678   */\n      tag_80\n      jump\t// in\n    tag_116:\n        /* \"#utility.yul\":545:684   */\n      swap3\n      swap2\n      pop\n      pop\n      jump\t// out\n        /* \"#utility.yul\":690:1164   */\n    tag_8:\n        /* \"#utility.yul\":758:764   */\n      0x00\n        /* \"#utility.yul\":766:772   */\n      dup1\n        /* \"#utility.yul\":815:817   */\n      0x40\n        /* \"#utility.yul\":803:812   */\n      dup4\n        /* \"#utility.yul\":794:801   */\n      dup6\n        /* \"#utility.yul\":790:813   */\n      sub\n        /* \"#utility.yul\":786:818   */\n      slt\n        /* \"#utility.yul\":783:902   */\n      iszero\n      tag_118\n      jumpi\n        /* \"#utility.yul\":821:900   */\n      tag_119\n      tag_77\n      jump\t// in\n    tag_119:\n        /* \"#utility.yul\":783:902   */\n    tag_118:\n        /* \"#utility.yul\":941:942   */\n      0x00\n        /* \"#utility.yul\":966:1019   */\n      tag_120\n        /* \"#utility.yul\":1011:1018   */\n      dup6\n        /* \"#utility.yul\":1002:1008   */\n      dup3\n        /* \"#utility.yul\":991:1000   */\n      dup7\n        /* \"#utility.yul\":987:1009   */\n      add\n        /* \"#utility.yul\":966:1019   */\n      tag_81\n      jump\t// in\n    tag_120:\n        /* \"#utility.yul\":956:1019   */\n      swap3\n      pop\n        /* \"#utility.yul\":912:1029   */\n      pop\n        /* \"#utility.yul\":1068:1070   */\n      0x20\n        /* \"#utility.yul\":1094:1147   */\n      tag_121\n        /* \"#utility.yul\":1139:1146   */\n      dup6\n        /* \"#utility.yul\":1130:1136   */\n      dup3\n        /* \"#utility.yul\":1119:1128   */\n      dup7\n        /* \"#utility.yul\":1115:1137   */\n      add\n        /* \"#utility.yul\":1094:1147   */\n      tag_81\n      jump\t// in\n    tag_121:\n        /* \"#utility.yul\":1084:1147   */\n      swap2\n      pop\n        /* \"#utility.yul\":1039:1157   */\n      pop\n        /* \"#utility.yul\":690:1164   */\n      swap3\n      pop\n      swap3\n      swap1\n      pop\n      jump\t// out\n        /* \"#utility.yul\":1170:1288   */\n    tag_82:\n        /* \"#utility.yul\":1257:1281   */\n      tag_123\n        /* \"#utility.yul\":1275:1280   */\n      dup2\n        /* \"#utility.yul\":1257:1281   */\n      tag_79\n      jump\t// in\n    tag_123:\n        /* \"#utility.yul\":1252:1255   */\n      dup3\n        /* \"#utility.yul\":1245:1282   */\n      mstore\n        /* \"#utility.yul\":1170:1288   */\n      pop\n      pop\n      jump\t// out\n        /* \"#utility.yul\":1294:1516   */\n    tag_13:\n        /* \"#utility.yul\":1387:1391   */\n      0x00\n        /* \"#utility.yul\":1425:1427   */\n      0x20\n        /* \"#utility.yul\":1414:1423   */\n      dup3\n        /* \"#utility.yul\":1410:1428   */\n      add\n        /* \"#utility.yul\":1402:1428   */\n      swap1\n      pop\n        /* \"#utility.yul\":1438:1509   */\n      tag_125\n        /* \"#utility.yul\":1506:1507   */\n      0x00\n        /* \"#utility.yul\":1495:1504   */\n      dup4\n        /* \"#utility.yul\":1491:1508   */\n      add\n        /* \"#utility.yul\":1482:1488   */\n      dup5\n        /* \"#utility.yul\":1438:1509   */\n      tag_82\n      jump\t// in\n    tag_125:\n        /* \"#utility.yul\":1294:1516   */\n      swap3\n      swap2\n      pop\n      pop\n      jump\t// out\n        /* \"#utility.yul\":1522:1702   */\n    tag_83:\n        /* \"#utility.yul\":1570:1647   */\n      0x4e487b7100000000000000000000000000000000000000000000000000000000\n        /* \"#utility.yul\":1567:1568   */\n      0x00\n        /* \"#utility.yul\":1560:1648   */\n      mstore\n        /* \"#utility.yul\":1667:1671   */\n      0x11\n        /* \"#utility.yul\":1664:1665   */\n      0x04\n        /* \"#utility.yul\":1657:1672   */\n      mstore\n        /* \"#utility.yul\":1691:1695   */\n      0x24\n        /* \"#utility.yul\":1688:1689   */\n      0x00\n        /* \"#utility.yul\":1681:1696   */\n      revert\n        /* \"#utility.yul\":1708:2118   */\n    tag_18:\n        /* \"#utility.yul\":1748:1755   */\n      0x00\n        /* \"#utility.yul\":1771:1791   */\n      tag_128\n        /* \"#utility.yul\":1789:1790   */\n      dup3\n        /* \"#utility.yul\":1771:1791   */\n      tag_79\n      jump\t// in\n    tag_128:\n        /* \"#utility.yul\":1766:1791   */\n      swap2\n      pop\n        /* \"#utility.yul\":1805:1825   */\n      tag_129\n        /* \"#utility.yul\":1823:1824   */\n      dup4\n        /* \"#utility.yul\":1805:1825   */\n      tag_79\n      jump\t// in\n    tag_129:\n        /* \"#utility.yul\":1800:1825   */\n      swap3\n      pop\n        /* \"#utility.yul\":1860:1861   */\n      dup3\n        /* \"#utility.yul\":1857:1858   */\n      dup3\n        /* \"#utility.yul\":1853:1862   */\n      mul\n        /* \"#utility.yul\":1882:1912   */\n      tag_130\n        /* \"#utility.yul\":1900:1911   */\n      dup2\n        /* \"#utility.yul\":1882:1912   */\n      tag_79\n      jump\t// in\n    tag_130:\n        /* \"#utility.yul\":1871:1912   */\n      swap2\n      pop\n        /* \"#utility.yul\":2061:2062   */\n      dup3\n        /* \"#utility.yul\":2052:2059   */\n      dup3\n        /* \"#utility.yul\":2048:2063   */\n      div\n        /* \"#utility.yul\":2045:2046   */\n      dup5\n        /* \"#utility.yul\":2042:2064   */\n      eq\n        /* \"#utility.yul\":2022:2023   */\n      dup4\n        /* \"#utility.yul\":2015:2024   */\n      iszero\n        /* \"#utility.yul\":1995:2078   */\n      or\n        /* \"#utility.yul\":1972:2111   */\n      tag_131\n      jumpi\n        /* \"#utility.yul\":2091:2109   */\n      tag_132\n      tag_83\n      jump\t// in\n    tag_132:\n        /* \"#utility.yul\":1972:2111   */\n    tag_131:\n        /* \"#utility.yul\":1756:2118   */\n      pop\n        /* \"#utility.yul\":1708:2118   */\n      swap3\n      swap2\n      pop\n      pop\n      jump\t// out\n        /* \"#utility.yul\":2124:2250   */\n    tag_84:\n        /* \"#utility.yul\":2161:2168   */\n      0x00\n        /* \"#utility.yul\":2201:2243   */\n      0xffffffffffffffffffffffffffffffffffffffff\n        /* \"#utility.yul\":2194:2199   */\n      dup3\n        /* \"#utility.yul\":2190:2244   */\n      and\n        /* \"#utility.yul\":2179:2244   */\n      swap1\n      pop\n        /* \"#utility.yul\":2124:2250   */\n      swap2\n      swap1\n      pop\n      jump\t// out\n        /* \"#utility.yul\":2256:2352   */\n    tag_85:\n        /* \"#utility.yul\":2293:2300   */\n      0x00\n        /* \"#utility.yul\":2322:2346   */\n      tag_135\n        /* \"#utility.yul\":2340:2345   */\n      dup3\n        /* \"#utility.yul\":2322:2346   */\n      tag_84\n      jump\t// in\n    tag_135:\n        /* \"#utility.yul\":2311:2346   */\n      swap1\n      pop\n        /* \"#utility.yul\":2256:2352   */\n      swap2\n      swap1\n      pop\n      jump\t// out\n        /* \"#utility.yul\":2358:2476   */\n    tag_86:\n        /* \"#utility.yul\":2445:2469   */\n      tag_137\n        /* \"#utility.yul\":2463:2468   */\n      dup2\n        /* \"#utility.yul\":2445:2469   */\n      tag_85\n      jump\t// in\n    tag_137:\n        /* \"#utility.yul\":2440:2443   */\n      dup3\n        /* \"#utility.yul\":2433:2470   */\n      mstore\n        /* \"#utility.yul\":2358:2476   */\n      pop\n      pop\n      jump\t// out\n        /* \"#utility.yul\":2482:2704   */\n    tag_20:\n        /* \"#utility.yul\":2575:2579   */\n      0x00\n        /* \"#utility.yul\":2613:2615   */\n      0x20\n        /* \"#utility.yul\":2602:2611   */\n      dup3\n        /* \"#utility.yul\":2598:2616   */\n      add\n        /* \"#utility.yul\":2590:2616   */\n      swap1\n      pop\n        /* \"#utility.yul\":2626:2697   */\n      tag_139\n        /* \"#utility.yul\":2694:2695   */\n      0x00\n        /* \"#utility.yul\":2683:2692   */\n      dup4\n        /* \"#utility.yul\":2679:2696   */\n      add\n        /* \"#utility.yul\":2670:2676   */\n      dup5\n        /* \"#utility.yul\":2626:2697   */\n      tag_86\n      jump\t// in\n    tag_139:\n        /* \"#utility.yul\":2482:2704   */\n      swap3\n      swap2\n      pop\n      pop\n      jump\t// out\n        /* \"#utility.yul\":2710:2853   */\n    tag_87:\n        /* \"#utility.yul\":2767:2772   */\n      0x00\n        /* \"#utility.yul\":2798:2804   */\n      dup2\n        /* \"#utility.yul\":2792:2805   */\n      mload\n        /* \"#utility.yul\":2783:2805   */\n      swap1\n      pop\n        /* \"#utility.yul\":2814:2847   */\n      tag_141\n        /* \"#utility.yul\":2841:2846   */\n      dup2\n        /* \"#utility.yul\":2814:2847   */\n      tag_80\n      jump\t// in\n    tag_141:\n        /* \"#utility.yul\":2710:2853   */\n      swap3\n      swap2\n      pop\n      pop\n      jump\t// out\n        /* \"#utility.yul\":2859:3210   */\n    tag_24:\n        /* \"#utility.yul\":2929:2935   */\n      0x00\n        /* \"#utility.yul\":2978:2980   */\n      0x20\n        /* \"#utility.yul\":2966:2975   */\n      dup3\n        /* \"#utility.yul\":2957:2964   */\n      dup5\n        /* \"#utility.yul\":2953:2976   */\n      sub\n        /* \"#utility.yul\":2949:2981   */\n      slt\n        /* \"#utility.yul\":2946:3065   */\n      iszero\n      tag_143\n      jumpi\n        /* \"#utility.yul\":2984:3063   */\n      tag_144\n      tag_77\n      jump\t// in\n    tag_144:\n        /* \"#utility.yul\":2946:3065   */\n    tag_143:\n        /* \"#utility.yul\":3104:3105   */\n      0x00\n        /* \"#utility.yul\":3129:3193   */\n      tag_145\n        /* \"#utility.yul\":3185:3192   */\n      dup5\n        /* \"#utility.yul\":3176:3182   */\n      dup3\n        /* \"#utility.yul\":3165:3174   */\n      dup6\n        /* \"#utility.yul\":3161:3183   */\n      add\n        /* \"#utility.yul\":3129:3193   */\n      tag_87\n      jump\t// in\n    tag_145:\n        /* \"#utility.yul\":3119:3193   */\n      swap2\n      pop\n        /* \"#utility.yul\":3075:3203   */\n      pop\n        /* \"#utility.yul\":2859:3210   */\n      swap3\n      swap2\n      pop\n      pop\n      jump\t// out\n        /* \"#utility.yul\":3216:3385   */\n    tag_88:\n        /* \"#utility.yul\":3300:3311   */\n      0x00\n        /* \"#utility.yul\":3334:3340   */\n      dup3\n        /* \"#utility.yul\":3329:3332   */\n      dup3\n        /* \"#utility.yul\":3322:3341   */\n      mstore\n        /* \"#utility.yul\":3374:3378   */\n      0x20\n        /* \"#utility.yul\":3369:3372   */\n      dup3\n        /* \"#utility.yul\":3365:3379   */\n      add\n        /* \"#utility.yul\":3350:3379   */\n      swap1\n      pop\n        /* \"#utility.yul\":3216:3385   */\n      swap3\n      swap2\n      pop\n      pop\n      jump\t// out\n        /* \"#utility.yul\":3391:3568   */\n    tag_89:\n        /* \"#utility.yul\":3531:3560   */\n      0x43757272656e746c792042657474696e67206973207269736b792e0000000000\n        /* \"#utility.yul\":3527:3528   */\n      0x00\n        /* \"#utility.yul\":3519:3525   */\n      dup3\n        /* \"#utility.yul\":3515:3529   */\n      add\n        /* \"#utility.yul\":3508:3561   */\n      mstore\n        /* \"#utility.yul\":3391:3568   */\n      pop\n      jump\t// out\n        /* \"#utility.yul\":3574:3940   */\n    tag_90:\n        /* \"#utility.yul\":3716:3719   */\n      0x00\n        /* \"#utility.yul\":3737:3804   */\n      tag_149\n        /* \"#utility.yul\":3801:3803   */\n      0x1b\n        /* \"#utility.yul\":3796:3799   */\n      dup4\n        /* \"#utility.yul\":3737:3804   */\n      tag_88\n      jump\t// in\n    tag_149:\n        /* \"#utility.yul\":3730:3804   */\n      swap2\n      pop\n        /* \"#utility.yul\":3813:3906   */\n      tag_150\n        /* \"#utility.yul\":3902:3905   */\n      dup3\n        /* \"#utility.yul\":3813:3906   */\n      tag_89\n      jump\t// in\n    tag_150:\n        /* \"#utility.yul\":3931:3933   */\n      0x20\n        /* \"#utility.yul\":3926:3929   */\n      dup3\n        /* \"#utility.yul\":3922:3934   */\n      add\n        /* \"#utility.yul\":3915:3934   */\n      swap1\n      pop\n        /* \"#utility.yul\":3574:3940   */\n      swap2\n      swap1\n      pop\n      jump\t// out\n        /* \"#utility.yul\":3946:4365   */\n    tag_27:\n        /* \"#utility.yul\":4112:4116   */\n      0x00\n        /* \"#utility.yul\":4150:4152   */\n      0x20\n        /* \"#utility.yul\":4139:4148   */\n      dup3\n        /* \"#utility.yul\":4135:4153   */\n      add\n        /* \"#utility.yul\":4127:4153   */\n      swap1\n      pop\n        /* \"#utility.yul\":4199:4208   */\n      dup2\n        /* \"#utility.yul\":4193:4197   */\n      dup2\n        /* \"#utility.yul\":4189:4209   */\n      sub\n        /* \"#utility.yul\":4185:4186   */\n      0x00\n        /* \"#utility.yul\":4174:4183   */\n      dup4\n        /* \"#utility.yul\":4170:4187   */\n      add\n        /* \"#utility.yul\":4163:4210   */\n      mstore\n        /* \"#utility.yul\":4227:4358   */\n      tag_152\n        /* \"#utility.yul\":4353:4357   */\n      dup2\n        /* \"#utility.yul\":4227:4358   */\n      tag_90\n      jump\t// in\n    tag_152:\n        /* \"#utility.yul\":4219:4358   */\n      swap1\n      pop\n        /* \"#utility.yul\":3946:4365   */\n      swap2\n      swap1\n      pop\n      jump\t// out\n        /* \"#utility.yul\":4371:4813   */\n    tag_30:\n        /* \"#utility.yul\":4520:4524   */\n      0x00\n        /* \"#utility.yul\":4558:4560   */\n      0x60\n        /* \"#utility.yul\":4547:4556   */\n      dup3\n        /* \"#utility.yul\":4543:4561   */\n      add\n        /* \"#utility.yul\":4535:4561   */\n      swap1\n      pop\n        /* \"#utility.yul\":4571:4642   */\n      tag_154\n        /* \"#utility.yul\":4639:4640   */\n      0x00\n        /* \"#utility.yul\":4628:4637   */\n      dup4\n        /* \"#utility.yul\":4624:4641   */\n      add\n        /* \"#utility.yul\":4615:4621   */\n      dup7\n        /* \"#utility.yul\":4571:4642   */\n      tag_86\n      jump\t// in\n    tag_154:\n        /* \"#utility.yul\":4652:4724   */\n      tag_155\n        /* \"#utility.yul\":4720:4722   */\n      0x20\n        /* \"#utility.yul\":4709:4718   */\n      dup4\n        /* \"#utility.yul\":4705:4723   */\n      add\n        /* \"#utility.yul\":4696:4702   */\n      dup6\n        /* \"#utility.yul\":4652:4724   */\n      tag_86\n      jump\t// in\n    tag_155:\n        /* \"#utility.yul\":4734:4806   */\n      tag_156\n        /* \"#utility.yul\":4802:4804   */\n      0x40\n        /* \"#utility.yul\":4791:4800   */\n      dup4\n        /* \"#utility.yul\":4787:4805   */\n      add\n        /* \"#utility.yul\":4778:4784   */\n      dup5\n        /* \"#utility.yul\":4734:4806   */\n      tag_82\n      jump\t// in\n    tag_156:\n        /* \"#utility.yul\":4371:4813   */\n      swap5\n      swap4\n      pop\n      pop\n      pop\n      pop\n      jump\t// out\n        /* \"#utility.yul\":4819:4909   */\n    tag_91:\n        /* \"#utility.yul\":4853:4860   */\n      0x00\n        /* \"#utility.yul\":4896:4901   */\n      dup2\n        /* \"#utility.yul\":4889:4902   */\n      iszero\n        /* \"#utility.yul\":4882:4903   */\n      iszero\n        /* \"#utility.yul\":4871:4903   */\n      swap1\n      pop\n        /* \"#utility.yul\":4819:4909   */\n      swap2\n      swap1\n      pop\n      jump\t// out\n        /* \"#utility.yul\":4915:5031   */\n    tag_92:\n        /* \"#utility.yul\":4985:5006   */\n      tag_159\n        /* \"#utility.yul\":5000:5005   */\n      dup2\n        /* \"#utility.yul\":4985:5006   */\n      tag_91\n      jump\t// in\n    tag_159:\n        /* \"#utility.yul\":4978:4983   */\n      dup2\n        /* \"#utility.yul\":4975:5007   */\n      eq\n        /* \"#utility.yul\":4965:5025   */\n      tag_160\n      jumpi\n        /* \"#utility.yul\":5021:5022   */\n      0x00\n        /* \"#utility.yul\":5018:5019   */\n      dup1\n        /* \"#utility.yul\":5011:5023   */\n      revert\n        /* \"#utility.yul\":4965:5025   */\n    tag_160:\n        /* \"#utility.yul\":4915:5031   */\n      pop\n      jump\t// out\n        /* \"#utility.yul\":5037:5174   */\n    tag_93:\n        /* \"#utility.yul\":5091:5096   */\n      0x00\n        /* \"#utility.yul\":5122:5128   */\n      dup2\n        /* \"#utility.yul\":5116:5129   */\n      mload\n        /* \"#utility.yul\":5107:5129   */\n      swap1\n      pop\n        /* \"#utility.yul\":5138:5168   */\n      tag_162\n        /* \"#utility.yul\":5162:5167   */\n      dup2\n        /* \"#utility.yul\":5138:5168   */\n      tag_92\n      jump\t// in\n    tag_162:\n        /* \"#utility.yul\":5037:5174   */\n      swap3\n      swap2\n      pop\n      pop\n      jump\t// out\n        /* \"#utility.yul\":5180:5525   */\n    tag_34:\n        /* \"#utility.yul\":5247:5253   */\n      0x00\n        /* \"#utility.yul\":5296:5298   */\n      0x20\n        /* \"#utility.yul\":5284:5293   */\n      dup3\n        /* \"#utility.yul\":5275:5282   */\n      dup5\n        /* \"#utility.yul\":5271:5294   */\n      sub\n        /* \"#utility.yul\":5267:5299   */\n      slt\n        /* \"#utility.yul\":5264:5383   */\n      iszero\n      tag_164\n      jumpi\n        /* \"#utility.yul\":5302:5381   */\n      tag_165\n      tag_77\n      jump\t// in\n    tag_165:\n        /* \"#utility.yul\":5264:5383   */\n    tag_164:\n        /* \"#utility.yul\":5422:5423   */\n      0x00\n        /* \"#utility.yul\":5447:5508   */\n      tag_166\n        /* \"#utility.yul\":5500:5507   */\n      dup5\n        /* \"#utility.yul\":5491:5497   */\n      dup3\n        /* \"#utility.yul\":5480:5489   */\n      dup6\n        /* \"#utility.yul\":5476:5498   */\n      add\n        /* \"#utility.yul\":5447:5508   */\n      tag_93\n      jump\t// in\n    tag_166:\n        /* \"#utility.yul\":5437:5508   */\n      swap2\n      pop\n        /* \"#utility.yul\":5393:5518   */\n      pop\n        /* \"#utility.yul\":5180:5525   */\n      swap3\n      swap2\n      pop\n      pop\n      jump\t// out\n        /* \"#utility.yul\":5531:5863   */\n    tag_41:\n        /* \"#utility.yul\":5652:5656   */\n      0x00\n        /* \"#utility.yul\":5690:5692   */\n      0x40\n        /* \"#utility.yul\":5679:5688   */\n      dup3\n        /* \"#utility.yul\":5675:5693   */\n      add\n        /* \"#utility.yul\":5667:5693   */\n      swap1\n      pop\n        /* \"#utility.yul\":5703:5774   */\n      tag_168\n        /* \"#utility.yul\":5771:5772   */\n      0x00\n        /* \"#utility.yul\":5760:5769   */\n      dup4\n        /* \"#utility.yul\":5756:5773   */\n      add\n        /* \"#utility.yul\":5747:5753   */\n      dup6\n        /* \"#utility.yul\":5703:5774   */\n      tag_86\n      jump\t// in\n    tag_168:\n        /* \"#utility.yul\":5784:5856   */\n      tag_169\n        /* \"#utility.yul\":5852:5854   */\n      0x20\n        /* \"#utility.yul\":5841:5850   */\n      dup4\n        /* \"#utility.yul\":5837:5855   */\n      add\n        /* \"#utility.yul\":5828:5834   */\n      dup5\n        /* \"#utility.yul\":5784:5856   */\n      tag_82\n      jump\t// in\n    tag_169:\n        /* \"#utility.yul\":5531:5863   */\n      swap4\n      swap3\n      pop\n      pop\n      pop\n      jump\t// out\n        /* \"#utility.yul\":5869:6089   */\n    tag_94:\n        /* \"#utility.yul\":6009:6043   */\n      0x436f6e74726163742068617665206e6f7420696e6f7567682062616c616e6365\n        /* \"#utility.yul\":6005:6006   */\n      0x00\n        /* \"#utility.yul\":5997:6003   */\n      dup3\n        /* \"#utility.yul\":5993:6007   */\n      add\n        /* \"#utility.yul\":5986:6044   */\n      mstore\n        /* \"#utility.yul\":6078:6081   */\n      0x2e00000000000000000000000000000000000000000000000000000000000000\n        /* \"#utility.yul\":6073:6075   */\n      0x20\n        /* \"#utility.yul\":6065:6071   */\n      dup3\n        /* \"#utility.yul\":6061:6076   */\n      add\n        /* \"#utility.yul\":6054:6082   */\n      mstore\n        /* \"#utility.yul\":5869:6089   */\n      pop\n      jump\t// out\n        /* \"#utility.yul\":6095:6461   */\n    tag_95:\n        /* \"#utility.yul\":6237:6240   */\n      0x00\n        /* \"#utility.yul\":6258:6325   */\n      tag_172\n        /* \"#utility.yul\":6322:6324   */\n      0x21\n        /* \"#utility.yul\":6317:6320   */\n      dup4\n        /* \"#utility.yul\":6258:6325   */\n      tag_88\n      jump\t// in\n    tag_172:\n        /* \"#utility.yul\":6251:6325   */\n      swap2\n      pop\n        /* \"#utility.yul\":6334:6427   */\n      tag_173\n        /* \"#utility.yul\":6423:6426   */\n      dup3\n        /* \"#utility.yul\":6334:6427   */\n      tag_94\n      jump\t// in\n    tag_173:\n        /* \"#utility.yul\":6452:6454   */\n      0x40\n        /* \"#utility.yul\":6447:6450   */\n      dup3\n        /* \"#utility.yul\":6443:6455   */\n      add\n        /* \"#utility.yul\":6436:6455   */\n      swap1\n      pop\n        /* \"#utility.yul\":6095:6461   */\n      swap2\n      swap1\n      pop\n      jump\t// out\n        /* \"#utility.yul\":6467:6886   */\n    tag_47:\n        /* \"#utility.yul\":6633:6637   */\n      0x00\n        /* \"#utility.yul\":6671:6673   */\n      0x20\n        /* \"#utility.yul\":6660:6669   */\n      dup3\n        /* \"#utility.yul\":6656:6674   */\n      add\n        /* \"#utility.yul\":6648:6674   */\n      swap1\n      pop\n        /* \"#utility.yul\":6720:6729   */\n      dup2\n        /* \"#utility.yul\":6714:6718   */\n      dup2\n        /* \"#utility.yul\":6710:6730   */\n      sub\n        /* \"#utility.yul\":6706:6707   */\n      0x00\n        /* \"#utility.yul\":6695:6704   */\n      dup4\n        /* \"#utility.yul\":6691:6708   */\n      add\n        /* \"#utility.yul\":6684:6731   */\n      mstore\n        /* \"#utility.yul\":6748:6879   */\n      tag_175\n        /* \"#utility.yul\":6874:6878   */\n      dup2\n        /* \"#utility.yul\":6748:6879   */\n      tag_95\n      jump\t// in\n    tag_175:\n        /* \"#utility.yul\":6740:6879   */\n      swap1\n      pop\n        /* \"#utility.yul\":6467:6886   */\n      swap2\n      swap1\n      pop\n      jump\t// out\n        /* \"#utility.yul\":6892:7062   */\n    tag_96:\n        /* \"#utility.yul\":7032:7054   */\n      0x596f7520617265204e6f7420616e204f776e6572000000000000000000000000\n        /* \"#utility.yul\":7028:7029   */\n      0x00\n        /* \"#utility.yul\":7020:7026   */\n      dup3\n        /* \"#utility.yul\":7016:7030   */\n      add\n        /* \"#utility.yul\":7009:7055   */\n      mstore\n        /* \"#utility.yul\":6892:7062   */\n      pop\n      jump\t// out\n        /* \"#utility.yul\":7068:7434   */\n    tag_97:\n        /* \"#utility.yul\":7210:7213   */\n      0x00\n        /* \"#utility.yul\":7231:7298   */\n      tag_178\n        /* \"#utility.yul\":7295:7297   */\n      0x14\n        /* \"#utility.yul\":7290:7293   */\n      dup4\n        /* \"#utility.yul\":7231:7298   */\n      tag_88\n      jump\t// in\n    tag_178:\n        /* \"#utility.yul\":7224:7298   */\n      swap2\n      pop\n        /* \"#utility.yul\":7307:7400   */\n      tag_179\n        /* \"#utility.yul\":7396:7399   */\n      dup3\n        /* \"#utility.yul\":7307:7400   */\n      tag_96\n      jump\t// in\n    tag_179:\n        /* \"#utility.yul\":7425:7427   */\n      0x20\n        /* \"#utility.yul\":7420:7423   */\n      dup3\n        /* \"#utility.yul\":7416:7428   */\n      add\n        /* \"#utility.yul\":7409:7428   */\n      swap1\n      pop\n        /* \"#utility.yul\":7068:7434   */\n      swap2\n      swap1\n      pop\n      jump\t// out\n        /* \"#utility.yul\":7440:7859   */\n    tag_51:\n        /* \"#utility.yul\":7606:7610   */\n      0x00\n        /* \"#utility.yul\":7644:7646   */\n      0x20\n        /* \"#utility.yul\":7633:7642   */\n      dup3\n        /* \"#utility.yul\":7629:7647   */\n      add\n        /* \"#utility.yul\":7621:7647   */\n      swap1\n      pop\n        /* \"#utility.yul\":7693:7702   */\n      dup2\n        /* \"#utility.yul\":7687:7691   */\n      dup2\n        /* \"#utility.yul\":7683:7703   */\n      sub\n        /* \"#utility.yul\":7679:7680   */\n      0x00\n        /* \"#utility.yul\":7668:7677   */\n      dup4\n        /* \"#utility.yul\":7664:7681   */\n      add\n        /* \"#utility.yul\":7657:7704   */\n      mstore\n        /* \"#utility.yul\":7721:7852   */\n      tag_181\n        /* \"#utility.yul\":7847:7851   */\n      dup2\n        /* \"#utility.yul\":7721:7852   */\n      tag_97\n      jump\t// in\n    tag_181:\n        /* \"#utility.yul\":7713:7852   */\n      swap1\n      pop\n        /* \"#utility.yul\":7440:7859   */\n      swap2\n      swap1\n      pop\n      jump\t// out\n        /* \"#utility.yul\":7865:7944   */\n    tag_98:\n        /* \"#utility.yul\":7904:7911   */\n      0x00\n        /* \"#utility.yul\":7933:7938   */\n      dup2\n        /* \"#utility.yul\":7922:7938   */\n      swap1\n      pop\n        /* \"#utility.yul\":7865:7944   */\n      swap2\n      swap1\n      pop\n      jump\t// out\n        /* \"#utility.yul\":7950:8107   */\n    tag_99:\n        /* \"#utility.yul\":8055:8100   */\n      tag_184\n        /* \"#utility.yul\":8075:8099   */\n      tag_185\n        /* \"#utility.yul\":8093:8098   */\n      dup3\n        /* \"#utility.yul\":8075:8099   */\n      tag_79\n      jump\t// in\n    tag_185:\n        /* \"#utility.yul\":8055:8100   */\n      tag_98\n      jump\t// in\n    tag_184:\n        /* \"#utility.yul\":8050:8053   */\n      dup3\n        /* \"#utility.yul\":8043:8101   */\n      mstore\n        /* \"#utility.yul\":7950:8107   */\n      pop\n      pop\n      jump\t// out\n        /* \"#utility.yul\":8113:8207   */\n    tag_100:\n        /* \"#utility.yul\":8146:8154   */\n      0x00\n        /* \"#utility.yul\":8194:8199   */\n      dup2\n        /* \"#utility.yul\":8190:8192   */\n      0x60\n        /* \"#utility.yul\":8186:8200   */\n      shl\n        /* \"#utility.yul\":8165:8200   */\n      swap1\n      pop\n        /* \"#utility.yul\":8113:8207   */\n      swap2\n      swap1\n      pop\n      jump\t// out\n        /* \"#utility.yul\":8213:8307   */\n    tag_101:\n        /* \"#utility.yul\":8252:8259   */\n      0x00\n        /* \"#utility.yul\":8281:8301   */\n      tag_188\n        /* \"#utility.yul\":8295:8300   */\n      dup3\n        /* \"#utility.yul\":8281:8301   */\n      tag_100\n      jump\t// in\n    tag_188:\n        /* \"#utility.yul\":8270:8301   */\n      swap1\n      pop\n        /* \"#utility.yul\":8213:8307   */\n      swap2\n      swap1\n      pop\n      jump\t// out\n        /* \"#utility.yul\":8313:8413   */\n    tag_102:\n        /* \"#utility.yul\":8352:8359   */\n      0x00\n        /* \"#utility.yul\":8381:8407   */\n      tag_190\n        /* \"#utility.yul\":8401:8406   */\n      dup3\n        /* \"#utility.yul\":8381:8407   */\n      tag_101\n      jump\t// in\n    tag_190:\n        /* \"#utility.yul\":8370:8407   */\n      swap1\n      pop\n        /* \"#utility.yul\":8313:8413   */\n      swap2\n      swap1\n      pop\n      jump\t// out\n        /* \"#utility.yul\":8419:8576   */\n    tag_103:\n        /* \"#utility.yul\":8524:8569   */\n      tag_192\n        /* \"#utility.yul\":8544:8568   */\n      tag_193\n        /* \"#utility.yul\":8562:8567   */\n      dup3\n        /* \"#utility.yul\":8544:8568   */\n      tag_85\n      jump\t// in\n    tag_193:\n        /* \"#utility.yul\":8524:8569   */\n      tag_102\n      jump\t// in\n    tag_192:\n        /* \"#utility.yul\":8519:8522   */\n      dup3\n        /* \"#utility.yul\":8512:8570   */\n      mstore\n        /* \"#utility.yul\":8419:8576   */\n      pop\n      pop\n      jump\t// out\n        /* \"#utility.yul\":8582:9120   */\n    tag_62:\n        /* \"#utility.yul\":8750:8753   */\n      0x00\n        /* \"#utility.yul\":8765:8840   */\n      tag_195\n        /* \"#utility.yul\":8836:8839   */\n      dup3\n        /* \"#utility.yul\":8827:8833   */\n      dup7\n        /* \"#utility.yul\":8765:8840   */\n      tag_99\n      jump\t// in\n    tag_195:\n        /* \"#utility.yul\":8865:8867   */\n      0x20\n        /* \"#utility.yul\":8860:8863   */\n      dup3\n        /* \"#utility.yul\":8856:8868   */\n      add\n        /* \"#utility.yul\":8849:8868   */\n      swap2\n      pop\n        /* \"#utility.yul\":8878:8953   */\n      tag_196\n        /* \"#utility.yul\":8949:8952   */\n      dup3\n        /* \"#utility.yul\":8940:8946   */\n      dup6\n        /* \"#utility.yul\":8878:8953   */\n      tag_103\n      jump\t// in\n    tag_196:\n        /* \"#utility.yul\":8978:8980   */\n      0x14\n        /* \"#utility.yul\":8973:8976   */\n      dup3\n        /* \"#utility.yul\":8969:8981   */\n      add\n        /* \"#utility.yul\":8962:8981   */\n      swap2\n      pop\n        /* \"#utility.yul\":8991:9066   */\n      tag_197\n        /* \"#utility.yul\":9062:9065   */\n      dup3\n        /* \"#utility.yul\":9053:9059   */\n      dup5\n        /* \"#utility.yul\":8991:9066   */\n      tag_99\n      jump\t// in\n    tag_197:\n        /* \"#utility.yul\":9091:9093   */\n      0x20\n        /* \"#utility.yul\":9086:9089   */\n      dup3\n        /* \"#utility.yul\":9082:9094   */\n      add\n        /* \"#utility.yul\":9075:9094   */\n      swap2\n      pop\n        /* \"#utility.yul\":9111:9114   */\n      dup2\n        /* \"#utility.yul\":9104:9114   */\n      swap1\n      pop\n        /* \"#utility.yul\":8582:9120   */\n      swap5\n      swap4\n      pop\n      pop\n      pop\n      pop\n      jump\t// out\n        /* \"#utility.yul\":9126:9306   */\n    tag_104:\n        /* \"#utility.yul\":9174:9251   */\n      0x4e487b7100000000000000000000000000000000000000000000000000000000\n        /* \"#utility.yul\":9171:9172   */\n      0x00\n        /* \"#utility.yul\":9164:9252   */\n      mstore\n        /* \"#utility.yul\":9271:9275   */\n      0x12\n        /* \"#utility.yul\":9268:9269   */\n      0x04\n        /* \"#utility.yul\":9261:9276   */\n      mstore\n        /* \"#utility.yul\":9295:9299   */\n      0x24\n        /* \"#utility.yul\":9292:9293   */\n      0x00\n        /* \"#utility.yul\":9285:9300   */\n      revert\n        /* \"#utility.yul\":9312:9488   */\n    tag_64:\n        /* \"#utility.yul\":9344:9345   */\n      0x00\n        /* \"#utility.yul\":9361:9381   */\n      tag_200\n        /* \"#utility.yul\":9379:9380   */\n      dup3\n        /* \"#utility.yul\":9361:9381   */\n      tag_79\n      jump\t// in\n    tag_200:\n        /* \"#utility.yul\":9356:9381   */\n      swap2\n      pop\n        /* \"#utility.yul\":9395:9415   */\n      tag_201\n        /* \"#utility.yul\":9413:9414   */\n      dup4\n        /* \"#utility.yul\":9395:9415   */\n      tag_79\n      jump\t// in\n    tag_201:\n        /* \"#utility.yul\":9390:9415   */\n      swap3\n      pop\n        /* \"#utility.yul\":9434:9435   */\n      dup3\n        /* \"#utility.yul\":9424:9459   */\n      tag_202\n      jumpi\n        /* \"#utility.yul\":9439:9457   */\n      tag_203\n      tag_104\n      jump\t// in\n    tag_203:\n        /* \"#utility.yul\":9424:9459   */\n    tag_202:\n        /* \"#utility.yul\":9480:9481   */\n      dup3\n        /* \"#utility.yul\":9477:9478   */\n      dup3\n        /* \"#utility.yul\":9473:9482   */\n      mod\n        /* \"#utility.yul\":9468:9482   */\n      swap1\n      pop\n        /* \"#utility.yul\":9312:9488   */\n      swap3\n      swap2\n      pop\n      pop\n      jump\t// out\n        /* \"#utility.yul\":9494:9727   */\n    tag_66:\n        /* \"#utility.yul\":9533:9536   */\n      0x00\n        /* \"#utility.yul\":9556:9580   */\n      tag_205\n        /* \"#utility.yul\":9574:9579   */\n      dup3\n        /* \"#utility.yul\":9556:9580   */\n      tag_79\n      jump\t// in\n    tag_205:\n        /* \"#utility.yul\":9547:9580   */\n      swap2\n      pop\n        /* \"#utility.yul\":9602:9668   */\n      0xffffffffffffffffffffffffffffffffffffffffffffffffffffffffffffffff\n        /* \"#utility.yul\":9595:9600   */\n      dup3\n        /* \"#utility.yul\":9592:9669   */\n      sub\n        /* \"#utility.yul\":9589:9692   */\n      tag_206\n      jumpi\n        /* \"#utility.yul\":9672:9690   */\n      tag_207\n      tag_83\n      jump\t// in\n    tag_207:\n        /* \"#utility.yul\":9589:9692   */\n    tag_206:\n        /* \"#utility.yul\":9719:9720   */\n      0x01\n        /* \"#utility.yul\":9712:9717   */\n      dup3\n        /* \"#utility.yul\":9708:9721   */\n      add\n        /* \"#utility.yul\":9701:9721   */\n      swap1\n      pop\n        /* \"#utility.yul\":9494:9727   */\n      swap2\n      swap1\n      pop\n      jump\t// out\n        /* \"#utility.yul\":9733:9899   */\n    tag_105:\n        /* \"#utility.yul\":9873:9891   */\n      0x496e76616c696420617267756d656e7400000000000000000000000000000000\n        /* \"#utility.yul\":9869:9870   */\n      0x00\n        /* \"#utility.yul\":9861:9867   */\n      dup3\n        /* \"#utility.yul\":9857:9871   */\n      add\n        /* \"#utility.yul\":9850:9892   */\n      mstore\n        /* \"#utility.yul\":9733:9899   */\n      pop\n      jump\t// out\n        /* \"#utility.yul\":9905:10271   */\n    tag_106:\n        /* \"#utility.yul\":10047:10050   */\n      0x00\n        /* \"#utility.yul\":10068:10135   */\n      tag_210\n        /* \"#utility.yul\":10132:10134   */\n      0x10\n        /* \"#utility.yul\":10127:10130   */\n      dup4\n        /* \"#utility.yul\":10068:10135   */\n      tag_88\n      jump\t// in\n    tag_210:\n        /* \"#utility.yul\":10061:10135   */\n      swap2\n      pop\n        /* \"#utility.yul\":10144:10237   */\n      tag_211\n        /* \"#utility.yul\":10233:10236   */\n      dup3\n        /* \"#utility.yul\":10144:10237   */\n      tag_105\n      jump\t// in\n    tag_211:\n        /* \"#utility.yul\":10262:10264   */\n      0x20\n        /* \"#utility.yul\":10257:10260   */\n      dup3\n        /* \"#utility.yul\":10253:10265   */\n      add\n        /* \"#utility.yul\":10246:10265   */\n      swap1\n      pop\n        /* \"#utility.yul\":9905:10271   */\n      swap2\n      swap1\n      pop\n      jump\t// out\n        /* \"#utility.yul\":10277:10696   */\n    tag_75:\n        /* \"#utility.yul\":10443:10447   */\n      0x00\n        /* \"#utility.yul\":10481:10483   */\n      0x20\n        /* \"#utility.yul\":10470:10479   */\n      dup3\n        /* \"#utility.yul\":10466:10484   */\n      add\n        /* \"#utility.yul\":10458:10484   */\n      swap1\n      pop\n        /* \"#utility.yul\":10530:10539   */\n      dup2\n        /* \"#utility.yul\":10524:10528   */\n      dup2\n        /* \"#utility.yul\":10520:10540   */\n      sub\n        /* \"#utility.yul\":10516:10517   */\n      0x00\n        /* \"#utility.yul\":10505:10514   */\n      dup4\n        /* \"#utility.yul\":10501:10518   */\n      add\n        /* \"#utility.yul\":10494:10541   */\n      mstore\n        /* \"#utility.yul\":10558:10689   */\n      tag_213\n        /* \"#utility.yul\":10684:10688   */\n      dup2\n        /* \"#utility.yul\":10558:10689   */\n      tag_106\n      jump\t// in\n    tag_213:\n        /* \"#utility.yul\":10550:10689   */\n      swap1\n      pop\n        /* \"#utility.yul\":10277:10696   */\n      swap2\n      swap1\n      pop\n      jump\t// out\n\n    auxdata: 0xa264697066735822122022d1f150b73fb4d4ebc1714035cbfe7e599ffd7719d8d32c95e64d8504e3fff864736f6c63430008120033\n}\n",
				"bytecode": {
					"linkReferences": {},
					"object": "608060405234801561001057600080fd5b50604051610d1b380380610d1b8339818101604052810190610032919061011c565b33600260006101000a81548173ffffffffffffffffffffffffffffffffffffffff021916908373ffffffffffffffffffffffffffffffffffffffff160217905550806000806101000a81548173ffffffffffffffffffffffffffffffffffffffff021916908373ffffffffffffffffffffffffffffffffffffffff16021790555050610149565b600080fd5b600073ffffffffffffffffffffffffffffffffffffffff82169050919050565b60006100e9826100be565b9050919050565b6100f9816100de565b811461010457600080fd5b50565b600081519050610116816100f0565b92915050565b600060208284031215610132576101316100b9565b5b600061014084828501610107565b91505092915050565b610bc3806101586000396000f3fe608060405234801561001057600080fd5b50600436106100415760003560e01c80636ffcc719146100465780638381f58a14610062578063e3a6e4fc14610080575b600080fd5b610060600480360381019061005b919061061a565b61008a565b005b61006a61032c565b6040516100779190610669565b60405180910390f35b610088610332565b005b60028161009791906106b3565b60008054906101000a900473ffffffffffffffffffffffffffffffffffffffff1673ffffffffffffffffffffffffffffffffffffffff166370a08231306040518263ffffffff1660e01b81526004016100f09190610736565b602060405180830381865afa15801561010d573d6000803e3d6000fd5b505050506040513d601f19601f820116820180604052508101906101319190610766565b11610171576040517f08c379a0000000000000000000000000000000000000000000000000000000008152600401610168906107f0565b60405180910390fd5b81600381905550806004819055506000600260045461019091906106b3565b905060008054906101000a900473ffffffffffffffffffffffffffffffffffffffff1673ffffffffffffffffffffffffffffffffffffffff166323b872dd3330856040518463ffffffff1660e01b81526004016101ef93929190610810565b6020604051808303816000875af115801561020e573d6000803e3d6000fd5b505050506040513d601f19601f82011682018060405250810190610232919061087f565b506102448361023f6104fc565b610563565b156103275760008054906101000a900473ffffffffffffffffffffffffffffffffffffffff1673ffffffffffffffffffffffffffffffffffffffff1663a9059cbb33836040518363ffffffff1660e01b81526004016102a49291906108ac565b6020604051808303816000875af11580156102c3573d6000803e3d6000fd5b505050506040513d601f19601f820116820180604052508101906102e7919061087f565b610326576040517f08c379a000000000000000000000000000000000000000000000000000000000815260040161031d90610947565b60405180910390fd5b5b505050565b60055481565b600260009054906101000a900473ffffffffffffffffffffffffffffffffffffffff1673ffffffffffffffffffffffffffffffffffffffff163373ffffffffffffffffffffffffffffffffffffffff16146103c2576040517f08c379a00000000000000000000000000000000000000000000000000000000081526004016103b9906109b3565b60405180910390fd5b60008054906101000a900473ffffffffffffffffffffffffffffffffffffffff1673ffffffffffffffffffffffffffffffffffffffff1663a9059cbb3360008054906101000a900473ffffffffffffffffffffffffffffffffffffffff1673ffffffffffffffffffffffffffffffffffffffff166370a08231306040518263ffffffff1660e01b81526004016104589190610736565b602060405180830381865afa158015610475573d6000803e3d6000fd5b505050506040513d601f19601f820116820180604052508101906104999190610766565b6040518363ffffffff1660e01b81526004016104b69291906108ac565b6020604051808303816000875af11580156104d5573d6000803e3d6000fd5b505050506040513d601f19601f820116820180604052508101906104f9919061087f565b50565b600080600a423360015460405160200161051893929190610a3c565b6040516020818303038152906040528051906020012060001c61053b9190610aa8565b90506001600081548092919061055090610ad9565b9190505550806005819055508091505090565b600060018303610578576005821190506105d9565b6002830361058b576005821090506105d9565b6003830361059e576005821490506105d9565b6040517f08c379a00000000000000000000000000000000000000000000000000000000081526004016105d090610b6d565b60405180910390fd5b92915050565b600080fd5b6000819050919050565b6105f7816105e4565b811461060257600080fd5b50565b600081359050610614816105ee565b92915050565b60008060408385031215610631576106306105df565b5b600061063f85828601610605565b925050602061065085828601610605565b9150509250929050565b610663816105e4565b82525050565b600060208201905061067e600083018461065a565b92915050565b7f4e487b7100000000000000000000000000000000000000000000000000000000600052601160045260246000fd5b60006106be826105e4565b91506106c9836105e4565b92508282026106d7816105e4565b915082820484148315176106ee576106ed610684565b5b5092915050565b600073ffffffffffffffffffffffffffffffffffffffff82169050919050565b6000610720826106f5565b9050919050565b61073081610715565b82525050565b600060208201905061074b6000830184610727565b92915050565b600081519050610760816105ee565b92915050565b60006020828403121561077c5761077b6105df565b5b600061078a84828501610751565b91505092915050565b600082825260208201905092915050565b7f43757272656e746c792042657474696e67206973207269736b792e0000000000600082015250565b60006107da601b83610793565b91506107e5826107a4565b602082019050919050565b60006020820190508181036000830152610809816107cd565b9050919050565b60006060820190506108256000830186610727565b6108326020830185610727565b61083f604083018461065a565b949350505050565b60008115159050919050565b61085c81610847565b811461086757600080fd5b50565b60008151905061087981610853565b92915050565b600060208284031215610895576108946105df565b5b60006108a38482850161086a565b91505092915050565b60006040820190506108c16000830185610727565b6108ce602083018461065a565b9392505050565b7f436f6e74726163742068617665206e6f7420696e6f7567682062616c616e636560008201527f2e00000000000000000000000000000000000000000000000000000000000000602082015250565b6000610931602183610793565b915061093c826108d5565b604082019050919050565b6000602082019050818103600083015261096081610924565b9050919050565b7f596f7520617265204e6f7420616e204f776e6572000000000000000000000000600082015250565b600061099d601483610793565b91506109a882610967565b602082019050919050565b600060208201905081810360008301526109cc81610990565b9050919050565b6000819050919050565b6109ee6109e9826105e4565b6109d3565b82525050565b60008160601b9050919050565b6000610a0c826109f4565b9050919050565b6000610a1e82610a01565b9050919050565b610a36610a3182610715565b610a13565b82525050565b6000610a4882866109dd565b602082019150610a588285610a25565b601482019150610a6882846109dd565b602082019150819050949350505050565b7f4e487b7100000000000000000000000000000000000000000000000000000000600052601260045260246000fd5b6000610ab3826105e4565b9150610abe836105e4565b925082610ace57610acd610a79565b5b828206905092915050565b6000610ae4826105e4565b91507fffffffffffffffffffffffffffffffffffffffffffffffffffffffffffffffff8203610b1657610b15610684565b5b600182019050919050565b7f496e76616c696420617267756d656e7400000000000000000000000000000000600082015250565b6000610b57601083610793565b9150610b6282610b21565b602082019050919050565b60006020820190508181036000830152610b8681610b4a565b905091905056fea264697066735822122022d1f150b73fb4d4ebc1714035cbfe7e599ffd7719d8d32c95e64d8504e3fff864736f6c63430008120033",
					"opcodes": "PUSH1 0x80 PUSH1 0x40 MSTORE CALLVALUE DUP1 ISZERO PUSH2 0x10 JUMPI PUSH1 0x0 DUP1 REVERT JUMPDEST POP PUSH1 0x40 MLOAD PUSH2 0xD1B CODESIZE SUB DUP1 PUSH2 0xD1B DUP4 CODECOPY DUP2 DUP2 ADD PUSH1 0x40 MSTORE DUP2 ADD SWAP1 PUSH2 0x32 SWAP2 SWAP1 PUSH2 0x11C JUMP JUMPDEST CALLER PUSH1 0x2 PUSH1 0x0 PUSH2 0x100 EXP DUP2 SLOAD DUP2 PUSH20 0xFFFFFFFFFFFFFFFFFFFFFFFFFFFFFFFFFFFFFFFF MUL NOT AND SWAP1 DUP4 PUSH20 0xFFFFFFFFFFFFFFFFFFFFFFFFFFFFFFFFFFFFFFFF AND MUL OR SWAP1 SSTORE POP DUP1 PUSH1 0x0 DUP1 PUSH2 0x100 EXP DUP2 SLOAD DUP2 PUSH20 0xFFFFFFFFFFFFFFFFFFFFFFFFFFFFFFFFFFFFFFFF MUL NOT AND SWAP1 DUP4 PUSH20 0xFFFFFFFFFFFFFFFFFFFFFFFFFFFFFFFFFFFFFFFF AND MUL OR SWAP1 SSTORE POP POP PUSH2 0x149 JUMP JUMPDEST PUSH1 0x0 DUP1 REVERT JUMPDEST PUSH1 0x0 PUSH20 0xFFFFFFFFFFFFFFFFFFFFFFFFFFFFFFFFFFFFFFFF DUP3 AND SWAP1 POP SWAP2 SWAP1 POP JUMP JUMPDEST PUSH1 0x0 PUSH2 0xE9 DUP3 PUSH2 0xBE JUMP JUMPDEST SWAP1 POP SWAP2 SWAP1 POP JUMP JUMPDEST PUSH2 0xF9 DUP2 PUSH2 0xDE JUMP JUMPDEST DUP2 EQ PUSH2 0x104 JUMPI PUSH1 0x0 DUP1 REVERT JUMPDEST POP JUMP JUMPDEST PUSH1 0x0 DUP2 MLOAD SWAP1 POP PUSH2 0x116 DUP2 PUSH2 0xF0 JUMP JUMPDEST SWAP3 SWAP2 POP POP JUMP JUMPDEST PUSH1 0x0 PUSH1 0x20 DUP3 DUP5 SUB SLT ISZERO PUSH2 0x132 JUMPI PUSH2 0x131 PUSH2 0xB9 JUMP JUMPDEST JUMPDEST PUSH1 0x0 PUSH2 0x140 DUP5 DUP3 DUP6 ADD PUSH2 0x107 JUMP JUMPDEST SWAP2 POP POP SWAP3 SWAP2 POP POP JUMP JUMPDEST PUSH2 0xBC3 DUP1 PUSH2 0x158 PUSH1 0x0 CODECOPY PUSH1 0x0 RETURN INVALID PUSH1 0x80 PUSH1 0x40 MSTORE CALLVALUE DUP1 ISZERO PUSH2 0x10 JUMPI PUSH1 0x0 DUP1 REVERT JUMPDEST POP PUSH1 0x4 CALLDATASIZE LT PUSH2 0x41 JUMPI PUSH1 0x0 CALLDATALOAD PUSH1 0xE0 SHR DUP1 PUSH4 0x6FFCC719 EQ PUSH2 0x46 JUMPI DUP1 PUSH4 0x8381F58A EQ PUSH2 0x62 JUMPI DUP1 PUSH4 0xE3A6E4FC EQ PUSH2 0x80 JUMPI JUMPDEST PUSH1 0x0 DUP1 REVERT JUMPDEST PUSH2 0x60 PUSH1 0x4 DUP1 CALLDATASIZE SUB DUP2 ADD SWAP1 PUSH2 0x5B SWAP2 SWAP1 PUSH2 0x61A JUMP JUMPDEST PUSH2 0x8A JUMP JUMPDEST STOP JUMPDEST PUSH2 0x6A PUSH2 0x32C JUMP JUMPDEST PUSH1 0x40 MLOAD PUSH2 0x77 SWAP2 SWAP1 PUSH2 0x669 JUMP JUMPDEST PUSH1 0x40 MLOAD DUP1 SWAP2 SUB SWAP1 RETURN JUMPDEST PUSH2 0x88 PUSH2 0x332 JUMP JUMPDEST STOP JUMPDEST PUSH1 0x2 DUP2 PUSH2 0x97 SWAP2 SWAP1 PUSH2 0x6B3 JUMP JUMPDEST PUSH1 0x0 DUP1 SLOAD SWAP1 PUSH2 0x100 EXP SWAP1 DIV PUSH20 0xFFFFFFFFFFFFFFFFFFFFFFFFFFFFFFFFFFFFFFFF AND PUSH20 0xFFFFFFFFFFFFFFFFFFFFFFFFFFFFFFFFFFFFFFFF AND PUSH4 0x70A08231 ADDRESS PUSH1 0x40 MLOAD DUP3 PUSH4 0xFFFFFFFF AND PUSH1 0xE0 SHL DUP2 MSTORE PUSH1 0x4 ADD PUSH2 0xF0 SWAP2 SWAP1 PUSH2 0x736 JUMP JUMPDEST PUSH1 0x20 PUSH1 0x40 MLOAD DUP1 DUP4 SUB DUP2 DUP7 GAS STATICCALL ISZERO DUP1 ISZERO PUSH2 0x10D JUMPI RETURNDATASIZE PUSH1 0x0 DUP1 RETURNDATACOPY RETURNDATASIZE PUSH1 0x0 REVERT JUMPDEST POP POP POP POP PUSH1 0x40 MLOAD RETURNDATASIZE PUSH1 0x1F NOT PUSH1 0x1F DUP3 ADD AND DUP3 ADD DUP1 PUSH1 0x40 MSTORE POP DUP2 ADD SWAP1 PUSH2 0x131 SWAP2 SWAP1 PUSH2 0x766 JUMP JUMPDEST GT PUSH2 0x171 JUMPI PUSH1 0x40 MLOAD PUSH32 0x8C379A000000000000000000000000000000000000000000000000000000000 DUP2 MSTORE PUSH1 0x4 ADD PUSH2 0x168 SWAP1 PUSH2 0x7F0 JUMP JUMPDEST PUSH1 0x40 MLOAD DUP1 SWAP2 SUB SWAP1 REVERT JUMPDEST DUP2 PUSH1 0x3 DUP2 SWAP1 SSTORE POP DUP1 PUSH1 0x4 DUP2 SWAP1 SSTORE POP PUSH1 0x0 PUSH1 0x2 PUSH1 0x4 SLOAD PUSH2 0x190 SWAP2 SWAP1 PUSH2 0x6B3 JUMP JUMPDEST SWAP1 POP PUSH1 0x0 DUP1 SLOAD SWAP1 PUSH2 0x100 EXP SWAP1 DIV PUSH20 0xFFFFFFFFFFFFFFFFFFFFFFFFFFFFFFFFFFFFFFFF AND PUSH20 0xFFFFFFFFFFFFFFFFFFFFFFFFFFFFFFFFFFFFFFFF AND PUSH4 0x23B872DD CALLER ADDRESS DUP6 PUSH1 0x40 MLOAD DUP5 PUSH4 0xFFFFFFFF AND PUSH1 0xE0 SHL DUP2 MSTORE PUSH1 0x4 ADD PUSH2 0x1EF SWAP4 SWAP3 SWAP2 SWAP1 PUSH2 0x810 JUMP JUMPDEST PUSH1 0x20 PUSH1 0x40 MLOAD DUP1 DUP4 SUB DUP2 PUSH1 0x0 DUP8 GAS CALL ISZERO DUP1 ISZERO PUSH2 0x20E JUMPI RETURNDATASIZE PUSH1 0x0 DUP1 RETURNDATACOPY RETURNDATASIZE PUSH1 0x0 REVERT JUMPDEST POP POP POP POP PUSH1 0x40 MLOAD RETURNDATASIZE PUSH1 0x1F NOT PUSH1 0x1F DUP3 ADD AND DUP3 ADD DUP1 PUSH1 0x40 MSTORE POP DUP2 ADD SWAP1 PUSH2 0x232 SWAP2 SWAP1 PUSH2 0x87F JUMP JUMPDEST POP PUSH2 0x244 DUP4 PUSH2 0x23F PUSH2 0x4FC JUMP JUMPDEST PUSH2 0x563 JUMP JUMPDEST ISZERO PUSH2 0x327 JUMPI PUSH1 0x0 DUP1 SLOAD SWAP1 PUSH2 0x100 EXP SWAP1 DIV PUSH20 0xFFFFFFFFFFFFFFFFFFFFFFFFFFFFFFFFFFFFFFFF AND PUSH20 0xFFFFFFFFFFFFFFFFFFFFFFFFFFFFFFFFFFFFFFFF AND PUSH4 0xA9059CBB CALLER DUP4 PUSH1 0x40 MLOAD DUP4 PUSH4 0xFFFFFFFF AND PUSH1 0xE0 SHL DUP2 MSTORE PUSH1 0x4 ADD PUSH2 0x2A4 SWAP3 SWAP2 SWAP1 PUSH2 0x8AC JUMP JUMPDEST PUSH1 0x20 PUSH1 0x40 MLOAD DUP1 DUP4 SUB DUP2 PUSH1 0x0 DUP8 GAS CALL ISZERO DUP1 ISZERO PUSH2 0x2C3 JUMPI RETURNDATASIZE PUSH1 0x0 DUP1 RETURNDATACOPY RETURNDATASIZE PUSH1 0x0 REVERT JUMPDEST POP POP POP POP PUSH1 0x40 MLOAD RETURNDATASIZE PUSH1 0x1F NOT PUSH1 0x1F DUP3 ADD AND DUP3 ADD DUP1 PUSH1 0x40 MSTORE POP DUP2 ADD SWAP1 PUSH2 0x2E7 SWAP2 SWAP1 PUSH2 0x87F JUMP JUMPDEST PUSH2 0x326 JUMPI PUSH1 0x40 MLOAD PUSH32 0x8C379A000000000000000000000000000000000000000000000000000000000 DUP2 MSTORE PUSH1 0x4 ADD PUSH2 0x31D SWAP1 PUSH2 0x947 JUMP JUMPDEST PUSH1 0x40 MLOAD DUP1 SWAP2 SUB SWAP1 REVERT JUMPDEST JUMPDEST POP POP POP JUMP JUMPDEST PUSH1 0x5 SLOAD DUP2 JUMP JUMPDEST PUSH1 0x2 PUSH1 0x0 SWAP1 SLOAD SWAP1 PUSH2 0x100 EXP SWAP1 DIV PUSH20 0xFFFFFFFFFFFFFFFFFFFFFFFFFFFFFFFFFFFFFFFF AND PUSH20 0xFFFFFFFFFFFFFFFFFFFFFFFFFFFFFFFFFFFFFFFF AND CALLER PUSH20 0xFFFFFFFFFFFFFFFFFFFFFFFFFFFFFFFFFFFFFFFF AND EQ PUSH2 0x3C2 JUMPI PUSH1 0x40 MLOAD PUSH32 0x8C379A000000000000000000000000000000000000000000000000000000000 DUP2 MSTORE PUSH1 0x4 ADD PUSH2 0x3B9 SWAP1 PUSH2 0x9B3 JUMP JUMPDEST PUSH1 0x40 MLOAD DUP1 SWAP2 SUB SWAP1 REVERT JUMPDEST PUSH1 0x0 DUP1 SLOAD SWAP1 PUSH2 0x100 EXP SWAP1 DIV PUSH20 0xFFFFFFFFFFFFFFFFFFFFFFFFFFFFFFFFFFFFFFFF AND PUSH20 0xFFFFFFFFFFFFFFFFFFFFFFFFFFFFFFFFFFFFFFFF AND PUSH4 0xA9059CBB CALLER PUSH1 0x0 DUP1 SLOAD SWAP1 PUSH2 0x100 EXP SWAP1 DIV PUSH20 0xFFFFFFFFFFFFFFFFFFFFFFFFFFFFFFFFFFFFFFFF AND PUSH20 0xFFFFFFFFFFFFFFFFFFFFFFFFFFFFFFFFFFFFFFFF AND PUSH4 0x70A08231 ADDRESS PUSH1 0x40 MLOAD DUP3 PUSH4 0xFFFFFFFF AND PUSH1 0xE0 SHL DUP2 MSTORE PUSH1 0x4 ADD PUSH2 0x458 SWAP2 SWAP1 PUSH2 0x736 JUMP JUMPDEST PUSH1 0x20 PUSH1 0x40 MLOAD DUP1 DUP4 SUB DUP2 DUP7 GAS STATICCALL ISZERO DUP1 ISZERO PUSH2 0x475 JUMPI RETURNDATASIZE PUSH1 0x0 DUP1 RETURNDATACOPY RETURNDATASIZE PUSH1 0x0 REVERT JUMPDEST POP POP POP POP PUSH1 0x40 MLOAD RETURNDATASIZE PUSH1 0x1F NOT PUSH1 0x1F DUP3 ADD AND DUP3 ADD DUP1 PUSH1 0x40 MSTORE POP DUP2 ADD SWAP1 PUSH2 0x499 SWAP2 SWAP1 PUSH2 0x766 JUMP JUMPDEST PUSH1 0x40 MLOAD DUP4 PUSH4 0xFFFFFFFF AND PUSH1 0xE0 SHL DUP2 MSTORE PUSH1 0x4 ADD PUSH2 0x4B6 SWAP3 SWAP2 SWAP1 PUSH2 0x8AC JUMP JUMPDEST PUSH1 0x20 PUSH1 0x40 MLOAD DUP1 DUP4 SUB DUP2 PUSH1 0x0 DUP8 GAS CALL ISZERO DUP1 ISZERO PUSH2 0x4D5 JUMPI RETURNDATASIZE PUSH1 0x0 DUP1 RETURNDATACOPY RETURNDATASIZE PUSH1 0x0 REVERT JUMPDEST POP POP POP POP PUSH1 0x40 MLOAD RETURNDATASIZE PUSH1 0x1F NOT PUSH1 0x1F DUP3 ADD AND DUP3 ADD DUP1 PUSH1 0x40 MSTORE POP DUP2 ADD SWAP1 PUSH2 0x4F9 SWAP2 SWAP1 PUSH2 0x87F JUMP JUMPDEST POP JUMP JUMPDEST PUSH1 0x0 DUP1 PUSH1 0xA TIMESTAMP CALLER PUSH1 0x1 SLOAD PUSH1 0x40 MLOAD PUSH1 0x20 ADD PUSH2 0x518 SWAP4 SWAP3 SWAP2 SWAP1 PUSH2 0xA3C JUMP JUMPDEST PUSH1 0x40 MLOAD PUSH1 0x20 DUP2 DUP4 SUB SUB DUP2 MSTORE SWAP1 PUSH1 0x40 MSTORE DUP1 MLOAD SWAP1 PUSH1 0x20 ADD KECCAK256 PUSH1 0x0 SHR PUSH2 0x53B SWAP2 SWAP1 PUSH2 0xAA8 JUMP JUMPDEST SWAP1 POP PUSH1 0x1 PUSH1 0x0 DUP2 SLOAD DUP1 SWAP3 SWAP2 SWAP1 PUSH2 0x550 SWAP1 PUSH2 0xAD9 JUMP JUMPDEST SWAP2 SWAP1 POP SSTORE POP DUP1 PUSH1 0x5 DUP2 SWAP1 SSTORE POP DUP1 SWAP2 POP POP SWAP1 JUMP JUMPDEST PUSH1 0x0 PUSH1 0x1 DUP4 SUB PUSH2 0x578 JUMPI PUSH1 0x5 DUP3 GT SWAP1 POP PUSH2 0x5D9 JUMP JUMPDEST PUSH1 0x2 DUP4 SUB PUSH2 0x58B JUMPI PUSH1 0x5 DUP3 LT SWAP1 POP PUSH2 0x5D9 JUMP JUMPDEST PUSH1 0x3 DUP4 SUB PUSH2 0x59E JUMPI PUSH1 0x5 DUP3 EQ SWAP1 POP PUSH2 0x5D9 JUMP JUMPDEST PUSH1 0x40 MLOAD PUSH32 0x8C379A000000000000000000000000000000000000000000000000000000000 DUP2 MSTORE PUSH1 0x4 ADD PUSH2 0x5D0 SWAP1 PUSH2 0xB6D JUMP JUMPDEST PUSH1 0x40 MLOAD DUP1 SWAP2 SUB SWAP1 REVERT JUMPDEST SWAP3 SWAP2 POP POP JUMP JUMPDEST PUSH1 0x0 DUP1 REVERT JUMPDEST PUSH1 0x0 DUP2 SWAP1 POP SWAP2 SWAP1 POP JUMP JUMPDEST PUSH2 0x5F7 DUP2 PUSH2 0x5E4 JUMP JUMPDEST DUP2 EQ PUSH2 0x602 JUMPI PUSH1 0x0 DUP1 REVERT JUMPDEST POP JUMP JUMPDEST PUSH1 0x0 DUP2 CALLDATALOAD SWAP1 POP PUSH2 0x614 DUP2 PUSH2 0x5EE JUMP JUMPDEST SWAP3 SWAP2 POP POP JUMP JUMPDEST PUSH1 0x0 DUP1 PUSH1 0x40 DUP4 DUP6 SUB SLT ISZERO PUSH2 0x631 JUMPI PUSH2 0x630 PUSH2 0x5DF JUMP JUMPDEST JUMPDEST PUSH1 0x0 PUSH2 0x63F DUP6 DUP3 DUP7 ADD PUSH2 0x605 JUMP JUMPDEST SWAP3 POP POP PUSH1 0x20 PUSH2 0x650 DUP6 DUP3 DUP7 ADD PUSH2 0x605 JUMP JUMPDEST SWAP2 POP POP SWAP3 POP SWAP3 SWAP1 POP JUMP JUMPDEST PUSH2 0x663 DUP2 PUSH2 0x5E4 JUMP JUMPDEST DUP3 MSTORE POP POP JUMP JUMPDEST PUSH1 0x0 PUSH1 0x20 DUP3 ADD SWAP1 POP PUSH2 0x67E PUSH1 0x0 DUP4 ADD DUP5 PUSH2 0x65A JUMP JUMPDEST SWAP3 SWAP2 POP POP JUMP JUMPDEST PUSH32 0x4E487B7100000000000000000000000000000000000000000000000000000000 PUSH1 0x0 MSTORE PUSH1 0x11 PUSH1 0x4 MSTORE PUSH1 0x24 PUSH1 0x0 REVERT JUMPDEST PUSH1 0x0 PUSH2 0x6BE DUP3 PUSH2 0x5E4 JUMP JUMPDEST SWAP2 POP PUSH2 0x6C9 DUP4 PUSH2 0x5E4 JUMP JUMPDEST SWAP3 POP DUP3 DUP3 MUL PUSH2 0x6D7 DUP2 PUSH2 0x5E4 JUMP JUMPDEST SWAP2 POP DUP3 DUP3 DIV DUP5 EQ DUP4 ISZERO OR PUSH2 0x6EE JUMPI PUSH2 0x6ED PUSH2 0x684 JUMP JUMPDEST JUMPDEST POP SWAP3 SWAP2 POP POP JUMP JUMPDEST PUSH1 0x0 PUSH20 0xFFFFFFFFFFFFFFFFFFFFFFFFFFFFFFFFFFFFFFFF DUP3 AND SWAP1 POP SWAP2 SWAP1 POP JUMP JUMPDEST PUSH1 0x0 PUSH2 0x720 DUP3 PUSH2 0x6F5 JUMP JUMPDEST SWAP1 POP SWAP2 SWAP1 POP JUMP JUMPDEST PUSH2 0x730 DUP2 PUSH2 0x715 JUMP JUMPDEST DUP3 MSTORE POP POP JUMP JUMPDEST PUSH1 0x0 PUSH1 0x20 DUP3 ADD SWAP1 POP PUSH2 0x74B PUSH1 0x0 DUP4 ADD DUP5 PUSH2 0x727 JUMP JUMPDEST SWAP3 SWAP2 POP POP JUMP JUMPDEST PUSH1 0x0 DUP2 MLOAD SWAP1 POP PUSH2 0x760 DUP2 PUSH2 0x5EE JUMP JUMPDEST SWAP3 SWAP2 POP POP JUMP JUMPDEST PUSH1 0x0 PUSH1 0x20 DUP3 DUP5 SUB SLT ISZERO PUSH2 0x77C JUMPI PUSH2 0x77B PUSH2 0x5DF JUMP JUMPDEST JUMPDEST PUSH1 0x0 PUSH2 0x78A DUP5 DUP3 DUP6 ADD PUSH2 0x751 JUMP JUMPDEST SWAP2 POP POP SWAP3 SWAP2 POP POP JUMP JUMPDEST PUSH1 0x0 DUP3 DUP3 MSTORE PUSH1 0x20 DUP3 ADD SWAP1 POP SWAP3 SWAP2 POP POP JUMP JUMPDEST PUSH32 0x43757272656E746C792042657474696E67206973207269736B792E0000000000 PUSH1 0x0 DUP3 ADD MSTORE POP JUMP JUMPDEST PUSH1 0x0 PUSH2 0x7DA PUSH1 0x1B DUP4 PUSH2 0x793 JUMP JUMPDEST SWAP2 POP PUSH2 0x7E5 DUP3 PUSH2 0x7A4 JUMP JUMPDEST PUSH1 0x20 DUP3 ADD SWAP1 POP SWAP2 SWAP1 POP JUMP JUMPDEST PUSH1 0x0 PUSH1 0x20 DUP3 ADD SWAP1 POP DUP2 DUP2 SUB PUSH1 0x0 DUP4 ADD MSTORE PUSH2 0x809 DUP2 PUSH2 0x7CD JUMP JUMPDEST SWAP1 POP SWAP2 SWAP1 POP JUMP JUMPDEST PUSH1 0x0 PUSH1 0x60 DUP3 ADD SWAP1 POP PUSH2 0x825 PUSH1 0x0 DUP4 ADD DUP7 PUSH2 0x727 JUMP JUMPDEST PUSH2 0x832 PUSH1 0x20 DUP4 ADD DUP6 PUSH2 0x727 JUMP JUMPDEST PUSH2 0x83F PUSH1 0x40 DUP4 ADD DUP5 PUSH2 0x65A JUMP JUMPDEST SWAP5 SWAP4 POP POP POP POP JUMP JUMPDEST PUSH1 0x0 DUP2 ISZERO ISZERO SWAP1 POP SWAP2 SWAP1 POP JUMP JUMPDEST PUSH2 0x85C DUP2 PUSH2 0x847 JUMP JUMPDEST DUP2 EQ PUSH2 0x867 JUMPI PUSH1 0x0 DUP1 REVERT JUMPDEST POP JUMP JUMPDEST PUSH1 0x0 DUP2 MLOAD SWAP1 POP PUSH2 0x879 DUP2 PUSH2 0x853 JUMP JUMPDEST SWAP3 SWAP2 POP POP JUMP JUMPDEST PUSH1 0x0 PUSH1 0x20 DUP3 DUP5 SUB SLT ISZERO PUSH2 0x895 JUMPI PUSH2 0x894 PUSH2 0x5DF JUMP JUMPDEST JUMPDEST PUSH1 0x0 PUSH2 0x8A3 DUP5 DUP3 DUP6 ADD PUSH2 0x86A JUMP JUMPDEST SWAP2 POP POP SWAP3 SWAP2 POP POP JUMP JUMPDEST PUSH1 0x0 PUSH1 0x40 DUP3 ADD SWAP1 POP PUSH2 0x8C1 PUSH1 0x0 DUP4 ADD DUP6 PUSH2 0x727 JUMP JUMPDEST PUSH2 0x8CE PUSH1 0x20 DUP4 ADD DUP5 PUSH2 0x65A JUMP JUMPDEST SWAP4 SWAP3 POP POP POP JUMP JUMPDEST PUSH32 0x436F6E74726163742068617665206E6F7420696E6F7567682062616C616E6365 PUSH1 0x0 DUP3 ADD MSTORE PUSH32 0x2E00000000000000000000000000000000000000000000000000000000000000 PUSH1 0x20 DUP3 ADD MSTORE POP JUMP JUMPDEST PUSH1 0x0 PUSH2 0x931 PUSH1 0x21 DUP4 PUSH2 0x793 JUMP JUMPDEST SWAP2 POP PUSH2 0x93C DUP3 PUSH2 0x8D5 JUMP JUMPDEST PUSH1 0x40 DUP3 ADD SWAP1 POP SWAP2 SWAP1 POP JUMP JUMPDEST PUSH1 0x0 PUSH1 0x20 DUP3 ADD SWAP1 POP DUP2 DUP2 SUB PUSH1 0x0 DUP4 ADD MSTORE PUSH2 0x960 DUP2 PUSH2 0x924 JUMP JUMPDEST SWAP1 POP SWAP2 SWAP1 POP JUMP JUMPDEST PUSH32 0x596F7520617265204E6F7420616E204F776E6572000000000000000000000000 PUSH1 0x0 DUP3 ADD MSTORE POP JUMP JUMPDEST PUSH1 0x0 PUSH2 0x99D PUSH1 0x14 DUP4 PUSH2 0x793 JUMP JUMPDEST SWAP2 POP PUSH2 0x9A8 DUP3 PUSH2 0x967 JUMP JUMPDEST PUSH1 0x20 DUP3 ADD SWAP1 POP SWAP2 SWAP1 POP JUMP JUMPDEST PUSH1 0x0 PUSH1 0x20 DUP3 ADD SWAP1 POP DUP2 DUP2 SUB PUSH1 0x0 DUP4 ADD MSTORE PUSH2 0x9CC DUP2 PUSH2 0x990 JUMP JUMPDEST SWAP1 POP SWAP2 SWAP1 POP JUMP JUMPDEST PUSH1 0x0 DUP2 SWAP1 POP SWAP2 SWAP1 POP JUMP JUMPDEST PUSH2 0x9EE PUSH2 0x9E9 DUP3 PUSH2 0x5E4 JUMP JUMPDEST PUSH2 0x9D3 JUMP JUMPDEST DUP3 MSTORE POP POP JUMP JUMPDEST PUSH1 0x0 DUP2 PUSH1 0x60 SHL SWAP1 POP SWAP2 SWAP1 POP JUMP JUMPDEST PUSH1 0x0 PUSH2 0xA0C DUP3 PUSH2 0x9F4 JUMP JUMPDEST SWAP1 POP SWAP2 SWAP1 POP JUMP JUMPDEST PUSH1 0x0 PUSH2 0xA1E DUP3 PUSH2 0xA01 JUMP JUMPDEST SWAP1 POP SWAP2 SWAP1 POP JUMP JUMPDEST PUSH2 0xA36 PUSH2 0xA31 DUP3 PUSH2 0x715 JUMP JUMPDEST PUSH2 0xA13 JUMP JUMPDEST DUP3 MSTORE POP POP JUMP JUMPDEST PUSH1 0x0 PUSH2 0xA48 DUP3 DUP7 PUSH2 0x9DD JUMP JUMPDEST PUSH1 0x20 DUP3 ADD SWAP2 POP PUSH2 0xA58 DUP3 DUP6 PUSH2 0xA25 JUMP JUMPDEST PUSH1 0x14 DUP3 ADD SWAP2 POP PUSH2 0xA68 DUP3 DUP5 PUSH2 0x9DD JUMP JUMPDEST PUSH1 0x20 DUP3 ADD SWAP2 POP DUP2 SWAP1 POP SWAP5 SWAP4 POP POP POP POP JUMP JUMPDEST PUSH32 0x4E487B7100000000000000000000000000000000000000000000000000000000 PUSH1 0x0 MSTORE PUSH1 0x12 PUSH1 0x4 MSTORE PUSH1 0x24 PUSH1 0x0 REVERT JUMPDEST PUSH1 0x0 PUSH2 0xAB3 DUP3 PUSH2 0x5E4 JUMP JUMPDEST SWAP2 POP PUSH2 0xABE DUP4 PUSH2 0x5E4 JUMP JUMPDEST SWAP3 POP DUP3 PUSH2 0xACE JUMPI PUSH2 0xACD PUSH2 0xA79 JUMP JUMPDEST JUMPDEST DUP3 DUP3 MOD SWAP1 POP SWAP3 SWAP2 POP POP JUMP JUMPDEST PUSH1 0x0 PUSH2 0xAE4 DUP3 PUSH2 0x5E4 JUMP JUMPDEST SWAP2 POP PUSH32 0xFFFFFFFFFFFFFFFFFFFFFFFFFFFFFFFFFFFFFFFFFFFFFFFFFFFFFFFFFFFFFFFF DUP3 SUB PUSH2 0xB16 JUMPI PUSH2 0xB15 PUSH2 0x684 JUMP JUMPDEST JUMPDEST PUSH1 0x1 DUP3 ADD SWAP1 POP SWAP2 SWAP1 POP JUMP JUMPDEST PUSH32 0x496E76616C696420617267756D656E7400000000000000000000000000000000 PUSH1 0x0 DUP3 ADD MSTORE POP JUMP JUMPDEST PUSH1 0x0 PUSH2 0xB57 PUSH1 0x10 DUP4 PUSH2 0x793 JUMP JUMPDEST SWAP2 POP PUSH2 0xB62 DUP3 PUSH2 0xB21 JUMP JUMPDEST PUSH1 0x20 DUP3 ADD SWAP1 POP SWAP2 SWAP1 POP JUMP JUMPDEST PUSH1 0x0 PUSH1 0x20 DUP3 ADD SWAP1 POP DUP2 DUP2 SUB PUSH1 0x0 DUP4 ADD MSTORE PUSH2 0xB86 DUP2 PUSH2 0xB4A JUMP JUMPDEST SWAP1 POP SWAP2 SWAP1 POP JUMP INVALID LOG2 PUSH5 0x6970667358 0x22 SLT KECCAK256 0x22 0xD1 CALL POP 0xB7 EXTCODEHASH 0xB4 0xD4 0xEB 0xC1 PUSH18 0x4035CBFE7E599FFD7719D8D32C95E64D8504 0xE3 SELFDESTRUCT 0xF8 PUSH5 0x736F6C6343 STOP ADDMOD SLT STOP CALLER "
				},
				"gasEstimates": {
					"creation": {
						"codeDepositCost": "602200",
						"executionCost": "infinite",
						"totalCost": "infinite"
					},
					"external": {
						"bet(uint256,uint256)": "infinite",
						"collectTokenOwner()": "infinite",
						"number()": "2429"
					},
					"internal": {
						"compareNum(uint256,uint256)": "infinite",
						"getRandomNumber()": "infinite"
					}
				},
				"methodIdentifiers": {
					"bet(uint256,uint256)": "6ffcc719",
					"collectTokenOwner()": "e3a6e4fc",
					"number()": "8381f58a"
				}
			},
			"storageLayout": {
				"storage": [
					{
						"astId": 717,
						"contract": "CASINO/casino.sol:casino",
						"label": "token",
						"offset": 0,
						"slot": "0",
						"type": "t_contract(ERC20)586"
					},
					{
						"astId": 719,
						"contract": "CASINO/casino.sol:casino",
						"label": "nonce",
						"offset": 0,
						"slot": "1",
						"type": "t_uint256"
					},
					{
						"astId": 721,
						"contract": "CASINO/casino.sol:casino",
						"label": "owner",
						"offset": 0,
						"slot": "2",
						"type": "t_address"
					},
					{
						"astId": 723,
						"contract": "CASINO/casino.sol:casino",
						"label": "option",
						"offset": 0,
						"slot": "3",
						"type": "t_uint256"
					},
					{
						"astId": 725,
						"contract": "CASINO/casino.sol:casino",
						"label": "amount",
						"offset": 0,
						"slot": "4",
						"type": "t_uint256"
					},
					{
						"astId": 727,
						"contract": "CASINO/casino.sol:casino",
						"label": "number",
						"offset": 0,
						"slot": "5",
						"type": "t_uint256"
					}
				],
				"types": {
					"t_address": {
						"encoding": "inplace",
						"label": "address",
						"numberOfBytes": "20"
					},
					"t_contract(ERC20)586": {
						"encoding": "inplace",
						"label": "contract ERC20",
						"numberOfBytes": "20"
					},
					"t_uint256": {
						"encoding": "inplace",
						"label": "uint256",
						"numberOfBytes": "32"
					}
				}
			},
			"userdoc": {
				"kind": "user",
				"methods": {},
				"version": 1
			}
		}
	}
}