{
	"demoAdvance.sol": {
		"demoAdvance": {
			"abi": [
				{
					"inputs": [],
					"name": "decrement",
					"outputs": [],
					"stateMutability": "nonpayable",
					"type": "function"
				},
				{
					"inputs": [],
					"name": "increment",
					"outputs": [],
					"stateMutability": "nonpayable",
					"type": "function"
				},
				{
					"inputs": [],
					"name": "mutiply",
					"outputs": [],
					"stateMutability": "nonpayable",
					"type": "function"
				},
				{
					"inputs": [],
					"name": "show",
					"outputs": [
						{
							"internalType": "uint256",
							"name": "",
							"type": "uint256"
						}
					],
					"stateMutability": "view",
					"type": "function"
				}
			],
			"devdoc": {
				"kind": "dev",
				"methods": {},
				"version": 1
			},
			"evm": {
				"assembly": "    /* \"demoAdvance.sol\":58:346  contract demoAdvance {... */\n  mstore(0x40, 0x80)\n  callvalue\n  dup1\n  iszero\n  tag_1\n  jumpi\n  0x00\n  dup1\n  revert\ntag_1:\n  pop\n  dataSize(sub_0)\n  dup1\n  dataOffset(sub_0)\n  0x00\n  codecopy\n  0x00\n  return\nstop\n\nsub_0: assembly {\n        /* \"demoAdvance.sol\":58:346  contract demoAdvance {... */\n      mstore(0x40, 0x80)\n      callvalue\n      dup1\n      iszero\n      tag_1\n      jumpi\n      0x00\n      dup1\n      revert\n    tag_1:\n      pop\n      jumpi(tag_2, lt(calldatasize, 0x04))\n      shr(0xe0, calldataload(0x00))\n      dup1\n      0x1bb287ef\n      eq\n      tag_3\n      jumpi\n      dup1\n      0x2baeceb7\n      eq\n      tag_4\n      jumpi\n      dup1\n      0xcc80f6f3\n      eq\n      tag_5\n      jumpi\n      dup1\n      0xd09de08a\n      eq\n      tag_6\n      jumpi\n    tag_2:\n      0x00\n      dup1\n      revert\n        /* \"demoAdvance.sol\":212:268  function mutiply() public {... */\n    tag_3:\n      tag_7\n      tag_8\n      jump\t// in\n    tag_7:\n      stop\n        /* \"demoAdvance.sol\":156:206  function decrement() public {... */\n    tag_4:\n      tag_9\n      tag_10\n      jump\t// in\n    tag_9:\n      stop\n        /* \"demoAdvance.sol\":274:344  function show() public view returns (uint) {... */\n    tag_5:\n      tag_11\n      tag_12\n      jump\t// in\n    tag_11:\n      mload(0x40)\n      tag_13\n      swap2\n      swap1\n      tag_14\n      jump\t// in\n    tag_13:\n      mload(0x40)\n      dup1\n      swap2\n      sub\n      swap1\n      return\n        /* \"demoAdvance.sol\":100:150  function increment() public {... */\n    tag_6:\n      tag_15\n      tag_16\n      jump\t// in\n    tag_15:\n      stop\n        /* \"demoAdvance.sol\":212:268  function mutiply() public {... */\n    tag_8:\n        /* \"demoAdvance.sol\":260:261  2 */\n      0x02\n        /* \"demoAdvance.sol\":254:257  num */\n      sload(0x00)\n        /* \"demoAdvance.sol\":254:261  num + 2 */\n      tag_18\n      swap2\n      swap1\n      tag_19\n      jump\t// in\n    tag_18:\n        /* \"demoAdvance.sol\":248:251  num */\n      0x00\n        /* \"demoAdvance.sol\":248:261  num = num + 2 */\n      dup2\n      swap1\n      sstore\n      pop\n        /* \"demoAdvance.sol\":212:268  function mutiply() public {... */\n      jump\t// out\n        /* \"demoAdvance.sol\":156:206  function decrement() public {... */\n    tag_10:\n        /* \"demoAdvance.sol\":194:197  num */\n      0x00\n      dup1\n        /* \"demoAdvance.sol\":194:199  num-- */\n      dup2\n      sload\n      dup1\n      swap3\n      swap2\n      swap1\n      tag_21\n      swap1\n      tag_22\n      jump\t// in\n    tag_21:\n      swap2\n      swap1\n      pop\n      sstore\n      pop\n        /* \"demoAdvance.sol\":156:206  function decrement() public {... */\n      jump\t// out\n        /* \"demoAdvance.sol\":274:344  function show() public view returns (uint) {... */\n    tag_12:\n        /* \"demoAdvance.sol\":311:315  uint */\n      0x00\n        /* \"demoAdvance.sol\":334:337  num */\n      dup1\n      sload\n        /* \"demoAdvance.sol\":327:337  return num */\n      swap1\n      pop\n        /* \"demoAdvance.sol\":274:344  function show() public view returns (uint) {... */\n      swap1\n      jump\t// out\n        /* \"demoAdvance.sol\":100:150  function increment() public {... */\n    tag_16:\n        /* \"demoAdvance.sol\":138:141  num */\n      0x00\n      dup1\n        /* \"demoAdvance.sol\":138:143  num++ */\n      dup2\n      sload\n      dup1\n      swap3\n      swap2\n      swap1\n      tag_25\n      swap1\n      tag_26\n      jump\t// in\n    tag_25:\n      swap2\n      swap1\n      pop\n      sstore\n      pop\n        /* \"demoAdvance.sol\":100:150  function increment() public {... */\n      jump\t// out\n        /* \"#utility.yul\":7:84   */\n    tag_27:\n        /* \"#utility.yul\":44:51   */\n      0x00\n        /* \"#utility.yul\":73:78   */\n      dup2\n        /* \"#utility.yul\":62:78   */\n      swap1\n      pop\n        /* \"#utility.yul\":7:84   */\n      swap2\n      swap1\n      pop\n      jump\t// out\n        /* \"#utility.yul\":90:208   */\n    tag_28:\n        /* \"#utility.yul\":177:201   */\n      tag_33\n        /* \"#utility.yul\":195:200   */\n      dup2\n        /* \"#utility.yul\":177:201   */\n      tag_27\n      jump\t// in\n    tag_33:\n        /* \"#utility.yul\":172:175   */\n      dup3\n        /* \"#utility.yul\":165:202   */\n      mstore\n        /* \"#utility.yul\":90:208   */\n      pop\n      pop\n      jump\t// out\n        /* \"#utility.yul\":214:436   */\n    tag_14:\n        /* \"#utility.yul\":307:311   */\n      0x00\n        /* \"#utility.yul\":345:347   */\n      0x20\n        /* \"#utility.yul\":334:343   */\n      dup3\n        /* \"#utility.yul\":330:348   */\n      add\n        /* \"#utility.yul\":322:348   */\n      swap1\n      pop\n        /* \"#utility.yul\":358:429   */\n      tag_35\n        /* \"#utility.yul\":426:427   */\n      0x00\n        /* \"#utility.yul\":415:424   */\n      dup4\n        /* \"#utility.yul\":411:428   */\n      add\n        /* \"#utility.yul\":402:408   */\n      dup5\n        /* \"#utility.yul\":358:429   */\n      tag_28\n      jump\t// in\n    tag_35:\n        /* \"#utility.yul\":214:436   */\n      swap3\n      swap2\n      pop\n      pop\n      jump\t// out\n        /* \"#utility.yul\":442:622   */\n    tag_29:\n        /* \"#utility.yul\":490:567   */\n      0x4e487b7100000000000000000000000000000000000000000000000000000000\n        /* \"#utility.yul\":487:488   */\n      0x00\n        /* \"#utility.yul\":480:568   */\n      mstore\n        /* \"#utility.yul\":587:591   */\n      0x11\n        /* \"#utility.yul\":584:585   */\n      0x04\n        /* \"#utility.yul\":577:592   */\n      mstore\n        /* \"#utility.yul\":611:615   */\n      0x24\n        /* \"#utility.yul\":608:609   */\n      0x00\n        /* \"#utility.yul\":601:616   */\n      revert\n        /* \"#utility.yul\":628:819   */\n    tag_19:\n        /* \"#utility.yul\":668:671   */\n      0x00\n        /* \"#utility.yul\":687:707   */\n      tag_38\n        /* \"#utility.yul\":705:706   */\n      dup3\n        /* \"#utility.yul\":687:707   */\n      tag_27\n      jump\t// in\n    tag_38:\n        /* \"#utility.yul\":682:707   */\n      swap2\n      pop\n        /* \"#utility.yul\":721:741   */\n      tag_39\n        /* \"#utility.yul\":739:740   */\n      dup4\n        /* \"#utility.yul\":721:741   */\n      tag_27\n      jump\t// in\n    tag_39:\n        /* \"#utility.yul\":716:741   */\n      swap3\n      pop\n        /* \"#utility.yul\":764:765   */\n      dup3\n        /* \"#utility.yul\":761:762   */\n      dup3\n        /* \"#utility.yul\":757:766   */\n      add\n        /* \"#utility.yul\":750:766   */\n      swap1\n      pop\n        /* \"#utility.yul\":785:788   */\n      dup1\n        /* \"#utility.yul\":782:783   */\n      dup3\n        /* \"#utility.yul\":779:789   */\n      gt\n        /* \"#utility.yul\":776:812   */\n      iszero\n      tag_40\n      jumpi\n        /* \"#utility.yul\":792:810   */\n      tag_41\n      tag_29\n      jump\t// in\n    tag_41:\n        /* \"#utility.yul\":776:812   */\n    tag_40:\n        /* \"#utility.yul\":628:819   */\n      swap3\n      swap2\n      pop\n      pop\n      jump\t// out\n        /* \"#utility.yul\":825:996   */\n    tag_22:\n        /* \"#utility.yul\":864:867   */\n      0x00\n        /* \"#utility.yul\":887:911   */\n      tag_43\n        /* \"#utility.yul\":905:910   */\n      dup3\n        /* \"#utility.yul\":887:911   */\n      tag_27\n      jump\t// in\n    tag_43:\n        /* \"#utility.yul\":878:911   */\n      swap2\n      pop\n        /* \"#utility.yul\":933:937   */\n      0x00\n        /* \"#utility.yul\":926:931   */\n      dup3\n        /* \"#utility.yul\":923:938   */\n      sub\n        /* \"#utility.yul\":920:961   */\n      tag_44\n      jumpi\n        /* \"#utility.yul\":941:959   */\n      tag_45\n      tag_29\n      jump\t// in\n    tag_45:\n        /* \"#utility.yul\":920:961   */\n    tag_44:\n        /* \"#utility.yul\":988:989   */\n      0x01\n        /* \"#utility.yul\":981:986   */\n      dup3\n        /* \"#utility.yul\":977:990   */\n      sub\n        /* \"#utility.yul\":970:990   */\n      swap1\n      pop\n        /* \"#utility.yul\":825:996   */\n      swap2\n      swap1\n      pop\n      jump\t// out\n        /* \"#utility.yul\":1002:1235   */\n    tag_26:\n        /* \"#utility.yul\":1041:1044   */\n      0x00\n        /* \"#utility.yul\":1064:1088   */\n      tag_47\n        /* \"#utility.yul\":1082:1087   */\n      dup3\n        /* \"#utility.yul\":1064:1088   */\n      tag_27\n      jump\t// in\n    tag_47:\n        /* \"#utility.yul\":1055:1088   */\n      swap2\n      pop\n        /* \"#utility.yul\":1110:1176   */\n      0xffffffffffffffffffffffffffffffffffffffffffffffffffffffffffffffff\n        /* \"#utility.yul\":1103:1108   */\n      dup3\n        /* \"#utility.yul\":1100:1177   */\n      sub\n        /* \"#utility.yul\":1097:1200   */\n      tag_48\n      jumpi\n        /* \"#utility.yul\":1180:1198   */\n      tag_49\n      tag_29\n      jump\t// in\n    tag_49:\n        /* \"#utility.yul\":1097:1200   */\n    tag_48:\n        /* \"#utility.yul\":1227:1228   */\n      0x01\n        /* \"#utility.yul\":1220:1225   */\n      dup3\n        /* \"#utility.yul\":1216:1229   */\n      add\n        /* \"#utility.yul\":1209:1229   */\n      swap1\n      pop\n        /* \"#utility.yul\":1002:1235   */\n      swap2\n      swap1\n      pop\n      jump\t// out\n\n    auxdata: 0xa2646970667358221220e9539303c86619dfe470ea49b8e843002f5f3ee7157ff2cba1e949c30b01a01664736f6c63430008120033\n}\n",
				"bytecode": {
					"linkReferences": {},
					"object": "608060405234801561001057600080fd5b5061021d806100206000396000f3fe608060405234801561001057600080fd5b506004361061004c5760003560e01c80631bb287ef146100515780632baeceb71461005b578063cc80f6f314610065578063d09de08a14610083575b600080fd5b61005961008d565b005b6100636100a4565b005b61006d6100bd565b60405161007a91906100f8565b60405180910390f35b61008b6100c6565b005b600260005461009c9190610142565b600081905550565b6000808154809291906100b690610176565b9190505550565b60008054905090565b6000808154809291906100d89061019f565b9190505550565b6000819050919050565b6100f2816100df565b82525050565b600060208201905061010d60008301846100e9565b92915050565b7f4e487b7100000000000000000000000000000000000000000000000000000000600052601160045260246000fd5b600061014d826100df565b9150610158836100df565b92508282019050808211156101705761016f610113565b5b92915050565b6000610181826100df565b91506000820361019457610193610113565b5b600182039050919050565b60006101aa826100df565b91507fffffffffffffffffffffffffffffffffffffffffffffffffffffffffffffffff82036101dc576101db610113565b5b60018201905091905056fea2646970667358221220e9539303c86619dfe470ea49b8e843002f5f3ee7157ff2cba1e949c30b01a01664736f6c63430008120033",
					"opcodes": "PUSH1 0x80 PUSH1 0x40 MSTORE CALLVALUE DUP1 ISZERO PUSH2 0x10 JUMPI PUSH1 0x0 DUP1 REVERT JUMPDEST POP PUSH2 0x21D DUP1 PUSH2 0x20 PUSH1 0x0 CODECOPY PUSH1 0x0 RETURN INVALID PUSH1 0x80 PUSH1 0x40 MSTORE CALLVALUE DUP1 ISZERO PUSH2 0x10 JUMPI PUSH1 0x0 DUP1 REVERT JUMPDEST POP PUSH1 0x4 CALLDATASIZE LT PUSH2 0x4C JUMPI PUSH1 0x0 CALLDATALOAD PUSH1 0xE0 SHR DUP1 PUSH4 0x1BB287EF EQ PUSH2 0x51 JUMPI DUP1 PUSH4 0x2BAECEB7 EQ PUSH2 0x5B JUMPI DUP1 PUSH4 0xCC80F6F3 EQ PUSH2 0x65 JUMPI DUP1 PUSH4 0xD09DE08A EQ PUSH2 0x83 JUMPI JUMPDEST PUSH1 0x0 DUP1 REVERT JUMPDEST PUSH2 0x59 PUSH2 0x8D JUMP JUMPDEST STOP JUMPDEST PUSH2 0x63 PUSH2 0xA4 JUMP JUMPDEST STOP JUMPDEST PUSH2 0x6D PUSH2 0xBD JUMP JUMPDEST PUSH1 0x40 MLOAD PUSH2 0x7A SWAP2 SWAP1 PUSH2 0xF8 JUMP JUMPDEST PUSH1 0x40 MLOAD DUP1 SWAP2 SUB SWAP1 RETURN JUMPDEST PUSH2 0x8B PUSH2 0xC6 JUMP JUMPDEST STOP JUMPDEST PUSH1 0x2 PUSH1 0x0 SLOAD PUSH2 0x9C SWAP2 SWAP1 PUSH2 0x142 JUMP JUMPDEST PUSH1 0x0 DUP2 SWAP1 SSTORE POP JUMP JUMPDEST PUSH1 0x0 DUP1 DUP2 SLOAD DUP1 SWAP3 SWAP2 SWAP1 PUSH2 0xB6 SWAP1 PUSH2 0x176 JUMP JUMPDEST SWAP2 SWAP1 POP SSTORE POP JUMP JUMPDEST PUSH1 0x0 DUP1 SLOAD SWAP1 POP SWAP1 JUMP JUMPDEST PUSH1 0x0 DUP1 DUP2 SLOAD DUP1 SWAP3 SWAP2 SWAP1 PUSH2 0xD8 SWAP1 PUSH2 0x19F JUMP JUMPDEST SWAP2 SWAP1 POP SSTORE POP JUMP JUMPDEST PUSH1 0x0 DUP2 SWAP1 POP SWAP2 SWAP1 POP JUMP JUMPDEST PUSH2 0xF2 DUP2 PUSH2 0xDF JUMP JUMPDEST DUP3 MSTORE POP POP JUMP JUMPDEST PUSH1 0x0 PUSH1 0x20 DUP3 ADD SWAP1 POP PUSH2 0x10D PUSH1 0x0 DUP4 ADD DUP5 PUSH2 0xE9 JUMP JUMPDEST SWAP3 SWAP2 POP POP JUMP JUMPDEST PUSH32 0x4E487B7100000000000000000000000000000000000000000000000000000000 PUSH1 0x0 MSTORE PUSH1 0x11 PUSH1 0x4 MSTORE PUSH1 0x24 PUSH1 0x0 REVERT JUMPDEST PUSH1 0x0 PUSH2 0x14D DUP3 PUSH2 0xDF JUMP JUMPDEST SWAP2 POP PUSH2 0x158 DUP4 PUSH2 0xDF JUMP JUMPDEST SWAP3 POP DUP3 DUP3 ADD SWAP1 POP DUP1 DUP3 GT ISZERO PUSH2 0x170 JUMPI PUSH2 0x16F PUSH2 0x113 JUMP JUMPDEST JUMPDEST SWAP3 SWAP2 POP POP JUMP JUMPDEST PUSH1 0x0 PUSH2 0x181 DUP3 PUSH2 0xDF JUMP JUMPDEST SWAP2 POP PUSH1 0x0 DUP3 SUB PUSH2 0x194 JUMPI PUSH2 0x193 PUSH2 0x113 JUMP JUMPDEST JUMPDEST PUSH1 0x1 DUP3 SUB SWAP1 POP SWAP2 SWAP1 POP JUMP JUMPDEST PUSH1 0x0 PUSH2 0x1AA DUP3 PUSH2 0xDF JUMP JUMPDEST SWAP2 POP PUSH32 0xFFFFFFFFFFFFFFFFFFFFFFFFFFFFFFFFFFFFFFFFFFFFFFFFFFFFFFFFFFFFFFFF DUP3 SUB PUSH2 0x1DC JUMPI PUSH2 0x1DB PUSH2 0x113 JUMP JUMPDEST JUMPDEST PUSH1 0x1 DUP3 ADD SWAP1 POP SWAP2 SWAP1 POP JUMP INVALID LOG2 PUSH5 0x6970667358 0x22 SLT KECCAK256 0xE9 MSTORE8 SWAP4 SUB 0xC8 PUSH7 0x19DFE470EA49B8 0xE8 NUMBER STOP 0x2F 0x5F RETURNDATACOPY 0xE7 ISZERO PUSH32 0xF2CBA1E949C30B01A01664736F6C634300081200330000000000000000000000 "
				},
				"gasEstimates": {
					"creation": {
						"codeDepositCost": "108200",
						"executionCost": "153",
						"totalCost": "108353"
					},
					"external": {
						"decrement()": "24501",
						"increment()": "24545",
						"mutiply()": "infinite",
						"show()": "2459"
					}
				},
				"methodIdentifiers": {
					"decrement()": "2baeceb7",
					"increment()": "d09de08a",
					"mutiply()": "1bb287ef",
					"show()": "cc80f6f3"
				}
			},
			"storageLayout": {
				"storage": [
					{
						"astId": 3,
						"contract": "demoAdvance.sol:demoAdvance",
						"label": "num",
						"offset": 0,
						"slot": "0",
						"type": "t_uint256"
					}
				],
				"types": {
					"t_uint256": {
						"encoding": "inplace",
						"label": "uint256",
						"numberOfBytes": "32"
					}
				}
			},
			"userdoc": {
				"kind": "user",
				"methods": {},
				"version": 1
			}
		}
	}
}