{
	"contracts/worldBank.sol": {
		"bank": {
			"abi": [
				{
					"inputs": [],
					"stateMutability": "nonpayable",
					"type": "constructor"
				},
				{
					"anonymous": false,
					"inputs": [
						{
							"indexed": true,
							"internalType": "address",
							"name": "_owner",
							"type": "address"
						},
						{
							"indexed": true,
							"internalType": "address",
							"name": "_spender",
							"type": "address"
						},
						{
							"indexed": false,
							"internalType": "uint256",
							"name": "_value",
							"type": "uint256"
						}
					],
					"name": "Approval",
					"type": "event"
				},
				{
					"anonymous": false,
					"inputs": [
						{
							"indexed": true,
							"internalType": "address",
							"name": "_from",
							"type": "address"
						},
						{
							"indexed": true,
							"internalType": "address",
							"name": "_to",
							"type": "address"
						},
						{
							"indexed": false,
							"internalType": "uint256",
							"name": "_value",
							"type": "uint256"
						}
					],
					"name": "Transfer",
					"type": "event"
				},
				{
					"inputs": [
						{
							"internalType": "address",
							"name": "",
							"type": "address"
						}
					],
					"name": "BalanceInContract",
					"outputs": [
						{
							"internalType": "uint256",
							"name": "",
							"type": "uint256"
						}
					],
					"stateMutability": "view",
					"type": "function"
				},
				{
					"inputs": [],
					"name": "CheckTokenBal",
					"outputs": [
						{
							"internalType": "uint256",
							"name": "",
							"type": "uint256"
						}
					],
					"stateMutability": "view",
					"type": "function"
				},
				{
					"inputs": [
						{
							"internalType": "address",
							"name": "",
							"type": "address"
						}
					],
					"name": "TokenBalanceof",
					"outputs": [
						{
							"internalType": "uint256",
							"name": "",
							"type": "uint256"
						}
					],
					"stateMutability": "view",
					"type": "function"
				},
				{
					"inputs": [
						{
							"internalType": "address",
							"name": "",
							"type": "address"
						},
						{
							"internalType": "address",
							"name": "",
							"type": "address"
						}
					],
					"name": "allowence",
					"outputs": [
						{
							"internalType": "uint256",
							"name": "",
							"type": "uint256"
						}
					],
					"stateMutability": "view",
					"type": "function"
				},
				{
					"inputs": [
						{
							"internalType": "address",
							"name": "_spender",
							"type": "address"
						},
						{
							"internalType": "uint256",
							"name": "_value",
							"type": "uint256"
						}
					],
					"name": "approve",
					"outputs": [
						{
							"internalType": "bool",
							"name": "success",
							"type": "bool"
						}
					],
					"stateMutability": "nonpayable",
					"type": "function"
				},
				{
					"inputs": [
						{
							"internalType": "address",
							"name": "user",
							"type": "address"
						}
					],
					"name": "checkETHBalance",
					"outputs": [
						{
							"internalType": "uint256",
							"name": "",
							"type": "uint256"
						}
					],
					"stateMutability": "view",
					"type": "function"
				},
				{
					"inputs": [],
					"name": "decimal",
					"outputs": [
						{
							"internalType": "uint256",
							"name": "",
							"type": "uint256"
						}
					],
					"stateMutability": "view",
					"type": "function"
				},
				{
					"inputs": [],
					"name": "deposit",
					"outputs": [],
					"stateMutability": "payable",
					"type": "function"
				},
				{
					"inputs": [
						{
							"internalType": "uint256",
							"name": "_token",
							"type": "uint256"
						}
					],
					"name": "depositToken",
					"outputs": [],
					"stateMutability": "nonpayable",
					"type": "function"
				},
				{
					"inputs": [],
					"name": "name",
					"outputs": [
						{
							"internalType": "string",
							"name": "",
							"type": "string"
						}
					],
					"stateMutability": "view",
					"type": "function"
				},
				{
					"inputs": [],
					"name": "symbol",
					"outputs": [
						{
							"internalType": "string",
							"name": "",
							"type": "string"
						}
					],
					"stateMutability": "view",
					"type": "function"
				},
				{
					"inputs": [],
					"name": "totalSupply",
					"outputs": [
						{
							"internalType": "uint256",
							"name": "",
							"type": "uint256"
						}
					],
					"stateMutability": "view",
					"type": "function"
				},
				{
					"inputs": [
						{
							"internalType": "address",
							"name": "_to",
							"type": "address"
						},
						{
							"internalType": "uint256",
							"name": "_value",
							"type": "uint256"
						}
					],
					"name": "transfer",
					"outputs": [
						{
							"internalType": "bool",
							"name": "success",
							"type": "bool"
						}
					],
					"stateMutability": "nonpayable",
					"type": "function"
				},
				{
					"inputs": [
						{
							"internalType": "address",
							"name": "_from",
							"type": "address"
						},
						{
							"internalType": "address",
							"name": "_to",
							"type": "address"
						},
						{
							"internalType": "uint256",
							"name": "_value",
							"type": "uint256"
						}
					],
					"name": "transferFrom",
					"outputs": [
						{
							"internalType": "bool",
							"name": "success",
							"type": "bool"
						}
					],
					"stateMutability": "nonpayable",
					"type": "function"
				},
				{
					"inputs": [
						{
							"internalType": "uint256",
							"name": "_amount",
							"type": "uint256"
						}
					],
					"name": "withdrawETH",
					"outputs": [],
					"stateMutability": "nonpayable",
					"type": "function"
				},
				{
					"inputs": [
						{
							"internalType": "uint256",
							"name": "_token",
							"type": "uint256"
						}
					],
					"name": "withdrawToken",
					"outputs": [],
					"stateMutability": "nonpayable",
					"type": "function"
				}
			],
			"devdoc": {
				"kind": "dev",
				"methods": {},
				"version": 1
			},
			"evm": {
				"assembly": "    /* \"contracts/worldBank.sol\":56:2823  contract bank {... */\n  mstore(0x40, 0x80)\n    /* \"contracts/worldBank.sol\":81:111  string public name = \"vkToken\" */\n  mload(0x40)\n  dup1\n  0x40\n  add\n  0x40\n  mstore\n  dup1\n  0x07\n  dup2\n  mstore\n  0x20\n  add\n  0x766b546f6b656e00000000000000000000000000000000000000000000000000\n  dup2\n  mstore\n  pop\n  0x00\n  swap1\n  dup2\n  tag_1\n  swap2\n  swap1\n  tag_2\n  jump\t// in\ntag_1:\n  pop\n    /* \"contracts/worldBank.sol\":117:144  string public symbol = \"vk\" */\n  mload(0x40)\n  dup1\n  0x40\n  add\n  0x40\n  mstore\n  dup1\n  0x02\n  dup2\n  mstore\n  0x20\n  add\n  0x766b000000000000000000000000000000000000000000000000000000000000\n  dup2\n  mstore\n  pop\n  0x01\n  swap1\n  dup2\n  tag_3\n  swap2\n  swap1\n  tag_2\n  jump\t// in\ntag_3:\n  pop\n    /* \"contracts/worldBank.sol\":171:173  10 */\n  0x0a\n    /* \"contracts/worldBank.sol\":150:173  uint public decimal =10 */\n  0x02\n  sstore\n    /* \"contracts/worldBank.sol\":207:211  1000 */\n  0x03e8\n    /* \"contracts/worldBank.sol\":179:211  uint256 public totalSupply= 1000 */\n  0x03\n  sstore\n    /* \"contracts/worldBank.sol\":715:776  constructor(){... */\n  callvalue\n  dup1\n  iszero\n  tag_4\n  jumpi\n  0x00\n  dup1\n  revert\ntag_4:\n  pop\n    /* \"contracts/worldBank.sol\":765:769  1000 */\n  0x03e8\n    /* \"contracts/worldBank.sol\":738:752  TokenBalanceof */\n  0x04\n    /* \"contracts/worldBank.sol\":738:764  TokenBalanceof[msg.sender] */\n  0x00\n    /* \"contracts/worldBank.sol\":753:763  msg.sender */\n  caller\n    /* \"contracts/worldBank.sol\":738:764  TokenBalanceof[msg.sender] */\n  0xffffffffffffffffffffffffffffffffffffffff\n  and\n  0xffffffffffffffffffffffffffffffffffffffff\n  and\n  dup2\n  mstore\n  0x20\n  add\n  swap1\n  dup2\n  mstore\n  0x20\n  add\n  0x00\n  keccak256\n    /* \"contracts/worldBank.sol\":738:769  TokenBalanceof[msg.sender]=1000 */\n  dup2\n  swap1\n  sstore\n  pop\n    /* \"contracts/worldBank.sol\":56:2823  contract bank {... */\n  jump(tag_7)\n    /* \"#utility.yul\":7:106   */\ntag_8:\n    /* \"#utility.yul\":59:65   */\n  0x00\n    /* \"#utility.yul\":93:98   */\n  dup2\n    /* \"#utility.yul\":87:99   */\n  mload\n    /* \"#utility.yul\":77:99   */\n  swap1\n  pop\n    /* \"#utility.yul\":7:106   */\n  swap2\n  swap1\n  pop\n  jump\t// out\n    /* \"#utility.yul\":112:292   */\ntag_9:\n    /* \"#utility.yul\":160:237   */\n  0x4e487b7100000000000000000000000000000000000000000000000000000000\n    /* \"#utility.yul\":157:158   */\n  0x00\n    /* \"#utility.yul\":150:238   */\n  mstore\n    /* \"#utility.yul\":257:261   */\n  0x41\n    /* \"#utility.yul\":254:255   */\n  0x04\n    /* \"#utility.yul\":247:262   */\n  mstore\n    /* \"#utility.yul\":281:285   */\n  0x24\n    /* \"#utility.yul\":278:279   */\n  0x00\n    /* \"#utility.yul\":271:286   */\n  revert\n    /* \"#utility.yul\":298:478   */\ntag_10:\n    /* \"#utility.yul\":346:423   */\n  0x4e487b7100000000000000000000000000000000000000000000000000000000\n    /* \"#utility.yul\":343:344   */\n  0x00\n    /* \"#utility.yul\":336:424   */\n  mstore\n    /* \"#utility.yul\":443:447   */\n  0x22\n    /* \"#utility.yul\":440:441   */\n  0x04\n    /* \"#utility.yul\":433:448   */\n  mstore\n    /* \"#utility.yul\":467:471   */\n  0x24\n    /* \"#utility.yul\":464:465   */\n  0x00\n    /* \"#utility.yul\":457:472   */\n  revert\n    /* \"#utility.yul\":484:804   */\ntag_11:\n    /* \"#utility.yul\":528:534   */\n  0x00\n    /* \"#utility.yul\":565:566   */\n  0x02\n    /* \"#utility.yul\":559:563   */\n  dup3\n    /* \"#utility.yul\":555:567   */\n  div\n    /* \"#utility.yul\":545:567   */\n  swap1\n  pop\n    /* \"#utility.yul\":612:613   */\n  0x01\n    /* \"#utility.yul\":606:610   */\n  dup3\n    /* \"#utility.yul\":602:614   */\n  and\n    /* \"#utility.yul\":633:651   */\n  dup1\n    /* \"#utility.yul\":623:704   */\n  tag_33\n  jumpi\n    /* \"#utility.yul\":689:693   */\n  0x7f\n    /* \"#utility.yul\":681:687   */\n  dup3\n    /* \"#utility.yul\":677:694   */\n  and\n    /* \"#utility.yul\":667:694   */\n  swap2\n  pop\n    /* \"#utility.yul\":623:704   */\ntag_33:\n    /* \"#utility.yul\":751:753   */\n  0x20\n    /* \"#utility.yul\":743:749   */\n  dup3\n    /* \"#utility.yul\":740:754   */\n  lt\n    /* \"#utility.yul\":720:738   */\n  dup2\n    /* \"#utility.yul\":717:755   */\n  sub\n    /* \"#utility.yul\":714:798   */\n  tag_34\n  jumpi\n    /* \"#utility.yul\":770:788   */\n  tag_35\n  tag_10\n  jump\t// in\ntag_35:\n    /* \"#utility.yul\":714:798   */\ntag_34:\n    /* \"#utility.yul\":535:804   */\n  pop\n    /* \"#utility.yul\":484:804   */\n  swap2\n  swap1\n  pop\n  jump\t// out\n    /* \"#utility.yul\":810:951   */\ntag_12:\n    /* \"#utility.yul\":859:863   */\n  0x00\n    /* \"#utility.yul\":882:885   */\n  dup2\n    /* \"#utility.yul\":874:885   */\n  swap1\n  pop\n    /* \"#utility.yul\":905:908   */\n  dup2\n    /* \"#utility.yul\":902:903   */\n  0x00\n    /* \"#utility.yul\":895:909   */\n  mstore\n    /* \"#utility.yul\":939:943   */\n  0x20\n    /* \"#utility.yul\":936:937   */\n  0x00\n    /* \"#utility.yul\":926:944   */\n  keccak256\n    /* \"#utility.yul\":918:944   */\n  swap1\n  pop\n    /* \"#utility.yul\":810:951   */\n  swap2\n  swap1\n  pop\n  jump\t// out\n    /* \"#utility.yul\":957:1050   */\ntag_13:\n    /* \"#utility.yul\":994:1000   */\n  0x00\n    /* \"#utility.yul\":1041:1043   */\n  0x20\n    /* \"#utility.yul\":1036:1038   */\n  0x1f\n    /* \"#utility.yul\":1029:1034   */\n  dup4\n    /* \"#utility.yul\":1025:1039   */\n  add\n    /* \"#utility.yul\":1021:1044   */\n  div\n    /* \"#utility.yul\":1011:1044   */\n  swap1\n  pop\n    /* \"#utility.yul\":957:1050   */\n  swap2\n  swap1\n  pop\n  jump\t// out\n    /* \"#utility.yul\":1056:1163   */\ntag_14:\n    /* \"#utility.yul\":1100:1108   */\n  0x00\n    /* \"#utility.yul\":1150:1155   */\n  dup3\n    /* \"#utility.yul\":1144:1148   */\n  dup3\n    /* \"#utility.yul\":1140:1156   */\n  shl\n    /* \"#utility.yul\":1119:1156   */\n  swap1\n  pop\n    /* \"#utility.yul\":1056:1163   */\n  swap3\n  swap2\n  pop\n  pop\n  jump\t// out\n    /* \"#utility.yul\":1169:1562   */\ntag_15:\n    /* \"#utility.yul\":1238:1244   */\n  0x00\n    /* \"#utility.yul\":1288:1289   */\n  0x08\n    /* \"#utility.yul\":1276:1286   */\n  dup4\n    /* \"#utility.yul\":1272:1290   */\n  mul\n    /* \"#utility.yul\":1311:1408   */\n  tag_40\n    /* \"#utility.yul\":1341:1407   */\n  0xffffffffffffffffffffffffffffffffffffffffffffffffffffffffffffffff\n    /* \"#utility.yul\":1330:1339   */\n  dup3\n    /* \"#utility.yul\":1311:1408   */\n  tag_14\n  jump\t// in\ntag_40:\n    /* \"#utility.yul\":1429:1468   */\n  tag_41\n    /* \"#utility.yul\":1459:1467   */\n  dup7\n    /* \"#utility.yul\":1448:1457   */\n  dup4\n    /* \"#utility.yul\":1429:1468   */\n  tag_14\n  jump\t// in\ntag_41:\n    /* \"#utility.yul\":1417:1468   */\n  swap6\n  pop\n    /* \"#utility.yul\":1501:1505   */\n  dup1\n    /* \"#utility.yul\":1497:1506   */\n  not\n    /* \"#utility.yul\":1490:1495   */\n  dup5\n    /* \"#utility.yul\":1486:1507   */\n  and\n    /* \"#utility.yul\":1477:1507   */\n  swap4\n  pop\n    /* \"#utility.yul\":1550:1554   */\n  dup1\n    /* \"#utility.yul\":1540:1548   */\n  dup7\n    /* \"#utility.yul\":1536:1555   */\n  and\n    /* \"#utility.yul\":1529:1534   */\n  dup5\n    /* \"#utility.yul\":1526:1556   */\n  or\n    /* \"#utility.yul\":1516:1556   */\n  swap3\n  pop\n    /* \"#utility.yul\":1245:1562   */\n  pop\n  pop\n    /* \"#utility.yul\":1169:1562   */\n  swap4\n  swap3\n  pop\n  pop\n  pop\n  jump\t// out\n    /* \"#utility.yul\":1568:1645   */\ntag_16:\n    /* \"#utility.yul\":1605:1612   */\n  0x00\n    /* \"#utility.yul\":1634:1639   */\n  dup2\n    /* \"#utility.yul\":1623:1639   */\n  swap1\n  pop\n    /* \"#utility.yul\":1568:1645   */\n  swap2\n  swap1\n  pop\n  jump\t// out\n    /* \"#utility.yul\":1651:1711   */\ntag_17:\n    /* \"#utility.yul\":1679:1682   */\n  0x00\n    /* \"#utility.yul\":1700:1705   */\n  dup2\n    /* \"#utility.yul\":1693:1705   */\n  swap1\n  pop\n    /* \"#utility.yul\":1651:1711   */\n  swap2\n  swap1\n  pop\n  jump\t// out\n    /* \"#utility.yul\":1717:1859   */\ntag_18:\n    /* \"#utility.yul\":1767:1776   */\n  0x00\n    /* \"#utility.yul\":1800:1853   */\n  tag_45\n    /* \"#utility.yul\":1818:1852   */\n  tag_46\n    /* \"#utility.yul\":1827:1851   */\n  tag_47\n    /* \"#utility.yul\":1845:1850   */\n  dup5\n    /* \"#utility.yul\":1827:1851   */\n  tag_16\n  jump\t// in\ntag_47:\n    /* \"#utility.yul\":1818:1852   */\n  tag_17\n  jump\t// in\ntag_46:\n    /* \"#utility.yul\":1800:1853   */\n  tag_16\n  jump\t// in\ntag_45:\n    /* \"#utility.yul\":1787:1853   */\n  swap1\n  pop\n    /* \"#utility.yul\":1717:1859   */\n  swap2\n  swap1\n  pop\n  jump\t// out\n    /* \"#utility.yul\":1865:1940   */\ntag_19:\n    /* \"#utility.yul\":1908:1911   */\n  0x00\n    /* \"#utility.yul\":1929:1934   */\n  dup2\n    /* \"#utility.yul\":1922:1934   */\n  swap1\n  pop\n    /* \"#utility.yul\":1865:1940   */\n  swap2\n  swap1\n  pop\n  jump\t// out\n    /* \"#utility.yul\":1946:2215   */\ntag_20:\n    /* \"#utility.yul\":2056:2095   */\n  tag_50\n    /* \"#utility.yul\":2087:2094   */\n  dup4\n    /* \"#utility.yul\":2056:2095   */\n  tag_18\n  jump\t// in\ntag_50:\n    /* \"#utility.yul\":2117:2208   */\n  tag_51\n    /* \"#utility.yul\":2166:2207   */\n  tag_52\n    /* \"#utility.yul\":2190:2206   */\n  dup3\n    /* \"#utility.yul\":2166:2207   */\n  tag_19\n  jump\t// in\ntag_52:\n    /* \"#utility.yul\":2158:2164   */\n  dup5\n    /* \"#utility.yul\":2151:2155   */\n  dup5\n    /* \"#utility.yul\":2145:2156   */\n  sload\n    /* \"#utility.yul\":2117:2208   */\n  tag_15\n  jump\t// in\ntag_51:\n    /* \"#utility.yul\":2111:2115   */\n  dup3\n    /* \"#utility.yul\":2104:2209   */\n  sstore\n    /* \"#utility.yul\":2022:2215   */\n  pop\n    /* \"#utility.yul\":1946:2215   */\n  pop\n  pop\n  pop\n  jump\t// out\n    /* \"#utility.yul\":2221:2294   */\ntag_21:\n    /* \"#utility.yul\":2266:2269   */\n  0x00\n    /* \"#utility.yul\":2221:2294   */\n  swap1\n  jump\t// out\n    /* \"#utility.yul\":2300:2489   */\ntag_22:\n    /* \"#utility.yul\":2377:2409   */\n  tag_55\n  tag_21\n  jump\t// in\ntag_55:\n    /* \"#utility.yul\":2418:2483   */\n  tag_56\n    /* \"#utility.yul\":2476:2482   */\n  dup2\n    /* \"#utility.yul\":2468:2474   */\n  dup5\n    /* \"#utility.yul\":2462:2466   */\n  dup5\n    /* \"#utility.yul\":2418:2483   */\n  tag_20\n  jump\t// in\ntag_56:\n    /* \"#utility.yul\":2353:2489   */\n  pop\n    /* \"#utility.yul\":2300:2489   */\n  pop\n  pop\n  jump\t// out\n    /* \"#utility.yul\":2495:2681   */\ntag_23:\n    /* \"#utility.yul\":2555:2675   */\ntag_58:\n    /* \"#utility.yul\":2572:2575   */\n  dup2\n    /* \"#utility.yul\":2565:2570   */\n  dup2\n    /* \"#utility.yul\":2562:2576   */\n  lt\n    /* \"#utility.yul\":2555:2675   */\n  iszero\n  tag_60\n  jumpi\n    /* \"#utility.yul\":2626:2665   */\n  tag_61\n    /* \"#utility.yul\":2663:2664   */\n  0x00\n    /* \"#utility.yul\":2656:2661   */\n  dup3\n    /* \"#utility.yul\":2626:2665   */\n  tag_22\n  jump\t// in\ntag_61:\n    /* \"#utility.yul\":2599:2600   */\n  0x01\n    /* \"#utility.yul\":2592:2597   */\n  dup2\n    /* \"#utility.yul\":2588:2601   */\n  add\n    /* \"#utility.yul\":2579:2601   */\n  swap1\n  pop\n    /* \"#utility.yul\":2555:2675   */\n  jump(tag_58)\ntag_60:\n    /* \"#utility.yul\":2495:2681   */\n  pop\n  pop\n  jump\t// out\n    /* \"#utility.yul\":2687:3230   */\ntag_24:\n    /* \"#utility.yul\":2788:2790   */\n  0x1f\n    /* \"#utility.yul\":2783:2786   */\n  dup3\n    /* \"#utility.yul\":2780:2791   */\n  gt\n    /* \"#utility.yul\":2777:3223   */\n  iszero\n  tag_63\n  jumpi\n    /* \"#utility.yul\":2822:2860   */\n  tag_64\n    /* \"#utility.yul\":2854:2859   */\n  dup2\n    /* \"#utility.yul\":2822:2860   */\n  tag_12\n  jump\t// in\ntag_64:\n    /* \"#utility.yul\":2906:2935   */\n  tag_65\n    /* \"#utility.yul\":2924:2934   */\n  dup5\n    /* \"#utility.yul\":2906:2935   */\n  tag_13\n  jump\t// in\ntag_65:\n    /* \"#utility.yul\":2896:2904   */\n  dup2\n    /* \"#utility.yul\":2892:2936   */\n  add\n    /* \"#utility.yul\":3089:3091   */\n  0x20\n    /* \"#utility.yul\":3077:3087   */\n  dup6\n    /* \"#utility.yul\":3074:3092   */\n  lt\n    /* \"#utility.yul\":3071:3120   */\n  iszero\n  tag_66\n  jumpi\n    /* \"#utility.yul\":3110:3118   */\n  dup2\n    /* \"#utility.yul\":3095:3118   */\n  swap1\n  pop\n    /* \"#utility.yul\":3071:3120   */\ntag_66:\n    /* \"#utility.yul\":3133:3213   */\n  tag_67\n    /* \"#utility.yul\":3189:3211   */\n  tag_68\n    /* \"#utility.yul\":3207:3210   */\n  dup6\n    /* \"#utility.yul\":3189:3211   */\n  tag_13\n  jump\t// in\ntag_68:\n    /* \"#utility.yul\":3179:3187   */\n  dup4\n    /* \"#utility.yul\":3175:3212   */\n  add\n    /* \"#utility.yul\":3162:3173   */\n  dup3\n    /* \"#utility.yul\":3133:3213   */\n  tag_23\n  jump\t// in\ntag_67:\n    /* \"#utility.yul\":2792:3223   */\n  pop\n  pop\n    /* \"#utility.yul\":2777:3223   */\ntag_63:\n    /* \"#utility.yul\":2687:3230   */\n  pop\n  pop\n  pop\n  jump\t// out\n    /* \"#utility.yul\":3236:3353   */\ntag_25:\n    /* \"#utility.yul\":3290:3298   */\n  0x00\n    /* \"#utility.yul\":3340:3345   */\n  dup3\n    /* \"#utility.yul\":3334:3338   */\n  dup3\n    /* \"#utility.yul\":3330:3346   */\n  shr\n    /* \"#utility.yul\":3309:3346   */\n  swap1\n  pop\n    /* \"#utility.yul\":3236:3353   */\n  swap3\n  swap2\n  pop\n  pop\n  jump\t// out\n    /* \"#utility.yul\":3359:3528   */\ntag_26:\n    /* \"#utility.yul\":3403:3409   */\n  0x00\n    /* \"#utility.yul\":3436:3487   */\n  tag_71\n    /* \"#utility.yul\":3484:3485   */\n  0x00\n    /* \"#utility.yul\":3480:3486   */\n  not\n    /* \"#utility.yul\":3472:3477   */\n  dup5\n    /* \"#utility.yul\":3469:3470   */\n  0x08\n    /* \"#utility.yul\":3465:3478   */\n  mul\n    /* \"#utility.yul\":3436:3487   */\n  tag_25\n  jump\t// in\ntag_71:\n    /* \"#utility.yul\":3432:3488   */\n  not\n    /* \"#utility.yul\":3517:3521   */\n  dup1\n    /* \"#utility.yul\":3511:3515   */\n  dup4\n    /* \"#utility.yul\":3507:3522   */\n  and\n    /* \"#utility.yul\":3497:3522   */\n  swap2\n  pop\n    /* \"#utility.yul\":3410:3528   */\n  pop\n    /* \"#utility.yul\":3359:3528   */\n  swap3\n  swap2\n  pop\n  pop\n  jump\t// out\n    /* \"#utility.yul\":3533:3828   */\ntag_27:\n    /* \"#utility.yul\":3609:3613   */\n  0x00\n    /* \"#utility.yul\":3755:3784   */\n  tag_73\n    /* \"#utility.yul\":3780:3783   */\n  dup4\n    /* \"#utility.yul\":3774:3778   */\n  dup4\n    /* \"#utility.yul\":3755:3784   */\n  tag_26\n  jump\t// in\ntag_73:\n    /* \"#utility.yul\":3747:3784   */\n  swap2\n  pop\n    /* \"#utility.yul\":3817:3820   */\n  dup3\n    /* \"#utility.yul\":3814:3815   */\n  0x02\n    /* \"#utility.yul\":3810:3821   */\n  mul\n    /* \"#utility.yul\":3804:3808   */\n  dup3\n    /* \"#utility.yul\":3801:3822   */\n  or\n    /* \"#utility.yul\":3793:3822   */\n  swap1\n  pop\n    /* \"#utility.yul\":3533:3828   */\n  swap3\n  swap2\n  pop\n  pop\n  jump\t// out\n    /* \"#utility.yul\":3833:5228   */\ntag_2:\n    /* \"#utility.yul\":3950:3987   */\n  tag_75\n    /* \"#utility.yul\":3983:3986   */\n  dup3\n    /* \"#utility.yul\":3950:3987   */\n  tag_8\n  jump\t// in\ntag_75:\n    /* \"#utility.yul\":4052:4070   */\n  0xffffffffffffffff\n    /* \"#utility.yul\":4044:4050   */\n  dup2\n    /* \"#utility.yul\":4041:4071   */\n  gt\n    /* \"#utility.yul\":4038:4094   */\n  iszero\n  tag_76\n  jumpi\n    /* \"#utility.yul\":4074:4092   */\n  tag_77\n  tag_9\n  jump\t// in\ntag_77:\n    /* \"#utility.yul\":4038:4094   */\ntag_76:\n    /* \"#utility.yul\":4118:4156   */\n  tag_78\n    /* \"#utility.yul\":4150:4154   */\n  dup3\n    /* \"#utility.yul\":4144:4155   */\n  sload\n    /* \"#utility.yul\":4118:4156   */\n  tag_11\n  jump\t// in\ntag_78:\n    /* \"#utility.yul\":4203:4270   */\n  tag_79\n    /* \"#utility.yul\":4263:4269   */\n  dup3\n    /* \"#utility.yul\":4255:4261   */\n  dup3\n    /* \"#utility.yul\":4249:4253   */\n  dup6\n    /* \"#utility.yul\":4203:4270   */\n  tag_24\n  jump\t// in\ntag_79:\n    /* \"#utility.yul\":4297:4298   */\n  0x00\n    /* \"#utility.yul\":4321:4325   */\n  0x20\n    /* \"#utility.yul\":4308:4325   */\n  swap1\n  pop\n    /* \"#utility.yul\":4353:4355   */\n  0x1f\n    /* \"#utility.yul\":4345:4351   */\n  dup4\n    /* \"#utility.yul\":4342:4356   */\n  gt\n    /* \"#utility.yul\":4370:4371   */\n  0x01\n    /* \"#utility.yul\":4365:4983   */\n  dup2\n  eq\n  tag_81\n  jumpi\n    /* \"#utility.yul\":5027:5028   */\n  0x00\n    /* \"#utility.yul\":5044:5050   */\n  dup5\n    /* \"#utility.yul\":5041:5118   */\n  iszero\n  tag_82\n  jumpi\n    /* \"#utility.yul\":5093:5102   */\n  dup3\n    /* \"#utility.yul\":5088:5091   */\n  dup8\n    /* \"#utility.yul\":5084:5103   */\n  add\n    /* \"#utility.yul\":5078:5104   */\n  mload\n    /* \"#utility.yul\":5069:5104   */\n  swap1\n  pop\n    /* \"#utility.yul\":5041:5118   */\ntag_82:\n    /* \"#utility.yul\":5144:5211   */\n  tag_83\n    /* \"#utility.yul\":5204:5210   */\n  dup6\n    /* \"#utility.yul\":5197:5202   */\n  dup3\n    /* \"#utility.yul\":5144:5211   */\n  tag_27\n  jump\t// in\ntag_83:\n    /* \"#utility.yul\":5138:5142   */\n  dup7\n    /* \"#utility.yul\":5131:5212   */\n  sstore\n    /* \"#utility.yul\":5000:5222   */\n  pop\n    /* \"#utility.yul\":4335:5222   */\n  jump(tag_80)\n    /* \"#utility.yul\":4365:4983   */\ntag_81:\n    /* \"#utility.yul\":4417:4421   */\n  0x1f\n    /* \"#utility.yul\":4413:4422   */\n  not\n    /* \"#utility.yul\":4405:4411   */\n  dup5\n    /* \"#utility.yul\":4401:4423   */\n  and\n    /* \"#utility.yul\":4451:4488   */\n  tag_84\n    /* \"#utility.yul\":4483:4487   */\n  dup7\n    /* \"#utility.yul\":4451:4488   */\n  tag_12\n  jump\t// in\ntag_84:\n    /* \"#utility.yul\":4510:4511   */\n  0x00\n    /* \"#utility.yul\":4524:4732   */\ntag_85:\n    /* \"#utility.yul\":4538:4545   */\n  dup3\n    /* \"#utility.yul\":4535:4536   */\n  dup2\n    /* \"#utility.yul\":4532:4546   */\n  lt\n    /* \"#utility.yul\":4524:4732   */\n  iszero\n  tag_87\n  jumpi\n    /* \"#utility.yul\":4617:4626   */\n  dup5\n    /* \"#utility.yul\":4612:4615   */\n  dup10\n    /* \"#utility.yul\":4608:4627   */\n  add\n    /* \"#utility.yul\":4602:4628   */\n  mload\n    /* \"#utility.yul\":4594:4600   */\n  dup3\n    /* \"#utility.yul\":4587:4629   */\n  sstore\n    /* \"#utility.yul\":4668:4669   */\n  0x01\n    /* \"#utility.yul\":4660:4666   */\n  dup3\n    /* \"#utility.yul\":4656:4670   */\n  add\n    /* \"#utility.yul\":4646:4670   */\n  swap2\n  pop\n    /* \"#utility.yul\":4715:4717   */\n  0x20\n    /* \"#utility.yul\":4704:4713   */\n  dup6\n    /* \"#utility.yul\":4700:4718   */\n  add\n    /* \"#utility.yul\":4687:4718   */\n  swap5\n  pop\n    /* \"#utility.yul\":4561:4565   */\n  0x20\n    /* \"#utility.yul\":4558:4559   */\n  dup2\n    /* \"#utility.yul\":4554:4566   */\n  add\n    /* \"#utility.yul\":4549:4566   */\n  swap1\n  pop\n    /* \"#utility.yul\":4524:4732   */\n  jump(tag_85)\ntag_87:\n    /* \"#utility.yul\":4760:4766   */\n  dup7\n    /* \"#utility.yul\":4751:4758   */\n  dup4\n    /* \"#utility.yul\":4748:4767   */\n  lt\n    /* \"#utility.yul\":4745:4924   */\n  iszero\n  tag_88\n  jumpi\n    /* \"#utility.yul\":4818:4827   */\n  dup5\n    /* \"#utility.yul\":4813:4816   */\n  dup10\n    /* \"#utility.yul\":4809:4828   */\n  add\n    /* \"#utility.yul\":4803:4829   */\n  mload\n    /* \"#utility.yul\":4861:4909   */\n  tag_89\n    /* \"#utility.yul\":4903:4907   */\n  0x1f\n    /* \"#utility.yul\":4895:4901   */\n  dup10\n    /* \"#utility.yul\":4891:4908   */\n  and\n    /* \"#utility.yul\":4880:4889   */\n  dup3\n    /* \"#utility.yul\":4861:4909   */\n  tag_26\n  jump\t// in\ntag_89:\n    /* \"#utility.yul\":4853:4859   */\n  dup4\n    /* \"#utility.yul\":4846:4910   */\n  sstore\n    /* \"#utility.yul\":4768:4924   */\n  pop\n    /* \"#utility.yul\":4745:4924   */\ntag_88:\n    /* \"#utility.yul\":4970:4971   */\n  0x01\n    /* \"#utility.yul\":4966:4967   */\n  0x02\n    /* \"#utility.yul\":4958:4964   */\n  dup9\n    /* \"#utility.yul\":4954:4968   */\n  mul\n    /* \"#utility.yul\":4950:4972   */\n  add\n    /* \"#utility.yul\":4944:4948   */\n  dup9\n    /* \"#utility.yul\":4937:4973   */\n  sstore\n    /* \"#utility.yul\":4372:4983   */\n  pop\n  pop\n  pop\n    /* \"#utility.yul\":4335:5222   */\ntag_80:\n  pop\n    /* \"#utility.yul\":3925:5228   */\n  pop\n  pop\n  pop\n    /* \"#utility.yul\":3833:5228   */\n  pop\n  pop\n  jump\t// out\n    /* \"contracts/worldBank.sol\":56:2823  contract bank {... */\ntag_7:\n  dataSize(sub_0)\n  dup1\n  dataOffset(sub_0)\n  0x00\n  codecopy\n  0x00\n  return\nstop\n\nsub_0: assembly {\n        /* \"contracts/worldBank.sol\":56:2823  contract bank {... */\n      mstore(0x40, 0x80)\n      jumpi(tag_1, lt(calldatasize, 0x04))\n      shr(0xe0, calldataload(0x00))\n      dup1\n      0x819993f2\n      gt\n      tag_18\n      jumpi\n      dup1\n      0xab6859ba\n      gt\n      tag_19\n      jumpi\n      dup1\n      0xab6859ba\n      eq\n      tag_14\n      jumpi\n      dup1\n      0xc40ef575\n      eq\n      tag_15\n      jumpi\n      dup1\n      0xd0e30db0\n      eq\n      tag_16\n      jumpi\n      dup1\n      0xf14210a6\n      eq\n      tag_17\n      jumpi\n      jump(tag_1)\n    tag_19:\n      dup1\n      0x819993f2\n      eq\n      tag_10\n      jumpi\n      dup1\n      0x95d89b41\n      eq\n      tag_11\n      jumpi\n      dup1\n      0xa77a8230\n      eq\n      tag_12\n      jumpi\n      dup1\n      0xa9059cbb\n      eq\n      tag_13\n      jumpi\n      jump(tag_1)\n    tag_18:\n      dup1\n      0x50baa622\n      gt\n      tag_20\n      jumpi\n      dup1\n      0x50baa622\n      eq\n      tag_6\n      jumpi\n      dup1\n      0x6215be77\n      eq\n      tag_7\n      jumpi\n      dup1\n      0x62a35d72\n      eq\n      tag_8\n      jumpi\n      dup1\n      0x76809ce3\n      eq\n      tag_9\n      jumpi\n      jump(tag_1)\n    tag_20:\n      dup1\n      0x06fdde03\n      eq\n      tag_2\n      jumpi\n      dup1\n      0x095ea7b3\n      eq\n      tag_3\n      jumpi\n      dup1\n      0x18160ddd\n      eq\n      tag_4\n      jumpi\n      dup1\n      0x23b872dd\n      eq\n      tag_5\n      jumpi\n    tag_1:\n      0x00\n      dup1\n      revert\n        /* \"contracts/worldBank.sol\":81:111  string public name = \"vkToken\" */\n    tag_2:\n      callvalue\n      dup1\n      iszero\n      tag_21\n      jumpi\n      0x00\n      dup1\n      revert\n    tag_21:\n      pop\n      tag_22\n      tag_23\n      jump\t// in\n    tag_22:\n      mload(0x40)\n      tag_24\n      swap2\n      swap1\n      tag_25\n      jump\t// in\n    tag_24:\n      mload(0x40)\n      dup1\n      swap2\n      sub\n      swap1\n      return\n        /* \"contracts/worldBank.sol\":1499:1712  function approve(address _spender, uint256 _value) public returns (bool success){... */\n    tag_3:\n      callvalue\n      dup1\n      iszero\n      tag_26\n      jumpi\n      0x00\n      dup1\n      revert\n    tag_26:\n      pop\n      tag_27\n      0x04\n      dup1\n      calldatasize\n      sub\n      dup2\n      add\n      swap1\n      tag_28\n      swap2\n      swap1\n      tag_29\n      jump\t// in\n    tag_28:\n      tag_30\n      jump\t// in\n    tag_27:\n      mload(0x40)\n      tag_31\n      swap2\n      swap1\n      tag_32\n      jump\t// in\n    tag_31:\n      mload(0x40)\n      dup1\n      swap2\n      sub\n      swap1\n      return\n        /* \"contracts/worldBank.sol\":179:211  uint256 public totalSupply= 1000 */\n    tag_4:\n      callvalue\n      dup1\n      iszero\n      tag_33\n      jumpi\n      0x00\n      dup1\n      revert\n    tag_33:\n      pop\n      tag_34\n      tag_35\n      jump\t// in\n    tag_34:\n      mload(0x40)\n      tag_36\n      swap2\n      swap1\n      tag_37\n      jump\t// in\n    tag_36:\n      mload(0x40)\n      dup1\n      swap2\n      sub\n      swap1\n      return\n        /* \"contracts/worldBank.sol\":1095:1493  function transferFrom(address _from, address _to, uint256 _value) public returns (bool success){... */\n    tag_5:\n      callvalue\n      dup1\n      iszero\n      tag_38\n      jumpi\n      0x00\n      dup1\n      revert\n    tag_38:\n      pop\n      tag_39\n      0x04\n      dup1\n      calldatasize\n      sub\n      dup2\n      add\n      swap1\n      tag_40\n      swap2\n      swap1\n      tag_41\n      jump\t// in\n    tag_40:\n      tag_42\n      jump\t// in\n    tag_39:\n      mload(0x40)\n      tag_43\n      swap2\n      swap1\n      tag_32\n      jump\t// in\n    tag_43:\n      mload(0x40)\n      dup1\n      swap2\n      sub\n      swap1\n      return\n        /* \"contracts/worldBank.sol\":1995:2269  function withdrawToken(uint256 _token) public { ... */\n    tag_6:\n      callvalue\n      dup1\n      iszero\n      tag_44\n      jumpi\n      0x00\n      dup1\n      revert\n    tag_44:\n      pop\n      tag_45\n      0x04\n      dup1\n      calldatasize\n      sub\n      dup2\n      add\n      swap1\n      tag_46\n      swap2\n      swap1\n      tag_47\n      jump\t// in\n    tag_46:\n      tag_48\n      jump\t// in\n    tag_45:\n      stop\n        /* \"contracts/worldBank.sol\":1718:1989  function depositToken(uint256 _token) public {... */\n    tag_7:\n      callvalue\n      dup1\n      iszero\n      tag_49\n      jumpi\n      0x00\n      dup1\n      revert\n    tag_49:\n      pop\n      tag_50\n      0x04\n      dup1\n      calldatasize\n      sub\n      dup2\n      add\n      swap1\n      tag_51\n      swap2\n      swap1\n      tag_47\n      jump\t// in\n    tag_51:\n      tag_52\n      jump\t// in\n    tag_50:\n      stop\n        /* \"contracts/worldBank.sol\":2715:2816  function checkETHBalance(address user) public view returns(uint){... */\n    tag_8:\n      callvalue\n      dup1\n      iszero\n      tag_53\n      jumpi\n      0x00\n      dup1\n      revert\n    tag_53:\n      pop\n      tag_54\n      0x04\n      dup1\n      calldatasize\n      sub\n      dup2\n      add\n      swap1\n      tag_55\n      swap2\n      swap1\n      tag_56\n      jump\t// in\n    tag_55:\n      tag_57\n      jump\t// in\n    tag_54:\n      mload(0x40)\n      tag_58\n      swap2\n      swap1\n      tag_37\n      jump\t// in\n    tag_58:\n      mload(0x40)\n      dup1\n      swap2\n      sub\n      swap1\n      return\n        /* \"contracts/worldBank.sol\":150:173  uint public decimal =10 */\n    tag_9:\n      callvalue\n      dup1\n      iszero\n      tag_59\n      jumpi\n      0x00\n      dup1\n      revert\n    tag_59:\n      pop\n      tag_60\n      tag_61\n      jump\t// in\n    tag_60:\n      mload(0x40)\n      tag_62\n      swap2\n      swap1\n      tag_37\n      jump\t// in\n    tag_62:\n      mload(0x40)\n      dup1\n      swap2\n      sub\n      swap1\n      return\n        /* \"contracts/worldBank.sol\":241:290  mapping(address => uint256) public TokenBalanceof */\n    tag_10:\n      callvalue\n      dup1\n      iszero\n      tag_63\n      jumpi\n      0x00\n      dup1\n      revert\n    tag_63:\n      pop\n      tag_64\n      0x04\n      dup1\n      calldatasize\n      sub\n      dup2\n      add\n      swap1\n      tag_65\n      swap2\n      swap1\n      tag_56\n      jump\t// in\n    tag_65:\n      tag_66\n      jump\t// in\n    tag_64:\n      mload(0x40)\n      tag_67\n      swap2\n      swap1\n      tag_37\n      jump\t// in\n    tag_67:\n      mload(0x40)\n      dup1\n      swap2\n      sub\n      swap1\n      return\n        /* \"contracts/worldBank.sol\":117:144  string public symbol = \"vk\" */\n    tag_11:\n      callvalue\n      dup1\n      iszero\n      tag_68\n      jumpi\n      0x00\n      dup1\n      revert\n    tag_68:\n      pop\n      tag_69\n      tag_70\n      jump\t// in\n    tag_69:\n      mload(0x40)\n      tag_71\n      swap2\n      swap1\n      tag_25\n      jump\t// in\n    tag_71:\n      mload(0x40)\n      dup1\n      swap2\n      sub\n      swap1\n      return\n        /* \"contracts/worldBank.sol\":409:473  mapping(address => mapping(address => uint256)) public allowence */\n    tag_12:\n      callvalue\n      dup1\n      iszero\n      tag_72\n      jumpi\n      0x00\n      dup1\n      revert\n    tag_72:\n      pop\n      tag_73\n      0x04\n      dup1\n      calldatasize\n      sub\n      dup2\n      add\n      swap1\n      tag_74\n      swap2\n      swap1\n      tag_75\n      jump\t// in\n    tag_74:\n      tag_76\n      jump\t// in\n    tag_73:\n      mload(0x40)\n      tag_77\n      swap2\n      swap1\n      tag_37\n      jump\t// in\n    tag_77:\n      mload(0x40)\n      dup1\n      swap2\n      sub\n      swap1\n      return\n        /* \"contracts/worldBank.sol\":782:1089  function transfer(address _to, uint256 _value) public returns (bool success){... */\n    tag_13:\n      callvalue\n      dup1\n      iszero\n      tag_78\n      jumpi\n      0x00\n      dup1\n      revert\n    tag_78:\n      pop\n      tag_79\n      0x04\n      dup1\n      calldatasize\n      sub\n      dup2\n      add\n      swap1\n      tag_80\n      swap2\n      swap1\n      tag_29\n      jump\t// in\n    tag_80:\n      tag_81\n      jump\t// in\n    tag_79:\n      mload(0x40)\n      tag_82\n      swap2\n      swap1\n      tag_32\n      jump\t// in\n    tag_82:\n      mload(0x40)\n      dup1\n      swap2\n      sub\n      swap1\n      return\n        /* \"contracts/worldBank.sol\":2279:2389  function CheckTokenBal() public view returns(uint256){... */\n    tag_14:\n      callvalue\n      dup1\n      iszero\n      tag_83\n      jumpi\n      0x00\n      dup1\n      revert\n    tag_83:\n      pop\n      tag_84\n      tag_85\n      jump\t// in\n    tag_84:\n      mload(0x40)\n      tag_86\n      swap2\n      swap1\n      tag_37\n      jump\t// in\n    tag_86:\n      mload(0x40)\n      dup1\n      swap2\n      sub\n      swap1\n      return\n        /* \"contracts/worldBank.sol\":296:347  mapping(address=> uint256) public BalanceInContract */\n    tag_15:\n      callvalue\n      dup1\n      iszero\n      tag_87\n      jumpi\n      0x00\n      dup1\n      revert\n    tag_87:\n      pop\n      tag_88\n      0x04\n      dup1\n      calldatasize\n      sub\n      dup2\n      add\n      swap1\n      tag_89\n      swap2\n      swap1\n      tag_56\n      jump\t// in\n    tag_89:\n      tag_90\n      jump\t// in\n    tag_88:\n      mload(0x40)\n      tag_91\n      swap2\n      swap1\n      tag_37\n      jump\t// in\n    tag_91:\n      mload(0x40)\n      dup1\n      swap2\n      sub\n      swap1\n      return\n        /* \"contracts/worldBank.sol\":2413:2496  function deposit() public payable  {... */\n    tag_16:\n      tag_92\n      tag_93\n      jump\t// in\n    tag_92:\n      stop\n        /* \"contracts/worldBank.sol\":2506:2709  function withdrawETH(uint _amount) public{... */\n    tag_17:\n      callvalue\n      dup1\n      iszero\n      tag_94\n      jumpi\n      0x00\n      dup1\n      revert\n    tag_94:\n      pop\n      tag_95\n      0x04\n      dup1\n      calldatasize\n      sub\n      dup2\n      add\n      swap1\n      tag_96\n      swap2\n      swap1\n      tag_47\n      jump\t// in\n    tag_96:\n      tag_97\n      jump\t// in\n    tag_95:\n      stop\n        /* \"contracts/worldBank.sol\":81:111  string public name = \"vkToken\" */\n    tag_23:\n      0x00\n      dup1\n      sload\n      tag_98\n      swap1\n      tag_99\n      jump\t// in\n    tag_98:\n      dup1\n      0x1f\n      add\n      0x20\n      dup1\n      swap2\n      div\n      mul\n      0x20\n      add\n      mload(0x40)\n      swap1\n      dup2\n      add\n      0x40\n      mstore\n      dup1\n      swap3\n      swap2\n      swap1\n      dup2\n      dup2\n      mstore\n      0x20\n      add\n      dup3\n      dup1\n      sload\n      tag_100\n      swap1\n      tag_99\n      jump\t// in\n    tag_100:\n      dup1\n      iszero\n      tag_101\n      jumpi\n      dup1\n      0x1f\n      lt\n      tag_102\n      jumpi\n      0x0100\n      dup1\n      dup4\n      sload\n      div\n      mul\n      dup4\n      mstore\n      swap2\n      0x20\n      add\n      swap2\n      jump(tag_101)\n    tag_102:\n      dup3\n      add\n      swap2\n      swap1\n      0x00\n      mstore\n      keccak256(0x00, 0x20)\n      swap1\n    tag_103:\n      dup2\n      sload\n      dup2\n      mstore\n      swap1\n      0x01\n      add\n      swap1\n      0x20\n      add\n      dup1\n      dup4\n      gt\n      tag_103\n      jumpi\n      dup3\n      swap1\n      sub\n      0x1f\n      and\n      dup3\n      add\n      swap2\n    tag_101:\n      pop\n      pop\n      pop\n      pop\n      pop\n      dup2\n      jump\t// out\n        /* \"contracts/worldBank.sol\":1499:1712  function approve(address _spender, uint256 _value) public returns (bool success){... */\n    tag_30:\n        /* \"contracts/worldBank.sol\":1566:1578  bool success */\n      0x00\n        /* \"contracts/worldBank.sol\":1621:1627  _value */\n      dup2\n        /* \"contracts/worldBank.sol\":1589:1598  allowence */\n      0x07\n        /* \"contracts/worldBank.sol\":1589:1610  allowence[msg.sender] */\n      0x00\n        /* \"contracts/worldBank.sol\":1599:1609  msg.sender */\n      caller\n        /* \"contracts/worldBank.sol\":1589:1610  allowence[msg.sender] */\n      0xffffffffffffffffffffffffffffffffffffffff\n      and\n      0xffffffffffffffffffffffffffffffffffffffff\n      and\n      dup2\n      mstore\n      0x20\n      add\n      swap1\n      dup2\n      mstore\n      0x20\n      add\n      0x00\n      keccak256\n        /* \"contracts/worldBank.sol\":1589:1620  allowence[msg.sender][_spender] */\n      0x00\n        /* \"contracts/worldBank.sol\":1611:1619  _spender */\n      dup6\n        /* \"contracts/worldBank.sol\":1589:1620  allowence[msg.sender][_spender] */\n      0xffffffffffffffffffffffffffffffffffffffff\n      and\n      0xffffffffffffffffffffffffffffffffffffffff\n      and\n      dup2\n      mstore\n      0x20\n      add\n      swap1\n      dup2\n      mstore\n      0x20\n      add\n      0x00\n      keccak256\n        /* \"contracts/worldBank.sol\":1589:1627  allowence[msg.sender][_spender]=_value */\n      dup2\n      swap1\n      sstore\n      pop\n        /* \"contracts/worldBank.sol\":1663:1671  _spender */\n      dup3\n        /* \"contracts/worldBank.sol\":1642:1680  Approval(msg.sender, _spender, _value) */\n      0xffffffffffffffffffffffffffffffffffffffff\n      and\n        /* \"contracts/worldBank.sol\":1651:1661  msg.sender */\n      caller\n        /* \"contracts/worldBank.sol\":1642:1680  Approval(msg.sender, _spender, _value) */\n      0xffffffffffffffffffffffffffffffffffffffff\n      and\n      0x8c5be1e5ebec7d5bd14f71427d1e84f3dd0314c0f7b2291e5b200ac8c7c3b925\n        /* \"contracts/worldBank.sol\":1673:1679  _value */\n      dup5\n        /* \"contracts/worldBank.sol\":1642:1680  Approval(msg.sender, _spender, _value) */\n      mload(0x40)\n      tag_105\n      swap2\n      swap1\n      tag_37\n      jump\t// in\n    tag_105:\n      mload(0x40)\n      dup1\n      swap2\n      sub\n      swap1\n      log3\n        /* \"contracts/worldBank.sol\":1697:1701  true */\n      0x01\n        /* \"contracts/worldBank.sol\":1690:1701  return true */\n      swap1\n      pop\n        /* \"contracts/worldBank.sol\":1499:1712  function approve(address _spender, uint256 _value) public returns (bool success){... */\n      swap3\n      swap2\n      pop\n      pop\n      jump\t// out\n        /* \"contracts/worldBank.sol\":179:211  uint256 public totalSupply= 1000 */\n    tag_35:\n      sload(0x03)\n      dup2\n      jump\t// out\n        /* \"contracts/worldBank.sol\":1095:1493  function transferFrom(address _from, address _to, uint256 _value) public returns (bool success){... */\n    tag_42:\n        /* \"contracts/worldBank.sol\":1177:1189  bool success */\n      0x00\n        /* \"contracts/worldBank.sol\":1238:1244  _value */\n      dup2\n        /* \"contracts/worldBank.sol\":1208:1217  allowence */\n      0x07\n        /* \"contracts/worldBank.sol\":1208:1224  allowence[_from] */\n      0x00\n        /* \"contracts/worldBank.sol\":1218:1223  _from */\n      dup7\n        /* \"contracts/worldBank.sol\":1208:1224  allowence[_from] */\n      0xffffffffffffffffffffffffffffffffffffffff\n      and\n      0xffffffffffffffffffffffffffffffffffffffff\n      and\n      dup2\n      mstore\n      0x20\n      add\n      swap1\n      dup2\n      mstore\n      0x20\n      add\n      0x00\n      keccak256\n        /* \"contracts/worldBank.sol\":1208:1236  allowence[_from][msg.sender] */\n      0x00\n        /* \"contracts/worldBank.sol\":1225:1235  msg.sender */\n      caller\n        /* \"contracts/worldBank.sol\":1208:1236  allowence[_from][msg.sender] */\n      0xffffffffffffffffffffffffffffffffffffffff\n      and\n      0xffffffffffffffffffffffffffffffffffffffff\n      and\n      dup2\n      mstore\n      0x20\n      add\n      swap1\n      dup2\n      mstore\n      0x20\n      add\n      0x00\n      keccak256\n      sload\n        /* \"contracts/worldBank.sol\":1208:1244  allowence[_from][msg.sender]>=_value */\n      lt\n      iszero\n        /* \"contracts/worldBank.sol\":1200:1272  require(allowence[_from][msg.sender]>=_value,\"not approved to transfer\") */\n      tag_107\n      jumpi\n      mload(0x40)\n      0x08c379a000000000000000000000000000000000000000000000000000000000\n      dup2\n      mstore\n      0x04\n      add\n      tag_108\n      swap1\n      tag_109\n      jump\t// in\n    tag_108:\n      mload(0x40)\n      dup1\n      swap2\n      sub\n      swap1\n      revert\n    tag_107:\n        /* \"contracts/worldBank.sol\":1313:1319  _value */\n      dup2\n        /* \"contracts/worldBank.sol\":1290:1304  TokenBalanceof */\n      0x04\n        /* \"contracts/worldBank.sol\":1290:1311  TokenBalanceof[_from] */\n      0x00\n        /* \"contracts/worldBank.sol\":1305:1310  _from */\n      dup7\n        /* \"contracts/worldBank.sol\":1290:1311  TokenBalanceof[_from] */\n      0xffffffffffffffffffffffffffffffffffffffff\n      and\n      0xffffffffffffffffffffffffffffffffffffffff\n      and\n      dup2\n      mstore\n      0x20\n      add\n      swap1\n      dup2\n      mstore\n      0x20\n      add\n      0x00\n      keccak256\n      sload\n        /* \"contracts/worldBank.sol\":1290:1319  TokenBalanceof[_from]>=_value */\n      lt\n      iszero\n        /* \"contracts/worldBank.sol\":1282:1342  require(TokenBalanceof[_from]>=_value, \"not enough amount \") */\n      tag_110\n      jumpi\n      mload(0x40)\n      0x08c379a000000000000000000000000000000000000000000000000000000000\n      dup2\n      mstore\n      0x04\n      add\n      tag_111\n      swap1\n      tag_112\n      jump\t// in\n    tag_111:\n      mload(0x40)\n      dup1\n      swap2\n      sub\n      swap1\n      revert\n    tag_110:\n        /* \"contracts/worldBank.sol\":1373:1379  _value */\n      dup2\n        /* \"contracts/worldBank.sol\":1352:1366  TokenBalanceof */\n      0x04\n        /* \"contracts/worldBank.sol\":1352:1371  TokenBalanceof[_to] */\n      0x00\n        /* \"contracts/worldBank.sol\":1367:1370  _to */\n      dup6\n        /* \"contracts/worldBank.sol\":1352:1371  TokenBalanceof[_to] */\n      0xffffffffffffffffffffffffffffffffffffffff\n      and\n      0xffffffffffffffffffffffffffffffffffffffff\n      and\n      dup2\n      mstore\n      0x20\n      add\n      swap1\n      dup2\n      mstore\n      0x20\n      add\n      0x00\n      keccak256\n      0x00\n        /* \"contracts/worldBank.sol\":1352:1379  TokenBalanceof[_to]+=_value */\n      dup3\n      dup3\n      sload\n      tag_113\n      swap2\n      swap1\n      tag_114\n      jump\t// in\n    tag_113:\n      swap3\n      pop\n      pop\n      dup2\n      swap1\n      sstore\n      pop\n        /* \"contracts/worldBank.sol\":1412:1418  _value */\n      dup2\n        /* \"contracts/worldBank.sol\":1389:1403  TokenBalanceof */\n      0x04\n        /* \"contracts/worldBank.sol\":1389:1410  TokenBalanceof[_from] */\n      0x00\n        /* \"contracts/worldBank.sol\":1404:1409  _from */\n      dup7\n        /* \"contracts/worldBank.sol\":1389:1410  TokenBalanceof[_from] */\n      0xffffffffffffffffffffffffffffffffffffffff\n      and\n      0xffffffffffffffffffffffffffffffffffffffff\n      and\n      dup2\n      mstore\n      0x20\n      add\n      swap1\n      dup2\n      mstore\n      0x20\n      add\n      0x00\n      keccak256\n      0x00\n        /* \"contracts/worldBank.sol\":1389:1418  TokenBalanceof[_from]-=_value */\n      dup3\n      dup3\n      sload\n      tag_115\n      swap2\n      swap1\n      tag_116\n      jump\t// in\n    tag_115:\n      swap3\n      pop\n      pop\n      dup2\n      swap1\n      sstore\n      pop\n        /* \"contracts/worldBank.sol\":1459:1465  _value */\n      dup2\n        /* \"contracts/worldBank.sol\":1428:1437  allowence */\n      0x07\n        /* \"contracts/worldBank.sol\":1428:1444  allowence[_from] */\n      0x00\n        /* \"contracts/worldBank.sol\":1438:1443  _from */\n      dup7\n        /* \"contracts/worldBank.sol\":1428:1444  allowence[_from] */\n      0xffffffffffffffffffffffffffffffffffffffff\n      and\n      0xffffffffffffffffffffffffffffffffffffffff\n      and\n      dup2\n      mstore\n      0x20\n      add\n      swap1\n      dup2\n      mstore\n      0x20\n      add\n      0x00\n      keccak256\n        /* \"contracts/worldBank.sol\":1428:1456  allowence[_from][msg.sender] */\n      0x00\n        /* \"contracts/worldBank.sol\":1445:1455  msg.sender */\n      caller\n        /* \"contracts/worldBank.sol\":1428:1456  allowence[_from][msg.sender] */\n      0xffffffffffffffffffffffffffffffffffffffff\n      and\n      0xffffffffffffffffffffffffffffffffffffffff\n      and\n      dup2\n      mstore\n      0x20\n      add\n      swap1\n      dup2\n      mstore\n      0x20\n      add\n      0x00\n      keccak256\n      0x00\n        /* \"contracts/worldBank.sol\":1428:1465  allowence[_from][msg.sender] -=_value */\n      dup3\n      dup3\n      sload\n      tag_117\n      swap2\n      swap1\n      tag_116\n      jump\t// in\n    tag_117:\n      swap3\n      pop\n      pop\n      dup2\n      swap1\n      sstore\n      pop\n        /* \"contracts/worldBank.sol\":1482:1486  true */\n      0x01\n        /* \"contracts/worldBank.sol\":1475:1486  return true */\n      swap1\n      pop\n        /* \"contracts/worldBank.sol\":1095:1493  function transferFrom(address _from, address _to, uint256 _value) public returns (bool success){... */\n      swap4\n      swap3\n      pop\n      pop\n      pop\n      jump\t// out\n        /* \"contracts/worldBank.sol\":1995:2269  function withdrawToken(uint256 _token) public { ... */\n    tag_48:\n        /* \"contracts/worldBank.sol\":2092:2098  _token */\n      dup1\n        /* \"contracts/worldBank.sol\":2060:2077  BalanceInContract */\n      0x05\n        /* \"contracts/worldBank.sol\":2060:2089  BalanceInContract[msg.sender] */\n      0x00\n        /* \"contracts/worldBank.sol\":2078:2088  msg.sender */\n      caller\n        /* \"contracts/worldBank.sol\":2060:2089  BalanceInContract[msg.sender] */\n      0xffffffffffffffffffffffffffffffffffffffff\n      and\n      0xffffffffffffffffffffffffffffffffffffffff\n      and\n      dup2\n      mstore\n      0x20\n      add\n      swap1\n      dup2\n      mstore\n      0x20\n      add\n      0x00\n      keccak256\n      sload\n        /* \"contracts/worldBank.sol\":2060:2098  BalanceInContract[msg.sender] > _token */\n      gt\n        /* \"contracts/worldBank.sol\":2052:2120  require(BalanceInContract[msg.sender] > _token ,\"insufficent Funds\") */\n      tag_119\n      jumpi\n      mload(0x40)\n      0x08c379a000000000000000000000000000000000000000000000000000000000\n      dup2\n      mstore\n      0x04\n      add\n      tag_120\n      swap1\n      tag_121\n      jump\t// in\n    tag_120:\n      mload(0x40)\n      dup1\n      swap2\n      sub\n      swap1\n      revert\n    tag_119:\n        /* \"contracts/worldBank.sol\":2165:2171  _token */\n      dup1\n        /* \"contracts/worldBank.sol\":2130:2148  TotalContractToken */\n      0x06\n        /* \"contracts/worldBank.sol\":2130:2163  TotalContractToken[address(this)] */\n      0x00\n        /* \"contracts/worldBank.sol\":2157:2161  this */\n      address\n        /* \"contracts/worldBank.sol\":2130:2163  TotalContractToken[address(this)] */\n      0xffffffffffffffffffffffffffffffffffffffff\n      and\n      0xffffffffffffffffffffffffffffffffffffffff\n      and\n      dup2\n      mstore\n      0x20\n      add\n      swap1\n      dup2\n      mstore\n      0x20\n      add\n      0x00\n      keccak256\n      0x00\n        /* \"contracts/worldBank.sol\":2130:2171  TotalContractToken[address(this)]-=_token */\n      dup3\n      dup3\n      sload\n      tag_122\n      swap2\n      swap1\n      tag_116\n      jump\t// in\n    tag_122:\n      swap3\n      pop\n      pop\n      dup2\n      swap1\n      sstore\n      pop\n        /* \"contracts/worldBank.sol\":2212:2218  _token */\n      dup1\n        /* \"contracts/worldBank.sol\":2181:2198  BalanceInContract */\n      0x05\n        /* \"contracts/worldBank.sol\":2181:2210  BalanceInContract[msg.sender] */\n      0x00\n        /* \"contracts/worldBank.sol\":2199:2209  msg.sender */\n      caller\n        /* \"contracts/worldBank.sol\":2181:2210  BalanceInContract[msg.sender] */\n      0xffffffffffffffffffffffffffffffffffffffff\n      and\n      0xffffffffffffffffffffffffffffffffffffffff\n      and\n      dup2\n      mstore\n      0x20\n      add\n      swap1\n      dup2\n      mstore\n      0x20\n      add\n      0x00\n      keccak256\n      0x00\n        /* \"contracts/worldBank.sol\":2181:2218  BalanceInContract[msg.sender]-=_token */\n      dup3\n      dup3\n      sload\n      tag_123\n      swap2\n      swap1\n      tag_116\n      jump\t// in\n    tag_123:\n      swap3\n      pop\n      pop\n      dup2\n      swap1\n      sstore\n      pop\n        /* \"contracts/worldBank.sol\":2256:2262  _token */\n      dup1\n        /* \"contracts/worldBank.sol\":2228:2242  TokenBalanceof */\n      0x04\n        /* \"contracts/worldBank.sol\":2228:2254  TokenBalanceof[msg.sender] */\n      0x00\n        /* \"contracts/worldBank.sol\":2243:2253  msg.sender */\n      caller\n        /* \"contracts/worldBank.sol\":2228:2254  TokenBalanceof[msg.sender] */\n      0xffffffffffffffffffffffffffffffffffffffff\n      and\n      0xffffffffffffffffffffffffffffffffffffffff\n      and\n      dup2\n      mstore\n      0x20\n      add\n      swap1\n      dup2\n      mstore\n      0x20\n      add\n      0x00\n      keccak256\n      0x00\n        /* \"contracts/worldBank.sol\":2228:2262  TokenBalanceof[msg.sender]+=_token */\n      dup3\n      dup3\n      sload\n      tag_124\n      swap2\n      swap1\n      tag_114\n      jump\t// in\n    tag_124:\n      swap3\n      pop\n      pop\n      dup2\n      swap1\n      sstore\n      pop\n        /* \"contracts/worldBank.sol\":1995:2269  function withdrawToken(uint256 _token) public { ... */\n      pop\n      jump\t// out\n        /* \"contracts/worldBank.sol\":1718:1989  function depositToken(uint256 _token) public {... */\n    tag_52:\n        /* \"contracts/worldBank.sol\":1810:1816  _token */\n      dup1\n        /* \"contracts/worldBank.sol\":1781:1795  TokenBalanceof */\n      0x04\n        /* \"contracts/worldBank.sol\":1781:1807  TokenBalanceof[msg.sender] */\n      0x00\n        /* \"contracts/worldBank.sol\":1796:1806  msg.sender */\n      caller\n        /* \"contracts/worldBank.sol\":1781:1807  TokenBalanceof[msg.sender] */\n      0xffffffffffffffffffffffffffffffffffffffff\n      and\n      0xffffffffffffffffffffffffffffffffffffffff\n      and\n      dup2\n      mstore\n      0x20\n      add\n      swap1\n      dup2\n      mstore\n      0x20\n      add\n      0x00\n      keccak256\n      sload\n        /* \"contracts/worldBank.sol\":1781:1816  TokenBalanceof[msg.sender] > _token */\n      gt\n        /* \"contracts/worldBank.sol\":1773:1839  require(TokenBalanceof[msg.sender] > _token,\"not sufficent token\") */\n      tag_126\n      jumpi\n      mload(0x40)\n      0x08c379a000000000000000000000000000000000000000000000000000000000\n      dup2\n      mstore\n      0x04\n      add\n      tag_127\n      swap1\n      tag_128\n      jump\t// in\n    tag_127:\n      mload(0x40)\n      dup1\n      swap2\n      sub\n      swap1\n      revert\n    tag_126:\n        /* \"contracts/worldBank.sol\":1877:1883  _token */\n      dup1\n        /* \"contracts/worldBank.sol\":1849:1863  TokenBalanceof */\n      0x04\n        /* \"contracts/worldBank.sol\":1849:1875  TokenBalanceof[msg.sender] */\n      0x00\n        /* \"contracts/worldBank.sol\":1864:1874  msg.sender */\n      caller\n        /* \"contracts/worldBank.sol\":1849:1875  TokenBalanceof[msg.sender] */\n      0xffffffffffffffffffffffffffffffffffffffff\n      and\n      0xffffffffffffffffffffffffffffffffffffffff\n      and\n      dup2\n      mstore\n      0x20\n      add\n      swap1\n      dup2\n      mstore\n      0x20\n      add\n      0x00\n      keccak256\n      0x00\n        /* \"contracts/worldBank.sol\":1849:1883  TokenBalanceof[msg.sender]-=_token */\n      dup3\n      dup3\n      sload\n      tag_129\n      swap2\n      swap1\n      tag_116\n      jump\t// in\n    tag_129:\n      swap3\n      pop\n      pop\n      dup2\n      swap1\n      sstore\n      pop\n        /* \"contracts/worldBank.sol\":1929:1935  _token */\n      dup1\n        /* \"contracts/worldBank.sol\":1893:1911  TotalContractToken */\n      0x06\n        /* \"contracts/worldBank.sol\":1893:1926  TotalContractToken[address(this)] */\n      0x00\n        /* \"contracts/worldBank.sol\":1920:1924  this */\n      address\n        /* \"contracts/worldBank.sol\":1893:1926  TotalContractToken[address(this)] */\n      0xffffffffffffffffffffffffffffffffffffffff\n      and\n      0xffffffffffffffffffffffffffffffffffffffff\n      and\n      dup2\n      mstore\n      0x20\n      add\n      swap1\n      dup2\n      mstore\n      0x20\n      add\n      0x00\n      keccak256\n      0x00\n        /* \"contracts/worldBank.sol\":1893:1935  TotalContractToken[address(this)] +=_token */\n      dup3\n      dup3\n      sload\n      tag_130\n      swap2\n      swap1\n      tag_114\n      jump\t// in\n    tag_130:\n      swap3\n      pop\n      pop\n      dup2\n      swap1\n      sstore\n      pop\n        /* \"contracts/worldBank.sol\":1976:1982  _token */\n      dup1\n        /* \"contracts/worldBank.sol\":1945:1962  BalanceInContract */\n      0x05\n        /* \"contracts/worldBank.sol\":1945:1974  BalanceInContract[msg.sender] */\n      0x00\n        /* \"contracts/worldBank.sol\":1963:1973  msg.sender */\n      caller\n        /* \"contracts/worldBank.sol\":1945:1974  BalanceInContract[msg.sender] */\n      0xffffffffffffffffffffffffffffffffffffffff\n      and\n      0xffffffffffffffffffffffffffffffffffffffff\n      and\n      dup2\n      mstore\n      0x20\n      add\n      swap1\n      dup2\n      mstore\n      0x20\n      add\n      0x00\n      keccak256\n      0x00\n        /* \"contracts/worldBank.sol\":1945:1982  BalanceInContract[msg.sender]+=_token */\n      dup3\n      dup3\n      sload\n      tag_131\n      swap2\n      swap1\n      tag_114\n      jump\t// in\n    tag_131:\n      swap3\n      pop\n      pop\n      dup2\n      swap1\n      sstore\n      pop\n        /* \"contracts/worldBank.sol\":1718:1989  function depositToken(uint256 _token) public {... */\n      pop\n      jump\t// out\n        /* \"contracts/worldBank.sol\":2715:2816  function checkETHBalance(address user) public view returns(uint){... */\n    tag_57:\n        /* \"contracts/worldBank.sol\":2774:2778  uint */\n      0x00\n        /* \"contracts/worldBank.sol\":2796:2803  balance */\n      0x08\n        /* \"contracts/worldBank.sol\":2796:2809  balance[user] */\n      0x00\n        /* \"contracts/worldBank.sol\":2804:2808  user */\n      dup4\n        /* \"contracts/worldBank.sol\":2796:2809  balance[user] */\n      0xffffffffffffffffffffffffffffffffffffffff\n      and\n      0xffffffffffffffffffffffffffffffffffffffff\n      and\n      dup2\n      mstore\n      0x20\n      add\n      swap1\n      dup2\n      mstore\n      0x20\n      add\n      0x00\n      keccak256\n      sload\n        /* \"contracts/worldBank.sol\":2789:2809  return balance[user] */\n      swap1\n      pop\n        /* \"contracts/worldBank.sol\":2715:2816  function checkETHBalance(address user) public view returns(uint){... */\n      swap2\n      swap1\n      pop\n      jump\t// out\n        /* \"contracts/worldBank.sol\":150:173  uint public decimal =10 */\n    tag_61:\n      sload(0x02)\n      dup2\n      jump\t// out\n        /* \"contracts/worldBank.sol\":241:290  mapping(address => uint256) public TokenBalanceof */\n    tag_66:\n      mstore(0x20, 0x04)\n      dup1\n      0x00\n      mstore\n      keccak256(0x00, 0x40)\n      0x00\n      swap2\n      pop\n      swap1\n      pop\n      sload\n      dup2\n      jump\t// out\n        /* \"contracts/worldBank.sol\":117:144  string public symbol = \"vk\" */\n    tag_70:\n      0x01\n      dup1\n      sload\n      tag_133\n      swap1\n      tag_99\n      jump\t// in\n    tag_133:\n      dup1\n      0x1f\n      add\n      0x20\n      dup1\n      swap2\n      div\n      mul\n      0x20\n      add\n      mload(0x40)\n      swap1\n      dup2\n      add\n      0x40\n      mstore\n      dup1\n      swap3\n      swap2\n      swap1\n      dup2\n      dup2\n      mstore\n      0x20\n      add\n      dup3\n      dup1\n      sload\n      tag_134\n      swap1\n      tag_99\n      jump\t// in\n    tag_134:\n      dup1\n      iszero\n      tag_135\n      jumpi\n      dup1\n      0x1f\n      lt\n      tag_136\n      jumpi\n      0x0100\n      dup1\n      dup4\n      sload\n      div\n      mul\n      dup4\n      mstore\n      swap2\n      0x20\n      add\n      swap2\n      jump(tag_135)\n    tag_136:\n      dup3\n      add\n      swap2\n      swap1\n      0x00\n      mstore\n      keccak256(0x00, 0x20)\n      swap1\n    tag_137:\n      dup2\n      sload\n      dup2\n      mstore\n      swap1\n      0x01\n      add\n      swap1\n      0x20\n      add\n      dup1\n      dup4\n      gt\n      tag_137\n      jumpi\n      dup3\n      swap1\n      sub\n      0x1f\n      and\n      dup3\n      add\n      swap2\n    tag_135:\n      pop\n      pop\n      pop\n      pop\n      pop\n      dup2\n      jump\t// out\n        /* \"contracts/worldBank.sol\":409:473  mapping(address => mapping(address => uint256)) public allowence */\n    tag_76:\n      mstore(0x20, 0x07)\n      dup2\n      0x00\n      mstore\n      mstore(0x20, keccak256(0x00, 0x40))\n      dup1\n      0x00\n      mstore\n      keccak256(0x00, 0x40)\n      0x00\n      swap2\n      pop\n      swap2\n      pop\n      pop\n      sload\n      dup2\n      jump\t// out\n        /* \"contracts/worldBank.sol\":782:1089  function transfer(address _to, uint256 _value) public returns (bool success){... */\n    tag_81:\n        /* \"contracts/worldBank.sol\":845:857  bool success */\n      0x00\n        /* \"contracts/worldBank.sol\":886:900  TokenBalanceof */\n      0x04\n        /* \"contracts/worldBank.sol\":886:912  TokenBalanceof[msg.sender] */\n      0x00\n        /* \"contracts/worldBank.sol\":901:911  msg.sender */\n      caller\n        /* \"contracts/worldBank.sol\":886:912  TokenBalanceof[msg.sender] */\n      0xffffffffffffffffffffffffffffffffffffffff\n      and\n      0xffffffffffffffffffffffffffffffffffffffff\n      and\n      dup2\n      mstore\n      0x20\n      add\n      swap1\n      dup2\n      mstore\n      0x20\n      add\n      0x00\n      keccak256\n      sload\n        /* \"contracts/worldBank.sol\":876:882  _value */\n      dup3\n        /* \"contracts/worldBank.sol\":876:912  _value <= TokenBalanceof[msg.sender] */\n      gt\n      iszero\n        /* \"contracts/worldBank.sol\":868:933  require(_value <= TokenBalanceof[msg.sender], \"not enough token\") */\n      tag_139\n      jumpi\n      mload(0x40)\n      0x08c379a000000000000000000000000000000000000000000000000000000000\n      dup2\n      mstore\n      0x04\n      add\n      tag_140\n      swap1\n      tag_141\n      jump\t// in\n    tag_140:\n      mload(0x40)\n      dup1\n      swap2\n      sub\n      swap1\n      revert\n    tag_139:\n        /* \"contracts/worldBank.sol\":971:977  _value */\n      dup2\n        /* \"contracts/worldBank.sol\":943:957  TokenBalanceof */\n      0x04\n        /* \"contracts/worldBank.sol\":943:969  TokenBalanceof[msg.sender] */\n      0x00\n        /* \"contracts/worldBank.sol\":958:968  msg.sender */\n      caller\n        /* \"contracts/worldBank.sol\":943:969  TokenBalanceof[msg.sender] */\n      0xffffffffffffffffffffffffffffffffffffffff\n      and\n      0xffffffffffffffffffffffffffffffffffffffff\n      and\n      dup2\n      mstore\n      0x20\n      add\n      swap1\n      dup2\n      mstore\n      0x20\n      add\n      0x00\n      keccak256\n      0x00\n        /* \"contracts/worldBank.sol\":943:977  TokenBalanceof[msg.sender]-=_value */\n      dup3\n      dup3\n      sload\n      tag_142\n      swap2\n      swap1\n      tag_116\n      jump\t// in\n    tag_142:\n      swap3\n      pop\n      pop\n      dup2\n      swap1\n      sstore\n      pop\n        /* \"contracts/worldBank.sol\":1008:1014  _value */\n      dup2\n        /* \"contracts/worldBank.sol\":987:1001  TokenBalanceof */\n      0x04\n        /* \"contracts/worldBank.sol\":987:1006  TokenBalanceof[_to] */\n      0x00\n        /* \"contracts/worldBank.sol\":1002:1005  _to */\n      dup6\n        /* \"contracts/worldBank.sol\":987:1006  TokenBalanceof[_to] */\n      0xffffffffffffffffffffffffffffffffffffffff\n      and\n      0xffffffffffffffffffffffffffffffffffffffff\n      and\n      dup2\n      mstore\n      0x20\n      add\n      swap1\n      dup2\n      mstore\n      0x20\n      add\n      0x00\n      keccak256\n      0x00\n        /* \"contracts/worldBank.sol\":987:1014  TokenBalanceof[_to]+=_value */\n      dup3\n      dup3\n      sload\n      tag_143\n      swap2\n      swap1\n      tag_114\n      jump\t// in\n    tag_143:\n      swap3\n      pop\n      pop\n      dup2\n      swap1\n      sstore\n      pop\n        /* \"contracts/worldBank.sol\":1050:1053  _to */\n      dup3\n        /* \"contracts/worldBank.sol\":1029:1061  Transfer(msg.sender, _to,_value) */\n      0xffffffffffffffffffffffffffffffffffffffff\n      and\n        /* \"contracts/worldBank.sol\":1038:1048  msg.sender */\n      caller\n        /* \"contracts/worldBank.sol\":1029:1061  Transfer(msg.sender, _to,_value) */\n      0xffffffffffffffffffffffffffffffffffffffff\n      and\n      0xddf252ad1be2c89b69c2b068fc378daa952ba7f163c4a11628f55a4df523b3ef\n        /* \"contracts/worldBank.sol\":1054:1060  _value */\n      dup5\n        /* \"contracts/worldBank.sol\":1029:1061  Transfer(msg.sender, _to,_value) */\n      mload(0x40)\n      tag_144\n      swap2\n      swap1\n      tag_37\n      jump\t// in\n    tag_144:\n      mload(0x40)\n      dup1\n      swap2\n      sub\n      swap1\n      log3\n        /* \"contracts/worldBank.sol\":1078:1082  true */\n      0x01\n        /* \"contracts/worldBank.sol\":1071:1082  return true */\n      swap1\n      pop\n        /* \"contracts/worldBank.sol\":782:1089  function transfer(address _to, uint256 _value) public returns (bool success){... */\n      swap3\n      swap2\n      pop\n      pop\n      jump\t// out\n        /* \"contracts/worldBank.sol\":2279:2389  function CheckTokenBal() public view returns(uint256){... */\n    tag_85:\n        /* \"contracts/worldBank.sol\":2324:2331  uint256 */\n      0x00\n        /* \"contracts/worldBank.sol\":2349:2367  TotalContractToken */\n      0x06\n        /* \"contracts/worldBank.sol\":2349:2382  TotalContractToken[address(this)] */\n      0x00\n        /* \"contracts/worldBank.sol\":2376:2380  this */\n      address\n        /* \"contracts/worldBank.sol\":2349:2382  TotalContractToken[address(this)] */\n      0xffffffffffffffffffffffffffffffffffffffff\n      and\n      0xffffffffffffffffffffffffffffffffffffffff\n      and\n      dup2\n      mstore\n      0x20\n      add\n      swap1\n      dup2\n      mstore\n      0x20\n      add\n      0x00\n      keccak256\n      sload\n        /* \"contracts/worldBank.sol\":2342:2382  return TotalContractToken[address(this)] */\n      swap1\n      pop\n        /* \"contracts/worldBank.sol\":2279:2389  function CheckTokenBal() public view returns(uint256){... */\n      swap1\n      jump\t// out\n        /* \"contracts/worldBank.sol\":296:347  mapping(address=> uint256) public BalanceInContract */\n    tag_90:\n      mstore(0x20, 0x05)\n      dup1\n      0x00\n      mstore\n      keccak256(0x00, 0x40)\n      0x00\n      swap2\n      pop\n      swap1\n      pop\n      sload\n      dup2\n      jump\t// out\n        /* \"contracts/worldBank.sol\":2413:2496  function deposit() public payable  {... */\n    tag_93:\n        /* \"contracts/worldBank.sol\":2480:2489  msg.value */\n      callvalue\n        /* \"contracts/worldBank.sol\":2458:2465  balance */\n      0x08\n        /* \"contracts/worldBank.sol\":2458:2477  balance[msg.sender] */\n      0x00\n        /* \"contracts/worldBank.sol\":2466:2476  msg.sender */\n      caller\n        /* \"contracts/worldBank.sol\":2458:2477  balance[msg.sender] */\n      0xffffffffffffffffffffffffffffffffffffffff\n      and\n      0xffffffffffffffffffffffffffffffffffffffff\n      and\n      dup2\n      mstore\n      0x20\n      add\n      swap1\n      dup2\n      mstore\n      0x20\n      add\n      0x00\n      keccak256\n      0x00\n        /* \"contracts/worldBank.sol\":2458:2489  balance[msg.sender] +=msg.value */\n      dup3\n      dup3\n      sload\n      tag_147\n      swap2\n      swap1\n      tag_114\n      jump\t// in\n    tag_147:\n      swap3\n      pop\n      pop\n      dup2\n      swap1\n      sstore\n      pop\n        /* \"contracts/worldBank.sol\":2413:2496  function deposit() public payable  {... */\n      jump\t// out\n        /* \"contracts/worldBank.sol\":2506:2709  function withdrawETH(uint _amount) public{... */\n    tag_97:\n        /* \"contracts/worldBank.sol\":2588:2595  _amount */\n      dup1\n        /* \"contracts/worldBank.sol\":2566:2573  balance */\n      0x08\n        /* \"contracts/worldBank.sol\":2566:2585  balance[msg.sender] */\n      0x00\n        /* \"contracts/worldBank.sol\":2574:2584  msg.sender */\n      caller\n        /* \"contracts/worldBank.sol\":2566:2585  balance[msg.sender] */\n      0xffffffffffffffffffffffffffffffffffffffff\n      and\n      0xffffffffffffffffffffffffffffffffffffffff\n      and\n      dup2\n      mstore\n      0x20\n      add\n      swap1\n      dup2\n      mstore\n      0x20\n      add\n      0x00\n      keccak256\n      sload\n        /* \"contracts/worldBank.sol\":2566:2595  balance[msg.sender]>= _amount */\n      lt\n      iszero\n        /* \"contracts/worldBank.sol\":2557:2617  require (balance[msg.sender]>= _amount, \"Insufficent Funds\") */\n      tag_149\n      jumpi\n      mload(0x40)\n      0x08c379a000000000000000000000000000000000000000000000000000000000\n      dup2\n      mstore\n      0x04\n      add\n      tag_150\n      swap1\n      tag_151\n      jump\t// in\n    tag_150:\n      mload(0x40)\n      dup1\n      swap2\n      sub\n      swap1\n      revert\n    tag_149:\n        /* \"contracts/worldBank.sol\":2648:2655  _amount */\n      dup1\n        /* \"contracts/worldBank.sol\":2627:2634  balance */\n      0x08\n        /* \"contracts/worldBank.sol\":2627:2646  balance[msg.sender] */\n      0x00\n        /* \"contracts/worldBank.sol\":2635:2645  msg.sender */\n      caller\n        /* \"contracts/worldBank.sol\":2627:2646  balance[msg.sender] */\n      0xffffffffffffffffffffffffffffffffffffffff\n      and\n      0xffffffffffffffffffffffffffffffffffffffff\n      and\n      dup2\n      mstore\n      0x20\n      add\n      swap1\n      dup2\n      mstore\n      0x20\n      add\n      0x00\n      keccak256\n      0x00\n        /* \"contracts/worldBank.sol\":2627:2655  balance[msg.sender]-=_amount */\n      dup3\n      dup3\n      sload\n      tag_152\n      swap2\n      swap1\n      tag_116\n      jump\t// in\n    tag_152:\n      swap3\n      pop\n      pop\n      dup2\n      swap1\n      sstore\n      pop\n        /* \"contracts/worldBank.sol\":2673:2683  msg.sender */\n      caller\n        /* \"contracts/worldBank.sol\":2665:2693  payable(msg.sender).transfer */\n      0xffffffffffffffffffffffffffffffffffffffff\n      and\n        /* \"contracts/worldBank.sol\":2665:2702  payable(msg.sender).transfer(_amount) */\n      0x08fc\n        /* \"contracts/worldBank.sol\":2694:2701  _amount */\n      dup3\n        /* \"contracts/worldBank.sol\":2665:2702  payable(msg.sender).transfer(_amount) */\n      swap1\n      dup2\n      iszero\n      mul\n      swap1\n      mload(0x40)\n      0x00\n      mload(0x40)\n      dup1\n      dup4\n      sub\n      dup2\n      dup6\n      dup9\n      dup9\n      call\n      swap4\n      pop\n      pop\n      pop\n      pop\n      iszero\n      dup1\n      iszero\n      tag_154\n      jumpi\n      returndatasize\n      0x00\n      dup1\n      returndatacopy\n      revert(0x00, returndatasize)\n    tag_154:\n      pop\n        /* \"contracts/worldBank.sol\":2506:2709  function withdrawETH(uint _amount) public{... */\n      pop\n      jump\t// out\n        /* \"#utility.yul\":7:106   */\n    tag_155:\n        /* \"#utility.yul\":59:65   */\n      0x00\n        /* \"#utility.yul\":93:98   */\n      dup2\n        /* \"#utility.yul\":87:99   */\n      mload\n        /* \"#utility.yul\":77:99   */\n      swap1\n      pop\n        /* \"#utility.yul\":7:106   */\n      swap2\n      swap1\n      pop\n      jump\t// out\n        /* \"#utility.yul\":112:281   */\n    tag_156:\n        /* \"#utility.yul\":196:207   */\n      0x00\n        /* \"#utility.yul\":230:236   */\n      dup3\n        /* \"#utility.yul\":225:228   */\n      dup3\n        /* \"#utility.yul\":218:237   */\n      mstore\n        /* \"#utility.yul\":270:274   */\n      0x20\n        /* \"#utility.yul\":265:268   */\n      dup3\n        /* \"#utility.yul\":261:275   */\n      add\n        /* \"#utility.yul\":246:275   */\n      swap1\n      pop\n        /* \"#utility.yul\":112:281   */\n      swap3\n      swap2\n      pop\n      pop\n      jump\t// out\n        /* \"#utility.yul\":287:533   */\n    tag_157:\n        /* \"#utility.yul\":368:369   */\n      0x00\n        /* \"#utility.yul\":378:491   */\n    tag_191:\n        /* \"#utility.yul\":392:398   */\n      dup4\n        /* \"#utility.yul\":389:390   */\n      dup2\n        /* \"#utility.yul\":386:399   */\n      lt\n        /* \"#utility.yul\":378:491   */\n      iszero\n      tag_193\n      jumpi\n        /* \"#utility.yul\":477:478   */\n      dup1\n        /* \"#utility.yul\":472:475   */\n      dup3\n        /* \"#utility.yul\":468:479   */\n      add\n        /* \"#utility.yul\":462:480   */\n      mload\n        /* \"#utility.yul\":458:459   */\n      dup2\n        /* \"#utility.yul\":453:456   */\n      dup5\n        /* \"#utility.yul\":449:460   */\n      add\n        /* \"#utility.yul\":442:481   */\n      mstore\n        /* \"#utility.yul\":414:416   */\n      0x20\n        /* \"#utility.yul\":411:412   */\n      dup2\n        /* \"#utility.yul\":407:417   */\n      add\n        /* \"#utility.yul\":402:417   */\n      swap1\n      pop\n        /* \"#utility.yul\":378:491   */\n      jump(tag_191)\n    tag_193:\n        /* \"#utility.yul\":525:526   */\n      0x00\n        /* \"#utility.yul\":516:522   */\n      dup5\n        /* \"#utility.yul\":511:514   */\n      dup5\n        /* \"#utility.yul\":507:523   */\n      add\n        /* \"#utility.yul\":500:527   */\n      mstore\n        /* \"#utility.yul\":349:533   */\n      pop\n        /* \"#utility.yul\":287:533   */\n      pop\n      pop\n      pop\n      jump\t// out\n        /* \"#utility.yul\":539:641   */\n    tag_158:\n        /* \"#utility.yul\":580:586   */\n      0x00\n        /* \"#utility.yul\":631:633   */\n      0x1f\n        /* \"#utility.yul\":627:634   */\n      not\n        /* \"#utility.yul\":622:624   */\n      0x1f\n        /* \"#utility.yul\":615:620   */\n      dup4\n        /* \"#utility.yul\":611:625   */\n      add\n        /* \"#utility.yul\":607:635   */\n      and\n        /* \"#utility.yul\":597:635   */\n      swap1\n      pop\n        /* \"#utility.yul\":539:641   */\n      swap2\n      swap1\n      pop\n      jump\t// out\n        /* \"#utility.yul\":647:1024   */\n    tag_159:\n        /* \"#utility.yul\":735:738   */\n      0x00\n        /* \"#utility.yul\":763:802   */\n      tag_196\n        /* \"#utility.yul\":796:801   */\n      dup3\n        /* \"#utility.yul\":763:802   */\n      tag_155\n      jump\t// in\n    tag_196:\n        /* \"#utility.yul\":818:889   */\n      tag_197\n        /* \"#utility.yul\":882:888   */\n      dup2\n        /* \"#utility.yul\":877:880   */\n      dup6\n        /* \"#utility.yul\":818:889   */\n      tag_156\n      jump\t// in\n    tag_197:\n        /* \"#utility.yul\":811:889   */\n      swap4\n      pop\n        /* \"#utility.yul\":898:963   */\n      tag_198\n        /* \"#utility.yul\":956:962   */\n      dup2\n        /* \"#utility.yul\":951:954   */\n      dup6\n        /* \"#utility.yul\":944:948   */\n      0x20\n        /* \"#utility.yul\":937:942   */\n      dup7\n        /* \"#utility.yul\":933:949   */\n      add\n        /* \"#utility.yul\":898:963   */\n      tag_157\n      jump\t// in\n    tag_198:\n        /* \"#utility.yul\":988:1017   */\n      tag_199\n        /* \"#utility.yul\":1010:1016   */\n      dup2\n        /* \"#utility.yul\":988:1017   */\n      tag_158\n      jump\t// in\n    tag_199:\n        /* \"#utility.yul\":983:986   */\n      dup5\n        /* \"#utility.yul\":979:1018   */\n      add\n        /* \"#utility.yul\":972:1018   */\n      swap2\n      pop\n        /* \"#utility.yul\":739:1024   */\n      pop\n        /* \"#utility.yul\":647:1024   */\n      swap3\n      swap2\n      pop\n      pop\n      jump\t// out\n        /* \"#utility.yul\":1030:1343   */\n    tag_25:\n        /* \"#utility.yul\":1143:1147   */\n      0x00\n        /* \"#utility.yul\":1181:1183   */\n      0x20\n        /* \"#utility.yul\":1170:1179   */\n      dup3\n        /* \"#utility.yul\":1166:1184   */\n      add\n        /* \"#utility.yul\":1158:1184   */\n      swap1\n      pop\n        /* \"#utility.yul\":1230:1239   */\n      dup2\n        /* \"#utility.yul\":1224:1228   */\n      dup2\n        /* \"#utility.yul\":1220:1240   */\n      sub\n        /* \"#utility.yul\":1216:1217   */\n      0x00\n        /* \"#utility.yul\":1205:1214   */\n      dup4\n        /* \"#utility.yul\":1201:1218   */\n      add\n        /* \"#utility.yul\":1194:1241   */\n      mstore\n        /* \"#utility.yul\":1258:1336   */\n      tag_201\n        /* \"#utility.yul\":1331:1335   */\n      dup2\n        /* \"#utility.yul\":1322:1328   */\n      dup5\n        /* \"#utility.yul\":1258:1336   */\n      tag_159\n      jump\t// in\n    tag_201:\n        /* \"#utility.yul\":1250:1336   */\n      swap1\n      pop\n        /* \"#utility.yul\":1030:1343   */\n      swap3\n      swap2\n      pop\n      pop\n      jump\t// out\n        /* \"#utility.yul\":1430:1547   */\n    tag_161:\n        /* \"#utility.yul\":1539:1540   */\n      0x00\n        /* \"#utility.yul\":1536:1537   */\n      dup1\n        /* \"#utility.yul\":1529:1541   */\n      revert\n        /* \"#utility.yul\":1676:1802   */\n    tag_163:\n        /* \"#utility.yul\":1713:1720   */\n      0x00\n        /* \"#utility.yul\":1753:1795   */\n      0xffffffffffffffffffffffffffffffffffffffff\n        /* \"#utility.yul\":1746:1751   */\n      dup3\n        /* \"#utility.yul\":1742:1796   */\n      and\n        /* \"#utility.yul\":1731:1796   */\n      swap1\n      pop\n        /* \"#utility.yul\":1676:1802   */\n      swap2\n      swap1\n      pop\n      jump\t// out\n        /* \"#utility.yul\":1808:1904   */\n    tag_164:\n        /* \"#utility.yul\":1845:1852   */\n      0x00\n        /* \"#utility.yul\":1874:1898   */\n      tag_207\n        /* \"#utility.yul\":1892:1897   */\n      dup3\n        /* \"#utility.yul\":1874:1898   */\n      tag_163\n      jump\t// in\n    tag_207:\n        /* \"#utility.yul\":1863:1898   */\n      swap1\n      pop\n        /* \"#utility.yul\":1808:1904   */\n      swap2\n      swap1\n      pop\n      jump\t// out\n        /* \"#utility.yul\":1910:2032   */\n    tag_165:\n        /* \"#utility.yul\":1983:2007   */\n      tag_209\n        /* \"#utility.yul\":2001:2006   */\n      dup2\n        /* \"#utility.yul\":1983:2007   */\n      tag_164\n      jump\t// in\n    tag_209:\n        /* \"#utility.yul\":1976:1981   */\n      dup2\n        /* \"#utility.yul\":1973:2008   */\n      eq\n        /* \"#utility.yul\":1963:2026   */\n      tag_210\n      jumpi\n        /* \"#utility.yul\":2022:2023   */\n      0x00\n        /* \"#utility.yul\":2019:2020   */\n      dup1\n        /* \"#utility.yul\":2012:2024   */\n      revert\n        /* \"#utility.yul\":1963:2026   */\n    tag_210:\n        /* \"#utility.yul\":1910:2032   */\n      pop\n      jump\t// out\n        /* \"#utility.yul\":2038:2177   */\n    tag_166:\n        /* \"#utility.yul\":2084:2089   */\n      0x00\n        /* \"#utility.yul\":2122:2128   */\n      dup2\n        /* \"#utility.yul\":2109:2129   */\n      calldataload\n        /* \"#utility.yul\":2100:2129   */\n      swap1\n      pop\n        /* \"#utility.yul\":2138:2171   */\n      tag_212\n        /* \"#utility.yul\":2165:2170   */\n      dup2\n        /* \"#utility.yul\":2138:2171   */\n      tag_165\n      jump\t// in\n    tag_212:\n        /* \"#utility.yul\":2038:2177   */\n      swap3\n      swap2\n      pop\n      pop\n      jump\t// out\n        /* \"#utility.yul\":2183:2260   */\n    tag_167:\n        /* \"#utility.yul\":2220:2227   */\n      0x00\n        /* \"#utility.yul\":2249:2254   */\n      dup2\n        /* \"#utility.yul\":2238:2254   */\n      swap1\n      pop\n        /* \"#utility.yul\":2183:2260   */\n      swap2\n      swap1\n      pop\n      jump\t// out\n        /* \"#utility.yul\":2266:2388   */\n    tag_168:\n        /* \"#utility.yul\":2339:2363   */\n      tag_215\n        /* \"#utility.yul\":2357:2362   */\n      dup2\n        /* \"#utility.yul\":2339:2363   */\n      tag_167\n      jump\t// in\n    tag_215:\n        /* \"#utility.yul\":2332:2337   */\n      dup2\n        /* \"#utility.yul\":2329:2364   */\n      eq\n        /* \"#utility.yul\":2319:2382   */\n      tag_216\n      jumpi\n        /* \"#utility.yul\":2378:2379   */\n      0x00\n        /* \"#utility.yul\":2375:2376   */\n      dup1\n        /* \"#utility.yul\":2368:2380   */\n      revert\n        /* \"#utility.yul\":2319:2382   */\n    tag_216:\n        /* \"#utility.yul\":2266:2388   */\n      pop\n      jump\t// out\n        /* \"#utility.yul\":2394:2533   */\n    tag_169:\n        /* \"#utility.yul\":2440:2445   */\n      0x00\n        /* \"#utility.yul\":2478:2484   */\n      dup2\n        /* \"#utility.yul\":2465:2485   */\n      calldataload\n        /* \"#utility.yul\":2456:2485   */\n      swap1\n      pop\n        /* \"#utility.yul\":2494:2527   */\n      tag_218\n        /* \"#utility.yul\":2521:2526   */\n      dup2\n        /* \"#utility.yul\":2494:2527   */\n      tag_168\n      jump\t// in\n    tag_218:\n        /* \"#utility.yul\":2394:2533   */\n      swap3\n      swap2\n      pop\n      pop\n      jump\t// out\n        /* \"#utility.yul\":2539:3013   */\n    tag_29:\n        /* \"#utility.yul\":2607:2613   */\n      0x00\n        /* \"#utility.yul\":2615:2621   */\n      dup1\n        /* \"#utility.yul\":2664:2666   */\n      0x40\n        /* \"#utility.yul\":2652:2661   */\n      dup4\n        /* \"#utility.yul\":2643:2650   */\n      dup6\n        /* \"#utility.yul\":2639:2662   */\n      sub\n        /* \"#utility.yul\":2635:2667   */\n      slt\n        /* \"#utility.yul\":2632:2751   */\n      iszero\n      tag_220\n      jumpi\n        /* \"#utility.yul\":2670:2749   */\n      tag_221\n      tag_161\n      jump\t// in\n    tag_221:\n        /* \"#utility.yul\":2632:2751   */\n    tag_220:\n        /* \"#utility.yul\":2790:2791   */\n      0x00\n        /* \"#utility.yul\":2815:2868   */\n      tag_222\n        /* \"#utility.yul\":2860:2867   */\n      dup6\n        /* \"#utility.yul\":2851:2857   */\n      dup3\n        /* \"#utility.yul\":2840:2849   */\n      dup7\n        /* \"#utility.yul\":2836:2858   */\n      add\n        /* \"#utility.yul\":2815:2868   */\n      tag_166\n      jump\t// in\n    tag_222:\n        /* \"#utility.yul\":2805:2868   */\n      swap3\n      pop\n        /* \"#utility.yul\":2761:2878   */\n      pop\n        /* \"#utility.yul\":2917:2919   */\n      0x20\n        /* \"#utility.yul\":2943:2996   */\n      tag_223\n        /* \"#utility.yul\":2988:2995   */\n      dup6\n        /* \"#utility.yul\":2979:2985   */\n      dup3\n        /* \"#utility.yul\":2968:2977   */\n      dup7\n        /* \"#utility.yul\":2964:2986   */\n      add\n        /* \"#utility.yul\":2943:2996   */\n      tag_169\n      jump\t// in\n    tag_223:\n        /* \"#utility.yul\":2933:2996   */\n      swap2\n      pop\n        /* \"#utility.yul\":2888:3006   */\n      pop\n        /* \"#utility.yul\":2539:3013   */\n      swap3\n      pop\n      swap3\n      swap1\n      pop\n      jump\t// out\n        /* \"#utility.yul\":3019:3109   */\n    tag_170:\n        /* \"#utility.yul\":3053:3060   */\n      0x00\n        /* \"#utility.yul\":3096:3101   */\n      dup2\n        /* \"#utility.yul\":3089:3102   */\n      iszero\n        /* \"#utility.yul\":3082:3103   */\n      iszero\n        /* \"#utility.yul\":3071:3103   */\n      swap1\n      pop\n        /* \"#utility.yul\":3019:3109   */\n      swap2\n      swap1\n      pop\n      jump\t// out\n        /* \"#utility.yul\":3115:3224   */\n    tag_171:\n        /* \"#utility.yul\":3196:3217   */\n      tag_226\n        /* \"#utility.yul\":3211:3216   */\n      dup2\n        /* \"#utility.yul\":3196:3217   */\n      tag_170\n      jump\t// in\n    tag_226:\n        /* \"#utility.yul\":3191:3194   */\n      dup3\n        /* \"#utility.yul\":3184:3218   */\n      mstore\n        /* \"#utility.yul\":3115:3224   */\n      pop\n      pop\n      jump\t// out\n        /* \"#utility.yul\":3230:3440   */\n    tag_32:\n        /* \"#utility.yul\":3317:3321   */\n      0x00\n        /* \"#utility.yul\":3355:3357   */\n      0x20\n        /* \"#utility.yul\":3344:3353   */\n      dup3\n        /* \"#utility.yul\":3340:3358   */\n      add\n        /* \"#utility.yul\":3332:3358   */\n      swap1\n      pop\n        /* \"#utility.yul\":3368:3433   */\n      tag_228\n        /* \"#utility.yul\":3430:3431   */\n      0x00\n        /* \"#utility.yul\":3419:3428   */\n      dup4\n        /* \"#utility.yul\":3415:3432   */\n      add\n        /* \"#utility.yul\":3406:3412   */\n      dup5\n        /* \"#utility.yul\":3368:3433   */\n      tag_171\n      jump\t// in\n    tag_228:\n        /* \"#utility.yul\":3230:3440   */\n      swap3\n      swap2\n      pop\n      pop\n      jump\t// out\n        /* \"#utility.yul\":3446:3564   */\n    tag_172:\n        /* \"#utility.yul\":3533:3557   */\n      tag_230\n        /* \"#utility.yul\":3551:3556   */\n      dup2\n        /* \"#utility.yul\":3533:3557   */\n      tag_167\n      jump\t// in\n    tag_230:\n        /* \"#utility.yul\":3528:3531   */\n      dup3\n        /* \"#utility.yul\":3521:3558   */\n      mstore\n        /* \"#utility.yul\":3446:3564   */\n      pop\n      pop\n      jump\t// out\n        /* \"#utility.yul\":3570:3792   */\n    tag_37:\n        /* \"#utility.yul\":3663:3667   */\n      0x00\n        /* \"#utility.yul\":3701:3703   */\n      0x20\n        /* \"#utility.yul\":3690:3699   */\n      dup3\n        /* \"#utility.yul\":3686:3704   */\n      add\n        /* \"#utility.yul\":3678:3704   */\n      swap1\n      pop\n        /* \"#utility.yul\":3714:3785   */\n      tag_232\n        /* \"#utility.yul\":3782:3783   */\n      0x00\n        /* \"#utility.yul\":3771:3780   */\n      dup4\n        /* \"#utility.yul\":3767:3784   */\n      add\n        /* \"#utility.yul\":3758:3764   */\n      dup5\n        /* \"#utility.yul\":3714:3785   */\n      tag_172\n      jump\t// in\n    tag_232:\n        /* \"#utility.yul\":3570:3792   */\n      swap3\n      swap2\n      pop\n      pop\n      jump\t// out\n        /* \"#utility.yul\":3798:4417   */\n    tag_41:\n        /* \"#utility.yul\":3875:3881   */\n      0x00\n        /* \"#utility.yul\":3883:3889   */\n      dup1\n        /* \"#utility.yul\":3891:3897   */\n      0x00\n        /* \"#utility.yul\":3940:3942   */\n      0x60\n        /* \"#utility.yul\":3928:3937   */\n      dup5\n        /* \"#utility.yul\":3919:3926   */\n      dup7\n        /* \"#utility.yul\":3915:3938   */\n      sub\n        /* \"#utility.yul\":3911:3943   */\n      slt\n        /* \"#utility.yul\":3908:4027   */\n      iszero\n      tag_234\n      jumpi\n        /* \"#utility.yul\":3946:4025   */\n      tag_235\n      tag_161\n      jump\t// in\n    tag_235:\n        /* \"#utility.yul\":3908:4027   */\n    tag_234:\n        /* \"#utility.yul\":4066:4067   */\n      0x00\n        /* \"#utility.yul\":4091:4144   */\n      tag_236\n        /* \"#utility.yul\":4136:4143   */\n      dup7\n        /* \"#utility.yul\":4127:4133   */\n      dup3\n        /* \"#utility.yul\":4116:4125   */\n      dup8\n        /* \"#utility.yul\":4112:4134   */\n      add\n        /* \"#utility.yul\":4091:4144   */\n      tag_166\n      jump\t// in\n    tag_236:\n        /* \"#utility.yul\":4081:4144   */\n      swap4\n      pop\n        /* \"#utility.yul\":4037:4154   */\n      pop\n        /* \"#utility.yul\":4193:4195   */\n      0x20\n        /* \"#utility.yul\":4219:4272   */\n      tag_237\n        /* \"#utility.yul\":4264:4271   */\n      dup7\n        /* \"#utility.yul\":4255:4261   */\n      dup3\n        /* \"#utility.yul\":4244:4253   */\n      dup8\n        /* \"#utility.yul\":4240:4262   */\n      add\n        /* \"#utility.yul\":4219:4272   */\n      tag_166\n      jump\t// in\n    tag_237:\n        /* \"#utility.yul\":4209:4272   */\n      swap3\n      pop\n        /* \"#utility.yul\":4164:4282   */\n      pop\n        /* \"#utility.yul\":4321:4323   */\n      0x40\n        /* \"#utility.yul\":4347:4400   */\n      tag_238\n        /* \"#utility.yul\":4392:4399   */\n      dup7\n        /* \"#utility.yul\":4383:4389   */\n      dup3\n        /* \"#utility.yul\":4372:4381   */\n      dup8\n        /* \"#utility.yul\":4368:4390   */\n      add\n        /* \"#utility.yul\":4347:4400   */\n      tag_169\n      jump\t// in\n    tag_238:\n        /* \"#utility.yul\":4337:4400   */\n      swap2\n      pop\n        /* \"#utility.yul\":4292:4410   */\n      pop\n        /* \"#utility.yul\":3798:4417   */\n      swap3\n      pop\n      swap3\n      pop\n      swap3\n      jump\t// out\n        /* \"#utility.yul\":4423:4752   */\n    tag_47:\n        /* \"#utility.yul\":4482:4488   */\n      0x00\n        /* \"#utility.yul\":4531:4533   */\n      0x20\n        /* \"#utility.yul\":4519:4528   */\n      dup3\n        /* \"#utility.yul\":4510:4517   */\n      dup5\n        /* \"#utility.yul\":4506:4529   */\n      sub\n        /* \"#utility.yul\":4502:4534   */\n      slt\n        /* \"#utility.yul\":4499:4618   */\n      iszero\n      tag_240\n      jumpi\n        /* \"#utility.yul\":4537:4616   */\n      tag_241\n      tag_161\n      jump\t// in\n    tag_241:\n        /* \"#utility.yul\":4499:4618   */\n    tag_240:\n        /* \"#utility.yul\":4657:4658   */\n      0x00\n        /* \"#utility.yul\":4682:4735   */\n      tag_242\n        /* \"#utility.yul\":4727:4734   */\n      dup5\n        /* \"#utility.yul\":4718:4724   */\n      dup3\n        /* \"#utility.yul\":4707:4716   */\n      dup6\n        /* \"#utility.yul\":4703:4725   */\n      add\n        /* \"#utility.yul\":4682:4735   */\n      tag_169\n      jump\t// in\n    tag_242:\n        /* \"#utility.yul\":4672:4735   */\n      swap2\n      pop\n        /* \"#utility.yul\":4628:4745   */\n      pop\n        /* \"#utility.yul\":4423:4752   */\n      swap3\n      swap2\n      pop\n      pop\n      jump\t// out\n        /* \"#utility.yul\":4758:5087   */\n    tag_56:\n        /* \"#utility.yul\":4817:4823   */\n      0x00\n        /* \"#utility.yul\":4866:4868   */\n      0x20\n        /* \"#utility.yul\":4854:4863   */\n      dup3\n        /* \"#utility.yul\":4845:4852   */\n      dup5\n        /* \"#utility.yul\":4841:4864   */\n      sub\n        /* \"#utility.yul\":4837:4869   */\n      slt\n        /* \"#utility.yul\":4834:4953   */\n      iszero\n      tag_244\n      jumpi\n        /* \"#utility.yul\":4872:4951   */\n      tag_245\n      tag_161\n      jump\t// in\n    tag_245:\n        /* \"#utility.yul\":4834:4953   */\n    tag_244:\n        /* \"#utility.yul\":4992:4993   */\n      0x00\n        /* \"#utility.yul\":5017:5070   */\n      tag_246\n        /* \"#utility.yul\":5062:5069   */\n      dup5\n        /* \"#utility.yul\":5053:5059   */\n      dup3\n        /* \"#utility.yul\":5042:5051   */\n      dup6\n        /* \"#utility.yul\":5038:5060   */\n      add\n        /* \"#utility.yul\":5017:5070   */\n      tag_166\n      jump\t// in\n    tag_246:\n        /* \"#utility.yul\":5007:5070   */\n      swap2\n      pop\n        /* \"#utility.yul\":4963:5080   */\n      pop\n        /* \"#utility.yul\":4758:5087   */\n      swap3\n      swap2\n      pop\n      pop\n      jump\t// out\n        /* \"#utility.yul\":5093:5567   */\n    tag_75:\n        /* \"#utility.yul\":5161:5167   */\n      0x00\n        /* \"#utility.yul\":5169:5175   */\n      dup1\n        /* \"#utility.yul\":5218:5220   */\n      0x40\n        /* \"#utility.yul\":5206:5215   */\n      dup4\n        /* \"#utility.yul\":5197:5204   */\n      dup6\n        /* \"#utility.yul\":5193:5216   */\n      sub\n        /* \"#utility.yul\":5189:5221   */\n      slt\n        /* \"#utility.yul\":5186:5305   */\n      iszero\n      tag_248\n      jumpi\n        /* \"#utility.yul\":5224:5303   */\n      tag_249\n      tag_161\n      jump\t// in\n    tag_249:\n        /* \"#utility.yul\":5186:5305   */\n    tag_248:\n        /* \"#utility.yul\":5344:5345   */\n      0x00\n        /* \"#utility.yul\":5369:5422   */\n      tag_250\n        /* \"#utility.yul\":5414:5421   */\n      dup6\n        /* \"#utility.yul\":5405:5411   */\n      dup3\n        /* \"#utility.yul\":5394:5403   */\n      dup7\n        /* \"#utility.yul\":5390:5412   */\n      add\n        /* \"#utility.yul\":5369:5422   */\n      tag_166\n      jump\t// in\n    tag_250:\n        /* \"#utility.yul\":5359:5422   */\n      swap3\n      pop\n        /* \"#utility.yul\":5315:5432   */\n      pop\n        /* \"#utility.yul\":5471:5473   */\n      0x20\n        /* \"#utility.yul\":5497:5550   */\n      tag_251\n        /* \"#utility.yul\":5542:5549   */\n      dup6\n        /* \"#utility.yul\":5533:5539   */\n      dup3\n        /* \"#utility.yul\":5522:5531   */\n      dup7\n        /* \"#utility.yul\":5518:5540   */\n      add\n        /* \"#utility.yul\":5497:5550   */\n      tag_166\n      jump\t// in\n    tag_251:\n        /* \"#utility.yul\":5487:5550   */\n      swap2\n      pop\n        /* \"#utility.yul\":5442:5560   */\n      pop\n        /* \"#utility.yul\":5093:5567   */\n      swap3\n      pop\n      swap3\n      swap1\n      pop\n      jump\t// out\n        /* \"#utility.yul\":5573:5753   */\n    tag_173:\n        /* \"#utility.yul\":5621:5698   */\n      0x4e487b7100000000000000000000000000000000000000000000000000000000\n        /* \"#utility.yul\":5618:5619   */\n      0x00\n        /* \"#utility.yul\":5611:5699   */\n      mstore\n        /* \"#utility.yul\":5718:5722   */\n      0x22\n        /* \"#utility.yul\":5715:5716   */\n      0x04\n        /* \"#utility.yul\":5708:5723   */\n      mstore\n        /* \"#utility.yul\":5742:5746   */\n      0x24\n        /* \"#utility.yul\":5739:5740   */\n      0x00\n        /* \"#utility.yul\":5732:5747   */\n      revert\n        /* \"#utility.yul\":5759:6079   */\n    tag_99:\n        /* \"#utility.yul\":5803:5809   */\n      0x00\n        /* \"#utility.yul\":5840:5841   */\n      0x02\n        /* \"#utility.yul\":5834:5838   */\n      dup3\n        /* \"#utility.yul\":5830:5842   */\n      div\n        /* \"#utility.yul\":5820:5842   */\n      swap1\n      pop\n        /* \"#utility.yul\":5887:5888   */\n      0x01\n        /* \"#utility.yul\":5881:5885   */\n      dup3\n        /* \"#utility.yul\":5877:5889   */\n      and\n        /* \"#utility.yul\":5908:5926   */\n      dup1\n        /* \"#utility.yul\":5898:5979   */\n      tag_254\n      jumpi\n        /* \"#utility.yul\":5964:5968   */\n      0x7f\n        /* \"#utility.yul\":5956:5962   */\n      dup3\n        /* \"#utility.yul\":5952:5969   */\n      and\n        /* \"#utility.yul\":5942:5969   */\n      swap2\n      pop\n        /* \"#utility.yul\":5898:5979   */\n    tag_254:\n        /* \"#utility.yul\":6026:6028   */\n      0x20\n        /* \"#utility.yul\":6018:6024   */\n      dup3\n        /* \"#utility.yul\":6015:6029   */\n      lt\n        /* \"#utility.yul\":5995:6013   */\n      dup2\n        /* \"#utility.yul\":5992:6030   */\n      sub\n        /* \"#utility.yul\":5989:6073   */\n      tag_255\n      jumpi\n        /* \"#utility.yul\":6045:6063   */\n      tag_256\n      tag_173\n      jump\t// in\n    tag_256:\n        /* \"#utility.yul\":5989:6073   */\n    tag_255:\n        /* \"#utility.yul\":5810:6079   */\n      pop\n        /* \"#utility.yul\":5759:6079   */\n      swap2\n      swap1\n      pop\n      jump\t// out\n        /* \"#utility.yul\":6085:6259   */\n    tag_174:\n        /* \"#utility.yul\":6225:6251   */\n      0x6e6f7420617070726f76656420746f207472616e736665720000000000000000\n        /* \"#utility.yul\":6221:6222   */\n      0x00\n        /* \"#utility.yul\":6213:6219   */\n      dup3\n        /* \"#utility.yul\":6209:6223   */\n      add\n        /* \"#utility.yul\":6202:6252   */\n      mstore\n        /* \"#utility.yul\":6085:6259   */\n      pop\n      jump\t// out\n        /* \"#utility.yul\":6265:6631   */\n    tag_175:\n        /* \"#utility.yul\":6407:6410   */\n      0x00\n        /* \"#utility.yul\":6428:6495   */\n      tag_259\n        /* \"#utility.yul\":6492:6494   */\n      0x18\n        /* \"#utility.yul\":6487:6490   */\n      dup4\n        /* \"#utility.yul\":6428:6495   */\n      tag_156\n      jump\t// in\n    tag_259:\n        /* \"#utility.yul\":6421:6495   */\n      swap2\n      pop\n        /* \"#utility.yul\":6504:6597   */\n      tag_260\n        /* \"#utility.yul\":6593:6596   */\n      dup3\n        /* \"#utility.yul\":6504:6597   */\n      tag_174\n      jump\t// in\n    tag_260:\n        /* \"#utility.yul\":6622:6624   */\n      0x20\n        /* \"#utility.yul\":6617:6620   */\n      dup3\n        /* \"#utility.yul\":6613:6625   */\n      add\n        /* \"#utility.yul\":6606:6625   */\n      swap1\n      pop\n        /* \"#utility.yul\":6265:6631   */\n      swap2\n      swap1\n      pop\n      jump\t// out\n        /* \"#utility.yul\":6637:7056   */\n    tag_109:\n        /* \"#utility.yul\":6803:6807   */\n      0x00\n        /* \"#utility.yul\":6841:6843   */\n      0x20\n        /* \"#utility.yul\":6830:6839   */\n      dup3\n        /* \"#utility.yul\":6826:6844   */\n      add\n        /* \"#utility.yul\":6818:6844   */\n      swap1\n      pop\n        /* \"#utility.yul\":6890:6899   */\n      dup2\n        /* \"#utility.yul\":6884:6888   */\n      dup2\n        /* \"#utility.yul\":6880:6900   */\n      sub\n        /* \"#utility.yul\":6876:6877   */\n      0x00\n        /* \"#utility.yul\":6865:6874   */\n      dup4\n        /* \"#utility.yul\":6861:6878   */\n      add\n        /* \"#utility.yul\":6854:6901   */\n      mstore\n        /* \"#utility.yul\":6918:7049   */\n      tag_262\n        /* \"#utility.yul\":7044:7048   */\n      dup2\n        /* \"#utility.yul\":6918:7049   */\n      tag_175\n      jump\t// in\n    tag_262:\n        /* \"#utility.yul\":6910:7049   */\n      swap1\n      pop\n        /* \"#utility.yul\":6637:7056   */\n      swap2\n      swap1\n      pop\n      jump\t// out\n        /* \"#utility.yul\":7062:7230   */\n    tag_176:\n        /* \"#utility.yul\":7202:7222   */\n      0x6e6f7420656e6f75676820616d6f756e74200000000000000000000000000000\n        /* \"#utility.yul\":7198:7199   */\n      0x00\n        /* \"#utility.yul\":7190:7196   */\n      dup3\n        /* \"#utility.yul\":7186:7200   */\n      add\n        /* \"#utility.yul\":7179:7223   */\n      mstore\n        /* \"#utility.yul\":7062:7230   */\n      pop\n      jump\t// out\n        /* \"#utility.yul\":7236:7602   */\n    tag_177:\n        /* \"#utility.yul\":7378:7381   */\n      0x00\n        /* \"#utility.yul\":7399:7466   */\n      tag_265\n        /* \"#utility.yul\":7463:7465   */\n      0x12\n        /* \"#utility.yul\":7458:7461   */\n      dup4\n        /* \"#utility.yul\":7399:7466   */\n      tag_156\n      jump\t// in\n    tag_265:\n        /* \"#utility.yul\":7392:7466   */\n      swap2\n      pop\n        /* \"#utility.yul\":7475:7568   */\n      tag_266\n        /* \"#utility.yul\":7564:7567   */\n      dup3\n        /* \"#utility.yul\":7475:7568   */\n      tag_176\n      jump\t// in\n    tag_266:\n        /* \"#utility.yul\":7593:7595   */\n      0x20\n        /* \"#utility.yul\":7588:7591   */\n      dup3\n        /* \"#utility.yul\":7584:7596   */\n      add\n        /* \"#utility.yul\":7577:7596   */\n      swap1\n      pop\n        /* \"#utility.yul\":7236:7602   */\n      swap2\n      swap1\n      pop\n      jump\t// out\n        /* \"#utility.yul\":7608:8027   */\n    tag_112:\n        /* \"#utility.yul\":7774:7778   */\n      0x00\n        /* \"#utility.yul\":7812:7814   */\n      0x20\n        /* \"#utility.yul\":7801:7810   */\n      dup3\n        /* \"#utility.yul\":7797:7815   */\n      add\n        /* \"#utility.yul\":7789:7815   */\n      swap1\n      pop\n        /* \"#utility.yul\":7861:7870   */\n      dup2\n        /* \"#utility.yul\":7855:7859   */\n      dup2\n        /* \"#utility.yul\":7851:7871   */\n      sub\n        /* \"#utility.yul\":7847:7848   */\n      0x00\n        /* \"#utility.yul\":7836:7845   */\n      dup4\n        /* \"#utility.yul\":7832:7849   */\n      add\n        /* \"#utility.yul\":7825:7872   */\n      mstore\n        /* \"#utility.yul\":7889:8020   */\n      tag_268\n        /* \"#utility.yul\":8015:8019   */\n      dup2\n        /* \"#utility.yul\":7889:8020   */\n      tag_177\n      jump\t// in\n    tag_268:\n        /* \"#utility.yul\":7881:8020   */\n      swap1\n      pop\n        /* \"#utility.yul\":7608:8027   */\n      swap2\n      swap1\n      pop\n      jump\t// out\n        /* \"#utility.yul\":8033:8213   */\n    tag_178:\n        /* \"#utility.yul\":8081:8158   */\n      0x4e487b7100000000000000000000000000000000000000000000000000000000\n        /* \"#utility.yul\":8078:8079   */\n      0x00\n        /* \"#utility.yul\":8071:8159   */\n      mstore\n        /* \"#utility.yul\":8178:8182   */\n      0x11\n        /* \"#utility.yul\":8175:8176   */\n      0x04\n        /* \"#utility.yul\":8168:8183   */\n      mstore\n        /* \"#utility.yul\":8202:8206   */\n      0x24\n        /* \"#utility.yul\":8199:8200   */\n      0x00\n        /* \"#utility.yul\":8192:8207   */\n      revert\n        /* \"#utility.yul\":8219:8410   */\n    tag_114:\n        /* \"#utility.yul\":8259:8262   */\n      0x00\n        /* \"#utility.yul\":8278:8298   */\n      tag_271\n        /* \"#utility.yul\":8296:8297   */\n      dup3\n        /* \"#utility.yul\":8278:8298   */\n      tag_167\n      jump\t// in\n    tag_271:\n        /* \"#utility.yul\":8273:8298   */\n      swap2\n      pop\n        /* \"#utility.yul\":8312:8332   */\n      tag_272\n        /* \"#utility.yul\":8330:8331   */\n      dup4\n        /* \"#utility.yul\":8312:8332   */\n      tag_167\n      jump\t// in\n    tag_272:\n        /* \"#utility.yul\":8307:8332   */\n      swap3\n      pop\n        /* \"#utility.yul\":8355:8356   */\n      dup3\n        /* \"#utility.yul\":8352:8353   */\n      dup3\n        /* \"#utility.yul\":8348:8357   */\n      add\n        /* \"#utility.yul\":8341:8357   */\n      swap1\n      pop\n        /* \"#utility.yul\":8376:8379   */\n      dup1\n        /* \"#utility.yul\":8373:8374   */\n      dup3\n        /* \"#utility.yul\":8370:8380   */\n      gt\n        /* \"#utility.yul\":8367:8403   */\n      iszero\n      tag_273\n      jumpi\n        /* \"#utility.yul\":8383:8401   */\n      tag_274\n      tag_178\n      jump\t// in\n    tag_274:\n        /* \"#utility.yul\":8367:8403   */\n    tag_273:\n        /* \"#utility.yul\":8219:8410   */\n      swap3\n      swap2\n      pop\n      pop\n      jump\t// out\n        /* \"#utility.yul\":8416:8610   */\n    tag_116:\n        /* \"#utility.yul\":8456:8460   */\n      0x00\n        /* \"#utility.yul\":8476:8496   */\n      tag_276\n        /* \"#utility.yul\":8494:8495   */\n      dup3\n        /* \"#utility.yul\":8476:8496   */\n      tag_167\n      jump\t// in\n    tag_276:\n        /* \"#utility.yul\":8471:8496   */\n      swap2\n      pop\n        /* \"#utility.yul\":8510:8530   */\n      tag_277\n        /* \"#utility.yul\":8528:8529   */\n      dup4\n        /* \"#utility.yul\":8510:8530   */\n      tag_167\n      jump\t// in\n    tag_277:\n        /* \"#utility.yul\":8505:8530   */\n      swap3\n      pop\n        /* \"#utility.yul\":8554:8555   */\n      dup3\n        /* \"#utility.yul\":8551:8552   */\n      dup3\n        /* \"#utility.yul\":8547:8556   */\n      sub\n        /* \"#utility.yul\":8539:8556   */\n      swap1\n      pop\n        /* \"#utility.yul\":8578:8579   */\n      dup2\n        /* \"#utility.yul\":8572:8576   */\n      dup2\n        /* \"#utility.yul\":8569:8580   */\n      gt\n        /* \"#utility.yul\":8566:8603   */\n      iszero\n      tag_278\n      jumpi\n        /* \"#utility.yul\":8583:8601   */\n      tag_279\n      tag_178\n      jump\t// in\n    tag_279:\n        /* \"#utility.yul\":8566:8603   */\n    tag_278:\n        /* \"#utility.yul\":8416:8610   */\n      swap3\n      swap2\n      pop\n      pop\n      jump\t// out\n        /* \"#utility.yul\":8616:8783   */\n    tag_179:\n        /* \"#utility.yul\":8756:8775   */\n      0x696e737566666963656e742046756e6473000000000000000000000000000000\n        /* \"#utility.yul\":8752:8753   */\n      0x00\n        /* \"#utility.yul\":8744:8750   */\n      dup3\n        /* \"#utility.yul\":8740:8754   */\n      add\n        /* \"#utility.yul\":8733:8776   */\n      mstore\n        /* \"#utility.yul\":8616:8783   */\n      pop\n      jump\t// out\n        /* \"#utility.yul\":8789:9155   */\n    tag_180:\n        /* \"#utility.yul\":8931:8934   */\n      0x00\n        /* \"#utility.yul\":8952:9019   */\n      tag_282\n        /* \"#utility.yul\":9016:9018   */\n      0x11\n        /* \"#utility.yul\":9011:9014   */\n      dup4\n        /* \"#utility.yul\":8952:9019   */\n      tag_156\n      jump\t// in\n    tag_282:\n        /* \"#utility.yul\":8945:9019   */\n      swap2\n      pop\n        /* \"#utility.yul\":9028:9121   */\n      tag_283\n        /* \"#utility.yul\":9117:9120   */\n      dup3\n        /* \"#utility.yul\":9028:9121   */\n      tag_179\n      jump\t// in\n    tag_283:\n        /* \"#utility.yul\":9146:9148   */\n      0x20\n        /* \"#utility.yul\":9141:9144   */\n      dup3\n        /* \"#utility.yul\":9137:9149   */\n      add\n        /* \"#utility.yul\":9130:9149   */\n      swap1\n      pop\n        /* \"#utility.yul\":8789:9155   */\n      swap2\n      swap1\n      pop\n      jump\t// out\n        /* \"#utility.yul\":9161:9580   */\n    tag_121:\n        /* \"#utility.yul\":9327:9331   */\n      0x00\n        /* \"#utility.yul\":9365:9367   */\n      0x20\n        /* \"#utility.yul\":9354:9363   */\n      dup3\n        /* \"#utility.yul\":9350:9368   */\n      add\n        /* \"#utility.yul\":9342:9368   */\n      swap1\n      pop\n        /* \"#utility.yul\":9414:9423   */\n      dup2\n        /* \"#utility.yul\":9408:9412   */\n      dup2\n        /* \"#utility.yul\":9404:9424   */\n      sub\n        /* \"#utility.yul\":9400:9401   */\n      0x00\n        /* \"#utility.yul\":9389:9398   */\n      dup4\n        /* \"#utility.yul\":9385:9402   */\n      add\n        /* \"#utility.yul\":9378:9425   */\n      mstore\n        /* \"#utility.yul\":9442:9573   */\n      tag_285\n        /* \"#utility.yul\":9568:9572   */\n      dup2\n        /* \"#utility.yul\":9442:9573   */\n      tag_180\n      jump\t// in\n    tag_285:\n        /* \"#utility.yul\":9434:9573   */\n      swap1\n      pop\n        /* \"#utility.yul\":9161:9580   */\n      swap2\n      swap1\n      pop\n      jump\t// out\n        /* \"#utility.yul\":9586:9755   */\n    tag_181:\n        /* \"#utility.yul\":9726:9747   */\n      0x6e6f7420737566666963656e7420746f6b656e00000000000000000000000000\n        /* \"#utility.yul\":9722:9723   */\n      0x00\n        /* \"#utility.yul\":9714:9720   */\n      dup3\n        /* \"#utility.yul\":9710:9724   */\n      add\n        /* \"#utility.yul\":9703:9748   */\n      mstore\n        /* \"#utility.yul\":9586:9755   */\n      pop\n      jump\t// out\n        /* \"#utility.yul\":9761:10127   */\n    tag_182:\n        /* \"#utility.yul\":9903:9906   */\n      0x00\n        /* \"#utility.yul\":9924:9991   */\n      tag_288\n        /* \"#utility.yul\":9988:9990   */\n      0x13\n        /* \"#utility.yul\":9983:9986   */\n      dup4\n        /* \"#utility.yul\":9924:9991   */\n      tag_156\n      jump\t// in\n    tag_288:\n        /* \"#utility.yul\":9917:9991   */\n      swap2\n      pop\n        /* \"#utility.yul\":10000:10093   */\n      tag_289\n        /* \"#utility.yul\":10089:10092   */\n      dup3\n        /* \"#utility.yul\":10000:10093   */\n      tag_181\n      jump\t// in\n    tag_289:\n        /* \"#utility.yul\":10118:10120   */\n      0x20\n        /* \"#utility.yul\":10113:10116   */\n      dup3\n        /* \"#utility.yul\":10109:10121   */\n      add\n        /* \"#utility.yul\":10102:10121   */\n      swap1\n      pop\n        /* \"#utility.yul\":9761:10127   */\n      swap2\n      swap1\n      pop\n      jump\t// out\n        /* \"#utility.yul\":10133:10552   */\n    tag_128:\n        /* \"#utility.yul\":10299:10303   */\n      0x00\n        /* \"#utility.yul\":10337:10339   */\n      0x20\n        /* \"#utility.yul\":10326:10335   */\n      dup3\n        /* \"#utility.yul\":10322:10340   */\n      add\n        /* \"#utility.yul\":10314:10340   */\n      swap1\n      pop\n        /* \"#utility.yul\":10386:10395   */\n      dup2\n        /* \"#utility.yul\":10380:10384   */\n      dup2\n        /* \"#utility.yul\":10376:10396   */\n      sub\n        /* \"#utility.yul\":10372:10373   */\n      0x00\n        /* \"#utility.yul\":10361:10370   */\n      dup4\n        /* \"#utility.yul\":10357:10374   */\n      add\n        /* \"#utility.yul\":10350:10397   */\n      mstore\n        /* \"#utility.yul\":10414:10545   */\n      tag_291\n        /* \"#utility.yul\":10540:10544   */\n      dup2\n        /* \"#utility.yul\":10414:10545   */\n      tag_182\n      jump\t// in\n    tag_291:\n        /* \"#utility.yul\":10406:10545   */\n      swap1\n      pop\n        /* \"#utility.yul\":10133:10552   */\n      swap2\n      swap1\n      pop\n      jump\t// out\n        /* \"#utility.yul\":10558:10724   */\n    tag_183:\n        /* \"#utility.yul\":10698:10716   */\n      0x6e6f7420656e6f75676820746f6b656e00000000000000000000000000000000\n        /* \"#utility.yul\":10694:10695   */\n      0x00\n        /* \"#utility.yul\":10686:10692   */\n      dup3\n        /* \"#utility.yul\":10682:10696   */\n      add\n        /* \"#utility.yul\":10675:10717   */\n      mstore\n        /* \"#utility.yul\":10558:10724   */\n      pop\n      jump\t// out\n        /* \"#utility.yul\":10730:11096   */\n    tag_184:\n        /* \"#utility.yul\":10872:10875   */\n      0x00\n        /* \"#utility.yul\":10893:10960   */\n      tag_294\n        /* \"#utility.yul\":10957:10959   */\n      0x10\n        /* \"#utility.yul\":10952:10955   */\n      dup4\n        /* \"#utility.yul\":10893:10960   */\n      tag_156\n      jump\t// in\n    tag_294:\n        /* \"#utility.yul\":10886:10960   */\n      swap2\n      pop\n        /* \"#utility.yul\":10969:11062   */\n      tag_295\n        /* \"#utility.yul\":11058:11061   */\n      dup3\n        /* \"#utility.yul\":10969:11062   */\n      tag_183\n      jump\t// in\n    tag_295:\n        /* \"#utility.yul\":11087:11089   */\n      0x20\n        /* \"#utility.yul\":11082:11085   */\n      dup3\n        /* \"#utility.yul\":11078:11090   */\n      add\n        /* \"#utility.yul\":11071:11090   */\n      swap1\n      pop\n        /* \"#utility.yul\":10730:11096   */\n      swap2\n      swap1\n      pop\n      jump\t// out\n        /* \"#utility.yul\":11102:11521   */\n    tag_141:\n        /* \"#utility.yul\":11268:11272   */\n      0x00\n        /* \"#utility.yul\":11306:11308   */\n      0x20\n        /* \"#utility.yul\":11295:11304   */\n      dup3\n        /* \"#utility.yul\":11291:11309   */\n      add\n        /* \"#utility.yul\":11283:11309   */\n      swap1\n      pop\n        /* \"#utility.yul\":11355:11364   */\n      dup2\n        /* \"#utility.yul\":11349:11353   */\n      dup2\n        /* \"#utility.yul\":11345:11365   */\n      sub\n        /* \"#utility.yul\":11341:11342   */\n      0x00\n        /* \"#utility.yul\":11330:11339   */\n      dup4\n        /* \"#utility.yul\":11326:11343   */\n      add\n        /* \"#utility.yul\":11319:11366   */\n      mstore\n        /* \"#utility.yul\":11383:11514   */\n      tag_297\n        /* \"#utility.yul\":11509:11513   */\n      dup2\n        /* \"#utility.yul\":11383:11514   */\n      tag_184\n      jump\t// in\n    tag_297:\n        /* \"#utility.yul\":11375:11514   */\n      swap1\n      pop\n        /* \"#utility.yul\":11102:11521   */\n      swap2\n      swap1\n      pop\n      jump\t// out\n        /* \"#utility.yul\":11527:11694   */\n    tag_185:\n        /* \"#utility.yul\":11667:11686   */\n      0x496e737566666963656e742046756e6473000000000000000000000000000000\n        /* \"#utility.yul\":11663:11664   */\n      0x00\n        /* \"#utility.yul\":11655:11661   */\n      dup3\n        /* \"#utility.yul\":11651:11665   */\n      add\n        /* \"#utility.yul\":11644:11687   */\n      mstore\n        /* \"#utility.yul\":11527:11694   */\n      pop\n      jump\t// out\n        /* \"#utility.yul\":11700:12066   */\n    tag_186:\n        /* \"#utility.yul\":11842:11845   */\n      0x00\n        /* \"#utility.yul\":11863:11930   */\n      tag_300\n        /* \"#utility.yul\":11927:11929   */\n      0x11\n        /* \"#utility.yul\":11922:11925   */\n      dup4\n        /* \"#utility.yul\":11863:11930   */\n      tag_156\n      jump\t// in\n    tag_300:\n        /* \"#utility.yul\":11856:11930   */\n      swap2\n      pop\n        /* \"#utility.yul\":11939:12032   */\n      tag_301\n        /* \"#utility.yul\":12028:12031   */\n      dup3\n        /* \"#utility.yul\":11939:12032   */\n      tag_185\n      jump\t// in\n    tag_301:\n        /* \"#utility.yul\":12057:12059   */\n      0x20\n        /* \"#utility.yul\":12052:12055   */\n      dup3\n        /* \"#utility.yul\":12048:12060   */\n      add\n        /* \"#utility.yul\":12041:12060   */\n      swap1\n      pop\n        /* \"#utility.yul\":11700:12066   */\n      swap2\n      swap1\n      pop\n      jump\t// out\n        /* \"#utility.yul\":12072:12491   */\n    tag_151:\n        /* \"#utility.yul\":12238:12242   */\n      0x00\n        /* \"#utility.yul\":12276:12278   */\n      0x20\n        /* \"#utility.yul\":12265:12274   */\n      dup3\n        /* \"#utility.yul\":12261:12279   */\n      add\n        /* \"#utility.yul\":12253:12279   */\n      swap1\n      pop\n        /* \"#utility.yul\":12325:12334   */\n      dup2\n        /* \"#utility.yul\":12319:12323   */\n      dup2\n        /* \"#utility.yul\":12315:12335   */\n      sub\n        /* \"#utility.yul\":12311:12312   */\n      0x00\n        /* \"#utility.yul\":12300:12309   */\n      dup4\n        /* \"#utility.yul\":12296:12313   */\n      add\n        /* \"#utility.yul\":12289:12336   */\n      mstore\n        /* \"#utility.yul\":12353:12484   */\n      tag_303\n        /* \"#utility.yul\":12479:12483   */\n      dup2\n        /* \"#utility.yul\":12353:12484   */\n      tag_186\n      jump\t// in\n    tag_303:\n        /* \"#utility.yul\":12345:12484   */\n      swap1\n      pop\n        /* \"#utility.yul\":12072:12491   */\n      swap2\n      swap1\n      pop\n      jump\t// out\n\n    auxdata: 0xa2646970667358221220b8fe9eafa69c1237754b00e4af974d6ff756adc6c9ac19e2553e61843443dfd764736f6c63430008120033\n}\n",
				"bytecode": {
					"linkReferences": {},
					"object": "60806040526040518060400160405280600781526020017f766b546f6b656e00000000000000000000000000000000000000000000000000815250600090816200004a919062000371565b506040518060400160405280600281526020017f766b0000000000000000000000000000000000000000000000000000000000008152506001908162000091919062000371565b50600a6002556103e8600355348015620000aa57600080fd5b506103e8600460003373ffffffffffffffffffffffffffffffffffffffff1673ffffffffffffffffffffffffffffffffffffffff1681526020019081526020016000208190555062000458565b600081519050919050565b7f4e487b7100000000000000000000000000000000000000000000000000000000600052604160045260246000fd5b7f4e487b7100000000000000000000000000000000000000000000000000000000600052602260045260246000fd5b600060028204905060018216806200017957607f821691505b6020821081036200018f576200018e62000131565b5b50919050565b60008190508160005260206000209050919050565b60006020601f8301049050919050565b600082821b905092915050565b600060088302620001f97fffffffffffffffffffffffffffffffffffffffffffffffffffffffffffffffff82620001ba565b620002058683620001ba565b95508019841693508086168417925050509392505050565b6000819050919050565b6000819050919050565b6000620002526200024c62000246846200021d565b62000227565b6200021d565b9050919050565b6000819050919050565b6200026e8362000231565b620002866200027d8262000259565b848454620001c7565b825550505050565b600090565b6200029d6200028e565b620002aa81848462000263565b505050565b5b81811015620002d257620002c660008262000293565b600181019050620002b0565b5050565b601f8211156200032157620002eb8162000195565b620002f684620001aa565b8101602085101562000306578190505b6200031e6200031585620001aa565b830182620002af565b50505b505050565b600082821c905092915050565b6000620003466000198460080262000326565b1980831691505092915050565b600062000361838362000333565b9150826002028217905092915050565b6200037c82620000f7565b67ffffffffffffffff81111562000398576200039762000102565b5b620003a4825462000160565b620003b1828285620002d6565b600060209050601f831160018114620003e95760008415620003d4578287015190505b620003e0858262000353565b86555062000450565b601f198416620003f98662000195565b60005b828110156200042357848901518255600182019150602085019450602081019050620003fc565b868310156200044357848901516200043f601f89168262000333565b8355505b6001600288020188555050505b505050505050565b61163d80620004686000396000f3fe6080604052600436106100f35760003560e01c8063819993f21161008a578063ab6859ba11610059578063ab6859ba14610364578063c40ef5751461038f578063d0e30db0146103cc578063f14210a6146103d6576100f3565b8063819993f21461028257806395d89b41146102bf578063a77a8230146102ea578063a9059cbb14610327576100f3565b806350baa622116100c657806350baa622146101c85780636215be77146101f157806362a35d721461021a57806376809ce314610257576100f3565b806306fdde03146100f8578063095ea7b31461012357806318160ddd1461016057806323b872dd1461018b575b600080fd5b34801561010457600080fd5b5061010d6103ff565b60405161011a9190611040565b60405180910390f35b34801561012f57600080fd5b5061014a600480360381019061014591906110fb565b61048d565b6040516101579190611156565b60405180910390f35b34801561016c57600080fd5b5061017561057f565b6040516101829190611180565b60405180910390f35b34801561019757600080fd5b506101b260048036038101906101ad919061119b565b610585565b6040516101bf9190611156565b60405180910390f35b3480156101d457600080fd5b506101ef60048036038101906101ea91906111ee565b610812565b005b3480156101fd57600080fd5b50610218600480360381019061021391906111ee565b610998565b005b34801561022657600080fd5b50610241600480360381019061023c919061121b565b610b1e565b60405161024e9190611180565b60405180910390f35b34801561026357600080fd5b5061026c610b67565b6040516102799190611180565b60405180910390f35b34801561028e57600080fd5b506102a960048036038101906102a4919061121b565b610b6d565b6040516102b69190611180565b60405180910390f35b3480156102cb57600080fd5b506102d4610b85565b6040516102e19190611040565b60405180910390f35b3480156102f657600080fd5b50610311600480360381019061030c9190611248565b610c13565b60405161031e9190611180565b60405180910390f35b34801561033357600080fd5b5061034e600480360381019061034991906110fb565b610c38565b60405161035b9190611156565b60405180910390f35b34801561037057600080fd5b50610379610dd7565b6040516103869190611180565b60405180910390f35b34801561039b57600080fd5b506103b660048036038101906103b1919061121b565b610e1e565b6040516103c39190611180565b60405180910390f35b6103d4610e36565b005b3480156103e257600080fd5b506103fd60048036038101906103f891906111ee565b610e8e565b005b6000805461040c906112b7565b80601f0160208091040260200160405190810160405280929190818152602001828054610438906112b7565b80156104855780601f1061045a57610100808354040283529160200191610485565b820191906000526020600020905b81548152906001019060200180831161046857829003601f168201915b505050505081565b600081600760003373ffffffffffffffffffffffffffffffffffffffff1673ffffffffffffffffffffffffffffffffffffffff16815260200190815260200160002060008573ffffffffffffffffffffffffffffffffffffffff1673ffffffffffffffffffffffffffffffffffffffff168152602001908152602001600020819055508273ffffffffffffffffffffffffffffffffffffffff163373ffffffffffffffffffffffffffffffffffffffff167f8c5be1e5ebec7d5bd14f71427d1e84f3dd0314c0f7b2291e5b200ac8c7c3b9258460405161056d9190611180565b60405180910390a36001905092915050565b60035481565b600081600760008673ffffffffffffffffffffffffffffffffffffffff1673ffffffffffffffffffffffffffffffffffffffff16815260200190815260200160002060003373ffffffffffffffffffffffffffffffffffffffff1673ffffffffffffffffffffffffffffffffffffffff168152602001908152602001600020541015610646576040517f08c379a000000000000000000000000000000000000000000000000000000000815260040161063d90611334565b60405180910390fd5b81600460008673ffffffffffffffffffffffffffffffffffffffff1673ffffffffffffffffffffffffffffffffffffffff1681526020019081526020016000205410156106c8576040517f08c379a00000000000000000000000000000000000000000000000000000000081526004016106bf906113a0565b60405180910390fd5b81600460008573ffffffffffffffffffffffffffffffffffffffff1673ffffffffffffffffffffffffffffffffffffffff168152602001908152602001600020600082825461071791906113ef565b9250508190555081600460008673ffffffffffffffffffffffffffffffffffffffff1673ffffffffffffffffffffffffffffffffffffffff168152602001908152602001600020600082825461076d9190611423565b9250508190555081600760008673ffffffffffffffffffffffffffffffffffffffff1673ffffffffffffffffffffffffffffffffffffffff16815260200190815260200160002060003373ffffffffffffffffffffffffffffffffffffffff1673ffffffffffffffffffffffffffffffffffffffff16815260200190815260200160002060008282546108009190611423565b92505081905550600190509392505050565b80600560003373ffffffffffffffffffffffffffffffffffffffff1673ffffffffffffffffffffffffffffffffffffffff1681526020019081526020016000205411610893576040517f08c379a000000000000000000000000000000000000000000000000000000000815260040161088a906114a3565b60405180910390fd5b80600660003073ffffffffffffffffffffffffffffffffffffffff1673ffffffffffffffffffffffffffffffffffffffff16815260200190815260200160002060008282546108e29190611423565b9250508190555080600560003373ffffffffffffffffffffffffffffffffffffffff1673ffffffffffffffffffffffffffffffffffffffff16815260200190815260200160002060008282546109389190611423565b9250508190555080600460003373ffffffffffffffffffffffffffffffffffffffff1673ffffffffffffffffffffffffffffffffffffffff168152602001908152602001600020600082825461098e91906113ef565b9250508190555050565b80600460003373ffffffffffffffffffffffffffffffffffffffff1673ffffffffffffffffffffffffffffffffffffffff1681526020019081526020016000205411610a19576040517f08c379a0000000000000000000000000000000000000000000000000000000008152600401610a109061150f565b60405180910390fd5b80600460003373ffffffffffffffffffffffffffffffffffffffff1673ffffffffffffffffffffffffffffffffffffffff1681526020019081526020016000206000828254610a689190611423565b9250508190555080600660003073ffffffffffffffffffffffffffffffffffffffff1673ffffffffffffffffffffffffffffffffffffffff1681526020019081526020016000206000828254610abe91906113ef565b9250508190555080600560003373ffffffffffffffffffffffffffffffffffffffff1673ffffffffffffffffffffffffffffffffffffffff1681526020019081526020016000206000828254610b1491906113ef565b9250508190555050565b6000600860008373ffffffffffffffffffffffffffffffffffffffff1673ffffffffffffffffffffffffffffffffffffffff168152602001908152602001600020549050919050565b60025481565b60046020528060005260406000206000915090505481565b60018054610b92906112b7565b80601f0160208091040260200160405190810160405280929190818152602001828054610bbe906112b7565b8015610c0b5780601f10610be057610100808354040283529160200191610c0b565b820191906000526020600020905b815481529060010190602001808311610bee57829003601f168201915b505050505081565b6007602052816000526040600020602052806000526040600020600091509150505481565b6000600460003373ffffffffffffffffffffffffffffffffffffffff1673ffffffffffffffffffffffffffffffffffffffff16815260200190815260200160002054821115610cbc576040517f08c379a0000000000000000000000000000000000000000000000000000000008152600401610cb39061157b565b60405180910390fd5b81600460003373ffffffffffffffffffffffffffffffffffffffff1673ffffffffffffffffffffffffffffffffffffffff1681526020019081526020016000206000828254610d0b9190611423565b9250508190555081600460008573ffffffffffffffffffffffffffffffffffffffff1673ffffffffffffffffffffffffffffffffffffffff1681526020019081526020016000206000828254610d6191906113ef565b925050819055508273ffffffffffffffffffffffffffffffffffffffff163373ffffffffffffffffffffffffffffffffffffffff167fddf252ad1be2c89b69c2b068fc378daa952ba7f163c4a11628f55a4df523b3ef84604051610dc59190611180565b60405180910390a36001905092915050565b6000600660003073ffffffffffffffffffffffffffffffffffffffff1673ffffffffffffffffffffffffffffffffffffffff16815260200190815260200160002054905090565b60056020528060005260406000206000915090505481565b34600860003373ffffffffffffffffffffffffffffffffffffffff1673ffffffffffffffffffffffffffffffffffffffff1681526020019081526020016000206000828254610e8591906113ef565b92505081905550565b80600860003373ffffffffffffffffffffffffffffffffffffffff1673ffffffffffffffffffffffffffffffffffffffff168152602001908152602001600020541015610f10576040517f08c379a0000000000000000000000000000000000000000000000000000000008152600401610f07906115e7565b60405180910390fd5b80600860003373ffffffffffffffffffffffffffffffffffffffff1673ffffffffffffffffffffffffffffffffffffffff1681526020019081526020016000206000828254610f5f9190611423565b925050819055503373ffffffffffffffffffffffffffffffffffffffff166108fc829081150290604051600060405180830381858888f19350505050158015610fac573d6000803e3d6000fd5b5050565b600081519050919050565b600082825260208201905092915050565b60005b83811015610fea578082015181840152602081019050610fcf565b60008484015250505050565b6000601f19601f8301169050919050565b600061101282610fb0565b61101c8185610fbb565b935061102c818560208601610fcc565b61103581610ff6565b840191505092915050565b6000602082019050818103600083015261105a8184611007565b905092915050565b600080fd5b600073ffffffffffffffffffffffffffffffffffffffff82169050919050565b600061109282611067565b9050919050565b6110a281611087565b81146110ad57600080fd5b50565b6000813590506110bf81611099565b92915050565b6000819050919050565b6110d8816110c5565b81146110e357600080fd5b50565b6000813590506110f5816110cf565b92915050565b6000806040838503121561111257611111611062565b5b6000611120858286016110b0565b9250506020611131858286016110e6565b9150509250929050565b60008115159050919050565b6111508161113b565b82525050565b600060208201905061116b6000830184611147565b92915050565b61117a816110c5565b82525050565b60006020820190506111956000830184611171565b92915050565b6000806000606084860312156111b4576111b3611062565b5b60006111c2868287016110b0565b93505060206111d3868287016110b0565b92505060406111e4868287016110e6565b9150509250925092565b60006020828403121561120457611203611062565b5b6000611212848285016110e6565b91505092915050565b60006020828403121561123157611230611062565b5b600061123f848285016110b0565b91505092915050565b6000806040838503121561125f5761125e611062565b5b600061126d858286016110b0565b925050602061127e858286016110b0565b9150509250929050565b7f4e487b7100000000000000000000000000000000000000000000000000000000600052602260045260246000fd5b600060028204905060018216806112cf57607f821691505b6020821081036112e2576112e1611288565b5b50919050565b7f6e6f7420617070726f76656420746f207472616e736665720000000000000000600082015250565b600061131e601883610fbb565b9150611329826112e8565b602082019050919050565b6000602082019050818103600083015261134d81611311565b9050919050565b7f6e6f7420656e6f75676820616d6f756e74200000000000000000000000000000600082015250565b600061138a601283610fbb565b915061139582611354565b602082019050919050565b600060208201905081810360008301526113b98161137d565b9050919050565b7f4e487b7100000000000000000000000000000000000000000000000000000000600052601160045260246000fd5b60006113fa826110c5565b9150611405836110c5565b925082820190508082111561141d5761141c6113c0565b5b92915050565b600061142e826110c5565b9150611439836110c5565b9250828203905081811115611451576114506113c0565b5b92915050565b7f696e737566666963656e742046756e6473000000000000000000000000000000600082015250565b600061148d601183610fbb565b915061149882611457565b602082019050919050565b600060208201905081810360008301526114bc81611480565b9050919050565b7f6e6f7420737566666963656e7420746f6b656e00000000000000000000000000600082015250565b60006114f9601383610fbb565b9150611504826114c3565b602082019050919050565b60006020820190508181036000830152611528816114ec565b9050919050565b7f6e6f7420656e6f75676820746f6b656e00000000000000000000000000000000600082015250565b6000611565601083610fbb565b91506115708261152f565b602082019050919050565b6000602082019050818103600083015261159481611558565b9050919050565b7f496e737566666963656e742046756e6473000000000000000000000000000000600082015250565b60006115d1601183610fbb565b91506115dc8261159b565b602082019050919050565b60006020820190508181036000830152611600816115c4565b905091905056fea2646970667358221220b8fe9eafa69c1237754b00e4af974d6ff756adc6c9ac19e2553e61843443dfd764736f6c63430008120033",
					"opcodes": "PUSH1 0x80 PUSH1 0x40 MSTORE PUSH1 0x40 MLOAD DUP1 PUSH1 0x40 ADD PUSH1 0x40 MSTORE DUP1 PUSH1 0x7 DUP2 MSTORE PUSH1 0x20 ADD PUSH32 0x766B546F6B656E00000000000000000000000000000000000000000000000000 DUP2 MSTORE POP PUSH1 0x0 SWAP1 DUP2 PUSH3 0x4A SWAP2 SWAP1 PUSH3 0x371 JUMP JUMPDEST POP PUSH1 0x40 MLOAD DUP1 PUSH1 0x40 ADD PUSH1 0x40 MSTORE DUP1 PUSH1 0x2 DUP2 MSTORE PUSH1 0x20 ADD PUSH32 0x766B000000000000000000000000000000000000000000000000000000000000 DUP2 MSTORE POP PUSH1 0x1 SWAP1 DUP2 PUSH3 0x91 SWAP2 SWAP1 PUSH3 0x371 JUMP JUMPDEST POP PUSH1 0xA PUSH1 0x2 SSTORE PUSH2 0x3E8 PUSH1 0x3 SSTORE CALLVALUE DUP1 ISZERO PUSH3 0xAA JUMPI PUSH1 0x0 DUP1 REVERT JUMPDEST POP PUSH2 0x3E8 PUSH1 0x4 PUSH1 0x0 CALLER PUSH20 0xFFFFFFFFFFFFFFFFFFFFFFFFFFFFFFFFFFFFFFFF AND PUSH20 0xFFFFFFFFFFFFFFFFFFFFFFFFFFFFFFFFFFFFFFFF AND DUP2 MSTORE PUSH1 0x20 ADD SWAP1 DUP2 MSTORE PUSH1 0x20 ADD PUSH1 0x0 KECCAK256 DUP2 SWAP1 SSTORE POP PUSH3 0x458 JUMP JUMPDEST PUSH1 0x0 DUP2 MLOAD SWAP1 POP SWAP2 SWAP1 POP JUMP JUMPDEST PUSH32 0x4E487B7100000000000000000000000000000000000000000000000000000000 PUSH1 0x0 MSTORE PUSH1 0x41 PUSH1 0x4 MSTORE PUSH1 0x24 PUSH1 0x0 REVERT JUMPDEST PUSH32 0x4E487B7100000000000000000000000000000000000000000000000000000000 PUSH1 0x0 MSTORE PUSH1 0x22 PUSH1 0x4 MSTORE PUSH1 0x24 PUSH1 0x0 REVERT JUMPDEST PUSH1 0x0 PUSH1 0x2 DUP3 DIV SWAP1 POP PUSH1 0x1 DUP3 AND DUP1 PUSH3 0x179 JUMPI PUSH1 0x7F DUP3 AND SWAP2 POP JUMPDEST PUSH1 0x20 DUP3 LT DUP2 SUB PUSH3 0x18F JUMPI PUSH3 0x18E PUSH3 0x131 JUMP JUMPDEST JUMPDEST POP SWAP2 SWAP1 POP JUMP JUMPDEST PUSH1 0x0 DUP2 SWAP1 POP DUP2 PUSH1 0x0 MSTORE PUSH1 0x20 PUSH1 0x0 KECCAK256 SWAP1 POP SWAP2 SWAP1 POP JUMP JUMPDEST PUSH1 0x0 PUSH1 0x20 PUSH1 0x1F DUP4 ADD DIV SWAP1 POP SWAP2 SWAP1 POP JUMP JUMPDEST PUSH1 0x0 DUP3 DUP3 SHL SWAP1 POP SWAP3 SWAP2 POP POP JUMP JUMPDEST PUSH1 0x0 PUSH1 0x8 DUP4 MUL PUSH3 0x1F9 PUSH32 0xFFFFFFFFFFFFFFFFFFFFFFFFFFFFFFFFFFFFFFFFFFFFFFFFFFFFFFFFFFFFFFFF DUP3 PUSH3 0x1BA JUMP JUMPDEST PUSH3 0x205 DUP7 DUP4 PUSH3 0x1BA JUMP JUMPDEST SWAP6 POP DUP1 NOT DUP5 AND SWAP4 POP DUP1 DUP7 AND DUP5 OR SWAP3 POP POP POP SWAP4 SWAP3 POP POP POP JUMP JUMPDEST PUSH1 0x0 DUP2 SWAP1 POP SWAP2 SWAP1 POP JUMP JUMPDEST PUSH1 0x0 DUP2 SWAP1 POP SWAP2 SWAP1 POP JUMP JUMPDEST PUSH1 0x0 PUSH3 0x252 PUSH3 0x24C PUSH3 0x246 DUP5 PUSH3 0x21D JUMP JUMPDEST PUSH3 0x227 JUMP JUMPDEST PUSH3 0x21D JUMP JUMPDEST SWAP1 POP SWAP2 SWAP1 POP JUMP JUMPDEST PUSH1 0x0 DUP2 SWAP1 POP SWAP2 SWAP1 POP JUMP JUMPDEST PUSH3 0x26E DUP4 PUSH3 0x231 JUMP JUMPDEST PUSH3 0x286 PUSH3 0x27D DUP3 PUSH3 0x259 JUMP JUMPDEST DUP5 DUP5 SLOAD PUSH3 0x1C7 JUMP JUMPDEST DUP3 SSTORE POP POP POP POP JUMP JUMPDEST PUSH1 0x0 SWAP1 JUMP JUMPDEST PUSH3 0x29D PUSH3 0x28E JUMP JUMPDEST PUSH3 0x2AA DUP2 DUP5 DUP5 PUSH3 0x263 JUMP JUMPDEST POP POP POP JUMP JUMPDEST JUMPDEST DUP2 DUP2 LT ISZERO PUSH3 0x2D2 JUMPI PUSH3 0x2C6 PUSH1 0x0 DUP3 PUSH3 0x293 JUMP JUMPDEST PUSH1 0x1 DUP2 ADD SWAP1 POP PUSH3 0x2B0 JUMP JUMPDEST POP POP JUMP JUMPDEST PUSH1 0x1F DUP3 GT ISZERO PUSH3 0x321 JUMPI PUSH3 0x2EB DUP2 PUSH3 0x195 JUMP JUMPDEST PUSH3 0x2F6 DUP5 PUSH3 0x1AA JUMP JUMPDEST DUP2 ADD PUSH1 0x20 DUP6 LT ISZERO PUSH3 0x306 JUMPI DUP2 SWAP1 POP JUMPDEST PUSH3 0x31E PUSH3 0x315 DUP6 PUSH3 0x1AA JUMP JUMPDEST DUP4 ADD DUP3 PUSH3 0x2AF JUMP JUMPDEST POP POP JUMPDEST POP POP POP JUMP JUMPDEST PUSH1 0x0 DUP3 DUP3 SHR SWAP1 POP SWAP3 SWAP2 POP POP JUMP JUMPDEST PUSH1 0x0 PUSH3 0x346 PUSH1 0x0 NOT DUP5 PUSH1 0x8 MUL PUSH3 0x326 JUMP JUMPDEST NOT DUP1 DUP4 AND SWAP2 POP POP SWAP3 SWAP2 POP POP JUMP JUMPDEST PUSH1 0x0 PUSH3 0x361 DUP4 DUP4 PUSH3 0x333 JUMP JUMPDEST SWAP2 POP DUP3 PUSH1 0x2 MUL DUP3 OR SWAP1 POP SWAP3 SWAP2 POP POP JUMP JUMPDEST PUSH3 0x37C DUP3 PUSH3 0xF7 JUMP JUMPDEST PUSH8 0xFFFFFFFFFFFFFFFF DUP2 GT ISZERO PUSH3 0x398 JUMPI PUSH3 0x397 PUSH3 0x102 JUMP JUMPDEST JUMPDEST PUSH3 0x3A4 DUP3 SLOAD PUSH3 0x160 JUMP JUMPDEST PUSH3 0x3B1 DUP3 DUP3 DUP6 PUSH3 0x2D6 JUMP JUMPDEST PUSH1 0x0 PUSH1 0x20 SWAP1 POP PUSH1 0x1F DUP4 GT PUSH1 0x1 DUP2 EQ PUSH3 0x3E9 JUMPI PUSH1 0x0 DUP5 ISZERO PUSH3 0x3D4 JUMPI DUP3 DUP8 ADD MLOAD SWAP1 POP JUMPDEST PUSH3 0x3E0 DUP6 DUP3 PUSH3 0x353 JUMP JUMPDEST DUP7 SSTORE POP PUSH3 0x450 JUMP JUMPDEST PUSH1 0x1F NOT DUP5 AND PUSH3 0x3F9 DUP7 PUSH3 0x195 JUMP JUMPDEST PUSH1 0x0 JUMPDEST DUP3 DUP2 LT ISZERO PUSH3 0x423 JUMPI DUP5 DUP10 ADD MLOAD DUP3 SSTORE PUSH1 0x1 DUP3 ADD SWAP2 POP PUSH1 0x20 DUP6 ADD SWAP5 POP PUSH1 0x20 DUP2 ADD SWAP1 POP PUSH3 0x3FC JUMP JUMPDEST DUP7 DUP4 LT ISZERO PUSH3 0x443 JUMPI DUP5 DUP10 ADD MLOAD PUSH3 0x43F PUSH1 0x1F DUP10 AND DUP3 PUSH3 0x333 JUMP JUMPDEST DUP4 SSTORE POP JUMPDEST PUSH1 0x1 PUSH1 0x2 DUP9 MUL ADD DUP9 SSTORE POP POP POP JUMPDEST POP POP POP POP POP POP JUMP JUMPDEST PUSH2 0x163D DUP1 PUSH3 0x468 PUSH1 0x0 CODECOPY PUSH1 0x0 RETURN INVALID PUSH1 0x80 PUSH1 0x40 MSTORE PUSH1 0x4 CALLDATASIZE LT PUSH2 0xF3 JUMPI PUSH1 0x0 CALLDATALOAD PUSH1 0xE0 SHR DUP1 PUSH4 0x819993F2 GT PUSH2 0x8A JUMPI DUP1 PUSH4 0xAB6859BA GT PUSH2 0x59 JUMPI DUP1 PUSH4 0xAB6859BA EQ PUSH2 0x364 JUMPI DUP1 PUSH4 0xC40EF575 EQ PUSH2 0x38F JUMPI DUP1 PUSH4 0xD0E30DB0 EQ PUSH2 0x3CC JUMPI DUP1 PUSH4 0xF14210A6 EQ PUSH2 0x3D6 JUMPI PUSH2 0xF3 JUMP JUMPDEST DUP1 PUSH4 0x819993F2 EQ PUSH2 0x282 JUMPI DUP1 PUSH4 0x95D89B41 EQ PUSH2 0x2BF JUMPI DUP1 PUSH4 0xA77A8230 EQ PUSH2 0x2EA JUMPI DUP1 PUSH4 0xA9059CBB EQ PUSH2 0x327 JUMPI PUSH2 0xF3 JUMP JUMPDEST DUP1 PUSH4 0x50BAA622 GT PUSH2 0xC6 JUMPI DUP1 PUSH4 0x50BAA622 EQ PUSH2 0x1C8 JUMPI DUP1 PUSH4 0x6215BE77 EQ PUSH2 0x1F1 JUMPI DUP1 PUSH4 0x62A35D72 EQ PUSH2 0x21A JUMPI DUP1 PUSH4 0x76809CE3 EQ PUSH2 0x257 JUMPI PUSH2 0xF3 JUMP JUMPDEST DUP1 PUSH4 0x6FDDE03 EQ PUSH2 0xF8 JUMPI DUP1 PUSH4 0x95EA7B3 EQ PUSH2 0x123 JUMPI DUP1 PUSH4 0x18160DDD EQ PUSH2 0x160 JUMPI DUP1 PUSH4 0x23B872DD EQ PUSH2 0x18B JUMPI JUMPDEST PUSH1 0x0 DUP1 REVERT JUMPDEST CALLVALUE DUP1 ISZERO PUSH2 0x104 JUMPI PUSH1 0x0 DUP1 REVERT JUMPDEST POP PUSH2 0x10D PUSH2 0x3FF JUMP JUMPDEST PUSH1 0x40 MLOAD PUSH2 0x11A SWAP2 SWAP1 PUSH2 0x1040 JUMP JUMPDEST PUSH1 0x40 MLOAD DUP1 SWAP2 SUB SWAP1 RETURN JUMPDEST CALLVALUE DUP1 ISZERO PUSH2 0x12F JUMPI PUSH1 0x0 DUP1 REVERT JUMPDEST POP PUSH2 0x14A PUSH1 0x4 DUP1 CALLDATASIZE SUB DUP2 ADD SWAP1 PUSH2 0x145 SWAP2 SWAP1 PUSH2 0x10FB JUMP JUMPDEST PUSH2 0x48D JUMP JUMPDEST PUSH1 0x40 MLOAD PUSH2 0x157 SWAP2 SWAP1 PUSH2 0x1156 JUMP JUMPDEST PUSH1 0x40 MLOAD DUP1 SWAP2 SUB SWAP1 RETURN JUMPDEST CALLVALUE DUP1 ISZERO PUSH2 0x16C JUMPI PUSH1 0x0 DUP1 REVERT JUMPDEST POP PUSH2 0x175 PUSH2 0x57F JUMP JUMPDEST PUSH1 0x40 MLOAD PUSH2 0x182 SWAP2 SWAP1 PUSH2 0x1180 JUMP JUMPDEST PUSH1 0x40 MLOAD DUP1 SWAP2 SUB SWAP1 RETURN JUMPDEST CALLVALUE DUP1 ISZERO PUSH2 0x197 JUMPI PUSH1 0x0 DUP1 REVERT JUMPDEST POP PUSH2 0x1B2 PUSH1 0x4 DUP1 CALLDATASIZE SUB DUP2 ADD SWAP1 PUSH2 0x1AD SWAP2 SWAP1 PUSH2 0x119B JUMP JUMPDEST PUSH2 0x585 JUMP JUMPDEST PUSH1 0x40 MLOAD PUSH2 0x1BF SWAP2 SWAP1 PUSH2 0x1156 JUMP JUMPDEST PUSH1 0x40 MLOAD DUP1 SWAP2 SUB SWAP1 RETURN JUMPDEST CALLVALUE DUP1 ISZERO PUSH2 0x1D4 JUMPI PUSH1 0x0 DUP1 REVERT JUMPDEST POP PUSH2 0x1EF PUSH1 0x4 DUP1 CALLDATASIZE SUB DUP2 ADD SWAP1 PUSH2 0x1EA SWAP2 SWAP1 PUSH2 0x11EE JUMP JUMPDEST PUSH2 0x812 JUMP JUMPDEST STOP JUMPDEST CALLVALUE DUP1 ISZERO PUSH2 0x1FD JUMPI PUSH1 0x0 DUP1 REVERT JUMPDEST POP PUSH2 0x218 PUSH1 0x4 DUP1 CALLDATASIZE SUB DUP2 ADD SWAP1 PUSH2 0x213 SWAP2 SWAP1 PUSH2 0x11EE JUMP JUMPDEST PUSH2 0x998 JUMP JUMPDEST STOP JUMPDEST CALLVALUE DUP1 ISZERO PUSH2 0x226 JUMPI PUSH1 0x0 DUP1 REVERT JUMPDEST POP PUSH2 0x241 PUSH1 0x4 DUP1 CALLDATASIZE SUB DUP2 ADD SWAP1 PUSH2 0x23C SWAP2 SWAP1 PUSH2 0x121B JUMP JUMPDEST PUSH2 0xB1E JUMP JUMPDEST PUSH1 0x40 MLOAD PUSH2 0x24E SWAP2 SWAP1 PUSH2 0x1180 JUMP JUMPDEST PUSH1 0x40 MLOAD DUP1 SWAP2 SUB SWAP1 RETURN JUMPDEST CALLVALUE DUP1 ISZERO PUSH2 0x263 JUMPI PUSH1 0x0 DUP1 REVERT JUMPDEST POP PUSH2 0x26C PUSH2 0xB67 JUMP JUMPDEST PUSH1 0x40 MLOAD PUSH2 0x279 SWAP2 SWAP1 PUSH2 0x1180 JUMP JUMPDEST PUSH1 0x40 MLOAD DUP1 SWAP2 SUB SWAP1 RETURN JUMPDEST CALLVALUE DUP1 ISZERO PUSH2 0x28E JUMPI PUSH1 0x0 DUP1 REVERT JUMPDEST POP PUSH2 0x2A9 PUSH1 0x4 DUP1 CALLDATASIZE SUB DUP2 ADD SWAP1 PUSH2 0x2A4 SWAP2 SWAP1 PUSH2 0x121B JUMP JUMPDEST PUSH2 0xB6D JUMP JUMPDEST PUSH1 0x40 MLOAD PUSH2 0x2B6 SWAP2 SWAP1 PUSH2 0x1180 JUMP JUMPDEST PUSH1 0x40 MLOAD DUP1 SWAP2 SUB SWAP1 RETURN JUMPDEST CALLVALUE DUP1 ISZERO PUSH2 0x2CB JUMPI PUSH1 0x0 DUP1 REVERT JUMPDEST POP PUSH2 0x2D4 PUSH2 0xB85 JUMP JUMPDEST PUSH1 0x40 MLOAD PUSH2 0x2E1 SWAP2 SWAP1 PUSH2 0x1040 JUMP JUMPDEST PUSH1 0x40 MLOAD DUP1 SWAP2 SUB SWAP1 RETURN JUMPDEST CALLVALUE DUP1 ISZERO PUSH2 0x2F6 JUMPI PUSH1 0x0 DUP1 REVERT JUMPDEST POP PUSH2 0x311 PUSH1 0x4 DUP1 CALLDATASIZE SUB DUP2 ADD SWAP1 PUSH2 0x30C SWAP2 SWAP1 PUSH2 0x1248 JUMP JUMPDEST PUSH2 0xC13 JUMP JUMPDEST PUSH1 0x40 MLOAD PUSH2 0x31E SWAP2 SWAP1 PUSH2 0x1180 JUMP JUMPDEST PUSH1 0x40 MLOAD DUP1 SWAP2 SUB SWAP1 RETURN JUMPDEST CALLVALUE DUP1 ISZERO PUSH2 0x333 JUMPI PUSH1 0x0 DUP1 REVERT JUMPDEST POP PUSH2 0x34E PUSH1 0x4 DUP1 CALLDATASIZE SUB DUP2 ADD SWAP1 PUSH2 0x349 SWAP2 SWAP1 PUSH2 0x10FB JUMP JUMPDEST PUSH2 0xC38 JUMP JUMPDEST PUSH1 0x40 MLOAD PUSH2 0x35B SWAP2 SWAP1 PUSH2 0x1156 JUMP JUMPDEST PUSH1 0x40 MLOAD DUP1 SWAP2 SUB SWAP1 RETURN JUMPDEST CALLVALUE DUP1 ISZERO PUSH2 0x370 JUMPI PUSH1 0x0 DUP1 REVERT JUMPDEST POP PUSH2 0x379 PUSH2 0xDD7 JUMP JUMPDEST PUSH1 0x40 MLOAD PUSH2 0x386 SWAP2 SWAP1 PUSH2 0x1180 JUMP JUMPDEST PUSH1 0x40 MLOAD DUP1 SWAP2 SUB SWAP1 RETURN JUMPDEST CALLVALUE DUP1 ISZERO PUSH2 0x39B JUMPI PUSH1 0x0 DUP1 REVERT JUMPDEST POP PUSH2 0x3B6 PUSH1 0x4 DUP1 CALLDATASIZE SUB DUP2 ADD SWAP1 PUSH2 0x3B1 SWAP2 SWAP1 PUSH2 0x121B JUMP JUMPDEST PUSH2 0xE1E JUMP JUMPDEST PUSH1 0x40 MLOAD PUSH2 0x3C3 SWAP2 SWAP1 PUSH2 0x1180 JUMP JUMPDEST PUSH1 0x40 MLOAD DUP1 SWAP2 SUB SWAP1 RETURN JUMPDEST PUSH2 0x3D4 PUSH2 0xE36 JUMP JUMPDEST STOP JUMPDEST CALLVALUE DUP1 ISZERO PUSH2 0x3E2 JUMPI PUSH1 0x0 DUP1 REVERT JUMPDEST POP PUSH2 0x3FD PUSH1 0x4 DUP1 CALLDATASIZE SUB DUP2 ADD SWAP1 PUSH2 0x3F8 SWAP2 SWAP1 PUSH2 0x11EE JUMP JUMPDEST PUSH2 0xE8E JUMP JUMPDEST STOP JUMPDEST PUSH1 0x0 DUP1 SLOAD PUSH2 0x40C SWAP1 PUSH2 0x12B7 JUMP JUMPDEST DUP1 PUSH1 0x1F ADD PUSH1 0x20 DUP1 SWAP2 DIV MUL PUSH1 0x20 ADD PUSH1 0x40 MLOAD SWAP1 DUP2 ADD PUSH1 0x40 MSTORE DUP1 SWAP3 SWAP2 SWAP1 DUP2 DUP2 MSTORE PUSH1 0x20 ADD DUP3 DUP1 SLOAD PUSH2 0x438 SWAP1 PUSH2 0x12B7 JUMP JUMPDEST DUP1 ISZERO PUSH2 0x485 JUMPI DUP1 PUSH1 0x1F LT PUSH2 0x45A JUMPI PUSH2 0x100 DUP1 DUP4 SLOAD DIV MUL DUP4 MSTORE SWAP2 PUSH1 0x20 ADD SWAP2 PUSH2 0x485 JUMP JUMPDEST DUP3 ADD SWAP2 SWAP1 PUSH1 0x0 MSTORE PUSH1 0x20 PUSH1 0x0 KECCAK256 SWAP1 JUMPDEST DUP2 SLOAD DUP2 MSTORE SWAP1 PUSH1 0x1 ADD SWAP1 PUSH1 0x20 ADD DUP1 DUP4 GT PUSH2 0x468 JUMPI DUP3 SWAP1 SUB PUSH1 0x1F AND DUP3 ADD SWAP2 JUMPDEST POP POP POP POP POP DUP2 JUMP JUMPDEST PUSH1 0x0 DUP2 PUSH1 0x7 PUSH1 0x0 CALLER PUSH20 0xFFFFFFFFFFFFFFFFFFFFFFFFFFFFFFFFFFFFFFFF AND PUSH20 0xFFFFFFFFFFFFFFFFFFFFFFFFFFFFFFFFFFFFFFFF AND DUP2 MSTORE PUSH1 0x20 ADD SWAP1 DUP2 MSTORE PUSH1 0x20 ADD PUSH1 0x0 KECCAK256 PUSH1 0x0 DUP6 PUSH20 0xFFFFFFFFFFFFFFFFFFFFFFFFFFFFFFFFFFFFFFFF AND PUSH20 0xFFFFFFFFFFFFFFFFFFFFFFFFFFFFFFFFFFFFFFFF AND DUP2 MSTORE PUSH1 0x20 ADD SWAP1 DUP2 MSTORE PUSH1 0x20 ADD PUSH1 0x0 KECCAK256 DUP2 SWAP1 SSTORE POP DUP3 PUSH20 0xFFFFFFFFFFFFFFFFFFFFFFFFFFFFFFFFFFFFFFFF AND CALLER PUSH20 0xFFFFFFFFFFFFFFFFFFFFFFFFFFFFFFFFFFFFFFFF AND PUSH32 0x8C5BE1E5EBEC7D5BD14F71427D1E84F3DD0314C0F7B2291E5B200AC8C7C3B925 DUP5 PUSH1 0x40 MLOAD PUSH2 0x56D SWAP2 SWAP1 PUSH2 0x1180 JUMP JUMPDEST PUSH1 0x40 MLOAD DUP1 SWAP2 SUB SWAP1 LOG3 PUSH1 0x1 SWAP1 POP SWAP3 SWAP2 POP POP JUMP JUMPDEST PUSH1 0x3 SLOAD DUP2 JUMP JUMPDEST PUSH1 0x0 DUP2 PUSH1 0x7 PUSH1 0x0 DUP7 PUSH20 0xFFFFFFFFFFFFFFFFFFFFFFFFFFFFFFFFFFFFFFFF AND PUSH20 0xFFFFFFFFFFFFFFFFFFFFFFFFFFFFFFFFFFFFFFFF AND DUP2 MSTORE PUSH1 0x20 ADD SWAP1 DUP2 MSTORE PUSH1 0x20 ADD PUSH1 0x0 KECCAK256 PUSH1 0x0 CALLER PUSH20 0xFFFFFFFFFFFFFFFFFFFFFFFFFFFFFFFFFFFFFFFF AND PUSH20 0xFFFFFFFFFFFFFFFFFFFFFFFFFFFFFFFFFFFFFFFF AND DUP2 MSTORE PUSH1 0x20 ADD SWAP1 DUP2 MSTORE PUSH1 0x20 ADD PUSH1 0x0 KECCAK256 SLOAD LT ISZERO PUSH2 0x646 JUMPI PUSH1 0x40 MLOAD PUSH32 0x8C379A000000000000000000000000000000000000000000000000000000000 DUP2 MSTORE PUSH1 0x4 ADD PUSH2 0x63D SWAP1 PUSH2 0x1334 JUMP JUMPDEST PUSH1 0x40 MLOAD DUP1 SWAP2 SUB SWAP1 REVERT JUMPDEST DUP2 PUSH1 0x4 PUSH1 0x0 DUP7 PUSH20 0xFFFFFFFFFFFFFFFFFFFFFFFFFFFFFFFFFFFFFFFF AND PUSH20 0xFFFFFFFFFFFFFFFFFFFFFFFFFFFFFFFFFFFFFFFF AND DUP2 MSTORE PUSH1 0x20 ADD SWAP1 DUP2 MSTORE PUSH1 0x20 ADD PUSH1 0x0 KECCAK256 SLOAD LT ISZERO PUSH2 0x6C8 JUMPI PUSH1 0x40 MLOAD PUSH32 0x8C379A000000000000000000000000000000000000000000000000000000000 DUP2 MSTORE PUSH1 0x4 ADD PUSH2 0x6BF SWAP1 PUSH2 0x13A0 JUMP JUMPDEST PUSH1 0x40 MLOAD DUP1 SWAP2 SUB SWAP1 REVERT JUMPDEST DUP2 PUSH1 0x4 PUSH1 0x0 DUP6 PUSH20 0xFFFFFFFFFFFFFFFFFFFFFFFFFFFFFFFFFFFFFFFF AND PUSH20 0xFFFFFFFFFFFFFFFFFFFFFFFFFFFFFFFFFFFFFFFF AND DUP2 MSTORE PUSH1 0x20 ADD SWAP1 DUP2 MSTORE PUSH1 0x20 ADD PUSH1 0x0 KECCAK256 PUSH1 0x0 DUP3 DUP3 SLOAD PUSH2 0x717 SWAP2 SWAP1 PUSH2 0x13EF JUMP JUMPDEST SWAP3 POP POP DUP2 SWAP1 SSTORE POP DUP2 PUSH1 0x4 PUSH1 0x0 DUP7 PUSH20 0xFFFFFFFFFFFFFFFFFFFFFFFFFFFFFFFFFFFFFFFF AND PUSH20 0xFFFFFFFFFFFFFFFFFFFFFFFFFFFFFFFFFFFFFFFF AND DUP2 MSTORE PUSH1 0x20 ADD SWAP1 DUP2 MSTORE PUSH1 0x20 ADD PUSH1 0x0 KECCAK256 PUSH1 0x0 DUP3 DUP3 SLOAD PUSH2 0x76D SWAP2 SWAP1 PUSH2 0x1423 JUMP JUMPDEST SWAP3 POP POP DUP2 SWAP1 SSTORE POP DUP2 PUSH1 0x7 PUSH1 0x0 DUP7 PUSH20 0xFFFFFFFFFFFFFFFFFFFFFFFFFFFFFFFFFFFFFFFF AND PUSH20 0xFFFFFFFFFFFFFFFFFFFFFFFFFFFFFFFFFFFFFFFF AND DUP2 MSTORE PUSH1 0x20 ADD SWAP1 DUP2 MSTORE PUSH1 0x20 ADD PUSH1 0x0 KECCAK256 PUSH1 0x0 CALLER PUSH20 0xFFFFFFFFFFFFFFFFFFFFFFFFFFFFFFFFFFFFFFFF AND PUSH20 0xFFFFFFFFFFFFFFFFFFFFFFFFFFFFFFFFFFFFFFFF AND DUP2 MSTORE PUSH1 0x20 ADD SWAP1 DUP2 MSTORE PUSH1 0x20 ADD PUSH1 0x0 KECCAK256 PUSH1 0x0 DUP3 DUP3 SLOAD PUSH2 0x800 SWAP2 SWAP1 PUSH2 0x1423 JUMP JUMPDEST SWAP3 POP POP DUP2 SWAP1 SSTORE POP PUSH1 0x1 SWAP1 POP SWAP4 SWAP3 POP POP POP JUMP JUMPDEST DUP1 PUSH1 0x5 PUSH1 0x0 CALLER PUSH20 0xFFFFFFFFFFFFFFFFFFFFFFFFFFFFFFFFFFFFFFFF AND PUSH20 0xFFFFFFFFFFFFFFFFFFFFFFFFFFFFFFFFFFFFFFFF AND DUP2 MSTORE PUSH1 0x20 ADD SWAP1 DUP2 MSTORE PUSH1 0x20 ADD PUSH1 0x0 KECCAK256 SLOAD GT PUSH2 0x893 JUMPI PUSH1 0x40 MLOAD PUSH32 0x8C379A000000000000000000000000000000000000000000000000000000000 DUP2 MSTORE PUSH1 0x4 ADD PUSH2 0x88A SWAP1 PUSH2 0x14A3 JUMP JUMPDEST PUSH1 0x40 MLOAD DUP1 SWAP2 SUB SWAP1 REVERT JUMPDEST DUP1 PUSH1 0x6 PUSH1 0x0 ADDRESS PUSH20 0xFFFFFFFFFFFFFFFFFFFFFFFFFFFFFFFFFFFFFFFF AND PUSH20 0xFFFFFFFFFFFFFFFFFFFFFFFFFFFFFFFFFFFFFFFF AND DUP2 MSTORE PUSH1 0x20 ADD SWAP1 DUP2 MSTORE PUSH1 0x20 ADD PUSH1 0x0 KECCAK256 PUSH1 0x0 DUP3 DUP3 SLOAD PUSH2 0x8E2 SWAP2 SWAP1 PUSH2 0x1423 JUMP JUMPDEST SWAP3 POP POP DUP2 SWAP1 SSTORE POP DUP1 PUSH1 0x5 PUSH1 0x0 CALLER PUSH20 0xFFFFFFFFFFFFFFFFFFFFFFFFFFFFFFFFFFFFFFFF AND PUSH20 0xFFFFFFFFFFFFFFFFFFFFFFFFFFFFFFFFFFFFFFFF AND DUP2 MSTORE PUSH1 0x20 ADD SWAP1 DUP2 MSTORE PUSH1 0x20 ADD PUSH1 0x0 KECCAK256 PUSH1 0x0 DUP3 DUP3 SLOAD PUSH2 0x938 SWAP2 SWAP1 PUSH2 0x1423 JUMP JUMPDEST SWAP3 POP POP DUP2 SWAP1 SSTORE POP DUP1 PUSH1 0x4 PUSH1 0x0 CALLER PUSH20 0xFFFFFFFFFFFFFFFFFFFFFFFFFFFFFFFFFFFFFFFF AND PUSH20 0xFFFFFFFFFFFFFFFFFFFFFFFFFFFFFFFFFFFFFFFF AND DUP2 MSTORE PUSH1 0x20 ADD SWAP1 DUP2 MSTORE PUSH1 0x20 ADD PUSH1 0x0 KECCAK256 PUSH1 0x0 DUP3 DUP3 SLOAD PUSH2 0x98E SWAP2 SWAP1 PUSH2 0x13EF JUMP JUMPDEST SWAP3 POP POP DUP2 SWAP1 SSTORE POP POP JUMP JUMPDEST DUP1 PUSH1 0x4 PUSH1 0x0 CALLER PUSH20 0xFFFFFFFFFFFFFFFFFFFFFFFFFFFFFFFFFFFFFFFF AND PUSH20 0xFFFFFFFFFFFFFFFFFFFFFFFFFFFFFFFFFFFFFFFF AND DUP2 MSTORE PUSH1 0x20 ADD SWAP1 DUP2 MSTORE PUSH1 0x20 ADD PUSH1 0x0 KECCAK256 SLOAD GT PUSH2 0xA19 JUMPI PUSH1 0x40 MLOAD PUSH32 0x8C379A000000000000000000000000000000000000000000000000000000000 DUP2 MSTORE PUSH1 0x4 ADD PUSH2 0xA10 SWAP1 PUSH2 0x150F JUMP JUMPDEST PUSH1 0x40 MLOAD DUP1 SWAP2 SUB SWAP1 REVERT JUMPDEST DUP1 PUSH1 0x4 PUSH1 0x0 CALLER PUSH20 0xFFFFFFFFFFFFFFFFFFFFFFFFFFFFFFFFFFFFFFFF AND PUSH20 0xFFFFFFFFFFFFFFFFFFFFFFFFFFFFFFFFFFFFFFFF AND DUP2 MSTORE PUSH1 0x20 ADD SWAP1 DUP2 MSTORE PUSH1 0x20 ADD PUSH1 0x0 KECCAK256 PUSH1 0x0 DUP3 DUP3 SLOAD PUSH2 0xA68 SWAP2 SWAP1 PUSH2 0x1423 JUMP JUMPDEST SWAP3 POP POP DUP2 SWAP1 SSTORE POP DUP1 PUSH1 0x6 PUSH1 0x0 ADDRESS PUSH20 0xFFFFFFFFFFFFFFFFFFFFFFFFFFFFFFFFFFFFFFFF AND PUSH20 0xFFFFFFFFFFFFFFFFFFFFFFFFFFFFFFFFFFFFFFFF AND DUP2 MSTORE PUSH1 0x20 ADD SWAP1 DUP2 MSTORE PUSH1 0x20 ADD PUSH1 0x0 KECCAK256 PUSH1 0x0 DUP3 DUP3 SLOAD PUSH2 0xABE SWAP2 SWAP1 PUSH2 0x13EF JUMP JUMPDEST SWAP3 POP POP DUP2 SWAP1 SSTORE POP DUP1 PUSH1 0x5 PUSH1 0x0 CALLER PUSH20 0xFFFFFFFFFFFFFFFFFFFFFFFFFFFFFFFFFFFFFFFF AND PUSH20 0xFFFFFFFFFFFFFFFFFFFFFFFFFFFFFFFFFFFFFFFF AND DUP2 MSTORE PUSH1 0x20 ADD SWAP1 DUP2 MSTORE PUSH1 0x20 ADD PUSH1 0x0 KECCAK256 PUSH1 0x0 DUP3 DUP3 SLOAD PUSH2 0xB14 SWAP2 SWAP1 PUSH2 0x13EF JUMP JUMPDEST SWAP3 POP POP DUP2 SWAP1 SSTORE POP POP JUMP JUMPDEST PUSH1 0x0 PUSH1 0x8 PUSH1 0x0 DUP4 PUSH20 0xFFFFFFFFFFFFFFFFFFFFFFFFFFFFFFFFFFFFFFFF AND PUSH20 0xFFFFFFFFFFFFFFFFFFFFFFFFFFFFFFFFFFFFFFFF AND DUP2 MSTORE PUSH1 0x20 ADD SWAP1 DUP2 MSTORE PUSH1 0x20 ADD PUSH1 0x0 KECCAK256 SLOAD SWAP1 POP SWAP2 SWAP1 POP JUMP JUMPDEST PUSH1 0x2 SLOAD DUP2 JUMP JUMPDEST PUSH1 0x4 PUSH1 0x20 MSTORE DUP1 PUSH1 0x0 MSTORE PUSH1 0x40 PUSH1 0x0 KECCAK256 PUSH1 0x0 SWAP2 POP SWAP1 POP SLOAD DUP2 JUMP JUMPDEST PUSH1 0x1 DUP1 SLOAD PUSH2 0xB92 SWAP1 PUSH2 0x12B7 JUMP JUMPDEST DUP1 PUSH1 0x1F ADD PUSH1 0x20 DUP1 SWAP2 DIV MUL PUSH1 0x20 ADD PUSH1 0x40 MLOAD SWAP1 DUP2 ADD PUSH1 0x40 MSTORE DUP1 SWAP3 SWAP2 SWAP1 DUP2 DUP2 MSTORE PUSH1 0x20 ADD DUP3 DUP1 SLOAD PUSH2 0xBBE SWAP1 PUSH2 0x12B7 JUMP JUMPDEST DUP1 ISZERO PUSH2 0xC0B JUMPI DUP1 PUSH1 0x1F LT PUSH2 0xBE0 JUMPI PUSH2 0x100 DUP1 DUP4 SLOAD DIV MUL DUP4 MSTORE SWAP2 PUSH1 0x20 ADD SWAP2 PUSH2 0xC0B JUMP JUMPDEST DUP3 ADD SWAP2 SWAP1 PUSH1 0x0 MSTORE PUSH1 0x20 PUSH1 0x0 KECCAK256 SWAP1 JUMPDEST DUP2 SLOAD DUP2 MSTORE SWAP1 PUSH1 0x1 ADD SWAP1 PUSH1 0x20 ADD DUP1 DUP4 GT PUSH2 0xBEE JUMPI DUP3 SWAP1 SUB PUSH1 0x1F AND DUP3 ADD SWAP2 JUMPDEST POP POP POP POP POP DUP2 JUMP JUMPDEST PUSH1 0x7 PUSH1 0x20 MSTORE DUP2 PUSH1 0x0 MSTORE PUSH1 0x40 PUSH1 0x0 KECCAK256 PUSH1 0x20 MSTORE DUP1 PUSH1 0x0 MSTORE PUSH1 0x40 PUSH1 0x0 KECCAK256 PUSH1 0x0 SWAP2 POP SWAP2 POP POP SLOAD DUP2 JUMP JUMPDEST PUSH1 0x0 PUSH1 0x4 PUSH1 0x0 CALLER PUSH20 0xFFFFFFFFFFFFFFFFFFFFFFFFFFFFFFFFFFFFFFFF AND PUSH20 0xFFFFFFFFFFFFFFFFFFFFFFFFFFFFFFFFFFFFFFFF AND DUP2 MSTORE PUSH1 0x20 ADD SWAP1 DUP2 MSTORE PUSH1 0x20 ADD PUSH1 0x0 KECCAK256 SLOAD DUP3 GT ISZERO PUSH2 0xCBC JUMPI PUSH1 0x40 MLOAD PUSH32 0x8C379A000000000000000000000000000000000000000000000000000000000 DUP2 MSTORE PUSH1 0x4 ADD PUSH2 0xCB3 SWAP1 PUSH2 0x157B JUMP JUMPDEST PUSH1 0x40 MLOAD DUP1 SWAP2 SUB SWAP1 REVERT JUMPDEST DUP2 PUSH1 0x4 PUSH1 0x0 CALLER PUSH20 0xFFFFFFFFFFFFFFFFFFFFFFFFFFFFFFFFFFFFFFFF AND PUSH20 0xFFFFFFFFFFFFFFFFFFFFFFFFFFFFFFFFFFFFFFFF AND DUP2 MSTORE PUSH1 0x20 ADD SWAP1 DUP2 MSTORE PUSH1 0x20 ADD PUSH1 0x0 KECCAK256 PUSH1 0x0 DUP3 DUP3 SLOAD PUSH2 0xD0B SWAP2 SWAP1 PUSH2 0x1423 JUMP JUMPDEST SWAP3 POP POP DUP2 SWAP1 SSTORE POP DUP2 PUSH1 0x4 PUSH1 0x0 DUP6 PUSH20 0xFFFFFFFFFFFFFFFFFFFFFFFFFFFFFFFFFFFFFFFF AND PUSH20 0xFFFFFFFFFFFFFFFFFFFFFFFFFFFFFFFFFFFFFFFF AND DUP2 MSTORE PUSH1 0x20 ADD SWAP1 DUP2 MSTORE PUSH1 0x20 ADD PUSH1 0x0 KECCAK256 PUSH1 0x0 DUP3 DUP3 SLOAD PUSH2 0xD61 SWAP2 SWAP1 PUSH2 0x13EF JUMP JUMPDEST SWAP3 POP POP DUP2 SWAP1 SSTORE POP DUP3 PUSH20 0xFFFFFFFFFFFFFFFFFFFFFFFFFFFFFFFFFFFFFFFF AND CALLER PUSH20 0xFFFFFFFFFFFFFFFFFFFFFFFFFFFFFFFFFFFFFFFF AND PUSH32 0xDDF252AD1BE2C89B69C2B068FC378DAA952BA7F163C4A11628F55A4DF523B3EF DUP5 PUSH1 0x40 MLOAD PUSH2 0xDC5 SWAP2 SWAP1 PUSH2 0x1180 JUMP JUMPDEST PUSH1 0x40 MLOAD DUP1 SWAP2 SUB SWAP1 LOG3 PUSH1 0x1 SWAP1 POP SWAP3 SWAP2 POP POP JUMP JUMPDEST PUSH1 0x0 PUSH1 0x6 PUSH1 0x0 ADDRESS PUSH20 0xFFFFFFFFFFFFFFFFFFFFFFFFFFFFFFFFFFFFFFFF AND PUSH20 0xFFFFFFFFFFFFFFFFFFFFFFFFFFFFFFFFFFFFFFFF AND DUP2 MSTORE PUSH1 0x20 ADD SWAP1 DUP2 MSTORE PUSH1 0x20 ADD PUSH1 0x0 KECCAK256 SLOAD SWAP1 POP SWAP1 JUMP JUMPDEST PUSH1 0x5 PUSH1 0x20 MSTORE DUP1 PUSH1 0x0 MSTORE PUSH1 0x40 PUSH1 0x0 KECCAK256 PUSH1 0x0 SWAP2 POP SWAP1 POP SLOAD DUP2 JUMP JUMPDEST CALLVALUE PUSH1 0x8 PUSH1 0x0 CALLER PUSH20 0xFFFFFFFFFFFFFFFFFFFFFFFFFFFFFFFFFFFFFFFF AND PUSH20 0xFFFFFFFFFFFFFFFFFFFFFFFFFFFFFFFFFFFFFFFF AND DUP2 MSTORE PUSH1 0x20 ADD SWAP1 DUP2 MSTORE PUSH1 0x20 ADD PUSH1 0x0 KECCAK256 PUSH1 0x0 DUP3 DUP3 SLOAD PUSH2 0xE85 SWAP2 SWAP1 PUSH2 0x13EF JUMP JUMPDEST SWAP3 POP POP DUP2 SWAP1 SSTORE POP JUMP JUMPDEST DUP1 PUSH1 0x8 PUSH1 0x0 CALLER PUSH20 0xFFFFFFFFFFFFFFFFFFFFFFFFFFFFFFFFFFFFFFFF AND PUSH20 0xFFFFFFFFFFFFFFFFFFFFFFFFFFFFFFFFFFFFFFFF AND DUP2 MSTORE PUSH1 0x20 ADD SWAP1 DUP2 MSTORE PUSH1 0x20 ADD PUSH1 0x0 KECCAK256 SLOAD LT ISZERO PUSH2 0xF10 JUMPI PUSH1 0x40 MLOAD PUSH32 0x8C379A000000000000000000000000000000000000000000000000000000000 DUP2 MSTORE PUSH1 0x4 ADD PUSH2 0xF07 SWAP1 PUSH2 0x15E7 JUMP JUMPDEST PUSH1 0x40 MLOAD DUP1 SWAP2 SUB SWAP1 REVERT JUMPDEST DUP1 PUSH1 0x8 PUSH1 0x0 CALLER PUSH20 0xFFFFFFFFFFFFFFFFFFFFFFFFFFFFFFFFFFFFFFFF AND PUSH20 0xFFFFFFFFFFFFFFFFFFFFFFFFFFFFFFFFFFFFFFFF AND DUP2 MSTORE PUSH1 0x20 ADD SWAP1 DUP2 MSTORE PUSH1 0x20 ADD PUSH1 0x0 KECCAK256 PUSH1 0x0 DUP3 DUP3 SLOAD PUSH2 0xF5F SWAP2 SWAP1 PUSH2 0x1423 JUMP JUMPDEST SWAP3 POP POP DUP2 SWAP1 SSTORE POP CALLER PUSH20 0xFFFFFFFFFFFFFFFFFFFFFFFFFFFFFFFFFFFFFFFF AND PUSH2 0x8FC DUP3 SWAP1 DUP2 ISZERO MUL SWAP1 PUSH1 0x40 MLOAD PUSH1 0x0 PUSH1 0x40 MLOAD DUP1 DUP4 SUB DUP2 DUP6 DUP9 DUP9 CALL SWAP4 POP POP POP POP ISZERO DUP1 ISZERO PUSH2 0xFAC JUMPI RETURNDATASIZE PUSH1 0x0 DUP1 RETURNDATACOPY RETURNDATASIZE PUSH1 0x0 REVERT JUMPDEST POP POP JUMP JUMPDEST PUSH1 0x0 DUP2 MLOAD SWAP1 POP SWAP2 SWAP1 POP JUMP JUMPDEST PUSH1 0x0 DUP3 DUP3 MSTORE PUSH1 0x20 DUP3 ADD SWAP1 POP SWAP3 SWAP2 POP POP JUMP JUMPDEST PUSH1 0x0 JUMPDEST DUP4 DUP2 LT ISZERO PUSH2 0xFEA JUMPI DUP1 DUP3 ADD MLOAD DUP2 DUP5 ADD MSTORE PUSH1 0x20 DUP2 ADD SWAP1 POP PUSH2 0xFCF JUMP JUMPDEST PUSH1 0x0 DUP5 DUP5 ADD MSTORE POP POP POP POP JUMP JUMPDEST PUSH1 0x0 PUSH1 0x1F NOT PUSH1 0x1F DUP4 ADD AND SWAP1 POP SWAP2 SWAP1 POP JUMP JUMPDEST PUSH1 0x0 PUSH2 0x1012 DUP3 PUSH2 0xFB0 JUMP JUMPDEST PUSH2 0x101C DUP2 DUP6 PUSH2 0xFBB JUMP JUMPDEST SWAP4 POP PUSH2 0x102C DUP2 DUP6 PUSH1 0x20 DUP7 ADD PUSH2 0xFCC JUMP JUMPDEST PUSH2 0x1035 DUP2 PUSH2 0xFF6 JUMP JUMPDEST DUP5 ADD SWAP2 POP POP SWAP3 SWAP2 POP POP JUMP JUMPDEST PUSH1 0x0 PUSH1 0x20 DUP3 ADD SWAP1 POP DUP2 DUP2 SUB PUSH1 0x0 DUP4 ADD MSTORE PUSH2 0x105A DUP2 DUP5 PUSH2 0x1007 JUMP JUMPDEST SWAP1 POP SWAP3 SWAP2 POP POP JUMP JUMPDEST PUSH1 0x0 DUP1 REVERT JUMPDEST PUSH1 0x0 PUSH20 0xFFFFFFFFFFFFFFFFFFFFFFFFFFFFFFFFFFFFFFFF DUP3 AND SWAP1 POP SWAP2 SWAP1 POP JUMP JUMPDEST PUSH1 0x0 PUSH2 0x1092 DUP3 PUSH2 0x1067 JUMP JUMPDEST SWAP1 POP SWAP2 SWAP1 POP JUMP JUMPDEST PUSH2 0x10A2 DUP2 PUSH2 0x1087 JUMP JUMPDEST DUP2 EQ PUSH2 0x10AD JUMPI PUSH1 0x0 DUP1 REVERT JUMPDEST POP JUMP JUMPDEST PUSH1 0x0 DUP2 CALLDATALOAD SWAP1 POP PUSH2 0x10BF DUP2 PUSH2 0x1099 JUMP JUMPDEST SWAP3 SWAP2 POP POP JUMP JUMPDEST PUSH1 0x0 DUP2 SWAP1 POP SWAP2 SWAP1 POP JUMP JUMPDEST PUSH2 0x10D8 DUP2 PUSH2 0x10C5 JUMP JUMPDEST DUP2 EQ PUSH2 0x10E3 JUMPI PUSH1 0x0 DUP1 REVERT JUMPDEST POP JUMP JUMPDEST PUSH1 0x0 DUP2 CALLDATALOAD SWAP1 POP PUSH2 0x10F5 DUP2 PUSH2 0x10CF JUMP JUMPDEST SWAP3 SWAP2 POP POP JUMP JUMPDEST PUSH1 0x0 DUP1 PUSH1 0x40 DUP4 DUP6 SUB SLT ISZERO PUSH2 0x1112 JUMPI PUSH2 0x1111 PUSH2 0x1062 JUMP JUMPDEST JUMPDEST PUSH1 0x0 PUSH2 0x1120 DUP6 DUP3 DUP7 ADD PUSH2 0x10B0 JUMP JUMPDEST SWAP3 POP POP PUSH1 0x20 PUSH2 0x1131 DUP6 DUP3 DUP7 ADD PUSH2 0x10E6 JUMP JUMPDEST SWAP2 POP POP SWAP3 POP SWAP3 SWAP1 POP JUMP JUMPDEST PUSH1 0x0 DUP2 ISZERO ISZERO SWAP1 POP SWAP2 SWAP1 POP JUMP JUMPDEST PUSH2 0x1150 DUP2 PUSH2 0x113B JUMP JUMPDEST DUP3 MSTORE POP POP JUMP JUMPDEST PUSH1 0x0 PUSH1 0x20 DUP3 ADD SWAP1 POP PUSH2 0x116B PUSH1 0x0 DUP4 ADD DUP5 PUSH2 0x1147 JUMP JUMPDEST SWAP3 SWAP2 POP POP JUMP JUMPDEST PUSH2 0x117A DUP2 PUSH2 0x10C5 JUMP JUMPDEST DUP3 MSTORE POP POP JUMP JUMPDEST PUSH1 0x0 PUSH1 0x20 DUP3 ADD SWAP1 POP PUSH2 0x1195 PUSH1 0x0 DUP4 ADD DUP5 PUSH2 0x1171 JUMP JUMPDEST SWAP3 SWAP2 POP POP JUMP JUMPDEST PUSH1 0x0 DUP1 PUSH1 0x0 PUSH1 0x60 DUP5 DUP7 SUB SLT ISZERO PUSH2 0x11B4 JUMPI PUSH2 0x11B3 PUSH2 0x1062 JUMP JUMPDEST JUMPDEST PUSH1 0x0 PUSH2 0x11C2 DUP7 DUP3 DUP8 ADD PUSH2 0x10B0 JUMP JUMPDEST SWAP4 POP POP PUSH1 0x20 PUSH2 0x11D3 DUP7 DUP3 DUP8 ADD PUSH2 0x10B0 JUMP JUMPDEST SWAP3 POP POP PUSH1 0x40 PUSH2 0x11E4 DUP7 DUP3 DUP8 ADD PUSH2 0x10E6 JUMP JUMPDEST SWAP2 POP POP SWAP3 POP SWAP3 POP SWAP3 JUMP JUMPDEST PUSH1 0x0 PUSH1 0x20 DUP3 DUP5 SUB SLT ISZERO PUSH2 0x1204 JUMPI PUSH2 0x1203 PUSH2 0x1062 JUMP JUMPDEST JUMPDEST PUSH1 0x0 PUSH2 0x1212 DUP5 DUP3 DUP6 ADD PUSH2 0x10E6 JUMP JUMPDEST SWAP2 POP POP SWAP3 SWAP2 POP POP JUMP JUMPDEST PUSH1 0x0 PUSH1 0x20 DUP3 DUP5 SUB SLT ISZERO PUSH2 0x1231 JUMPI PUSH2 0x1230 PUSH2 0x1062 JUMP JUMPDEST JUMPDEST PUSH1 0x0 PUSH2 0x123F DUP5 DUP3 DUP6 ADD PUSH2 0x10B0 JUMP JUMPDEST SWAP2 POP POP SWAP3 SWAP2 POP POP JUMP JUMPDEST PUSH1 0x0 DUP1 PUSH1 0x40 DUP4 DUP6 SUB SLT ISZERO PUSH2 0x125F JUMPI PUSH2 0x125E PUSH2 0x1062 JUMP JUMPDEST JUMPDEST PUSH1 0x0 PUSH2 0x126D DUP6 DUP3 DUP7 ADD PUSH2 0x10B0 JUMP JUMPDEST SWAP3 POP POP PUSH1 0x20 PUSH2 0x127E DUP6 DUP3 DUP7 ADD PUSH2 0x10B0 JUMP JUMPDEST SWAP2 POP POP SWAP3 POP SWAP3 SWAP1 POP JUMP JUMPDEST PUSH32 0x4E487B7100000000000000000000000000000000000000000000000000000000 PUSH1 0x0 MSTORE PUSH1 0x22 PUSH1 0x4 MSTORE PUSH1 0x24 PUSH1 0x0 REVERT JUMPDEST PUSH1 0x0 PUSH1 0x2 DUP3 DIV SWAP1 POP PUSH1 0x1 DUP3 AND DUP1 PUSH2 0x12CF JUMPI PUSH1 0x7F DUP3 AND SWAP2 POP JUMPDEST PUSH1 0x20 DUP3 LT DUP2 SUB PUSH2 0x12E2 JUMPI PUSH2 0x12E1 PUSH2 0x1288 JUMP JUMPDEST JUMPDEST POP SWAP2 SWAP1 POP JUMP JUMPDEST PUSH32 0x6E6F7420617070726F76656420746F207472616E736665720000000000000000 PUSH1 0x0 DUP3 ADD MSTORE POP JUMP JUMPDEST PUSH1 0x0 PUSH2 0x131E PUSH1 0x18 DUP4 PUSH2 0xFBB JUMP JUMPDEST SWAP2 POP PUSH2 0x1329 DUP3 PUSH2 0x12E8 JUMP JUMPDEST PUSH1 0x20 DUP3 ADD SWAP1 POP SWAP2 SWAP1 POP JUMP JUMPDEST PUSH1 0x0 PUSH1 0x20 DUP3 ADD SWAP1 POP DUP2 DUP2 SUB PUSH1 0x0 DUP4 ADD MSTORE PUSH2 0x134D DUP2 PUSH2 0x1311 JUMP JUMPDEST SWAP1 POP SWAP2 SWAP1 POP JUMP JUMPDEST PUSH32 0x6E6F7420656E6F75676820616D6F756E74200000000000000000000000000000 PUSH1 0x0 DUP3 ADD MSTORE POP JUMP JUMPDEST PUSH1 0x0 PUSH2 0x138A PUSH1 0x12 DUP4 PUSH2 0xFBB JUMP JUMPDEST SWAP2 POP PUSH2 0x1395 DUP3 PUSH2 0x1354 JUMP JUMPDEST PUSH1 0x20 DUP3 ADD SWAP1 POP SWAP2 SWAP1 POP JUMP JUMPDEST PUSH1 0x0 PUSH1 0x20 DUP3 ADD SWAP1 POP DUP2 DUP2 SUB PUSH1 0x0 DUP4 ADD MSTORE PUSH2 0x13B9 DUP2 PUSH2 0x137D JUMP JUMPDEST SWAP1 POP SWAP2 SWAP1 POP JUMP JUMPDEST PUSH32 0x4E487B7100000000000000000000000000000000000000000000000000000000 PUSH1 0x0 MSTORE PUSH1 0x11 PUSH1 0x4 MSTORE PUSH1 0x24 PUSH1 0x0 REVERT JUMPDEST PUSH1 0x0 PUSH2 0x13FA DUP3 PUSH2 0x10C5 JUMP JUMPDEST SWAP2 POP PUSH2 0x1405 DUP4 PUSH2 0x10C5 JUMP JUMPDEST SWAP3 POP DUP3 DUP3 ADD SWAP1 POP DUP1 DUP3 GT ISZERO PUSH2 0x141D JUMPI PUSH2 0x141C PUSH2 0x13C0 JUMP JUMPDEST JUMPDEST SWAP3 SWAP2 POP POP JUMP JUMPDEST PUSH1 0x0 PUSH2 0x142E DUP3 PUSH2 0x10C5 JUMP JUMPDEST SWAP2 POP PUSH2 0x1439 DUP4 PUSH2 0x10C5 JUMP JUMPDEST SWAP3 POP DUP3 DUP3 SUB SWAP1 POP DUP2 DUP2 GT ISZERO PUSH2 0x1451 JUMPI PUSH2 0x1450 PUSH2 0x13C0 JUMP JUMPDEST JUMPDEST SWAP3 SWAP2 POP POP JUMP JUMPDEST PUSH32 0x696E737566666963656E742046756E6473000000000000000000000000000000 PUSH1 0x0 DUP3 ADD MSTORE POP JUMP JUMPDEST PUSH1 0x0 PUSH2 0x148D PUSH1 0x11 DUP4 PUSH2 0xFBB JUMP JUMPDEST SWAP2 POP PUSH2 0x1498 DUP3 PUSH2 0x1457 JUMP JUMPDEST PUSH1 0x20 DUP3 ADD SWAP1 POP SWAP2 SWAP1 POP JUMP JUMPDEST PUSH1 0x0 PUSH1 0x20 DUP3 ADD SWAP1 POP DUP2 DUP2 SUB PUSH1 0x0 DUP4 ADD MSTORE PUSH2 0x14BC DUP2 PUSH2 0x1480 JUMP JUMPDEST SWAP1 POP SWAP2 SWAP1 POP JUMP JUMPDEST PUSH32 0x6E6F7420737566666963656E7420746F6B656E00000000000000000000000000 PUSH1 0x0 DUP3 ADD MSTORE POP JUMP JUMPDEST PUSH1 0x0 PUSH2 0x14F9 PUSH1 0x13 DUP4 PUSH2 0xFBB JUMP JUMPDEST SWAP2 POP PUSH2 0x1504 DUP3 PUSH2 0x14C3 JUMP JUMPDEST PUSH1 0x20 DUP3 ADD SWAP1 POP SWAP2 SWAP1 POP JUMP JUMPDEST PUSH1 0x0 PUSH1 0x20 DUP3 ADD SWAP1 POP DUP2 DUP2 SUB PUSH1 0x0 DUP4 ADD MSTORE PUSH2 0x1528 DUP2 PUSH2 0x14EC JUMP JUMPDEST SWAP1 POP SWAP2 SWAP1 POP JUMP JUMPDEST PUSH32 0x6E6F7420656E6F75676820746F6B656E00000000000000000000000000000000 PUSH1 0x0 DUP3 ADD MSTORE POP JUMP JUMPDEST PUSH1 0x0 PUSH2 0x1565 PUSH1 0x10 DUP4 PUSH2 0xFBB JUMP JUMPDEST SWAP2 POP PUSH2 0x1570 DUP3 PUSH2 0x152F JUMP JUMPDEST PUSH1 0x20 DUP3 ADD SWAP1 POP SWAP2 SWAP1 POP JUMP JUMPDEST PUSH1 0x0 PUSH1 0x20 DUP3 ADD SWAP1 POP DUP2 DUP2 SUB PUSH1 0x0 DUP4 ADD MSTORE PUSH2 0x1594 DUP2 PUSH2 0x1558 JUMP JUMPDEST SWAP1 POP SWAP2 SWAP1 POP JUMP JUMPDEST PUSH32 0x496E737566666963656E742046756E6473000000000000000000000000000000 PUSH1 0x0 DUP3 ADD MSTORE POP JUMP JUMPDEST PUSH1 0x0 PUSH2 0x15D1 PUSH1 0x11 DUP4 PUSH2 0xFBB JUMP JUMPDEST SWAP2 POP PUSH2 0x15DC DUP3 PUSH2 0x159B JUMP JUMPDEST PUSH1 0x20 DUP3 ADD SWAP1 POP SWAP2 SWAP1 POP JUMP JUMPDEST PUSH1 0x0 PUSH1 0x20 DUP3 ADD SWAP1 POP DUP2 DUP2 SUB PUSH1 0x0 DUP4 ADD MSTORE PUSH2 0x1600 DUP2 PUSH2 0x15C4 JUMP JUMPDEST SWAP1 POP SWAP2 SWAP1 POP JUMP INVALID LOG2 PUSH5 0x6970667358 0x22 SLT KECCAK256 0xB8 INVALID SWAP15 0xAF 0xA6 SWAP13 SLT CALLDATACOPY PUSH22 0x4B00E4AF974D6FF756ADC6C9AC19E2553E61843443DF 0xD7 PUSH5 0x736F6C6343 STOP ADDMOD SLT STOP CALLER "
				},
				"gasEstimates": {
					"creation": {
						"codeDepositCost": "1138600",
						"executionCost": "infinite",
						"totalCost": "infinite"
					},
					"external": {
						"BalanceInContract(address)": "2858",
						"CheckTokenBal()": "2548",
						"TokenBalanceof(address)": "2837",
						"allowence(address,address)": "infinite",
						"approve(address,uint256)": "infinite",
						"checkETHBalance(address)": "2908",
						"decimal()": "2518",
						"deposit()": "infinite",
						"depositToken(uint256)": "infinite",
						"name()": "infinite",
						"symbol()": "infinite",
						"totalSupply()": "2497",
						"transfer(address,uint256)": "infinite",
						"transferFrom(address,address,uint256)": "infinite",
						"withdrawETH(uint256)": "infinite",
						"withdrawToken(uint256)": "infinite"
					}
				},
				"methodIdentifiers": {
					"BalanceInContract(address)": "c40ef575",
					"CheckTokenBal()": "ab6859ba",
					"TokenBalanceof(address)": "819993f2",
					"allowence(address,address)": "a77a8230",
					"approve(address,uint256)": "095ea7b3",
					"checkETHBalance(address)": "62a35d72",
					"decimal()": "76809ce3",
					"deposit()": "d0e30db0",
					"depositToken(uint256)": "6215be77",
					"name()": "06fdde03",
					"symbol()": "95d89b41",
					"totalSupply()": "18160ddd",
					"transfer(address,uint256)": "a9059cbb",
					"transferFrom(address,address,uint256)": "23b872dd",
					"withdrawETH(uint256)": "f14210a6",
					"withdrawToken(uint256)": "50baa622"
				}
			},
			"storageLayout": {
				"storage": [
					{
						"astId": 4,
						"contract": "contracts/worldBank.sol:bank",
						"label": "name",
						"offset": 0,
						"slot": "0",
						"type": "t_string_storage"
					},
					{
						"astId": 7,
						"contract": "contracts/worldBank.sol:bank",
						"label": "symbol",
						"offset": 0,
						"slot": "1",
						"type": "t_string_storage"
					},
					{
						"astId": 10,
						"contract": "contracts/worldBank.sol:bank",
						"label": "decimal",
						"offset": 0,
						"slot": "2",
						"type": "t_uint256"
					},
					{
						"astId": 13,
						"contract": "contracts/worldBank.sol:bank",
						"label": "totalSupply",
						"offset": 0,
						"slot": "3",
						"type": "t_uint256"
					},
					{
						"astId": 17,
						"contract": "contracts/worldBank.sol:bank",
						"label": "TokenBalanceof",
						"offset": 0,
						"slot": "4",
						"type": "t_mapping(t_address,t_uint256)"
					},
					{
						"astId": 21,
						"contract": "contracts/worldBank.sol:bank",
						"label": "BalanceInContract",
						"offset": 0,
						"slot": "5",
						"type": "t_mapping(t_address,t_uint256)"
					},
					{
						"astId": 25,
						"contract": "contracts/worldBank.sol:bank",
						"label": "TotalContractToken",
						"offset": 0,
						"slot": "6",
						"type": "t_mapping(t_address,t_uint256)"
					},
					{
						"astId": 31,
						"contract": "contracts/worldBank.sol:bank",
						"label": "allowence",
						"offset": 0,
						"slot": "7",
						"type": "t_mapping(t_address,t_mapping(t_address,t_uint256))"
					},
					{
						"astId": 35,
						"contract": "contracts/worldBank.sol:bank",
						"label": "balance",
						"offset": 0,
						"slot": "8",
						"type": "t_mapping(t_address,t_uint256)"
					}
				],
				"types": {
					"t_address": {
						"encoding": "inplace",
						"label": "address",
						"numberOfBytes": "20"
					},
					"t_mapping(t_address,t_mapping(t_address,t_uint256))": {
						"encoding": "mapping",
						"key": "t_address",
						"label": "mapping(address => mapping(address => uint256))",
						"numberOfBytes": "32",
						"value": "t_mapping(t_address,t_uint256)"
					},
					"t_mapping(t_address,t_uint256)": {
						"encoding": "mapping",
						"key": "t_address",
						"label": "mapping(address => uint256)",
						"numberOfBytes": "32",
						"value": "t_uint256"
					},
					"t_string_storage": {
						"encoding": "bytes",
						"label": "string",
						"numberOfBytes": "32"
					},
					"t_uint256": {
						"encoding": "inplace",
						"label": "uint256",
						"numberOfBytes": "32"
					}
				}
			},
			"userdoc": {
				"kind": "user",
				"methods": {},
				"version": 1
			}
		}
	}
}