{
	"contracts/cryptographic.sol": {
		"pass": {
			"abi": [
				{
					"inputs": [
						{
							"internalType": "string",
							"name": "_pass",
							"type": "string"
						}
					],
					"name": "chekPass",
					"outputs": [],
					"stateMutability": "view",
					"type": "function"
				},
				{
					"inputs": [
						{
							"internalType": "string",
							"name": "_pass",
							"type": "string"
						}
					],
					"name": "genPass",
					"outputs": [],
					"stateMutability": "nonpayable",
					"type": "function"
				},
				{
					"inputs": [],
					"name": "password",
					"outputs": [
						{
							"internalType": "bytes32",
							"name": "",
							"type": "bytes32"
						}
					],
					"stateMutability": "view",
					"type": "function"
				}
			],
			"devdoc": {
				"kind": "dev",
				"methods": {},
				"version": 1
			},
			"evm": {
				"assembly": "    /* \"contracts/cryptographic.sol\":56:371  contract pass{... */\n  mstore(0x40, 0x80)\n  callvalue\n  dup1\n  iszero\n  tag_1\n  jumpi\n  0x00\n  dup1\n  revert\ntag_1:\n  pop\n  dataSize(sub_0)\n  dup1\n  dataOffset(sub_0)\n  0x00\n  codecopy\n  0x00\n  return\nstop\n\nsub_0: assembly {\n        /* \"contracts/cryptographic.sol\":56:371  contract pass{... */\n      mstore(0x40, 0x80)\n      callvalue\n      dup1\n      iszero\n      tag_1\n      jumpi\n      0x00\n      dup1\n      revert\n    tag_1:\n      pop\n      jumpi(tag_2, lt(calldatasize, 0x04))\n      shr(0xe0, calldataload(0x00))\n      dup1\n      0x224b610b\n      eq\n      tag_3\n      jumpi\n      dup1\n      0x6f92583d\n      eq\n      tag_4\n      jumpi\n      dup1\n      0x85a588f9\n      eq\n      tag_5\n      jumpi\n    tag_2:\n      0x00\n      dup1\n      revert\n        /* \"contracts/cryptographic.sol\":75:99  bytes32  public password */\n    tag_3:\n      tag_6\n      tag_7\n      jump\t// in\n    tag_6:\n      mload(0x40)\n      tag_8\n      swap2\n      swap1\n      tag_9\n      jump\t// in\n    tag_8:\n      mload(0x40)\n      dup1\n      swap2\n      sub\n      swap1\n      return\n        /* \"contracts/cryptographic.sol\":106:212  function genPass(string memory _pass)public {... */\n    tag_4:\n      tag_10\n      0x04\n      dup1\n      calldatasize\n      sub\n      dup2\n      add\n      swap1\n      tag_11\n      swap2\n      swap1\n      tag_12\n      jump\t// in\n    tag_11:\n      tag_13\n      jump\t// in\n    tag_10:\n      stop\n        /* \"contracts/cryptographic.sol\":218:369  function chekPass(string memory _pass) public view{... */\n    tag_5:\n      tag_14\n      0x04\n      dup1\n      calldatasize\n      sub\n      dup2\n      add\n      swap1\n      tag_15\n      swap2\n      swap1\n      tag_12\n      jump\t// in\n    tag_15:\n      tag_16\n      jump\t// in\n    tag_14:\n      stop\n        /* \"contracts/cryptographic.sol\":75:99  bytes32  public password */\n    tag_7:\n      sload(0x00)\n      dup2\n      jump\t// out\n        /* \"contracts/cryptographic.sol\":106:212  function genPass(string memory _pass)public {... */\n    tag_13:\n        /* \"contracts/cryptographic.sol\":198:203  _pass */\n      dup1\n        /* \"contracts/cryptographic.sol\":181:204  abi.encodePacked(_pass) */\n      add(0x20, mload(0x40))\n      tag_18\n      swap2\n      swap1\n      tag_19\n      jump\t// in\n    tag_18:\n      mload(0x40)\n      0x20\n      dup2\n      dup4\n      sub\n      sub\n      dup2\n      mstore\n      swap1\n      0x40\n      mstore\n        /* \"contracts/cryptographic.sol\":171:205  keccak256(abi.encodePacked(_pass)) */\n      dup1\n      mload\n      swap1\n      0x20\n      add\n      keccak256\n        /* \"contracts/cryptographic.sol\":160:168  password */\n      0x00\n        /* \"contracts/cryptographic.sol\":160:205  password = keccak256(abi.encodePacked(_pass)) */\n      dup2\n      swap1\n      sstore\n      pop\n        /* \"contracts/cryptographic.sol\":106:212  function genPass(string memory _pass)public {... */\n      pop\n      jump\t// out\n        /* \"contracts/cryptographic.sol\":218:369  function chekPass(string memory _pass) public view{... */\n    tag_16:\n        /* \"contracts/cryptographic.sol\":325:330  _pass */\n      dup1\n        /* \"contracts/cryptographic.sol\":308:331  abi.encodePacked(_pass) */\n      add(0x20, mload(0x40))\n      tag_21\n      swap2\n      swap1\n      tag_19\n      jump\t// in\n    tag_21:\n      mload(0x40)\n      0x20\n      dup2\n      dup4\n      sub\n      sub\n      dup2\n      mstore\n      swap1\n      0x40\n      mstore\n        /* \"contracts/cryptographic.sol\":298:332  keccak256(abi.encodePacked(_pass)) */\n      dup1\n      mload\n      swap1\n      0x20\n      add\n      keccak256\n        /* \"contracts/cryptographic.sol\":286:294  password */\n      sload(0x00)\n        /* \"contracts/cryptographic.sol\":286:332  password == keccak256(abi.encodePacked(_pass)) */\n      eq\n        /* \"contracts/cryptographic.sol\":278:362  require(password == keccak256(abi.encodePacked(_pass)),'passwornd not matched....' ) */\n      tag_22\n      jumpi\n      mload(0x40)\n      0x08c379a000000000000000000000000000000000000000000000000000000000\n      dup2\n      mstore\n      0x04\n      add\n      tag_23\n      swap1\n      tag_24\n      jump\t// in\n    tag_23:\n      mload(0x40)\n      dup1\n      swap2\n      sub\n      swap1\n      revert\n    tag_22:\n        /* \"contracts/cryptographic.sol\":218:369  function chekPass(string memory _pass) public view{... */\n      pop\n      jump\t// out\n        /* \"#utility.yul\":7:84   */\n    tag_25:\n        /* \"#utility.yul\":44:51   */\n      0x00\n        /* \"#utility.yul\":73:78   */\n      dup2\n        /* \"#utility.yul\":62:78   */\n      swap1\n      pop\n        /* \"#utility.yul\":7:84   */\n      swap2\n      swap1\n      pop\n      jump\t// out\n        /* \"#utility.yul\":90:208   */\n    tag_26:\n        /* \"#utility.yul\":177:201   */\n      tag_50\n        /* \"#utility.yul\":195:200   */\n      dup2\n        /* \"#utility.yul\":177:201   */\n      tag_25\n      jump\t// in\n    tag_50:\n        /* \"#utility.yul\":172:175   */\n      dup3\n        /* \"#utility.yul\":165:202   */\n      mstore\n        /* \"#utility.yul\":90:208   */\n      pop\n      pop\n      jump\t// out\n        /* \"#utility.yul\":214:436   */\n    tag_9:\n        /* \"#utility.yul\":307:311   */\n      0x00\n        /* \"#utility.yul\":345:347   */\n      0x20\n        /* \"#utility.yul\":334:343   */\n      dup3\n        /* \"#utility.yul\":330:348   */\n      add\n        /* \"#utility.yul\":322:348   */\n      swap1\n      pop\n        /* \"#utility.yul\":358:429   */\n      tag_52\n        /* \"#utility.yul\":426:427   */\n      0x00\n        /* \"#utility.yul\":415:424   */\n      dup4\n        /* \"#utility.yul\":411:428   */\n      add\n        /* \"#utility.yul\":402:408   */\n      dup5\n        /* \"#utility.yul\":358:429   */\n      tag_26\n      jump\t// in\n    tag_52:\n        /* \"#utility.yul\":214:436   */\n      swap3\n      swap2\n      pop\n      pop\n      jump\t// out\n        /* \"#utility.yul\":442:517   */\n    tag_27:\n        /* \"#utility.yul\":475:481   */\n      0x00\n        /* \"#utility.yul\":508:510   */\n      0x40\n        /* \"#utility.yul\":502:511   */\n      mload\n        /* \"#utility.yul\":492:511   */\n      swap1\n      pop\n        /* \"#utility.yul\":442:517   */\n      swap1\n      jump\t// out\n        /* \"#utility.yul\":523:640   */\n    tag_28:\n        /* \"#utility.yul\":632:633   */\n      0x00\n        /* \"#utility.yul\":629:630   */\n      dup1\n        /* \"#utility.yul\":622:634   */\n      revert\n        /* \"#utility.yul\":646:763   */\n    tag_29:\n        /* \"#utility.yul\":755:756   */\n      0x00\n        /* \"#utility.yul\":752:753   */\n      dup1\n        /* \"#utility.yul\":745:757   */\n      revert\n        /* \"#utility.yul\":769:886   */\n    tag_30:\n        /* \"#utility.yul\":878:879   */\n      0x00\n        /* \"#utility.yul\":875:876   */\n      dup1\n        /* \"#utility.yul\":868:880   */\n      revert\n        /* \"#utility.yul\":892:1009   */\n    tag_31:\n        /* \"#utility.yul\":1001:1002   */\n      0x00\n        /* \"#utility.yul\":998:999   */\n      dup1\n        /* \"#utility.yul\":991:1003   */\n      revert\n        /* \"#utility.yul\":1015:1117   */\n    tag_32:\n        /* \"#utility.yul\":1056:1062   */\n      0x00\n        /* \"#utility.yul\":1107:1109   */\n      0x1f\n        /* \"#utility.yul\":1103:1110   */\n      not\n        /* \"#utility.yul\":1098:1100   */\n      0x1f\n        /* \"#utility.yul\":1091:1096   */\n      dup4\n        /* \"#utility.yul\":1087:1101   */\n      add\n        /* \"#utility.yul\":1083:1111   */\n      and\n        /* \"#utility.yul\":1073:1111   */\n      swap1\n      pop\n        /* \"#utility.yul\":1015:1117   */\n      swap2\n      swap1\n      pop\n      jump\t// out\n        /* \"#utility.yul\":1123:1303   */\n    tag_33:\n        /* \"#utility.yul\":1171:1248   */\n      0x4e487b7100000000000000000000000000000000000000000000000000000000\n        /* \"#utility.yul\":1168:1169   */\n      0x00\n        /* \"#utility.yul\":1161:1249   */\n      mstore\n        /* \"#utility.yul\":1268:1272   */\n      0x41\n        /* \"#utility.yul\":1265:1266   */\n      0x04\n        /* \"#utility.yul\":1258:1273   */\n      mstore\n        /* \"#utility.yul\":1292:1296   */\n      0x24\n        /* \"#utility.yul\":1289:1290   */\n      0x00\n        /* \"#utility.yul\":1282:1297   */\n      revert\n        /* \"#utility.yul\":1309:1590   */\n    tag_34:\n        /* \"#utility.yul\":1392:1419   */\n      tag_61\n        /* \"#utility.yul\":1414:1418   */\n      dup3\n        /* \"#utility.yul\":1392:1419   */\n      tag_32\n      jump\t// in\n    tag_61:\n        /* \"#utility.yul\":1384:1390   */\n      dup2\n        /* \"#utility.yul\":1380:1420   */\n      add\n        /* \"#utility.yul\":1522:1528   */\n      dup2\n        /* \"#utility.yul\":1510:1520   */\n      dup2\n        /* \"#utility.yul\":1507:1529   */\n      lt\n        /* \"#utility.yul\":1486:1504   */\n      0xffffffffffffffff\n        /* \"#utility.yul\":1474:1484   */\n      dup3\n        /* \"#utility.yul\":1471:1505   */\n      gt\n        /* \"#utility.yul\":1468:1530   */\n      or\n        /* \"#utility.yul\":1465:1553   */\n      iszero\n      tag_62\n      jumpi\n        /* \"#utility.yul\":1533:1551   */\n      tag_63\n      tag_33\n      jump\t// in\n    tag_63:\n        /* \"#utility.yul\":1465:1553   */\n    tag_62:\n        /* \"#utility.yul\":1573:1583   */\n      dup1\n        /* \"#utility.yul\":1569:1571   */\n      0x40\n        /* \"#utility.yul\":1562:1584   */\n      mstore\n        /* \"#utility.yul\":1352:1590   */\n      pop\n        /* \"#utility.yul\":1309:1590   */\n      pop\n      pop\n      jump\t// out\n        /* \"#utility.yul\":1596:1725   */\n    tag_35:\n        /* \"#utility.yul\":1630:1636   */\n      0x00\n        /* \"#utility.yul\":1657:1677   */\n      tag_65\n      tag_27\n      jump\t// in\n    tag_65:\n        /* \"#utility.yul\":1647:1677   */\n      swap1\n      pop\n        /* \"#utility.yul\":1686:1719   */\n      tag_66\n        /* \"#utility.yul\":1714:1718   */\n      dup3\n        /* \"#utility.yul\":1706:1712   */\n      dup3\n        /* \"#utility.yul\":1686:1719   */\n      tag_34\n      jump\t// in\n    tag_66:\n        /* \"#utility.yul\":1596:1725   */\n      swap2\n      swap1\n      pop\n      jump\t// out\n        /* \"#utility.yul\":1731:2039   */\n    tag_36:\n        /* \"#utility.yul\":1793:1797   */\n      0x00\n        /* \"#utility.yul\":1883:1901   */\n      0xffffffffffffffff\n        /* \"#utility.yul\":1875:1881   */\n      dup3\n        /* \"#utility.yul\":1872:1902   */\n      gt\n        /* \"#utility.yul\":1869:1925   */\n      iszero\n      tag_68\n      jumpi\n        /* \"#utility.yul\":1905:1923   */\n      tag_69\n      tag_33\n      jump\t// in\n    tag_69:\n        /* \"#utility.yul\":1869:1925   */\n    tag_68:\n        /* \"#utility.yul\":1943:1972   */\n      tag_70\n        /* \"#utility.yul\":1965:1971   */\n      dup3\n        /* \"#utility.yul\":1943:1972   */\n      tag_32\n      jump\t// in\n    tag_70:\n        /* \"#utility.yul\":1935:1972   */\n      swap1\n      pop\n        /* \"#utility.yul\":2027:2031   */\n      0x20\n        /* \"#utility.yul\":2021:2025   */\n      dup2\n        /* \"#utility.yul\":2017:2032   */\n      add\n        /* \"#utility.yul\":2009:2032   */\n      swap1\n      pop\n        /* \"#utility.yul\":1731:2039   */\n      swap2\n      swap1\n      pop\n      jump\t// out\n        /* \"#utility.yul\":2045:2191   */\n    tag_37:\n        /* \"#utility.yul\":2142:2148   */\n      dup3\n        /* \"#utility.yul\":2137:2140   */\n      dup2\n        /* \"#utility.yul\":2132:2135   */\n      dup4\n        /* \"#utility.yul\":2119:2149   */\n      calldatacopy\n        /* \"#utility.yul\":2183:2184   */\n      0x00\n        /* \"#utility.yul\":2174:2180   */\n      dup4\n        /* \"#utility.yul\":2169:2172   */\n      dup4\n        /* \"#utility.yul\":2165:2181   */\n      add\n        /* \"#utility.yul\":2158:2185   */\n      mstore\n        /* \"#utility.yul\":2045:2191   */\n      pop\n      pop\n      pop\n      jump\t// out\n        /* \"#utility.yul\":2197:2622   */\n    tag_38:\n        /* \"#utility.yul\":2275:2280   */\n      0x00\n        /* \"#utility.yul\":2300:2366   */\n      tag_73\n        /* \"#utility.yul\":2316:2365   */\n      tag_74\n        /* \"#utility.yul\":2358:2364   */\n      dup5\n        /* \"#utility.yul\":2316:2365   */\n      tag_36\n      jump\t// in\n    tag_74:\n        /* \"#utility.yul\":2300:2366   */\n      tag_35\n      jump\t// in\n    tag_73:\n        /* \"#utility.yul\":2291:2366   */\n      swap1\n      pop\n        /* \"#utility.yul\":2389:2395   */\n      dup3\n        /* \"#utility.yul\":2382:2387   */\n      dup2\n        /* \"#utility.yul\":2375:2396   */\n      mstore\n        /* \"#utility.yul\":2427:2431   */\n      0x20\n        /* \"#utility.yul\":2420:2425   */\n      dup2\n        /* \"#utility.yul\":2416:2432   */\n      add\n        /* \"#utility.yul\":2465:2468   */\n      dup5\n        /* \"#utility.yul\":2456:2462   */\n      dup5\n        /* \"#utility.yul\":2451:2454   */\n      dup5\n        /* \"#utility.yul\":2447:2463   */\n      add\n        /* \"#utility.yul\":2444:2469   */\n      gt\n        /* \"#utility.yul\":2441:2553   */\n      iszero\n      tag_75\n      jumpi\n        /* \"#utility.yul\":2472:2551   */\n      tag_76\n      tag_31\n      jump\t// in\n    tag_76:\n        /* \"#utility.yul\":2441:2553   */\n    tag_75:\n        /* \"#utility.yul\":2562:2616   */\n      tag_77\n        /* \"#utility.yul\":2609:2615   */\n      dup5\n        /* \"#utility.yul\":2604:2607   */\n      dup3\n        /* \"#utility.yul\":2599:2602   */\n      dup6\n        /* \"#utility.yul\":2562:2616   */\n      tag_37\n      jump\t// in\n    tag_77:\n        /* \"#utility.yul\":2281:2622   */\n      pop\n        /* \"#utility.yul\":2197:2622   */\n      swap4\n      swap3\n      pop\n      pop\n      pop\n      jump\t// out\n        /* \"#utility.yul\":2642:2982   */\n    tag_39:\n        /* \"#utility.yul\":2698:2703   */\n      0x00\n        /* \"#utility.yul\":2747:2750   */\n      dup3\n        /* \"#utility.yul\":2740:2744   */\n      0x1f\n        /* \"#utility.yul\":2732:2738   */\n      dup4\n        /* \"#utility.yul\":2728:2745   */\n      add\n        /* \"#utility.yul\":2724:2751   */\n      slt\n        /* \"#utility.yul\":2714:2836   */\n      tag_79\n      jumpi\n        /* \"#utility.yul\":2755:2834   */\n      tag_80\n      tag_30\n      jump\t// in\n    tag_80:\n        /* \"#utility.yul\":2714:2836   */\n    tag_79:\n        /* \"#utility.yul\":2872:2878   */\n      dup2\n        /* \"#utility.yul\":2859:2879   */\n      calldataload\n        /* \"#utility.yul\":2897:2976   */\n      tag_81\n        /* \"#utility.yul\":2972:2975   */\n      dup5\n        /* \"#utility.yul\":2964:2970   */\n      dup3\n        /* \"#utility.yul\":2957:2961   */\n      0x20\n        /* \"#utility.yul\":2949:2955   */\n      dup7\n        /* \"#utility.yul\":2945:2962   */\n      add\n        /* \"#utility.yul\":2897:2976   */\n      tag_38\n      jump\t// in\n    tag_81:\n        /* \"#utility.yul\":2888:2976   */\n      swap2\n      pop\n        /* \"#utility.yul\":2704:2982   */\n      pop\n        /* \"#utility.yul\":2642:2982   */\n      swap3\n      swap2\n      pop\n      pop\n      jump\t// out\n        /* \"#utility.yul\":2988:3497   */\n    tag_12:\n        /* \"#utility.yul\":3057:3063   */\n      0x00\n        /* \"#utility.yul\":3106:3108   */\n      0x20\n        /* \"#utility.yul\":3094:3103   */\n      dup3\n        /* \"#utility.yul\":3085:3092   */\n      dup5\n        /* \"#utility.yul\":3081:3104   */\n      sub\n        /* \"#utility.yul\":3077:3109   */\n      slt\n        /* \"#utility.yul\":3074:3193   */\n      iszero\n      tag_83\n      jumpi\n        /* \"#utility.yul\":3112:3191   */\n      tag_84\n      tag_28\n      jump\t// in\n    tag_84:\n        /* \"#utility.yul\":3074:3193   */\n    tag_83:\n        /* \"#utility.yul\":3260:3261   */\n      0x00\n        /* \"#utility.yul\":3249:3258   */\n      dup3\n        /* \"#utility.yul\":3245:3262   */\n      add\n        /* \"#utility.yul\":3232:3263   */\n      calldataload\n        /* \"#utility.yul\":3290:3308   */\n      0xffffffffffffffff\n        /* \"#utility.yul\":3282:3288   */\n      dup2\n        /* \"#utility.yul\":3279:3309   */\n      gt\n        /* \"#utility.yul\":3276:3393   */\n      iszero\n      tag_85\n      jumpi\n        /* \"#utility.yul\":3312:3391   */\n      tag_86\n      tag_29\n      jump\t// in\n    tag_86:\n        /* \"#utility.yul\":3276:3393   */\n    tag_85:\n        /* \"#utility.yul\":3417:3480   */\n      tag_87\n        /* \"#utility.yul\":3472:3479   */\n      dup5\n        /* \"#utility.yul\":3463:3469   */\n      dup3\n        /* \"#utility.yul\":3452:3461   */\n      dup6\n        /* \"#utility.yul\":3448:3470   */\n      add\n        /* \"#utility.yul\":3417:3480   */\n      tag_39\n      jump\t// in\n    tag_87:\n        /* \"#utility.yul\":3407:3480   */\n      swap2\n      pop\n        /* \"#utility.yul\":3203:3490   */\n      pop\n        /* \"#utility.yul\":2988:3497   */\n      swap3\n      swap2\n      pop\n      pop\n      jump\t// out\n        /* \"#utility.yul\":3503:3602   */\n    tag_40:\n        /* \"#utility.yul\":3555:3561   */\n      0x00\n        /* \"#utility.yul\":3589:3594   */\n      dup2\n        /* \"#utility.yul\":3583:3595   */\n      mload\n        /* \"#utility.yul\":3573:3595   */\n      swap1\n      pop\n        /* \"#utility.yul\":3503:3602   */\n      swap2\n      swap1\n      pop\n      jump\t// out\n        /* \"#utility.yul\":3608:3756   */\n    tag_41:\n        /* \"#utility.yul\":3710:3721   */\n      0x00\n        /* \"#utility.yul\":3747:3750   */\n      dup2\n        /* \"#utility.yul\":3732:3750   */\n      swap1\n      pop\n        /* \"#utility.yul\":3608:3756   */\n      swap3\n      swap2\n      pop\n      pop\n      jump\t// out\n        /* \"#utility.yul\":3762:4008   */\n    tag_42:\n        /* \"#utility.yul\":3843:3844   */\n      0x00\n        /* \"#utility.yul\":3853:3966   */\n    tag_91:\n        /* \"#utility.yul\":3867:3873   */\n      dup4\n        /* \"#utility.yul\":3864:3865   */\n      dup2\n        /* \"#utility.yul\":3861:3874   */\n      lt\n        /* \"#utility.yul\":3853:3966   */\n      iszero\n      tag_93\n      jumpi\n        /* \"#utility.yul\":3952:3953   */\n      dup1\n        /* \"#utility.yul\":3947:3950   */\n      dup3\n        /* \"#utility.yul\":3943:3954   */\n      add\n        /* \"#utility.yul\":3937:3955   */\n      mload\n        /* \"#utility.yul\":3933:3934   */\n      dup2\n        /* \"#utility.yul\":3928:3931   */\n      dup5\n        /* \"#utility.yul\":3924:3935   */\n      add\n        /* \"#utility.yul\":3917:3956   */\n      mstore\n        /* \"#utility.yul\":3889:3891   */\n      0x20\n        /* \"#utility.yul\":3886:3887   */\n      dup2\n        /* \"#utility.yul\":3882:3892   */\n      add\n        /* \"#utility.yul\":3877:3892   */\n      swap1\n      pop\n        /* \"#utility.yul\":3853:3966   */\n      jump(tag_91)\n    tag_93:\n        /* \"#utility.yul\":4000:4001   */\n      0x00\n        /* \"#utility.yul\":3991:3997   */\n      dup5\n        /* \"#utility.yul\":3986:3989   */\n      dup5\n        /* \"#utility.yul\":3982:3998   */\n      add\n        /* \"#utility.yul\":3975:4002   */\n      mstore\n        /* \"#utility.yul\":3824:4008   */\n      pop\n        /* \"#utility.yul\":3762:4008   */\n      pop\n      pop\n      pop\n      jump\t// out\n        /* \"#utility.yul\":4014:4404   */\n    tag_43:\n        /* \"#utility.yul\":4120:4123   */\n      0x00\n        /* \"#utility.yul\":4148:4187   */\n      tag_95\n        /* \"#utility.yul\":4181:4186   */\n      dup3\n        /* \"#utility.yul\":4148:4187   */\n      tag_40\n      jump\t// in\n    tag_95:\n        /* \"#utility.yul\":4203:4292   */\n      tag_96\n        /* \"#utility.yul\":4285:4291   */\n      dup2\n        /* \"#utility.yul\":4280:4283   */\n      dup6\n        /* \"#utility.yul\":4203:4292   */\n      tag_41\n      jump\t// in\n    tag_96:\n        /* \"#utility.yul\":4196:4292   */\n      swap4\n      pop\n        /* \"#utility.yul\":4301:4366   */\n      tag_97\n        /* \"#utility.yul\":4359:4365   */\n      dup2\n        /* \"#utility.yul\":4354:4357   */\n      dup6\n        /* \"#utility.yul\":4347:4351   */\n      0x20\n        /* \"#utility.yul\":4340:4345   */\n      dup7\n        /* \"#utility.yul\":4336:4352   */\n      add\n        /* \"#utility.yul\":4301:4366   */\n      tag_42\n      jump\t// in\n    tag_97:\n        /* \"#utility.yul\":4391:4397   */\n      dup1\n        /* \"#utility.yul\":4386:4389   */\n      dup5\n        /* \"#utility.yul\":4382:4398   */\n      add\n        /* \"#utility.yul\":4375:4398   */\n      swap2\n      pop\n        /* \"#utility.yul\":4124:4404   */\n      pop\n        /* \"#utility.yul\":4014:4404   */\n      swap3\n      swap2\n      pop\n      pop\n      jump\t// out\n        /* \"#utility.yul\":4410:4685   */\n    tag_19:\n        /* \"#utility.yul\":4542:4545   */\n      0x00\n        /* \"#utility.yul\":4564:4659   */\n      tag_99\n        /* \"#utility.yul\":4655:4658   */\n      dup3\n        /* \"#utility.yul\":4646:4652   */\n      dup5\n        /* \"#utility.yul\":4564:4659   */\n      tag_43\n      jump\t// in\n    tag_99:\n        /* \"#utility.yul\":4557:4659   */\n      swap2\n      pop\n        /* \"#utility.yul\":4676:4679   */\n      dup2\n        /* \"#utility.yul\":4669:4679   */\n      swap1\n      pop\n        /* \"#utility.yul\":4410:4685   */\n      swap3\n      swap2\n      pop\n      pop\n      jump\t// out\n        /* \"#utility.yul\":4691:4860   */\n    tag_44:\n        /* \"#utility.yul\":4775:4786   */\n      0x00\n        /* \"#utility.yul\":4809:4815   */\n      dup3\n        /* \"#utility.yul\":4804:4807   */\n      dup3\n        /* \"#utility.yul\":4797:4816   */\n      mstore\n        /* \"#utility.yul\":4849:4853   */\n      0x20\n        /* \"#utility.yul\":4844:4847   */\n      dup3\n        /* \"#utility.yul\":4840:4854   */\n      add\n        /* \"#utility.yul\":4825:4854   */\n      swap1\n      pop\n        /* \"#utility.yul\":4691:4860   */\n      swap3\n      swap2\n      pop\n      pop\n      jump\t// out\n        /* \"#utility.yul\":4866:5041   */\n    tag_45:\n        /* \"#utility.yul\":5006:5033   */\n      0x70617373776f726e64206e6f74206d6174636865642e2e2e2e00000000000000\n        /* \"#utility.yul\":5002:5003   */\n      0x00\n        /* \"#utility.yul\":4994:5000   */\n      dup3\n        /* \"#utility.yul\":4990:5004   */\n      add\n        /* \"#utility.yul\":4983:5034   */\n      mstore\n        /* \"#utility.yul\":4866:5041   */\n      pop\n      jump\t// out\n        /* \"#utility.yul\":5047:5413   */\n    tag_46:\n        /* \"#utility.yul\":5189:5192   */\n      0x00\n        /* \"#utility.yul\":5210:5277   */\n      tag_103\n        /* \"#utility.yul\":5274:5276   */\n      0x19\n        /* \"#utility.yul\":5269:5272   */\n      dup4\n        /* \"#utility.yul\":5210:5277   */\n      tag_44\n      jump\t// in\n    tag_103:\n        /* \"#utility.yul\":5203:5277   */\n      swap2\n      pop\n        /* \"#utility.yul\":5286:5379   */\n      tag_104\n        /* \"#utility.yul\":5375:5378   */\n      dup3\n        /* \"#utility.yul\":5286:5379   */\n      tag_45\n      jump\t// in\n    tag_104:\n        /* \"#utility.yul\":5404:5406   */\n      0x20\n        /* \"#utility.yul\":5399:5402   */\n      dup3\n        /* \"#utility.yul\":5395:5407   */\n      add\n        /* \"#utility.yul\":5388:5407   */\n      swap1\n      pop\n        /* \"#utility.yul\":5047:5413   */\n      swap2\n      swap1\n      pop\n      jump\t// out\n        /* \"#utility.yul\":5419:5838   */\n    tag_24:\n        /* \"#utility.yul\":5585:5589   */\n      0x00\n        /* \"#utility.yul\":5623:5625   */\n      0x20\n        /* \"#utility.yul\":5612:5621   */\n      dup3\n        /* \"#utility.yul\":5608:5626   */\n      add\n        /* \"#utility.yul\":5600:5626   */\n      swap1\n      pop\n        /* \"#utility.yul\":5672:5681   */\n      dup2\n        /* \"#utility.yul\":5666:5670   */\n      dup2\n        /* \"#utility.yul\":5662:5682   */\n      sub\n        /* \"#utility.yul\":5658:5659   */\n      0x00\n        /* \"#utility.yul\":5647:5656   */\n      dup4\n        /* \"#utility.yul\":5643:5660   */\n      add\n        /* \"#utility.yul\":5636:5683   */\n      mstore\n        /* \"#utility.yul\":5700:5831   */\n      tag_106\n        /* \"#utility.yul\":5826:5830   */\n      dup2\n        /* \"#utility.yul\":5700:5831   */\n      tag_46\n      jump\t// in\n    tag_106:\n        /* \"#utility.yul\":5692:5831   */\n      swap1\n      pop\n        /* \"#utility.yul\":5419:5838   */\n      swap2\n      swap1\n      pop\n      jump\t// out\n\n    auxdata: 0xa2646970667358221220a8654530d2395df46679e04ade801eac3f5438297d3ebe9df286c16d17b4dbd364736f6c63430008120033\n}\n",
				"bytecode": {
					"linkReferences": {},
					"object": "608060405234801561001057600080fd5b50610451806100206000396000f3fe608060405234801561001057600080fd5b50600436106100415760003560e01c8063224b610b146100465780636f92583d1461006457806385a588f914610080575b600080fd5b61004e61009c565b60405161005b9190610158565b60405180910390f35b61007e600480360381019061007991906102cd565b6100a2565b005b61009a600480360381019061009591906102cd565b6100d2565b005b60005481565b806040516020016100b39190610387565b6040516020818303038152906040528051906020012060008190555050565b806040516020016100e39190610387565b604051602081830303815290604052805190602001206000541461013c576040517f08c379a0000000000000000000000000000000000000000000000000000000008152600401610133906103fb565b60405180910390fd5b50565b6000819050919050565b6101528161013f565b82525050565b600060208201905061016d6000830184610149565b92915050565b6000604051905090565b600080fd5b600080fd5b600080fd5b600080fd5b6000601f19601f8301169050919050565b7f4e487b7100000000000000000000000000000000000000000000000000000000600052604160045260246000fd5b6101da82610191565b810181811067ffffffffffffffff821117156101f9576101f86101a2565b5b80604052505050565b600061020c610173565b905061021882826101d1565b919050565b600067ffffffffffffffff821115610238576102376101a2565b5b61024182610191565b9050602081019050919050565b82818337600083830152505050565b600061027061026b8461021d565b610202565b90508281526020810184848401111561028c5761028b61018c565b5b61029784828561024e565b509392505050565b600082601f8301126102b4576102b3610187565b5b81356102c484826020860161025d565b91505092915050565b6000602082840312156102e3576102e261017d565b5b600082013567ffffffffffffffff81111561030157610300610182565b5b61030d8482850161029f565b91505092915050565b600081519050919050565b600081905092915050565b60005b8381101561034a57808201518184015260208101905061032f565b60008484015250505050565b600061036182610316565b61036b8185610321565b935061037b81856020860161032c565b80840191505092915050565b60006103938284610356565b915081905092915050565b600082825260208201905092915050565b7f70617373776f726e64206e6f74206d6174636865642e2e2e2e00000000000000600082015250565b60006103e560198361039e565b91506103f0826103af565b602082019050919050565b60006020820190508181036000830152610414816103d8565b905091905056fea2646970667358221220a8654530d2395df46679e04ade801eac3f5438297d3ebe9df286c16d17b4dbd364736f6c63430008120033",
					"opcodes": "PUSH1 0x80 PUSH1 0x40 MSTORE CALLVALUE DUP1 ISZERO PUSH2 0x10 JUMPI PUSH1 0x0 DUP1 REVERT JUMPDEST POP PUSH2 0x451 DUP1 PUSH2 0x20 PUSH1 0x0 CODECOPY PUSH1 0x0 RETURN INVALID PUSH1 0x80 PUSH1 0x40 MSTORE CALLVALUE DUP1 ISZERO PUSH2 0x10 JUMPI PUSH1 0x0 DUP1 REVERT JUMPDEST POP PUSH1 0x4 CALLDATASIZE LT PUSH2 0x41 JUMPI PUSH1 0x0 CALLDATALOAD PUSH1 0xE0 SHR DUP1 PUSH4 0x224B610B EQ PUSH2 0x46 JUMPI DUP1 PUSH4 0x6F92583D EQ PUSH2 0x64 JUMPI DUP1 PUSH4 0x85A588F9 EQ PUSH2 0x80 JUMPI JUMPDEST PUSH1 0x0 DUP1 REVERT JUMPDEST PUSH2 0x4E PUSH2 0x9C JUMP JUMPDEST PUSH1 0x40 MLOAD PUSH2 0x5B SWAP2 SWAP1 PUSH2 0x158 JUMP JUMPDEST PUSH1 0x40 MLOAD DUP1 SWAP2 SUB SWAP1 RETURN JUMPDEST PUSH2 0x7E PUSH1 0x4 DUP1 CALLDATASIZE SUB DUP2 ADD SWAP1 PUSH2 0x79 SWAP2 SWAP1 PUSH2 0x2CD JUMP JUMPDEST PUSH2 0xA2 JUMP JUMPDEST STOP JUMPDEST PUSH2 0x9A PUSH1 0x4 DUP1 CALLDATASIZE SUB DUP2 ADD SWAP1 PUSH2 0x95 SWAP2 SWAP1 PUSH2 0x2CD JUMP JUMPDEST PUSH2 0xD2 JUMP JUMPDEST STOP JUMPDEST PUSH1 0x0 SLOAD DUP2 JUMP JUMPDEST DUP1 PUSH1 0x40 MLOAD PUSH1 0x20 ADD PUSH2 0xB3 SWAP2 SWAP1 PUSH2 0x387 JUMP JUMPDEST PUSH1 0x40 MLOAD PUSH1 0x20 DUP2 DUP4 SUB SUB DUP2 MSTORE SWAP1 PUSH1 0x40 MSTORE DUP1 MLOAD SWAP1 PUSH1 0x20 ADD KECCAK256 PUSH1 0x0 DUP2 SWAP1 SSTORE POP POP JUMP JUMPDEST DUP1 PUSH1 0x40 MLOAD PUSH1 0x20 ADD PUSH2 0xE3 SWAP2 SWAP1 PUSH2 0x387 JUMP JUMPDEST PUSH1 0x40 MLOAD PUSH1 0x20 DUP2 DUP4 SUB SUB DUP2 MSTORE SWAP1 PUSH1 0x40 MSTORE DUP1 MLOAD SWAP1 PUSH1 0x20 ADD KECCAK256 PUSH1 0x0 SLOAD EQ PUSH2 0x13C JUMPI PUSH1 0x40 MLOAD PUSH32 0x8C379A000000000000000000000000000000000000000000000000000000000 DUP2 MSTORE PUSH1 0x4 ADD PUSH2 0x133 SWAP1 PUSH2 0x3FB JUMP JUMPDEST PUSH1 0x40 MLOAD DUP1 SWAP2 SUB SWAP1 REVERT JUMPDEST POP JUMP JUMPDEST PUSH1 0x0 DUP2 SWAP1 POP SWAP2 SWAP1 POP JUMP JUMPDEST PUSH2 0x152 DUP2 PUSH2 0x13F JUMP JUMPDEST DUP3 MSTORE POP POP JUMP JUMPDEST PUSH1 0x0 PUSH1 0x20 DUP3 ADD SWAP1 POP PUSH2 0x16D PUSH1 0x0 DUP4 ADD DUP5 PUSH2 0x149 JUMP JUMPDEST SWAP3 SWAP2 POP POP JUMP JUMPDEST PUSH1 0x0 PUSH1 0x40 MLOAD SWAP1 POP SWAP1 JUMP JUMPDEST PUSH1 0x0 DUP1 REVERT JUMPDEST PUSH1 0x0 DUP1 REVERT JUMPDEST PUSH1 0x0 DUP1 REVERT JUMPDEST PUSH1 0x0 DUP1 REVERT JUMPDEST PUSH1 0x0 PUSH1 0x1F NOT PUSH1 0x1F DUP4 ADD AND SWAP1 POP SWAP2 SWAP1 POP JUMP JUMPDEST PUSH32 0x4E487B7100000000000000000000000000000000000000000000000000000000 PUSH1 0x0 MSTORE PUSH1 0x41 PUSH1 0x4 MSTORE PUSH1 0x24 PUSH1 0x0 REVERT JUMPDEST PUSH2 0x1DA DUP3 PUSH2 0x191 JUMP JUMPDEST DUP2 ADD DUP2 DUP2 LT PUSH8 0xFFFFFFFFFFFFFFFF DUP3 GT OR ISZERO PUSH2 0x1F9 JUMPI PUSH2 0x1F8 PUSH2 0x1A2 JUMP JUMPDEST JUMPDEST DUP1 PUSH1 0x40 MSTORE POP POP POP JUMP JUMPDEST PUSH1 0x0 PUSH2 0x20C PUSH2 0x173 JUMP JUMPDEST SWAP1 POP PUSH2 0x218 DUP3 DUP3 PUSH2 0x1D1 JUMP JUMPDEST SWAP2 SWAP1 POP JUMP JUMPDEST PUSH1 0x0 PUSH8 0xFFFFFFFFFFFFFFFF DUP3 GT ISZERO PUSH2 0x238 JUMPI PUSH2 0x237 PUSH2 0x1A2 JUMP JUMPDEST JUMPDEST PUSH2 0x241 DUP3 PUSH2 0x191 JUMP JUMPDEST SWAP1 POP PUSH1 0x20 DUP2 ADD SWAP1 POP SWAP2 SWAP1 POP JUMP JUMPDEST DUP3 DUP2 DUP4 CALLDATACOPY PUSH1 0x0 DUP4 DUP4 ADD MSTORE POP POP POP JUMP JUMPDEST PUSH1 0x0 PUSH2 0x270 PUSH2 0x26B DUP5 PUSH2 0x21D JUMP JUMPDEST PUSH2 0x202 JUMP JUMPDEST SWAP1 POP DUP3 DUP2 MSTORE PUSH1 0x20 DUP2 ADD DUP5 DUP5 DUP5 ADD GT ISZERO PUSH2 0x28C JUMPI PUSH2 0x28B PUSH2 0x18C JUMP JUMPDEST JUMPDEST PUSH2 0x297 DUP5 DUP3 DUP6 PUSH2 0x24E JUMP JUMPDEST POP SWAP4 SWAP3 POP POP POP JUMP JUMPDEST PUSH1 0x0 DUP3 PUSH1 0x1F DUP4 ADD SLT PUSH2 0x2B4 JUMPI PUSH2 0x2B3 PUSH2 0x187 JUMP JUMPDEST JUMPDEST DUP2 CALLDATALOAD PUSH2 0x2C4 DUP5 DUP3 PUSH1 0x20 DUP7 ADD PUSH2 0x25D JUMP JUMPDEST SWAP2 POP POP SWAP3 SWAP2 POP POP JUMP JUMPDEST PUSH1 0x0 PUSH1 0x20 DUP3 DUP5 SUB SLT ISZERO PUSH2 0x2E3 JUMPI PUSH2 0x2E2 PUSH2 0x17D JUMP JUMPDEST JUMPDEST PUSH1 0x0 DUP3 ADD CALLDATALOAD PUSH8 0xFFFFFFFFFFFFFFFF DUP2 GT ISZERO PUSH2 0x301 JUMPI PUSH2 0x300 PUSH2 0x182 JUMP JUMPDEST JUMPDEST PUSH2 0x30D DUP5 DUP3 DUP6 ADD PUSH2 0x29F JUMP JUMPDEST SWAP2 POP POP SWAP3 SWAP2 POP POP JUMP JUMPDEST PUSH1 0x0 DUP2 MLOAD SWAP1 POP SWAP2 SWAP1 POP JUMP JUMPDEST PUSH1 0x0 DUP2 SWAP1 POP SWAP3 SWAP2 POP POP JUMP JUMPDEST PUSH1 0x0 JUMPDEST DUP4 DUP2 LT ISZERO PUSH2 0x34A JUMPI DUP1 DUP3 ADD MLOAD DUP2 DUP5 ADD MSTORE PUSH1 0x20 DUP2 ADD SWAP1 POP PUSH2 0x32F JUMP JUMPDEST PUSH1 0x0 DUP5 DUP5 ADD MSTORE POP POP POP POP JUMP JUMPDEST PUSH1 0x0 PUSH2 0x361 DUP3 PUSH2 0x316 JUMP JUMPDEST PUSH2 0x36B DUP2 DUP6 PUSH2 0x321 JUMP JUMPDEST SWAP4 POP PUSH2 0x37B DUP2 DUP6 PUSH1 0x20 DUP7 ADD PUSH2 0x32C JUMP JUMPDEST DUP1 DUP5 ADD SWAP2 POP POP SWAP3 SWAP2 POP POP JUMP JUMPDEST PUSH1 0x0 PUSH2 0x393 DUP3 DUP5 PUSH2 0x356 JUMP JUMPDEST SWAP2 POP DUP2 SWAP1 POP SWAP3 SWAP2 POP POP JUMP JUMPDEST PUSH1 0x0 DUP3 DUP3 MSTORE PUSH1 0x20 DUP3 ADD SWAP1 POP SWAP3 SWAP2 POP POP JUMP JUMPDEST PUSH32 0x70617373776F726E64206E6F74206D6174636865642E2E2E2E00000000000000 PUSH1 0x0 DUP3 ADD MSTORE POP JUMP JUMPDEST PUSH1 0x0 PUSH2 0x3E5 PUSH1 0x19 DUP4 PUSH2 0x39E JUMP JUMPDEST SWAP2 POP PUSH2 0x3F0 DUP3 PUSH2 0x3AF JUMP JUMPDEST PUSH1 0x20 DUP3 ADD SWAP1 POP SWAP2 SWAP1 POP JUMP JUMPDEST PUSH1 0x0 PUSH1 0x20 DUP3 ADD SWAP1 POP DUP2 DUP2 SUB PUSH1 0x0 DUP4 ADD MSTORE PUSH2 0x414 DUP2 PUSH2 0x3D8 JUMP JUMPDEST SWAP1 POP SWAP2 SWAP1 POP JUMP INVALID LOG2 PUSH5 0x6970667358 0x22 SLT KECCAK256 0xA8 PUSH6 0x4530D2395DF4 PUSH7 0x79E04ADE801EAC EXTCODEHASH SLOAD CODESIZE 0x29 PUSH30 0x3EBE9DF286C16D17B4DBD364736F6C634300081200330000000000000000 "
				},
				"gasEstimates": {
					"creation": {
						"codeDepositCost": "221000",
						"executionCost": "263",
						"totalCost": "221263"
					},
					"external": {
						"chekPass(string)": "infinite",
						"genPass(string)": "infinite",
						"password()": "2407"
					}
				},
				"methodIdentifiers": {
					"chekPass(string)": "85a588f9",
					"genPass(string)": "6f92583d",
					"password()": "224b610b"
				}
			},
			"storageLayout": {
				"storage": [
					{
						"astId": 3,
						"contract": "contracts/cryptographic.sol:pass",
						"label": "password",
						"offset": 0,
						"slot": "0",
						"type": "t_bytes32"
					}
				],
				"types": {
					"t_bytes32": {
						"encoding": "inplace",
						"label": "bytes32",
						"numberOfBytes": "32"
					}
				}
			},
			"userdoc": {
				"kind": "user",
				"methods": {},
				"version": 1
			}
		}
	}
}