{
	"Vesting Contract/v4.sol": {
		"Vesting": {
			"abi": [
				{
					"inputs": [
						{
							"internalType": "address",
							"name": "_token",
							"type": "address"
						}
					],
					"stateMutability": "nonpayable",
					"type": "constructor"
				},
				{
					"anonymous": false,
					"inputs": [
						{
							"indexed": true,
							"internalType": "address",
							"name": "beneficiary",
							"type": "address"
						},
						{
							"indexed": false,
							"internalType": "uint256",
							"name": "amount",
							"type": "uint256"
						},
						{
							"indexed": false,
							"internalType": "uint256",
							"name": "duration",
							"type": "uint256"
						},
						{
							"indexed": false,
							"internalType": "uint8",
							"name": "slice_period",
							"type": "uint8"
						},
						{
							"indexed": false,
							"internalType": "uint256",
							"name": "start",
							"type": "uint256"
						},
						{
							"indexed": false,
							"internalType": "uint8",
							"name": "cliff",
							"type": "uint8"
						}
					],
					"name": "VestingLocked",
					"type": "event"
				},
				{
					"anonymous": false,
					"inputs": [
						{
							"indexed": true,
							"internalType": "address",
							"name": "beneficiary",
							"type": "address"
						},
						{
							"indexed": false,
							"internalType": "uint256",
							"name": "index",
							"type": "uint256"
						},
						{
							"indexed": false,
							"internalType": "uint256",
							"name": "amount",
							"type": "uint256"
						}
					],
					"name": "VestingWithdrawn",
					"type": "event"
				},
				{
					"inputs": [
						{
							"internalType": "address",
							"name": "_add",
							"type": "address"
						}
					],
					"name": "addWhitelist",
					"outputs": [],
					"stateMutability": "nonpayable",
					"type": "function"
				},
				{
					"inputs": [
						{
							"internalType": "uint256",
							"name": "index",
							"type": "uint256"
						}
					],
					"name": "calculate_available_withdraw_token",
					"outputs": [
						{
							"internalType": "uint256",
							"name": "",
							"type": "uint256"
						}
					],
					"stateMutability": "view",
					"type": "function"
				},
				{
					"inputs": [
						{
							"internalType": "uint256",
							"name": "index",
							"type": "uint256"
						}
					],
					"name": "calculate_remaining_token",
					"outputs": [
						{
							"internalType": "uint256",
							"name": "",
							"type": "uint256"
						}
					],
					"stateMutability": "view",
					"type": "function"
				},
				{
					"inputs": [],
					"name": "getTime",
					"outputs": [
						{
							"internalType": "uint256",
							"name": "",
							"type": "uint256"
						}
					],
					"stateMutability": "view",
					"type": "function"
				},
				{
					"inputs": [
						{
							"internalType": "uint256",
							"name": "_amount",
							"type": "uint256"
						},
						{
							"internalType": "uint256",
							"name": "_duration",
							"type": "uint256"
						},
						{
							"internalType": "uint8",
							"name": "_slice_period",
							"type": "uint8"
						},
						{
							"internalType": "uint256",
							"name": "_start",
							"type": "uint256"
						},
						{
							"internalType": "uint8",
							"name": "_cliff",
							"type": "uint8"
						},
						{
							"internalType": "address",
							"name": "_beneficiaries",
							"type": "address"
						}
					],
					"name": "lock",
					"outputs": [],
					"stateMutability": "nonpayable",
					"type": "function"
				},
				{
					"inputs": [],
					"name": "token",
					"outputs": [
						{
							"internalType": "contract ERC20",
							"name": "",
							"type": "address"
						}
					],
					"stateMutability": "view",
					"type": "function"
				},
				{
					"inputs": [
						{
							"internalType": "address",
							"name": "",
							"type": "address"
						},
						{
							"internalType": "uint256",
							"name": "",
							"type": "uint256"
						}
					],
					"name": "vestings",
					"outputs": [
						{
							"internalType": "uint256",
							"name": "amount",
							"type": "uint256"
						},
						{
							"internalType": "uint256",
							"name": "start",
							"type": "uint256"
						},
						{
							"internalType": "uint256",
							"name": "duration",
							"type": "uint256"
						},
						{
							"internalType": "bool",
							"name": "locked",
							"type": "bool"
						},
						{
							"internalType": "bool",
							"name": "claimed",
							"type": "bool"
						},
						{
							"internalType": "uint8",
							"name": "slice_period",
							"type": "uint8"
						},
						{
							"internalType": "uint8",
							"name": "cliff",
							"type": "uint8"
						},
						{
							"internalType": "uint256",
							"name": "recive_on_interval",
							"type": "uint256"
						},
						{
							"internalType": "uint256",
							"name": "last_timestamp",
							"type": "uint256"
						},
						{
							"internalType": "address",
							"name": "beneficiaries",
							"type": "address"
						},
						{
							"internalType": "uint256",
							"name": "total_withdrawable",
							"type": "uint256"
						},
						{
							"internalType": "uint256",
							"name": "temp",
							"type": "uint256"
						}
					],
					"stateMutability": "view",
					"type": "function"
				},
				{
					"inputs": [
						{
							"internalType": "address",
							"name": "",
							"type": "address"
						}
					],
					"name": "whitelist",
					"outputs": [
						{
							"internalType": "bool",
							"name": "",
							"type": "bool"
						}
					],
					"stateMutability": "view",
					"type": "function"
				},
				{
					"inputs": [
						{
							"internalType": "uint256",
							"name": "index",
							"type": "uint256"
						}
					],
					"name": "withdraw",
					"outputs": [],
					"stateMutability": "nonpayable",
					"type": "function"
				}
			],
			"devdoc": {
				"kind": "dev",
				"methods": {},
				"version": 1
			},
			"evm": {
				"assembly": "    /* \"Vesting Contract/v4.sol\":121:3643  contract Vesting {... */\n  mstore(0x40, 0x80)\n    /* \"Vesting Contract/v4.sol\":175:257  constructor(address _token) {... */\n  callvalue\n  dup1\n  iszero\n  tag_1\n  jumpi\n  0x00\n  dup1\n  revert\ntag_1:\n  pop\n  mload(0x40)\n  sub(codesize, bytecodeSize)\n  dup1\n  bytecodeSize\n  dup4\n  codecopy\n  dup2\n  dup2\n  add\n  0x40\n  mstore\n  dup2\n  add\n  swap1\n  tag_2\n  swap2\n  swap1\n  tag_3\n  jump\t// in\ntag_2:\n    /* \"Vesting Contract/v4.sol\":223:229  _token */\n  dup1\n    /* \"Vesting Contract/v4.sol\":209:214  token */\n  0x00\n  dup1\n    /* \"Vesting Contract/v4.sol\":209:230  token = ERC20(_token) */\n  0x0100\n  exp\n  dup2\n  sload\n  dup2\n  0xffffffffffffffffffffffffffffffffffffffff\n  mul\n  not\n  and\n  swap1\n  dup4\n  0xffffffffffffffffffffffffffffffffffffffff\n  and\n  mul\n  or\n  swap1\n  sstore\n  pop\n    /* \"Vesting Contract/v4.sol\":244:254  msg.sender */\n  caller\n    /* \"Vesting Contract/v4.sol\":236:241  owner */\n  0x01\n  0x00\n    /* \"Vesting Contract/v4.sol\":236:254  owner = msg.sender */\n  0x0100\n  exp\n  dup2\n  sload\n  dup2\n  0xffffffffffffffffffffffffffffffffffffffff\n  mul\n  not\n  and\n  swap1\n  dup4\n  0xffffffffffffffffffffffffffffffffffffffff\n  and\n  mul\n  or\n  swap1\n  sstore\n  pop\n    /* \"Vesting Contract/v4.sol\":175:257  constructor(address _token) {... */\n  pop\n    /* \"Vesting Contract/v4.sol\":121:3643  contract Vesting {... */\n  jump(tag_6)\n    /* \"#utility.yul\":88:205   */\ntag_8:\n    /* \"#utility.yul\":197:198   */\n  0x00\n    /* \"#utility.yul\":194:195   */\n  dup1\n    /* \"#utility.yul\":187:199   */\n  revert\n    /* \"#utility.yul\":334:460   */\ntag_10:\n    /* \"#utility.yul\":371:378   */\n  0x00\n    /* \"#utility.yul\":411:453   */\n  0xffffffffffffffffffffffffffffffffffffffff\n    /* \"#utility.yul\":404:409   */\n  dup3\n    /* \"#utility.yul\":400:454   */\n  and\n    /* \"#utility.yul\":389:454   */\n  swap1\n  pop\n    /* \"#utility.yul\":334:460   */\n  swap2\n  swap1\n  pop\n  jump\t// out\n    /* \"#utility.yul\":466:562   */\ntag_11:\n    /* \"#utility.yul\":503:510   */\n  0x00\n    /* \"#utility.yul\":532:556   */\n  tag_20\n    /* \"#utility.yul\":550:555   */\n  dup3\n    /* \"#utility.yul\":532:556   */\n  tag_10\n  jump\t// in\ntag_20:\n    /* \"#utility.yul\":521:556   */\n  swap1\n  pop\n    /* \"#utility.yul\":466:562   */\n  swap2\n  swap1\n  pop\n  jump\t// out\n    /* \"#utility.yul\":568:690   */\ntag_12:\n    /* \"#utility.yul\":641:665   */\n  tag_22\n    /* \"#utility.yul\":659:664   */\n  dup2\n    /* \"#utility.yul\":641:665   */\n  tag_11\n  jump\t// in\ntag_22:\n    /* \"#utility.yul\":634:639   */\n  dup2\n    /* \"#utility.yul\":631:666   */\n  eq\n    /* \"#utility.yul\":621:684   */\n  tag_23\n  jumpi\n    /* \"#utility.yul\":680:681   */\n  0x00\n    /* \"#utility.yul\":677:678   */\n  dup1\n    /* \"#utility.yul\":670:682   */\n  revert\n    /* \"#utility.yul\":621:684   */\ntag_23:\n    /* \"#utility.yul\":568:690   */\n  pop\n  jump\t// out\n    /* \"#utility.yul\":696:839   */\ntag_13:\n    /* \"#utility.yul\":753:758   */\n  0x00\n    /* \"#utility.yul\":784:790   */\n  dup2\n    /* \"#utility.yul\":778:791   */\n  mload\n    /* \"#utility.yul\":769:791   */\n  swap1\n  pop\n    /* \"#utility.yul\":800:833   */\n  tag_25\n    /* \"#utility.yul\":827:832   */\n  dup2\n    /* \"#utility.yul\":800:833   */\n  tag_12\n  jump\t// in\ntag_25:\n    /* \"#utility.yul\":696:839   */\n  swap3\n  swap2\n  pop\n  pop\n  jump\t// out\n    /* \"#utility.yul\":845:1196   */\ntag_3:\n    /* \"#utility.yul\":915:921   */\n  0x00\n    /* \"#utility.yul\":964:966   */\n  0x20\n    /* \"#utility.yul\":952:961   */\n  dup3\n    /* \"#utility.yul\":943:950   */\n  dup5\n    /* \"#utility.yul\":939:962   */\n  sub\n    /* \"#utility.yul\":935:967   */\n  slt\n    /* \"#utility.yul\":932:1051   */\n  iszero\n  tag_27\n  jumpi\n    /* \"#utility.yul\":970:1049   */\n  tag_28\n  tag_8\n  jump\t// in\ntag_28:\n    /* \"#utility.yul\":932:1051   */\ntag_27:\n    /* \"#utility.yul\":1090:1091   */\n  0x00\n    /* \"#utility.yul\":1115:1179   */\n  tag_29\n    /* \"#utility.yul\":1171:1178   */\n  dup5\n    /* \"#utility.yul\":1162:1168   */\n  dup3\n    /* \"#utility.yul\":1151:1160   */\n  dup6\n    /* \"#utility.yul\":1147:1169   */\n  add\n    /* \"#utility.yul\":1115:1179   */\n  tag_13\n  jump\t// in\ntag_29:\n    /* \"#utility.yul\":1105:1179   */\n  swap2\n  pop\n    /* \"#utility.yul\":1061:1189   */\n  pop\n    /* \"#utility.yul\":845:1196   */\n  swap3\n  swap2\n  pop\n  pop\n  jump\t// out\n    /* \"Vesting Contract/v4.sol\":121:3643  contract Vesting {... */\ntag_6:\n  dataSize(sub_0)\n  dup1\n  dataOffset(sub_0)\n  0x00\n  codecopy\n  0x00\n  return\nstop\n\nsub_0: assembly {\n        /* \"Vesting Contract/v4.sol\":121:3643  contract Vesting {... */\n      mstore(0x40, 0x80)\n      callvalue\n      dup1\n      iszero\n      tag_1\n      jumpi\n      0x00\n      dup1\n      revert\n    tag_1:\n      pop\n      jumpi(tag_2, lt(calldatasize, 0x04))\n      shr(0xe0, calldataload(0x00))\n      dup1\n      0x9b19251a\n      gt\n      tag_12\n      jumpi\n      dup1\n      0x9b19251a\n      eq\n      tag_7\n      jumpi\n      dup1\n      0xaa9d691d\n      eq\n      tag_8\n      jumpi\n      dup1\n      0xbd84477d\n      eq\n      tag_9\n      jumpi\n      dup1\n      0xf80f5dd5\n      eq\n      tag_10\n      jumpi\n      dup1\n      0xfc0c546a\n      eq\n      tag_11\n      jumpi\n      jump(tag_2)\n    tag_12:\n      dup1\n      0x2e1a7d4d\n      eq\n      tag_3\n      jumpi\n      dup1\n      0x3d129567\n      eq\n      tag_4\n      jumpi\n      dup1\n      0x557ed1ba\n      eq\n      tag_5\n      jumpi\n      dup1\n      0x5952ffd1\n      eq\n      tag_6\n      jumpi\n    tag_2:\n      0x00\n      dup1\n      revert\n        /* \"Vesting Contract/v4.sol\":2024:2739  function withdraw(uint256 index) external {... */\n    tag_3:\n      tag_13\n      0x04\n      dup1\n      calldatasize\n      sub\n      dup2\n      add\n      swap1\n      tag_14\n      swap2\n      swap1\n      tag_15\n      jump\t// in\n    tag_14:\n      tag_16\n      jump\t// in\n    tag_13:\n      stop\n        /* \"Vesting Contract/v4.sol\":3283:3559  function calculate_remaining_token(uint index) public view returns(uint256){... */\n    tag_4:\n      tag_17\n      0x04\n      dup1\n      calldatasize\n      sub\n      dup2\n      add\n      swap1\n      tag_18\n      swap2\n      swap1\n      tag_15\n      jump\t// in\n    tag_18:\n      tag_19\n      jump\t// in\n    tag_17:\n      mload(0x40)\n      tag_20\n      swap2\n      swap1\n      tag_21\n      jump\t// in\n    tag_20:\n      mload(0x40)\n      dup1\n      swap2\n      sub\n      swap1\n      return\n        /* \"Vesting Contract/v4.sol\":3561:3641  function getTime() public view returns (uint256) {... */\n    tag_5:\n      tag_22\n      tag_23\n      jump\t// in\n    tag_22:\n      mload(0x40)\n      tag_24\n      swap2\n      swap1\n      tag_21\n      jump\t// in\n    tag_24:\n      mload(0x40)\n      dup1\n      swap2\n      sub\n      swap1\n      return\n        /* \"Vesting Contract/v4.sol\":2742:3281  function calculate_available_withdraw_token(uint256 index) public view returns(uint256) {... */\n    tag_6:\n      tag_25\n      0x04\n      dup1\n      calldatasize\n      sub\n      dup2\n      add\n      swap1\n      tag_26\n      swap2\n      swap1\n      tag_15\n      jump\t// in\n    tag_26:\n      tag_27\n      jump\t// in\n    tag_25:\n      mload(0x40)\n      tag_28\n      swap2\n      swap1\n      tag_21\n      jump\t// in\n    tag_28:\n      mload(0x40)\n      dup1\n      swap2\n      sub\n      swap1\n      return\n        /* \"Vesting Contract/v4.sol\":616:657  mapping(address => bool) public whitelist */\n    tag_7:\n      tag_29\n      0x04\n      dup1\n      calldatasize\n      sub\n      dup2\n      add\n      swap1\n      tag_30\n      swap2\n      swap1\n      tag_31\n      jump\t// in\n    tag_30:\n      tag_32\n      jump\t// in\n    tag_29:\n      mload(0x40)\n      tag_33\n      swap2\n      swap1\n      tag_34\n      jump\t// in\n    tag_33:\n      mload(0x40)\n      dup1\n      swap2\n      sub\n      swap1\n      return\n        /* \"Vesting Contract/v4.sol\":1080:2023  function lock(... */\n    tag_8:\n      tag_35\n      0x04\n      dup1\n      calldatasize\n      sub\n      dup2\n      add\n      swap1\n      tag_36\n      swap2\n      swap1\n      tag_37\n      jump\t// in\n    tag_36:\n      tag_38\n      jump\t// in\n    tag_35:\n      stop\n        /* \"Vesting Contract/v4.sol\":561:614  mapping(address => VestingSchedule[]) public vestings */\n    tag_9:\n      tag_39\n      0x04\n      dup1\n      calldatasize\n      sub\n      dup2\n      add\n      swap1\n      tag_40\n      swap2\n      swap1\n      tag_41\n      jump\t// in\n    tag_40:\n      tag_42\n      jump\t// in\n    tag_39:\n      mload(0x40)\n      tag_43\n      swap13\n      swap12\n      swap11\n      swap10\n      swap9\n      swap8\n      swap7\n      swap6\n      swap5\n      swap4\n      swap3\n      swap2\n      swap1\n      tag_44\n      jump\t// in\n    tag_43:\n      mload(0x40)\n      dup1\n      swap2\n      sub\n      swap1\n      return\n        /* \"Vesting Contract/v4.sol\":777:859  function addWhitelist (address _add) public onlyOwner{... */\n    tag_10:\n      tag_45\n      0x04\n      dup1\n      calldatasize\n      sub\n      dup2\n      add\n      swap1\n      tag_46\n      swap2\n      swap1\n      tag_31\n      jump\t// in\n    tag_46:\n      tag_47\n      jump\t// in\n    tag_45:\n      stop\n        /* \"Vesting Contract/v4.sol\":140:158  ERC20 public token */\n    tag_11:\n      tag_48\n      tag_49\n      jump\t// in\n    tag_48:\n      mload(0x40)\n      tag_50\n      swap2\n      swap1\n      tag_51\n      jump\t// in\n    tag_50:\n      mload(0x40)\n      dup1\n      swap2\n      sub\n      swap1\n      return\n        /* \"Vesting Contract/v4.sol\":2024:2739  function withdraw(uint256 index) external {... */\n    tag_16:\n        /* \"Vesting Contract/v4.sol\":2072:2103  VestingSchedule storage vesting */\n      0x00\n        /* \"Vesting Contract/v4.sol\":2106:2114  vestings */\n      0x02\n        /* \"Vesting Contract/v4.sol\":2106:2126  vestings[msg.sender] */\n      0x00\n        /* \"Vesting Contract/v4.sol\":2115:2125  msg.sender */\n      caller\n        /* \"Vesting Contract/v4.sol\":2106:2126  vestings[msg.sender] */\n      0xffffffffffffffffffffffffffffffffffffffff\n      and\n      0xffffffffffffffffffffffffffffffffffffffff\n      and\n      dup2\n      mstore\n      0x20\n      add\n      swap1\n      dup2\n      mstore\n      0x20\n      add\n      0x00\n      keccak256\n        /* \"Vesting Contract/v4.sol\":2127:2132  index */\n      dup3\n        /* \"Vesting Contract/v4.sol\":2106:2133  vestings[msg.sender][index] */\n      dup2\n      sload\n      dup2\n      lt\n      tag_53\n      jumpi\n      tag_54\n      tag_55\n      jump\t// in\n    tag_54:\n    tag_53:\n      swap1\n      0x00\n      mstore\n      keccak256(0x00, 0x20)\n      swap1\n      0x09\n      mul\n      add\n        /* \"Vesting Contract/v4.sol\":2072:2133  VestingSchedule storage vesting = vestings[msg.sender][index] */\n      swap1\n      pop\n        /* \"Vesting Contract/v4.sol\":2148:2155  vesting */\n      dup1\n        /* \"Vesting Contract/v4.sol\":2148:2162  vesting.locked */\n      0x03\n      add\n      0x00\n      swap1\n      sload\n      swap1\n      0x0100\n      exp\n      swap1\n      div\n      0xff\n      and\n        /* \"Vesting Contract/v4.sol\":2140:2193  require(vesting.locked, \"Funds have not been locked\") */\n      tag_57\n      jumpi\n      mload(0x40)\n      0x08c379a000000000000000000000000000000000000000000000000000000000\n      dup2\n      mstore\n      0x04\n      add\n      tag_58\n      swap1\n      tag_59\n      jump\t// in\n    tag_58:\n      mload(0x40)\n      dup1\n      swap2\n      sub\n      swap1\n      revert\n    tag_57:\n        /* \"Vesting Contract/v4.sol\":2219:2226  vesting */\n      dup1\n        /* \"Vesting Contract/v4.sol\":2219:2232  vesting.start */\n      0x01\n      add\n      sload\n        /* \"Vesting Contract/v4.sol\":2207:2216  getTime() */\n      tag_60\n        /* \"Vesting Contract/v4.sol\":2207:2214  getTime */\n      tag_23\n        /* \"Vesting Contract/v4.sol\":2207:2216  getTime() */\n      jump\t// in\n    tag_60:\n        /* \"Vesting Contract/v4.sol\":2207:2232  getTime() > vesting.start */\n      gt\n        /* \"Vesting Contract/v4.sol\":2199:2270  require(getTime() > vesting.start, \"Token under locking please wait..\") */\n      tag_61\n      jumpi\n      mload(0x40)\n      0x08c379a000000000000000000000000000000000000000000000000000000000\n      dup2\n      mstore\n      0x04\n      add\n      tag_62\n      swap1\n      tag_63\n      jump\t// in\n    tag_62:\n      mload(0x40)\n      dup1\n      swap2\n      sub\n      swap1\n      revert\n    tag_61:\n        /* \"Vesting Contract/v4.sol\":2277:2297  uint256 withdrawable */\n      0x00\n        /* \"Vesting Contract/v4.sol\":2300:2341  calculate_available_withdraw_token(index) */\n      tag_64\n        /* \"Vesting Contract/v4.sol\":2335:2340  index */\n      dup4\n        /* \"Vesting Contract/v4.sol\":2300:2334  calculate_available_withdraw_token */\n      tag_27\n        /* \"Vesting Contract/v4.sol\":2300:2341  calculate_available_withdraw_token(index) */\n      jump\t// in\n    tag_64:\n        /* \"Vesting Contract/v4.sol\":2277:2341  uint256 withdrawable = calculate_available_withdraw_token(index) */\n      swap1\n      pop\n        /* \"Vesting Contract/v4.sol\":2370:2371  0 */\n      0x00\n        /* \"Vesting Contract/v4.sol\":2355:2367  withdrawable */\n      dup2\n        /* \"Vesting Contract/v4.sol\":2355:2371  withdrawable > 0 */\n      gt\n        /* \"Vesting Contract/v4.sol\":2347:2410  require(withdrawable > 0, \"No tokens available for withdrawal\") */\n      tag_65\n      jumpi\n      mload(0x40)\n      0x08c379a000000000000000000000000000000000000000000000000000000000\n      dup2\n      mstore\n      0x04\n      add\n      tag_66\n      swap1\n      tag_67\n      jump\t// in\n    tag_66:\n      mload(0x40)\n      dup1\n      swap2\n      sub\n      swap1\n      revert\n    tag_65:\n        /* \"Vesting Contract/v4.sol\":2442:2454  withdrawable */\n      dup1\n        /* \"Vesting Contract/v4.sol\":2424:2431  vesting */\n      dup3\n        /* \"Vesting Contract/v4.sol\":2424:2438  vesting.amount */\n      0x00\n      add\n      sload\n        /* \"Vesting Contract/v4.sol\":2424:2454  vesting.amount >= withdrawable */\n      lt\n      iszero\n        /* \"Vesting Contract/v4.sol\":2416:2488  require(vesting.amount >= withdrawable, \"Not enough tokens to withdraw\") */\n      tag_68\n      jumpi\n      mload(0x40)\n      0x08c379a000000000000000000000000000000000000000000000000000000000\n      dup2\n      mstore\n      0x04\n      add\n      tag_69\n      swap1\n      tag_70\n      jump\t// in\n    tag_69:\n      mload(0x40)\n      dup1\n      swap2\n      sub\n      swap1\n      revert\n    tag_68:\n        /* \"Vesting Contract/v4.sol\":2495:2500  token */\n      0x00\n      dup1\n      sload\n      swap1\n      0x0100\n      exp\n      swap1\n      div\n      0xffffffffffffffffffffffffffffffffffffffff\n      and\n        /* \"Vesting Contract/v4.sol\":2495:2509  token.transfer */\n      0xffffffffffffffffffffffffffffffffffffffff\n      and\n      0xa9059cbb\n        /* \"Vesting Contract/v4.sol\":2510:2520  msg.sender */\n      caller\n        /* \"Vesting Contract/v4.sol\":2522:2534  withdrawable */\n      dup4\n        /* \"Vesting Contract/v4.sol\":2495:2535  token.transfer(msg.sender, withdrawable) */\n      mload(0x40)\n      dup4\n      0xffffffff\n      and\n      0xe0\n      shl\n      dup2\n      mstore\n      0x04\n      add\n      tag_71\n      swap3\n      swap2\n      swap1\n      tag_72\n      jump\t// in\n    tag_71:\n      0x20\n      mload(0x40)\n      dup1\n      dup4\n      sub\n      dup2\n      0x00\n      dup8\n      gas\n      call\n      iszero\n      dup1\n      iszero\n      tag_74\n      jumpi\n      returndatasize\n      0x00\n      dup1\n      returndatacopy\n      revert(0x00, returndatasize)\n    tag_74:\n      pop\n      pop\n      pop\n      pop\n      mload(0x40)\n      returndatasize\n      not(0x1f)\n      0x1f\n      dup3\n      add\n      and\n      dup3\n      add\n      dup1\n      0x40\n      mstore\n      pop\n      dup2\n      add\n      swap1\n      tag_75\n      swap2\n      swap1\n      tag_76\n      jump\t// in\n    tag_75:\n      pop\n        /* \"Vesting Contract/v4.sol\":2557:2569  withdrawable */\n      dup1\n        /* \"Vesting Contract/v4.sol\":2541:2548  vesting */\n      dup3\n        /* \"Vesting Contract/v4.sol\":2541:2553  vesting.temp */\n      0x08\n      add\n      0x00\n        /* \"Vesting Contract/v4.sol\":2541:2569  vesting.temp += withdrawable */\n      dup3\n      dup3\n      sload\n      tag_77\n      swap2\n      swap1\n      tag_78\n      jump\t// in\n    tag_77:\n      swap3\n      pop\n      pop\n      dup2\n      swap1\n      sstore\n      pop\n        /* \"Vesting Contract/v4.sol\":2593:2605  withdrawable */\n      dup1\n        /* \"Vesting Contract/v4.sol\":2575:2582  vesting */\n      dup3\n        /* \"Vesting Contract/v4.sol\":2575:2589  vesting.amount */\n      0x00\n      add\n      0x00\n        /* \"Vesting Contract/v4.sol\":2575:2605  vesting.amount -= withdrawable */\n      dup3\n      dup3\n      sload\n      tag_79\n      swap2\n      swap1\n      tag_80\n      jump\t// in\n    tag_79:\n      swap3\n      pop\n      pop\n      dup2\n      swap1\n      sstore\n      pop\n        /* \"Vesting Contract/v4.sol\":2634:2635  0 */\n      0x00\n        /* \"Vesting Contract/v4.sol\":2616:2623  vesting */\n      dup3\n        /* \"Vesting Contract/v4.sol\":2616:2630  vesting.amount */\n      0x00\n      add\n      sload\n        /* \"Vesting Contract/v4.sol\":2616:2635  vesting.amount == 0 */\n      sub\n        /* \"Vesting Contract/v4.sol\":2612:2676  if (vesting.amount == 0) {... */\n      tag_81\n      jumpi\n        /* \"Vesting Contract/v4.sol\":2664:2669  false */\n      0x00\n        /* \"Vesting Contract/v4.sol\":2647:2654  vesting */\n      dup3\n        /* \"Vesting Contract/v4.sol\":2647:2661  vesting.locked */\n      0x03\n      add\n      0x00\n        /* \"Vesting Contract/v4.sol\":2647:2669  vesting.locked = false */\n      0x0100\n      exp\n      dup2\n      sload\n      dup2\n      0xff\n      mul\n      not\n      and\n      swap1\n      dup4\n      iszero\n      iszero\n      mul\n      or\n      swap1\n      sstore\n      pop\n        /* \"Vesting Contract/v4.sol\":2612:2676  if (vesting.amount == 0) {... */\n    tag_81:\n        /* \"Vesting Contract/v4.sol\":2704:2714  msg.sender */\n      caller\n        /* \"Vesting Contract/v4.sol\":2687:2736  VestingWithdrawn(msg.sender, index, withdrawable) */\n      0xffffffffffffffffffffffffffffffffffffffff\n      and\n      0xccdb21e8b29fbf756f29d5f05c72606ca9e8160ec1a135ca6f50dae471188cec\n        /* \"Vesting Contract/v4.sol\":2716:2721  index */\n      dup5\n        /* \"Vesting Contract/v4.sol\":2723:2735  withdrawable */\n      dup4\n        /* \"Vesting Contract/v4.sol\":2687:2736  VestingWithdrawn(msg.sender, index, withdrawable) */\n      mload(0x40)\n      tag_82\n      swap3\n      swap2\n      swap1\n      tag_83\n      jump\t// in\n    tag_82:\n      mload(0x40)\n      dup1\n      swap2\n      sub\n      swap1\n      log2\n        /* \"Vesting Contract/v4.sol\":2066:2739  {... */\n      pop\n      pop\n        /* \"Vesting Contract/v4.sol\":2024:2739  function withdraw(uint256 index) external {... */\n      pop\n      jump\t// out\n        /* \"Vesting Contract/v4.sol\":3283:3559  function calculate_remaining_token(uint index) public view returns(uint256){... */\n    tag_19:\n        /* \"Vesting Contract/v4.sol\":3350:3357  uint256 */\n      0x00\n        /* \"Vesting Contract/v4.sol\":3364:3395  VestingSchedule storage vesting */\n      dup1\n        /* \"Vesting Contract/v4.sol\":3398:3406  vestings */\n      0x02\n        /* \"Vesting Contract/v4.sol\":3398:3418  vestings[msg.sender] */\n      0x00\n        /* \"Vesting Contract/v4.sol\":3407:3417  msg.sender */\n      caller\n        /* \"Vesting Contract/v4.sol\":3398:3418  vestings[msg.sender] */\n      0xffffffffffffffffffffffffffffffffffffffff\n      and\n      0xffffffffffffffffffffffffffffffffffffffff\n      and\n      dup2\n      mstore\n      0x20\n      add\n      swap1\n      dup2\n      mstore\n      0x20\n      add\n      0x00\n      keccak256\n        /* \"Vesting Contract/v4.sol\":3419:3424  index */\n      dup4\n        /* \"Vesting Contract/v4.sol\":3398:3425  vestings[msg.sender][index] */\n      dup2\n      sload\n      dup2\n      lt\n      tag_85\n      jumpi\n      tag_86\n      tag_55\n      jump\t// in\n    tag_86:\n    tag_85:\n      swap1\n      0x00\n      mstore\n      keccak256(0x00, 0x20)\n      swap1\n      0x09\n      mul\n      add\n        /* \"Vesting Contract/v4.sol\":3364:3425  VestingSchedule storage vesting = vestings[msg.sender][index] */\n      swap1\n      pop\n        /* \"Vesting Contract/v4.sol\":3431:3451  uint256 remain_token */\n      0x00\n        /* \"Vesting Contract/v4.sol\":3509:3516  vesting */\n      dup2\n        /* \"Vesting Contract/v4.sol\":3509:3529  vesting.slice_period */\n      0x03\n      add\n      0x02\n      swap1\n      sload\n      swap1\n      0x0100\n      exp\n      swap1\n      div\n      0xff\n      and\n        /* \"Vesting Contract/v4.sol\":3490:3529  vesting.duration / vesting.slice_period */\n      0xff\n      and\n        /* \"Vesting Contract/v4.sol\":3490:3497  vesting */\n      dup3\n        /* \"Vesting Contract/v4.sol\":3490:3506  vesting.duration */\n      0x02\n      add\n      sload\n        /* \"Vesting Contract/v4.sol\":3490:3529  vesting.duration / vesting.slice_period */\n      tag_88\n      swap2\n      swap1\n      tag_89\n      jump\t// in\n    tag_88:\n        /* \"Vesting Contract/v4.sol\":3472:3479  vesting */\n      dup3\n        /* \"Vesting Contract/v4.sol\":3472:3486  vesting.amount */\n      0x00\n      add\n      sload\n        /* \"Vesting Contract/v4.sol\":3472:3530  vesting.amount % (vesting.duration / vesting.slice_period) */\n      tag_90\n      swap2\n      swap1\n      tag_91\n      jump\t// in\n    tag_90:\n        /* \"Vesting Contract/v4.sol\":3457:3530  remain_token = vesting.amount % (vesting.duration / vesting.slice_period) */\n      swap1\n      pop\n        /* \"Vesting Contract/v4.sol\":3544:3556  remain_token */\n      dup1\n        /* \"Vesting Contract/v4.sol\":3537:3556  return remain_token */\n      swap3\n      pop\n      pop\n      pop\n        /* \"Vesting Contract/v4.sol\":3283:3559  function calculate_remaining_token(uint index) public view returns(uint256){... */\n      swap2\n      swap1\n      pop\n      jump\t// out\n        /* \"Vesting Contract/v4.sol\":3561:3641  function getTime() public view returns (uint256) {... */\n    tag_23:\n        /* \"Vesting Contract/v4.sol\":3601:3608  uint256 */\n      0x00\n        /* \"Vesting Contract/v4.sol\":3623:3638  block.timestamp */\n      timestamp\n        /* \"Vesting Contract/v4.sol\":3616:3638  return block.timestamp */\n      swap1\n      pop\n        /* \"Vesting Contract/v4.sol\":3561:3641  function getTime() public view returns (uint256) {... */\n      swap1\n      jump\t// out\n        /* \"Vesting Contract/v4.sol\":2742:3281  function calculate_available_withdraw_token(uint256 index) public view returns(uint256) {... */\n    tag_27:\n        /* \"Vesting Contract/v4.sol\":2821:2828  uint256 */\n      0x00\n        /* \"Vesting Contract/v4.sol\":2836:2867  VestingSchedule storage vesting */\n      dup1\n        /* \"Vesting Contract/v4.sol\":2870:2878  vestings */\n      0x02\n        /* \"Vesting Contract/v4.sol\":2870:2890  vestings[msg.sender] */\n      0x00\n        /* \"Vesting Contract/v4.sol\":2879:2889  msg.sender */\n      caller\n        /* \"Vesting Contract/v4.sol\":2870:2890  vestings[msg.sender] */\n      0xffffffffffffffffffffffffffffffffffffffff\n      and\n      0xffffffffffffffffffffffffffffffffffffffff\n      and\n      dup2\n      mstore\n      0x20\n      add\n      swap1\n      dup2\n      mstore\n      0x20\n      add\n      0x00\n      keccak256\n        /* \"Vesting Contract/v4.sol\":2891:2896  index */\n      dup4\n        /* \"Vesting Contract/v4.sol\":2870:2897  vestings[msg.sender][index] */\n      dup2\n      sload\n      dup2\n      lt\n      tag_94\n      jumpi\n      tag_95\n      tag_55\n      jump\t// in\n    tag_95:\n    tag_94:\n      swap1\n      0x00\n      mstore\n      keccak256(0x00, 0x20)\n      swap1\n      0x09\n      mul\n      add\n        /* \"Vesting Contract/v4.sol\":2836:2897  VestingSchedule storage vesting = vestings[msg.sender][index] */\n      swap1\n      pop\n        /* \"Vesting Contract/v4.sol\":2927:2928  0 */\n      0x00\n        /* \"Vesting Contract/v4.sol\":2911:2918  vesting */\n      dup2\n        /* \"Vesting Contract/v4.sol\":2911:2925  vesting.amount */\n      0x00\n      add\n      sload\n        /* \"Vesting Contract/v4.sol\":2911:2928  vesting.amount>=0 */\n      lt\n      iszero\n        /* \"Vesting Contract/v4.sol\":2903:2951  require(vesting.amount>=0 , \"vesting time over\") */\n      tag_97\n      jumpi\n      mload(0x40)\n      0x08c379a000000000000000000000000000000000000000000000000000000000\n      dup2\n      mstore\n      0x04\n      add\n      tag_98\n      swap1\n      tag_99\n      jump\t// in\n    tag_98:\n      mload(0x40)\n      dup1\n      swap2\n      sub\n      swap1\n      revert\n    tag_97:\n        /* \"Vesting Contract/v4.sol\":2957:2982  uint256 total_slice_count */\n      0x00\n        /* \"Vesting Contract/v4.sol\":3015:3022  vesting */\n      dup2\n        /* \"Vesting Contract/v4.sol\":3015:3035  vesting.slice_period */\n      0x03\n      add\n      0x02\n      swap1\n      sload\n      swap1\n      0x0100\n      exp\n      swap1\n      div\n      0xff\n      and\n        /* \"Vesting Contract/v4.sol\":2985:3035  (getTime() - vesting.start) / vesting.slice_period */\n      0xff\n      and\n        /* \"Vesting Contract/v4.sol\":2998:3005  vesting */\n      dup3\n        /* \"Vesting Contract/v4.sol\":2998:3011  vesting.start */\n      0x01\n      add\n      sload\n        /* \"Vesting Contract/v4.sol\":2986:2995  getTime() */\n      tag_100\n        /* \"Vesting Contract/v4.sol\":2986:2993  getTime */\n      tag_23\n        /* \"Vesting Contract/v4.sol\":2986:2995  getTime() */\n      jump\t// in\n    tag_100:\n        /* \"Vesting Contract/v4.sol\":2986:3011  getTime() - vesting.start */\n      tag_101\n      swap2\n      swap1\n      tag_80\n      jump\t// in\n    tag_101:\n        /* \"Vesting Contract/v4.sol\":2985:3035  (getTime() - vesting.start) / vesting.slice_period */\n      tag_102\n      swap2\n      swap1\n      tag_89\n      jump\t// in\n    tag_102:\n        /* \"Vesting Contract/v4.sol\":2957:3035  uint256 total_slice_count = (getTime() - vesting.start) / vesting.slice_period */\n      swap1\n      pop\n        /* \"Vesting Contract/v4.sol\":3041:3067  uint256 total_avl_withdraw */\n      0x00\n        /* \"Vesting Contract/v4.sol\":3121:3128  vesting */\n      dup3\n        /* \"Vesting Contract/v4.sol\":3121:3133  vesting.temp */\n      0x08\n      add\n      sload\n        /* \"Vesting Contract/v4.sol\":3091:3098  vesting */\n      dup4\n        /* \"Vesting Contract/v4.sol\":3091:3117  vesting.recive_on_interval */\n      0x04\n      add\n      sload\n        /* \"Vesting Contract/v4.sol\":3071:3088  total_slice_count */\n      dup4\n        /* \"Vesting Contract/v4.sol\":3071:3117  total_slice_count * vesting.recive_on_interval */\n      tag_103\n      swap2\n      swap1\n      tag_104\n      jump\t// in\n    tag_103:\n        /* \"Vesting Contract/v4.sol\":3070:3133  (total_slice_count * vesting.recive_on_interval) - vesting.temp */\n      tag_105\n      swap2\n      swap1\n      tag_80\n      jump\t// in\n    tag_105:\n        /* \"Vesting Contract/v4.sol\":3041:3133  uint256 total_avl_withdraw = (total_slice_count * vesting.recive_on_interval) - vesting.temp */\n      swap1\n      pop\n        /* \"Vesting Contract/v4.sol\":3139:3171  calculate_remaining_token(index) */\n      tag_106\n        /* \"Vesting Contract/v4.sol\":3165:3170  index */\n      dup6\n        /* \"Vesting Contract/v4.sol\":3139:3164  calculate_remaining_token */\n      tag_19\n        /* \"Vesting Contract/v4.sol\":3139:3171  calculate_remaining_token(index) */\n      jump\t// in\n    tag_106:\n      pop\n        /* \"Vesting Contract/v4.sol\":3212:3219  vesting */\n      dup3\n        /* \"Vesting Contract/v4.sol\":3212:3226  vesting.amount */\n      0x00\n      add\n      sload\n        /* \"Vesting Contract/v4.sol\":3190:3208  total_avl_withdraw */\n      dup2\n        /* \"Vesting Contract/v4.sol\":3190:3226  total_avl_withdraw <= vesting.amount */\n      gt\n      iszero\n        /* \"Vesting Contract/v4.sol\":3182:3247  require(total_avl_withdraw <= vesting.amount, \"vesting complete\") */\n      tag_107\n      jumpi\n      mload(0x40)\n      0x08c379a000000000000000000000000000000000000000000000000000000000\n      dup2\n      mstore\n      0x04\n      add\n      tag_108\n      swap1\n      tag_109\n      jump\t// in\n    tag_108:\n      mload(0x40)\n      dup1\n      swap2\n      sub\n      swap1\n      revert\n    tag_107:\n        /* \"Vesting Contract/v4.sol\":3260:3278  total_avl_withdraw */\n      dup1\n        /* \"Vesting Contract/v4.sol\":3253:3278  return total_avl_withdraw */\n      swap4\n      pop\n      pop\n      pop\n      pop\n        /* \"Vesting Contract/v4.sol\":2742:3281  function calculate_available_withdraw_token(uint256 index) public view returns(uint256) {... */\n      swap2\n      swap1\n      pop\n      jump\t// out\n        /* \"Vesting Contract/v4.sol\":616:657  mapping(address => bool) public whitelist */\n    tag_32:\n      mstore(0x20, 0x03)\n      dup1\n      0x00\n      mstore\n      keccak256(0x00, 0x40)\n      0x00\n      swap2\n      pop\n      sload\n      swap1\n      0x0100\n      exp\n      swap1\n      div\n      0xff\n      and\n      dup2\n      jump\t// out\n        /* \"Vesting Contract/v4.sol\":1080:2023  function lock(... */\n    tag_38:\n        /* \"Vesting Contract/v4.sol\":1263:1272  getTime() */\n      tag_111\n        /* \"Vesting Contract/v4.sol\":1263:1270  getTime */\n      tag_23\n        /* \"Vesting Contract/v4.sol\":1263:1272  getTime() */\n      jump\t// in\n    tag_111:\n        /* \"Vesting Contract/v4.sol\":1254:1260  _start */\n      dup4\n        /* \"Vesting Contract/v4.sol\":1254:1272  _start > getTime() */\n      gt\n        /* \"Vesting Contract/v4.sol\":1246:1294  require(_start > getTime(),\"eneter valid time\" ) */\n      tag_112\n      jumpi\n      mload(0x40)\n      0x08c379a000000000000000000000000000000000000000000000000000000000\n      dup2\n      mstore\n      0x04\n      add\n      tag_113\n      swap1\n      tag_114\n      jump\t// in\n    tag_113:\n      mload(0x40)\n      dup1\n      swap2\n      sub\n      swap1\n      revert\n    tag_112:\n        /* \"Vesting Contract/v4.sol\":1308:1317  whitelist */\n      0x03\n        /* \"Vesting Contract/v4.sol\":1308:1329  whitelist[msg.sender] */\n      0x00\n        /* \"Vesting Contract/v4.sol\":1318:1328  msg.sender */\n      caller\n        /* \"Vesting Contract/v4.sol\":1308:1329  whitelist[msg.sender] */\n      0xffffffffffffffffffffffffffffffffffffffff\n      and\n      0xffffffffffffffffffffffffffffffffffffffff\n      and\n      dup2\n      mstore\n      0x20\n      add\n      swap1\n      dup2\n      mstore\n      0x20\n      add\n      0x00\n      keccak256\n      0x00\n      swap1\n      sload\n      swap1\n      0x0100\n      exp\n      swap1\n      div\n      0xff\n      and\n        /* \"Vesting Contract/v4.sol\":1300:1375  require(whitelist[msg.sender], \"You are not allowed to use this contract.\") */\n      tag_115\n      jumpi\n      mload(0x40)\n      0x08c379a000000000000000000000000000000000000000000000000000000000\n      dup2\n      mstore\n      0x04\n      add\n      tag_116\n      swap1\n      tag_117\n      jump\t// in\n    tag_116:\n      mload(0x40)\n      dup1\n      swap2\n      sub\n      swap1\n      revert\n    tag_115:\n        /* \"Vesting Contract/v4.sol\":1381:1414  VestingSchedule memory newVesting */\n      0x00\n        /* \"Vesting Contract/v4.sol\":1417:1827  VestingSchedule({... */\n      mload(0x40)\n      dup1\n      0x0180\n      add\n      0x40\n      mstore\n      dup1\n        /* \"Vesting Contract/v4.sol\":1451:1458  _amount */\n      dup9\n        /* \"Vesting Contract/v4.sol\":1417:1827  VestingSchedule({... */\n      dup2\n      mstore\n      0x20\n      add\n        /* \"Vesting Contract/v4.sol\":1507:1513  _cliff */\n      dup5\n        /* \"Vesting Contract/v4.sol\":1498:1513  _start + _cliff */\n      0xff\n      and\n        /* \"Vesting Contract/v4.sol\":1498:1504  _start */\n      dup7\n        /* \"Vesting Contract/v4.sol\":1498:1513  _start + _cliff */\n      tag_118\n      swap2\n      swap1\n      tag_78\n      jump\t// in\n    tag_118:\n        /* \"Vesting Contract/v4.sol\":1417:1827  VestingSchedule({... */\n      dup2\n      mstore\n      0x20\n      add\n        /* \"Vesting Contract/v4.sol\":1533:1542  _duration */\n      dup8\n        /* \"Vesting Contract/v4.sol\":1417:1827  VestingSchedule({... */\n      dup2\n      mstore\n      0x20\n      add\n        /* \"Vesting Contract/v4.sol\":1560:1564  true */\n      0x01\n        /* \"Vesting Contract/v4.sol\":1417:1827  VestingSchedule({... */\n      iszero\n      iszero\n      dup2\n      mstore\n      0x20\n      add\n        /* \"Vesting Contract/v4.sol\":1583:1588  false */\n      0x00\n        /* \"Vesting Contract/v4.sol\":1417:1827  VestingSchedule({... */\n      iszero\n      iszero\n      dup2\n      mstore\n      0x20\n      add\n        /* \"Vesting Contract/v4.sol\":1612:1625  _slice_period */\n      dup7\n        /* \"Vesting Contract/v4.sol\":1417:1827  VestingSchedule({... */\n      0xff\n      and\n      dup2\n      mstore\n      0x20\n      add\n        /* \"Vesting Contract/v4.sol\":1475:1481  _cliff */\n      dup5\n        /* \"Vesting Contract/v4.sol\":1417:1827  VestingSchedule({... */\n      0xff\n      and\n      dup2\n      mstore\n      0x20\n      add\n        /* \"Vesting Contract/v4.sol\":1722:1731  _duration */\n      dup8\n        /* \"Vesting Contract/v4.sol\":1711:1718  _amount */\n      dup10\n        /* \"Vesting Contract/v4.sol\":1695:1708  _slice_period */\n      dup9\n        /* \"Vesting Contract/v4.sol\":1695:1718  _slice_period * _amount */\n      0xff\n      and\n      tag_119\n      swap2\n      swap1\n      tag_104\n      jump\t// in\n    tag_119:\n        /* \"Vesting Contract/v4.sol\":1694:1731  (_slice_period * _amount) / _duration */\n      tag_120\n      swap2\n      swap1\n      tag_89\n      jump\t// in\n    tag_120:\n        /* \"Vesting Contract/v4.sol\":1417:1827  VestingSchedule({... */\n      dup2\n      mstore\n      0x20\n      add\n        /* \"Vesting Contract/v4.sol\":1766:1772  _cliff */\n      dup5\n        /* \"Vesting Contract/v4.sol\":1757:1772  _start + _cliff */\n      0xff\n      and\n        /* \"Vesting Contract/v4.sol\":1757:1763  _start */\n      dup7\n        /* \"Vesting Contract/v4.sol\":1757:1772  _start + _cliff */\n      tag_121\n      swap2\n      swap1\n      tag_78\n      jump\t// in\n    tag_121:\n        /* \"Vesting Contract/v4.sol\":1417:1827  VestingSchedule({... */\n      dup2\n      mstore\n      0x20\n      add\n        /* \"Vesting Contract/v4.sol\":1650:1664  _beneficiaries */\n      dup4\n        /* \"Vesting Contract/v4.sol\":1417:1827  VestingSchedule({... */\n      0xffffffffffffffffffffffffffffffffffffffff\n      and\n      dup2\n      mstore\n      0x20\n      add\n        /* \"Vesting Contract/v4.sol\":1802:1803  0 */\n      0x00\n        /* \"Vesting Contract/v4.sol\":1417:1827  VestingSchedule({... */\n      dup2\n      mstore\n      0x20\n      add\n        /* \"Vesting Contract/v4.sol\":1819:1820  0 */\n      0x00\n        /* \"Vesting Contract/v4.sol\":1417:1827  VestingSchedule({... */\n      dup2\n      mstore\n      pop\n        /* \"Vesting Contract/v4.sol\":1381:1827  VestingSchedule memory newVesting = VestingSchedule({... */\n      swap1\n      pop\n        /* \"Vesting Contract/v4.sol\":1834:1842  vestings */\n      0x02\n        /* \"Vesting Contract/v4.sol\":1834:1854  vestings[msg.sender] */\n      0x00\n        /* \"Vesting Contract/v4.sol\":1843:1853  msg.sender */\n      caller\n        /* \"Vesting Contract/v4.sol\":1834:1854  vestings[msg.sender] */\n      0xffffffffffffffffffffffffffffffffffffffff\n      and\n      0xffffffffffffffffffffffffffffffffffffffff\n      and\n      dup2\n      mstore\n      0x20\n      add\n      swap1\n      dup2\n      mstore\n      0x20\n      add\n      0x00\n      keccak256\n        /* \"Vesting Contract/v4.sol\":1860:1870  newVesting */\n      dup2\n        /* \"Vesting Contract/v4.sol\":1834:1871  vestings[msg.sender].push(newVesting) */\n      swap1\n      dup1\n      0x01\n      dup2\n      sload\n      add\n      dup1\n      dup3\n      sstore\n      dup1\n      swap2\n      pop\n      pop\n      0x01\n      swap1\n      sub\n      swap1\n      0x00\n      mstore\n      keccak256(0x00, 0x20)\n      swap1\n      0x09\n      mul\n      add\n      0x00\n      swap1\n      swap2\n      swap1\n      swap2\n      swap1\n      swap2\n      pop\n      0x00\n      dup3\n      add\n      mload\n      dup2\n      0x00\n      add\n      sstore\n      0x20\n      dup3\n      add\n      mload\n      dup2\n      0x01\n      add\n      sstore\n      0x40\n      dup3\n      add\n      mload\n      dup2\n      0x02\n      add\n      sstore\n      0x60\n      dup3\n      add\n      mload\n      dup2\n      0x03\n      add\n      exp(0x0100, 0x00)\n      dup2\n      sload\n      dup2\n      0xff\n      mul\n      not\n      and\n      swap1\n      dup4\n      iszero\n      iszero\n      mul\n      or\n      swap1\n      sstore\n      pop\n      0x80\n      dup3\n      add\n      mload\n      dup2\n      0x03\n      add\n      exp(0x0100, 0x01)\n      dup2\n      sload\n      dup2\n      0xff\n      mul\n      not\n      and\n      swap1\n      dup4\n      iszero\n      iszero\n      mul\n      or\n      swap1\n      sstore\n      pop\n      0xa0\n      dup3\n      add\n      mload\n      dup2\n      0x03\n      add\n      exp(0x0100, 0x02)\n      dup2\n      sload\n      dup2\n      0xff\n      mul\n      not\n      and\n      swap1\n      dup4\n      0xff\n      and\n      mul\n      or\n      swap1\n      sstore\n      pop\n      0xc0\n      dup3\n      add\n      mload\n      dup2\n      0x03\n      add\n      exp(0x0100, 0x03)\n      dup2\n      sload\n      dup2\n      0xff\n      mul\n      not\n      and\n      swap1\n      dup4\n      0xff\n      and\n      mul\n      or\n      swap1\n      sstore\n      pop\n      0xe0\n      dup3\n      add\n      mload\n      dup2\n      0x04\n      add\n      sstore\n      0x0100\n      dup3\n      add\n      mload\n      dup2\n      0x05\n      add\n      sstore\n      0x0120\n      dup3\n      add\n      mload\n      dup2\n      0x06\n      add\n      exp(0x0100, 0x00)\n      dup2\n      sload\n      dup2\n      0xffffffffffffffffffffffffffffffffffffffff\n      mul\n      not\n      and\n      swap1\n      dup4\n      0xffffffffffffffffffffffffffffffffffffffff\n      and\n      mul\n      or\n      swap1\n      sstore\n      pop\n      0x0140\n      dup3\n      add\n      mload\n      dup2\n      0x07\n      add\n      sstore\n      0x0160\n      dup3\n      add\n      mload\n      dup2\n      0x08\n      add\n      sstore\n      pop\n      pop\n        /* \"Vesting Contract/v4.sol\":1878:1883  token */\n      0x00\n      dup1\n      sload\n      swap1\n      0x0100\n      exp\n      swap1\n      div\n      0xffffffffffffffffffffffffffffffffffffffff\n      and\n        /* \"Vesting Contract/v4.sol\":1878:1896  token.transferFrom */\n      0xffffffffffffffffffffffffffffffffffffffff\n      and\n      0x23b872dd\n        /* \"Vesting Contract/v4.sol\":1897:1907  msg.sender */\n      caller\n        /* \"Vesting Contract/v4.sol\":1917:1921  this */\n      address\n        /* \"Vesting Contract/v4.sol\":1924:1931  _amount */\n      dup11\n        /* \"Vesting Contract/v4.sol\":1878:1932  token.transferFrom(msg.sender, address(this), _amount) */\n      mload(0x40)\n      dup5\n      0xffffffff\n      and\n      0xe0\n      shl\n      dup2\n      mstore\n      0x04\n      add\n      tag_123\n      swap4\n      swap3\n      swap2\n      swap1\n      tag_124\n      jump\t// in\n    tag_123:\n      0x20\n      mload(0x40)\n      dup1\n      dup4\n      sub\n      dup2\n      0x00\n      dup8\n      gas\n      call\n      iszero\n      dup1\n      iszero\n      tag_126\n      jumpi\n      returndatasize\n      0x00\n      dup1\n      returndatacopy\n      revert(0x00, returndatasize)\n    tag_126:\n      pop\n      pop\n      pop\n      pop\n      mload(0x40)\n      returndatasize\n      not(0x1f)\n      0x1f\n      dup3\n      add\n      and\n      dup3\n      add\n      dup1\n      0x40\n      mstore\n      pop\n      dup2\n      add\n      swap1\n      tag_127\n      swap2\n      swap1\n      tag_76\n      jump\t// in\n    tag_127:\n      pop\n        /* \"Vesting Contract/v4.sol\":1958:1968  msg.sender */\n      caller\n        /* \"Vesting Contract/v4.sol\":1944:2020  VestingLocked(msg.sender, _amount, _duration, _slice_period, _start, _cliff) */\n      0xffffffffffffffffffffffffffffffffffffffff\n      and\n      0xb2e88791d817c746d5e5fe14d588911bb8e67f1fe02d38cf2ed5c01d9ac07a07\n        /* \"Vesting Contract/v4.sol\":1970:1977  _amount */\n      dup9\n        /* \"Vesting Contract/v4.sol\":1979:1988  _duration */\n      dup9\n        /* \"Vesting Contract/v4.sol\":1990:2003  _slice_period */\n      dup9\n        /* \"Vesting Contract/v4.sol\":2005:2011  _start */\n      dup9\n        /* \"Vesting Contract/v4.sol\":2013:2019  _cliff */\n      dup9\n        /* \"Vesting Contract/v4.sol\":1944:2020  VestingLocked(msg.sender, _amount, _duration, _slice_period, _start, _cliff) */\n      mload(0x40)\n      tag_128\n      swap6\n      swap5\n      swap4\n      swap3\n      swap2\n      swap1\n      tag_129\n      jump\t// in\n    tag_128:\n      mload(0x40)\n      dup1\n      swap2\n      sub\n      swap1\n      log2\n        /* \"Vesting Contract/v4.sol\":1240:2023  {... */\n      pop\n        /* \"Vesting Contract/v4.sol\":1080:2023  function lock(... */\n      pop\n      pop\n      pop\n      pop\n      pop\n      pop\n      jump\t// out\n        /* \"Vesting Contract/v4.sol\":561:614  mapping(address => VestingSchedule[]) public vestings */\n    tag_42:\n      mstore(0x20, 0x02)\n      dup2\n      0x00\n      mstore\n      keccak256(0x00, 0x40)\n      dup2\n      dup2\n      sload\n      dup2\n      lt\n      tag_130\n      jumpi\n      0x00\n      dup1\n      revert\n    tag_130:\n      swap1\n      0x00\n      mstore\n      keccak256(0x00, 0x20)\n      swap1\n      0x09\n      mul\n      add\n      0x00\n      swap2\n      pop\n      swap2\n      pop\n      pop\n      dup1\n      0x00\n      add\n      sload\n      swap1\n      dup1\n      0x01\n      add\n      sload\n      swap1\n      dup1\n      0x02\n      add\n      sload\n      swap1\n      dup1\n      0x03\n      add\n      0x00\n      swap1\n      sload\n      swap1\n      0x0100\n      exp\n      swap1\n      div\n      0xff\n      and\n      swap1\n      dup1\n      0x03\n      add\n      0x01\n      swap1\n      sload\n      swap1\n      0x0100\n      exp\n      swap1\n      div\n      0xff\n      and\n      swap1\n      dup1\n      0x03\n      add\n      0x02\n      swap1\n      sload\n      swap1\n      0x0100\n      exp\n      swap1\n      div\n      0xff\n      and\n      swap1\n      dup1\n      0x03\n      add\n      0x03\n      swap1\n      sload\n      swap1\n      0x0100\n      exp\n      swap1\n      div\n      0xff\n      and\n      swap1\n      dup1\n      0x04\n      add\n      sload\n      swap1\n      dup1\n      0x05\n      add\n      sload\n      swap1\n      dup1\n      0x06\n      add\n      0x00\n      swap1\n      sload\n      swap1\n      0x0100\n      exp\n      swap1\n      div\n      0xffffffffffffffffffffffffffffffffffffffff\n      and\n      swap1\n      dup1\n      0x07\n      add\n      sload\n      swap1\n      dup1\n      0x08\n      add\n      sload\n      swap1\n      pop\n      dup13\n      jump\t// out\n        /* \"Vesting Contract/v4.sol\":777:859  function addWhitelist (address _add) public onlyOwner{... */\n    tag_47:\n        /* \"Vesting Contract/v4.sol\":709:714  owner */\n      0x01\n      0x00\n      swap1\n      sload\n      swap1\n      0x0100\n      exp\n      swap1\n      div\n      0xffffffffffffffffffffffffffffffffffffffff\n      and\n        /* \"Vesting Contract/v4.sol\":695:714  msg.sender == owner */\n      0xffffffffffffffffffffffffffffffffffffffff\n      and\n        /* \"Vesting Contract/v4.sol\":695:705  msg.sender */\n      caller\n        /* \"Vesting Contract/v4.sol\":695:714  msg.sender == owner */\n      0xffffffffffffffffffffffffffffffffffffffff\n      and\n      eq\n        /* \"Vesting Contract/v4.sol\":687:766  require(msg.sender == owner , \"Only the contract owner can call this function\") */\n      tag_133\n      jumpi\n      mload(0x40)\n      0x08c379a000000000000000000000000000000000000000000000000000000000\n      dup2\n      mstore\n      0x04\n      add\n      tag_134\n      swap1\n      tag_135\n      jump\t// in\n    tag_134:\n      mload(0x40)\n      dup1\n      swap2\n      sub\n      swap1\n      revert\n    tag_133:\n        /* \"Vesting Contract/v4.sol\":852:856  true */\n      0x01\n        /* \"Vesting Contract/v4.sol\":836:845  whitelist */\n      0x03\n        /* \"Vesting Contract/v4.sol\":836:851  whitelist[_add] */\n      0x00\n        /* \"Vesting Contract/v4.sol\":846:850  _add */\n      dup4\n        /* \"Vesting Contract/v4.sol\":836:851  whitelist[_add] */\n      0xffffffffffffffffffffffffffffffffffffffff\n      and\n      0xffffffffffffffffffffffffffffffffffffffff\n      and\n      dup2\n      mstore\n      0x20\n      add\n      swap1\n      dup2\n      mstore\n      0x20\n      add\n      0x00\n      keccak256\n      0x00\n        /* \"Vesting Contract/v4.sol\":836:856  whitelist[_add]=true */\n      0x0100\n      exp\n      dup2\n      sload\n      dup2\n      0xff\n      mul\n      not\n      and\n      swap1\n      dup4\n      iszero\n      iszero\n      mul\n      or\n      swap1\n      sstore\n      pop\n        /* \"Vesting Contract/v4.sol\":777:859  function addWhitelist (address _add) public onlyOwner{... */\n      pop\n      jump\t// out\n        /* \"Vesting Contract/v4.sol\":140:158  ERC20 public token */\n    tag_49:\n      0x00\n      dup1\n      sload\n      swap1\n      0x0100\n      exp\n      swap1\n      div\n      0xffffffffffffffffffffffffffffffffffffffff\n      and\n      dup2\n      jump\t// out\n        /* \"#utility.yul\":88:205   */\n    tag_138:\n        /* \"#utility.yul\":197:198   */\n      0x00\n        /* \"#utility.yul\":194:195   */\n      dup1\n        /* \"#utility.yul\":187:199   */\n      revert\n        /* \"#utility.yul\":334:411   */\n    tag_140:\n        /* \"#utility.yul\":371:378   */\n      0x00\n        /* \"#utility.yul\":400:405   */\n      dup2\n        /* \"#utility.yul\":389:405   */\n      swap1\n      pop\n        /* \"#utility.yul\":334:411   */\n      swap2\n      swap1\n      pop\n      jump\t// out\n        /* \"#utility.yul\":417:539   */\n    tag_141:\n        /* \"#utility.yul\":490:514   */\n      tag_189\n        /* \"#utility.yul\":508:513   */\n      dup2\n        /* \"#utility.yul\":490:514   */\n      tag_140\n      jump\t// in\n    tag_189:\n        /* \"#utility.yul\":483:488   */\n      dup2\n        /* \"#utility.yul\":480:515   */\n      eq\n        /* \"#utility.yul\":470:533   */\n      tag_190\n      jumpi\n        /* \"#utility.yul\":529:530   */\n      0x00\n        /* \"#utility.yul\":526:527   */\n      dup1\n        /* \"#utility.yul\":519:531   */\n      revert\n        /* \"#utility.yul\":470:533   */\n    tag_190:\n        /* \"#utility.yul\":417:539   */\n      pop\n      jump\t// out\n        /* \"#utility.yul\":545:684   */\n    tag_142:\n        /* \"#utility.yul\":591:596   */\n      0x00\n        /* \"#utility.yul\":629:635   */\n      dup2\n        /* \"#utility.yul\":616:636   */\n      calldataload\n        /* \"#utility.yul\":607:636   */\n      swap1\n      pop\n        /* \"#utility.yul\":645:678   */\n      tag_192\n        /* \"#utility.yul\":672:677   */\n      dup2\n        /* \"#utility.yul\":645:678   */\n      tag_141\n      jump\t// in\n    tag_192:\n        /* \"#utility.yul\":545:684   */\n      swap3\n      swap2\n      pop\n      pop\n      jump\t// out\n        /* \"#utility.yul\":690:1019   */\n    tag_15:\n        /* \"#utility.yul\":749:755   */\n      0x00\n        /* \"#utility.yul\":798:800   */\n      0x20\n        /* \"#utility.yul\":786:795   */\n      dup3\n        /* \"#utility.yul\":777:784   */\n      dup5\n        /* \"#utility.yul\":773:796   */\n      sub\n        /* \"#utility.yul\":769:801   */\n      slt\n        /* \"#utility.yul\":766:885   */\n      iszero\n      tag_194\n      jumpi\n        /* \"#utility.yul\":804:883   */\n      tag_195\n      tag_138\n      jump\t// in\n    tag_195:\n        /* \"#utility.yul\":766:885   */\n    tag_194:\n        /* \"#utility.yul\":924:925   */\n      0x00\n        /* \"#utility.yul\":949:1002   */\n      tag_196\n        /* \"#utility.yul\":994:1001   */\n      dup5\n        /* \"#utility.yul\":985:991   */\n      dup3\n        /* \"#utility.yul\":974:983   */\n      dup6\n        /* \"#utility.yul\":970:992   */\n      add\n        /* \"#utility.yul\":949:1002   */\n      tag_142\n      jump\t// in\n    tag_196:\n        /* \"#utility.yul\":939:1002   */\n      swap2\n      pop\n        /* \"#utility.yul\":895:1012   */\n      pop\n        /* \"#utility.yul\":690:1019   */\n      swap3\n      swap2\n      pop\n      pop\n      jump\t// out\n        /* \"#utility.yul\":1025:1143   */\n    tag_143:\n        /* \"#utility.yul\":1112:1136   */\n      tag_198\n        /* \"#utility.yul\":1130:1135   */\n      dup2\n        /* \"#utility.yul\":1112:1136   */\n      tag_140\n      jump\t// in\n    tag_198:\n        /* \"#utility.yul\":1107:1110   */\n      dup3\n        /* \"#utility.yul\":1100:1137   */\n      mstore\n        /* \"#utility.yul\":1025:1143   */\n      pop\n      pop\n      jump\t// out\n        /* \"#utility.yul\":1149:1371   */\n    tag_21:\n        /* \"#utility.yul\":1242:1246   */\n      0x00\n        /* \"#utility.yul\":1280:1282   */\n      0x20\n        /* \"#utility.yul\":1269:1278   */\n      dup3\n        /* \"#utility.yul\":1265:1283   */\n      add\n        /* \"#utility.yul\":1257:1283   */\n      swap1\n      pop\n        /* \"#utility.yul\":1293:1364   */\n      tag_200\n        /* \"#utility.yul\":1361:1362   */\n      0x00\n        /* \"#utility.yul\":1350:1359   */\n      dup4\n        /* \"#utility.yul\":1346:1363   */\n      add\n        /* \"#utility.yul\":1337:1343   */\n      dup5\n        /* \"#utility.yul\":1293:1364   */\n      tag_143\n      jump\t// in\n    tag_200:\n        /* \"#utility.yul\":1149:1371   */\n      swap3\n      swap2\n      pop\n      pop\n      jump\t// out\n        /* \"#utility.yul\":1377:1503   */\n    tag_144:\n        /* \"#utility.yul\":1414:1421   */\n      0x00\n        /* \"#utility.yul\":1454:1496   */\n      0xffffffffffffffffffffffffffffffffffffffff\n        /* \"#utility.yul\":1447:1452   */\n      dup3\n        /* \"#utility.yul\":1443:1497   */\n      and\n        /* \"#utility.yul\":1432:1497   */\n      swap1\n      pop\n        /* \"#utility.yul\":1377:1503   */\n      swap2\n      swap1\n      pop\n      jump\t// out\n        /* \"#utility.yul\":1509:1605   */\n    tag_145:\n        /* \"#utility.yul\":1546:1553   */\n      0x00\n        /* \"#utility.yul\":1575:1599   */\n      tag_203\n        /* \"#utility.yul\":1593:1598   */\n      dup3\n        /* \"#utility.yul\":1575:1599   */\n      tag_144\n      jump\t// in\n    tag_203:\n        /* \"#utility.yul\":1564:1599   */\n      swap1\n      pop\n        /* \"#utility.yul\":1509:1605   */\n      swap2\n      swap1\n      pop\n      jump\t// out\n        /* \"#utility.yul\":1611:1733   */\n    tag_146:\n        /* \"#utility.yul\":1684:1708   */\n      tag_205\n        /* \"#utility.yul\":1702:1707   */\n      dup2\n        /* \"#utility.yul\":1684:1708   */\n      tag_145\n      jump\t// in\n    tag_205:\n        /* \"#utility.yul\":1677:1682   */\n      dup2\n        /* \"#utility.yul\":1674:1709   */\n      eq\n        /* \"#utility.yul\":1664:1727   */\n      tag_206\n      jumpi\n        /* \"#utility.yul\":1723:1724   */\n      0x00\n        /* \"#utility.yul\":1720:1721   */\n      dup1\n        /* \"#utility.yul\":1713:1725   */\n      revert\n        /* \"#utility.yul\":1664:1727   */\n    tag_206:\n        /* \"#utility.yul\":1611:1733   */\n      pop\n      jump\t// out\n        /* \"#utility.yul\":1739:1878   */\n    tag_147:\n        /* \"#utility.yul\":1785:1790   */\n      0x00\n        /* \"#utility.yul\":1823:1829   */\n      dup2\n        /* \"#utility.yul\":1810:1830   */\n      calldataload\n        /* \"#utility.yul\":1801:1830   */\n      swap1\n      pop\n        /* \"#utility.yul\":1839:1872   */\n      tag_208\n        /* \"#utility.yul\":1866:1871   */\n      dup2\n        /* \"#utility.yul\":1839:1872   */\n      tag_146\n      jump\t// in\n    tag_208:\n        /* \"#utility.yul\":1739:1878   */\n      swap3\n      swap2\n      pop\n      pop\n      jump\t// out\n        /* \"#utility.yul\":1884:2213   */\n    tag_31:\n        /* \"#utility.yul\":1943:1949   */\n      0x00\n        /* \"#utility.yul\":1992:1994   */\n      0x20\n        /* \"#utility.yul\":1980:1989   */\n      dup3\n        /* \"#utility.yul\":1971:1978   */\n      dup5\n        /* \"#utility.yul\":1967:1990   */\n      sub\n        /* \"#utility.yul\":1963:1995   */\n      slt\n        /* \"#utility.yul\":1960:2079   */\n      iszero\n      tag_210\n      jumpi\n        /* \"#utility.yul\":1998:2077   */\n      tag_211\n      tag_138\n      jump\t// in\n    tag_211:\n        /* \"#utility.yul\":1960:2079   */\n    tag_210:\n        /* \"#utility.yul\":2118:2119   */\n      0x00\n        /* \"#utility.yul\":2143:2196   */\n      tag_212\n        /* \"#utility.yul\":2188:2195   */\n      dup5\n        /* \"#utility.yul\":2179:2185   */\n      dup3\n        /* \"#utility.yul\":2168:2177   */\n      dup6\n        /* \"#utility.yul\":2164:2186   */\n      add\n        /* \"#utility.yul\":2143:2196   */\n      tag_147\n      jump\t// in\n    tag_212:\n        /* \"#utility.yul\":2133:2196   */\n      swap2\n      pop\n        /* \"#utility.yul\":2089:2206   */\n      pop\n        /* \"#utility.yul\":1884:2213   */\n      swap3\n      swap2\n      pop\n      pop\n      jump\t// out\n        /* \"#utility.yul\":2219:2309   */\n    tag_148:\n        /* \"#utility.yul\":2253:2260   */\n      0x00\n        /* \"#utility.yul\":2296:2301   */\n      dup2\n        /* \"#utility.yul\":2289:2302   */\n      iszero\n        /* \"#utility.yul\":2282:2303   */\n      iszero\n        /* \"#utility.yul\":2271:2303   */\n      swap1\n      pop\n        /* \"#utility.yul\":2219:2309   */\n      swap2\n      swap1\n      pop\n      jump\t// out\n        /* \"#utility.yul\":2315:2424   */\n    tag_149:\n        /* \"#utility.yul\":2396:2417   */\n      tag_215\n        /* \"#utility.yul\":2411:2416   */\n      dup2\n        /* \"#utility.yul\":2396:2417   */\n      tag_148\n      jump\t// in\n    tag_215:\n        /* \"#utility.yul\":2391:2394   */\n      dup3\n        /* \"#utility.yul\":2384:2418   */\n      mstore\n        /* \"#utility.yul\":2315:2424   */\n      pop\n      pop\n      jump\t// out\n        /* \"#utility.yul\":2430:2640   */\n    tag_34:\n        /* \"#utility.yul\":2517:2521   */\n      0x00\n        /* \"#utility.yul\":2555:2557   */\n      0x20\n        /* \"#utility.yul\":2544:2553   */\n      dup3\n        /* \"#utility.yul\":2540:2558   */\n      add\n        /* \"#utility.yul\":2532:2558   */\n      swap1\n      pop\n        /* \"#utility.yul\":2568:2633   */\n      tag_217\n        /* \"#utility.yul\":2630:2631   */\n      0x00\n        /* \"#utility.yul\":2619:2628   */\n      dup4\n        /* \"#utility.yul\":2615:2632   */\n      add\n        /* \"#utility.yul\":2606:2612   */\n      dup5\n        /* \"#utility.yul\":2568:2633   */\n      tag_149\n      jump\t// in\n    tag_217:\n        /* \"#utility.yul\":2430:2640   */\n      swap3\n      swap2\n      pop\n      pop\n      jump\t// out\n        /* \"#utility.yul\":2646:2732   */\n    tag_150:\n        /* \"#utility.yul\":2681:2688   */\n      0x00\n        /* \"#utility.yul\":2721:2725   */\n      0xff\n        /* \"#utility.yul\":2714:2719   */\n      dup3\n        /* \"#utility.yul\":2710:2726   */\n      and\n        /* \"#utility.yul\":2699:2726   */\n      swap1\n      pop\n        /* \"#utility.yul\":2646:2732   */\n      swap2\n      swap1\n      pop\n      jump\t// out\n        /* \"#utility.yul\":2738:2856   */\n    tag_151:\n        /* \"#utility.yul\":2809:2831   */\n      tag_220\n        /* \"#utility.yul\":2825:2830   */\n      dup2\n        /* \"#utility.yul\":2809:2831   */\n      tag_150\n      jump\t// in\n    tag_220:\n        /* \"#utility.yul\":2802:2807   */\n      dup2\n        /* \"#utility.yul\":2799:2832   */\n      eq\n        /* \"#utility.yul\":2789:2850   */\n      tag_221\n      jumpi\n        /* \"#utility.yul\":2846:2847   */\n      0x00\n        /* \"#utility.yul\":2843:2844   */\n      dup1\n        /* \"#utility.yul\":2836:2848   */\n      revert\n        /* \"#utility.yul\":2789:2850   */\n    tag_221:\n        /* \"#utility.yul\":2738:2856   */\n      pop\n      jump\t// out\n        /* \"#utility.yul\":2862:2997   */\n    tag_152:\n        /* \"#utility.yul\":2906:2911   */\n      0x00\n        /* \"#utility.yul\":2944:2950   */\n      dup2\n        /* \"#utility.yul\":2931:2951   */\n      calldataload\n        /* \"#utility.yul\":2922:2951   */\n      swap1\n      pop\n        /* \"#utility.yul\":2960:2991   */\n      tag_223\n        /* \"#utility.yul\":2985:2990   */\n      dup2\n        /* \"#utility.yul\":2960:2991   */\n      tag_151\n      jump\t// in\n    tag_223:\n        /* \"#utility.yul\":2862:2997   */\n      swap3\n      swap2\n      pop\n      pop\n      jump\t// out\n        /* \"#utility.yul\":3003:4052   */\n    tag_37:\n        /* \"#utility.yul\":3103:3109   */\n      0x00\n        /* \"#utility.yul\":3111:3117   */\n      dup1\n        /* \"#utility.yul\":3119:3125   */\n      0x00\n        /* \"#utility.yul\":3127:3133   */\n      dup1\n        /* \"#utility.yul\":3135:3141   */\n      0x00\n        /* \"#utility.yul\":3143:3149   */\n      dup1\n        /* \"#utility.yul\":3192:3195   */\n      0xc0\n        /* \"#utility.yul\":3180:3189   */\n      dup8\n        /* \"#utility.yul\":3171:3178   */\n      dup10\n        /* \"#utility.yul\":3167:3190   */\n      sub\n        /* \"#utility.yul\":3163:3196   */\n      slt\n        /* \"#utility.yul\":3160:3280   */\n      iszero\n      tag_225\n      jumpi\n        /* \"#utility.yul\":3199:3278   */\n      tag_226\n      tag_138\n      jump\t// in\n    tag_226:\n        /* \"#utility.yul\":3160:3280   */\n    tag_225:\n        /* \"#utility.yul\":3319:3320   */\n      0x00\n        /* \"#utility.yul\":3344:3397   */\n      tag_227\n        /* \"#utility.yul\":3389:3396   */\n      dup10\n        /* \"#utility.yul\":3380:3386   */\n      dup3\n        /* \"#utility.yul\":3369:3378   */\n      dup11\n        /* \"#utility.yul\":3365:3387   */\n      add\n        /* \"#utility.yul\":3344:3397   */\n      tag_142\n      jump\t// in\n    tag_227:\n        /* \"#utility.yul\":3334:3397   */\n      swap7\n      pop\n        /* \"#utility.yul\":3290:3407   */\n      pop\n        /* \"#utility.yul\":3446:3448   */\n      0x20\n        /* \"#utility.yul\":3472:3525   */\n      tag_228\n        /* \"#utility.yul\":3517:3524   */\n      dup10\n        /* \"#utility.yul\":3508:3514   */\n      dup3\n        /* \"#utility.yul\":3497:3506   */\n      dup11\n        /* \"#utility.yul\":3493:3515   */\n      add\n        /* \"#utility.yul\":3472:3525   */\n      tag_142\n      jump\t// in\n    tag_228:\n        /* \"#utility.yul\":3462:3525   */\n      swap6\n      pop\n        /* \"#utility.yul\":3417:3535   */\n      pop\n        /* \"#utility.yul\":3574:3576   */\n      0x40\n        /* \"#utility.yul\":3600:3651   */\n      tag_229\n        /* \"#utility.yul\":3643:3650   */\n      dup10\n        /* \"#utility.yul\":3634:3640   */\n      dup3\n        /* \"#utility.yul\":3623:3632   */\n      dup11\n        /* \"#utility.yul\":3619:3641   */\n      add\n        /* \"#utility.yul\":3600:3651   */\n      tag_152\n      jump\t// in\n    tag_229:\n        /* \"#utility.yul\":3590:3651   */\n      swap5\n      pop\n        /* \"#utility.yul\":3545:3661   */\n      pop\n        /* \"#utility.yul\":3700:3702   */\n      0x60\n        /* \"#utility.yul\":3726:3779   */\n      tag_230\n        /* \"#utility.yul\":3771:3778   */\n      dup10\n        /* \"#utility.yul\":3762:3768   */\n      dup3\n        /* \"#utility.yul\":3751:3760   */\n      dup11\n        /* \"#utility.yul\":3747:3769   */\n      add\n        /* \"#utility.yul\":3726:3779   */\n      tag_142\n      jump\t// in\n    tag_230:\n        /* \"#utility.yul\":3716:3779   */\n      swap4\n      pop\n        /* \"#utility.yul\":3671:3789   */\n      pop\n        /* \"#utility.yul\":3828:3831   */\n      0x80\n        /* \"#utility.yul\":3855:3906   */\n      tag_231\n        /* \"#utility.yul\":3898:3905   */\n      dup10\n        /* \"#utility.yul\":3889:3895   */\n      dup3\n        /* \"#utility.yul\":3878:3887   */\n      dup11\n        /* \"#utility.yul\":3874:3896   */\n      add\n        /* \"#utility.yul\":3855:3906   */\n      tag_152\n      jump\t// in\n    tag_231:\n        /* \"#utility.yul\":3845:3906   */\n      swap3\n      pop\n        /* \"#utility.yul\":3799:3916   */\n      pop\n        /* \"#utility.yul\":3955:3958   */\n      0xa0\n        /* \"#utility.yul\":3982:4035   */\n      tag_232\n        /* \"#utility.yul\":4027:4034   */\n      dup10\n        /* \"#utility.yul\":4018:4024   */\n      dup3\n        /* \"#utility.yul\":4007:4016   */\n      dup11\n        /* \"#utility.yul\":4003:4025   */\n      add\n        /* \"#utility.yul\":3982:4035   */\n      tag_147\n      jump\t// in\n    tag_232:\n        /* \"#utility.yul\":3972:4035   */\n      swap2\n      pop\n        /* \"#utility.yul\":3926:4045   */\n      pop\n        /* \"#utility.yul\":3003:4052   */\n      swap3\n      swap6\n      pop\n      swap3\n      swap6\n      pop\n      swap3\n      swap6\n      jump\t// out\n        /* \"#utility.yul\":4058:4532   */\n    tag_41:\n        /* \"#utility.yul\":4126:4132   */\n      0x00\n        /* \"#utility.yul\":4134:4140   */\n      dup1\n        /* \"#utility.yul\":4183:4185   */\n      0x40\n        /* \"#utility.yul\":4171:4180   */\n      dup4\n        /* \"#utility.yul\":4162:4169   */\n      dup6\n        /* \"#utility.yul\":4158:4181   */\n      sub\n        /* \"#utility.yul\":4154:4186   */\n      slt\n        /* \"#utility.yul\":4151:4270   */\n      iszero\n      tag_234\n      jumpi\n        /* \"#utility.yul\":4189:4268   */\n      tag_235\n      tag_138\n      jump\t// in\n    tag_235:\n        /* \"#utility.yul\":4151:4270   */\n    tag_234:\n        /* \"#utility.yul\":4309:4310   */\n      0x00\n        /* \"#utility.yul\":4334:4387   */\n      tag_236\n        /* \"#utility.yul\":4379:4386   */\n      dup6\n        /* \"#utility.yul\":4370:4376   */\n      dup3\n        /* \"#utility.yul\":4359:4368   */\n      dup7\n        /* \"#utility.yul\":4355:4377   */\n      add\n        /* \"#utility.yul\":4334:4387   */\n      tag_147\n      jump\t// in\n    tag_236:\n        /* \"#utility.yul\":4324:4387   */\n      swap3\n      pop\n        /* \"#utility.yul\":4280:4397   */\n      pop\n        /* \"#utility.yul\":4436:4438   */\n      0x20\n        /* \"#utility.yul\":4462:4515   */\n      tag_237\n        /* \"#utility.yul\":4507:4514   */\n      dup6\n        /* \"#utility.yul\":4498:4504   */\n      dup3\n        /* \"#utility.yul\":4487:4496   */\n      dup7\n        /* \"#utility.yul\":4483:4505   */\n      add\n        /* \"#utility.yul\":4462:4515   */\n      tag_142\n      jump\t// in\n    tag_237:\n        /* \"#utility.yul\":4452:4515   */\n      swap2\n      pop\n        /* \"#utility.yul\":4407:4525   */\n      pop\n        /* \"#utility.yul\":4058:4532   */\n      swap3\n      pop\n      swap3\n      swap1\n      pop\n      jump\t// out\n        /* \"#utility.yul\":4538:4650   */\n    tag_153:\n        /* \"#utility.yul\":4621:4643   */\n      tag_239\n        /* \"#utility.yul\":4637:4642   */\n      dup2\n        /* \"#utility.yul\":4621:4643   */\n      tag_150\n      jump\t// in\n    tag_239:\n        /* \"#utility.yul\":4616:4619   */\n      dup3\n        /* \"#utility.yul\":4609:4644   */\n      mstore\n        /* \"#utility.yul\":4538:4650   */\n      pop\n      pop\n      jump\t// out\n        /* \"#utility.yul\":4656:4774   */\n    tag_154:\n        /* \"#utility.yul\":4743:4767   */\n      tag_241\n        /* \"#utility.yul\":4761:4766   */\n      dup2\n        /* \"#utility.yul\":4743:4767   */\n      tag_145\n      jump\t// in\n    tag_241:\n        /* \"#utility.yul\":4738:4741   */\n      dup3\n        /* \"#utility.yul\":4731:4768   */\n      mstore\n        /* \"#utility.yul\":4656:4774   */\n      pop\n      pop\n      jump\t// out\n        /* \"#utility.yul\":4780:6185   */\n    tag_44:\n        /* \"#utility.yul\":5163:5167   */\n      0x00\n        /* \"#utility.yul\":5201:5204   */\n      0x0180\n        /* \"#utility.yul\":5190:5199   */\n      dup3\n        /* \"#utility.yul\":5186:5205   */\n      add\n        /* \"#utility.yul\":5178:5205   */\n      swap1\n      pop\n        /* \"#utility.yul\":5215:5286   */\n      tag_243\n        /* \"#utility.yul\":5283:5284   */\n      0x00\n        /* \"#utility.yul\":5272:5281   */\n      dup4\n        /* \"#utility.yul\":5268:5285   */\n      add\n        /* \"#utility.yul\":5259:5265   */\n      dup16\n        /* \"#utility.yul\":5215:5286   */\n      tag_143\n      jump\t// in\n    tag_243:\n        /* \"#utility.yul\":5296:5368   */\n      tag_244\n        /* \"#utility.yul\":5364:5366   */\n      0x20\n        /* \"#utility.yul\":5353:5362   */\n      dup4\n        /* \"#utility.yul\":5349:5367   */\n      add\n        /* \"#utility.yul\":5340:5346   */\n      dup15\n        /* \"#utility.yul\":5296:5368   */\n      tag_143\n      jump\t// in\n    tag_244:\n        /* \"#utility.yul\":5378:5450   */\n      tag_245\n        /* \"#utility.yul\":5446:5448   */\n      0x40\n        /* \"#utility.yul\":5435:5444   */\n      dup4\n        /* \"#utility.yul\":5431:5449   */\n      add\n        /* \"#utility.yul\":5422:5428   */\n      dup14\n        /* \"#utility.yul\":5378:5450   */\n      tag_143\n      jump\t// in\n    tag_245:\n        /* \"#utility.yul\":5460:5526   */\n      tag_246\n        /* \"#utility.yul\":5522:5524   */\n      0x60\n        /* \"#utility.yul\":5511:5520   */\n      dup4\n        /* \"#utility.yul\":5507:5525   */\n      add\n        /* \"#utility.yul\":5498:5504   */\n      dup13\n        /* \"#utility.yul\":5460:5526   */\n      tag_149\n      jump\t// in\n    tag_246:\n        /* \"#utility.yul\":5536:5603   */\n      tag_247\n        /* \"#utility.yul\":5598:5601   */\n      0x80\n        /* \"#utility.yul\":5587:5596   */\n      dup4\n        /* \"#utility.yul\":5583:5602   */\n      add\n        /* \"#utility.yul\":5574:5580   */\n      dup12\n        /* \"#utility.yul\":5536:5603   */\n      tag_149\n      jump\t// in\n    tag_247:\n        /* \"#utility.yul\":5613:5682   */\n      tag_248\n        /* \"#utility.yul\":5677:5680   */\n      0xa0\n        /* \"#utility.yul\":5666:5675   */\n      dup4\n        /* \"#utility.yul\":5662:5681   */\n      add\n        /* \"#utility.yul\":5653:5659   */\n      dup11\n        /* \"#utility.yul\":5613:5682   */\n      tag_153\n      jump\t// in\n    tag_248:\n        /* \"#utility.yul\":5692:5761   */\n      tag_249\n        /* \"#utility.yul\":5756:5759   */\n      0xc0\n        /* \"#utility.yul\":5745:5754   */\n      dup4\n        /* \"#utility.yul\":5741:5760   */\n      add\n        /* \"#utility.yul\":5732:5738   */\n      dup10\n        /* \"#utility.yul\":5692:5761   */\n      tag_153\n      jump\t// in\n    tag_249:\n        /* \"#utility.yul\":5771:5844   */\n      tag_250\n        /* \"#utility.yul\":5839:5842   */\n      0xe0\n        /* \"#utility.yul\":5828:5837   */\n      dup4\n        /* \"#utility.yul\":5824:5843   */\n      add\n        /* \"#utility.yul\":5815:5821   */\n      dup9\n        /* \"#utility.yul\":5771:5844   */\n      tag_143\n      jump\t// in\n    tag_250:\n        /* \"#utility.yul\":5854:5927   */\n      tag_251\n        /* \"#utility.yul\":5922:5925   */\n      0x0100\n        /* \"#utility.yul\":5911:5920   */\n      dup4\n        /* \"#utility.yul\":5907:5926   */\n      add\n        /* \"#utility.yul\":5898:5904   */\n      dup8\n        /* \"#utility.yul\":5854:5927   */\n      tag_143\n      jump\t// in\n    tag_251:\n        /* \"#utility.yul\":5937:6010   */\n      tag_252\n        /* \"#utility.yul\":6005:6008   */\n      0x0120\n        /* \"#utility.yul\":5994:6003   */\n      dup4\n        /* \"#utility.yul\":5990:6009   */\n      add\n        /* \"#utility.yul\":5981:5987   */\n      dup7\n        /* \"#utility.yul\":5937:6010   */\n      tag_154\n      jump\t// in\n    tag_252:\n        /* \"#utility.yul\":6020:6094   */\n      tag_253\n        /* \"#utility.yul\":6089:6092   */\n      0x0140\n        /* \"#utility.yul\":6078:6087   */\n      dup4\n        /* \"#utility.yul\":6074:6093   */\n      add\n        /* \"#utility.yul\":6064:6071   */\n      dup6\n        /* \"#utility.yul\":6020:6094   */\n      tag_143\n      jump\t// in\n    tag_253:\n        /* \"#utility.yul\":6104:6178   */\n      tag_254\n        /* \"#utility.yul\":6173:6176   */\n      0x0160\n        /* \"#utility.yul\":6162:6171   */\n      dup4\n        /* \"#utility.yul\":6158:6177   */\n      add\n        /* \"#utility.yul\":6148:6155   */\n      dup5\n        /* \"#utility.yul\":6104:6178   */\n      tag_143\n      jump\t// in\n    tag_254:\n        /* \"#utility.yul\":4780:6185   */\n      swap14\n      swap13\n      pop\n      pop\n      pop\n      pop\n      pop\n      pop\n      pop\n      pop\n      pop\n      pop\n      pop\n      pop\n      pop\n      jump\t// out\n        /* \"#utility.yul\":6191:6251   */\n    tag_155:\n        /* \"#utility.yul\":6219:6222   */\n      0x00\n        /* \"#utility.yul\":6240:6245   */\n      dup2\n        /* \"#utility.yul\":6233:6245   */\n      swap1\n      pop\n        /* \"#utility.yul\":6191:6251   */\n      swap2\n      swap1\n      pop\n      jump\t// out\n        /* \"#utility.yul\":6257:6399   */\n    tag_156:\n        /* \"#utility.yul\":6307:6316   */\n      0x00\n        /* \"#utility.yul\":6340:6393   */\n      tag_257\n        /* \"#utility.yul\":6358:6392   */\n      tag_258\n        /* \"#utility.yul\":6367:6391   */\n      tag_259\n        /* \"#utility.yul\":6385:6390   */\n      dup5\n        /* \"#utility.yul\":6367:6391   */\n      tag_144\n      jump\t// in\n    tag_259:\n        /* \"#utility.yul\":6358:6392   */\n      tag_155\n      jump\t// in\n    tag_258:\n        /* \"#utility.yul\":6340:6393   */\n      tag_144\n      jump\t// in\n    tag_257:\n        /* \"#utility.yul\":6327:6393   */\n      swap1\n      pop\n        /* \"#utility.yul\":6257:6399   */\n      swap2\n      swap1\n      pop\n      jump\t// out\n        /* \"#utility.yul\":6405:6531   */\n    tag_157:\n        /* \"#utility.yul\":6455:6464   */\n      0x00\n        /* \"#utility.yul\":6488:6525   */\n      tag_261\n        /* \"#utility.yul\":6519:6524   */\n      dup3\n        /* \"#utility.yul\":6488:6525   */\n      tag_156\n      jump\t// in\n    tag_261:\n        /* \"#utility.yul\":6475:6525   */\n      swap1\n      pop\n        /* \"#utility.yul\":6405:6531   */\n      swap2\n      swap1\n      pop\n      jump\t// out\n        /* \"#utility.yul\":6537:6676   */\n    tag_158:\n        /* \"#utility.yul\":6600:6609   */\n      0x00\n        /* \"#utility.yul\":6633:6670   */\n      tag_263\n        /* \"#utility.yul\":6664:6669   */\n      dup3\n        /* \"#utility.yul\":6633:6670   */\n      tag_157\n      jump\t// in\n    tag_263:\n        /* \"#utility.yul\":6620:6670   */\n      swap1\n      pop\n        /* \"#utility.yul\":6537:6676   */\n      swap2\n      swap1\n      pop\n      jump\t// out\n        /* \"#utility.yul\":6682:6839   */\n    tag_159:\n        /* \"#utility.yul\":6782:6832   */\n      tag_265\n        /* \"#utility.yul\":6826:6831   */\n      dup2\n        /* \"#utility.yul\":6782:6832   */\n      tag_158\n      jump\t// in\n    tag_265:\n        /* \"#utility.yul\":6777:6780   */\n      dup3\n        /* \"#utility.yul\":6770:6833   */\n      mstore\n        /* \"#utility.yul\":6682:6839   */\n      pop\n      pop\n      jump\t// out\n        /* \"#utility.yul\":6845:7093   */\n    tag_51:\n        /* \"#utility.yul\":6951:6955   */\n      0x00\n        /* \"#utility.yul\":6989:6991   */\n      0x20\n        /* \"#utility.yul\":6978:6987   */\n      dup3\n        /* \"#utility.yul\":6974:6992   */\n      add\n        /* \"#utility.yul\":6966:6992   */\n      swap1\n      pop\n        /* \"#utility.yul\":7002:7086   */\n      tag_267\n        /* \"#utility.yul\":7083:7084   */\n      0x00\n        /* \"#utility.yul\":7072:7081   */\n      dup4\n        /* \"#utility.yul\":7068:7085   */\n      add\n        /* \"#utility.yul\":7059:7065   */\n      dup5\n        /* \"#utility.yul\":7002:7086   */\n      tag_159\n      jump\t// in\n    tag_267:\n        /* \"#utility.yul\":6845:7093   */\n      swap3\n      swap2\n      pop\n      pop\n      jump\t// out\n        /* \"#utility.yul\":7099:7279   */\n    tag_55:\n        /* \"#utility.yul\":7147:7224   */\n      0x4e487b7100000000000000000000000000000000000000000000000000000000\n        /* \"#utility.yul\":7144:7145   */\n      0x00\n        /* \"#utility.yul\":7137:7225   */\n      mstore\n        /* \"#utility.yul\":7244:7248   */\n      0x32\n        /* \"#utility.yul\":7241:7242   */\n      0x04\n        /* \"#utility.yul\":7234:7249   */\n      mstore\n        /* \"#utility.yul\":7268:7272   */\n      0x24\n        /* \"#utility.yul\":7265:7266   */\n      0x00\n        /* \"#utility.yul\":7258:7273   */\n      revert\n        /* \"#utility.yul\":7285:7454   */\n    tag_160:\n        /* \"#utility.yul\":7369:7380   */\n      0x00\n        /* \"#utility.yul\":7403:7409   */\n      dup3\n        /* \"#utility.yul\":7398:7401   */\n      dup3\n        /* \"#utility.yul\":7391:7410   */\n      mstore\n        /* \"#utility.yul\":7443:7447   */\n      0x20\n        /* \"#utility.yul\":7438:7441   */\n      dup3\n        /* \"#utility.yul\":7434:7448   */\n      add\n        /* \"#utility.yul\":7419:7448   */\n      swap1\n      pop\n        /* \"#utility.yul\":7285:7454   */\n      swap3\n      swap2\n      pop\n      pop\n      jump\t// out\n        /* \"#utility.yul\":7460:7636   */\n    tag_161:\n        /* \"#utility.yul\":7600:7628   */\n      0x46756e64732068617665206e6f74206265656e206c6f636b6564000000000000\n        /* \"#utility.yul\":7596:7597   */\n      0x00\n        /* \"#utility.yul\":7588:7594   */\n      dup3\n        /* \"#utility.yul\":7584:7598   */\n      add\n        /* \"#utility.yul\":7577:7629   */\n      mstore\n        /* \"#utility.yul\":7460:7636   */\n      pop\n      jump\t// out\n        /* \"#utility.yul\":7642:8008   */\n    tag_162:\n        /* \"#utility.yul\":7784:7787   */\n      0x00\n        /* \"#utility.yul\":7805:7872   */\n      tag_272\n        /* \"#utility.yul\":7869:7871   */\n      0x1a\n        /* \"#utility.yul\":7864:7867   */\n      dup4\n        /* \"#utility.yul\":7805:7872   */\n      tag_160\n      jump\t// in\n    tag_272:\n        /* \"#utility.yul\":7798:7872   */\n      swap2\n      pop\n        /* \"#utility.yul\":7881:7974   */\n      tag_273\n        /* \"#utility.yul\":7970:7973   */\n      dup3\n        /* \"#utility.yul\":7881:7974   */\n      tag_161\n      jump\t// in\n    tag_273:\n        /* \"#utility.yul\":7999:8001   */\n      0x20\n        /* \"#utility.yul\":7994:7997   */\n      dup3\n        /* \"#utility.yul\":7990:8002   */\n      add\n        /* \"#utility.yul\":7983:8002   */\n      swap1\n      pop\n        /* \"#utility.yul\":7642:8008   */\n      swap2\n      swap1\n      pop\n      jump\t// out\n        /* \"#utility.yul\":8014:8433   */\n    tag_59:\n        /* \"#utility.yul\":8180:8184   */\n      0x00\n        /* \"#utility.yul\":8218:8220   */\n      0x20\n        /* \"#utility.yul\":8207:8216   */\n      dup3\n        /* \"#utility.yul\":8203:8221   */\n      add\n        /* \"#utility.yul\":8195:8221   */\n      swap1\n      pop\n        /* \"#utility.yul\":8267:8276   */\n      dup2\n        /* \"#utility.yul\":8261:8265   */\n      dup2\n        /* \"#utility.yul\":8257:8277   */\n      sub\n        /* \"#utility.yul\":8253:8254   */\n      0x00\n        /* \"#utility.yul\":8242:8251   */\n      dup4\n        /* \"#utility.yul\":8238:8255   */\n      add\n        /* \"#utility.yul\":8231:8278   */\n      mstore\n        /* \"#utility.yul\":8295:8426   */\n      tag_275\n        /* \"#utility.yul\":8421:8425   */\n      dup2\n        /* \"#utility.yul\":8295:8426   */\n      tag_162\n      jump\t// in\n    tag_275:\n        /* \"#utility.yul\":8287:8426   */\n      swap1\n      pop\n        /* \"#utility.yul\":8014:8433   */\n      swap2\n      swap1\n      pop\n      jump\t// out\n        /* \"#utility.yul\":8439:8659   */\n    tag_163:\n        /* \"#utility.yul\":8579:8613   */\n      0x546f6b656e20756e646572206c6f636b696e6720706c6561736520776169742e\n        /* \"#utility.yul\":8575:8576   */\n      0x00\n        /* \"#utility.yul\":8567:8573   */\n      dup3\n        /* \"#utility.yul\":8563:8577   */\n      add\n        /* \"#utility.yul\":8556:8614   */\n      mstore\n        /* \"#utility.yul\":8648:8651   */\n      0x2e00000000000000000000000000000000000000000000000000000000000000\n        /* \"#utility.yul\":8643:8645   */\n      0x20\n        /* \"#utility.yul\":8635:8641   */\n      dup3\n        /* \"#utility.yul\":8631:8646   */\n      add\n        /* \"#utility.yul\":8624:8652   */\n      mstore\n        /* \"#utility.yul\":8439:8659   */\n      pop\n      jump\t// out\n        /* \"#utility.yul\":8665:9031   */\n    tag_164:\n        /* \"#utility.yul\":8807:8810   */\n      0x00\n        /* \"#utility.yul\":8828:8895   */\n      tag_278\n        /* \"#utility.yul\":8892:8894   */\n      0x21\n        /* \"#utility.yul\":8887:8890   */\n      dup4\n        /* \"#utility.yul\":8828:8895   */\n      tag_160\n      jump\t// in\n    tag_278:\n        /* \"#utility.yul\":8821:8895   */\n      swap2\n      pop\n        /* \"#utility.yul\":8904:8997   */\n      tag_279\n        /* \"#utility.yul\":8993:8996   */\n      dup3\n        /* \"#utility.yul\":8904:8997   */\n      tag_163\n      jump\t// in\n    tag_279:\n        /* \"#utility.yul\":9022:9024   */\n      0x40\n        /* \"#utility.yul\":9017:9020   */\n      dup3\n        /* \"#utility.yul\":9013:9025   */\n      add\n        /* \"#utility.yul\":9006:9025   */\n      swap1\n      pop\n        /* \"#utility.yul\":8665:9031   */\n      swap2\n      swap1\n      pop\n      jump\t// out\n        /* \"#utility.yul\":9037:9456   */\n    tag_63:\n        /* \"#utility.yul\":9203:9207   */\n      0x00\n        /* \"#utility.yul\":9241:9243   */\n      0x20\n        /* \"#utility.yul\":9230:9239   */\n      dup3\n        /* \"#utility.yul\":9226:9244   */\n      add\n        /* \"#utility.yul\":9218:9244   */\n      swap1\n      pop\n        /* \"#utility.yul\":9290:9299   */\n      dup2\n        /* \"#utility.yul\":9284:9288   */\n      dup2\n        /* \"#utility.yul\":9280:9300   */\n      sub\n        /* \"#utility.yul\":9276:9277   */\n      0x00\n        /* \"#utility.yul\":9265:9274   */\n      dup4\n        /* \"#utility.yul\":9261:9278   */\n      add\n        /* \"#utility.yul\":9254:9301   */\n      mstore\n        /* \"#utility.yul\":9318:9449   */\n      tag_281\n        /* \"#utility.yul\":9444:9448   */\n      dup2\n        /* \"#utility.yul\":9318:9449   */\n      tag_164\n      jump\t// in\n    tag_281:\n        /* \"#utility.yul\":9310:9449   */\n      swap1\n      pop\n        /* \"#utility.yul\":9037:9456   */\n      swap2\n      swap1\n      pop\n      jump\t// out\n        /* \"#utility.yul\":9462:9683   */\n    tag_165:\n        /* \"#utility.yul\":9602:9636   */\n      0x4e6f20746f6b656e7320617661696c61626c6520666f72207769746864726177\n        /* \"#utility.yul\":9598:9599   */\n      0x00\n        /* \"#utility.yul\":9590:9596   */\n      dup3\n        /* \"#utility.yul\":9586:9600   */\n      add\n        /* \"#utility.yul\":9579:9637   */\n      mstore\n        /* \"#utility.yul\":9671:9675   */\n      0x616c000000000000000000000000000000000000000000000000000000000000\n        /* \"#utility.yul\":9666:9668   */\n      0x20\n        /* \"#utility.yul\":9658:9664   */\n      dup3\n        /* \"#utility.yul\":9654:9669   */\n      add\n        /* \"#utility.yul\":9647:9676   */\n      mstore\n        /* \"#utility.yul\":9462:9683   */\n      pop\n      jump\t// out\n        /* \"#utility.yul\":9689:10055   */\n    tag_166:\n        /* \"#utility.yul\":9831:9834   */\n      0x00\n        /* \"#utility.yul\":9852:9919   */\n      tag_284\n        /* \"#utility.yul\":9916:9918   */\n      0x22\n        /* \"#utility.yul\":9911:9914   */\n      dup4\n        /* \"#utility.yul\":9852:9919   */\n      tag_160\n      jump\t// in\n    tag_284:\n        /* \"#utility.yul\":9845:9919   */\n      swap2\n      pop\n        /* \"#utility.yul\":9928:10021   */\n      tag_285\n        /* \"#utility.yul\":10017:10020   */\n      dup3\n        /* \"#utility.yul\":9928:10021   */\n      tag_165\n      jump\t// in\n    tag_285:\n        /* \"#utility.yul\":10046:10048   */\n      0x40\n        /* \"#utility.yul\":10041:10044   */\n      dup3\n        /* \"#utility.yul\":10037:10049   */\n      add\n        /* \"#utility.yul\":10030:10049   */\n      swap1\n      pop\n        /* \"#utility.yul\":9689:10055   */\n      swap2\n      swap1\n      pop\n      jump\t// out\n        /* \"#utility.yul\":10061:10480   */\n    tag_67:\n        /* \"#utility.yul\":10227:10231   */\n      0x00\n        /* \"#utility.yul\":10265:10267   */\n      0x20\n        /* \"#utility.yul\":10254:10263   */\n      dup3\n        /* \"#utility.yul\":10250:10268   */\n      add\n        /* \"#utility.yul\":10242:10268   */\n      swap1\n      pop\n        /* \"#utility.yul\":10314:10323   */\n      dup2\n        /* \"#utility.yul\":10308:10312   */\n      dup2\n        /* \"#utility.yul\":10304:10324   */\n      sub\n        /* \"#utility.yul\":10300:10301   */\n      0x00\n        /* \"#utility.yul\":10289:10298   */\n      dup4\n        /* \"#utility.yul\":10285:10302   */\n      add\n        /* \"#utility.yul\":10278:10325   */\n      mstore\n        /* \"#utility.yul\":10342:10473   */\n      tag_287\n        /* \"#utility.yul\":10468:10472   */\n      dup2\n        /* \"#utility.yul\":10342:10473   */\n      tag_166\n      jump\t// in\n    tag_287:\n        /* \"#utility.yul\":10334:10473   */\n      swap1\n      pop\n        /* \"#utility.yul\":10061:10480   */\n      swap2\n      swap1\n      pop\n      jump\t// out\n        /* \"#utility.yul\":10486:10665   */\n    tag_167:\n        /* \"#utility.yul\":10626:10657   */\n      0x4e6f7420656e6f75676820746f6b656e7320746f207769746864726177000000\n        /* \"#utility.yul\":10622:10623   */\n      0x00\n        /* \"#utility.yul\":10614:10620   */\n      dup3\n        /* \"#utility.yul\":10610:10624   */\n      add\n        /* \"#utility.yul\":10603:10658   */\n      mstore\n        /* \"#utility.yul\":10486:10665   */\n      pop\n      jump\t// out\n        /* \"#utility.yul\":10671:11037   */\n    tag_168:\n        /* \"#utility.yul\":10813:10816   */\n      0x00\n        /* \"#utility.yul\":10834:10901   */\n      tag_290\n        /* \"#utility.yul\":10898:10900   */\n      0x1d\n        /* \"#utility.yul\":10893:10896   */\n      dup4\n        /* \"#utility.yul\":10834:10901   */\n      tag_160\n      jump\t// in\n    tag_290:\n        /* \"#utility.yul\":10827:10901   */\n      swap2\n      pop\n        /* \"#utility.yul\":10910:11003   */\n      tag_291\n        /* \"#utility.yul\":10999:11002   */\n      dup3\n        /* \"#utility.yul\":10910:11003   */\n      tag_167\n      jump\t// in\n    tag_291:\n        /* \"#utility.yul\":11028:11030   */\n      0x20\n        /* \"#utility.yul\":11023:11026   */\n      dup3\n        /* \"#utility.yul\":11019:11031   */\n      add\n        /* \"#utility.yul\":11012:11031   */\n      swap1\n      pop\n        /* \"#utility.yul\":10671:11037   */\n      swap2\n      swap1\n      pop\n      jump\t// out\n        /* \"#utility.yul\":11043:11462   */\n    tag_70:\n        /* \"#utility.yul\":11209:11213   */\n      0x00\n        /* \"#utility.yul\":11247:11249   */\n      0x20\n        /* \"#utility.yul\":11236:11245   */\n      dup3\n        /* \"#utility.yul\":11232:11250   */\n      add\n        /* \"#utility.yul\":11224:11250   */\n      swap1\n      pop\n        /* \"#utility.yul\":11296:11305   */\n      dup2\n        /* \"#utility.yul\":11290:11294   */\n      dup2\n        /* \"#utility.yul\":11286:11306   */\n      sub\n        /* \"#utility.yul\":11282:11283   */\n      0x00\n        /* \"#utility.yul\":11271:11280   */\n      dup4\n        /* \"#utility.yul\":11267:11284   */\n      add\n        /* \"#utility.yul\":11260:11307   */\n      mstore\n        /* \"#utility.yul\":11324:11455   */\n      tag_293\n        /* \"#utility.yul\":11450:11454   */\n      dup2\n        /* \"#utility.yul\":11324:11455   */\n      tag_168\n      jump\t// in\n    tag_293:\n        /* \"#utility.yul\":11316:11455   */\n      swap1\n      pop\n        /* \"#utility.yul\":11043:11462   */\n      swap2\n      swap1\n      pop\n      jump\t// out\n        /* \"#utility.yul\":11468:11800   */\n    tag_72:\n        /* \"#utility.yul\":11589:11593   */\n      0x00\n        /* \"#utility.yul\":11627:11629   */\n      0x40\n        /* \"#utility.yul\":11616:11625   */\n      dup3\n        /* \"#utility.yul\":11612:11630   */\n      add\n        /* \"#utility.yul\":11604:11630   */\n      swap1\n      pop\n        /* \"#utility.yul\":11640:11711   */\n      tag_295\n        /* \"#utility.yul\":11708:11709   */\n      0x00\n        /* \"#utility.yul\":11697:11706   */\n      dup4\n        /* \"#utility.yul\":11693:11710   */\n      add\n        /* \"#utility.yul\":11684:11690   */\n      dup6\n        /* \"#utility.yul\":11640:11711   */\n      tag_154\n      jump\t// in\n    tag_295:\n        /* \"#utility.yul\":11721:11793   */\n      tag_296\n        /* \"#utility.yul\":11789:11791   */\n      0x20\n        /* \"#utility.yul\":11778:11787   */\n      dup4\n        /* \"#utility.yul\":11774:11792   */\n      add\n        /* \"#utility.yul\":11765:11771   */\n      dup5\n        /* \"#utility.yul\":11721:11793   */\n      tag_143\n      jump\t// in\n    tag_296:\n        /* \"#utility.yul\":11468:11800   */\n      swap4\n      swap3\n      pop\n      pop\n      pop\n      jump\t// out\n        /* \"#utility.yul\":11806:11922   */\n    tag_169:\n        /* \"#utility.yul\":11876:11897   */\n      tag_298\n        /* \"#utility.yul\":11891:11896   */\n      dup2\n        /* \"#utility.yul\":11876:11897   */\n      tag_148\n      jump\t// in\n    tag_298:\n        /* \"#utility.yul\":11869:11874   */\n      dup2\n        /* \"#utility.yul\":11866:11898   */\n      eq\n        /* \"#utility.yul\":11856:11916   */\n      tag_299\n      jumpi\n        /* \"#utility.yul\":11912:11913   */\n      0x00\n        /* \"#utility.yul\":11909:11910   */\n      dup1\n        /* \"#utility.yul\":11902:11914   */\n      revert\n        /* \"#utility.yul\":11856:11916   */\n    tag_299:\n        /* \"#utility.yul\":11806:11922   */\n      pop\n      jump\t// out\n        /* \"#utility.yul\":11928:12065   */\n    tag_170:\n        /* \"#utility.yul\":11982:11987   */\n      0x00\n        /* \"#utility.yul\":12013:12019   */\n      dup2\n        /* \"#utility.yul\":12007:12020   */\n      mload\n        /* \"#utility.yul\":11998:12020   */\n      swap1\n      pop\n        /* \"#utility.yul\":12029:12059   */\n      tag_301\n        /* \"#utility.yul\":12053:12058   */\n      dup2\n        /* \"#utility.yul\":12029:12059   */\n      tag_169\n      jump\t// in\n    tag_301:\n        /* \"#utility.yul\":11928:12065   */\n      swap3\n      swap2\n      pop\n      pop\n      jump\t// out\n        /* \"#utility.yul\":12071:12416   */\n    tag_76:\n        /* \"#utility.yul\":12138:12144   */\n      0x00\n        /* \"#utility.yul\":12187:12189   */\n      0x20\n        /* \"#utility.yul\":12175:12184   */\n      dup3\n        /* \"#utility.yul\":12166:12173   */\n      dup5\n        /* \"#utility.yul\":12162:12185   */\n      sub\n        /* \"#utility.yul\":12158:12190   */\n      slt\n        /* \"#utility.yul\":12155:12274   */\n      iszero\n      tag_303\n      jumpi\n        /* \"#utility.yul\":12193:12272   */\n      tag_304\n      tag_138\n      jump\t// in\n    tag_304:\n        /* \"#utility.yul\":12155:12274   */\n    tag_303:\n        /* \"#utility.yul\":12313:12314   */\n      0x00\n        /* \"#utility.yul\":12338:12399   */\n      tag_305\n        /* \"#utility.yul\":12391:12398   */\n      dup5\n        /* \"#utility.yul\":12382:12388   */\n      dup3\n        /* \"#utility.yul\":12371:12380   */\n      dup6\n        /* \"#utility.yul\":12367:12389   */\n      add\n        /* \"#utility.yul\":12338:12399   */\n      tag_170\n      jump\t// in\n    tag_305:\n        /* \"#utility.yul\":12328:12399   */\n      swap2\n      pop\n        /* \"#utility.yul\":12284:12409   */\n      pop\n        /* \"#utility.yul\":12071:12416   */\n      swap3\n      swap2\n      pop\n      pop\n      jump\t// out\n        /* \"#utility.yul\":12422:12602   */\n    tag_171:\n        /* \"#utility.yul\":12470:12547   */\n      0x4e487b7100000000000000000000000000000000000000000000000000000000\n        /* \"#utility.yul\":12467:12468   */\n      0x00\n        /* \"#utility.yul\":12460:12548   */\n      mstore\n        /* \"#utility.yul\":12567:12571   */\n      0x11\n        /* \"#utility.yul\":12564:12565   */\n      0x04\n        /* \"#utility.yul\":12557:12572   */\n      mstore\n        /* \"#utility.yul\":12591:12595   */\n      0x24\n        /* \"#utility.yul\":12588:12589   */\n      0x00\n        /* \"#utility.yul\":12581:12596   */\n      revert\n        /* \"#utility.yul\":12608:12799   */\n    tag_78:\n        /* \"#utility.yul\":12648:12651   */\n      0x00\n        /* \"#utility.yul\":12667:12687   */\n      tag_308\n        /* \"#utility.yul\":12685:12686   */\n      dup3\n        /* \"#utility.yul\":12667:12687   */\n      tag_140\n      jump\t// in\n    tag_308:\n        /* \"#utility.yul\":12662:12687   */\n      swap2\n      pop\n        /* \"#utility.yul\":12701:12721   */\n      tag_309\n        /* \"#utility.yul\":12719:12720   */\n      dup4\n        /* \"#utility.yul\":12701:12721   */\n      tag_140\n      jump\t// in\n    tag_309:\n        /* \"#utility.yul\":12696:12721   */\n      swap3\n      pop\n        /* \"#utility.yul\":12744:12745   */\n      dup3\n        /* \"#utility.yul\":12741:12742   */\n      dup3\n        /* \"#utility.yul\":12737:12746   */\n      add\n        /* \"#utility.yul\":12730:12746   */\n      swap1\n      pop\n        /* \"#utility.yul\":12765:12768   */\n      dup1\n        /* \"#utility.yul\":12762:12763   */\n      dup3\n        /* \"#utility.yul\":12759:12769   */\n      gt\n        /* \"#utility.yul\":12756:12792   */\n      iszero\n      tag_310\n      jumpi\n        /* \"#utility.yul\":12772:12790   */\n      tag_311\n      tag_171\n      jump\t// in\n    tag_311:\n        /* \"#utility.yul\":12756:12792   */\n    tag_310:\n        /* \"#utility.yul\":12608:12799   */\n      swap3\n      swap2\n      pop\n      pop\n      jump\t// out\n        /* \"#utility.yul\":12805:12999   */\n    tag_80:\n        /* \"#utility.yul\":12845:12849   */\n      0x00\n        /* \"#utility.yul\":12865:12885   */\n      tag_313\n        /* \"#utility.yul\":12883:12884   */\n      dup3\n        /* \"#utility.yul\":12865:12885   */\n      tag_140\n      jump\t// in\n    tag_313:\n        /* \"#utility.yul\":12860:12885   */\n      swap2\n      pop\n        /* \"#utility.yul\":12899:12919   */\n      tag_314\n        /* \"#utility.yul\":12917:12918   */\n      dup4\n        /* \"#utility.yul\":12899:12919   */\n      tag_140\n      jump\t// in\n    tag_314:\n        /* \"#utility.yul\":12894:12919   */\n      swap3\n      pop\n        /* \"#utility.yul\":12943:12944   */\n      dup3\n        /* \"#utility.yul\":12940:12941   */\n      dup3\n        /* \"#utility.yul\":12936:12945   */\n      sub\n        /* \"#utility.yul\":12928:12945   */\n      swap1\n      pop\n        /* \"#utility.yul\":12967:12968   */\n      dup2\n        /* \"#utility.yul\":12961:12965   */\n      dup2\n        /* \"#utility.yul\":12958:12969   */\n      gt\n        /* \"#utility.yul\":12955:12992   */\n      iszero\n      tag_315\n      jumpi\n        /* \"#utility.yul\":12972:12990   */\n      tag_316\n      tag_171\n      jump\t// in\n    tag_316:\n        /* \"#utility.yul\":12955:12992   */\n    tag_315:\n        /* \"#utility.yul\":12805:12999   */\n      swap3\n      swap2\n      pop\n      pop\n      jump\t// out\n        /* \"#utility.yul\":13005:13337   */\n    tag_83:\n        /* \"#utility.yul\":13126:13130   */\n      0x00\n        /* \"#utility.yul\":13164:13166   */\n      0x40\n        /* \"#utility.yul\":13153:13162   */\n      dup3\n        /* \"#utility.yul\":13149:13167   */\n      add\n        /* \"#utility.yul\":13141:13167   */\n      swap1\n      pop\n        /* \"#utility.yul\":13177:13248   */\n      tag_318\n        /* \"#utility.yul\":13245:13246   */\n      0x00\n        /* \"#utility.yul\":13234:13243   */\n      dup4\n        /* \"#utility.yul\":13230:13247   */\n      add\n        /* \"#utility.yul\":13221:13227   */\n      dup6\n        /* \"#utility.yul\":13177:13248   */\n      tag_143\n      jump\t// in\n    tag_318:\n        /* \"#utility.yul\":13258:13330   */\n      tag_319\n        /* \"#utility.yul\":13326:13328   */\n      0x20\n        /* \"#utility.yul\":13315:13324   */\n      dup4\n        /* \"#utility.yul\":13311:13329   */\n      add\n        /* \"#utility.yul\":13302:13308   */\n      dup5\n        /* \"#utility.yul\":13258:13330   */\n      tag_143\n      jump\t// in\n    tag_319:\n        /* \"#utility.yul\":13005:13337   */\n      swap4\n      swap3\n      pop\n      pop\n      pop\n      jump\t// out\n        /* \"#utility.yul\":13343:13523   */\n    tag_172:\n        /* \"#utility.yul\":13391:13468   */\n      0x4e487b7100000000000000000000000000000000000000000000000000000000\n        /* \"#utility.yul\":13388:13389   */\n      0x00\n        /* \"#utility.yul\":13381:13469   */\n      mstore\n        /* \"#utility.yul\":13488:13492   */\n      0x12\n        /* \"#utility.yul\":13485:13486   */\n      0x04\n        /* \"#utility.yul\":13478:13493   */\n      mstore\n        /* \"#utility.yul\":13512:13516   */\n      0x24\n        /* \"#utility.yul\":13509:13510   */\n      0x00\n        /* \"#utility.yul\":13502:13517   */\n      revert\n        /* \"#utility.yul\":13529:13714   */\n    tag_89:\n        /* \"#utility.yul\":13569:13570   */\n      0x00\n        /* \"#utility.yul\":13586:13606   */\n      tag_322\n        /* \"#utility.yul\":13604:13605   */\n      dup3\n        /* \"#utility.yul\":13586:13606   */\n      tag_140\n      jump\t// in\n    tag_322:\n        /* \"#utility.yul\":13581:13606   */\n      swap2\n      pop\n        /* \"#utility.yul\":13620:13640   */\n      tag_323\n        /* \"#utility.yul\":13638:13639   */\n      dup4\n        /* \"#utility.yul\":13620:13640   */\n      tag_140\n      jump\t// in\n    tag_323:\n        /* \"#utility.yul\":13615:13640   */\n      swap3\n      pop\n        /* \"#utility.yul\":13659:13660   */\n      dup3\n        /* \"#utility.yul\":13649:13684   */\n      tag_324\n      jumpi\n        /* \"#utility.yul\":13664:13682   */\n      tag_325\n      tag_172\n      jump\t// in\n    tag_325:\n        /* \"#utility.yul\":13649:13684   */\n    tag_324:\n        /* \"#utility.yul\":13706:13707   */\n      dup3\n        /* \"#utility.yul\":13703:13704   */\n      dup3\n        /* \"#utility.yul\":13699:13708   */\n      div\n        /* \"#utility.yul\":13694:13708   */\n      swap1\n      pop\n        /* \"#utility.yul\":13529:13714   */\n      swap3\n      swap2\n      pop\n      pop\n      jump\t// out\n        /* \"#utility.yul\":13720:13896   */\n    tag_91:\n        /* \"#utility.yul\":13752:13753   */\n      0x00\n        /* \"#utility.yul\":13769:13789   */\n      tag_327\n        /* \"#utility.yul\":13787:13788   */\n      dup3\n        /* \"#utility.yul\":13769:13789   */\n      tag_140\n      jump\t// in\n    tag_327:\n        /* \"#utility.yul\":13764:13789   */\n      swap2\n      pop\n        /* \"#utility.yul\":13803:13823   */\n      tag_328\n        /* \"#utility.yul\":13821:13822   */\n      dup4\n        /* \"#utility.yul\":13803:13823   */\n      tag_140\n      jump\t// in\n    tag_328:\n        /* \"#utility.yul\":13798:13823   */\n      swap3\n      pop\n        /* \"#utility.yul\":13842:13843   */\n      dup3\n        /* \"#utility.yul\":13832:13867   */\n      tag_329\n      jumpi\n        /* \"#utility.yul\":13847:13865   */\n      tag_330\n      tag_172\n      jump\t// in\n    tag_330:\n        /* \"#utility.yul\":13832:13867   */\n    tag_329:\n        /* \"#utility.yul\":13888:13889   */\n      dup3\n        /* \"#utility.yul\":13885:13886   */\n      dup3\n        /* \"#utility.yul\":13881:13890   */\n      mod\n        /* \"#utility.yul\":13876:13890   */\n      swap1\n      pop\n        /* \"#utility.yul\":13720:13896   */\n      swap3\n      swap2\n      pop\n      pop\n      jump\t// out\n        /* \"#utility.yul\":13902:14069   */\n    tag_173:\n        /* \"#utility.yul\":14042:14061   */\n      0x76657374696e672074696d65206f766572000000000000000000000000000000\n        /* \"#utility.yul\":14038:14039   */\n      0x00\n        /* \"#utility.yul\":14030:14036   */\n      dup3\n        /* \"#utility.yul\":14026:14040   */\n      add\n        /* \"#utility.yul\":14019:14062   */\n      mstore\n        /* \"#utility.yul\":13902:14069   */\n      pop\n      jump\t// out\n        /* \"#utility.yul\":14075:14441   */\n    tag_174:\n        /* \"#utility.yul\":14217:14220   */\n      0x00\n        /* \"#utility.yul\":14238:14305   */\n      tag_333\n        /* \"#utility.yul\":14302:14304   */\n      0x11\n        /* \"#utility.yul\":14297:14300   */\n      dup4\n        /* \"#utility.yul\":14238:14305   */\n      tag_160\n      jump\t// in\n    tag_333:\n        /* \"#utility.yul\":14231:14305   */\n      swap2\n      pop\n        /* \"#utility.yul\":14314:14407   */\n      tag_334\n        /* \"#utility.yul\":14403:14406   */\n      dup3\n        /* \"#utility.yul\":14314:14407   */\n      tag_173\n      jump\t// in\n    tag_334:\n        /* \"#utility.yul\":14432:14434   */\n      0x20\n        /* \"#utility.yul\":14427:14430   */\n      dup3\n        /* \"#utility.yul\":14423:14435   */\n      add\n        /* \"#utility.yul\":14416:14435   */\n      swap1\n      pop\n        /* \"#utility.yul\":14075:14441   */\n      swap2\n      swap1\n      pop\n      jump\t// out\n        /* \"#utility.yul\":14447:14866   */\n    tag_99:\n        /* \"#utility.yul\":14613:14617   */\n      0x00\n        /* \"#utility.yul\":14651:14653   */\n      0x20\n        /* \"#utility.yul\":14640:14649   */\n      dup3\n        /* \"#utility.yul\":14636:14654   */\n      add\n        /* \"#utility.yul\":14628:14654   */\n      swap1\n      pop\n        /* \"#utility.yul\":14700:14709   */\n      dup2\n        /* \"#utility.yul\":14694:14698   */\n      dup2\n        /* \"#utility.yul\":14690:14710   */\n      sub\n        /* \"#utility.yul\":14686:14687   */\n      0x00\n        /* \"#utility.yul\":14675:14684   */\n      dup4\n        /* \"#utility.yul\":14671:14688   */\n      add\n        /* \"#utility.yul\":14664:14711   */\n      mstore\n        /* \"#utility.yul\":14728:14859   */\n      tag_336\n        /* \"#utility.yul\":14854:14858   */\n      dup2\n        /* \"#utility.yul\":14728:14859   */\n      tag_174\n      jump\t// in\n    tag_336:\n        /* \"#utility.yul\":14720:14859   */\n      swap1\n      pop\n        /* \"#utility.yul\":14447:14866   */\n      swap2\n      swap1\n      pop\n      jump\t// out\n        /* \"#utility.yul\":14872:15282   */\n    tag_104:\n        /* \"#utility.yul\":14912:14919   */\n      0x00\n        /* \"#utility.yul\":14935:14955   */\n      tag_338\n        /* \"#utility.yul\":14953:14954   */\n      dup3\n        /* \"#utility.yul\":14935:14955   */\n      tag_140\n      jump\t// in\n    tag_338:\n        /* \"#utility.yul\":14930:14955   */\n      swap2\n      pop\n        /* \"#utility.yul\":14969:14989   */\n      tag_339\n        /* \"#utility.yul\":14987:14988   */\n      dup4\n        /* \"#utility.yul\":14969:14989   */\n      tag_140\n      jump\t// in\n    tag_339:\n        /* \"#utility.yul\":14964:14989   */\n      swap3\n      pop\n        /* \"#utility.yul\":15024:15025   */\n      dup3\n        /* \"#utility.yul\":15021:15022   */\n      dup3\n        /* \"#utility.yul\":15017:15026   */\n      mul\n        /* \"#utility.yul\":15046:15076   */\n      tag_340\n        /* \"#utility.yul\":15064:15075   */\n      dup2\n        /* \"#utility.yul\":15046:15076   */\n      tag_140\n      jump\t// in\n    tag_340:\n        /* \"#utility.yul\":15035:15076   */\n      swap2\n      pop\n        /* \"#utility.yul\":15225:15226   */\n      dup3\n        /* \"#utility.yul\":15216:15223   */\n      dup3\n        /* \"#utility.yul\":15212:15227   */\n      div\n        /* \"#utility.yul\":15209:15210   */\n      dup5\n        /* \"#utility.yul\":15206:15228   */\n      eq\n        /* \"#utility.yul\":15186:15187   */\n      dup4\n        /* \"#utility.yul\":15179:15188   */\n      iszero\n        /* \"#utility.yul\":15159:15242   */\n      or\n        /* \"#utility.yul\":15136:15275   */\n      tag_341\n      jumpi\n        /* \"#utility.yul\":15255:15273   */\n      tag_342\n      tag_171\n      jump\t// in\n    tag_342:\n        /* \"#utility.yul\":15136:15275   */\n    tag_341:\n        /* \"#utility.yul\":14920:15282   */\n      pop\n        /* \"#utility.yul\":14872:15282   */\n      swap3\n      swap2\n      pop\n      pop\n      jump\t// out\n        /* \"#utility.yul\":15288:15454   */\n    tag_175:\n        /* \"#utility.yul\":15428:15446   */\n      0x76657374696e6720636f6d706c65746500000000000000000000000000000000\n        /* \"#utility.yul\":15424:15425   */\n      0x00\n        /* \"#utility.yul\":15416:15422   */\n      dup3\n        /* \"#utility.yul\":15412:15426   */\n      add\n        /* \"#utility.yul\":15405:15447   */\n      mstore\n        /* \"#utility.yul\":15288:15454   */\n      pop\n      jump\t// out\n        /* \"#utility.yul\":15460:15826   */\n    tag_176:\n        /* \"#utility.yul\":15602:15605   */\n      0x00\n        /* \"#utility.yul\":15623:15690   */\n      tag_345\n        /* \"#utility.yul\":15687:15689   */\n      0x10\n        /* \"#utility.yul\":15682:15685   */\n      dup4\n        /* \"#utility.yul\":15623:15690   */\n      tag_160\n      jump\t// in\n    tag_345:\n        /* \"#utility.yul\":15616:15690   */\n      swap2\n      pop\n        /* \"#utility.yul\":15699:15792   */\n      tag_346\n        /* \"#utility.yul\":15788:15791   */\n      dup3\n        /* \"#utility.yul\":15699:15792   */\n      tag_175\n      jump\t// in\n    tag_346:\n        /* \"#utility.yul\":15817:15819   */\n      0x20\n        /* \"#utility.yul\":15812:15815   */\n      dup3\n        /* \"#utility.yul\":15808:15820   */\n      add\n        /* \"#utility.yul\":15801:15820   */\n      swap1\n      pop\n        /* \"#utility.yul\":15460:15826   */\n      swap2\n      swap1\n      pop\n      jump\t// out\n        /* \"#utility.yul\":15832:16251   */\n    tag_109:\n        /* \"#utility.yul\":15998:16002   */\n      0x00\n        /* \"#utility.yul\":16036:16038   */\n      0x20\n        /* \"#utility.yul\":16025:16034   */\n      dup3\n        /* \"#utility.yul\":16021:16039   */\n      add\n        /* \"#utility.yul\":16013:16039   */\n      swap1\n      pop\n        /* \"#utility.yul\":16085:16094   */\n      dup2\n        /* \"#utility.yul\":16079:16083   */\n      dup2\n        /* \"#utility.yul\":16075:16095   */\n      sub\n        /* \"#utility.yul\":16071:16072   */\n      0x00\n        /* \"#utility.yul\":16060:16069   */\n      dup4\n        /* \"#utility.yul\":16056:16073   */\n      add\n        /* \"#utility.yul\":16049:16096   */\n      mstore\n        /* \"#utility.yul\":16113:16244   */\n      tag_348\n        /* \"#utility.yul\":16239:16243   */\n      dup2\n        /* \"#utility.yul\":16113:16244   */\n      tag_176\n      jump\t// in\n    tag_348:\n        /* \"#utility.yul\":16105:16244   */\n      swap1\n      pop\n        /* \"#utility.yul\":15832:16251   */\n      swap2\n      swap1\n      pop\n      jump\t// out\n        /* \"#utility.yul\":16257:16424   */\n    tag_177:\n        /* \"#utility.yul\":16397:16416   */\n      0x656e657465722076616c69642074696d65000000000000000000000000000000\n        /* \"#utility.yul\":16393:16394   */\n      0x00\n        /* \"#utility.yul\":16385:16391   */\n      dup3\n        /* \"#utility.yul\":16381:16395   */\n      add\n        /* \"#utility.yul\":16374:16417   */\n      mstore\n        /* \"#utility.yul\":16257:16424   */\n      pop\n      jump\t// out\n        /* \"#utility.yul\":16430:16796   */\n    tag_178:\n        /* \"#utility.yul\":16572:16575   */\n      0x00\n        /* \"#utility.yul\":16593:16660   */\n      tag_351\n        /* \"#utility.yul\":16657:16659   */\n      0x11\n        /* \"#utility.yul\":16652:16655   */\n      dup4\n        /* \"#utility.yul\":16593:16660   */\n      tag_160\n      jump\t// in\n    tag_351:\n        /* \"#utility.yul\":16586:16660   */\n      swap2\n      pop\n        /* \"#utility.yul\":16669:16762   */\n      tag_352\n        /* \"#utility.yul\":16758:16761   */\n      dup3\n        /* \"#utility.yul\":16669:16762   */\n      tag_177\n      jump\t// in\n    tag_352:\n        /* \"#utility.yul\":16787:16789   */\n      0x20\n        /* \"#utility.yul\":16782:16785   */\n      dup3\n        /* \"#utility.yul\":16778:16790   */\n      add\n        /* \"#utility.yul\":16771:16790   */\n      swap1\n      pop\n        /* \"#utility.yul\":16430:16796   */\n      swap2\n      swap1\n      pop\n      jump\t// out\n        /* \"#utility.yul\":16802:17221   */\n    tag_114:\n        /* \"#utility.yul\":16968:16972   */\n      0x00\n        /* \"#utility.yul\":17006:17008   */\n      0x20\n        /* \"#utility.yul\":16995:17004   */\n      dup3\n        /* \"#utility.yul\":16991:17009   */\n      add\n        /* \"#utility.yul\":16983:17009   */\n      swap1\n      pop\n        /* \"#utility.yul\":17055:17064   */\n      dup2\n        /* \"#utility.yul\":17049:17053   */\n      dup2\n        /* \"#utility.yul\":17045:17065   */\n      sub\n        /* \"#utility.yul\":17041:17042   */\n      0x00\n        /* \"#utility.yul\":17030:17039   */\n      dup4\n        /* \"#utility.yul\":17026:17043   */\n      add\n        /* \"#utility.yul\":17019:17066   */\n      mstore\n        /* \"#utility.yul\":17083:17214   */\n      tag_354\n        /* \"#utility.yul\":17209:17213   */\n      dup2\n        /* \"#utility.yul\":17083:17214   */\n      tag_178\n      jump\t// in\n    tag_354:\n        /* \"#utility.yul\":17075:17214   */\n      swap1\n      pop\n        /* \"#utility.yul\":16802:17221   */\n      swap2\n      swap1\n      pop\n      jump\t// out\n        /* \"#utility.yul\":17227:17455   */\n    tag_179:\n        /* \"#utility.yul\":17367:17401   */\n      0x596f7520617265206e6f7420616c6c6f77656420746f20757365207468697320\n        /* \"#utility.yul\":17363:17364   */\n      0x00\n        /* \"#utility.yul\":17355:17361   */\n      dup3\n        /* \"#utility.yul\":17351:17365   */\n      add\n        /* \"#utility.yul\":17344:17402   */\n      mstore\n        /* \"#utility.yul\":17436:17447   */\n      0x636f6e74726163742e0000000000000000000000000000000000000000000000\n        /* \"#utility.yul\":17431:17433   */\n      0x20\n        /* \"#utility.yul\":17423:17429   */\n      dup3\n        /* \"#utility.yul\":17419:17434   */\n      add\n        /* \"#utility.yul\":17412:17448   */\n      mstore\n        /* \"#utility.yul\":17227:17455   */\n      pop\n      jump\t// out\n        /* \"#utility.yul\":17461:17827   */\n    tag_180:\n        /* \"#utility.yul\":17603:17606   */\n      0x00\n        /* \"#utility.yul\":17624:17691   */\n      tag_357\n        /* \"#utility.yul\":17688:17690   */\n      0x29\n        /* \"#utility.yul\":17683:17686   */\n      dup4\n        /* \"#utility.yul\":17624:17691   */\n      tag_160\n      jump\t// in\n    tag_357:\n        /* \"#utility.yul\":17617:17691   */\n      swap2\n      pop\n        /* \"#utility.yul\":17700:17793   */\n      tag_358\n        /* \"#utility.yul\":17789:17792   */\n      dup3\n        /* \"#utility.yul\":17700:17793   */\n      tag_179\n      jump\t// in\n    tag_358:\n        /* \"#utility.yul\":17818:17820   */\n      0x40\n        /* \"#utility.yul\":17813:17816   */\n      dup3\n        /* \"#utility.yul\":17809:17821   */\n      add\n        /* \"#utility.yul\":17802:17821   */\n      swap1\n      pop\n        /* \"#utility.yul\":17461:17827   */\n      swap2\n      swap1\n      pop\n      jump\t// out\n        /* \"#utility.yul\":17833:18252   */\n    tag_117:\n        /* \"#utility.yul\":17999:18003   */\n      0x00\n        /* \"#utility.yul\":18037:18039   */\n      0x20\n        /* \"#utility.yul\":18026:18035   */\n      dup3\n        /* \"#utility.yul\":18022:18040   */\n      add\n        /* \"#utility.yul\":18014:18040   */\n      swap1\n      pop\n        /* \"#utility.yul\":18086:18095   */\n      dup2\n        /* \"#utility.yul\":18080:18084   */\n      dup2\n        /* \"#utility.yul\":18076:18096   */\n      sub\n        /* \"#utility.yul\":18072:18073   */\n      0x00\n        /* \"#utility.yul\":18061:18070   */\n      dup4\n        /* \"#utility.yul\":18057:18074   */\n      add\n        /* \"#utility.yul\":18050:18097   */\n      mstore\n        /* \"#utility.yul\":18114:18245   */\n      tag_360\n        /* \"#utility.yul\":18240:18244   */\n      dup2\n        /* \"#utility.yul\":18114:18245   */\n      tag_180\n      jump\t// in\n    tag_360:\n        /* \"#utility.yul\":18106:18245   */\n      swap1\n      pop\n        /* \"#utility.yul\":17833:18252   */\n      swap2\n      swap1\n      pop\n      jump\t// out\n        /* \"#utility.yul\":18258:18700   */\n    tag_124:\n        /* \"#utility.yul\":18407:18411   */\n      0x00\n        /* \"#utility.yul\":18445:18447   */\n      0x60\n        /* \"#utility.yul\":18434:18443   */\n      dup3\n        /* \"#utility.yul\":18430:18448   */\n      add\n        /* \"#utility.yul\":18422:18448   */\n      swap1\n      pop\n        /* \"#utility.yul\":18458:18529   */\n      tag_362\n        /* \"#utility.yul\":18526:18527   */\n      0x00\n        /* \"#utility.yul\":18515:18524   */\n      dup4\n        /* \"#utility.yul\":18511:18528   */\n      add\n        /* \"#utility.yul\":18502:18508   */\n      dup7\n        /* \"#utility.yul\":18458:18529   */\n      tag_154\n      jump\t// in\n    tag_362:\n        /* \"#utility.yul\":18539:18611   */\n      tag_363\n        /* \"#utility.yul\":18607:18609   */\n      0x20\n        /* \"#utility.yul\":18596:18605   */\n      dup4\n        /* \"#utility.yul\":18592:18610   */\n      add\n        /* \"#utility.yul\":18583:18589   */\n      dup6\n        /* \"#utility.yul\":18539:18611   */\n      tag_154\n      jump\t// in\n    tag_363:\n        /* \"#utility.yul\":18621:18693   */\n      tag_364\n        /* \"#utility.yul\":18689:18691   */\n      0x40\n        /* \"#utility.yul\":18678:18687   */\n      dup4\n        /* \"#utility.yul\":18674:18692   */\n      add\n        /* \"#utility.yul\":18665:18671   */\n      dup5\n        /* \"#utility.yul\":18621:18693   */\n      tag_143\n      jump\t// in\n    tag_364:\n        /* \"#utility.yul\":18258:18700   */\n      swap5\n      swap4\n      pop\n      pop\n      pop\n      pop\n      jump\t// out\n        /* \"#utility.yul\":18706:19354   */\n    tag_129:\n        /* \"#utility.yul\":18903:18907   */\n      0x00\n        /* \"#utility.yul\":18941:18944   */\n      0xa0\n        /* \"#utility.yul\":18930:18939   */\n      dup3\n        /* \"#utility.yul\":18926:18945   */\n      add\n        /* \"#utility.yul\":18918:18945   */\n      swap1\n      pop\n        /* \"#utility.yul\":18955:19026   */\n      tag_366\n        /* \"#utility.yul\":19023:19024   */\n      0x00\n        /* \"#utility.yul\":19012:19021   */\n      dup4\n        /* \"#utility.yul\":19008:19025   */\n      add\n        /* \"#utility.yul\":18999:19005   */\n      dup9\n        /* \"#utility.yul\":18955:19026   */\n      tag_143\n      jump\t// in\n    tag_366:\n        /* \"#utility.yul\":19036:19108   */\n      tag_367\n        /* \"#utility.yul\":19104:19106   */\n      0x20\n        /* \"#utility.yul\":19093:19102   */\n      dup4\n        /* \"#utility.yul\":19089:19107   */\n      add\n        /* \"#utility.yul\":19080:19086   */\n      dup8\n        /* \"#utility.yul\":19036:19108   */\n      tag_143\n      jump\t// in\n    tag_367:\n        /* \"#utility.yul\":19118:19186   */\n      tag_368\n        /* \"#utility.yul\":19182:19184   */\n      0x40\n        /* \"#utility.yul\":19171:19180   */\n      dup4\n        /* \"#utility.yul\":19167:19185   */\n      add\n        /* \"#utility.yul\":19158:19164   */\n      dup7\n        /* \"#utility.yul\":19118:19186   */\n      tag_153\n      jump\t// in\n    tag_368:\n        /* \"#utility.yul\":19196:19268   */\n      tag_369\n        /* \"#utility.yul\":19264:19266   */\n      0x60\n        /* \"#utility.yul\":19253:19262   */\n      dup4\n        /* \"#utility.yul\":19249:19267   */\n      add\n        /* \"#utility.yul\":19240:19246   */\n      dup6\n        /* \"#utility.yul\":19196:19268   */\n      tag_143\n      jump\t// in\n    tag_369:\n        /* \"#utility.yul\":19278:19347   */\n      tag_370\n        /* \"#utility.yul\":19342:19345   */\n      0x80\n        /* \"#utility.yul\":19331:19340   */\n      dup4\n        /* \"#utility.yul\":19327:19346   */\n      add\n        /* \"#utility.yul\":19318:19324   */\n      dup5\n        /* \"#utility.yul\":19278:19347   */\n      tag_153\n      jump\t// in\n    tag_370:\n        /* \"#utility.yul\":18706:19354   */\n      swap7\n      swap6\n      pop\n      pop\n      pop\n      pop\n      pop\n      pop\n      jump\t// out\n        /* \"#utility.yul\":19360:19593   */\n    tag_181:\n        /* \"#utility.yul\":19500:19534   */\n      0x4f6e6c792074686520636f6e7472616374206f776e65722063616e2063616c6c\n        /* \"#utility.yul\":19496:19497   */\n      0x00\n        /* \"#utility.yul\":19488:19494   */\n      dup3\n        /* \"#utility.yul\":19484:19498   */\n      add\n        /* \"#utility.yul\":19477:19535   */\n      mstore\n        /* \"#utility.yul\":19569:19585   */\n      0x20746869732066756e6374696f6e000000000000000000000000000000000000\n        /* \"#utility.yul\":19564:19566   */\n      0x20\n        /* \"#utility.yul\":19556:19562   */\n      dup3\n        /* \"#utility.yul\":19552:19567   */\n      add\n        /* \"#utility.yul\":19545:19586   */\n      mstore\n        /* \"#utility.yul\":19360:19593   */\n      pop\n      jump\t// out\n        /* \"#utility.yul\":19599:19965   */\n    tag_182:\n        /* \"#utility.yul\":19741:19744   */\n      0x00\n        /* \"#utility.yul\":19762:19829   */\n      tag_373\n        /* \"#utility.yul\":19826:19828   */\n      0x2e\n        /* \"#utility.yul\":19821:19824   */\n      dup4\n        /* \"#utility.yul\":19762:19829   */\n      tag_160\n      jump\t// in\n    tag_373:\n        /* \"#utility.yul\":19755:19829   */\n      swap2\n      pop\n        /* \"#utility.yul\":19838:19931   */\n      tag_374\n        /* \"#utility.yul\":19927:19930   */\n      dup3\n        /* \"#utility.yul\":19838:19931   */\n      tag_181\n      jump\t// in\n    tag_374:\n        /* \"#utility.yul\":19956:19958   */\n      0x40\n        /* \"#utility.yul\":19951:19954   */\n      dup3\n        /* \"#utility.yul\":19947:19959   */\n      add\n        /* \"#utility.yul\":19940:19959   */\n      swap1\n      pop\n        /* \"#utility.yul\":19599:19965   */\n      swap2\n      swap1\n      pop\n      jump\t// out\n        /* \"#utility.yul\":19971:20390   */\n    tag_135:\n        /* \"#utility.yul\":20137:20141   */\n      0x00\n        /* \"#utility.yul\":20175:20177   */\n      0x20\n        /* \"#utility.yul\":20164:20173   */\n      dup3\n        /* \"#utility.yul\":20160:20178   */\n      add\n        /* \"#utility.yul\":20152:20178   */\n      swap1\n      pop\n        /* \"#utility.yul\":20224:20233   */\n      dup2\n        /* \"#utility.yul\":20218:20222   */\n      dup2\n        /* \"#utility.yul\":20214:20234   */\n      sub\n        /* \"#utility.yul\":20210:20211   */\n      0x00\n        /* \"#utility.yul\":20199:20208   */\n      dup4\n        /* \"#utility.yul\":20195:20212   */\n      add\n        /* \"#utility.yul\":20188:20235   */\n      mstore\n        /* \"#utility.yul\":20252:20383   */\n      tag_376\n        /* \"#utility.yul\":20378:20382   */\n      dup2\n        /* \"#utility.yul\":20252:20383   */\n      tag_182\n      jump\t// in\n    tag_376:\n        /* \"#utility.yul\":20244:20383   */\n      swap1\n      pop\n        /* \"#utility.yul\":19971:20390   */\n      swap2\n      swap1\n      pop\n      jump\t// out\n\n    auxdata: 0xa2646970667358221220fc7d1d48795fac7605dbd3fedbcc624e58904466dde8ab95dedd9c60fc03a23864736f6c63430008120033\n}\n",
				"bytecode": {
					"linkReferences": {},
					"object": "60806040523480156200001157600080fd5b506040516200198238038062001982833981810160405281019062000037919062000129565b806000806101000a81548173ffffffffffffffffffffffffffffffffffffffff021916908373ffffffffffffffffffffffffffffffffffffffff16021790555033600160006101000a81548173ffffffffffffffffffffffffffffffffffffffff021916908373ffffffffffffffffffffffffffffffffffffffff160217905550506200015b565b600080fd5b600073ffffffffffffffffffffffffffffffffffffffff82169050919050565b6000620000f182620000c4565b9050919050565b6200010381620000e4565b81146200010f57600080fd5b50565b6000815190506200012381620000f8565b92915050565b600060208284031215620001425762000141620000bf565b5b6000620001528482850162000112565b91505092915050565b611817806200016b6000396000f3fe608060405234801561001057600080fd5b50600436106100935760003560e01c80639b19251a116100665780639b19251a14610132578063aa9d691d14610162578063bd84477d1461017e578063f80f5dd5146101b9578063fc0c546a146101d557610093565b80632e1a7d4d146100985780633d129567146100b4578063557ed1ba146100e45780635952ffd114610102575b600080fd5b6100b260048036038101906100ad9190610d2e565b6101f3565b005b6100ce60048036038101906100c99190610d2e565b6104df565b6040516100db9190610d6a565b60405180910390f35b6100ec610584565b6040516100f99190610d6a565b60405180910390f35b61011c60048036038101906101179190610d2e565b61058c565b6040516101299190610d6a565b60405180910390f35b61014c60048036038101906101479190610de3565b6106f1565b6040516101599190610e2b565b60405180910390f35b61017c60048036038101906101779190610e7f565b610711565b005b61019860048036038101906101939190610f0c565b610b13565b6040516101b09c9b9a99989796959493929190610f6a565b60405180910390f35b6101d360048036038101906101ce9190610de3565b610be4565b005b6101dd610ccf565b6040516101ea9190611083565b60405180910390f35b6000600260003373ffffffffffffffffffffffffffffffffffffffff1673ffffffffffffffffffffffffffffffffffffffff16815260200190815260200160002082815481106102465761024561109e565b5b906000526020600020906009020190508060030160009054906101000a900460ff166102a7576040517f08c379a000000000000000000000000000000000000000000000000000000000815260040161029e9061112a565b60405180910390fd5b80600101546102b4610584565b116102f4576040517f08c379a00000000000000000000000000000000000000000000000000000000081526004016102eb906111bc565b60405180910390fd5b60006102ff8361058c565b905060008111610344576040517f08c379a000000000000000000000000000000000000000000000000000000000815260040161033b9061124e565b60405180910390fd5b808260000154101561038b576040517f08c379a0000000000000000000000000000000000000000000000000000000008152600401610382906112ba565b60405180910390fd5b60008054906101000a900473ffffffffffffffffffffffffffffffffffffffff1673ffffffffffffffffffffffffffffffffffffffff1663a9059cbb33836040518363ffffffff1660e01b81526004016103e69291906112da565b6020604051808303816000875af1158015610405573d6000803e3d6000fd5b505050506040513d601f19601f82011682018060405250810190610429919061132f565b508082600801600082825461043e919061138b565b925050819055508082600001600082825461045991906113bf565b92505081905550600082600001540361048a5760008260030160006101000a81548160ff0219169083151502179055505b3373ffffffffffffffffffffffffffffffffffffffff167fccdb21e8b29fbf756f29d5f05c72606ca9e8160ec1a135ca6f50dae471188cec84836040516104d29291906113f3565b60405180910390a2505050565b600080600260003373ffffffffffffffffffffffffffffffffffffffff1673ffffffffffffffffffffffffffffffffffffffff16815260200190815260200160002083815481106105335761053261109e565b5b9060005260206000209060090201905060008160030160029054906101000a900460ff1660ff168260020154610569919061144b565b8260000154610578919061147c565b90508092505050919050565b600042905090565b600080600260003373ffffffffffffffffffffffffffffffffffffffff1673ffffffffffffffffffffffffffffffffffffffff16815260200190815260200160002083815481106105e0576105df61109e565b5b90600052602060002090600902019050600081600001541015610638576040517f08c379a000000000000000000000000000000000000000000000000000000000815260040161062f906114f9565b60405180910390fd5b60008160030160029054906101000a900460ff1660ff16826001015461065c610584565b61066691906113bf565b610670919061144b565b9050600082600801548360040154836106899190611519565b61069391906113bf565b905061069e856104df565b5082600001548111156106e6576040517f08c379a00000000000000000000000000000000000000000000000000000000081526004016106dd906115a7565b60405180910390fd5b809350505050919050565b60036020528060005260406000206000915054906101000a900460ff1681565b610719610584565b831161075a576040517f08c379a000000000000000000000000000000000000000000000000000000000815260040161075190611613565b60405180910390fd5b600360003373ffffffffffffffffffffffffffffffffffffffff1673ffffffffffffffffffffffffffffffffffffffff16815260200190815260200160002060009054906101000a900460ff166107e6576040517f08c379a00000000000000000000000000000000000000000000000000000000081526004016107dd906116a5565b60405180910390fd5b60006040518061018001604052808881526020018460ff1686610809919061138b565b81526020018781526020016001151581526020016000151581526020018660ff1681526020018460ff16815260200187898860ff166108489190611519565b610852919061144b565b81526020018460ff1686610866919061138b565b81526020018373ffffffffffffffffffffffffffffffffffffffff1681526020016000815260200160008152509050600260003373ffffffffffffffffffffffffffffffffffffffff1673ffffffffffffffffffffffffffffffffffffffff16815260200190815260200160002081908060018154018082558091505060019003906000526020600020906009020160009091909190915060008201518160000155602082015181600101556040820151816002015560608201518160030160006101000a81548160ff02191690831515021790555060808201518160030160016101000a81548160ff02191690831515021790555060a08201518160030160026101000a81548160ff021916908360ff16021790555060c08201518160030160036101000a81548160ff021916908360ff16021790555060e0820151816004015561010082015181600501556101208201518160060160006101000a81548173ffffffffffffffffffffffffffffffffffffffff021916908373ffffffffffffffffffffffffffffffffffffffff16021790555061014082015181600701556101608201518160080155505060008054906101000a900473ffffffffffffffffffffffffffffffffffffffff1673ffffffffffffffffffffffffffffffffffffffff166323b872dd33308a6040518463ffffffff1660e01b8152600401610a70939291906116c5565b6020604051808303816000875af1158015610a8f573d6000803e3d6000fd5b505050506040513d601f19601f82011682018060405250810190610ab3919061132f565b503373ffffffffffffffffffffffffffffffffffffffff167fb2e88791d817c746d5e5fe14d588911bb8e67f1fe02d38cf2ed5c01d9ac07a078888888888604051610b029594939291906116fc565b60405180910390a250505050505050565b60026020528160005260406000208181548110610b2f57600080fd5b9060005260206000209060090201600091509150508060000154908060010154908060020154908060030160009054906101000a900460ff16908060030160019054906101000a900460ff16908060030160029054906101000a900460ff16908060030160039054906101000a900460ff16908060040154908060050154908060060160009054906101000a900473ffffffffffffffffffffffffffffffffffffffff1690806007015490806008015490508c565b600160009054906101000a900473ffffffffffffffffffffffffffffffffffffffff1673ffffffffffffffffffffffffffffffffffffffff163373ffffffffffffffffffffffffffffffffffffffff1614610c74576040517f08c379a0000000000000000000000000000000000000000000000000000000008152600401610c6b906117c1565b60405180910390fd5b6001600360008373ffffffffffffffffffffffffffffffffffffffff1673ffffffffffffffffffffffffffffffffffffffff16815260200190815260200160002060006101000a81548160ff02191690831515021790555050565b60008054906101000a900473ffffffffffffffffffffffffffffffffffffffff1681565b600080fd5b6000819050919050565b610d0b81610cf8565b8114610d1657600080fd5b50565b600081359050610d2881610d02565b92915050565b600060208284031215610d4457610d43610cf3565b5b6000610d5284828501610d19565b91505092915050565b610d6481610cf8565b82525050565b6000602082019050610d7f6000830184610d5b565b92915050565b600073ffffffffffffffffffffffffffffffffffffffff82169050919050565b6000610db082610d85565b9050919050565b610dc081610da5565b8114610dcb57600080fd5b50565b600081359050610ddd81610db7565b92915050565b600060208284031215610df957610df8610cf3565b5b6000610e0784828501610dce565b91505092915050565b60008115159050919050565b610e2581610e10565b82525050565b6000602082019050610e406000830184610e1c565b92915050565b600060ff82169050919050565b610e5c81610e46565b8114610e6757600080fd5b50565b600081359050610e7981610e53565b92915050565b60008060008060008060c08789031215610e9c57610e9b610cf3565b5b6000610eaa89828a01610d19565b9650506020610ebb89828a01610d19565b9550506040610ecc89828a01610e6a565b9450506060610edd89828a01610d19565b9350506080610eee89828a01610e6a565b92505060a0610eff89828a01610dce565b9150509295509295509295565b60008060408385031215610f2357610f22610cf3565b5b6000610f3185828601610dce565b9250506020610f4285828601610d19565b9150509250929050565b610f5581610e46565b82525050565b610f6481610da5565b82525050565b600061018082019050610f80600083018f610d5b565b610f8d602083018e610d5b565b610f9a604083018d610d5b565b610fa7606083018c610e1c565b610fb4608083018b610e1c565b610fc160a083018a610f4c565b610fce60c0830189610f4c565b610fdb60e0830188610d5b565b610fe9610100830187610d5b565b610ff7610120830186610f5b565b611005610140830185610d5b565b611013610160830184610d5b565b9d9c50505050505050505050505050565b6000819050919050565b600061104961104461103f84610d85565b611024565b610d85565b9050919050565b600061105b8261102e565b9050919050565b600061106d82611050565b9050919050565b61107d81611062565b82525050565b60006020820190506110986000830184611074565b92915050565b7f4e487b7100000000000000000000000000000000000000000000000000000000600052603260045260246000fd5b600082825260208201905092915050565b7f46756e64732068617665206e6f74206265656e206c6f636b6564000000000000600082015250565b6000611114601a836110cd565b915061111f826110de565b602082019050919050565b6000602082019050818103600083015261114381611107565b9050919050565b7f546f6b656e20756e646572206c6f636b696e6720706c6561736520776169742e60008201527f2e00000000000000000000000000000000000000000000000000000000000000602082015250565b60006111a66021836110cd565b91506111b18261114a565b604082019050919050565b600060208201905081810360008301526111d581611199565b9050919050565b7f4e6f20746f6b656e7320617661696c61626c6520666f7220776974686472617760008201527f616c000000000000000000000000000000000000000000000000000000000000602082015250565b60006112386022836110cd565b9150611243826111dc565b604082019050919050565b600060208201905081810360008301526112678161122b565b9050919050565b7f4e6f7420656e6f75676820746f6b656e7320746f207769746864726177000000600082015250565b60006112a4601d836110cd565b91506112af8261126e565b602082019050919050565b600060208201905081810360008301526112d381611297565b9050919050565b60006040820190506112ef6000830185610f5b565b6112fc6020830184610d5b565b9392505050565b61130c81610e10565b811461131757600080fd5b50565b60008151905061132981611303565b92915050565b60006020828403121561134557611344610cf3565b5b60006113538482850161131a565b91505092915050565b7f4e487b7100000000000000000000000000000000000000000000000000000000600052601160045260246000fd5b600061139682610cf8565b91506113a183610cf8565b92508282019050808211156113b9576113b861135c565b5b92915050565b60006113ca82610cf8565b91506113d583610cf8565b92508282039050818111156113ed576113ec61135c565b5b92915050565b60006040820190506114086000830185610d5b565b6114156020830184610d5b565b9392505050565b7f4e487b7100000000000000000000000000000000000000000000000000000000600052601260045260246000fd5b600061145682610cf8565b915061146183610cf8565b9250826114715761147061141c565b5b828204905092915050565b600061148782610cf8565b915061149283610cf8565b9250826114a2576114a161141c565b5b828206905092915050565b7f76657374696e672074696d65206f766572000000000000000000000000000000600082015250565b60006114e36011836110cd565b91506114ee826114ad565b602082019050919050565b60006020820190508181036000830152611512816114d6565b9050919050565b600061152482610cf8565b915061152f83610cf8565b925082820261153d81610cf8565b915082820484148315176115545761155361135c565b5b5092915050565b7f76657374696e6720636f6d706c65746500000000000000000000000000000000600082015250565b60006115916010836110cd565b915061159c8261155b565b602082019050919050565b600060208201905081810360008301526115c081611584565b9050919050565b7f656e657465722076616c69642074696d65000000000000000000000000000000600082015250565b60006115fd6011836110cd565b9150611608826115c7565b602082019050919050565b6000602082019050818103600083015261162c816115f0565b9050919050565b7f596f7520617265206e6f7420616c6c6f77656420746f2075736520746869732060008201527f636f6e74726163742e0000000000000000000000000000000000000000000000602082015250565b600061168f6029836110cd565b915061169a82611633565b604082019050919050565b600060208201905081810360008301526116be81611682565b9050919050565b60006060820190506116da6000830186610f5b565b6116e76020830185610f5b565b6116f46040830184610d5b565b949350505050565b600060a0820190506117116000830188610d5b565b61171e6020830187610d5b565b61172b6040830186610f4c565b6117386060830185610d5b565b6117456080830184610f4c565b9695505050505050565b7f4f6e6c792074686520636f6e7472616374206f776e65722063616e2063616c6c60008201527f20746869732066756e6374696f6e000000000000000000000000000000000000602082015250565b60006117ab602e836110cd565b91506117b68261174f565b604082019050919050565b600060208201905081810360008301526117da8161179e565b905091905056fea2646970667358221220fc7d1d48795fac7605dbd3fedbcc624e58904466dde8ab95dedd9c60fc03a23864736f6c63430008120033",
					"opcodes": "PUSH1 0x80 PUSH1 0x40 MSTORE CALLVALUE DUP1 ISZERO PUSH3 0x11 JUMPI PUSH1 0x0 DUP1 REVERT JUMPDEST POP PUSH1 0x40 MLOAD PUSH3 0x1982 CODESIZE SUB DUP1 PUSH3 0x1982 DUP4 CODECOPY DUP2 DUP2 ADD PUSH1 0x40 MSTORE DUP2 ADD SWAP1 PUSH3 0x37 SWAP2 SWAP1 PUSH3 0x129 JUMP JUMPDEST DUP1 PUSH1 0x0 DUP1 PUSH2 0x100 EXP DUP2 SLOAD DUP2 PUSH20 0xFFFFFFFFFFFFFFFFFFFFFFFFFFFFFFFFFFFFFFFF MUL NOT AND SWAP1 DUP4 PUSH20 0xFFFFFFFFFFFFFFFFFFFFFFFFFFFFFFFFFFFFFFFF AND MUL OR SWAP1 SSTORE POP CALLER PUSH1 0x1 PUSH1 0x0 PUSH2 0x100 EXP DUP2 SLOAD DUP2 PUSH20 0xFFFFFFFFFFFFFFFFFFFFFFFFFFFFFFFFFFFFFFFF MUL NOT AND SWAP1 DUP4 PUSH20 0xFFFFFFFFFFFFFFFFFFFFFFFFFFFFFFFFFFFFFFFF AND MUL OR SWAP1 SSTORE POP POP PUSH3 0x15B JUMP JUMPDEST PUSH1 0x0 DUP1 REVERT JUMPDEST PUSH1 0x0 PUSH20 0xFFFFFFFFFFFFFFFFFFFFFFFFFFFFFFFFFFFFFFFF DUP3 AND SWAP1 POP SWAP2 SWAP1 POP JUMP JUMPDEST PUSH1 0x0 PUSH3 0xF1 DUP3 PUSH3 0xC4 JUMP JUMPDEST SWAP1 POP SWAP2 SWAP1 POP JUMP JUMPDEST PUSH3 0x103 DUP2 PUSH3 0xE4 JUMP JUMPDEST DUP2 EQ PUSH3 0x10F JUMPI PUSH1 0x0 DUP1 REVERT JUMPDEST POP JUMP JUMPDEST PUSH1 0x0 DUP2 MLOAD SWAP1 POP PUSH3 0x123 DUP2 PUSH3 0xF8 JUMP JUMPDEST SWAP3 SWAP2 POP POP JUMP JUMPDEST PUSH1 0x0 PUSH1 0x20 DUP3 DUP5 SUB SLT ISZERO PUSH3 0x142 JUMPI PUSH3 0x141 PUSH3 0xBF JUMP JUMPDEST JUMPDEST PUSH1 0x0 PUSH3 0x152 DUP5 DUP3 DUP6 ADD PUSH3 0x112 JUMP JUMPDEST SWAP2 POP POP SWAP3 SWAP2 POP POP JUMP JUMPDEST PUSH2 0x1817 DUP1 PUSH3 0x16B PUSH1 0x0 CODECOPY PUSH1 0x0 RETURN INVALID PUSH1 0x80 PUSH1 0x40 MSTORE CALLVALUE DUP1 ISZERO PUSH2 0x10 JUMPI PUSH1 0x0 DUP1 REVERT JUMPDEST POP PUSH1 0x4 CALLDATASIZE LT PUSH2 0x93 JUMPI PUSH1 0x0 CALLDATALOAD PUSH1 0xE0 SHR DUP1 PUSH4 0x9B19251A GT PUSH2 0x66 JUMPI DUP1 PUSH4 0x9B19251A EQ PUSH2 0x132 JUMPI DUP1 PUSH4 0xAA9D691D EQ PUSH2 0x162 JUMPI DUP1 PUSH4 0xBD84477D EQ PUSH2 0x17E JUMPI DUP1 PUSH4 0xF80F5DD5 EQ PUSH2 0x1B9 JUMPI DUP1 PUSH4 0xFC0C546A EQ PUSH2 0x1D5 JUMPI PUSH2 0x93 JUMP JUMPDEST DUP1 PUSH4 0x2E1A7D4D EQ PUSH2 0x98 JUMPI DUP1 PUSH4 0x3D129567 EQ PUSH2 0xB4 JUMPI DUP1 PUSH4 0x557ED1BA EQ PUSH2 0xE4 JUMPI DUP1 PUSH4 0x5952FFD1 EQ PUSH2 0x102 JUMPI JUMPDEST PUSH1 0x0 DUP1 REVERT JUMPDEST PUSH2 0xB2 PUSH1 0x4 DUP1 CALLDATASIZE SUB DUP2 ADD SWAP1 PUSH2 0xAD SWAP2 SWAP1 PUSH2 0xD2E JUMP JUMPDEST PUSH2 0x1F3 JUMP JUMPDEST STOP JUMPDEST PUSH2 0xCE PUSH1 0x4 DUP1 CALLDATASIZE SUB DUP2 ADD SWAP1 PUSH2 0xC9 SWAP2 SWAP1 PUSH2 0xD2E JUMP JUMPDEST PUSH2 0x4DF JUMP JUMPDEST PUSH1 0x40 MLOAD PUSH2 0xDB SWAP2 SWAP1 PUSH2 0xD6A JUMP JUMPDEST PUSH1 0x40 MLOAD DUP1 SWAP2 SUB SWAP1 RETURN JUMPDEST PUSH2 0xEC PUSH2 0x584 JUMP JUMPDEST PUSH1 0x40 MLOAD PUSH2 0xF9 SWAP2 SWAP1 PUSH2 0xD6A JUMP JUMPDEST PUSH1 0x40 MLOAD DUP1 SWAP2 SUB SWAP1 RETURN JUMPDEST PUSH2 0x11C PUSH1 0x4 DUP1 CALLDATASIZE SUB DUP2 ADD SWAP1 PUSH2 0x117 SWAP2 SWAP1 PUSH2 0xD2E JUMP JUMPDEST PUSH2 0x58C JUMP JUMPDEST PUSH1 0x40 MLOAD PUSH2 0x129 SWAP2 SWAP1 PUSH2 0xD6A JUMP JUMPDEST PUSH1 0x40 MLOAD DUP1 SWAP2 SUB SWAP1 RETURN JUMPDEST PUSH2 0x14C PUSH1 0x4 DUP1 CALLDATASIZE SUB DUP2 ADD SWAP1 PUSH2 0x147 SWAP2 SWAP1 PUSH2 0xDE3 JUMP JUMPDEST PUSH2 0x6F1 JUMP JUMPDEST PUSH1 0x40 MLOAD PUSH2 0x159 SWAP2 SWAP1 PUSH2 0xE2B JUMP JUMPDEST PUSH1 0x40 MLOAD DUP1 SWAP2 SUB SWAP1 RETURN JUMPDEST PUSH2 0x17C PUSH1 0x4 DUP1 CALLDATASIZE SUB DUP2 ADD SWAP1 PUSH2 0x177 SWAP2 SWAP1 PUSH2 0xE7F JUMP JUMPDEST PUSH2 0x711 JUMP JUMPDEST STOP JUMPDEST PUSH2 0x198 PUSH1 0x4 DUP1 CALLDATASIZE SUB DUP2 ADD SWAP1 PUSH2 0x193 SWAP2 SWAP1 PUSH2 0xF0C JUMP JUMPDEST PUSH2 0xB13 JUMP JUMPDEST PUSH1 0x40 MLOAD PUSH2 0x1B0 SWAP13 SWAP12 SWAP11 SWAP10 SWAP9 SWAP8 SWAP7 SWAP6 SWAP5 SWAP4 SWAP3 SWAP2 SWAP1 PUSH2 0xF6A JUMP JUMPDEST PUSH1 0x40 MLOAD DUP1 SWAP2 SUB SWAP1 RETURN JUMPDEST PUSH2 0x1D3 PUSH1 0x4 DUP1 CALLDATASIZE SUB DUP2 ADD SWAP1 PUSH2 0x1CE SWAP2 SWAP1 PUSH2 0xDE3 JUMP JUMPDEST PUSH2 0xBE4 JUMP JUMPDEST STOP JUMPDEST PUSH2 0x1DD PUSH2 0xCCF JUMP JUMPDEST PUSH1 0x40 MLOAD PUSH2 0x1EA SWAP2 SWAP1 PUSH2 0x1083 JUMP JUMPDEST PUSH1 0x40 MLOAD DUP1 SWAP2 SUB SWAP1 RETURN JUMPDEST PUSH1 0x0 PUSH1 0x2 PUSH1 0x0 CALLER PUSH20 0xFFFFFFFFFFFFFFFFFFFFFFFFFFFFFFFFFFFFFFFF AND PUSH20 0xFFFFFFFFFFFFFFFFFFFFFFFFFFFFFFFFFFFFFFFF AND DUP2 MSTORE PUSH1 0x20 ADD SWAP1 DUP2 MSTORE PUSH1 0x20 ADD PUSH1 0x0 KECCAK256 DUP3 DUP2 SLOAD DUP2 LT PUSH2 0x246 JUMPI PUSH2 0x245 PUSH2 0x109E JUMP JUMPDEST JUMPDEST SWAP1 PUSH1 0x0 MSTORE PUSH1 0x20 PUSH1 0x0 KECCAK256 SWAP1 PUSH1 0x9 MUL ADD SWAP1 POP DUP1 PUSH1 0x3 ADD PUSH1 0x0 SWAP1 SLOAD SWAP1 PUSH2 0x100 EXP SWAP1 DIV PUSH1 0xFF AND PUSH2 0x2A7 JUMPI PUSH1 0x40 MLOAD PUSH32 0x8C379A000000000000000000000000000000000000000000000000000000000 DUP2 MSTORE PUSH1 0x4 ADD PUSH2 0x29E SWAP1 PUSH2 0x112A JUMP JUMPDEST PUSH1 0x40 MLOAD DUP1 SWAP2 SUB SWAP1 REVERT JUMPDEST DUP1 PUSH1 0x1 ADD SLOAD PUSH2 0x2B4 PUSH2 0x584 JUMP JUMPDEST GT PUSH2 0x2F4 JUMPI PUSH1 0x40 MLOAD PUSH32 0x8C379A000000000000000000000000000000000000000000000000000000000 DUP2 MSTORE PUSH1 0x4 ADD PUSH2 0x2EB SWAP1 PUSH2 0x11BC JUMP JUMPDEST PUSH1 0x40 MLOAD DUP1 SWAP2 SUB SWAP1 REVERT JUMPDEST PUSH1 0x0 PUSH2 0x2FF DUP4 PUSH2 0x58C JUMP JUMPDEST SWAP1 POP PUSH1 0x0 DUP2 GT PUSH2 0x344 JUMPI PUSH1 0x40 MLOAD PUSH32 0x8C379A000000000000000000000000000000000000000000000000000000000 DUP2 MSTORE PUSH1 0x4 ADD PUSH2 0x33B SWAP1 PUSH2 0x124E JUMP JUMPDEST PUSH1 0x40 MLOAD DUP1 SWAP2 SUB SWAP1 REVERT JUMPDEST DUP1 DUP3 PUSH1 0x0 ADD SLOAD LT ISZERO PUSH2 0x38B JUMPI PUSH1 0x40 MLOAD PUSH32 0x8C379A000000000000000000000000000000000000000000000000000000000 DUP2 MSTORE PUSH1 0x4 ADD PUSH2 0x382 SWAP1 PUSH2 0x12BA JUMP JUMPDEST PUSH1 0x40 MLOAD DUP1 SWAP2 SUB SWAP1 REVERT JUMPDEST PUSH1 0x0 DUP1 SLOAD SWAP1 PUSH2 0x100 EXP SWAP1 DIV PUSH20 0xFFFFFFFFFFFFFFFFFFFFFFFFFFFFFFFFFFFFFFFF AND PUSH20 0xFFFFFFFFFFFFFFFFFFFFFFFFFFFFFFFFFFFFFFFF AND PUSH4 0xA9059CBB CALLER DUP4 PUSH1 0x40 MLOAD DUP4 PUSH4 0xFFFFFFFF AND PUSH1 0xE0 SHL DUP2 MSTORE PUSH1 0x4 ADD PUSH2 0x3E6 SWAP3 SWAP2 SWAP1 PUSH2 0x12DA JUMP JUMPDEST PUSH1 0x20 PUSH1 0x40 MLOAD DUP1 DUP4 SUB DUP2 PUSH1 0x0 DUP8 GAS CALL ISZERO DUP1 ISZERO PUSH2 0x405 JUMPI RETURNDATASIZE PUSH1 0x0 DUP1 RETURNDATACOPY RETURNDATASIZE PUSH1 0x0 REVERT JUMPDEST POP POP POP POP PUSH1 0x40 MLOAD RETURNDATASIZE PUSH1 0x1F NOT PUSH1 0x1F DUP3 ADD AND DUP3 ADD DUP1 PUSH1 0x40 MSTORE POP DUP2 ADD SWAP1 PUSH2 0x429 SWAP2 SWAP1 PUSH2 0x132F JUMP JUMPDEST POP DUP1 DUP3 PUSH1 0x8 ADD PUSH1 0x0 DUP3 DUP3 SLOAD PUSH2 0x43E SWAP2 SWAP1 PUSH2 0x138B JUMP JUMPDEST SWAP3 POP POP DUP2 SWAP1 SSTORE POP DUP1 DUP3 PUSH1 0x0 ADD PUSH1 0x0 DUP3 DUP3 SLOAD PUSH2 0x459 SWAP2 SWAP1 PUSH2 0x13BF JUMP JUMPDEST SWAP3 POP POP DUP2 SWAP1 SSTORE POP PUSH1 0x0 DUP3 PUSH1 0x0 ADD SLOAD SUB PUSH2 0x48A JUMPI PUSH1 0x0 DUP3 PUSH1 0x3 ADD PUSH1 0x0 PUSH2 0x100 EXP DUP2 SLOAD DUP2 PUSH1 0xFF MUL NOT AND SWAP1 DUP4 ISZERO ISZERO MUL OR SWAP1 SSTORE POP JUMPDEST CALLER PUSH20 0xFFFFFFFFFFFFFFFFFFFFFFFFFFFFFFFFFFFFFFFF AND PUSH32 0xCCDB21E8B29FBF756F29D5F05C72606CA9E8160EC1A135CA6F50DAE471188CEC DUP5 DUP4 PUSH1 0x40 MLOAD PUSH2 0x4D2 SWAP3 SWAP2 SWAP1 PUSH2 0x13F3 JUMP JUMPDEST PUSH1 0x40 MLOAD DUP1 SWAP2 SUB SWAP1 LOG2 POP POP POP JUMP JUMPDEST PUSH1 0x0 DUP1 PUSH1 0x2 PUSH1 0x0 CALLER PUSH20 0xFFFFFFFFFFFFFFFFFFFFFFFFFFFFFFFFFFFFFFFF AND PUSH20 0xFFFFFFFFFFFFFFFFFFFFFFFFFFFFFFFFFFFFFFFF AND DUP2 MSTORE PUSH1 0x20 ADD SWAP1 DUP2 MSTORE PUSH1 0x20 ADD PUSH1 0x0 KECCAK256 DUP4 DUP2 SLOAD DUP2 LT PUSH2 0x533 JUMPI PUSH2 0x532 PUSH2 0x109E JUMP JUMPDEST JUMPDEST SWAP1 PUSH1 0x0 MSTORE PUSH1 0x20 PUSH1 0x0 KECCAK256 SWAP1 PUSH1 0x9 MUL ADD SWAP1 POP PUSH1 0x0 DUP2 PUSH1 0x3 ADD PUSH1 0x2 SWAP1 SLOAD SWAP1 PUSH2 0x100 EXP SWAP1 DIV PUSH1 0xFF AND PUSH1 0xFF AND DUP3 PUSH1 0x2 ADD SLOAD PUSH2 0x569 SWAP2 SWAP1 PUSH2 0x144B JUMP JUMPDEST DUP3 PUSH1 0x0 ADD SLOAD PUSH2 0x578 SWAP2 SWAP1 PUSH2 0x147C JUMP JUMPDEST SWAP1 POP DUP1 SWAP3 POP POP POP SWAP2 SWAP1 POP JUMP JUMPDEST PUSH1 0x0 TIMESTAMP SWAP1 POP SWAP1 JUMP JUMPDEST PUSH1 0x0 DUP1 PUSH1 0x2 PUSH1 0x0 CALLER PUSH20 0xFFFFFFFFFFFFFFFFFFFFFFFFFFFFFFFFFFFFFFFF AND PUSH20 0xFFFFFFFFFFFFFFFFFFFFFFFFFFFFFFFFFFFFFFFF AND DUP2 MSTORE PUSH1 0x20 ADD SWAP1 DUP2 MSTORE PUSH1 0x20 ADD PUSH1 0x0 KECCAK256 DUP4 DUP2 SLOAD DUP2 LT PUSH2 0x5E0 JUMPI PUSH2 0x5DF PUSH2 0x109E JUMP JUMPDEST JUMPDEST SWAP1 PUSH1 0x0 MSTORE PUSH1 0x20 PUSH1 0x0 KECCAK256 SWAP1 PUSH1 0x9 MUL ADD SWAP1 POP PUSH1 0x0 DUP2 PUSH1 0x0 ADD SLOAD LT ISZERO PUSH2 0x638 JUMPI PUSH1 0x40 MLOAD PUSH32 0x8C379A000000000000000000000000000000000000000000000000000000000 DUP2 MSTORE PUSH1 0x4 ADD PUSH2 0x62F SWAP1 PUSH2 0x14F9 JUMP JUMPDEST PUSH1 0x40 MLOAD DUP1 SWAP2 SUB SWAP1 REVERT JUMPDEST PUSH1 0x0 DUP2 PUSH1 0x3 ADD PUSH1 0x2 SWAP1 SLOAD SWAP1 PUSH2 0x100 EXP SWAP1 DIV PUSH1 0xFF AND PUSH1 0xFF AND DUP3 PUSH1 0x1 ADD SLOAD PUSH2 0x65C PUSH2 0x584 JUMP JUMPDEST PUSH2 0x666 SWAP2 SWAP1 PUSH2 0x13BF JUMP JUMPDEST PUSH2 0x670 SWAP2 SWAP1 PUSH2 0x144B JUMP JUMPDEST SWAP1 POP PUSH1 0x0 DUP3 PUSH1 0x8 ADD SLOAD DUP4 PUSH1 0x4 ADD SLOAD DUP4 PUSH2 0x689 SWAP2 SWAP1 PUSH2 0x1519 JUMP JUMPDEST PUSH2 0x693 SWAP2 SWAP1 PUSH2 0x13BF JUMP JUMPDEST SWAP1 POP PUSH2 0x69E DUP6 PUSH2 0x4DF JUMP JUMPDEST POP DUP3 PUSH1 0x0 ADD SLOAD DUP2 GT ISZERO PUSH2 0x6E6 JUMPI PUSH1 0x40 MLOAD PUSH32 0x8C379A000000000000000000000000000000000000000000000000000000000 DUP2 MSTORE PUSH1 0x4 ADD PUSH2 0x6DD SWAP1 PUSH2 0x15A7 JUMP JUMPDEST PUSH1 0x40 MLOAD DUP1 SWAP2 SUB SWAP1 REVERT JUMPDEST DUP1 SWAP4 POP POP POP POP SWAP2 SWAP1 POP JUMP JUMPDEST PUSH1 0x3 PUSH1 0x20 MSTORE DUP1 PUSH1 0x0 MSTORE PUSH1 0x40 PUSH1 0x0 KECCAK256 PUSH1 0x0 SWAP2 POP SLOAD SWAP1 PUSH2 0x100 EXP SWAP1 DIV PUSH1 0xFF AND DUP2 JUMP JUMPDEST PUSH2 0x719 PUSH2 0x584 JUMP JUMPDEST DUP4 GT PUSH2 0x75A JUMPI PUSH1 0x40 MLOAD PUSH32 0x8C379A000000000000000000000000000000000000000000000000000000000 DUP2 MSTORE PUSH1 0x4 ADD PUSH2 0x751 SWAP1 PUSH2 0x1613 JUMP JUMPDEST PUSH1 0x40 MLOAD DUP1 SWAP2 SUB SWAP1 REVERT JUMPDEST PUSH1 0x3 PUSH1 0x0 CALLER PUSH20 0xFFFFFFFFFFFFFFFFFFFFFFFFFFFFFFFFFFFFFFFF AND PUSH20 0xFFFFFFFFFFFFFFFFFFFFFFFFFFFFFFFFFFFFFFFF AND DUP2 MSTORE PUSH1 0x20 ADD SWAP1 DUP2 MSTORE PUSH1 0x20 ADD PUSH1 0x0 KECCAK256 PUSH1 0x0 SWAP1 SLOAD SWAP1 PUSH2 0x100 EXP SWAP1 DIV PUSH1 0xFF AND PUSH2 0x7E6 JUMPI PUSH1 0x40 MLOAD PUSH32 0x8C379A000000000000000000000000000000000000000000000000000000000 DUP2 MSTORE PUSH1 0x4 ADD PUSH2 0x7DD SWAP1 PUSH2 0x16A5 JUMP JUMPDEST PUSH1 0x40 MLOAD DUP1 SWAP2 SUB SWAP1 REVERT JUMPDEST PUSH1 0x0 PUSH1 0x40 MLOAD DUP1 PUSH2 0x180 ADD PUSH1 0x40 MSTORE DUP1 DUP9 DUP2 MSTORE PUSH1 0x20 ADD DUP5 PUSH1 0xFF AND DUP7 PUSH2 0x809 SWAP2 SWAP1 PUSH2 0x138B JUMP JUMPDEST DUP2 MSTORE PUSH1 0x20 ADD DUP8 DUP2 MSTORE PUSH1 0x20 ADD PUSH1 0x1 ISZERO ISZERO DUP2 MSTORE PUSH1 0x20 ADD PUSH1 0x0 ISZERO ISZERO DUP2 MSTORE PUSH1 0x20 ADD DUP7 PUSH1 0xFF AND DUP2 MSTORE PUSH1 0x20 ADD DUP5 PUSH1 0xFF AND DUP2 MSTORE PUSH1 0x20 ADD DUP8 DUP10 DUP9 PUSH1 0xFF AND PUSH2 0x848 SWAP2 SWAP1 PUSH2 0x1519 JUMP JUMPDEST PUSH2 0x852 SWAP2 SWAP1 PUSH2 0x144B JUMP JUMPDEST DUP2 MSTORE PUSH1 0x20 ADD DUP5 PUSH1 0xFF AND DUP7 PUSH2 0x866 SWAP2 SWAP1 PUSH2 0x138B JUMP JUMPDEST DUP2 MSTORE PUSH1 0x20 ADD DUP4 PUSH20 0xFFFFFFFFFFFFFFFFFFFFFFFFFFFFFFFFFFFFFFFF AND DUP2 MSTORE PUSH1 0x20 ADD PUSH1 0x0 DUP2 MSTORE PUSH1 0x20 ADD PUSH1 0x0 DUP2 MSTORE POP SWAP1 POP PUSH1 0x2 PUSH1 0x0 CALLER PUSH20 0xFFFFFFFFFFFFFFFFFFFFFFFFFFFFFFFFFFFFFFFF AND PUSH20 0xFFFFFFFFFFFFFFFFFFFFFFFFFFFFFFFFFFFFFFFF AND DUP2 MSTORE PUSH1 0x20 ADD SWAP1 DUP2 MSTORE PUSH1 0x20 ADD PUSH1 0x0 KECCAK256 DUP2 SWAP1 DUP1 PUSH1 0x1 DUP2 SLOAD ADD DUP1 DUP3 SSTORE DUP1 SWAP2 POP POP PUSH1 0x1 SWAP1 SUB SWAP1 PUSH1 0x0 MSTORE PUSH1 0x20 PUSH1 0x0 KECCAK256 SWAP1 PUSH1 0x9 MUL ADD PUSH1 0x0 SWAP1 SWAP2 SWAP1 SWAP2 SWAP1 SWAP2 POP PUSH1 0x0 DUP3 ADD MLOAD DUP2 PUSH1 0x0 ADD SSTORE PUSH1 0x20 DUP3 ADD MLOAD DUP2 PUSH1 0x1 ADD SSTORE PUSH1 0x40 DUP3 ADD MLOAD DUP2 PUSH1 0x2 ADD SSTORE PUSH1 0x60 DUP3 ADD MLOAD DUP2 PUSH1 0x3 ADD PUSH1 0x0 PUSH2 0x100 EXP DUP2 SLOAD DUP2 PUSH1 0xFF MUL NOT AND SWAP1 DUP4 ISZERO ISZERO MUL OR SWAP1 SSTORE POP PUSH1 0x80 DUP3 ADD MLOAD DUP2 PUSH1 0x3 ADD PUSH1 0x1 PUSH2 0x100 EXP DUP2 SLOAD DUP2 PUSH1 0xFF MUL NOT AND SWAP1 DUP4 ISZERO ISZERO MUL OR SWAP1 SSTORE POP PUSH1 0xA0 DUP3 ADD MLOAD DUP2 PUSH1 0x3 ADD PUSH1 0x2 PUSH2 0x100 EXP DUP2 SLOAD DUP2 PUSH1 0xFF MUL NOT AND SWAP1 DUP4 PUSH1 0xFF AND MUL OR SWAP1 SSTORE POP PUSH1 0xC0 DUP3 ADD MLOAD DUP2 PUSH1 0x3 ADD PUSH1 0x3 PUSH2 0x100 EXP DUP2 SLOAD DUP2 PUSH1 0xFF MUL NOT AND SWAP1 DUP4 PUSH1 0xFF AND MUL OR SWAP1 SSTORE POP PUSH1 0xE0 DUP3 ADD MLOAD DUP2 PUSH1 0x4 ADD SSTORE PUSH2 0x100 DUP3 ADD MLOAD DUP2 PUSH1 0x5 ADD SSTORE PUSH2 0x120 DUP3 ADD MLOAD DUP2 PUSH1 0x6 ADD PUSH1 0x0 PUSH2 0x100 EXP DUP2 SLOAD DUP2 PUSH20 0xFFFFFFFFFFFFFFFFFFFFFFFFFFFFFFFFFFFFFFFF MUL NOT AND SWAP1 DUP4 PUSH20 0xFFFFFFFFFFFFFFFFFFFFFFFFFFFFFFFFFFFFFFFF AND MUL OR SWAP1 SSTORE POP PUSH2 0x140 DUP3 ADD MLOAD DUP2 PUSH1 0x7 ADD SSTORE PUSH2 0x160 DUP3 ADD MLOAD DUP2 PUSH1 0x8 ADD SSTORE POP POP PUSH1 0x0 DUP1 SLOAD SWAP1 PUSH2 0x100 EXP SWAP1 DIV PUSH20 0xFFFFFFFFFFFFFFFFFFFFFFFFFFFFFFFFFFFFFFFF AND PUSH20 0xFFFFFFFFFFFFFFFFFFFFFFFFFFFFFFFFFFFFFFFF AND PUSH4 0x23B872DD CALLER ADDRESS DUP11 PUSH1 0x40 MLOAD DUP5 PUSH4 0xFFFFFFFF AND PUSH1 0xE0 SHL DUP2 MSTORE PUSH1 0x4 ADD PUSH2 0xA70 SWAP4 SWAP3 SWAP2 SWAP1 PUSH2 0x16C5 JUMP JUMPDEST PUSH1 0x20 PUSH1 0x40 MLOAD DUP1 DUP4 SUB DUP2 PUSH1 0x0 DUP8 GAS CALL ISZERO DUP1 ISZERO PUSH2 0xA8F JUMPI RETURNDATASIZE PUSH1 0x0 DUP1 RETURNDATACOPY RETURNDATASIZE PUSH1 0x0 REVERT JUMPDEST POP POP POP POP PUSH1 0x40 MLOAD RETURNDATASIZE PUSH1 0x1F NOT PUSH1 0x1F DUP3 ADD AND DUP3 ADD DUP1 PUSH1 0x40 MSTORE POP DUP2 ADD SWAP1 PUSH2 0xAB3 SWAP2 SWAP1 PUSH2 0x132F JUMP JUMPDEST POP CALLER PUSH20 0xFFFFFFFFFFFFFFFFFFFFFFFFFFFFFFFFFFFFFFFF AND PUSH32 0xB2E88791D817C746D5E5FE14D588911BB8E67F1FE02D38CF2ED5C01D9AC07A07 DUP9 DUP9 DUP9 DUP9 DUP9 PUSH1 0x40 MLOAD PUSH2 0xB02 SWAP6 SWAP5 SWAP4 SWAP3 SWAP2 SWAP1 PUSH2 0x16FC JUMP JUMPDEST PUSH1 0x40 MLOAD DUP1 SWAP2 SUB SWAP1 LOG2 POP POP POP POP POP POP POP JUMP JUMPDEST PUSH1 0x2 PUSH1 0x20 MSTORE DUP2 PUSH1 0x0 MSTORE PUSH1 0x40 PUSH1 0x0 KECCAK256 DUP2 DUP2 SLOAD DUP2 LT PUSH2 0xB2F JUMPI PUSH1 0x0 DUP1 REVERT JUMPDEST SWAP1 PUSH1 0x0 MSTORE PUSH1 0x20 PUSH1 0x0 KECCAK256 SWAP1 PUSH1 0x9 MUL ADD PUSH1 0x0 SWAP2 POP SWAP2 POP POP DUP1 PUSH1 0x0 ADD SLOAD SWAP1 DUP1 PUSH1 0x1 ADD SLOAD SWAP1 DUP1 PUSH1 0x2 ADD SLOAD SWAP1 DUP1 PUSH1 0x3 ADD PUSH1 0x0 SWAP1 SLOAD SWAP1 PUSH2 0x100 EXP SWAP1 DIV PUSH1 0xFF AND SWAP1 DUP1 PUSH1 0x3 ADD PUSH1 0x1 SWAP1 SLOAD SWAP1 PUSH2 0x100 EXP SWAP1 DIV PUSH1 0xFF AND SWAP1 DUP1 PUSH1 0x3 ADD PUSH1 0x2 SWAP1 SLOAD SWAP1 PUSH2 0x100 EXP SWAP1 DIV PUSH1 0xFF AND SWAP1 DUP1 PUSH1 0x3 ADD PUSH1 0x3 SWAP1 SLOAD SWAP1 PUSH2 0x100 EXP SWAP1 DIV PUSH1 0xFF AND SWAP1 DUP1 PUSH1 0x4 ADD SLOAD SWAP1 DUP1 PUSH1 0x5 ADD SLOAD SWAP1 DUP1 PUSH1 0x6 ADD PUSH1 0x0 SWAP1 SLOAD SWAP1 PUSH2 0x100 EXP SWAP1 DIV PUSH20 0xFFFFFFFFFFFFFFFFFFFFFFFFFFFFFFFFFFFFFFFF AND SWAP1 DUP1 PUSH1 0x7 ADD SLOAD SWAP1 DUP1 PUSH1 0x8 ADD SLOAD SWAP1 POP DUP13 JUMP JUMPDEST PUSH1 0x1 PUSH1 0x0 SWAP1 SLOAD SWAP1 PUSH2 0x100 EXP SWAP1 DIV PUSH20 0xFFFFFFFFFFFFFFFFFFFFFFFFFFFFFFFFFFFFFFFF AND PUSH20 0xFFFFFFFFFFFFFFFFFFFFFFFFFFFFFFFFFFFFFFFF AND CALLER PUSH20 0xFFFFFFFFFFFFFFFFFFFFFFFFFFFFFFFFFFFFFFFF AND EQ PUSH2 0xC74 JUMPI PUSH1 0x40 MLOAD PUSH32 0x8C379A000000000000000000000000000000000000000000000000000000000 DUP2 MSTORE PUSH1 0x4 ADD PUSH2 0xC6B SWAP1 PUSH2 0x17C1 JUMP JUMPDEST PUSH1 0x40 MLOAD DUP1 SWAP2 SUB SWAP1 REVERT JUMPDEST PUSH1 0x1 PUSH1 0x3 PUSH1 0x0 DUP4 PUSH20 0xFFFFFFFFFFFFFFFFFFFFFFFFFFFFFFFFFFFFFFFF AND PUSH20 0xFFFFFFFFFFFFFFFFFFFFFFFFFFFFFFFFFFFFFFFF AND DUP2 MSTORE PUSH1 0x20 ADD SWAP1 DUP2 MSTORE PUSH1 0x20 ADD PUSH1 0x0 KECCAK256 PUSH1 0x0 PUSH2 0x100 EXP DUP2 SLOAD DUP2 PUSH1 0xFF MUL NOT AND SWAP1 DUP4 ISZERO ISZERO MUL OR SWAP1 SSTORE POP POP JUMP JUMPDEST PUSH1 0x0 DUP1 SLOAD SWAP1 PUSH2 0x100 EXP SWAP1 DIV PUSH20 0xFFFFFFFFFFFFFFFFFFFFFFFFFFFFFFFFFFFFFFFF AND DUP2 JUMP JUMPDEST PUSH1 0x0 DUP1 REVERT JUMPDEST PUSH1 0x0 DUP2 SWAP1 POP SWAP2 SWAP1 POP JUMP JUMPDEST PUSH2 0xD0B DUP2 PUSH2 0xCF8 JUMP JUMPDEST DUP2 EQ PUSH2 0xD16 JUMPI PUSH1 0x0 DUP1 REVERT JUMPDEST POP JUMP JUMPDEST PUSH1 0x0 DUP2 CALLDATALOAD SWAP1 POP PUSH2 0xD28 DUP2 PUSH2 0xD02 JUMP JUMPDEST SWAP3 SWAP2 POP POP JUMP JUMPDEST PUSH1 0x0 PUSH1 0x20 DUP3 DUP5 SUB SLT ISZERO PUSH2 0xD44 JUMPI PUSH2 0xD43 PUSH2 0xCF3 JUMP JUMPDEST JUMPDEST PUSH1 0x0 PUSH2 0xD52 DUP5 DUP3 DUP6 ADD PUSH2 0xD19 JUMP JUMPDEST SWAP2 POP POP SWAP3 SWAP2 POP POP JUMP JUMPDEST PUSH2 0xD64 DUP2 PUSH2 0xCF8 JUMP JUMPDEST DUP3 MSTORE POP POP JUMP JUMPDEST PUSH1 0x0 PUSH1 0x20 DUP3 ADD SWAP1 POP PUSH2 0xD7F PUSH1 0x0 DUP4 ADD DUP5 PUSH2 0xD5B JUMP JUMPDEST SWAP3 SWAP2 POP POP JUMP JUMPDEST PUSH1 0x0 PUSH20 0xFFFFFFFFFFFFFFFFFFFFFFFFFFFFFFFFFFFFFFFF DUP3 AND SWAP1 POP SWAP2 SWAP1 POP JUMP JUMPDEST PUSH1 0x0 PUSH2 0xDB0 DUP3 PUSH2 0xD85 JUMP JUMPDEST SWAP1 POP SWAP2 SWAP1 POP JUMP JUMPDEST PUSH2 0xDC0 DUP2 PUSH2 0xDA5 JUMP JUMPDEST DUP2 EQ PUSH2 0xDCB JUMPI PUSH1 0x0 DUP1 REVERT JUMPDEST POP JUMP JUMPDEST PUSH1 0x0 DUP2 CALLDATALOAD SWAP1 POP PUSH2 0xDDD DUP2 PUSH2 0xDB7 JUMP JUMPDEST SWAP3 SWAP2 POP POP JUMP JUMPDEST PUSH1 0x0 PUSH1 0x20 DUP3 DUP5 SUB SLT ISZERO PUSH2 0xDF9 JUMPI PUSH2 0xDF8 PUSH2 0xCF3 JUMP JUMPDEST JUMPDEST PUSH1 0x0 PUSH2 0xE07 DUP5 DUP3 DUP6 ADD PUSH2 0xDCE JUMP JUMPDEST SWAP2 POP POP SWAP3 SWAP2 POP POP JUMP JUMPDEST PUSH1 0x0 DUP2 ISZERO ISZERO SWAP1 POP SWAP2 SWAP1 POP JUMP JUMPDEST PUSH2 0xE25 DUP2 PUSH2 0xE10 JUMP JUMPDEST DUP3 MSTORE POP POP JUMP JUMPDEST PUSH1 0x0 PUSH1 0x20 DUP3 ADD SWAP1 POP PUSH2 0xE40 PUSH1 0x0 DUP4 ADD DUP5 PUSH2 0xE1C JUMP JUMPDEST SWAP3 SWAP2 POP POP JUMP JUMPDEST PUSH1 0x0 PUSH1 0xFF DUP3 AND SWAP1 POP SWAP2 SWAP1 POP JUMP JUMPDEST PUSH2 0xE5C DUP2 PUSH2 0xE46 JUMP JUMPDEST DUP2 EQ PUSH2 0xE67 JUMPI PUSH1 0x0 DUP1 REVERT JUMPDEST POP JUMP JUMPDEST PUSH1 0x0 DUP2 CALLDATALOAD SWAP1 POP PUSH2 0xE79 DUP2 PUSH2 0xE53 JUMP JUMPDEST SWAP3 SWAP2 POP POP JUMP JUMPDEST PUSH1 0x0 DUP1 PUSH1 0x0 DUP1 PUSH1 0x0 DUP1 PUSH1 0xC0 DUP8 DUP10 SUB SLT ISZERO PUSH2 0xE9C JUMPI PUSH2 0xE9B PUSH2 0xCF3 JUMP JUMPDEST JUMPDEST PUSH1 0x0 PUSH2 0xEAA DUP10 DUP3 DUP11 ADD PUSH2 0xD19 JUMP JUMPDEST SWAP7 POP POP PUSH1 0x20 PUSH2 0xEBB DUP10 DUP3 DUP11 ADD PUSH2 0xD19 JUMP JUMPDEST SWAP6 POP POP PUSH1 0x40 PUSH2 0xECC DUP10 DUP3 DUP11 ADD PUSH2 0xE6A JUMP JUMPDEST SWAP5 POP POP PUSH1 0x60 PUSH2 0xEDD DUP10 DUP3 DUP11 ADD PUSH2 0xD19 JUMP JUMPDEST SWAP4 POP POP PUSH1 0x80 PUSH2 0xEEE DUP10 DUP3 DUP11 ADD PUSH2 0xE6A JUMP JUMPDEST SWAP3 POP POP PUSH1 0xA0 PUSH2 0xEFF DUP10 DUP3 DUP11 ADD PUSH2 0xDCE JUMP JUMPDEST SWAP2 POP POP SWAP3 SWAP6 POP SWAP3 SWAP6 POP SWAP3 SWAP6 JUMP JUMPDEST PUSH1 0x0 DUP1 PUSH1 0x40 DUP4 DUP6 SUB SLT ISZERO PUSH2 0xF23 JUMPI PUSH2 0xF22 PUSH2 0xCF3 JUMP JUMPDEST JUMPDEST PUSH1 0x0 PUSH2 0xF31 DUP6 DUP3 DUP7 ADD PUSH2 0xDCE JUMP JUMPDEST SWAP3 POP POP PUSH1 0x20 PUSH2 0xF42 DUP6 DUP3 DUP7 ADD PUSH2 0xD19 JUMP JUMPDEST SWAP2 POP POP SWAP3 POP SWAP3 SWAP1 POP JUMP JUMPDEST PUSH2 0xF55 DUP2 PUSH2 0xE46 JUMP JUMPDEST DUP3 MSTORE POP POP JUMP JUMPDEST PUSH2 0xF64 DUP2 PUSH2 0xDA5 JUMP JUMPDEST DUP3 MSTORE POP POP JUMP JUMPDEST PUSH1 0x0 PUSH2 0x180 DUP3 ADD SWAP1 POP PUSH2 0xF80 PUSH1 0x0 DUP4 ADD DUP16 PUSH2 0xD5B JUMP JUMPDEST PUSH2 0xF8D PUSH1 0x20 DUP4 ADD DUP15 PUSH2 0xD5B JUMP JUMPDEST PUSH2 0xF9A PUSH1 0x40 DUP4 ADD DUP14 PUSH2 0xD5B JUMP JUMPDEST PUSH2 0xFA7 PUSH1 0x60 DUP4 ADD DUP13 PUSH2 0xE1C JUMP JUMPDEST PUSH2 0xFB4 PUSH1 0x80 DUP4 ADD DUP12 PUSH2 0xE1C JUMP JUMPDEST PUSH2 0xFC1 PUSH1 0xA0 DUP4 ADD DUP11 PUSH2 0xF4C JUMP JUMPDEST PUSH2 0xFCE PUSH1 0xC0 DUP4 ADD DUP10 PUSH2 0xF4C JUMP JUMPDEST PUSH2 0xFDB PUSH1 0xE0 DUP4 ADD DUP9 PUSH2 0xD5B JUMP JUMPDEST PUSH2 0xFE9 PUSH2 0x100 DUP4 ADD DUP8 PUSH2 0xD5B JUMP JUMPDEST PUSH2 0xFF7 PUSH2 0x120 DUP4 ADD DUP7 PUSH2 0xF5B JUMP JUMPDEST PUSH2 0x1005 PUSH2 0x140 DUP4 ADD DUP6 PUSH2 0xD5B JUMP JUMPDEST PUSH2 0x1013 PUSH2 0x160 DUP4 ADD DUP5 PUSH2 0xD5B JUMP JUMPDEST SWAP14 SWAP13 POP POP POP POP POP POP POP POP POP POP POP POP POP JUMP JUMPDEST PUSH1 0x0 DUP2 SWAP1 POP SWAP2 SWAP1 POP JUMP JUMPDEST PUSH1 0x0 PUSH2 0x1049 PUSH2 0x1044 PUSH2 0x103F DUP5 PUSH2 0xD85 JUMP JUMPDEST PUSH2 0x1024 JUMP JUMPDEST PUSH2 0xD85 JUMP JUMPDEST SWAP1 POP SWAP2 SWAP1 POP JUMP JUMPDEST PUSH1 0x0 PUSH2 0x105B DUP3 PUSH2 0x102E JUMP JUMPDEST SWAP1 POP SWAP2 SWAP1 POP JUMP JUMPDEST PUSH1 0x0 PUSH2 0x106D DUP3 PUSH2 0x1050 JUMP JUMPDEST SWAP1 POP SWAP2 SWAP1 POP JUMP JUMPDEST PUSH2 0x107D DUP2 PUSH2 0x1062 JUMP JUMPDEST DUP3 MSTORE POP POP JUMP JUMPDEST PUSH1 0x0 PUSH1 0x20 DUP3 ADD SWAP1 POP PUSH2 0x1098 PUSH1 0x0 DUP4 ADD DUP5 PUSH2 0x1074 JUMP JUMPDEST SWAP3 SWAP2 POP POP JUMP JUMPDEST PUSH32 0x4E487B7100000000000000000000000000000000000000000000000000000000 PUSH1 0x0 MSTORE PUSH1 0x32 PUSH1 0x4 MSTORE PUSH1 0x24 PUSH1 0x0 REVERT JUMPDEST PUSH1 0x0 DUP3 DUP3 MSTORE PUSH1 0x20 DUP3 ADD SWAP1 POP SWAP3 SWAP2 POP POP JUMP JUMPDEST PUSH32 0x46756E64732068617665206E6F74206265656E206C6F636B6564000000000000 PUSH1 0x0 DUP3 ADD MSTORE POP JUMP JUMPDEST PUSH1 0x0 PUSH2 0x1114 PUSH1 0x1A DUP4 PUSH2 0x10CD JUMP JUMPDEST SWAP2 POP PUSH2 0x111F DUP3 PUSH2 0x10DE JUMP JUMPDEST PUSH1 0x20 DUP3 ADD SWAP1 POP SWAP2 SWAP1 POP JUMP JUMPDEST PUSH1 0x0 PUSH1 0x20 DUP3 ADD SWAP1 POP DUP2 DUP2 SUB PUSH1 0x0 DUP4 ADD MSTORE PUSH2 0x1143 DUP2 PUSH2 0x1107 JUMP JUMPDEST SWAP1 POP SWAP2 SWAP1 POP JUMP JUMPDEST PUSH32 0x546F6B656E20756E646572206C6F636B696E6720706C6561736520776169742E PUSH1 0x0 DUP3 ADD MSTORE PUSH32 0x2E00000000000000000000000000000000000000000000000000000000000000 PUSH1 0x20 DUP3 ADD MSTORE POP JUMP JUMPDEST PUSH1 0x0 PUSH2 0x11A6 PUSH1 0x21 DUP4 PUSH2 0x10CD JUMP JUMPDEST SWAP2 POP PUSH2 0x11B1 DUP3 PUSH2 0x114A JUMP JUMPDEST PUSH1 0x40 DUP3 ADD SWAP1 POP SWAP2 SWAP1 POP JUMP JUMPDEST PUSH1 0x0 PUSH1 0x20 DUP3 ADD SWAP1 POP DUP2 DUP2 SUB PUSH1 0x0 DUP4 ADD MSTORE PUSH2 0x11D5 DUP2 PUSH2 0x1199 JUMP JUMPDEST SWAP1 POP SWAP2 SWAP1 POP JUMP JUMPDEST PUSH32 0x4E6F20746F6B656E7320617661696C61626C6520666F72207769746864726177 PUSH1 0x0 DUP3 ADD MSTORE PUSH32 0x616C000000000000000000000000000000000000000000000000000000000000 PUSH1 0x20 DUP3 ADD MSTORE POP JUMP JUMPDEST PUSH1 0x0 PUSH2 0x1238 PUSH1 0x22 DUP4 PUSH2 0x10CD JUMP JUMPDEST SWAP2 POP PUSH2 0x1243 DUP3 PUSH2 0x11DC JUMP JUMPDEST PUSH1 0x40 DUP3 ADD SWAP1 POP SWAP2 SWAP1 POP JUMP JUMPDEST PUSH1 0x0 PUSH1 0x20 DUP3 ADD SWAP1 POP DUP2 DUP2 SUB PUSH1 0x0 DUP4 ADD MSTORE PUSH2 0x1267 DUP2 PUSH2 0x122B JUMP JUMPDEST SWAP1 POP SWAP2 SWAP1 POP JUMP JUMPDEST PUSH32 0x4E6F7420656E6F75676820746F6B656E7320746F207769746864726177000000 PUSH1 0x0 DUP3 ADD MSTORE POP JUMP JUMPDEST PUSH1 0x0 PUSH2 0x12A4 PUSH1 0x1D DUP4 PUSH2 0x10CD JUMP JUMPDEST SWAP2 POP PUSH2 0x12AF DUP3 PUSH2 0x126E JUMP JUMPDEST PUSH1 0x20 DUP3 ADD SWAP1 POP SWAP2 SWAP1 POP JUMP JUMPDEST PUSH1 0x0 PUSH1 0x20 DUP3 ADD SWAP1 POP DUP2 DUP2 SUB PUSH1 0x0 DUP4 ADD MSTORE PUSH2 0x12D3 DUP2 PUSH2 0x1297 JUMP JUMPDEST SWAP1 POP SWAP2 SWAP1 POP JUMP JUMPDEST PUSH1 0x0 PUSH1 0x40 DUP3 ADD SWAP1 POP PUSH2 0x12EF PUSH1 0x0 DUP4 ADD DUP6 PUSH2 0xF5B JUMP JUMPDEST PUSH2 0x12FC PUSH1 0x20 DUP4 ADD DUP5 PUSH2 0xD5B JUMP JUMPDEST SWAP4 SWAP3 POP POP POP JUMP JUMPDEST PUSH2 0x130C DUP2 PUSH2 0xE10 JUMP JUMPDEST DUP2 EQ PUSH2 0x1317 JUMPI PUSH1 0x0 DUP1 REVERT JUMPDEST POP JUMP JUMPDEST PUSH1 0x0 DUP2 MLOAD SWAP1 POP PUSH2 0x1329 DUP2 PUSH2 0x1303 JUMP JUMPDEST SWAP3 SWAP2 POP POP JUMP JUMPDEST PUSH1 0x0 PUSH1 0x20 DUP3 DUP5 SUB SLT ISZERO PUSH2 0x1345 JUMPI PUSH2 0x1344 PUSH2 0xCF3 JUMP JUMPDEST JUMPDEST PUSH1 0x0 PUSH2 0x1353 DUP5 DUP3 DUP6 ADD PUSH2 0x131A JUMP JUMPDEST SWAP2 POP POP SWAP3 SWAP2 POP POP JUMP JUMPDEST PUSH32 0x4E487B7100000000000000000000000000000000000000000000000000000000 PUSH1 0x0 MSTORE PUSH1 0x11 PUSH1 0x4 MSTORE PUSH1 0x24 PUSH1 0x0 REVERT JUMPDEST PUSH1 0x0 PUSH2 0x1396 DUP3 PUSH2 0xCF8 JUMP JUMPDEST SWAP2 POP PUSH2 0x13A1 DUP4 PUSH2 0xCF8 JUMP JUMPDEST SWAP3 POP DUP3 DUP3 ADD SWAP1 POP DUP1 DUP3 GT ISZERO PUSH2 0x13B9 JUMPI PUSH2 0x13B8 PUSH2 0x135C JUMP JUMPDEST JUMPDEST SWAP3 SWAP2 POP POP JUMP JUMPDEST PUSH1 0x0 PUSH2 0x13CA DUP3 PUSH2 0xCF8 JUMP JUMPDEST SWAP2 POP PUSH2 0x13D5 DUP4 PUSH2 0xCF8 JUMP JUMPDEST SWAP3 POP DUP3 DUP3 SUB SWAP1 POP DUP2 DUP2 GT ISZERO PUSH2 0x13ED JUMPI PUSH2 0x13EC PUSH2 0x135C JUMP JUMPDEST JUMPDEST SWAP3 SWAP2 POP POP JUMP JUMPDEST PUSH1 0x0 PUSH1 0x40 DUP3 ADD SWAP1 POP PUSH2 0x1408 PUSH1 0x0 DUP4 ADD DUP6 PUSH2 0xD5B JUMP JUMPDEST PUSH2 0x1415 PUSH1 0x20 DUP4 ADD DUP5 PUSH2 0xD5B JUMP JUMPDEST SWAP4 SWAP3 POP POP POP JUMP JUMPDEST PUSH32 0x4E487B7100000000000000000000000000000000000000000000000000000000 PUSH1 0x0 MSTORE PUSH1 0x12 PUSH1 0x4 MSTORE PUSH1 0x24 PUSH1 0x0 REVERT JUMPDEST PUSH1 0x0 PUSH2 0x1456 DUP3 PUSH2 0xCF8 JUMP JUMPDEST SWAP2 POP PUSH2 0x1461 DUP4 PUSH2 0xCF8 JUMP JUMPDEST SWAP3 POP DUP3 PUSH2 0x1471 JUMPI PUSH2 0x1470 PUSH2 0x141C JUMP JUMPDEST JUMPDEST DUP3 DUP3 DIV SWAP1 POP SWAP3 SWAP2 POP POP JUMP JUMPDEST PUSH1 0x0 PUSH2 0x1487 DUP3 PUSH2 0xCF8 JUMP JUMPDEST SWAP2 POP PUSH2 0x1492 DUP4 PUSH2 0xCF8 JUMP JUMPDEST SWAP3 POP DUP3 PUSH2 0x14A2 JUMPI PUSH2 0x14A1 PUSH2 0x141C JUMP JUMPDEST JUMPDEST DUP3 DUP3 MOD SWAP1 POP SWAP3 SWAP2 POP POP JUMP JUMPDEST PUSH32 0x76657374696E672074696D65206F766572000000000000000000000000000000 PUSH1 0x0 DUP3 ADD MSTORE POP JUMP JUMPDEST PUSH1 0x0 PUSH2 0x14E3 PUSH1 0x11 DUP4 PUSH2 0x10CD JUMP JUMPDEST SWAP2 POP PUSH2 0x14EE DUP3 PUSH2 0x14AD JUMP JUMPDEST PUSH1 0x20 DUP3 ADD SWAP1 POP SWAP2 SWAP1 POP JUMP JUMPDEST PUSH1 0x0 PUSH1 0x20 DUP3 ADD SWAP1 POP DUP2 DUP2 SUB PUSH1 0x0 DUP4 ADD MSTORE PUSH2 0x1512 DUP2 PUSH2 0x14D6 JUMP JUMPDEST SWAP1 POP SWAP2 SWAP1 POP JUMP JUMPDEST PUSH1 0x0 PUSH2 0x1524 DUP3 PUSH2 0xCF8 JUMP JUMPDEST SWAP2 POP PUSH2 0x152F DUP4 PUSH2 0xCF8 JUMP JUMPDEST SWAP3 POP DUP3 DUP3 MUL PUSH2 0x153D DUP2 PUSH2 0xCF8 JUMP JUMPDEST SWAP2 POP DUP3 DUP3 DIV DUP5 EQ DUP4 ISZERO OR PUSH2 0x1554 JUMPI PUSH2 0x1553 PUSH2 0x135C JUMP JUMPDEST JUMPDEST POP SWAP3 SWAP2 POP POP JUMP JUMPDEST PUSH32 0x76657374696E6720636F6D706C65746500000000000000000000000000000000 PUSH1 0x0 DUP3 ADD MSTORE POP JUMP JUMPDEST PUSH1 0x0 PUSH2 0x1591 PUSH1 0x10 DUP4 PUSH2 0x10CD JUMP JUMPDEST SWAP2 POP PUSH2 0x159C DUP3 PUSH2 0x155B JUMP JUMPDEST PUSH1 0x20 DUP3 ADD SWAP1 POP SWAP2 SWAP1 POP JUMP JUMPDEST PUSH1 0x0 PUSH1 0x20 DUP3 ADD SWAP1 POP DUP2 DUP2 SUB PUSH1 0x0 DUP4 ADD MSTORE PUSH2 0x15C0 DUP2 PUSH2 0x1584 JUMP JUMPDEST SWAP1 POP SWAP2 SWAP1 POP JUMP JUMPDEST PUSH32 0x656E657465722076616C69642074696D65000000000000000000000000000000 PUSH1 0x0 DUP3 ADD MSTORE POP JUMP JUMPDEST PUSH1 0x0 PUSH2 0x15FD PUSH1 0x11 DUP4 PUSH2 0x10CD JUMP JUMPDEST SWAP2 POP PUSH2 0x1608 DUP3 PUSH2 0x15C7 JUMP JUMPDEST PUSH1 0x20 DUP3 ADD SWAP1 POP SWAP2 SWAP1 POP JUMP JUMPDEST PUSH1 0x0 PUSH1 0x20 DUP3 ADD SWAP1 POP DUP2 DUP2 SUB PUSH1 0x0 DUP4 ADD MSTORE PUSH2 0x162C DUP2 PUSH2 0x15F0 JUMP JUMPDEST SWAP1 POP SWAP2 SWAP1 POP JUMP JUMPDEST PUSH32 0x596F7520617265206E6F7420616C6C6F77656420746F20757365207468697320 PUSH1 0x0 DUP3 ADD MSTORE PUSH32 0x636F6E74726163742E0000000000000000000000000000000000000000000000 PUSH1 0x20 DUP3 ADD MSTORE POP JUMP JUMPDEST PUSH1 0x0 PUSH2 0x168F PUSH1 0x29 DUP4 PUSH2 0x10CD JUMP JUMPDEST SWAP2 POP PUSH2 0x169A DUP3 PUSH2 0x1633 JUMP JUMPDEST PUSH1 0x40 DUP3 ADD SWAP1 POP SWAP2 SWAP1 POP JUMP JUMPDEST PUSH1 0x0 PUSH1 0x20 DUP3 ADD SWAP1 POP DUP2 DUP2 SUB PUSH1 0x0 DUP4 ADD MSTORE PUSH2 0x16BE DUP2 PUSH2 0x1682 JUMP JUMPDEST SWAP1 POP SWAP2 SWAP1 POP JUMP JUMPDEST PUSH1 0x0 PUSH1 0x60 DUP3 ADD SWAP1 POP PUSH2 0x16DA PUSH1 0x0 DUP4 ADD DUP7 PUSH2 0xF5B JUMP JUMPDEST PUSH2 0x16E7 PUSH1 0x20 DUP4 ADD DUP6 PUSH2 0xF5B JUMP JUMPDEST PUSH2 0x16F4 PUSH1 0x40 DUP4 ADD DUP5 PUSH2 0xD5B JUMP JUMPDEST SWAP5 SWAP4 POP POP POP POP JUMP JUMPDEST PUSH1 0x0 PUSH1 0xA0 DUP3 ADD SWAP1 POP PUSH2 0x1711 PUSH1 0x0 DUP4 ADD DUP9 PUSH2 0xD5B JUMP JUMPDEST PUSH2 0x171E PUSH1 0x20 DUP4 ADD DUP8 PUSH2 0xD5B JUMP JUMPDEST PUSH2 0x172B PUSH1 0x40 DUP4 ADD DUP7 PUSH2 0xF4C JUMP JUMPDEST PUSH2 0x1738 PUSH1 0x60 DUP4 ADD DUP6 PUSH2 0xD5B JUMP JUMPDEST PUSH2 0x1745 PUSH1 0x80 DUP4 ADD DUP5 PUSH2 0xF4C JUMP JUMPDEST SWAP7 SWAP6 POP POP POP POP POP POP JUMP JUMPDEST PUSH32 0x4F6E6C792074686520636F6E7472616374206F776E65722063616E2063616C6C PUSH1 0x0 DUP3 ADD MSTORE PUSH32 0x20746869732066756E6374696F6E000000000000000000000000000000000000 PUSH1 0x20 DUP3 ADD MSTORE POP JUMP JUMPDEST PUSH1 0x0 PUSH2 0x17AB PUSH1 0x2E DUP4 PUSH2 0x10CD JUMP JUMPDEST SWAP2 POP PUSH2 0x17B6 DUP3 PUSH2 0x174F JUMP JUMPDEST PUSH1 0x40 DUP3 ADD SWAP1 POP SWAP2 SWAP1 POP JUMP JUMPDEST PUSH1 0x0 PUSH1 0x20 DUP3 ADD SWAP1 POP DUP2 DUP2 SUB PUSH1 0x0 DUP4 ADD MSTORE PUSH2 0x17DA DUP2 PUSH2 0x179E JUMP JUMPDEST SWAP1 POP SWAP2 SWAP1 POP JUMP INVALID LOG2 PUSH5 0x6970667358 0x22 SLT KECCAK256 0xFC PUSH30 0x1D48795FAC7605DBD3FEDBCC624E58904466DDE8AB95DEDD9C60FC03A238 PUSH5 0x736F6C6343 STOP ADDMOD SLT STOP CALLER "
				},
				"gasEstimates": {
					"creation": {
						"codeDepositCost": "1233400",
						"executionCost": "infinite",
						"totalCost": "infinite"
					},
					"external": {
						"addWhitelist(address)": "27048",
						"calculate_available_withdraw_token(uint256)": "infinite",
						"calculate_remaining_token(uint256)": "infinite",
						"getTime()": "381",
						"lock(uint256,uint256,uint8,uint256,uint8,address)": "infinite",
						"token()": "infinite",
						"vestings(address,uint256)": "infinite",
						"whitelist(address)": "2845",
						"withdraw(uint256)": "infinite"
					}
				},
				"methodIdentifiers": {
					"addWhitelist(address)": "f80f5dd5",
					"calculate_available_withdraw_token(uint256)": "5952ffd1",
					"calculate_remaining_token(uint256)": "3d129567",
					"getTime()": "557ed1ba",
					"lock(uint256,uint256,uint8,uint256,uint8,address)": "aa9d691d",
					"token()": "fc0c546a",
					"vestings(address,uint256)": "bd84477d",
					"whitelist(address)": "9b19251a",
					"withdraw(uint256)": "2e1a7d4d"
				}
			},
			"storageLayout": {
				"storage": [
					{
						"astId": 717,
						"contract": "Vesting Contract/v4.sol:Vesting",
						"label": "token",
						"offset": 0,
						"slot": "0",
						"type": "t_contract(ERC20)586"
					},
					{
						"astId": 719,
						"contract": "Vesting Contract/v4.sol:Vesting",
						"label": "owner",
						"offset": 0,
						"slot": "1",
						"type": "t_address"
					},
					{
						"astId": 767,
						"contract": "Vesting Contract/v4.sol:Vesting",
						"label": "vestings",
						"offset": 0,
						"slot": "2",
						"type": "t_mapping(t_address,t_array(t_struct(VestingSchedule)761_storage)dyn_storage)"
					},
					{
						"astId": 771,
						"contract": "Vesting Contract/v4.sol:Vesting",
						"label": "whitelist",
						"offset": 0,
						"slot": "3",
						"type": "t_mapping(t_address,t_bool)"
					}
				],
				"types": {
					"t_address": {
						"encoding": "inplace",
						"label": "address",
						"numberOfBytes": "20"
					},
					"t_array(t_struct(VestingSchedule)761_storage)dyn_storage": {
						"base": "t_struct(VestingSchedule)761_storage",
						"encoding": "dynamic_array",
						"label": "struct Vesting.VestingSchedule[]",
						"numberOfBytes": "32"
					},
					"t_bool": {
						"encoding": "inplace",
						"label": "bool",
						"numberOfBytes": "1"
					},
					"t_contract(ERC20)586": {
						"encoding": "inplace",
						"label": "contract ERC20",
						"numberOfBytes": "20"
					},
					"t_mapping(t_address,t_array(t_struct(VestingSchedule)761_storage)dyn_storage)": {
						"encoding": "mapping",
						"key": "t_address",
						"label": "mapping(address => struct Vesting.VestingSchedule[])",
						"numberOfBytes": "32",
						"value": "t_array(t_struct(VestingSchedule)761_storage)dyn_storage"
					},
					"t_mapping(t_address,t_bool)": {
						"encoding": "mapping",
						"key": "t_address",
						"label": "mapping(address => bool)",
						"numberOfBytes": "32",
						"value": "t_bool"
					},
					"t_struct(VestingSchedule)761_storage": {
						"encoding": "inplace",
						"label": "struct Vesting.VestingSchedule",
						"members": [
							{
								"astId": 738,
								"contract": "Vesting Contract/v4.sol:Vesting",
								"label": "amount",
								"offset": 0,
								"slot": "0",
								"type": "t_uint256"
							},
							{
								"astId": 740,
								"contract": "Vesting Contract/v4.sol:Vesting",
								"label": "start",
								"offset": 0,
								"slot": "1",
								"type": "t_uint256"
							},
							{
								"astId": 742,
								"contract": "Vesting Contract/v4.sol:Vesting",
								"label": "duration",
								"offset": 0,
								"slot": "2",
								"type": "t_uint256"
							},
							{
								"astId": 744,
								"contract": "Vesting Contract/v4.sol:Vesting",
								"label": "locked",
								"offset": 0,
								"slot": "3",
								"type": "t_bool"
							},
							{
								"astId": 746,
								"contract": "Vesting Contract/v4.sol:Vesting",
								"label": "claimed",
								"offset": 1,
								"slot": "3",
								"type": "t_bool"
							},
							{
								"astId": 748,
								"contract": "Vesting Contract/v4.sol:Vesting",
								"label": "slice_period",
								"offset": 2,
								"slot": "3",
								"type": "t_uint8"
							},
							{
								"astId": 750,
								"contract": "Vesting Contract/v4.sol:Vesting",
								"label": "cliff",
								"offset": 3,
								"slot": "3",
								"type": "t_uint8"
							},
							{
								"astId": 752,
								"contract": "Vesting Contract/v4.sol:Vesting",
								"label": "recive_on_interval",
								"offset": 0,
								"slot": "4",
								"type": "t_uint256"
							},
							{
								"astId": 754,
								"contract": "Vesting Contract/v4.sol:Vesting",
								"label": "last_timestamp",
								"offset": 0,
								"slot": "5",
								"type": "t_uint256"
							},
							{
								"astId": 756,
								"contract": "Vesting Contract/v4.sol:Vesting",
								"label": "beneficiaries",
								"offset": 0,
								"slot": "6",
								"type": "t_address"
							},
							{
								"astId": 758,
								"contract": "Vesting Contract/v4.sol:Vesting",
								"label": "total_withdrawable",
								"offset": 0,
								"slot": "7",
								"type": "t_uint256"
							},
							{
								"astId": 760,
								"contract": "Vesting Contract/v4.sol:Vesting",
								"label": "temp",
								"offset": 0,
								"slot": "8",
								"type": "t_uint256"
							}
						],
						"numberOfBytes": "288"
					},
					"t_uint256": {
						"encoding": "inplace",
						"label": "uint256",
						"numberOfBytes": "32"
					},
					"t_uint8": {
						"encoding": "inplace",
						"label": "uint8",
						"numberOfBytes": "1"
					}
				}
			},
			"userdoc": {
				"kind": "user",
				"methods": {},
				"version": 1
			}
		}
	}
}