{
	"Vesting Contract/version2.sol": {
		"VestingContract": {
			"abi": [
				{
					"inputs": [],
					"stateMutability": "nonpayable",
					"type": "constructor"
				},
				{
					"anonymous": false,
					"inputs": [
						{
							"indexed": false,
							"internalType": "address",
							"name": "beneficiary",
							"type": "address"
						},
						{
							"indexed": false,
							"internalType": "uint256",
							"name": "amount",
							"type": "uint256"
						},
						{
							"indexed": false,
							"internalType": "uint256",
							"name": "duration",
							"type": "uint256"
						},
						{
							"indexed": false,
							"internalType": "uint256",
							"name": "slice_period",
							"type": "uint256"
						},
						{
							"indexed": false,
							"internalType": "uint256",
							"name": "start",
							"type": "uint256"
						},
						{
							"indexed": false,
							"internalType": "uint256",
							"name": "cliff",
							"type": "uint256"
						},
						{
							"indexed": false,
							"internalType": "address",
							"name": "Token",
							"type": "address"
						}
					],
					"name": "VestingLocked",
					"type": "event"
				},
				{
					"anonymous": false,
					"inputs": [
						{
							"indexed": false,
							"internalType": "address",
							"name": "beneficiary",
							"type": "address"
						},
						{
							"indexed": false,
							"internalType": "uint256",
							"name": "index",
							"type": "uint256"
						},
						{
							"indexed": false,
							"internalType": "uint256",
							"name": "amount",
							"type": "uint256"
						}
					],
					"name": "VestingWithdrawn",
					"type": "event"
				},
				{
					"inputs": [
						{
							"internalType": "address",
							"name": "",
							"type": "address"
						}
					],
					"name": "CheckWhitelist",
					"outputs": [
						{
							"internalType": "bool",
							"name": "",
							"type": "bool"
						}
					],
					"stateMutability": "view",
					"type": "function"
				},
				{
					"inputs": [
						{
							"internalType": "uint256",
							"name": "",
							"type": "uint256"
						}
					],
					"name": "WhiteListTokens",
					"outputs": [
						{
							"internalType": "address",
							"name": "",
							"type": "address"
						}
					],
					"stateMutability": "view",
					"type": "function"
				},
				{
					"inputs": [
						{
							"internalType": "address",
							"name": "_add",
							"type": "address"
						}
					],
					"name": "addWhitelist",
					"outputs": [],
					"stateMutability": "nonpayable",
					"type": "function"
				},
				{
					"inputs": [
						{
							"internalType": "uint256",
							"name": "index",
							"type": "uint256"
						}
					],
					"name": "calculate_available_withdraw_token",
					"outputs": [
						{
							"internalType": "uint256",
							"name": "",
							"type": "uint256"
						}
					],
					"stateMutability": "view",
					"type": "function"
				},
				{
					"inputs": [],
					"name": "getTime",
					"outputs": [
						{
							"internalType": "uint256",
							"name": "",
							"type": "uint256"
						}
					],
					"stateMutability": "view",
					"type": "function"
				},
				{
					"inputs": [],
					"name": "getTotalVesting",
					"outputs": [
						{
							"internalType": "uint256",
							"name": "",
							"type": "uint256"
						}
					],
					"stateMutability": "view",
					"type": "function"
				},
				{
					"inputs": [],
					"name": "getTotalWhitelist",
					"outputs": [
						{
							"internalType": "uint256",
							"name": "",
							"type": "uint256"
						}
					],
					"stateMutability": "view",
					"type": "function"
				},
				{
					"inputs": [
						{
							"internalType": "uint256",
							"name": "_amount",
							"type": "uint256"
						},
						{
							"internalType": "uint256",
							"name": "_duration",
							"type": "uint256"
						},
						{
							"internalType": "uint256",
							"name": "_slice_period",
							"type": "uint256"
						},
						{
							"internalType": "uint256",
							"name": "_cliff",
							"type": "uint256"
						},
						{
							"internalType": "address",
							"name": "_beneficiaries",
							"type": "address"
						},
						{
							"internalType": "address",
							"name": "addressOfToken",
							"type": "address"
						}
					],
					"name": "lock",
					"outputs": [],
					"stateMutability": "nonpayable",
					"type": "function"
				},
				{
					"inputs": [
						{
							"internalType": "address",
							"name": "_add",
							"type": "address"
						}
					],
					"name": "removeWhitelist",
					"outputs": [],
					"stateMutability": "nonpayable",
					"type": "function"
				},
				{
					"inputs": [],
					"name": "token",
					"outputs": [
						{
							"internalType": "contract ERC20",
							"name": "",
							"type": "address"
						}
					],
					"stateMutability": "view",
					"type": "function"
				},
				{
					"inputs": [
						{
							"internalType": "address",
							"name": "",
							"type": "address"
						},
						{
							"internalType": "uint256",
							"name": "",
							"type": "uint256"
						}
					],
					"name": "vestings",
					"outputs": [
						{
							"internalType": "uint256",
							"name": "amount",
							"type": "uint256"
						},
						{
							"internalType": "uint256",
							"name": "start",
							"type": "uint256"
						},
						{
							"internalType": "uint256",
							"name": "duration",
							"type": "uint256"
						},
						{
							"internalType": "uint256",
							"name": "slice_period",
							"type": "uint256"
						},
						{
							"internalType": "uint256",
							"name": "cliff",
							"type": "uint256"
						},
						{
							"internalType": "uint256",
							"name": "recive_on_interval",
							"type": "uint256"
						},
						{
							"internalType": "uint256",
							"name": "VestingId",
							"type": "uint256"
						},
						{
							"internalType": "address",
							"name": "beneficiaries",
							"type": "address"
						},
						{
							"internalType": "address",
							"name": "TokenAddress",
							"type": "address"
						},
						{
							"internalType": "bool",
							"name": "locked",
							"type": "bool"
						},
						{
							"internalType": "uint256",
							"name": "temp",
							"type": "uint256"
						}
					],
					"stateMutability": "view",
					"type": "function"
				},
				{
					"inputs": [
						{
							"internalType": "uint256",
							"name": "index",
							"type": "uint256"
						}
					],
					"name": "withdraw",
					"outputs": [],
					"stateMutability": "nonpayable",
					"type": "function"
				}
			],
			"devdoc": {
				"kind": "dev",
				"methods": {},
				"version": 1
			},
			"evm": {
				"assembly": "    /* \"Vesting Contract/version2.sol\":114:4832  contract VestingContract {... */\n  mstore(0x40, 0x80)\n    /* \"Vesting Contract/version2.sol\":189:238  constructor() {... */\n  callvalue\n  dup1\n  iszero\n  tag_1\n  jumpi\n  0x00\n  dup1\n  revert\ntag_1:\n  pop\n    /* \"Vesting Contract/version2.sol\":221:231  msg.sender */\n  caller\n    /* \"Vesting Contract/version2.sol\":213:218  owner */\n  0x01\n  0x00\n    /* \"Vesting Contract/version2.sol\":213:231  owner = msg.sender */\n  0x0100\n  exp\n  dup2\n  sload\n  dup2\n  0xffffffffffffffffffffffffffffffffffffffff\n  mul\n  not\n  and\n  swap1\n  dup4\n  0xffffffffffffffffffffffffffffffffffffffff\n  and\n  mul\n  or\n  swap1\n  sstore\n  pop\n    /* \"Vesting Contract/version2.sol\":114:4832  contract VestingContract {... */\n  dataSize(sub_0)\n  dup1\n  dataOffset(sub_0)\n  0x00\n  codecopy\n  0x00\n  return\nstop\n\nsub_0: assembly {\n        /* \"Vesting Contract/version2.sol\":114:4832  contract VestingContract {... */\n      mstore(0x40, 0x80)\n      callvalue\n      dup1\n      iszero\n      tag_1\n      jumpi\n      0x00\n      dup1\n      revert\n    tag_1:\n      pop\n      jumpi(tag_2, lt(calldatasize, 0x04))\n      shr(0xe0, calldataload(0x00))\n      dup1\n      0xce4f696b\n      gt\n      tag_15\n      jumpi\n      dup1\n      0xce4f696b\n      eq\n      tag_9\n      jumpi\n      dup1\n      0xd41330d2\n      eq\n      tag_10\n      jumpi\n      dup1\n      0xe9afad38\n      eq\n      tag_11\n      jumpi\n      dup1\n      0xeab72e65\n      eq\n      tag_12\n      jumpi\n      dup1\n      0xf80f5dd5\n      eq\n      tag_13\n      jumpi\n      dup1\n      0xfc0c546a\n      eq\n      tag_14\n      jumpi\n      jump(tag_2)\n    tag_15:\n      dup1\n      0x2e1a7d4d\n      eq\n      tag_3\n      jumpi\n      dup1\n      0x557ed1ba\n      eq\n      tag_4\n      jumpi\n      dup1\n      0x5952ffd1\n      eq\n      tag_5\n      jumpi\n      dup1\n      0x78c8cda7\n      eq\n      tag_6\n      jumpi\n      dup1\n      0x95290163\n      eq\n      tag_7\n      jumpi\n      dup1\n      0xbd84477d\n      eq\n      tag_8\n      jumpi\n    tag_2:\n      0x00\n      dup1\n      revert\n        /* \"Vesting Contract/version2.sol\":3161:3959  function withdraw(uint256 index) external {... */\n    tag_3:\n      tag_16\n      0x04\n      dup1\n      calldatasize\n      sub\n      dup2\n      add\n      swap1\n      tag_17\n      swap2\n      swap1\n      tag_18\n      jump\t// in\n    tag_17:\n      tag_19\n      jump\t// in\n    tag_16:\n      stop\n        /* \"Vesting Contract/version2.sol\":4517:4605  function getTime() public view returns (uint256) {... */\n    tag_4:\n      tag_20\n      tag_21\n      jump\t// in\n    tag_20:\n      mload(0x40)\n      tag_22\n      swap2\n      swap1\n      tag_23\n      jump\t// in\n    tag_22:\n      mload(0x40)\n      dup1\n      swap2\n      sub\n      swap1\n      return\n        /* \"Vesting Contract/version2.sol\":3965:4511  function calculate_available_withdraw_token(... */\n    tag_5:\n      tag_24\n      0x04\n      dup1\n      calldatasize\n      sub\n      dup2\n      add\n      swap1\n      tag_25\n      swap2\n      swap1\n      tag_18\n      jump\t// in\n    tag_25:\n      tag_26\n      jump\t// in\n    tag_24:\n      mload(0x40)\n      tag_27\n      swap2\n      swap1\n      tag_23\n      jump\t// in\n    tag_27:\n      mload(0x40)\n      dup1\n      swap2\n      sub\n      swap1\n      return\n        /* \"Vesting Contract/version2.sol\":1111:1325  function removeWhitelist(address _add) public onlyOwner {... */\n    tag_6:\n      tag_28\n      0x04\n      dup1\n      calldatasize\n      sub\n      dup2\n      add\n      swap1\n      tag_29\n      swap2\n      swap1\n      tag_30\n      jump\t// in\n    tag_29:\n      tag_31\n      jump\t// in\n    tag_28:\n      stop\n        /* \"Vesting Contract/version2.sol\":632:678  mapping(address => bool) public CheckWhitelist */\n    tag_7:\n      tag_32\n      0x04\n      dup1\n      calldatasize\n      sub\n      dup2\n      add\n      swap1\n      tag_33\n      swap2\n      swap1\n      tag_30\n      jump\t// in\n    tag_33:\n      tag_34\n      jump\t// in\n    tag_32:\n      mload(0x40)\n      tag_35\n      swap2\n      swap1\n      tag_36\n      jump\t// in\n    tag_35:\n      mload(0x40)\n      dup1\n      swap2\n      sub\n      swap1\n      return\n        /* \"Vesting Contract/version2.sol\":573:626  mapping(address => VestingSchedule[]) public vestings */\n    tag_8:\n      tag_37\n      0x04\n      dup1\n      calldatasize\n      sub\n      dup2\n      add\n      swap1\n      tag_38\n      swap2\n      swap1\n      tag_39\n      jump\t// in\n    tag_38:\n      tag_40\n      jump\t// in\n    tag_37:\n      mload(0x40)\n      tag_41\n      swap12\n      swap11\n      swap10\n      swap9\n      swap8\n      swap7\n      swap6\n      swap5\n      swap4\n      swap3\n      swap2\n      swap1\n      tag_42\n      jump\t// in\n    tag_41:\n      mload(0x40)\n      dup1\n      swap2\n      sub\n      swap1\n      return\n        /* \"Vesting Contract/version2.sol\":2032:3155  function lock(... */\n    tag_9:\n      tag_43\n      0x04\n      dup1\n      calldatasize\n      sub\n      dup2\n      add\n      swap1\n      tag_44\n      swap2\n      swap1\n      tag_45\n      jump\t// in\n    tag_44:\n      tag_46\n      jump\t// in\n    tag_43:\n      stop\n        /* \"Vesting Contract/version2.sol\":4725:4830  function getTotalWhitelist() public view returns (uint256) {... */\n    tag_10:\n      tag_47\n      tag_48\n      jump\t// in\n    tag_47:\n      mload(0x40)\n      tag_49\n      swap2\n      swap1\n      tag_23\n      jump\t// in\n    tag_49:\n      mload(0x40)\n      dup1\n      swap2\n      sub\n      swap1\n      return\n        /* \"Vesting Contract/version2.sol\":4611:4719  function getTotalVesting() public view returns (uint256) {... */\n    tag_11:\n      tag_50\n      tag_51\n      jump\t// in\n    tag_50:\n      mload(0x40)\n      tag_52\n      swap2\n      swap1\n      tag_23\n      jump\t// in\n    tag_52:\n      mload(0x40)\n      dup1\n      swap2\n      sub\n      swap1\n      return\n        /* \"Vesting Contract/version2.sol\":684:716  address[] public WhiteListTokens */\n    tag_12:\n      tag_53\n      0x04\n      dup1\n      calldatasize\n      sub\n      dup2\n      add\n      swap1\n      tag_54\n      swap2\n      swap1\n      tag_18\n      jump\t// in\n    tag_54:\n      tag_55\n      jump\t// in\n    tag_53:\n      mload(0x40)\n      tag_56\n      swap2\n      swap1\n      tag_57\n      jump\t// in\n    tag_56:\n      mload(0x40)\n      dup1\n      swap2\n      sub\n      swap1\n      return\n        /* \"Vesting Contract/version2.sol\":890:1105  function addWhitelist(address _add) public onlyOwner {... */\n    tag_13:\n      tag_58\n      0x04\n      dup1\n      calldatasize\n      sub\n      dup2\n      add\n      swap1\n      tag_59\n      swap2\n      swap1\n      tag_30\n      jump\t// in\n    tag_59:\n      tag_60\n      jump\t// in\n    tag_58:\n      stop\n        /* \"Vesting Contract/version2.sol\":145:163  ERC20 public token */\n    tag_14:\n      tag_61\n      tag_62\n      jump\t// in\n    tag_61:\n      mload(0x40)\n      tag_63\n      swap2\n      swap1\n      tag_64\n      jump\t// in\n    tag_63:\n      mload(0x40)\n      dup1\n      swap2\n      sub\n      swap1\n      return\n        /* \"Vesting Contract/version2.sol\":3161:3959  function withdraw(uint256 index) external {... */\n    tag_19:\n        /* \"Vesting Contract/version2.sol\":3213:3244  VestingSchedule storage vesting */\n      0x00\n        /* \"Vesting Contract/version2.sol\":3247:3255  vestings */\n      0x02\n        /* \"Vesting Contract/version2.sol\":3247:3267  vestings[msg.sender] */\n      0x00\n        /* \"Vesting Contract/version2.sol\":3256:3266  msg.sender */\n      caller\n        /* \"Vesting Contract/version2.sol\":3247:3267  vestings[msg.sender] */\n      0xffffffffffffffffffffffffffffffffffffffff\n      and\n      0xffffffffffffffffffffffffffffffffffffffff\n      and\n      dup2\n      mstore\n      0x20\n      add\n      swap1\n      dup2\n      mstore\n      0x20\n      add\n      0x00\n      keccak256\n        /* \"Vesting Contract/version2.sol\":3268:3273  index */\n      dup3\n        /* \"Vesting Contract/version2.sol\":3247:3274  vestings[msg.sender][index] */\n      dup2\n      sload\n      dup2\n      lt\n      tag_66\n      jumpi\n      tag_67\n      tag_68\n      jump\t// in\n    tag_67:\n    tag_66:\n      swap1\n      0x00\n      mstore\n      keccak256(0x00, 0x20)\n      swap1\n      0x0a\n      mul\n      add\n        /* \"Vesting Contract/version2.sol\":3213:3274  VestingSchedule storage vesting = vestings[msg.sender][index] */\n      swap1\n      pop\n        /* \"Vesting Contract/version2.sol\":3292:3299  vesting */\n      dup1\n        /* \"Vesting Contract/version2.sol\":3292:3306  vesting.locked */\n      0x08\n      add\n      0x14\n      swap1\n      sload\n      swap1\n      0x0100\n      exp\n      swap1\n      div\n      0xff\n      and\n        /* \"Vesting Contract/version2.sol\":3284:3337  require(vesting.locked, \"Funds have not been locked\") */\n      tag_70\n      jumpi\n      mload(0x40)\n      0x08c379a000000000000000000000000000000000000000000000000000000000\n      dup2\n      mstore\n      0x04\n      add\n      tag_71\n      swap1\n      tag_72\n      jump\t// in\n    tag_71:\n      mload(0x40)\n      dup1\n      swap2\n      sub\n      swap1\n      revert\n    tag_70:\n        /* \"Vesting Contract/version2.sol\":3367:3374  vesting */\n      dup1\n        /* \"Vesting Contract/version2.sol\":3367:3380  vesting.start */\n      0x01\n      add\n      sload\n        /* \"Vesting Contract/version2.sol\":3355:3364  getTime() */\n      tag_73\n        /* \"Vesting Contract/version2.sol\":3355:3362  getTime */\n      tag_21\n        /* \"Vesting Contract/version2.sol\":3355:3364  getTime() */\n      jump\t// in\n    tag_73:\n        /* \"Vesting Contract/version2.sol\":3355:3380  getTime() > vesting.start */\n      gt\n        /* \"Vesting Contract/version2.sol\":3347:3418  require(getTime() > vesting.start, \"Token under locking please wait..\") */\n      tag_74\n      jumpi\n      mload(0x40)\n      0x08c379a000000000000000000000000000000000000000000000000000000000\n      dup2\n      mstore\n      0x04\n      add\n      tag_75\n      swap1\n      tag_76\n      jump\t// in\n    tag_75:\n      mload(0x40)\n      dup1\n      swap2\n      sub\n      swap1\n      revert\n    tag_74:\n        /* \"Vesting Contract/version2.sol\":3483:3492  getTime() */\n      tag_77\n        /* \"Vesting Contract/version2.sol\":3483:3490  getTime */\n      tag_21\n        /* \"Vesting Contract/version2.sol\":3483:3492  getTime() */\n      jump\t// in\n    tag_77:\n        /* \"Vesting Contract/version2.sol\":3466:3473  vesting */\n      dup2\n        /* \"Vesting Contract/version2.sol\":3466:3479  vesting.start */\n      0x01\n      add\n      sload\n        /* \"Vesting Contract/version2.sol\":3450:3457  vesting */\n      dup3\n        /* \"Vesting Contract/version2.sol\":3450:3463  vesting.cliff */\n      0x04\n      add\n      sload\n        /* \"Vesting Contract/version2.sol\":3450:3479  vesting.cliff + vesting.start */\n      tag_78\n      swap2\n      swap1\n      tag_79\n      jump\t// in\n    tag_78:\n        /* \"Vesting Contract/version2.sol\":3449:3492  (vesting.cliff + vesting.start) < getTime() */\n      lt\n        /* \"Vesting Contract/version2.sol\":3428:3541  require(... */\n      tag_80\n      jumpi\n      mload(0x40)\n      0x08c379a000000000000000000000000000000000000000000000000000000000\n      dup2\n      mstore\n      0x04\n      add\n      tag_81\n      swap1\n      tag_82\n      jump\t// in\n    tag_81:\n      mload(0x40)\n      dup1\n      swap2\n      sub\n      swap1\n      revert\n    tag_80:\n        /* \"Vesting Contract/version2.sol\":3551:3568  uint withdrawable */\n      0x00\n        /* \"Vesting Contract/version2.sol\":3571:3612  calculate_available_withdraw_token(index) */\n      tag_83\n        /* \"Vesting Contract/version2.sol\":3606:3611  index */\n      dup4\n        /* \"Vesting Contract/version2.sol\":3571:3605  calculate_available_withdraw_token */\n      tag_26\n        /* \"Vesting Contract/version2.sol\":3571:3612  calculate_available_withdraw_token(index) */\n      jump\t// in\n    tag_83:\n        /* \"Vesting Contract/version2.sol\":3551:3612  uint withdrawable = calculate_available_withdraw_token(index) */\n      swap1\n      pop\n        /* \"Vesting Contract/version2.sol\":3645:3646  0 */\n      0x00\n        /* \"Vesting Contract/version2.sol\":3630:3642  withdrawable */\n      dup2\n        /* \"Vesting Contract/version2.sol\":3630:3646  withdrawable > 0 */\n      gt\n        /* \"Vesting Contract/version2.sol\":3622:3681  require(withdrawable > 0, \"Not enough amount for withdraw\") */\n      tag_84\n      jumpi\n      mload(0x40)\n      0x08c379a000000000000000000000000000000000000000000000000000000000\n      dup2\n      mstore\n      0x04\n      add\n      tag_85\n      swap1\n      tag_86\n      jump\t// in\n    tag_85:\n      mload(0x40)\n      dup1\n      swap2\n      sub\n      swap1\n      revert\n    tag_84:\n        /* \"Vesting Contract/version2.sol\":3697:3704  vesting */\n      dup2\n        /* \"Vesting Contract/version2.sol\":3697:3717  vesting.TokenAddress */\n      0x08\n      add\n      0x00\n      swap1\n      sload\n      swap1\n      0x0100\n      exp\n      swap1\n      div\n      0xffffffffffffffffffffffffffffffffffffffff\n      and\n        /* \"Vesting Contract/version2.sol\":3691:3727  ERC20(vesting.TokenAddress).transfer */\n      0xffffffffffffffffffffffffffffffffffffffff\n      and\n      0xa9059cbb\n        /* \"Vesting Contract/version2.sol\":3728:3738  msg.sender */\n      caller\n        /* \"Vesting Contract/version2.sol\":3740:3752  withdrawable */\n      dup4\n        /* \"Vesting Contract/version2.sol\":3691:3753  ERC20(vesting.TokenAddress).transfer(msg.sender, withdrawable) */\n      mload(0x40)\n      dup4\n      0xffffffff\n      and\n      0xe0\n      shl\n      dup2\n      mstore\n      0x04\n      add\n      tag_87\n      swap3\n      swap2\n      swap1\n      tag_88\n      jump\t// in\n    tag_87:\n      0x20\n      mload(0x40)\n      dup1\n      dup4\n      sub\n      dup2\n      0x00\n      dup8\n      gas\n      call\n      iszero\n      dup1\n      iszero\n      tag_90\n      jumpi\n      returndatasize\n      0x00\n      dup1\n      returndatacopy\n      revert(0x00, returndatasize)\n    tag_90:\n      pop\n      pop\n      pop\n      pop\n      mload(0x40)\n      returndatasize\n      not(0x1f)\n      0x1f\n      dup3\n      add\n      and\n      dup3\n      add\n      dup1\n      0x40\n      mstore\n      pop\n      dup2\n      add\n      swap1\n      tag_91\n      swap2\n      swap1\n      tag_92\n      jump\t// in\n    tag_91:\n      pop\n        /* \"Vesting Contract/version2.sol\":3779:3791  withdrawable */\n      dup1\n        /* \"Vesting Contract/version2.sol\":3763:3770  vesting */\n      dup3\n        /* \"Vesting Contract/version2.sol\":3763:3775  vesting.temp */\n      0x09\n      add\n      0x00\n        /* \"Vesting Contract/version2.sol\":3763:3791  vesting.temp += withdrawable */\n      dup3\n      dup3\n      sload\n      tag_93\n      swap2\n      swap1\n      tag_79\n      jump\t// in\n    tag_93:\n      swap3\n      pop\n      pop\n      dup2\n      swap1\n      sstore\n      pop\n        /* \"Vesting Contract/version2.sol\":3819:3831  withdrawable */\n      dup1\n        /* \"Vesting Contract/version2.sol\":3801:3808  vesting */\n      dup3\n        /* \"Vesting Contract/version2.sol\":3801:3815  vesting.amount */\n      0x00\n      add\n      0x00\n        /* \"Vesting Contract/version2.sol\":3801:3831  vesting.amount -= withdrawable */\n      dup3\n      dup3\n      sload\n      tag_94\n      swap2\n      swap1\n      tag_95\n      jump\t// in\n    tag_94:\n      swap3\n      pop\n      pop\n      dup2\n      swap1\n      sstore\n      pop\n        /* \"Vesting Contract/version2.sol\":3863:3864  0 */\n      0x00\n        /* \"Vesting Contract/version2.sol\":3845:3852  vesting */\n      dup3\n        /* \"Vesting Contract/version2.sol\":3845:3859  vesting.amount */\n      0x00\n      add\n      sload\n        /* \"Vesting Contract/version2.sol\":3845:3864  vesting.amount == 0 */\n      sub\n        /* \"Vesting Contract/version2.sol\":3841:3888  if (vesting.amount == 0) vesting.locked = false */\n      tag_96\n      jumpi\n        /* \"Vesting Contract/version2.sol\":3883:3888  false */\n      0x00\n        /* \"Vesting Contract/version2.sol\":3866:3873  vesting */\n      dup3\n        /* \"Vesting Contract/version2.sol\":3866:3880  vesting.locked */\n      0x08\n      add\n      0x14\n        /* \"Vesting Contract/version2.sol\":3866:3888  vesting.locked = false */\n      0x0100\n      exp\n      dup2\n      sload\n      dup2\n      0xff\n      mul\n      not\n      and\n      swap1\n      dup4\n      iszero\n      iszero\n      mul\n      or\n      swap1\n      sstore\n      pop\n        /* \"Vesting Contract/version2.sol\":3841:3888  if (vesting.amount == 0) vesting.locked = false */\n    tag_96:\n        /* \"Vesting Contract/version2.sol\":3903:3952  VestingWithdrawn(msg.sender, index, withdrawable) */\n      0xccdb21e8b29fbf756f29d5f05c72606ca9e8160ec1a135ca6f50dae471188cec\n        /* \"Vesting Contract/version2.sol\":3920:3930  msg.sender */\n      caller\n        /* \"Vesting Contract/version2.sol\":3932:3937  index */\n      dup5\n        /* \"Vesting Contract/version2.sol\":3939:3951  withdrawable */\n      dup4\n        /* \"Vesting Contract/version2.sol\":3903:3952  VestingWithdrawn(msg.sender, index, withdrawable) */\n      mload(0x40)\n      tag_97\n      swap4\n      swap3\n      swap2\n      swap1\n      tag_98\n      jump\t// in\n    tag_97:\n      mload(0x40)\n      dup1\n      swap2\n      sub\n      swap1\n      log1\n        /* \"Vesting Contract/version2.sol\":3203:3959  {... */\n      pop\n      pop\n        /* \"Vesting Contract/version2.sol\":3161:3959  function withdraw(uint256 index) external {... */\n      pop\n      jump\t// out\n        /* \"Vesting Contract/version2.sol\":4517:4605  function getTime() public view returns (uint256) {... */\n    tag_21:\n        /* \"Vesting Contract/version2.sol\":4557:4564  uint256 */\n      0x00\n        /* \"Vesting Contract/version2.sol\":4583:4598  block.timestamp */\n      timestamp\n        /* \"Vesting Contract/version2.sol\":4576:4598  return block.timestamp */\n      swap1\n      pop\n        /* \"Vesting Contract/version2.sol\":4517:4605  function getTime() public view returns (uint256) {... */\n      swap1\n      jump\t// out\n        /* \"Vesting Contract/version2.sol\":3965:4511  function calculate_available_withdraw_token(... */\n    tag_26:\n        /* \"Vesting Contract/version2.sol\":4059:4066  uint256 */\n      0x00\n        /* \"Vesting Contract/version2.sol\":4078:4108  VestingSchedule memory vesting */\n      dup1\n        /* \"Vesting Contract/version2.sol\":4111:4119  vestings */\n      0x02\n        /* \"Vesting Contract/version2.sol\":4111:4131  vestings[msg.sender] */\n      0x00\n        /* \"Vesting Contract/version2.sol\":4120:4130  msg.sender */\n      caller\n        /* \"Vesting Contract/version2.sol\":4111:4131  vestings[msg.sender] */\n      0xffffffffffffffffffffffffffffffffffffffff\n      and\n      0xffffffffffffffffffffffffffffffffffffffff\n      and\n      dup2\n      mstore\n      0x20\n      add\n      swap1\n      dup2\n      mstore\n      0x20\n      add\n      0x00\n      keccak256\n        /* \"Vesting Contract/version2.sol\":4132:4137  index */\n      dup4\n        /* \"Vesting Contract/version2.sol\":4111:4138  vestings[msg.sender][index] */\n      dup2\n      sload\n      dup2\n      lt\n      tag_101\n      jumpi\n      tag_102\n      tag_68\n      jump\t// in\n    tag_102:\n    tag_101:\n      swap1\n      0x00\n      mstore\n      keccak256(0x00, 0x20)\n      swap1\n      0x0a\n      mul\n      add\n        /* \"Vesting Contract/version2.sol\":4078:4138  VestingSchedule memory vesting = vestings[msg.sender][index] */\n      mload(0x40)\n      dup1\n      0x0160\n      add\n      0x40\n      mstore\n      swap1\n      dup2\n      0x00\n      dup3\n      add\n      sload\n      dup2\n      mstore\n      0x20\n      add\n      0x01\n      dup3\n      add\n      sload\n      dup2\n      mstore\n      0x20\n      add\n      0x02\n      dup3\n      add\n      sload\n      dup2\n      mstore\n      0x20\n      add\n      0x03\n      dup3\n      add\n      sload\n      dup2\n      mstore\n      0x20\n      add\n      0x04\n      dup3\n      add\n      sload\n      dup2\n      mstore\n      0x20\n      add\n      0x05\n      dup3\n      add\n      sload\n      dup2\n      mstore\n      0x20\n      add\n      0x06\n      dup3\n      add\n      sload\n      dup2\n      mstore\n      0x20\n      add\n      0x07\n      dup3\n      add\n      0x00\n      swap1\n      sload\n      swap1\n      0x0100\n      exp\n      swap1\n      div\n      0xffffffffffffffffffffffffffffffffffffffff\n      and\n      0xffffffffffffffffffffffffffffffffffffffff\n      and\n      0xffffffffffffffffffffffffffffffffffffffff\n      and\n      dup2\n      mstore\n      0x20\n      add\n      0x08\n      dup3\n      add\n      0x00\n      swap1\n      sload\n      swap1\n      0x0100\n      exp\n      swap1\n      div\n      0xffffffffffffffffffffffffffffffffffffffff\n      and\n      0xffffffffffffffffffffffffffffffffffffffff\n      and\n      0xffffffffffffffffffffffffffffffffffffffff\n      and\n      dup2\n      mstore\n      0x20\n      add\n      0x08\n      dup3\n      add\n      0x14\n      swap1\n      sload\n      swap1\n      0x0100\n      exp\n      swap1\n      div\n      0xff\n      and\n      iszero\n      iszero\n      iszero\n      iszero\n      dup2\n      mstore\n      0x20\n      add\n      0x09\n      dup3\n      add\n      sload\n      dup2\n      mstore\n      pop\n      pop\n      swap1\n      pop\n        /* \"Vesting Contract/version2.sol\":4148:4173  uint256 total_slice_count */\n      0x00\n        /* \"Vesting Contract/version2.sol\":4218:4225  vesting */\n      dup2\n        /* \"Vesting Contract/version2.sol\":4218:4238  vesting.slice_period */\n      0x60\n      add\n      mload\n        /* \"Vesting Contract/version2.sol\":4189:4196  vesting */\n      dup3\n        /* \"Vesting Contract/version2.sol\":4189:4202  vesting.start */\n      0x20\n      add\n      mload\n        /* \"Vesting Contract/version2.sol\":4177:4186  getTime() */\n      tag_104\n        /* \"Vesting Contract/version2.sol\":4177:4184  getTime */\n      tag_21\n        /* \"Vesting Contract/version2.sol\":4177:4186  getTime() */\n      jump\t// in\n    tag_104:\n        /* \"Vesting Contract/version2.sol\":4177:4202  getTime() - vesting.start */\n      tag_105\n      swap2\n      swap1\n      tag_95\n      jump\t// in\n    tag_105:\n        /* \"Vesting Contract/version2.sol\":4176:4238  (getTime() - vesting.start) /... */\n      tag_106\n      swap2\n      swap1\n      tag_107\n      jump\t// in\n    tag_106:\n        /* \"Vesting Contract/version2.sol\":4148:4238  uint256 total_slice_count = (getTime() - vesting.start) /... */\n      swap1\n      pop\n        /* \"Vesting Contract/version2.sol\":4248:4274  uint256 total_mul_withdraw */\n      0x00\n        /* \"Vesting Contract/version2.sol\":4340:4347  vesting */\n      dup3\n        /* \"Vesting Contract/version2.sol\":4340:4352  vesting.temp */\n      0x0140\n      add\n      mload\n        /* \"Vesting Contract/version2.sol\":4310:4317  vesting */\n      dup4\n        /* \"Vesting Contract/version2.sol\":4310:4336  vesting.recive_on_interval */\n      0xa0\n      add\n      mload\n        /* \"Vesting Contract/version2.sol\":4278:4295  total_slice_count */\n      dup4\n        /* \"Vesting Contract/version2.sol\":4278:4336  total_slice_count *... */\n      tag_108\n      swap2\n      swap1\n      tag_109\n      jump\t// in\n    tag_108:\n        /* \"Vesting Contract/version2.sol\":4277:4352  (total_slice_count *... */\n      tag_110\n      swap2\n      swap1\n      tag_95\n      jump\t// in\n    tag_110:\n        /* \"Vesting Contract/version2.sol\":4248:4352  uint256 total_mul_withdraw = (total_slice_count *... */\n      swap1\n      pop\n        /* \"Vesting Contract/version2.sol\":4387:4394  vesting */\n      dup3\n        /* \"Vesting Contract/version2.sol\":4387:4401  vesting.amount */\n      0x00\n      add\n      mload\n        /* \"Vesting Contract/version2.sol\":4366:4384  total_mul_withdraw */\n      dup2\n        /* \"Vesting Contract/version2.sol\":4366:4401  total_mul_withdraw < vesting.amount */\n      lt\n        /* \"Vesting Contract/version2.sol\":4362:4505  if (total_mul_withdraw < vesting.amount) {... */\n      iszero\n      tag_111\n      jumpi\n        /* \"Vesting Contract/version2.sol\":4424:4442  total_mul_withdraw */\n      dup1\n        /* \"Vesting Contract/version2.sol\":4417:4442  return total_mul_withdraw */\n      swap4\n      pop\n      pop\n      pop\n      pop\n      jump(tag_100)\n        /* \"Vesting Contract/version2.sol\":4362:4505  if (total_mul_withdraw < vesting.amount) {... */\n    tag_111:\n        /* \"Vesting Contract/version2.sol\":4480:4487  vesting */\n      dup3\n        /* \"Vesting Contract/version2.sol\":4480:4494  vesting.amount */\n      0x00\n      add\n      mload\n        /* \"Vesting Contract/version2.sol\":4473:4494  return vesting.amount */\n      swap4\n      pop\n      pop\n      pop\n      pop\n        /* \"Vesting Contract/version2.sol\":3965:4511  function calculate_available_withdraw_token(... */\n    tag_100:\n      swap2\n      swap1\n      pop\n      jump\t// out\n        /* \"Vesting Contract/version2.sol\":1111:1325  function removeWhitelist(address _add) public onlyOwner {... */\n    tag_31:\n        /* \"Vesting Contract/version2.sol\":789:794  owner */\n      0x01\n      0x00\n      swap1\n      sload\n      swap1\n      0x0100\n      exp\n      swap1\n      div\n      0xffffffffffffffffffffffffffffffffffffffff\n      and\n        /* \"Vesting Contract/version2.sol\":775:794  msg.sender == owner */\n      0xffffffffffffffffffffffffffffffffffffffff\n      and\n        /* \"Vesting Contract/version2.sol\":775:785  msg.sender */\n      caller\n        /* \"Vesting Contract/version2.sol\":775:794  msg.sender == owner */\n      0xffffffffffffffffffffffffffffffffffffffff\n      and\n      eq\n        /* \"Vesting Contract/version2.sol\":754:866  require(... */\n      tag_114\n      jumpi\n      mload(0x40)\n      0x08c379a000000000000000000000000000000000000000000000000000000000\n      dup2\n      mstore\n      0x04\n      add\n      tag_115\n      swap1\n      tag_116\n      jump\t// in\n    tag_115:\n      mload(0x40)\n      dup1\n      swap2\n      sub\n      swap1\n      revert\n    tag_114:\n        /* \"Vesting Contract/version2.sol\":1208:1213  false */\n      0x00\n        /* \"Vesting Contract/version2.sol\":1185:1213  CheckWhitelist[_add] !=false */\n      iszero\n      iszero\n        /* \"Vesting Contract/version2.sol\":1185:1199  CheckWhitelist */\n      0x03\n        /* \"Vesting Contract/version2.sol\":1185:1205  CheckWhitelist[_add] */\n      0x00\n        /* \"Vesting Contract/version2.sol\":1200:1204  _add */\n      dup4\n        /* \"Vesting Contract/version2.sol\":1185:1205  CheckWhitelist[_add] */\n      0xffffffffffffffffffffffffffffffffffffffff\n      and\n      0xffffffffffffffffffffffffffffffffffffffff\n      and\n      dup2\n      mstore\n      0x20\n      add\n      swap1\n      dup2\n      mstore\n      0x20\n      add\n      0x00\n      keccak256\n      0x00\n      swap1\n      sload\n      swap1\n      0x0100\n      exp\n      swap1\n      div\n      0xff\n      and\n        /* \"Vesting Contract/version2.sol\":1185:1213  CheckWhitelist[_add] !=false */\n      iszero\n      iszero\n      sub\n        /* \"Vesting Contract/version2.sol\":1177:1243  require(CheckWhitelist[_add] !=false ,\"Token is not in whitelist\") */\n      tag_118\n      jumpi\n      mload(0x40)\n      0x08c379a000000000000000000000000000000000000000000000000000000000\n      dup2\n      mstore\n      0x04\n      add\n      tag_119\n      swap1\n      tag_120\n      jump\t// in\n    tag_119:\n      mload(0x40)\n      dup1\n      swap2\n      sub\n      swap1\n      revert\n    tag_118:\n        /* \"Vesting Contract/version2.sol\":1276:1281  false */\n      0x00\n        /* \"Vesting Contract/version2.sol\":1253:1267  CheckWhitelist */\n      0x03\n        /* \"Vesting Contract/version2.sol\":1253:1273  CheckWhitelist[_add] */\n      0x00\n        /* \"Vesting Contract/version2.sol\":1268:1272  _add */\n      dup4\n        /* \"Vesting Contract/version2.sol\":1253:1273  CheckWhitelist[_add] */\n      0xffffffffffffffffffffffffffffffffffffffff\n      and\n      0xffffffffffffffffffffffffffffffffffffffff\n      and\n      dup2\n      mstore\n      0x20\n      add\n      swap1\n      dup2\n      mstore\n      0x20\n      add\n      0x00\n      keccak256\n      0x00\n        /* \"Vesting Contract/version2.sol\":1253:1281  CheckWhitelist[_add] = false */\n      0x0100\n      exp\n      dup2\n      sload\n      dup2\n      0xff\n      mul\n      not\n      and\n      swap1\n      dup4\n      iszero\n      iszero\n      mul\n      or\n      swap1\n      sstore\n      pop\n        /* \"Vesting Contract/version2.sol\":1298:1312  CheckWhitelist */\n      0x03\n        /* \"Vesting Contract/version2.sol\":1298:1318  CheckWhitelist[_add] */\n      0x00\n        /* \"Vesting Contract/version2.sol\":1313:1317  _add */\n      dup3\n        /* \"Vesting Contract/version2.sol\":1298:1318  CheckWhitelist[_add] */\n      0xffffffffffffffffffffffffffffffffffffffff\n      and\n      0xffffffffffffffffffffffffffffffffffffffff\n      and\n      dup2\n      mstore\n      0x20\n      add\n      swap1\n      dup2\n      mstore\n      0x20\n      add\n      0x00\n      keccak256\n      0x00\n        /* \"Vesting Contract/version2.sol\":1291:1318  delete CheckWhitelist[_add] */\n      0x0100\n      exp\n      dup2\n      sload\n      swap1\n      0xff\n      mul\n      not\n      and\n      swap1\n      sstore\n        /* \"Vesting Contract/version2.sol\":1111:1325  function removeWhitelist(address _add) public onlyOwner {... */\n      pop\n      jump\t// out\n        /* \"Vesting Contract/version2.sol\":632:678  mapping(address => bool) public CheckWhitelist */\n    tag_34:\n      mstore(0x20, 0x03)\n      dup1\n      0x00\n      mstore\n      keccak256(0x00, 0x40)\n      0x00\n      swap2\n      pop\n      sload\n      swap1\n      0x0100\n      exp\n      swap1\n      div\n      0xff\n      and\n      dup2\n      jump\t// out\n        /* \"Vesting Contract/version2.sol\":573:626  mapping(address => VestingSchedule[]) public vestings */\n    tag_40:\n      mstore(0x20, 0x02)\n      dup2\n      0x00\n      mstore\n      keccak256(0x00, 0x40)\n      dup2\n      dup2\n      sload\n      dup2\n      lt\n      tag_121\n      jumpi\n      0x00\n      dup1\n      revert\n    tag_121:\n      swap1\n      0x00\n      mstore\n      keccak256(0x00, 0x20)\n      swap1\n      0x0a\n      mul\n      add\n      0x00\n      swap2\n      pop\n      swap2\n      pop\n      pop\n      dup1\n      0x00\n      add\n      sload\n      swap1\n      dup1\n      0x01\n      add\n      sload\n      swap1\n      dup1\n      0x02\n      add\n      sload\n      swap1\n      dup1\n      0x03\n      add\n      sload\n      swap1\n      dup1\n      0x04\n      add\n      sload\n      swap1\n      dup1\n      0x05\n      add\n      sload\n      swap1\n      dup1\n      0x06\n      add\n      sload\n      swap1\n      dup1\n      0x07\n      add\n      0x00\n      swap1\n      sload\n      swap1\n      0x0100\n      exp\n      swap1\n      div\n      0xffffffffffffffffffffffffffffffffffffffff\n      and\n      swap1\n      dup1\n      0x08\n      add\n      0x00\n      swap1\n      sload\n      swap1\n      0x0100\n      exp\n      swap1\n      div\n      0xffffffffffffffffffffffffffffffffffffffff\n      and\n      swap1\n      dup1\n      0x08\n      add\n      0x14\n      swap1\n      sload\n      swap1\n      0x0100\n      exp\n      swap1\n      div\n      0xff\n      and\n      swap1\n      dup1\n      0x09\n      add\n      sload\n      swap1\n      pop\n      dup12\n      jump\t// out\n        /* \"Vesting Contract/version2.sol\":2032:3155  function lock(... */\n    tag_46:\n        /* \"Vesting Contract/version2.sol\":2243:2250  _amount */\n      dup6\n        /* \"Vesting Contract/version2.sol\":2252:2261  _duration */\n      dup6\n        /* \"Vesting Contract/version2.sol\":2263:2269  _cliff */\n      dup5\n        /* \"Vesting Contract/version2.sol\":2271:2285  addressOfToken */\n      dup4\n        /* \"Vesting Contract/version2.sol\":1783:1784  0 */\n      0x00\n        /* \"Vesting Contract/version2.sol\":1773:1780  _amount */\n      dup5\n        /* \"Vesting Contract/version2.sol\":1773:1784  _amount > 0 */\n      gt\n        /* \"Vesting Contract/version2.sol\":1765:1807  require(_amount > 0, \"Amount not be Zero\") */\n      tag_124\n      jumpi\n      mload(0x40)\n      0x08c379a000000000000000000000000000000000000000000000000000000000\n      dup2\n      mstore\n      0x04\n      add\n      tag_125\n      swap1\n      tag_126\n      jump\t// in\n    tag_125:\n      mload(0x40)\n      dup1\n      swap2\n      sub\n      swap1\n      revert\n    tag_124:\n        /* \"Vesting Contract/version2.sol\":1838:1852  CheckWhitelist */\n      0x03\n        /* \"Vesting Contract/version2.sol\":1838:1868  CheckWhitelist[addressOfToken] */\n      0x00\n        /* \"Vesting Contract/version2.sol\":1853:1867  addressOfToken */\n      dup3\n        /* \"Vesting Contract/version2.sol\":1838:1868  CheckWhitelist[addressOfToken] */\n      0xffffffffffffffffffffffffffffffffffffffff\n      and\n      0xffffffffffffffffffffffffffffffffffffffff\n      and\n      dup2\n      mstore\n      0x20\n      add\n      swap1\n      dup2\n      mstore\n      0x20\n      add\n      0x00\n      keccak256\n      0x00\n      swap1\n      sload\n      swap1\n      0x0100\n      exp\n      swap1\n      div\n      0xff\n      and\n        /* \"Vesting Contract/version2.sol\":1817:1935  require(... */\n      tag_127\n      jumpi\n      mload(0x40)\n      0x08c379a000000000000000000000000000000000000000000000000000000000\n      dup2\n      mstore\n      0x04\n      add\n      tag_128\n      swap1\n      tag_129\n      jump\t// in\n    tag_128:\n      mload(0x40)\n      dup1\n      swap2\n      sub\n      swap1\n      revert\n    tag_127:\n        /* \"Vesting Contract/version2.sol\":1962:1971  _duration */\n      dup3\n        /* \"Vesting Contract/version2.sol\":1953:1959  _cliff */\n      dup3\n        /* \"Vesting Contract/version2.sol\":1953:1971  _cliff < _duration */\n      lt\n        /* \"Vesting Contract/version2.sol\":1945:2008  require(_cliff < _duration, \"Cliff must me less than duration\") */\n      tag_130\n      jumpi\n      mload(0x40)\n      0x08c379a000000000000000000000000000000000000000000000000000000000\n      dup2\n      mstore\n      0x04\n      add\n      tag_131\n      swap1\n      tag_132\n      jump\t// in\n    tag_131:\n      mload(0x40)\n      dup1\n      swap2\n      sub\n      swap1\n      revert\n    tag_130:\n        /* \"Vesting Contract/version2.sol\":2297:2330  VestingSchedule memory newVesting */\n      0x00\n        /* \"Vesting Contract/version2.sol\":2333:2783  VestingSchedule({... */\n      mload(0x40)\n      dup1\n      0x0160\n      add\n      0x40\n      mstore\n      dup1\n        /* \"Vesting Contract/version2.sol\":2371:2378  _amount */\n      dup13\n        /* \"Vesting Contract/version2.sol\":2333:2783  VestingSchedule({... */\n      dup2\n      mstore\n      0x20\n      add\n        /* \"Vesting Contract/version2.sol\":2426:2441  block.timestamp */\n      timestamp\n        /* \"Vesting Contract/version2.sol\":2333:2783  VestingSchedule({... */\n      dup2\n      mstore\n      0x20\n      add\n        /* \"Vesting Contract/version2.sol\":2465:2474  _duration */\n      dup12\n        /* \"Vesting Contract/version2.sol\":2333:2783  VestingSchedule({... */\n      dup2\n      mstore\n      0x20\n      add\n        /* \"Vesting Contract/version2.sol\":2528:2541  _slice_period */\n      dup11\n        /* \"Vesting Contract/version2.sol\":2333:2783  VestingSchedule({... */\n      dup2\n      mstore\n      0x20\n      add\n        /* \"Vesting Contract/version2.sol\":2399:2405  _cliff */\n      dup10\n        /* \"Vesting Contract/version2.sol\":2333:2783  VestingSchedule({... */\n      dup2\n      mstore\n      0x20\n      add\n        /* \"Vesting Contract/version2.sol\":2646:2655  _duration */\n      dup12\n        /* \"Vesting Contract/version2.sol\":2635:2642  _amount */\n      dup14\n        /* \"Vesting Contract/version2.sol\":2619:2632  _slice_period */\n      dup13\n        /* \"Vesting Contract/version2.sol\":2619:2642  _slice_period * _amount */\n      tag_134\n      swap2\n      swap1\n      tag_109\n      jump\t// in\n    tag_134:\n        /* \"Vesting Contract/version2.sol\":2618:2655  (_slice_period * _amount) / _duration */\n      tag_135\n      swap2\n      swap1\n      tag_107\n      jump\t// in\n    tag_135:\n        /* \"Vesting Contract/version2.sol\":2333:2783  VestingSchedule({... */\n      dup2\n      mstore\n      0x20\n      add\n        /* \"Vesting Contract/version2.sol\":2723:2731  vestings */\n      0x02\n        /* \"Vesting Contract/version2.sol\":2723:2743  vestings[msg.sender] */\n      0x00\n        /* \"Vesting Contract/version2.sol\":2732:2742  msg.sender */\n      caller\n        /* \"Vesting Contract/version2.sol\":2723:2743  vestings[msg.sender] */\n      0xffffffffffffffffffffffffffffffffffffffff\n      and\n      0xffffffffffffffffffffffffffffffffffffffff\n      and\n      dup2\n      mstore\n      0x20\n      add\n      swap1\n      dup2\n      mstore\n      0x20\n      add\n      0x00\n      keccak256\n        /* \"Vesting Contract/version2.sol\":2723:2750  vestings[msg.sender].length */\n      dup1\n      sload\n      swap1\n      pop\n        /* \"Vesting Contract/version2.sol\":2333:2783  VestingSchedule({... */\n      dup2\n      mstore\n      0x20\n      add\n        /* \"Vesting Contract/version2.sol\":2570:2584  _beneficiaries */\n      dup9\n        /* \"Vesting Contract/version2.sol\":2333:2783  VestingSchedule({... */\n      0xffffffffffffffffffffffffffffffffffffffff\n      and\n      dup2\n      mstore\n      0x20\n      add\n        /* \"Vesting Contract/version2.sol\":2683:2697  addressOfToken */\n      dup8\n        /* \"Vesting Contract/version2.sol\":2333:2783  VestingSchedule({... */\n      0xffffffffffffffffffffffffffffffffffffffff\n      and\n      dup2\n      mstore\n      0x20\n      add\n        /* \"Vesting Contract/version2.sol\":2496:2500  true */\n      0x01\n        /* \"Vesting Contract/version2.sol\":2333:2783  VestingSchedule({... */\n      iszero\n      iszero\n      dup2\n      mstore\n      0x20\n      add\n        /* \"Vesting Contract/version2.sol\":2771:2772  0 */\n      0x00\n        /* \"Vesting Contract/version2.sol\":2333:2783  VestingSchedule({... */\n      dup2\n      mstore\n      pop\n        /* \"Vesting Contract/version2.sol\":2297:2783  VestingSchedule memory newVesting = VestingSchedule({... */\n      swap1\n      pop\n        /* \"Vesting Contract/version2.sol\":2793:2801  vestings */\n      0x02\n        /* \"Vesting Contract/version2.sol\":2793:2817  vestings[_beneficiaries] */\n      0x00\n        /* \"Vesting Contract/version2.sol\":2802:2816  _beneficiaries */\n      dup9\n        /* \"Vesting Contract/version2.sol\":2793:2817  vestings[_beneficiaries] */\n      0xffffffffffffffffffffffffffffffffffffffff\n      and\n      0xffffffffffffffffffffffffffffffffffffffff\n      and\n      dup2\n      mstore\n      0x20\n      add\n      swap1\n      dup2\n      mstore\n      0x20\n      add\n      0x00\n      keccak256\n        /* \"Vesting Contract/version2.sol\":2823:2833  newVesting */\n      dup2\n        /* \"Vesting Contract/version2.sol\":2793:2834  vestings[_beneficiaries].push(newVesting) */\n      swap1\n      dup1\n      0x01\n      dup2\n      sload\n      add\n      dup1\n      dup3\n      sstore\n      dup1\n      swap2\n      pop\n      pop\n      0x01\n      swap1\n      sub\n      swap1\n      0x00\n      mstore\n      keccak256(0x00, 0x20)\n      swap1\n      0x0a\n      mul\n      add\n      0x00\n      swap1\n      swap2\n      swap1\n      swap2\n      swap1\n      swap2\n      pop\n      0x00\n      dup3\n      add\n      mload\n      dup2\n      0x00\n      add\n      sstore\n      0x20\n      dup3\n      add\n      mload\n      dup2\n      0x01\n      add\n      sstore\n      0x40\n      dup3\n      add\n      mload\n      dup2\n      0x02\n      add\n      sstore\n      0x60\n      dup3\n      add\n      mload\n      dup2\n      0x03\n      add\n      sstore\n      0x80\n      dup3\n      add\n      mload\n      dup2\n      0x04\n      add\n      sstore\n      0xa0\n      dup3\n      add\n      mload\n      dup2\n      0x05\n      add\n      sstore\n      0xc0\n      dup3\n      add\n      mload\n      dup2\n      0x06\n      add\n      sstore\n      0xe0\n      dup3\n      add\n      mload\n      dup2\n      0x07\n      add\n      exp(0x0100, 0x00)\n      dup2\n      sload\n      dup2\n      0xffffffffffffffffffffffffffffffffffffffff\n      mul\n      not\n      and\n      swap1\n      dup4\n      0xffffffffffffffffffffffffffffffffffffffff\n      and\n      mul\n      or\n      swap1\n      sstore\n      pop\n      0x0100\n      dup3\n      add\n      mload\n      dup2\n      0x08\n      add\n      exp(0x0100, 0x00)\n      dup2\n      sload\n      dup2\n      0xffffffffffffffffffffffffffffffffffffffff\n      mul\n      not\n      and\n      swap1\n      dup4\n      0xffffffffffffffffffffffffffffffffffffffff\n      and\n      mul\n      or\n      swap1\n      sstore\n      pop\n      0x0120\n      dup3\n      add\n      mload\n      dup2\n      0x08\n      add\n      exp(0x0100, 0x14)\n      dup2\n      sload\n      dup2\n      0xff\n      mul\n      not\n      and\n      swap1\n      dup4\n      iszero\n      iszero\n      mul\n      or\n      swap1\n      sstore\n      pop\n      0x0140\n      dup3\n      add\n      mload\n      dup2\n      0x09\n      add\n      sstore\n      pop\n      pop\n        /* \"Vesting Contract/version2.sol\":2858:2872  addressOfToken */\n      dup6\n        /* \"Vesting Contract/version2.sol\":2844:2849  token */\n      0x00\n      dup1\n        /* \"Vesting Contract/version2.sol\":2844:2873  token = ERC20(addressOfToken) */\n      0x0100\n      exp\n      dup2\n      sload\n      dup2\n      0xffffffffffffffffffffffffffffffffffffffff\n      mul\n      not\n      and\n      swap1\n      dup4\n      0xffffffffffffffffffffffffffffffffffffffff\n      and\n      mul\n      or\n      swap1\n      sstore\n      pop\n        /* \"Vesting Contract/version2.sol\":2883:2888  token */\n      0x00\n      dup1\n      sload\n      swap1\n      0x0100\n      exp\n      swap1\n      div\n      0xffffffffffffffffffffffffffffffffffffffff\n      and\n        /* \"Vesting Contract/version2.sol\":2883:2901  token.transferFrom */\n      0xffffffffffffffffffffffffffffffffffffffff\n      and\n      0x23b872dd\n        /* \"Vesting Contract/version2.sol\":2902:2912  msg.sender */\n      caller\n        /* \"Vesting Contract/version2.sol\":2922:2926  this */\n      address\n        /* \"Vesting Contract/version2.sol\":2929:2936  _amount */\n      dup15\n        /* \"Vesting Contract/version2.sol\":2883:2937  token.transferFrom(msg.sender, address(this), _amount) */\n      mload(0x40)\n      dup5\n      0xffffffff\n      and\n      0xe0\n      shl\n      dup2\n      mstore\n      0x04\n      add\n      tag_137\n      swap4\n      swap3\n      swap2\n      swap1\n      tag_138\n      jump\t// in\n    tag_137:\n      0x20\n      mload(0x40)\n      dup1\n      dup4\n      sub\n      dup2\n      0x00\n      dup8\n      gas\n      call\n      iszero\n      dup1\n      iszero\n      tag_140\n      jumpi\n      returndatasize\n      0x00\n      dup1\n      returndatacopy\n      revert(0x00, returndatasize)\n    tag_140:\n      pop\n      pop\n      pop\n      pop\n      mload(0x40)\n      returndatasize\n      not(0x1f)\n      0x1f\n      dup3\n      add\n      and\n      dup3\n      add\n      dup1\n      0x40\n      mstore\n      pop\n      dup2\n      add\n      swap1\n      tag_141\n      swap2\n      swap1\n      tag_92\n      jump\t// in\n    tag_141:\n      pop\n        /* \"Vesting Contract/version2.sol\":2953:3148  VestingLocked(... */\n      0x2c041ae393928af2d7b44a39672d0319629f48c2f248cef083a2a92f4159d07e\n        /* \"Vesting Contract/version2.sol\":2980:2990  msg.sender */\n      caller\n        /* \"Vesting Contract/version2.sol\":3004:3011  _amount */\n      dup13\n        /* \"Vesting Contract/version2.sol\":3025:3034  _duration */\n      dup13\n        /* \"Vesting Contract/version2.sol\":3048:3061  _slice_period */\n      dup13\n        /* \"Vesting Contract/version2.sol\":3075:3090  block.timestamp */\n      timestamp\n        /* \"Vesting Contract/version2.sol\":3104:3110  _cliff */\n      dup14\n        /* \"Vesting Contract/version2.sol\":3124:3138  addressOfToken */\n      dup13\n        /* \"Vesting Contract/version2.sol\":2953:3148  VestingLocked(... */\n      mload(0x40)\n      tag_142\n      swap8\n      swap7\n      swap6\n      swap5\n      swap4\n      swap3\n      swap2\n      swap1\n      tag_143\n      jump\t// in\n    tag_142:\n      mload(0x40)\n      dup1\n      swap2\n      sub\n      swap1\n      log1\n        /* \"Vesting Contract/version2.sol\":2287:3155  {... */\n      pop\n        /* \"Vesting Contract/version2.sol\":2032:3155  function lock(... */\n      pop\n      pop\n      pop\n      pop\n      pop\n      pop\n      pop\n      pop\n      pop\n      pop\n      jump\t// out\n        /* \"Vesting Contract/version2.sol\":4725:4830  function getTotalWhitelist() public view returns (uint256) {... */\n    tag_48:\n        /* \"Vesting Contract/version2.sol\":4775:4782  uint256 */\n      0x00\n        /* \"Vesting Contract/version2.sol\":4801:4816  WhiteListTokens */\n      0x04\n        /* \"Vesting Contract/version2.sol\":4801:4823  WhiteListTokens.length */\n      dup1\n      sload\n      swap1\n      pop\n        /* \"Vesting Contract/version2.sol\":4794:4823  return WhiteListTokens.length */\n      swap1\n      pop\n        /* \"Vesting Contract/version2.sol\":4725:4830  function getTotalWhitelist() public view returns (uint256) {... */\n      swap1\n      jump\t// out\n        /* \"Vesting Contract/version2.sol\":4611:4719  function getTotalVesting() public view returns (uint256) {... */\n    tag_51:\n        /* \"Vesting Contract/version2.sol\":4659:4666  uint256 */\n      0x00\n        /* \"Vesting Contract/version2.sol\":4685:4693  vestings */\n      0x02\n        /* \"Vesting Contract/version2.sol\":4685:4705  vestings[msg.sender] */\n      0x00\n        /* \"Vesting Contract/version2.sol\":4694:4704  msg.sender */\n      caller\n        /* \"Vesting Contract/version2.sol\":4685:4705  vestings[msg.sender] */\n      0xffffffffffffffffffffffffffffffffffffffff\n      and\n      0xffffffffffffffffffffffffffffffffffffffff\n      and\n      dup2\n      mstore\n      0x20\n      add\n      swap1\n      dup2\n      mstore\n      0x20\n      add\n      0x00\n      keccak256\n        /* \"Vesting Contract/version2.sol\":4685:4712  vestings[msg.sender].length */\n      dup1\n      sload\n      swap1\n      pop\n        /* \"Vesting Contract/version2.sol\":4678:4712  return vestings[msg.sender].length */\n      swap1\n      pop\n        /* \"Vesting Contract/version2.sol\":4611:4719  function getTotalVesting() public view returns (uint256) {... */\n      swap1\n      jump\t// out\n        /* \"Vesting Contract/version2.sol\":684:716  address[] public WhiteListTokens */\n    tag_55:\n      0x04\n      dup2\n      dup2\n      sload\n      dup2\n      lt\n      tag_146\n      jumpi\n      0x00\n      dup1\n      revert\n    tag_146:\n      swap1\n      0x00\n      mstore\n      keccak256(0x00, 0x20)\n      add\n      0x00\n      swap2\n      pop\n      sload\n      swap1\n      0x0100\n      exp\n      swap1\n      div\n      0xffffffffffffffffffffffffffffffffffffffff\n      and\n      dup2\n      jump\t// out\n        /* \"Vesting Contract/version2.sol\":890:1105  function addWhitelist(address _add) public onlyOwner {... */\n    tag_60:\n        /* \"Vesting Contract/version2.sol\":789:794  owner */\n      0x01\n      0x00\n      swap1\n      sload\n      swap1\n      0x0100\n      exp\n      swap1\n      div\n      0xffffffffffffffffffffffffffffffffffffffff\n      and\n        /* \"Vesting Contract/version2.sol\":775:794  msg.sender == owner */\n      0xffffffffffffffffffffffffffffffffffffffff\n      and\n        /* \"Vesting Contract/version2.sol\":775:785  msg.sender */\n      caller\n        /* \"Vesting Contract/version2.sol\":775:794  msg.sender == owner */\n      0xffffffffffffffffffffffffffffffffffffffff\n      and\n      eq\n        /* \"Vesting Contract/version2.sol\":754:866  require(... */\n      tag_149\n      jumpi\n      mload(0x40)\n      0x08c379a000000000000000000000000000000000000000000000000000000000\n      dup2\n      mstore\n      0x04\n      add\n      tag_150\n      swap1\n      tag_116\n      jump\t// in\n    tag_150:\n      mload(0x40)\n      dup1\n      swap2\n      sub\n      swap1\n      revert\n    tag_149:\n        /* \"Vesting Contract/version2.sol\":984:988  true */\n      0x01\n        /* \"Vesting Contract/version2.sol\":961:988  CheckWhitelist[_add] !=true */\n      iszero\n      iszero\n        /* \"Vesting Contract/version2.sol\":961:975  CheckWhitelist */\n      0x03\n        /* \"Vesting Contract/version2.sol\":961:981  CheckWhitelist[_add] */\n      0x00\n        /* \"Vesting Contract/version2.sol\":976:980  _add */\n      dup4\n        /* \"Vesting Contract/version2.sol\":961:981  CheckWhitelist[_add] */\n      0xffffffffffffffffffffffffffffffffffffffff\n      and\n      0xffffffffffffffffffffffffffffffffffffffff\n      and\n      dup2\n      mstore\n      0x20\n      add\n      swap1\n      dup2\n      mstore\n      0x20\n      add\n      0x00\n      keccak256\n      0x00\n      swap1\n      sload\n      swap1\n      0x0100\n      exp\n      swap1\n      div\n      0xff\n      and\n        /* \"Vesting Contract/version2.sol\":961:988  CheckWhitelist[_add] !=true */\n      iszero\n      iszero\n      sub\n        /* \"Vesting Contract/version2.sol\":953:1025  require(CheckWhitelist[_add] !=true ,\"Token already added to whitelist\") */\n      tag_152\n      jumpi\n      mload(0x40)\n      0x08c379a000000000000000000000000000000000000000000000000000000000\n      dup2\n      mstore\n      0x04\n      add\n      tag_153\n      swap1\n      tag_154\n      jump\t// in\n    tag_153:\n      mload(0x40)\n      dup1\n      swap2\n      sub\n      swap1\n      revert\n    tag_152:\n        /* \"Vesting Contract/version2.sol\":1058:1062  true */\n      0x01\n        /* \"Vesting Contract/version2.sol\":1035:1049  CheckWhitelist */\n      0x03\n        /* \"Vesting Contract/version2.sol\":1035:1055  CheckWhitelist[_add] */\n      0x00\n        /* \"Vesting Contract/version2.sol\":1050:1054  _add */\n      dup4\n        /* \"Vesting Contract/version2.sol\":1035:1055  CheckWhitelist[_add] */\n      0xffffffffffffffffffffffffffffffffffffffff\n      and\n      0xffffffffffffffffffffffffffffffffffffffff\n      and\n      dup2\n      mstore\n      0x20\n      add\n      swap1\n      dup2\n      mstore\n      0x20\n      add\n      0x00\n      keccak256\n      0x00\n        /* \"Vesting Contract/version2.sol\":1035:1062  CheckWhitelist[_add] = true */\n      0x0100\n      exp\n      dup2\n      sload\n      dup2\n      0xff\n      mul\n      not\n      and\n      swap1\n      dup4\n      iszero\n      iszero\n      mul\n      or\n      swap1\n      sstore\n      pop\n        /* \"Vesting Contract/version2.sol\":1072:1087  WhiteListTokens */\n      0x04\n        /* \"Vesting Contract/version2.sol\":1093:1097  _add */\n      dup2\n        /* \"Vesting Contract/version2.sol\":1072:1098  WhiteListTokens.push(_add) */\n      swap1\n      dup1\n      0x01\n      dup2\n      sload\n      add\n      dup1\n      dup3\n      sstore\n      dup1\n      swap2\n      pop\n      pop\n      0x01\n      swap1\n      sub\n      swap1\n      0x00\n      mstore\n      keccak256(0x00, 0x20)\n      add\n      0x00\n      swap1\n      swap2\n      swap1\n      swap2\n      swap1\n      swap2\n      0x0100\n      exp\n      dup2\n      sload\n      dup2\n      0xffffffffffffffffffffffffffffffffffffffff\n      mul\n      not\n      and\n      swap1\n      dup4\n      0xffffffffffffffffffffffffffffffffffffffff\n      and\n      mul\n      or\n      swap1\n      sstore\n      pop\n        /* \"Vesting Contract/version2.sol\":890:1105  function addWhitelist(address _add) public onlyOwner {... */\n      pop\n      jump\t// out\n        /* \"Vesting Contract/version2.sol\":145:163  ERC20 public token */\n    tag_62:\n      0x00\n      dup1\n      sload\n      swap1\n      0x0100\n      exp\n      swap1\n      div\n      0xffffffffffffffffffffffffffffffffffffffff\n      and\n      dup2\n      jump\t// out\n        /* \"#utility.yul\":88:205   */\n    tag_157:\n        /* \"#utility.yul\":197:198   */\n      0x00\n        /* \"#utility.yul\":194:195   */\n      dup1\n        /* \"#utility.yul\":187:199   */\n      revert\n        /* \"#utility.yul\":334:411   */\n    tag_159:\n        /* \"#utility.yul\":371:378   */\n      0x00\n        /* \"#utility.yul\":400:405   */\n      dup2\n        /* \"#utility.yul\":389:405   */\n      swap1\n      pop\n        /* \"#utility.yul\":334:411   */\n      swap2\n      swap1\n      pop\n      jump\t// out\n        /* \"#utility.yul\":417:539   */\n    tag_160:\n        /* \"#utility.yul\":490:514   */\n      tag_206\n        /* \"#utility.yul\":508:513   */\n      dup2\n        /* \"#utility.yul\":490:514   */\n      tag_159\n      jump\t// in\n    tag_206:\n        /* \"#utility.yul\":483:488   */\n      dup2\n        /* \"#utility.yul\":480:515   */\n      eq\n        /* \"#utility.yul\":470:533   */\n      tag_207\n      jumpi\n        /* \"#utility.yul\":529:530   */\n      0x00\n        /* \"#utility.yul\":526:527   */\n      dup1\n        /* \"#utility.yul\":519:531   */\n      revert\n        /* \"#utility.yul\":470:533   */\n    tag_207:\n        /* \"#utility.yul\":417:539   */\n      pop\n      jump\t// out\n        /* \"#utility.yul\":545:684   */\n    tag_161:\n        /* \"#utility.yul\":591:596   */\n      0x00\n        /* \"#utility.yul\":629:635   */\n      dup2\n        /* \"#utility.yul\":616:636   */\n      calldataload\n        /* \"#utility.yul\":607:636   */\n      swap1\n      pop\n        /* \"#utility.yul\":645:678   */\n      tag_209\n        /* \"#utility.yul\":672:677   */\n      dup2\n        /* \"#utility.yul\":645:678   */\n      tag_160\n      jump\t// in\n    tag_209:\n        /* \"#utility.yul\":545:684   */\n      swap3\n      swap2\n      pop\n      pop\n      jump\t// out\n        /* \"#utility.yul\":690:1019   */\n    tag_18:\n        /* \"#utility.yul\":749:755   */\n      0x00\n        /* \"#utility.yul\":798:800   */\n      0x20\n        /* \"#utility.yul\":786:795   */\n      dup3\n        /* \"#utility.yul\":777:784   */\n      dup5\n        /* \"#utility.yul\":773:796   */\n      sub\n        /* \"#utility.yul\":769:801   */\n      slt\n        /* \"#utility.yul\":766:885   */\n      iszero\n      tag_211\n      jumpi\n        /* \"#utility.yul\":804:883   */\n      tag_212\n      tag_157\n      jump\t// in\n    tag_212:\n        /* \"#utility.yul\":766:885   */\n    tag_211:\n        /* \"#utility.yul\":924:925   */\n      0x00\n        /* \"#utility.yul\":949:1002   */\n      tag_213\n        /* \"#utility.yul\":994:1001   */\n      dup5\n        /* \"#utility.yul\":985:991   */\n      dup3\n        /* \"#utility.yul\":974:983   */\n      dup6\n        /* \"#utility.yul\":970:992   */\n      add\n        /* \"#utility.yul\":949:1002   */\n      tag_161\n      jump\t// in\n    tag_213:\n        /* \"#utility.yul\":939:1002   */\n      swap2\n      pop\n        /* \"#utility.yul\":895:1012   */\n      pop\n        /* \"#utility.yul\":690:1019   */\n      swap3\n      swap2\n      pop\n      pop\n      jump\t// out\n        /* \"#utility.yul\":1025:1143   */\n    tag_162:\n        /* \"#utility.yul\":1112:1136   */\n      tag_215\n        /* \"#utility.yul\":1130:1135   */\n      dup2\n        /* \"#utility.yul\":1112:1136   */\n      tag_159\n      jump\t// in\n    tag_215:\n        /* \"#utility.yul\":1107:1110   */\n      dup3\n        /* \"#utility.yul\":1100:1137   */\n      mstore\n        /* \"#utility.yul\":1025:1143   */\n      pop\n      pop\n      jump\t// out\n        /* \"#utility.yul\":1149:1371   */\n    tag_23:\n        /* \"#utility.yul\":1242:1246   */\n      0x00\n        /* \"#utility.yul\":1280:1282   */\n      0x20\n        /* \"#utility.yul\":1269:1278   */\n      dup3\n        /* \"#utility.yul\":1265:1283   */\n      add\n        /* \"#utility.yul\":1257:1283   */\n      swap1\n      pop\n        /* \"#utility.yul\":1293:1364   */\n      tag_217\n        /* \"#utility.yul\":1361:1362   */\n      0x00\n        /* \"#utility.yul\":1350:1359   */\n      dup4\n        /* \"#utility.yul\":1346:1363   */\n      add\n        /* \"#utility.yul\":1337:1343   */\n      dup5\n        /* \"#utility.yul\":1293:1364   */\n      tag_162\n      jump\t// in\n    tag_217:\n        /* \"#utility.yul\":1149:1371   */\n      swap3\n      swap2\n      pop\n      pop\n      jump\t// out\n        /* \"#utility.yul\":1377:1503   */\n    tag_163:\n        /* \"#utility.yul\":1414:1421   */\n      0x00\n        /* \"#utility.yul\":1454:1496   */\n      0xffffffffffffffffffffffffffffffffffffffff\n        /* \"#utility.yul\":1447:1452   */\n      dup3\n        /* \"#utility.yul\":1443:1497   */\n      and\n        /* \"#utility.yul\":1432:1497   */\n      swap1\n      pop\n        /* \"#utility.yul\":1377:1503   */\n      swap2\n      swap1\n      pop\n      jump\t// out\n        /* \"#utility.yul\":1509:1605   */\n    tag_164:\n        /* \"#utility.yul\":1546:1553   */\n      0x00\n        /* \"#utility.yul\":1575:1599   */\n      tag_220\n        /* \"#utility.yul\":1593:1598   */\n      dup3\n        /* \"#utility.yul\":1575:1599   */\n      tag_163\n      jump\t// in\n    tag_220:\n        /* \"#utility.yul\":1564:1599   */\n      swap1\n      pop\n        /* \"#utility.yul\":1509:1605   */\n      swap2\n      swap1\n      pop\n      jump\t// out\n        /* \"#utility.yul\":1611:1733   */\n    tag_165:\n        /* \"#utility.yul\":1684:1708   */\n      tag_222\n        /* \"#utility.yul\":1702:1707   */\n      dup2\n        /* \"#utility.yul\":1684:1708   */\n      tag_164\n      jump\t// in\n    tag_222:\n        /* \"#utility.yul\":1677:1682   */\n      dup2\n        /* \"#utility.yul\":1674:1709   */\n      eq\n        /* \"#utility.yul\":1664:1727   */\n      tag_223\n      jumpi\n        /* \"#utility.yul\":1723:1724   */\n      0x00\n        /* \"#utility.yul\":1720:1721   */\n      dup1\n        /* \"#utility.yul\":1713:1725   */\n      revert\n        /* \"#utility.yul\":1664:1727   */\n    tag_223:\n        /* \"#utility.yul\":1611:1733   */\n      pop\n      jump\t// out\n        /* \"#utility.yul\":1739:1878   */\n    tag_166:\n        /* \"#utility.yul\":1785:1790   */\n      0x00\n        /* \"#utility.yul\":1823:1829   */\n      dup2\n        /* \"#utility.yul\":1810:1830   */\n      calldataload\n        /* \"#utility.yul\":1801:1830   */\n      swap1\n      pop\n        /* \"#utility.yul\":1839:1872   */\n      tag_225\n        /* \"#utility.yul\":1866:1871   */\n      dup2\n        /* \"#utility.yul\":1839:1872   */\n      tag_165\n      jump\t// in\n    tag_225:\n        /* \"#utility.yul\":1739:1878   */\n      swap3\n      swap2\n      pop\n      pop\n      jump\t// out\n        /* \"#utility.yul\":1884:2213   */\n    tag_30:\n        /* \"#utility.yul\":1943:1949   */\n      0x00\n        /* \"#utility.yul\":1992:1994   */\n      0x20\n        /* \"#utility.yul\":1980:1989   */\n      dup3\n        /* \"#utility.yul\":1971:1978   */\n      dup5\n        /* \"#utility.yul\":1967:1990   */\n      sub\n        /* \"#utility.yul\":1963:1995   */\n      slt\n        /* \"#utility.yul\":1960:2079   */\n      iszero\n      tag_227\n      jumpi\n        /* \"#utility.yul\":1998:2077   */\n      tag_228\n      tag_157\n      jump\t// in\n    tag_228:\n        /* \"#utility.yul\":1960:2079   */\n    tag_227:\n        /* \"#utility.yul\":2118:2119   */\n      0x00\n        /* \"#utility.yul\":2143:2196   */\n      tag_229\n        /* \"#utility.yul\":2188:2195   */\n      dup5\n        /* \"#utility.yul\":2179:2185   */\n      dup3\n        /* \"#utility.yul\":2168:2177   */\n      dup6\n        /* \"#utility.yul\":2164:2186   */\n      add\n        /* \"#utility.yul\":2143:2196   */\n      tag_166\n      jump\t// in\n    tag_229:\n        /* \"#utility.yul\":2133:2196   */\n      swap2\n      pop\n        /* \"#utility.yul\":2089:2206   */\n      pop\n        /* \"#utility.yul\":1884:2213   */\n      swap3\n      swap2\n      pop\n      pop\n      jump\t// out\n        /* \"#utility.yul\":2219:2309   */\n    tag_167:\n        /* \"#utility.yul\":2253:2260   */\n      0x00\n        /* \"#utility.yul\":2296:2301   */\n      dup2\n        /* \"#utility.yul\":2289:2302   */\n      iszero\n        /* \"#utility.yul\":2282:2303   */\n      iszero\n        /* \"#utility.yul\":2271:2303   */\n      swap1\n      pop\n        /* \"#utility.yul\":2219:2309   */\n      swap2\n      swap1\n      pop\n      jump\t// out\n        /* \"#utility.yul\":2315:2424   */\n    tag_168:\n        /* \"#utility.yul\":2396:2417   */\n      tag_232\n        /* \"#utility.yul\":2411:2416   */\n      dup2\n        /* \"#utility.yul\":2396:2417   */\n      tag_167\n      jump\t// in\n    tag_232:\n        /* \"#utility.yul\":2391:2394   */\n      dup3\n        /* \"#utility.yul\":2384:2418   */\n      mstore\n        /* \"#utility.yul\":2315:2424   */\n      pop\n      pop\n      jump\t// out\n        /* \"#utility.yul\":2430:2640   */\n    tag_36:\n        /* \"#utility.yul\":2517:2521   */\n      0x00\n        /* \"#utility.yul\":2555:2557   */\n      0x20\n        /* \"#utility.yul\":2544:2553   */\n      dup3\n        /* \"#utility.yul\":2540:2558   */\n      add\n        /* \"#utility.yul\":2532:2558   */\n      swap1\n      pop\n        /* \"#utility.yul\":2568:2633   */\n      tag_234\n        /* \"#utility.yul\":2630:2631   */\n      0x00\n        /* \"#utility.yul\":2619:2628   */\n      dup4\n        /* \"#utility.yul\":2615:2632   */\n      add\n        /* \"#utility.yul\":2606:2612   */\n      dup5\n        /* \"#utility.yul\":2568:2633   */\n      tag_168\n      jump\t// in\n    tag_234:\n        /* \"#utility.yul\":2430:2640   */\n      swap3\n      swap2\n      pop\n      pop\n      jump\t// out\n        /* \"#utility.yul\":2646:3120   */\n    tag_39:\n        /* \"#utility.yul\":2714:2720   */\n      0x00\n        /* \"#utility.yul\":2722:2728   */\n      dup1\n        /* \"#utility.yul\":2771:2773   */\n      0x40\n        /* \"#utility.yul\":2759:2768   */\n      dup4\n        /* \"#utility.yul\":2750:2757   */\n      dup6\n        /* \"#utility.yul\":2746:2769   */\n      sub\n        /* \"#utility.yul\":2742:2774   */\n      slt\n        /* \"#utility.yul\":2739:2858   */\n      iszero\n      tag_236\n      jumpi\n        /* \"#utility.yul\":2777:2856   */\n      tag_237\n      tag_157\n      jump\t// in\n    tag_237:\n        /* \"#utility.yul\":2739:2858   */\n    tag_236:\n        /* \"#utility.yul\":2897:2898   */\n      0x00\n        /* \"#utility.yul\":2922:2975   */\n      tag_238\n        /* \"#utility.yul\":2967:2974   */\n      dup6\n        /* \"#utility.yul\":2958:2964   */\n      dup3\n        /* \"#utility.yul\":2947:2956   */\n      dup7\n        /* \"#utility.yul\":2943:2965   */\n      add\n        /* \"#utility.yul\":2922:2975   */\n      tag_166\n      jump\t// in\n    tag_238:\n        /* \"#utility.yul\":2912:2975   */\n      swap3\n      pop\n        /* \"#utility.yul\":2868:2985   */\n      pop\n        /* \"#utility.yul\":3024:3026   */\n      0x20\n        /* \"#utility.yul\":3050:3103   */\n      tag_239\n        /* \"#utility.yul\":3095:3102   */\n      dup6\n        /* \"#utility.yul\":3086:3092   */\n      dup3\n        /* \"#utility.yul\":3075:3084   */\n      dup7\n        /* \"#utility.yul\":3071:3093   */\n      add\n        /* \"#utility.yul\":3050:3103   */\n      tag_161\n      jump\t// in\n    tag_239:\n        /* \"#utility.yul\":3040:3103   */\n      swap2\n      pop\n        /* \"#utility.yul\":2995:3113   */\n      pop\n        /* \"#utility.yul\":2646:3120   */\n      swap3\n      pop\n      swap3\n      swap1\n      pop\n      jump\t// out\n        /* \"#utility.yul\":3126:3244   */\n    tag_169:\n        /* \"#utility.yul\":3213:3237   */\n      tag_241\n        /* \"#utility.yul\":3231:3236   */\n      dup2\n        /* \"#utility.yul\":3213:3237   */\n      tag_164\n      jump\t// in\n    tag_241:\n        /* \"#utility.yul\":3208:3211   */\n      dup3\n        /* \"#utility.yul\":3201:3238   */\n      mstore\n        /* \"#utility.yul\":3126:3244   */\n      pop\n      pop\n      jump\t// out\n        /* \"#utility.yul\":3250:4570   */\n    tag_42:\n        /* \"#utility.yul\":3618:3622   */\n      0x00\n        /* \"#utility.yul\":3656:3659   */\n      0x0160\n        /* \"#utility.yul\":3645:3654   */\n      dup3\n        /* \"#utility.yul\":3641:3660   */\n      add\n        /* \"#utility.yul\":3633:3660   */\n      swap1\n      pop\n        /* \"#utility.yul\":3670:3741   */\n      tag_243\n        /* \"#utility.yul\":3738:3739   */\n      0x00\n        /* \"#utility.yul\":3727:3736   */\n      dup4\n        /* \"#utility.yul\":3723:3740   */\n      add\n        /* \"#utility.yul\":3714:3720   */\n      dup15\n        /* \"#utility.yul\":3670:3741   */\n      tag_162\n      jump\t// in\n    tag_243:\n        /* \"#utility.yul\":3751:3823   */\n      tag_244\n        /* \"#utility.yul\":3819:3821   */\n      0x20\n        /* \"#utility.yul\":3808:3817   */\n      dup4\n        /* \"#utility.yul\":3804:3822   */\n      add\n        /* \"#utility.yul\":3795:3801   */\n      dup14\n        /* \"#utility.yul\":3751:3823   */\n      tag_162\n      jump\t// in\n    tag_244:\n        /* \"#utility.yul\":3833:3905   */\n      tag_245\n        /* \"#utility.yul\":3901:3903   */\n      0x40\n        /* \"#utility.yul\":3890:3899   */\n      dup4\n        /* \"#utility.yul\":3886:3904   */\n      add\n        /* \"#utility.yul\":3877:3883   */\n      dup13\n        /* \"#utility.yul\":3833:3905   */\n      tag_162\n      jump\t// in\n    tag_245:\n        /* \"#utility.yul\":3915:3987   */\n      tag_246\n        /* \"#utility.yul\":3983:3985   */\n      0x60\n        /* \"#utility.yul\":3972:3981   */\n      dup4\n        /* \"#utility.yul\":3968:3986   */\n      add\n        /* \"#utility.yul\":3959:3965   */\n      dup12\n        /* \"#utility.yul\":3915:3987   */\n      tag_162\n      jump\t// in\n    tag_246:\n        /* \"#utility.yul\":3997:4070   */\n      tag_247\n        /* \"#utility.yul\":4065:4068   */\n      0x80\n        /* \"#utility.yul\":4054:4063   */\n      dup4\n        /* \"#utility.yul\":4050:4069   */\n      add\n        /* \"#utility.yul\":4041:4047   */\n      dup11\n        /* \"#utility.yul\":3997:4070   */\n      tag_162\n      jump\t// in\n    tag_247:\n        /* \"#utility.yul\":4080:4153   */\n      tag_248\n        /* \"#utility.yul\":4148:4151   */\n      0xa0\n        /* \"#utility.yul\":4137:4146   */\n      dup4\n        /* \"#utility.yul\":4133:4152   */\n      add\n        /* \"#utility.yul\":4124:4130   */\n      dup10\n        /* \"#utility.yul\":4080:4153   */\n      tag_162\n      jump\t// in\n    tag_248:\n        /* \"#utility.yul\":4163:4236   */\n      tag_249\n        /* \"#utility.yul\":4231:4234   */\n      0xc0\n        /* \"#utility.yul\":4220:4229   */\n      dup4\n        /* \"#utility.yul\":4216:4235   */\n      add\n        /* \"#utility.yul\":4207:4213   */\n      dup9\n        /* \"#utility.yul\":4163:4236   */\n      tag_162\n      jump\t// in\n    tag_249:\n        /* \"#utility.yul\":4246:4319   */\n      tag_250\n        /* \"#utility.yul\":4314:4317   */\n      0xe0\n        /* \"#utility.yul\":4303:4312   */\n      dup4\n        /* \"#utility.yul\":4299:4318   */\n      add\n        /* \"#utility.yul\":4290:4296   */\n      dup8\n        /* \"#utility.yul\":4246:4319   */\n      tag_169\n      jump\t// in\n    tag_250:\n        /* \"#utility.yul\":4329:4402   */\n      tag_251\n        /* \"#utility.yul\":4397:4400   */\n      0x0100\n        /* \"#utility.yul\":4386:4395   */\n      dup4\n        /* \"#utility.yul\":4382:4401   */\n      add\n        /* \"#utility.yul\":4373:4379   */\n      dup7\n        /* \"#utility.yul\":4329:4402   */\n      tag_169\n      jump\t// in\n    tag_251:\n        /* \"#utility.yul\":4412:4479   */\n      tag_252\n        /* \"#utility.yul\":4474:4477   */\n      0x0120\n        /* \"#utility.yul\":4463:4472   */\n      dup4\n        /* \"#utility.yul\":4459:4478   */\n      add\n        /* \"#utility.yul\":4450:4456   */\n      dup6\n        /* \"#utility.yul\":4412:4479   */\n      tag_168\n      jump\t// in\n    tag_252:\n        /* \"#utility.yul\":4489:4563   */\n      tag_253\n        /* \"#utility.yul\":4558:4561   */\n      0x0140\n        /* \"#utility.yul\":4547:4556   */\n      dup4\n        /* \"#utility.yul\":4543:4562   */\n      add\n        /* \"#utility.yul\":4533:4540   */\n      dup5\n        /* \"#utility.yul\":4489:4563   */\n      tag_162\n      jump\t// in\n    tag_253:\n        /* \"#utility.yul\":3250:4570   */\n      swap13\n      swap12\n      pop\n      pop\n      pop\n      pop\n      pop\n      pop\n      pop\n      pop\n      pop\n      pop\n      pop\n      pop\n      jump\t// out\n        /* \"#utility.yul\":4576:5633   */\n    tag_45:\n        /* \"#utility.yul\":4680:4686   */\n      0x00\n        /* \"#utility.yul\":4688:4694   */\n      dup1\n        /* \"#utility.yul\":4696:4702   */\n      0x00\n        /* \"#utility.yul\":4704:4710   */\n      dup1\n        /* \"#utility.yul\":4712:4718   */\n      0x00\n        /* \"#utility.yul\":4720:4726   */\n      dup1\n        /* \"#utility.yul\":4769:4772   */\n      0xc0\n        /* \"#utility.yul\":4757:4766   */\n      dup8\n        /* \"#utility.yul\":4748:4755   */\n      dup10\n        /* \"#utility.yul\":4744:4767   */\n      sub\n        /* \"#utility.yul\":4740:4773   */\n      slt\n        /* \"#utility.yul\":4737:4857   */\n      iszero\n      tag_255\n      jumpi\n        /* \"#utility.yul\":4776:4855   */\n      tag_256\n      tag_157\n      jump\t// in\n    tag_256:\n        /* \"#utility.yul\":4737:4857   */\n    tag_255:\n        /* \"#utility.yul\":4896:4897   */\n      0x00\n        /* \"#utility.yul\":4921:4974   */\n      tag_257\n        /* \"#utility.yul\":4966:4973   */\n      dup10\n        /* \"#utility.yul\":4957:4963   */\n      dup3\n        /* \"#utility.yul\":4946:4955   */\n      dup11\n        /* \"#utility.yul\":4942:4964   */\n      add\n        /* \"#utility.yul\":4921:4974   */\n      tag_161\n      jump\t// in\n    tag_257:\n        /* \"#utility.yul\":4911:4974   */\n      swap7\n      pop\n        /* \"#utility.yul\":4867:4984   */\n      pop\n        /* \"#utility.yul\":5023:5025   */\n      0x20\n        /* \"#utility.yul\":5049:5102   */\n      tag_258\n        /* \"#utility.yul\":5094:5101   */\n      dup10\n        /* \"#utility.yul\":5085:5091   */\n      dup3\n        /* \"#utility.yul\":5074:5083   */\n      dup11\n        /* \"#utility.yul\":5070:5092   */\n      add\n        /* \"#utility.yul\":5049:5102   */\n      tag_161\n      jump\t// in\n    tag_258:\n        /* \"#utility.yul\":5039:5102   */\n      swap6\n      pop\n        /* \"#utility.yul\":4994:5112   */\n      pop\n        /* \"#utility.yul\":5151:5153   */\n      0x40\n        /* \"#utility.yul\":5177:5230   */\n      tag_259\n        /* \"#utility.yul\":5222:5229   */\n      dup10\n        /* \"#utility.yul\":5213:5219   */\n      dup3\n        /* \"#utility.yul\":5202:5211   */\n      dup11\n        /* \"#utility.yul\":5198:5220   */\n      add\n        /* \"#utility.yul\":5177:5230   */\n      tag_161\n      jump\t// in\n    tag_259:\n        /* \"#utility.yul\":5167:5230   */\n      swap5\n      pop\n        /* \"#utility.yul\":5122:5240   */\n      pop\n        /* \"#utility.yul\":5279:5281   */\n      0x60\n        /* \"#utility.yul\":5305:5358   */\n      tag_260\n        /* \"#utility.yul\":5350:5357   */\n      dup10\n        /* \"#utility.yul\":5341:5347   */\n      dup3\n        /* \"#utility.yul\":5330:5339   */\n      dup11\n        /* \"#utility.yul\":5326:5348   */\n      add\n        /* \"#utility.yul\":5305:5358   */\n      tag_161\n      jump\t// in\n    tag_260:\n        /* \"#utility.yul\":5295:5358   */\n      swap4\n      pop\n        /* \"#utility.yul\":5250:5368   */\n      pop\n        /* \"#utility.yul\":5407:5410   */\n      0x80\n        /* \"#utility.yul\":5434:5487   */\n      tag_261\n        /* \"#utility.yul\":5479:5486   */\n      dup10\n        /* \"#utility.yul\":5470:5476   */\n      dup3\n        /* \"#utility.yul\":5459:5468   */\n      dup11\n        /* \"#utility.yul\":5455:5477   */\n      add\n        /* \"#utility.yul\":5434:5487   */\n      tag_166\n      jump\t// in\n    tag_261:\n        /* \"#utility.yul\":5424:5487   */\n      swap3\n      pop\n        /* \"#utility.yul\":5378:5497   */\n      pop\n        /* \"#utility.yul\":5536:5539   */\n      0xa0\n        /* \"#utility.yul\":5563:5616   */\n      tag_262\n        /* \"#utility.yul\":5608:5615   */\n      dup10\n        /* \"#utility.yul\":5599:5605   */\n      dup3\n        /* \"#utility.yul\":5588:5597   */\n      dup11\n        /* \"#utility.yul\":5584:5606   */\n      add\n        /* \"#utility.yul\":5563:5616   */\n      tag_166\n      jump\t// in\n    tag_262:\n        /* \"#utility.yul\":5553:5616   */\n      swap2\n      pop\n        /* \"#utility.yul\":5507:5626   */\n      pop\n        /* \"#utility.yul\":4576:5633   */\n      swap3\n      swap6\n      pop\n      swap3\n      swap6\n      pop\n      swap3\n      swap6\n      jump\t// out\n        /* \"#utility.yul\":5639:5861   */\n    tag_57:\n        /* \"#utility.yul\":5732:5736   */\n      0x00\n        /* \"#utility.yul\":5770:5772   */\n      0x20\n        /* \"#utility.yul\":5759:5768   */\n      dup3\n        /* \"#utility.yul\":5755:5773   */\n      add\n        /* \"#utility.yul\":5747:5773   */\n      swap1\n      pop\n        /* \"#utility.yul\":5783:5854   */\n      tag_264\n        /* \"#utility.yul\":5851:5852   */\n      0x00\n        /* \"#utility.yul\":5840:5849   */\n      dup4\n        /* \"#utility.yul\":5836:5853   */\n      add\n        /* \"#utility.yul\":5827:5833   */\n      dup5\n        /* \"#utility.yul\":5783:5854   */\n      tag_169\n      jump\t// in\n    tag_264:\n        /* \"#utility.yul\":5639:5861   */\n      swap3\n      swap2\n      pop\n      pop\n      jump\t// out\n        /* \"#utility.yul\":5867:5927   */\n    tag_170:\n        /* \"#utility.yul\":5895:5898   */\n      0x00\n        /* \"#utility.yul\":5916:5921   */\n      dup2\n        /* \"#utility.yul\":5909:5921   */\n      swap1\n      pop\n        /* \"#utility.yul\":5867:5927   */\n      swap2\n      swap1\n      pop\n      jump\t// out\n        /* \"#utility.yul\":5933:6075   */\n    tag_171:\n        /* \"#utility.yul\":5983:5992   */\n      0x00\n        /* \"#utility.yul\":6016:6069   */\n      tag_267\n        /* \"#utility.yul\":6034:6068   */\n      tag_268\n        /* \"#utility.yul\":6043:6067   */\n      tag_269\n        /* \"#utility.yul\":6061:6066   */\n      dup5\n        /* \"#utility.yul\":6043:6067   */\n      tag_163\n      jump\t// in\n    tag_269:\n        /* \"#utility.yul\":6034:6068   */\n      tag_170\n      jump\t// in\n    tag_268:\n        /* \"#utility.yul\":6016:6069   */\n      tag_163\n      jump\t// in\n    tag_267:\n        /* \"#utility.yul\":6003:6069   */\n      swap1\n      pop\n        /* \"#utility.yul\":5933:6075   */\n      swap2\n      swap1\n      pop\n      jump\t// out\n        /* \"#utility.yul\":6081:6207   */\n    tag_172:\n        /* \"#utility.yul\":6131:6140   */\n      0x00\n        /* \"#utility.yul\":6164:6201   */\n      tag_271\n        /* \"#utility.yul\":6195:6200   */\n      dup3\n        /* \"#utility.yul\":6164:6201   */\n      tag_171\n      jump\t// in\n    tag_271:\n        /* \"#utility.yul\":6151:6201   */\n      swap1\n      pop\n        /* \"#utility.yul\":6081:6207   */\n      swap2\n      swap1\n      pop\n      jump\t// out\n        /* \"#utility.yul\":6213:6352   */\n    tag_173:\n        /* \"#utility.yul\":6276:6285   */\n      0x00\n        /* \"#utility.yul\":6309:6346   */\n      tag_273\n        /* \"#utility.yul\":6340:6345   */\n      dup3\n        /* \"#utility.yul\":6309:6346   */\n      tag_172\n      jump\t// in\n    tag_273:\n        /* \"#utility.yul\":6296:6346   */\n      swap1\n      pop\n        /* \"#utility.yul\":6213:6352   */\n      swap2\n      swap1\n      pop\n      jump\t// out\n        /* \"#utility.yul\":6358:6515   */\n    tag_174:\n        /* \"#utility.yul\":6458:6508   */\n      tag_275\n        /* \"#utility.yul\":6502:6507   */\n      dup2\n        /* \"#utility.yul\":6458:6508   */\n      tag_173\n      jump\t// in\n    tag_275:\n        /* \"#utility.yul\":6453:6456   */\n      dup3\n        /* \"#utility.yul\":6446:6509   */\n      mstore\n        /* \"#utility.yul\":6358:6515   */\n      pop\n      pop\n      jump\t// out\n        /* \"#utility.yul\":6521:6769   */\n    tag_64:\n        /* \"#utility.yul\":6627:6631   */\n      0x00\n        /* \"#utility.yul\":6665:6667   */\n      0x20\n        /* \"#utility.yul\":6654:6663   */\n      dup3\n        /* \"#utility.yul\":6650:6668   */\n      add\n        /* \"#utility.yul\":6642:6668   */\n      swap1\n      pop\n        /* \"#utility.yul\":6678:6762   */\n      tag_277\n        /* \"#utility.yul\":6759:6760   */\n      0x00\n        /* \"#utility.yul\":6748:6757   */\n      dup4\n        /* \"#utility.yul\":6744:6761   */\n      add\n        /* \"#utility.yul\":6735:6741   */\n      dup5\n        /* \"#utility.yul\":6678:6762   */\n      tag_174\n      jump\t// in\n    tag_277:\n        /* \"#utility.yul\":6521:6769   */\n      swap3\n      swap2\n      pop\n      pop\n      jump\t// out\n        /* \"#utility.yul\":6775:6955   */\n    tag_68:\n        /* \"#utility.yul\":6823:6900   */\n      0x4e487b7100000000000000000000000000000000000000000000000000000000\n        /* \"#utility.yul\":6820:6821   */\n      0x00\n        /* \"#utility.yul\":6813:6901   */\n      mstore\n        /* \"#utility.yul\":6920:6924   */\n      0x32\n        /* \"#utility.yul\":6917:6918   */\n      0x04\n        /* \"#utility.yul\":6910:6925   */\n      mstore\n        /* \"#utility.yul\":6944:6948   */\n      0x24\n        /* \"#utility.yul\":6941:6942   */\n      0x00\n        /* \"#utility.yul\":6934:6949   */\n      revert\n        /* \"#utility.yul\":6961:7130   */\n    tag_175:\n        /* \"#utility.yul\":7045:7056   */\n      0x00\n        /* \"#utility.yul\":7079:7085   */\n      dup3\n        /* \"#utility.yul\":7074:7077   */\n      dup3\n        /* \"#utility.yul\":7067:7086   */\n      mstore\n        /* \"#utility.yul\":7119:7123   */\n      0x20\n        /* \"#utility.yul\":7114:7117   */\n      dup3\n        /* \"#utility.yul\":7110:7124   */\n      add\n        /* \"#utility.yul\":7095:7124   */\n      swap1\n      pop\n        /* \"#utility.yul\":6961:7130   */\n      swap3\n      swap2\n      pop\n      pop\n      jump\t// out\n        /* \"#utility.yul\":7136:7312   */\n    tag_176:\n        /* \"#utility.yul\":7276:7304   */\n      0x46756e64732068617665206e6f74206265656e206c6f636b6564000000000000\n        /* \"#utility.yul\":7272:7273   */\n      0x00\n        /* \"#utility.yul\":7264:7270   */\n      dup3\n        /* \"#utility.yul\":7260:7274   */\n      add\n        /* \"#utility.yul\":7253:7305   */\n      mstore\n        /* \"#utility.yul\":7136:7312   */\n      pop\n      jump\t// out\n        /* \"#utility.yul\":7318:7684   */\n    tag_177:\n        /* \"#utility.yul\":7460:7463   */\n      0x00\n        /* \"#utility.yul\":7481:7548   */\n      tag_282\n        /* \"#utility.yul\":7545:7547   */\n      0x1a\n        /* \"#utility.yul\":7540:7543   */\n      dup4\n        /* \"#utility.yul\":7481:7548   */\n      tag_175\n      jump\t// in\n    tag_282:\n        /* \"#utility.yul\":7474:7548   */\n      swap2\n      pop\n        /* \"#utility.yul\":7557:7650   */\n      tag_283\n        /* \"#utility.yul\":7646:7649   */\n      dup3\n        /* \"#utility.yul\":7557:7650   */\n      tag_176\n      jump\t// in\n    tag_283:\n        /* \"#utility.yul\":7675:7677   */\n      0x20\n        /* \"#utility.yul\":7670:7673   */\n      dup3\n        /* \"#utility.yul\":7666:7678   */\n      add\n        /* \"#utility.yul\":7659:7678   */\n      swap1\n      pop\n        /* \"#utility.yul\":7318:7684   */\n      swap2\n      swap1\n      pop\n      jump\t// out\n        /* \"#utility.yul\":7690:8109   */\n    tag_72:\n        /* \"#utility.yul\":7856:7860   */\n      0x00\n        /* \"#utility.yul\":7894:7896   */\n      0x20\n        /* \"#utility.yul\":7883:7892   */\n      dup3\n        /* \"#utility.yul\":7879:7897   */\n      add\n        /* \"#utility.yul\":7871:7897   */\n      swap1\n      pop\n        /* \"#utility.yul\":7943:7952   */\n      dup2\n        /* \"#utility.yul\":7937:7941   */\n      dup2\n        /* \"#utility.yul\":7933:7953   */\n      sub\n        /* \"#utility.yul\":7929:7930   */\n      0x00\n        /* \"#utility.yul\":7918:7927   */\n      dup4\n        /* \"#utility.yul\":7914:7931   */\n      add\n        /* \"#utility.yul\":7907:7954   */\n      mstore\n        /* \"#utility.yul\":7971:8102   */\n      tag_285\n        /* \"#utility.yul\":8097:8101   */\n      dup2\n        /* \"#utility.yul\":7971:8102   */\n      tag_177\n      jump\t// in\n    tag_285:\n        /* \"#utility.yul\":7963:8102   */\n      swap1\n      pop\n        /* \"#utility.yul\":7690:8109   */\n      swap2\n      swap1\n      pop\n      jump\t// out\n        /* \"#utility.yul\":8115:8335   */\n    tag_178:\n        /* \"#utility.yul\":8255:8289   */\n      0x546f6b656e20756e646572206c6f636b696e6720706c6561736520776169742e\n        /* \"#utility.yul\":8251:8252   */\n      0x00\n        /* \"#utility.yul\":8243:8249   */\n      dup3\n        /* \"#utility.yul\":8239:8253   */\n      add\n        /* \"#utility.yul\":8232:8290   */\n      mstore\n        /* \"#utility.yul\":8324:8327   */\n      0x2e00000000000000000000000000000000000000000000000000000000000000\n        /* \"#utility.yul\":8319:8321   */\n      0x20\n        /* \"#utility.yul\":8311:8317   */\n      dup3\n        /* \"#utility.yul\":8307:8322   */\n      add\n        /* \"#utility.yul\":8300:8328   */\n      mstore\n        /* \"#utility.yul\":8115:8335   */\n      pop\n      jump\t// out\n        /* \"#utility.yul\":8341:8707   */\n    tag_179:\n        /* \"#utility.yul\":8483:8486   */\n      0x00\n        /* \"#utility.yul\":8504:8571   */\n      tag_288\n        /* \"#utility.yul\":8568:8570   */\n      0x21\n        /* \"#utility.yul\":8563:8566   */\n      dup4\n        /* \"#utility.yul\":8504:8571   */\n      tag_175\n      jump\t// in\n    tag_288:\n        /* \"#utility.yul\":8497:8571   */\n      swap2\n      pop\n        /* \"#utility.yul\":8580:8673   */\n      tag_289\n        /* \"#utility.yul\":8669:8672   */\n      dup3\n        /* \"#utility.yul\":8580:8673   */\n      tag_178\n      jump\t// in\n    tag_289:\n        /* \"#utility.yul\":8698:8700   */\n      0x40\n        /* \"#utility.yul\":8693:8696   */\n      dup3\n        /* \"#utility.yul\":8689:8701   */\n      add\n        /* \"#utility.yul\":8682:8701   */\n      swap1\n      pop\n        /* \"#utility.yul\":8341:8707   */\n      swap2\n      swap1\n      pop\n      jump\t// out\n        /* \"#utility.yul\":8713:9132   */\n    tag_76:\n        /* \"#utility.yul\":8879:8883   */\n      0x00\n        /* \"#utility.yul\":8917:8919   */\n      0x20\n        /* \"#utility.yul\":8906:8915   */\n      dup3\n        /* \"#utility.yul\":8902:8920   */\n      add\n        /* \"#utility.yul\":8894:8920   */\n      swap1\n      pop\n        /* \"#utility.yul\":8966:8975   */\n      dup2\n        /* \"#utility.yul\":8960:8964   */\n      dup2\n        /* \"#utility.yul\":8956:8976   */\n      sub\n        /* \"#utility.yul\":8952:8953   */\n      0x00\n        /* \"#utility.yul\":8941:8950   */\n      dup4\n        /* \"#utility.yul\":8937:8954   */\n      add\n        /* \"#utility.yul\":8930:8977   */\n      mstore\n        /* \"#utility.yul\":8994:9125   */\n      tag_291\n        /* \"#utility.yul\":9120:9124   */\n      dup2\n        /* \"#utility.yul\":8994:9125   */\n      tag_179\n      jump\t// in\n    tag_291:\n        /* \"#utility.yul\":8986:9125   */\n      swap1\n      pop\n        /* \"#utility.yul\":8713:9132   */\n      swap2\n      swap1\n      pop\n      jump\t// out\n        /* \"#utility.yul\":9138:9318   */\n    tag_180:\n        /* \"#utility.yul\":9186:9263   */\n      0x4e487b7100000000000000000000000000000000000000000000000000000000\n        /* \"#utility.yul\":9183:9184   */\n      0x00\n        /* \"#utility.yul\":9176:9264   */\n      mstore\n        /* \"#utility.yul\":9283:9287   */\n      0x11\n        /* \"#utility.yul\":9280:9281   */\n      0x04\n        /* \"#utility.yul\":9273:9288   */\n      mstore\n        /* \"#utility.yul\":9307:9311   */\n      0x24\n        /* \"#utility.yul\":9304:9305   */\n      0x00\n        /* \"#utility.yul\":9297:9312   */\n      revert\n        /* \"#utility.yul\":9324:9515   */\n    tag_79:\n        /* \"#utility.yul\":9364:9367   */\n      0x00\n        /* \"#utility.yul\":9383:9403   */\n      tag_294\n        /* \"#utility.yul\":9401:9402   */\n      dup3\n        /* \"#utility.yul\":9383:9403   */\n      tag_159\n      jump\t// in\n    tag_294:\n        /* \"#utility.yul\":9378:9403   */\n      swap2\n      pop\n        /* \"#utility.yul\":9417:9437   */\n      tag_295\n        /* \"#utility.yul\":9435:9436   */\n      dup4\n        /* \"#utility.yul\":9417:9437   */\n      tag_159\n      jump\t// in\n    tag_295:\n        /* \"#utility.yul\":9412:9437   */\n      swap3\n      pop\n        /* \"#utility.yul\":9460:9461   */\n      dup3\n        /* \"#utility.yul\":9457:9458   */\n      dup3\n        /* \"#utility.yul\":9453:9462   */\n      add\n        /* \"#utility.yul\":9446:9462   */\n      swap1\n      pop\n        /* \"#utility.yul\":9481:9484   */\n      dup1\n        /* \"#utility.yul\":9478:9479   */\n      dup3\n        /* \"#utility.yul\":9475:9485   */\n      gt\n        /* \"#utility.yul\":9472:9508   */\n      iszero\n      tag_296\n      jumpi\n        /* \"#utility.yul\":9488:9506   */\n      tag_297\n      tag_180\n      jump\t// in\n    tag_297:\n        /* \"#utility.yul\":9472:9508   */\n    tag_296:\n        /* \"#utility.yul\":9324:9515   */\n      swap3\n      swap2\n      pop\n      pop\n      jump\t// out\n        /* \"#utility.yul\":9521:9694   */\n    tag_181:\n        /* \"#utility.yul\":9661:9686   */\n      0x436c696666206973206e6f7420656e646564207965742e000000000000000000\n        /* \"#utility.yul\":9657:9658   */\n      0x00\n        /* \"#utility.yul\":9649:9655   */\n      dup3\n        /* \"#utility.yul\":9645:9659   */\n      add\n        /* \"#utility.yul\":9638:9687   */\n      mstore\n        /* \"#utility.yul\":9521:9694   */\n      pop\n      jump\t// out\n        /* \"#utility.yul\":9700:10066   */\n    tag_182:\n        /* \"#utility.yul\":9842:9845   */\n      0x00\n        /* \"#utility.yul\":9863:9930   */\n      tag_300\n        /* \"#utility.yul\":9927:9929   */\n      0x17\n        /* \"#utility.yul\":9922:9925   */\n      dup4\n        /* \"#utility.yul\":9863:9930   */\n      tag_175\n      jump\t// in\n    tag_300:\n        /* \"#utility.yul\":9856:9930   */\n      swap2\n      pop\n        /* \"#utility.yul\":9939:10032   */\n      tag_301\n        /* \"#utility.yul\":10028:10031   */\n      dup3\n        /* \"#utility.yul\":9939:10032   */\n      tag_181\n      jump\t// in\n    tag_301:\n        /* \"#utility.yul\":10057:10059   */\n      0x20\n        /* \"#utility.yul\":10052:10055   */\n      dup3\n        /* \"#utility.yul\":10048:10060   */\n      add\n        /* \"#utility.yul\":10041:10060   */\n      swap1\n      pop\n        /* \"#utility.yul\":9700:10066   */\n      swap2\n      swap1\n      pop\n      jump\t// out\n        /* \"#utility.yul\":10072:10491   */\n    tag_82:\n        /* \"#utility.yul\":10238:10242   */\n      0x00\n        /* \"#utility.yul\":10276:10278   */\n      0x20\n        /* \"#utility.yul\":10265:10274   */\n      dup3\n        /* \"#utility.yul\":10261:10279   */\n      add\n        /* \"#utility.yul\":10253:10279   */\n      swap1\n      pop\n        /* \"#utility.yul\":10325:10334   */\n      dup2\n        /* \"#utility.yul\":10319:10323   */\n      dup2\n        /* \"#utility.yul\":10315:10335   */\n      sub\n        /* \"#utility.yul\":10311:10312   */\n      0x00\n        /* \"#utility.yul\":10300:10309   */\n      dup4\n        /* \"#utility.yul\":10296:10313   */\n      add\n        /* \"#utility.yul\":10289:10336   */\n      mstore\n        /* \"#utility.yul\":10353:10484   */\n      tag_303\n        /* \"#utility.yul\":10479:10483   */\n      dup2\n        /* \"#utility.yul\":10353:10484   */\n      tag_182\n      jump\t// in\n    tag_303:\n        /* \"#utility.yul\":10345:10484   */\n      swap1\n      pop\n        /* \"#utility.yul\":10072:10491   */\n      swap2\n      swap1\n      pop\n      jump\t// out\n        /* \"#utility.yul\":10497:10677   */\n    tag_183:\n        /* \"#utility.yul\":10637:10669   */\n      0x4e6f7420656e6f75676820616d6f756e7420666f722077697468647261770000\n        /* \"#utility.yul\":10633:10634   */\n      0x00\n        /* \"#utility.yul\":10625:10631   */\n      dup3\n        /* \"#utility.yul\":10621:10635   */\n      add\n        /* \"#utility.yul\":10614:10670   */\n      mstore\n        /* \"#utility.yul\":10497:10677   */\n      pop\n      jump\t// out\n        /* \"#utility.yul\":10683:11049   */\n    tag_184:\n        /* \"#utility.yul\":10825:10828   */\n      0x00\n        /* \"#utility.yul\":10846:10913   */\n      tag_306\n        /* \"#utility.yul\":10910:10912   */\n      0x1e\n        /* \"#utility.yul\":10905:10908   */\n      dup4\n        /* \"#utility.yul\":10846:10913   */\n      tag_175\n      jump\t// in\n    tag_306:\n        /* \"#utility.yul\":10839:10913   */\n      swap2\n      pop\n        /* \"#utility.yul\":10922:11015   */\n      tag_307\n        /* \"#utility.yul\":11011:11014   */\n      dup3\n        /* \"#utility.yul\":10922:11015   */\n      tag_183\n      jump\t// in\n    tag_307:\n        /* \"#utility.yul\":11040:11042   */\n      0x20\n        /* \"#utility.yul\":11035:11038   */\n      dup3\n        /* \"#utility.yul\":11031:11043   */\n      add\n        /* \"#utility.yul\":11024:11043   */\n      swap1\n      pop\n        /* \"#utility.yul\":10683:11049   */\n      swap2\n      swap1\n      pop\n      jump\t// out\n        /* \"#utility.yul\":11055:11474   */\n    tag_86:\n        /* \"#utility.yul\":11221:11225   */\n      0x00\n        /* \"#utility.yul\":11259:11261   */\n      0x20\n        /* \"#utility.yul\":11248:11257   */\n      dup3\n        /* \"#utility.yul\":11244:11262   */\n      add\n        /* \"#utility.yul\":11236:11262   */\n      swap1\n      pop\n        /* \"#utility.yul\":11308:11317   */\n      dup2\n        /* \"#utility.yul\":11302:11306   */\n      dup2\n        /* \"#utility.yul\":11298:11318   */\n      sub\n        /* \"#utility.yul\":11294:11295   */\n      0x00\n        /* \"#utility.yul\":11283:11292   */\n      dup4\n        /* \"#utility.yul\":11279:11296   */\n      add\n        /* \"#utility.yul\":11272:11319   */\n      mstore\n        /* \"#utility.yul\":11336:11467   */\n      tag_309\n        /* \"#utility.yul\":11462:11466   */\n      dup2\n        /* \"#utility.yul\":11336:11467   */\n      tag_184\n      jump\t// in\n    tag_309:\n        /* \"#utility.yul\":11328:11467   */\n      swap1\n      pop\n        /* \"#utility.yul\":11055:11474   */\n      swap2\n      swap1\n      pop\n      jump\t// out\n        /* \"#utility.yul\":11480:11812   */\n    tag_88:\n        /* \"#utility.yul\":11601:11605   */\n      0x00\n        /* \"#utility.yul\":11639:11641   */\n      0x40\n        /* \"#utility.yul\":11628:11637   */\n      dup3\n        /* \"#utility.yul\":11624:11642   */\n      add\n        /* \"#utility.yul\":11616:11642   */\n      swap1\n      pop\n        /* \"#utility.yul\":11652:11723   */\n      tag_311\n        /* \"#utility.yul\":11720:11721   */\n      0x00\n        /* \"#utility.yul\":11709:11718   */\n      dup4\n        /* \"#utility.yul\":11705:11722   */\n      add\n        /* \"#utility.yul\":11696:11702   */\n      dup6\n        /* \"#utility.yul\":11652:11723   */\n      tag_169\n      jump\t// in\n    tag_311:\n        /* \"#utility.yul\":11733:11805   */\n      tag_312\n        /* \"#utility.yul\":11801:11803   */\n      0x20\n        /* \"#utility.yul\":11790:11799   */\n      dup4\n        /* \"#utility.yul\":11786:11804   */\n      add\n        /* \"#utility.yul\":11777:11783   */\n      dup5\n        /* \"#utility.yul\":11733:11805   */\n      tag_162\n      jump\t// in\n    tag_312:\n        /* \"#utility.yul\":11480:11812   */\n      swap4\n      swap3\n      pop\n      pop\n      pop\n      jump\t// out\n        /* \"#utility.yul\":11818:11934   */\n    tag_185:\n        /* \"#utility.yul\":11888:11909   */\n      tag_314\n        /* \"#utility.yul\":11903:11908   */\n      dup2\n        /* \"#utility.yul\":11888:11909   */\n      tag_167\n      jump\t// in\n    tag_314:\n        /* \"#utility.yul\":11881:11886   */\n      dup2\n        /* \"#utility.yul\":11878:11910   */\n      eq\n        /* \"#utility.yul\":11868:11928   */\n      tag_315\n      jumpi\n        /* \"#utility.yul\":11924:11925   */\n      0x00\n        /* \"#utility.yul\":11921:11922   */\n      dup1\n        /* \"#utility.yul\":11914:11926   */\n      revert\n        /* \"#utility.yul\":11868:11928   */\n    tag_315:\n        /* \"#utility.yul\":11818:11934   */\n      pop\n      jump\t// out\n        /* \"#utility.yul\":11940:12077   */\n    tag_186:\n        /* \"#utility.yul\":11994:11999   */\n      0x00\n        /* \"#utility.yul\":12025:12031   */\n      dup2\n        /* \"#utility.yul\":12019:12032   */\n      mload\n        /* \"#utility.yul\":12010:12032   */\n      swap1\n      pop\n        /* \"#utility.yul\":12041:12071   */\n      tag_317\n        /* \"#utility.yul\":12065:12070   */\n      dup2\n        /* \"#utility.yul\":12041:12071   */\n      tag_185\n      jump\t// in\n    tag_317:\n        /* \"#utility.yul\":11940:12077   */\n      swap3\n      swap2\n      pop\n      pop\n      jump\t// out\n        /* \"#utility.yul\":12083:12428   */\n    tag_92:\n        /* \"#utility.yul\":12150:12156   */\n      0x00\n        /* \"#utility.yul\":12199:12201   */\n      0x20\n        /* \"#utility.yul\":12187:12196   */\n      dup3\n        /* \"#utility.yul\":12178:12185   */\n      dup5\n        /* \"#utility.yul\":12174:12197   */\n      sub\n        /* \"#utility.yul\":12170:12202   */\n      slt\n        /* \"#utility.yul\":12167:12286   */\n      iszero\n      tag_319\n      jumpi\n        /* \"#utility.yul\":12205:12284   */\n      tag_320\n      tag_157\n      jump\t// in\n    tag_320:\n        /* \"#utility.yul\":12167:12286   */\n    tag_319:\n        /* \"#utility.yul\":12325:12326   */\n      0x00\n        /* \"#utility.yul\":12350:12411   */\n      tag_321\n        /* \"#utility.yul\":12403:12410   */\n      dup5\n        /* \"#utility.yul\":12394:12400   */\n      dup3\n        /* \"#utility.yul\":12383:12392   */\n      dup6\n        /* \"#utility.yul\":12379:12401   */\n      add\n        /* \"#utility.yul\":12350:12411   */\n      tag_186\n      jump\t// in\n    tag_321:\n        /* \"#utility.yul\":12340:12411   */\n      swap2\n      pop\n        /* \"#utility.yul\":12296:12421   */\n      pop\n        /* \"#utility.yul\":12083:12428   */\n      swap3\n      swap2\n      pop\n      pop\n      jump\t// out\n        /* \"#utility.yul\":12434:12628   */\n    tag_95:\n        /* \"#utility.yul\":12474:12478   */\n      0x00\n        /* \"#utility.yul\":12494:12514   */\n      tag_323\n        /* \"#utility.yul\":12512:12513   */\n      dup3\n        /* \"#utility.yul\":12494:12514   */\n      tag_159\n      jump\t// in\n    tag_323:\n        /* \"#utility.yul\":12489:12514   */\n      swap2\n      pop\n        /* \"#utility.yul\":12528:12548   */\n      tag_324\n        /* \"#utility.yul\":12546:12547   */\n      dup4\n        /* \"#utility.yul\":12528:12548   */\n      tag_159\n      jump\t// in\n    tag_324:\n        /* \"#utility.yul\":12523:12548   */\n      swap3\n      pop\n        /* \"#utility.yul\":12572:12573   */\n      dup3\n        /* \"#utility.yul\":12569:12570   */\n      dup3\n        /* \"#utility.yul\":12565:12574   */\n      sub\n        /* \"#utility.yul\":12557:12574   */\n      swap1\n      pop\n        /* \"#utility.yul\":12596:12597   */\n      dup2\n        /* \"#utility.yul\":12590:12594   */\n      dup2\n        /* \"#utility.yul\":12587:12598   */\n      gt\n        /* \"#utility.yul\":12584:12621   */\n      iszero\n      tag_325\n      jumpi\n        /* \"#utility.yul\":12601:12619   */\n      tag_326\n      tag_180\n      jump\t// in\n    tag_326:\n        /* \"#utility.yul\":12584:12621   */\n    tag_325:\n        /* \"#utility.yul\":12434:12628   */\n      swap3\n      swap2\n      pop\n      pop\n      jump\t// out\n        /* \"#utility.yul\":12634:13076   */\n    tag_98:\n        /* \"#utility.yul\":12783:12787   */\n      0x00\n        /* \"#utility.yul\":12821:12823   */\n      0x60\n        /* \"#utility.yul\":12810:12819   */\n      dup3\n        /* \"#utility.yul\":12806:12824   */\n      add\n        /* \"#utility.yul\":12798:12824   */\n      swap1\n      pop\n        /* \"#utility.yul\":12834:12905   */\n      tag_328\n        /* \"#utility.yul\":12902:12903   */\n      0x00\n        /* \"#utility.yul\":12891:12900   */\n      dup4\n        /* \"#utility.yul\":12887:12904   */\n      add\n        /* \"#utility.yul\":12878:12884   */\n      dup7\n        /* \"#utility.yul\":12834:12905   */\n      tag_169\n      jump\t// in\n    tag_328:\n        /* \"#utility.yul\":12915:12987   */\n      tag_329\n        /* \"#utility.yul\":12983:12985   */\n      0x20\n        /* \"#utility.yul\":12972:12981   */\n      dup4\n        /* \"#utility.yul\":12968:12986   */\n      add\n        /* \"#utility.yul\":12959:12965   */\n      dup6\n        /* \"#utility.yul\":12915:12987   */\n      tag_162\n      jump\t// in\n    tag_329:\n        /* \"#utility.yul\":12997:13069   */\n      tag_330\n        /* \"#utility.yul\":13065:13067   */\n      0x40\n        /* \"#utility.yul\":13054:13063   */\n      dup4\n        /* \"#utility.yul\":13050:13068   */\n      add\n        /* \"#utility.yul\":13041:13047   */\n      dup5\n        /* \"#utility.yul\":12997:13069   */\n      tag_162\n      jump\t// in\n    tag_330:\n        /* \"#utility.yul\":12634:13076   */\n      swap5\n      swap4\n      pop\n      pop\n      pop\n      pop\n      jump\t// out\n        /* \"#utility.yul\":13082:13262   */\n    tag_187:\n        /* \"#utility.yul\":13130:13207   */\n      0x4e487b7100000000000000000000000000000000000000000000000000000000\n        /* \"#utility.yul\":13127:13128   */\n      0x00\n        /* \"#utility.yul\":13120:13208   */\n      mstore\n        /* \"#utility.yul\":13227:13231   */\n      0x12\n        /* \"#utility.yul\":13224:13225   */\n      0x04\n        /* \"#utility.yul\":13217:13232   */\n      mstore\n        /* \"#utility.yul\":13251:13255   */\n      0x24\n        /* \"#utility.yul\":13248:13249   */\n      0x00\n        /* \"#utility.yul\":13241:13256   */\n      revert\n        /* \"#utility.yul\":13268:13453   */\n    tag_107:\n        /* \"#utility.yul\":13308:13309   */\n      0x00\n        /* \"#utility.yul\":13325:13345   */\n      tag_333\n        /* \"#utility.yul\":13343:13344   */\n      dup3\n        /* \"#utility.yul\":13325:13345   */\n      tag_159\n      jump\t// in\n    tag_333:\n        /* \"#utility.yul\":13320:13345   */\n      swap2\n      pop\n        /* \"#utility.yul\":13359:13379   */\n      tag_334\n        /* \"#utility.yul\":13377:13378   */\n      dup4\n        /* \"#utility.yul\":13359:13379   */\n      tag_159\n      jump\t// in\n    tag_334:\n        /* \"#utility.yul\":13354:13379   */\n      swap3\n      pop\n        /* \"#utility.yul\":13398:13399   */\n      dup3\n        /* \"#utility.yul\":13388:13423   */\n      tag_335\n      jumpi\n        /* \"#utility.yul\":13403:13421   */\n      tag_336\n      tag_187\n      jump\t// in\n    tag_336:\n        /* \"#utility.yul\":13388:13423   */\n    tag_335:\n        /* \"#utility.yul\":13445:13446   */\n      dup3\n        /* \"#utility.yul\":13442:13443   */\n      dup3\n        /* \"#utility.yul\":13438:13447   */\n      div\n        /* \"#utility.yul\":13433:13447   */\n      swap1\n      pop\n        /* \"#utility.yul\":13268:13453   */\n      swap3\n      swap2\n      pop\n      pop\n      jump\t// out\n        /* \"#utility.yul\":13459:13869   */\n    tag_109:\n        /* \"#utility.yul\":13499:13506   */\n      0x00\n        /* \"#utility.yul\":13522:13542   */\n      tag_338\n        /* \"#utility.yul\":13540:13541   */\n      dup3\n        /* \"#utility.yul\":13522:13542   */\n      tag_159\n      jump\t// in\n    tag_338:\n        /* \"#utility.yul\":13517:13542   */\n      swap2\n      pop\n        /* \"#utility.yul\":13556:13576   */\n      tag_339\n        /* \"#utility.yul\":13574:13575   */\n      dup4\n        /* \"#utility.yul\":13556:13576   */\n      tag_159\n      jump\t// in\n    tag_339:\n        /* \"#utility.yul\":13551:13576   */\n      swap3\n      pop\n        /* \"#utility.yul\":13611:13612   */\n      dup3\n        /* \"#utility.yul\":13608:13609   */\n      dup3\n        /* \"#utility.yul\":13604:13613   */\n      mul\n        /* \"#utility.yul\":13633:13663   */\n      tag_340\n        /* \"#utility.yul\":13651:13662   */\n      dup2\n        /* \"#utility.yul\":13633:13663   */\n      tag_159\n      jump\t// in\n    tag_340:\n        /* \"#utility.yul\":13622:13663   */\n      swap2\n      pop\n        /* \"#utility.yul\":13812:13813   */\n      dup3\n        /* \"#utility.yul\":13803:13810   */\n      dup3\n        /* \"#utility.yul\":13799:13814   */\n      div\n        /* \"#utility.yul\":13796:13797   */\n      dup5\n        /* \"#utility.yul\":13793:13815   */\n      eq\n        /* \"#utility.yul\":13773:13774   */\n      dup4\n        /* \"#utility.yul\":13766:13775   */\n      iszero\n        /* \"#utility.yul\":13746:13829   */\n      or\n        /* \"#utility.yul\":13723:13862   */\n      tag_341\n      jumpi\n        /* \"#utility.yul\":13842:13860   */\n      tag_342\n      tag_180\n      jump\t// in\n    tag_342:\n        /* \"#utility.yul\":13723:13862   */\n    tag_341:\n        /* \"#utility.yul\":13507:13869   */\n      pop\n        /* \"#utility.yul\":13459:13869   */\n      swap3\n      swap2\n      pop\n      pop\n      jump\t// out\n        /* \"#utility.yul\":13875:14108   */\n    tag_188:\n        /* \"#utility.yul\":14015:14049   */\n      0x4f6e6c792074686520636f6e7472616374206f776e65722063616e2063616c6c\n        /* \"#utility.yul\":14011:14012   */\n      0x00\n        /* \"#utility.yul\":14003:14009   */\n      dup3\n        /* \"#utility.yul\":13999:14013   */\n      add\n        /* \"#utility.yul\":13992:14050   */\n      mstore\n        /* \"#utility.yul\":14084:14100   */\n      0x20746869732066756e6374696f6e000000000000000000000000000000000000\n        /* \"#utility.yul\":14079:14081   */\n      0x20\n        /* \"#utility.yul\":14071:14077   */\n      dup3\n        /* \"#utility.yul\":14067:14082   */\n      add\n        /* \"#utility.yul\":14060:14101   */\n      mstore\n        /* \"#utility.yul\":13875:14108   */\n      pop\n      jump\t// out\n        /* \"#utility.yul\":14114:14480   */\n    tag_189:\n        /* \"#utility.yul\":14256:14259   */\n      0x00\n        /* \"#utility.yul\":14277:14344   */\n      tag_345\n        /* \"#utility.yul\":14341:14343   */\n      0x2e\n        /* \"#utility.yul\":14336:14339   */\n      dup4\n        /* \"#utility.yul\":14277:14344   */\n      tag_175\n      jump\t// in\n    tag_345:\n        /* \"#utility.yul\":14270:14344   */\n      swap2\n      pop\n        /* \"#utility.yul\":14353:14446   */\n      tag_346\n        /* \"#utility.yul\":14442:14445   */\n      dup3\n        /* \"#utility.yul\":14353:14446   */\n      tag_188\n      jump\t// in\n    tag_346:\n        /* \"#utility.yul\":14471:14473   */\n      0x40\n        /* \"#utility.yul\":14466:14469   */\n      dup3\n        /* \"#utility.yul\":14462:14474   */\n      add\n        /* \"#utility.yul\":14455:14474   */\n      swap1\n      pop\n        /* \"#utility.yul\":14114:14480   */\n      swap2\n      swap1\n      pop\n      jump\t// out\n        /* \"#utility.yul\":14486:14905   */\n    tag_116:\n        /* \"#utility.yul\":14652:14656   */\n      0x00\n        /* \"#utility.yul\":14690:14692   */\n      0x20\n        /* \"#utility.yul\":14679:14688   */\n      dup3\n        /* \"#utility.yul\":14675:14693   */\n      add\n        /* \"#utility.yul\":14667:14693   */\n      swap1\n      pop\n        /* \"#utility.yul\":14739:14748   */\n      dup2\n        /* \"#utility.yul\":14733:14737   */\n      dup2\n        /* \"#utility.yul\":14729:14749   */\n      sub\n        /* \"#utility.yul\":14725:14726   */\n      0x00\n        /* \"#utility.yul\":14714:14723   */\n      dup4\n        /* \"#utility.yul\":14710:14727   */\n      add\n        /* \"#utility.yul\":14703:14750   */\n      mstore\n        /* \"#utility.yul\":14767:14898   */\n      tag_348\n        /* \"#utility.yul\":14893:14897   */\n      dup2\n        /* \"#utility.yul\":14767:14898   */\n      tag_189\n      jump\t// in\n    tag_348:\n        /* \"#utility.yul\":14759:14898   */\n      swap1\n      pop\n        /* \"#utility.yul\":14486:14905   */\n      swap2\n      swap1\n      pop\n      jump\t// out\n        /* \"#utility.yul\":14911:15086   */\n    tag_190:\n        /* \"#utility.yul\":15051:15078   */\n      0x546f6b656e206973206e6f7420696e2077686974656c69737400000000000000\n        /* \"#utility.yul\":15047:15048   */\n      0x00\n        /* \"#utility.yul\":15039:15045   */\n      dup3\n        /* \"#utility.yul\":15035:15049   */\n      add\n        /* \"#utility.yul\":15028:15079   */\n      mstore\n        /* \"#utility.yul\":14911:15086   */\n      pop\n      jump\t// out\n        /* \"#utility.yul\":15092:15458   */\n    tag_191:\n        /* \"#utility.yul\":15234:15237   */\n      0x00\n        /* \"#utility.yul\":15255:15322   */\n      tag_351\n        /* \"#utility.yul\":15319:15321   */\n      0x19\n        /* \"#utility.yul\":15314:15317   */\n      dup4\n        /* \"#utility.yul\":15255:15322   */\n      tag_175\n      jump\t// in\n    tag_351:\n        /* \"#utility.yul\":15248:15322   */\n      swap2\n      pop\n        /* \"#utility.yul\":15331:15424   */\n      tag_352\n        /* \"#utility.yul\":15420:15423   */\n      dup3\n        /* \"#utility.yul\":15331:15424   */\n      tag_190\n      jump\t// in\n    tag_352:\n        /* \"#utility.yul\":15449:15451   */\n      0x20\n        /* \"#utility.yul\":15444:15447   */\n      dup3\n        /* \"#utility.yul\":15440:15452   */\n      add\n        /* \"#utility.yul\":15433:15452   */\n      swap1\n      pop\n        /* \"#utility.yul\":15092:15458   */\n      swap2\n      swap1\n      pop\n      jump\t// out\n        /* \"#utility.yul\":15464:15883   */\n    tag_120:\n        /* \"#utility.yul\":15630:15634   */\n      0x00\n        /* \"#utility.yul\":15668:15670   */\n      0x20\n        /* \"#utility.yul\":15657:15666   */\n      dup3\n        /* \"#utility.yul\":15653:15671   */\n      add\n        /* \"#utility.yul\":15645:15671   */\n      swap1\n      pop\n        /* \"#utility.yul\":15717:15726   */\n      dup2\n        /* \"#utility.yul\":15711:15715   */\n      dup2\n        /* \"#utility.yul\":15707:15727   */\n      sub\n        /* \"#utility.yul\":15703:15704   */\n      0x00\n        /* \"#utility.yul\":15692:15701   */\n      dup4\n        /* \"#utility.yul\":15688:15705   */\n      add\n        /* \"#utility.yul\":15681:15728   */\n      mstore\n        /* \"#utility.yul\":15745:15876   */\n      tag_354\n        /* \"#utility.yul\":15871:15875   */\n      dup2\n        /* \"#utility.yul\":15745:15876   */\n      tag_191\n      jump\t// in\n    tag_354:\n        /* \"#utility.yul\":15737:15876   */\n      swap1\n      pop\n        /* \"#utility.yul\":15464:15883   */\n      swap2\n      swap1\n      pop\n      jump\t// out\n        /* \"#utility.yul\":15889:16057   */\n    tag_192:\n        /* \"#utility.yul\":16029:16049   */\n      0x416d6f756e74206e6f74206265205a65726f0000000000000000000000000000\n        /* \"#utility.yul\":16025:16026   */\n      0x00\n        /* \"#utility.yul\":16017:16023   */\n      dup3\n        /* \"#utility.yul\":16013:16027   */\n      add\n        /* \"#utility.yul\":16006:16050   */\n      mstore\n        /* \"#utility.yul\":15889:16057   */\n      pop\n      jump\t// out\n        /* \"#utility.yul\":16063:16429   */\n    tag_193:\n        /* \"#utility.yul\":16205:16208   */\n      0x00\n        /* \"#utility.yul\":16226:16293   */\n      tag_357\n        /* \"#utility.yul\":16290:16292   */\n      0x12\n        /* \"#utility.yul\":16285:16288   */\n      dup4\n        /* \"#utility.yul\":16226:16293   */\n      tag_175\n      jump\t// in\n    tag_357:\n        /* \"#utility.yul\":16219:16293   */\n      swap2\n      pop\n        /* \"#utility.yul\":16302:16395   */\n      tag_358\n        /* \"#utility.yul\":16391:16394   */\n      dup3\n        /* \"#utility.yul\":16302:16395   */\n      tag_192\n      jump\t// in\n    tag_358:\n        /* \"#utility.yul\":16420:16422   */\n      0x20\n        /* \"#utility.yul\":16415:16418   */\n      dup3\n        /* \"#utility.yul\":16411:16423   */\n      add\n        /* \"#utility.yul\":16404:16423   */\n      swap1\n      pop\n        /* \"#utility.yul\":16063:16429   */\n      swap2\n      swap1\n      pop\n      jump\t// out\n        /* \"#utility.yul\":16435:16854   */\n    tag_126:\n        /* \"#utility.yul\":16601:16605   */\n      0x00\n        /* \"#utility.yul\":16639:16641   */\n      0x20\n        /* \"#utility.yul\":16628:16637   */\n      dup3\n        /* \"#utility.yul\":16624:16642   */\n      add\n        /* \"#utility.yul\":16616:16642   */\n      swap1\n      pop\n        /* \"#utility.yul\":16688:16697   */\n      dup2\n        /* \"#utility.yul\":16682:16686   */\n      dup2\n        /* \"#utility.yul\":16678:16698   */\n      sub\n        /* \"#utility.yul\":16674:16675   */\n      0x00\n        /* \"#utility.yul\":16663:16672   */\n      dup4\n        /* \"#utility.yul\":16659:16676   */\n      add\n        /* \"#utility.yul\":16652:16699   */\n      mstore\n        /* \"#utility.yul\":16716:16847   */\n      tag_360\n        /* \"#utility.yul\":16842:16846   */\n      dup2\n        /* \"#utility.yul\":16716:16847   */\n      tag_193\n      jump\t// in\n    tag_360:\n        /* \"#utility.yul\":16708:16847   */\n      swap1\n      pop\n        /* \"#utility.yul\":16435:16854   */\n      swap2\n      swap1\n      pop\n      jump\t// out\n        /* \"#utility.yul\":16860:17088   */\n    tag_194:\n        /* \"#utility.yul\":17000:17034   */\n      0x596f7520617265206e6f7420616c6c6f77656420746f20757365207468697320\n        /* \"#utility.yul\":16996:16997   */\n      0x00\n        /* \"#utility.yul\":16988:16994   */\n      dup3\n        /* \"#utility.yul\":16984:16998   */\n      add\n        /* \"#utility.yul\":16977:17035   */\n      mstore\n        /* \"#utility.yul\":17069:17080   */\n      0x636f6e74726163742e0000000000000000000000000000000000000000000000\n        /* \"#utility.yul\":17064:17066   */\n      0x20\n        /* \"#utility.yul\":17056:17062   */\n      dup3\n        /* \"#utility.yul\":17052:17067   */\n      add\n        /* \"#utility.yul\":17045:17081   */\n      mstore\n        /* \"#utility.yul\":16860:17088   */\n      pop\n      jump\t// out\n        /* \"#utility.yul\":17094:17460   */\n    tag_195:\n        /* \"#utility.yul\":17236:17239   */\n      0x00\n        /* \"#utility.yul\":17257:17324   */\n      tag_363\n        /* \"#utility.yul\":17321:17323   */\n      0x29\n        /* \"#utility.yul\":17316:17319   */\n      dup4\n        /* \"#utility.yul\":17257:17324   */\n      tag_175\n      jump\t// in\n    tag_363:\n        /* \"#utility.yul\":17250:17324   */\n      swap2\n      pop\n        /* \"#utility.yul\":17333:17426   */\n      tag_364\n        /* \"#utility.yul\":17422:17425   */\n      dup3\n        /* \"#utility.yul\":17333:17426   */\n      tag_194\n      jump\t// in\n    tag_364:\n        /* \"#utility.yul\":17451:17453   */\n      0x40\n        /* \"#utility.yul\":17446:17449   */\n      dup3\n        /* \"#utility.yul\":17442:17454   */\n      add\n        /* \"#utility.yul\":17435:17454   */\n      swap1\n      pop\n        /* \"#utility.yul\":17094:17460   */\n      swap2\n      swap1\n      pop\n      jump\t// out\n        /* \"#utility.yul\":17466:17885   */\n    tag_129:\n        /* \"#utility.yul\":17632:17636   */\n      0x00\n        /* \"#utility.yul\":17670:17672   */\n      0x20\n        /* \"#utility.yul\":17659:17668   */\n      dup3\n        /* \"#utility.yul\":17655:17673   */\n      add\n        /* \"#utility.yul\":17647:17673   */\n      swap1\n      pop\n        /* \"#utility.yul\":17719:17728   */\n      dup2\n        /* \"#utility.yul\":17713:17717   */\n      dup2\n        /* \"#utility.yul\":17709:17729   */\n      sub\n        /* \"#utility.yul\":17705:17706   */\n      0x00\n        /* \"#utility.yul\":17694:17703   */\n      dup4\n        /* \"#utility.yul\":17690:17707   */\n      add\n        /* \"#utility.yul\":17683:17730   */\n      mstore\n        /* \"#utility.yul\":17747:17878   */\n      tag_366\n        /* \"#utility.yul\":17873:17877   */\n      dup2\n        /* \"#utility.yul\":17747:17878   */\n      tag_195\n      jump\t// in\n    tag_366:\n        /* \"#utility.yul\":17739:17878   */\n      swap1\n      pop\n        /* \"#utility.yul\":17466:17885   */\n      swap2\n      swap1\n      pop\n      jump\t// out\n        /* \"#utility.yul\":17891:18073   */\n    tag_196:\n        /* \"#utility.yul\":18031:18065   */\n      0x436c696666206d757374206d65206c657373207468616e206475726174696f6e\n        /* \"#utility.yul\":18027:18028   */\n      0x00\n        /* \"#utility.yul\":18019:18025   */\n      dup3\n        /* \"#utility.yul\":18015:18029   */\n      add\n        /* \"#utility.yul\":18008:18066   */\n      mstore\n        /* \"#utility.yul\":17891:18073   */\n      pop\n      jump\t// out\n        /* \"#utility.yul\":18079:18445   */\n    tag_197:\n        /* \"#utility.yul\":18221:18224   */\n      0x00\n        /* \"#utility.yul\":18242:18309   */\n      tag_369\n        /* \"#utility.yul\":18306:18308   */\n      0x20\n        /* \"#utility.yul\":18301:18304   */\n      dup4\n        /* \"#utility.yul\":18242:18309   */\n      tag_175\n      jump\t// in\n    tag_369:\n        /* \"#utility.yul\":18235:18309   */\n      swap2\n      pop\n        /* \"#utility.yul\":18318:18411   */\n      tag_370\n        /* \"#utility.yul\":18407:18410   */\n      dup3\n        /* \"#utility.yul\":18318:18411   */\n      tag_196\n      jump\t// in\n    tag_370:\n        /* \"#utility.yul\":18436:18438   */\n      0x20\n        /* \"#utility.yul\":18431:18434   */\n      dup3\n        /* \"#utility.yul\":18427:18439   */\n      add\n        /* \"#utility.yul\":18420:18439   */\n      swap1\n      pop\n        /* \"#utility.yul\":18079:18445   */\n      swap2\n      swap1\n      pop\n      jump\t// out\n        /* \"#utility.yul\":18451:18870   */\n    tag_132:\n        /* \"#utility.yul\":18617:18621   */\n      0x00\n        /* \"#utility.yul\":18655:18657   */\n      0x20\n        /* \"#utility.yul\":18644:18653   */\n      dup3\n        /* \"#utility.yul\":18640:18658   */\n      add\n        /* \"#utility.yul\":18632:18658   */\n      swap1\n      pop\n        /* \"#utility.yul\":18704:18713   */\n      dup2\n        /* \"#utility.yul\":18698:18702   */\n      dup2\n        /* \"#utility.yul\":18694:18714   */\n      sub\n        /* \"#utility.yul\":18690:18691   */\n      0x00\n        /* \"#utility.yul\":18679:18688   */\n      dup4\n        /* \"#utility.yul\":18675:18692   */\n      add\n        /* \"#utility.yul\":18668:18715   */\n      mstore\n        /* \"#utility.yul\":18732:18863   */\n      tag_372\n        /* \"#utility.yul\":18858:18862   */\n      dup2\n        /* \"#utility.yul\":18732:18863   */\n      tag_197\n      jump\t// in\n    tag_372:\n        /* \"#utility.yul\":18724:18863   */\n      swap1\n      pop\n        /* \"#utility.yul\":18451:18870   */\n      swap2\n      swap1\n      pop\n      jump\t// out\n        /* \"#utility.yul\":18876:19318   */\n    tag_138:\n        /* \"#utility.yul\":19025:19029   */\n      0x00\n        /* \"#utility.yul\":19063:19065   */\n      0x60\n        /* \"#utility.yul\":19052:19061   */\n      dup3\n        /* \"#utility.yul\":19048:19066   */\n      add\n        /* \"#utility.yul\":19040:19066   */\n      swap1\n      pop\n        /* \"#utility.yul\":19076:19147   */\n      tag_374\n        /* \"#utility.yul\":19144:19145   */\n      0x00\n        /* \"#utility.yul\":19133:19142   */\n      dup4\n        /* \"#utility.yul\":19129:19146   */\n      add\n        /* \"#utility.yul\":19120:19126   */\n      dup7\n        /* \"#utility.yul\":19076:19147   */\n      tag_169\n      jump\t// in\n    tag_374:\n        /* \"#utility.yul\":19157:19229   */\n      tag_375\n        /* \"#utility.yul\":19225:19227   */\n      0x20\n        /* \"#utility.yul\":19214:19223   */\n      dup4\n        /* \"#utility.yul\":19210:19228   */\n      add\n        /* \"#utility.yul\":19201:19207   */\n      dup6\n        /* \"#utility.yul\":19157:19229   */\n      tag_169\n      jump\t// in\n    tag_375:\n        /* \"#utility.yul\":19239:19311   */\n      tag_376\n        /* \"#utility.yul\":19307:19309   */\n      0x40\n        /* \"#utility.yul\":19296:19305   */\n      dup4\n        /* \"#utility.yul\":19292:19310   */\n      add\n        /* \"#utility.yul\":19283:19289   */\n      dup5\n        /* \"#utility.yul\":19239:19311   */\n      tag_162\n      jump\t// in\n    tag_376:\n        /* \"#utility.yul\":18876:19318   */\n      swap5\n      swap4\n      pop\n      pop\n      pop\n      pop\n      jump\t// out\n        /* \"#utility.yul\":19324:20210   */\n    tag_143:\n        /* \"#utility.yul\":19585:19589   */\n      0x00\n        /* \"#utility.yul\":19623:19626   */\n      0xe0\n        /* \"#utility.yul\":19612:19621   */\n      dup3\n        /* \"#utility.yul\":19608:19627   */\n      add\n        /* \"#utility.yul\":19600:19627   */\n      swap1\n      pop\n        /* \"#utility.yul\":19637:19708   */\n      tag_378\n        /* \"#utility.yul\":19705:19706   */\n      0x00\n        /* \"#utility.yul\":19694:19703   */\n      dup4\n        /* \"#utility.yul\":19690:19707   */\n      add\n        /* \"#utility.yul\":19681:19687   */\n      dup11\n        /* \"#utility.yul\":19637:19708   */\n      tag_169\n      jump\t// in\n    tag_378:\n        /* \"#utility.yul\":19718:19790   */\n      tag_379\n        /* \"#utility.yul\":19786:19788   */\n      0x20\n        /* \"#utility.yul\":19775:19784   */\n      dup4\n        /* \"#utility.yul\":19771:19789   */\n      add\n        /* \"#utility.yul\":19762:19768   */\n      dup10\n        /* \"#utility.yul\":19718:19790   */\n      tag_162\n      jump\t// in\n    tag_379:\n        /* \"#utility.yul\":19800:19872   */\n      tag_380\n        /* \"#utility.yul\":19868:19870   */\n      0x40\n        /* \"#utility.yul\":19857:19866   */\n      dup4\n        /* \"#utility.yul\":19853:19871   */\n      add\n        /* \"#utility.yul\":19844:19850   */\n      dup9\n        /* \"#utility.yul\":19800:19872   */\n      tag_162\n      jump\t// in\n    tag_380:\n        /* \"#utility.yul\":19882:19954   */\n      tag_381\n        /* \"#utility.yul\":19950:19952   */\n      0x60\n        /* \"#utility.yul\":19939:19948   */\n      dup4\n        /* \"#utility.yul\":19935:19953   */\n      add\n        /* \"#utility.yul\":19926:19932   */\n      dup8\n        /* \"#utility.yul\":19882:19954   */\n      tag_162\n      jump\t// in\n    tag_381:\n        /* \"#utility.yul\":19964:20037   */\n      tag_382\n        /* \"#utility.yul\":20032:20035   */\n      0x80\n        /* \"#utility.yul\":20021:20030   */\n      dup4\n        /* \"#utility.yul\":20017:20036   */\n      add\n        /* \"#utility.yul\":20008:20014   */\n      dup7\n        /* \"#utility.yul\":19964:20037   */\n      tag_162\n      jump\t// in\n    tag_382:\n        /* \"#utility.yul\":20047:20120   */\n      tag_383\n        /* \"#utility.yul\":20115:20118   */\n      0xa0\n        /* \"#utility.yul\":20104:20113   */\n      dup4\n        /* \"#utility.yul\":20100:20119   */\n      add\n        /* \"#utility.yul\":20091:20097   */\n      dup6\n        /* \"#utility.yul\":20047:20120   */\n      tag_162\n      jump\t// in\n    tag_383:\n        /* \"#utility.yul\":20130:20203   */\n      tag_384\n        /* \"#utility.yul\":20198:20201   */\n      0xc0\n        /* \"#utility.yul\":20187:20196   */\n      dup4\n        /* \"#utility.yul\":20183:20202   */\n      add\n        /* \"#utility.yul\":20174:20180   */\n      dup5\n        /* \"#utility.yul\":20130:20203   */\n      tag_169\n      jump\t// in\n    tag_384:\n        /* \"#utility.yul\":19324:20210   */\n      swap9\n      swap8\n      pop\n      pop\n      pop\n      pop\n      pop\n      pop\n      pop\n      pop\n      jump\t// out\n        /* \"#utility.yul\":20216:20398   */\n    tag_198:\n        /* \"#utility.yul\":20356:20390   */\n      0x546f6b656e20616c726561647920616464656420746f2077686974656c697374\n        /* \"#utility.yul\":20352:20353   */\n      0x00\n        /* \"#utility.yul\":20344:20350   */\n      dup3\n        /* \"#utility.yul\":20340:20354   */\n      add\n        /* \"#utility.yul\":20333:20391   */\n      mstore\n        /* \"#utility.yul\":20216:20398   */\n      pop\n      jump\t// out\n        /* \"#utility.yul\":20404:20770   */\n    tag_199:\n        /* \"#utility.yul\":20546:20549   */\n      0x00\n        /* \"#utility.yul\":20567:20634   */\n      tag_387\n        /* \"#utility.yul\":20631:20633   */\n      0x20\n        /* \"#utility.yul\":20626:20629   */\n      dup4\n        /* \"#utility.yul\":20567:20634   */\n      tag_175\n      jump\t// in\n    tag_387:\n        /* \"#utility.yul\":20560:20634   */\n      swap2\n      pop\n        /* \"#utility.yul\":20643:20736   */\n      tag_388\n        /* \"#utility.yul\":20732:20735   */\n      dup3\n        /* \"#utility.yul\":20643:20736   */\n      tag_198\n      jump\t// in\n    tag_388:\n        /* \"#utility.yul\":20761:20763   */\n      0x20\n        /* \"#utility.yul\":20756:20759   */\n      dup3\n        /* \"#utility.yul\":20752:20764   */\n      add\n        /* \"#utility.yul\":20745:20764   */\n      swap1\n      pop\n        /* \"#utility.yul\":20404:20770   */\n      swap2\n      swap1\n      pop\n      jump\t// out\n        /* \"#utility.yul\":20776:21195   */\n    tag_154:\n        /* \"#utility.yul\":20942:20946   */\n      0x00\n        /* \"#utility.yul\":20980:20982   */\n      0x20\n        /* \"#utility.yul\":20969:20978   */\n      dup3\n        /* \"#utility.yul\":20965:20983   */\n      add\n        /* \"#utility.yul\":20957:20983   */\n      swap1\n      pop\n        /* \"#utility.yul\":21029:21038   */\n      dup2\n        /* \"#utility.yul\":21023:21027   */\n      dup2\n        /* \"#utility.yul\":21019:21039   */\n      sub\n        /* \"#utility.yul\":21015:21016   */\n      0x00\n        /* \"#utility.yul\":21004:21013   */\n      dup4\n        /* \"#utility.yul\":21000:21017   */\n      add\n        /* \"#utility.yul\":20993:21040   */\n      mstore\n        /* \"#utility.yul\":21057:21188   */\n      tag_390\n        /* \"#utility.yul\":21183:21187   */\n      dup2\n        /* \"#utility.yul\":21057:21188   */\n      tag_199\n      jump\t// in\n    tag_390:\n        /* \"#utility.yul\":21049:21188   */\n      swap1\n      pop\n        /* \"#utility.yul\":20776:21195   */\n      swap2\n      swap1\n      pop\n      jump\t// out\n\n    auxdata: 0xa2646970667358221220513fa2efe365eacb4f214e0c1458723feb3468e54720f5fc808c50b127bf538b64736f6c63430008120033\n}\n",
				"bytecode": {
					"linkReferences": {},
					"object": "608060405234801561001057600080fd5b5033600160006101000a81548173ffffffffffffffffffffffffffffffffffffffff021916908373ffffffffffffffffffffffffffffffffffffffff160217905550611c5c806100616000396000f3fe608060405234801561001057600080fd5b50600436106100b45760003560e01c8063ce4f696b11610071578063ce4f696b146101a9578063d41330d2146101c5578063e9afad38146101e3578063eab72e6514610201578063f80f5dd514610231578063fc0c546a1461024d576100b4565b80632e1a7d4d146100b9578063557ed1ba146100d55780635952ffd1146100f357806378c8cda714610123578063952901631461013f578063bd84477d1461016f575b600080fd5b6100d360048036038101906100ce9190611170565b61026b565b005b6100dd61055b565b6040516100ea91906111ac565b60405180910390f35b61010d60048036038101906101089190611170565b610563565b60405161011a91906111ac565b60405180910390f35b61013d60048036038101906101389190611225565b61075f565b005b61015960048036038101906101549190611225565b61092c565b604051610166919061126d565b60405180910390f35b61018960048036038101906101849190611288565b61094c565b6040516101a09b9a999897969594939291906112d7565b60405180910390f35b6101c360048036038101906101be9190611382565b610a10565b005b6101cd610e9a565b6040516101da91906111ac565b60405180910390f35b6101eb610ea7565b6040516101f891906111ac565b60405180910390f35b61021b60048036038101906102169190611170565b610ef1565b604051610228919061140f565b60405180910390f35b61024b60048036038101906102469190611225565b610f30565b005b610255611111565b6040516102629190611489565b60405180910390f35b6000600260003373ffffffffffffffffffffffffffffffffffffffff1673ffffffffffffffffffffffffffffffffffffffff16815260200190815260200160002082815481106102be576102bd6114a4565b5b90600052602060002090600a020190508060080160149054906101000a900460ff1661031f576040517f08c379a000000000000000000000000000000000000000000000000000000000815260040161031690611530565b60405180910390fd5b806001015461032c61055b565b1161036c576040517f08c379a0000000000000000000000000000000000000000000000000000000008152600401610363906115c2565b60405180910390fd5b61037461055b565b816001015482600401546103889190611611565b106103c8576040517f08c379a00000000000000000000000000000000000000000000000000000000081526004016103bf90611691565b60405180910390fd5b60006103d383610563565b905060008111610418576040517f08c379a000000000000000000000000000000000000000000000000000000000815260040161040f906116fd565b60405180910390fd5b8160080160009054906101000a900473ffffffffffffffffffffffffffffffffffffffff1673ffffffffffffffffffffffffffffffffffffffff1663a9059cbb33836040518363ffffffff1660e01b815260040161047792919061171d565b6020604051808303816000875af1158015610496573d6000803e3d6000fd5b505050506040513d601f19601f820116820180604052508101906104ba9190611772565b50808260090160008282546104cf9190611611565b92505081905550808260000160008282546104ea919061179f565b92505081905550600082600001540361051b5760008260080160146101000a81548160ff0219169083151502179055505b7fccdb21e8b29fbf756f29d5f05c72606ca9e8160ec1a135ca6f50dae471188cec33848360405161054e939291906117d3565b60405180910390a1505050565b600042905090565b600080600260003373ffffffffffffffffffffffffffffffffffffffff1673ffffffffffffffffffffffffffffffffffffffff16815260200190815260200160002083815481106105b7576105b66114a4565b5b90600052602060002090600a020160405180610160016040529081600082015481526020016001820154815260200160028201548152602001600382015481526020016004820154815260200160058201548152602001600682015481526020016007820160009054906101000a900473ffffffffffffffffffffffffffffffffffffffff1673ffffffffffffffffffffffffffffffffffffffff1673ffffffffffffffffffffffffffffffffffffffff1681526020016008820160009054906101000a900473ffffffffffffffffffffffffffffffffffffffff1673ffffffffffffffffffffffffffffffffffffffff1673ffffffffffffffffffffffffffffffffffffffff1681526020016008820160149054906101000a900460ff1615151515815260200160098201548152505090506000816060015182602001516106fe61055b565b610708919061179f565b6107129190611839565b905060008261014001518360a001518361072c919061186a565b610736919061179f565b9050826000015181101561074f5780935050505061075a565b826000015193505050505b919050565b600160009054906101000a900473ffffffffffffffffffffffffffffffffffffffff1673ffffffffffffffffffffffffffffffffffffffff163373ffffffffffffffffffffffffffffffffffffffff16146107ef576040517f08c379a00000000000000000000000000000000000000000000000000000000081526004016107e69061191e565b60405180910390fd5b60001515600360008373ffffffffffffffffffffffffffffffffffffffff1673ffffffffffffffffffffffffffffffffffffffff16815260200190815260200160002060009054906101000a900460ff16151503610882576040517f08c379a00000000000000000000000000000000000000000000000000000000081526004016108799061198a565b60405180910390fd5b6000600360008373ffffffffffffffffffffffffffffffffffffffff1673ffffffffffffffffffffffffffffffffffffffff16815260200190815260200160002060006101000a81548160ff021916908315150217905550600360008273ffffffffffffffffffffffffffffffffffffffff1673ffffffffffffffffffffffffffffffffffffffff16815260200190815260200160002060006101000a81549060ff021916905550565b60036020528060005260406000206000915054906101000a900460ff1681565b6002602052816000526040600020818154811061096857600080fd5b90600052602060002090600a0201600091509150508060000154908060010154908060020154908060030154908060040154908060050154908060060154908060070160009054906101000a900473ffffffffffffffffffffffffffffffffffffffff16908060080160009054906101000a900473ffffffffffffffffffffffffffffffffffffffff16908060080160149054906101000a900460ff1690806009015490508b565b8585848360008411610a57576040517f08c379a0000000000000000000000000000000000000000000000000000000008152600401610a4e906119f6565b60405180910390fd5b600360008273ffffffffffffffffffffffffffffffffffffffff1673ffffffffffffffffffffffffffffffffffffffff16815260200190815260200160002060009054906101000a900460ff16610ae3576040517f08c379a0000000000000000000000000000000000000000000000000000000008152600401610ada90611a88565b60405180910390fd5b828210610b25576040517f08c379a0000000000000000000000000000000000000000000000000000000008152600401610b1c90611af4565b60405180910390fd5b60006040518061016001604052808c81526020014281526020018b81526020018a81526020018981526020018b8d8c610b5e919061186a565b610b689190611839565b8152602001600260003373ffffffffffffffffffffffffffffffffffffffff1673ffffffffffffffffffffffffffffffffffffffff1681526020019081526020016000208054905081526020018873ffffffffffffffffffffffffffffffffffffffff1681526020018773ffffffffffffffffffffffffffffffffffffffff16815260200160011515815260200160008152509050600260008873ffffffffffffffffffffffffffffffffffffffff1673ffffffffffffffffffffffffffffffffffffffff1681526020019081526020016000208190806001815401808255809150506001900390600052602060002090600a0201600090919091909150600082015181600001556020820151816001015560408201518160020155606082015181600301556080820151816004015560a0820151816005015560c0820151816006015560e08201518160070160006101000a81548173ffffffffffffffffffffffffffffffffffffffff021916908373ffffffffffffffffffffffffffffffffffffffff1602179055506101008201518160080160006101000a81548173ffffffffffffffffffffffffffffffffffffffff021916908373ffffffffffffffffffffffffffffffffffffffff1602179055506101208201518160080160146101000a81548160ff02191690831515021790555061014082015181600901555050856000806101000a81548173ffffffffffffffffffffffffffffffffffffffff021916908373ffffffffffffffffffffffffffffffffffffffff16021790555060008054906101000a900473ffffffffffffffffffffffffffffffffffffffff1673ffffffffffffffffffffffffffffffffffffffff166323b872dd33308e6040518463ffffffff1660e01b8152600401610e0693929190611b14565b6020604051808303816000875af1158015610e25573d6000803e3d6000fd5b505050506040513d601f19601f82011682018060405250810190610e499190611772565b507f2c041ae393928af2d7b44a39672d0319629f48c2f248cef083a2a92f4159d07e338c8c8c428d8c604051610e859796959493929190611b4b565b60405180910390a15050505050505050505050565b6000600480549050905090565b6000600260003373ffffffffffffffffffffffffffffffffffffffff1673ffffffffffffffffffffffffffffffffffffffff16815260200190815260200160002080549050905090565b60048181548110610f0157600080fd5b906000526020600020016000915054906101000a900473ffffffffffffffffffffffffffffffffffffffff1681565b600160009054906101000a900473ffffffffffffffffffffffffffffffffffffffff1673ffffffffffffffffffffffffffffffffffffffff163373ffffffffffffffffffffffffffffffffffffffff1614610fc0576040517f08c379a0000000000000000000000000000000000000000000000000000000008152600401610fb79061191e565b60405180910390fd5b60011515600360008373ffffffffffffffffffffffffffffffffffffffff1673ffffffffffffffffffffffffffffffffffffffff16815260200190815260200160002060009054906101000a900460ff16151503611053576040517f08c379a000000000000000000000000000000000000000000000000000000000815260040161104a90611c06565b60405180910390fd5b6001600360008373ffffffffffffffffffffffffffffffffffffffff1673ffffffffffffffffffffffffffffffffffffffff16815260200190815260200160002060006101000a81548160ff0219169083151502179055506004819080600181540180825580915050600190039060005260206000200160009091909190916101000a81548173ffffffffffffffffffffffffffffffffffffffff021916908373ffffffffffffffffffffffffffffffffffffffff16021790555050565b60008054906101000a900473ffffffffffffffffffffffffffffffffffffffff1681565b600080fd5b6000819050919050565b61114d8161113a565b811461115857600080fd5b50565b60008135905061116a81611144565b92915050565b60006020828403121561118657611185611135565b5b60006111948482850161115b565b91505092915050565b6111a68161113a565b82525050565b60006020820190506111c1600083018461119d565b92915050565b600073ffffffffffffffffffffffffffffffffffffffff82169050919050565b60006111f2826111c7565b9050919050565b611202816111e7565b811461120d57600080fd5b50565b60008135905061121f816111f9565b92915050565b60006020828403121561123b5761123a611135565b5b600061124984828501611210565b91505092915050565b60008115159050919050565b61126781611252565b82525050565b6000602082019050611282600083018461125e565b92915050565b6000806040838503121561129f5761129e611135565b5b60006112ad85828601611210565b92505060206112be8582860161115b565b9150509250929050565b6112d1816111e7565b82525050565b6000610160820190506112ed600083018e61119d565b6112fa602083018d61119d565b611307604083018c61119d565b611314606083018b61119d565b611321608083018a61119d565b61132e60a083018961119d565b61133b60c083018861119d565b61134860e08301876112c8565b6113566101008301866112c8565b61136461012083018561125e565b61137261014083018461119d565b9c9b505050505050505050505050565b60008060008060008060c0878903121561139f5761139e611135565b5b60006113ad89828a0161115b565b96505060206113be89828a0161115b565b95505060406113cf89828a0161115b565b94505060606113e089828a0161115b565b93505060806113f189828a01611210565b92505060a061140289828a01611210565b9150509295509295509295565b600060208201905061142460008301846112c8565b92915050565b6000819050919050565b600061144f61144a611445846111c7565b61142a565b6111c7565b9050919050565b600061146182611434565b9050919050565b600061147382611456565b9050919050565b61148381611468565b82525050565b600060208201905061149e600083018461147a565b92915050565b7f4e487b7100000000000000000000000000000000000000000000000000000000600052603260045260246000fd5b600082825260208201905092915050565b7f46756e64732068617665206e6f74206265656e206c6f636b6564000000000000600082015250565b600061151a601a836114d3565b9150611525826114e4565b602082019050919050565b600060208201905081810360008301526115498161150d565b9050919050565b7f546f6b656e20756e646572206c6f636b696e6720706c6561736520776169742e60008201527f2e00000000000000000000000000000000000000000000000000000000000000602082015250565b60006115ac6021836114d3565b91506115b782611550565b604082019050919050565b600060208201905081810360008301526115db8161159f565b9050919050565b7f4e487b7100000000000000000000000000000000000000000000000000000000600052601160045260246000fd5b600061161c8261113a565b91506116278361113a565b925082820190508082111561163f5761163e6115e2565b5b92915050565b7f436c696666206973206e6f7420656e646564207965742e000000000000000000600082015250565b600061167b6017836114d3565b915061168682611645565b602082019050919050565b600060208201905081810360008301526116aa8161166e565b9050919050565b7f4e6f7420656e6f75676820616d6f756e7420666f722077697468647261770000600082015250565b60006116e7601e836114d3565b91506116f2826116b1565b602082019050919050565b60006020820190508181036000830152611716816116da565b9050919050565b600060408201905061173260008301856112c8565b61173f602083018461119d565b9392505050565b61174f81611252565b811461175a57600080fd5b50565b60008151905061176c81611746565b92915050565b60006020828403121561178857611787611135565b5b60006117968482850161175d565b91505092915050565b60006117aa8261113a565b91506117b58361113a565b92508282039050818111156117cd576117cc6115e2565b5b92915050565b60006060820190506117e860008301866112c8565b6117f5602083018561119d565b611802604083018461119d565b949350505050565b7f4e487b7100000000000000000000000000000000000000000000000000000000600052601260045260246000fd5b60006118448261113a565b915061184f8361113a565b92508261185f5761185e61180a565b5b828204905092915050565b60006118758261113a565b91506118808361113a565b925082820261188e8161113a565b915082820484148315176118a5576118a46115e2565b5b5092915050565b7f4f6e6c792074686520636f6e7472616374206f776e65722063616e2063616c6c60008201527f20746869732066756e6374696f6e000000000000000000000000000000000000602082015250565b6000611908602e836114d3565b9150611913826118ac565b604082019050919050565b60006020820190508181036000830152611937816118fb565b9050919050565b7f546f6b656e206973206e6f7420696e2077686974656c69737400000000000000600082015250565b60006119746019836114d3565b915061197f8261193e565b602082019050919050565b600060208201905081810360008301526119a381611967565b9050919050565b7f416d6f756e74206e6f74206265205a65726f0000000000000000000000000000600082015250565b60006119e06012836114d3565b91506119eb826119aa565b602082019050919050565b60006020820190508181036000830152611a0f816119d3565b9050919050565b7f596f7520617265206e6f7420616c6c6f77656420746f2075736520746869732060008201527f636f6e74726163742e0000000000000000000000000000000000000000000000602082015250565b6000611a726029836114d3565b9150611a7d82611a16565b604082019050919050565b60006020820190508181036000830152611aa181611a65565b9050919050565b7f436c696666206d757374206d65206c657373207468616e206475726174696f6e600082015250565b6000611ade6020836114d3565b9150611ae982611aa8565b602082019050919050565b60006020820190508181036000830152611b0d81611ad1565b9050919050565b6000606082019050611b2960008301866112c8565b611b3660208301856112c8565b611b43604083018461119d565b949350505050565b600060e082019050611b60600083018a6112c8565b611b6d602083018961119d565b611b7a604083018861119d565b611b87606083018761119d565b611b94608083018661119d565b611ba160a083018561119d565b611bae60c08301846112c8565b98975050505050505050565b7f546f6b656e20616c726561647920616464656420746f2077686974656c697374600082015250565b6000611bf06020836114d3565b9150611bfb82611bba565b602082019050919050565b60006020820190508181036000830152611c1f81611be3565b905091905056fea2646970667358221220513fa2efe365eacb4f214e0c1458723feb3468e54720f5fc808c50b127bf538b64736f6c63430008120033",
					"opcodes": "PUSH1 0x80 PUSH1 0x40 MSTORE CALLVALUE DUP1 ISZERO PUSH2 0x10 JUMPI PUSH1 0x0 DUP1 REVERT JUMPDEST POP CALLER PUSH1 0x1 PUSH1 0x0 PUSH2 0x100 EXP DUP2 SLOAD DUP2 PUSH20 0xFFFFFFFFFFFFFFFFFFFFFFFFFFFFFFFFFFFFFFFF MUL NOT AND SWAP1 DUP4 PUSH20 0xFFFFFFFFFFFFFFFFFFFFFFFFFFFFFFFFFFFFFFFF AND MUL OR SWAP1 SSTORE POP PUSH2 0x1C5C DUP1 PUSH2 0x61 PUSH1 0x0 CODECOPY PUSH1 0x0 RETURN INVALID PUSH1 0x80 PUSH1 0x40 MSTORE CALLVALUE DUP1 ISZERO PUSH2 0x10 JUMPI PUSH1 0x0 DUP1 REVERT JUMPDEST POP PUSH1 0x4 CALLDATASIZE LT PUSH2 0xB4 JUMPI PUSH1 0x0 CALLDATALOAD PUSH1 0xE0 SHR DUP1 PUSH4 0xCE4F696B GT PUSH2 0x71 JUMPI DUP1 PUSH4 0xCE4F696B EQ PUSH2 0x1A9 JUMPI DUP1 PUSH4 0xD41330D2 EQ PUSH2 0x1C5 JUMPI DUP1 PUSH4 0xE9AFAD38 EQ PUSH2 0x1E3 JUMPI DUP1 PUSH4 0xEAB72E65 EQ PUSH2 0x201 JUMPI DUP1 PUSH4 0xF80F5DD5 EQ PUSH2 0x231 JUMPI DUP1 PUSH4 0xFC0C546A EQ PUSH2 0x24D JUMPI PUSH2 0xB4 JUMP JUMPDEST DUP1 PUSH4 0x2E1A7D4D EQ PUSH2 0xB9 JUMPI DUP1 PUSH4 0x557ED1BA EQ PUSH2 0xD5 JUMPI DUP1 PUSH4 0x5952FFD1 EQ PUSH2 0xF3 JUMPI DUP1 PUSH4 0x78C8CDA7 EQ PUSH2 0x123 JUMPI DUP1 PUSH4 0x95290163 EQ PUSH2 0x13F JUMPI DUP1 PUSH4 0xBD84477D EQ PUSH2 0x16F JUMPI JUMPDEST PUSH1 0x0 DUP1 REVERT JUMPDEST PUSH2 0xD3 PUSH1 0x4 DUP1 CALLDATASIZE SUB DUP2 ADD SWAP1 PUSH2 0xCE SWAP2 SWAP1 PUSH2 0x1170 JUMP JUMPDEST PUSH2 0x26B JUMP JUMPDEST STOP JUMPDEST PUSH2 0xDD PUSH2 0x55B JUMP JUMPDEST PUSH1 0x40 MLOAD PUSH2 0xEA SWAP2 SWAP1 PUSH2 0x11AC JUMP JUMPDEST PUSH1 0x40 MLOAD DUP1 SWAP2 SUB SWAP1 RETURN JUMPDEST PUSH2 0x10D PUSH1 0x4 DUP1 CALLDATASIZE SUB DUP2 ADD SWAP1 PUSH2 0x108 SWAP2 SWAP1 PUSH2 0x1170 JUMP JUMPDEST PUSH2 0x563 JUMP JUMPDEST PUSH1 0x40 MLOAD PUSH2 0x11A SWAP2 SWAP1 PUSH2 0x11AC JUMP JUMPDEST PUSH1 0x40 MLOAD DUP1 SWAP2 SUB SWAP1 RETURN JUMPDEST PUSH2 0x13D PUSH1 0x4 DUP1 CALLDATASIZE SUB DUP2 ADD SWAP1 PUSH2 0x138 SWAP2 SWAP1 PUSH2 0x1225 JUMP JUMPDEST PUSH2 0x75F JUMP JUMPDEST STOP JUMPDEST PUSH2 0x159 PUSH1 0x4 DUP1 CALLDATASIZE SUB DUP2 ADD SWAP1 PUSH2 0x154 SWAP2 SWAP1 PUSH2 0x1225 JUMP JUMPDEST PUSH2 0x92C JUMP JUMPDEST PUSH1 0x40 MLOAD PUSH2 0x166 SWAP2 SWAP1 PUSH2 0x126D JUMP JUMPDEST PUSH1 0x40 MLOAD DUP1 SWAP2 SUB SWAP1 RETURN JUMPDEST PUSH2 0x189 PUSH1 0x4 DUP1 CALLDATASIZE SUB DUP2 ADD SWAP1 PUSH2 0x184 SWAP2 SWAP1 PUSH2 0x1288 JUMP JUMPDEST PUSH2 0x94C JUMP JUMPDEST PUSH1 0x40 MLOAD PUSH2 0x1A0 SWAP12 SWAP11 SWAP10 SWAP9 SWAP8 SWAP7 SWAP6 SWAP5 SWAP4 SWAP3 SWAP2 SWAP1 PUSH2 0x12D7 JUMP JUMPDEST PUSH1 0x40 MLOAD DUP1 SWAP2 SUB SWAP1 RETURN JUMPDEST PUSH2 0x1C3 PUSH1 0x4 DUP1 CALLDATASIZE SUB DUP2 ADD SWAP1 PUSH2 0x1BE SWAP2 SWAP1 PUSH2 0x1382 JUMP JUMPDEST PUSH2 0xA10 JUMP JUMPDEST STOP JUMPDEST PUSH2 0x1CD PUSH2 0xE9A JUMP JUMPDEST PUSH1 0x40 MLOAD PUSH2 0x1DA SWAP2 SWAP1 PUSH2 0x11AC JUMP JUMPDEST PUSH1 0x40 MLOAD DUP1 SWAP2 SUB SWAP1 RETURN JUMPDEST PUSH2 0x1EB PUSH2 0xEA7 JUMP JUMPDEST PUSH1 0x40 MLOAD PUSH2 0x1F8 SWAP2 SWAP1 PUSH2 0x11AC JUMP JUMPDEST PUSH1 0x40 MLOAD DUP1 SWAP2 SUB SWAP1 RETURN JUMPDEST PUSH2 0x21B PUSH1 0x4 DUP1 CALLDATASIZE SUB DUP2 ADD SWAP1 PUSH2 0x216 SWAP2 SWAP1 PUSH2 0x1170 JUMP JUMPDEST PUSH2 0xEF1 JUMP JUMPDEST PUSH1 0x40 MLOAD PUSH2 0x228 SWAP2 SWAP1 PUSH2 0x140F JUMP JUMPDEST PUSH1 0x40 MLOAD DUP1 SWAP2 SUB SWAP1 RETURN JUMPDEST PUSH2 0x24B PUSH1 0x4 DUP1 CALLDATASIZE SUB DUP2 ADD SWAP1 PUSH2 0x246 SWAP2 SWAP1 PUSH2 0x1225 JUMP JUMPDEST PUSH2 0xF30 JUMP JUMPDEST STOP JUMPDEST PUSH2 0x255 PUSH2 0x1111 JUMP JUMPDEST PUSH1 0x40 MLOAD PUSH2 0x262 SWAP2 SWAP1 PUSH2 0x1489 JUMP JUMPDEST PUSH1 0x40 MLOAD DUP1 SWAP2 SUB SWAP1 RETURN JUMPDEST PUSH1 0x0 PUSH1 0x2 PUSH1 0x0 CALLER PUSH20 0xFFFFFFFFFFFFFFFFFFFFFFFFFFFFFFFFFFFFFFFF AND PUSH20 0xFFFFFFFFFFFFFFFFFFFFFFFFFFFFFFFFFFFFFFFF AND DUP2 MSTORE PUSH1 0x20 ADD SWAP1 DUP2 MSTORE PUSH1 0x20 ADD PUSH1 0x0 KECCAK256 DUP3 DUP2 SLOAD DUP2 LT PUSH2 0x2BE JUMPI PUSH2 0x2BD PUSH2 0x14A4 JUMP JUMPDEST JUMPDEST SWAP1 PUSH1 0x0 MSTORE PUSH1 0x20 PUSH1 0x0 KECCAK256 SWAP1 PUSH1 0xA MUL ADD SWAP1 POP DUP1 PUSH1 0x8 ADD PUSH1 0x14 SWAP1 SLOAD SWAP1 PUSH2 0x100 EXP SWAP1 DIV PUSH1 0xFF AND PUSH2 0x31F JUMPI PUSH1 0x40 MLOAD PUSH32 0x8C379A000000000000000000000000000000000000000000000000000000000 DUP2 MSTORE PUSH1 0x4 ADD PUSH2 0x316 SWAP1 PUSH2 0x1530 JUMP JUMPDEST PUSH1 0x40 MLOAD DUP1 SWAP2 SUB SWAP1 REVERT JUMPDEST DUP1 PUSH1 0x1 ADD SLOAD PUSH2 0x32C PUSH2 0x55B JUMP JUMPDEST GT PUSH2 0x36C JUMPI PUSH1 0x40 MLOAD PUSH32 0x8C379A000000000000000000000000000000000000000000000000000000000 DUP2 MSTORE PUSH1 0x4 ADD PUSH2 0x363 SWAP1 PUSH2 0x15C2 JUMP JUMPDEST PUSH1 0x40 MLOAD DUP1 SWAP2 SUB SWAP1 REVERT JUMPDEST PUSH2 0x374 PUSH2 0x55B JUMP JUMPDEST DUP2 PUSH1 0x1 ADD SLOAD DUP3 PUSH1 0x4 ADD SLOAD PUSH2 0x388 SWAP2 SWAP1 PUSH2 0x1611 JUMP JUMPDEST LT PUSH2 0x3C8 JUMPI PUSH1 0x40 MLOAD PUSH32 0x8C379A000000000000000000000000000000000000000000000000000000000 DUP2 MSTORE PUSH1 0x4 ADD PUSH2 0x3BF SWAP1 PUSH2 0x1691 JUMP JUMPDEST PUSH1 0x40 MLOAD DUP1 SWAP2 SUB SWAP1 REVERT JUMPDEST PUSH1 0x0 PUSH2 0x3D3 DUP4 PUSH2 0x563 JUMP JUMPDEST SWAP1 POP PUSH1 0x0 DUP2 GT PUSH2 0x418 JUMPI PUSH1 0x40 MLOAD PUSH32 0x8C379A000000000000000000000000000000000000000000000000000000000 DUP2 MSTORE PUSH1 0x4 ADD PUSH2 0x40F SWAP1 PUSH2 0x16FD JUMP JUMPDEST PUSH1 0x40 MLOAD DUP1 SWAP2 SUB SWAP1 REVERT JUMPDEST DUP2 PUSH1 0x8 ADD PUSH1 0x0 SWAP1 SLOAD SWAP1 PUSH2 0x100 EXP SWAP1 DIV PUSH20 0xFFFFFFFFFFFFFFFFFFFFFFFFFFFFFFFFFFFFFFFF AND PUSH20 0xFFFFFFFFFFFFFFFFFFFFFFFFFFFFFFFFFFFFFFFF AND PUSH4 0xA9059CBB CALLER DUP4 PUSH1 0x40 MLOAD DUP4 PUSH4 0xFFFFFFFF AND PUSH1 0xE0 SHL DUP2 MSTORE PUSH1 0x4 ADD PUSH2 0x477 SWAP3 SWAP2 SWAP1 PUSH2 0x171D JUMP JUMPDEST PUSH1 0x20 PUSH1 0x40 MLOAD DUP1 DUP4 SUB DUP2 PUSH1 0x0 DUP8 GAS CALL ISZERO DUP1 ISZERO PUSH2 0x496 JUMPI RETURNDATASIZE PUSH1 0x0 DUP1 RETURNDATACOPY RETURNDATASIZE PUSH1 0x0 REVERT JUMPDEST POP POP POP POP PUSH1 0x40 MLOAD RETURNDATASIZE PUSH1 0x1F NOT PUSH1 0x1F DUP3 ADD AND DUP3 ADD DUP1 PUSH1 0x40 MSTORE POP DUP2 ADD SWAP1 PUSH2 0x4BA SWAP2 SWAP1 PUSH2 0x1772 JUMP JUMPDEST POP DUP1 DUP3 PUSH1 0x9 ADD PUSH1 0x0 DUP3 DUP3 SLOAD PUSH2 0x4CF SWAP2 SWAP1 PUSH2 0x1611 JUMP JUMPDEST SWAP3 POP POP DUP2 SWAP1 SSTORE POP DUP1 DUP3 PUSH1 0x0 ADD PUSH1 0x0 DUP3 DUP3 SLOAD PUSH2 0x4EA SWAP2 SWAP1 PUSH2 0x179F JUMP JUMPDEST SWAP3 POP POP DUP2 SWAP1 SSTORE POP PUSH1 0x0 DUP3 PUSH1 0x0 ADD SLOAD SUB PUSH2 0x51B JUMPI PUSH1 0x0 DUP3 PUSH1 0x8 ADD PUSH1 0x14 PUSH2 0x100 EXP DUP2 SLOAD DUP2 PUSH1 0xFF MUL NOT AND SWAP1 DUP4 ISZERO ISZERO MUL OR SWAP1 SSTORE POP JUMPDEST PUSH32 0xCCDB21E8B29FBF756F29D5F05C72606CA9E8160EC1A135CA6F50DAE471188CEC CALLER DUP5 DUP4 PUSH1 0x40 MLOAD PUSH2 0x54E SWAP4 SWAP3 SWAP2 SWAP1 PUSH2 0x17D3 JUMP JUMPDEST PUSH1 0x40 MLOAD DUP1 SWAP2 SUB SWAP1 LOG1 POP POP POP JUMP JUMPDEST PUSH1 0x0 TIMESTAMP SWAP1 POP SWAP1 JUMP JUMPDEST PUSH1 0x0 DUP1 PUSH1 0x2 PUSH1 0x0 CALLER PUSH20 0xFFFFFFFFFFFFFFFFFFFFFFFFFFFFFFFFFFFFFFFF AND PUSH20 0xFFFFFFFFFFFFFFFFFFFFFFFFFFFFFFFFFFFFFFFF AND DUP2 MSTORE PUSH1 0x20 ADD SWAP1 DUP2 MSTORE PUSH1 0x20 ADD PUSH1 0x0 KECCAK256 DUP4 DUP2 SLOAD DUP2 LT PUSH2 0x5B7 JUMPI PUSH2 0x5B6 PUSH2 0x14A4 JUMP JUMPDEST JUMPDEST SWAP1 PUSH1 0x0 MSTORE PUSH1 0x20 PUSH1 0x0 KECCAK256 SWAP1 PUSH1 0xA MUL ADD PUSH1 0x40 MLOAD DUP1 PUSH2 0x160 ADD PUSH1 0x40 MSTORE SWAP1 DUP2 PUSH1 0x0 DUP3 ADD SLOAD DUP2 MSTORE PUSH1 0x20 ADD PUSH1 0x1 DUP3 ADD SLOAD DUP2 MSTORE PUSH1 0x20 ADD PUSH1 0x2 DUP3 ADD SLOAD DUP2 MSTORE PUSH1 0x20 ADD PUSH1 0x3 DUP3 ADD SLOAD DUP2 MSTORE PUSH1 0x20 ADD PUSH1 0x4 DUP3 ADD SLOAD DUP2 MSTORE PUSH1 0x20 ADD PUSH1 0x5 DUP3 ADD SLOAD DUP2 MSTORE PUSH1 0x20 ADD PUSH1 0x6 DUP3 ADD SLOAD DUP2 MSTORE PUSH1 0x20 ADD PUSH1 0x7 DUP3 ADD PUSH1 0x0 SWAP1 SLOAD SWAP1 PUSH2 0x100 EXP SWAP1 DIV PUSH20 0xFFFFFFFFFFFFFFFFFFFFFFFFFFFFFFFFFFFFFFFF AND PUSH20 0xFFFFFFFFFFFFFFFFFFFFFFFFFFFFFFFFFFFFFFFF AND PUSH20 0xFFFFFFFFFFFFFFFFFFFFFFFFFFFFFFFFFFFFFFFF AND DUP2 MSTORE PUSH1 0x20 ADD PUSH1 0x8 DUP3 ADD PUSH1 0x0 SWAP1 SLOAD SWAP1 PUSH2 0x100 EXP SWAP1 DIV PUSH20 0xFFFFFFFFFFFFFFFFFFFFFFFFFFFFFFFFFFFFFFFF AND PUSH20 0xFFFFFFFFFFFFFFFFFFFFFFFFFFFFFFFFFFFFFFFF AND PUSH20 0xFFFFFFFFFFFFFFFFFFFFFFFFFFFFFFFFFFFFFFFF AND DUP2 MSTORE PUSH1 0x20 ADD PUSH1 0x8 DUP3 ADD PUSH1 0x14 SWAP1 SLOAD SWAP1 PUSH2 0x100 EXP SWAP1 DIV PUSH1 0xFF AND ISZERO ISZERO ISZERO ISZERO DUP2 MSTORE PUSH1 0x20 ADD PUSH1 0x9 DUP3 ADD SLOAD DUP2 MSTORE POP POP SWAP1 POP PUSH1 0x0 DUP2 PUSH1 0x60 ADD MLOAD DUP3 PUSH1 0x20 ADD MLOAD PUSH2 0x6FE PUSH2 0x55B JUMP JUMPDEST PUSH2 0x708 SWAP2 SWAP1 PUSH2 0x179F JUMP JUMPDEST PUSH2 0x712 SWAP2 SWAP1 PUSH2 0x1839 JUMP JUMPDEST SWAP1 POP PUSH1 0x0 DUP3 PUSH2 0x140 ADD MLOAD DUP4 PUSH1 0xA0 ADD MLOAD DUP4 PUSH2 0x72C SWAP2 SWAP1 PUSH2 0x186A JUMP JUMPDEST PUSH2 0x736 SWAP2 SWAP1 PUSH2 0x179F JUMP JUMPDEST SWAP1 POP DUP3 PUSH1 0x0 ADD MLOAD DUP2 LT ISZERO PUSH2 0x74F JUMPI DUP1 SWAP4 POP POP POP POP PUSH2 0x75A JUMP JUMPDEST DUP3 PUSH1 0x0 ADD MLOAD SWAP4 POP POP POP POP JUMPDEST SWAP2 SWAP1 POP JUMP JUMPDEST PUSH1 0x1 PUSH1 0x0 SWAP1 SLOAD SWAP1 PUSH2 0x100 EXP SWAP1 DIV PUSH20 0xFFFFFFFFFFFFFFFFFFFFFFFFFFFFFFFFFFFFFFFF AND PUSH20 0xFFFFFFFFFFFFFFFFFFFFFFFFFFFFFFFFFFFFFFFF AND CALLER PUSH20 0xFFFFFFFFFFFFFFFFFFFFFFFFFFFFFFFFFFFFFFFF AND EQ PUSH2 0x7EF JUMPI PUSH1 0x40 MLOAD PUSH32 0x8C379A000000000000000000000000000000000000000000000000000000000 DUP2 MSTORE PUSH1 0x4 ADD PUSH2 0x7E6 SWAP1 PUSH2 0x191E JUMP JUMPDEST PUSH1 0x40 MLOAD DUP1 SWAP2 SUB SWAP1 REVERT JUMPDEST PUSH1 0x0 ISZERO ISZERO PUSH1 0x3 PUSH1 0x0 DUP4 PUSH20 0xFFFFFFFFFFFFFFFFFFFFFFFFFFFFFFFFFFFFFFFF AND PUSH20 0xFFFFFFFFFFFFFFFFFFFFFFFFFFFFFFFFFFFFFFFF AND DUP2 MSTORE PUSH1 0x20 ADD SWAP1 DUP2 MSTORE PUSH1 0x20 ADD PUSH1 0x0 KECCAK256 PUSH1 0x0 SWAP1 SLOAD SWAP1 PUSH2 0x100 EXP SWAP1 DIV PUSH1 0xFF AND ISZERO ISZERO SUB PUSH2 0x882 JUMPI PUSH1 0x40 MLOAD PUSH32 0x8C379A000000000000000000000000000000000000000000000000000000000 DUP2 MSTORE PUSH1 0x4 ADD PUSH2 0x879 SWAP1 PUSH2 0x198A JUMP JUMPDEST PUSH1 0x40 MLOAD DUP1 SWAP2 SUB SWAP1 REVERT JUMPDEST PUSH1 0x0 PUSH1 0x3 PUSH1 0x0 DUP4 PUSH20 0xFFFFFFFFFFFFFFFFFFFFFFFFFFFFFFFFFFFFFFFF AND PUSH20 0xFFFFFFFFFFFFFFFFFFFFFFFFFFFFFFFFFFFFFFFF AND DUP2 MSTORE PUSH1 0x20 ADD SWAP1 DUP2 MSTORE PUSH1 0x20 ADD PUSH1 0x0 KECCAK256 PUSH1 0x0 PUSH2 0x100 EXP DUP2 SLOAD DUP2 PUSH1 0xFF MUL NOT AND SWAP1 DUP4 ISZERO ISZERO MUL OR SWAP1 SSTORE POP PUSH1 0x3 PUSH1 0x0 DUP3 PUSH20 0xFFFFFFFFFFFFFFFFFFFFFFFFFFFFFFFFFFFFFFFF AND PUSH20 0xFFFFFFFFFFFFFFFFFFFFFFFFFFFFFFFFFFFFFFFF AND DUP2 MSTORE PUSH1 0x20 ADD SWAP1 DUP2 MSTORE PUSH1 0x20 ADD PUSH1 0x0 KECCAK256 PUSH1 0x0 PUSH2 0x100 EXP DUP2 SLOAD SWAP1 PUSH1 0xFF MUL NOT AND SWAP1 SSTORE POP JUMP JUMPDEST PUSH1 0x3 PUSH1 0x20 MSTORE DUP1 PUSH1 0x0 MSTORE PUSH1 0x40 PUSH1 0x0 KECCAK256 PUSH1 0x0 SWAP2 POP SLOAD SWAP1 PUSH2 0x100 EXP SWAP1 DIV PUSH1 0xFF AND DUP2 JUMP JUMPDEST PUSH1 0x2 PUSH1 0x20 MSTORE DUP2 PUSH1 0x0 MSTORE PUSH1 0x40 PUSH1 0x0 KECCAK256 DUP2 DUP2 SLOAD DUP2 LT PUSH2 0x968 JUMPI PUSH1 0x0 DUP1 REVERT JUMPDEST SWAP1 PUSH1 0x0 MSTORE PUSH1 0x20 PUSH1 0x0 KECCAK256 SWAP1 PUSH1 0xA MUL ADD PUSH1 0x0 SWAP2 POP SWAP2 POP POP DUP1 PUSH1 0x0 ADD SLOAD SWAP1 DUP1 PUSH1 0x1 ADD SLOAD SWAP1 DUP1 PUSH1 0x2 ADD SLOAD SWAP1 DUP1 PUSH1 0x3 ADD SLOAD SWAP1 DUP1 PUSH1 0x4 ADD SLOAD SWAP1 DUP1 PUSH1 0x5 ADD SLOAD SWAP1 DUP1 PUSH1 0x6 ADD SLOAD SWAP1 DUP1 PUSH1 0x7 ADD PUSH1 0x0 SWAP1 SLOAD SWAP1 PUSH2 0x100 EXP SWAP1 DIV PUSH20 0xFFFFFFFFFFFFFFFFFFFFFFFFFFFFFFFFFFFFFFFF AND SWAP1 DUP1 PUSH1 0x8 ADD PUSH1 0x0 SWAP1 SLOAD SWAP1 PUSH2 0x100 EXP SWAP1 DIV PUSH20 0xFFFFFFFFFFFFFFFFFFFFFFFFFFFFFFFFFFFFFFFF AND SWAP1 DUP1 PUSH1 0x8 ADD PUSH1 0x14 SWAP1 SLOAD SWAP1 PUSH2 0x100 EXP SWAP1 DIV PUSH1 0xFF AND SWAP1 DUP1 PUSH1 0x9 ADD SLOAD SWAP1 POP DUP12 JUMP JUMPDEST DUP6 DUP6 DUP5 DUP4 PUSH1 0x0 DUP5 GT PUSH2 0xA57 JUMPI PUSH1 0x40 MLOAD PUSH32 0x8C379A000000000000000000000000000000000000000000000000000000000 DUP2 MSTORE PUSH1 0x4 ADD PUSH2 0xA4E SWAP1 PUSH2 0x19F6 JUMP JUMPDEST PUSH1 0x40 MLOAD DUP1 SWAP2 SUB SWAP1 REVERT JUMPDEST PUSH1 0x3 PUSH1 0x0 DUP3 PUSH20 0xFFFFFFFFFFFFFFFFFFFFFFFFFFFFFFFFFFFFFFFF AND PUSH20 0xFFFFFFFFFFFFFFFFFFFFFFFFFFFFFFFFFFFFFFFF AND DUP2 MSTORE PUSH1 0x20 ADD SWAP1 DUP2 MSTORE PUSH1 0x20 ADD PUSH1 0x0 KECCAK256 PUSH1 0x0 SWAP1 SLOAD SWAP1 PUSH2 0x100 EXP SWAP1 DIV PUSH1 0xFF AND PUSH2 0xAE3 JUMPI PUSH1 0x40 MLOAD PUSH32 0x8C379A000000000000000000000000000000000000000000000000000000000 DUP2 MSTORE PUSH1 0x4 ADD PUSH2 0xADA SWAP1 PUSH2 0x1A88 JUMP JUMPDEST PUSH1 0x40 MLOAD DUP1 SWAP2 SUB SWAP1 REVERT JUMPDEST DUP3 DUP3 LT PUSH2 0xB25 JUMPI PUSH1 0x40 MLOAD PUSH32 0x8C379A000000000000000000000000000000000000000000000000000000000 DUP2 MSTORE PUSH1 0x4 ADD PUSH2 0xB1C SWAP1 PUSH2 0x1AF4 JUMP JUMPDEST PUSH1 0x40 MLOAD DUP1 SWAP2 SUB SWAP1 REVERT JUMPDEST PUSH1 0x0 PUSH1 0x40 MLOAD DUP1 PUSH2 0x160 ADD PUSH1 0x40 MSTORE DUP1 DUP13 DUP2 MSTORE PUSH1 0x20 ADD TIMESTAMP DUP2 MSTORE PUSH1 0x20 ADD DUP12 DUP2 MSTORE PUSH1 0x20 ADD DUP11 DUP2 MSTORE PUSH1 0x20 ADD DUP10 DUP2 MSTORE PUSH1 0x20 ADD DUP12 DUP14 DUP13 PUSH2 0xB5E SWAP2 SWAP1 PUSH2 0x186A JUMP JUMPDEST PUSH2 0xB68 SWAP2 SWAP1 PUSH2 0x1839 JUMP JUMPDEST DUP2 MSTORE PUSH1 0x20 ADD PUSH1 0x2 PUSH1 0x0 CALLER PUSH20 0xFFFFFFFFFFFFFFFFFFFFFFFFFFFFFFFFFFFFFFFF AND PUSH20 0xFFFFFFFFFFFFFFFFFFFFFFFFFFFFFFFFFFFFFFFF AND DUP2 MSTORE PUSH1 0x20 ADD SWAP1 DUP2 MSTORE PUSH1 0x20 ADD PUSH1 0x0 KECCAK256 DUP1 SLOAD SWAP1 POP DUP2 MSTORE PUSH1 0x20 ADD DUP9 PUSH20 0xFFFFFFFFFFFFFFFFFFFFFFFFFFFFFFFFFFFFFFFF AND DUP2 MSTORE PUSH1 0x20 ADD DUP8 PUSH20 0xFFFFFFFFFFFFFFFFFFFFFFFFFFFFFFFFFFFFFFFF AND DUP2 MSTORE PUSH1 0x20 ADD PUSH1 0x1 ISZERO ISZERO DUP2 MSTORE PUSH1 0x20 ADD PUSH1 0x0 DUP2 MSTORE POP SWAP1 POP PUSH1 0x2 PUSH1 0x0 DUP9 PUSH20 0xFFFFFFFFFFFFFFFFFFFFFFFFFFFFFFFFFFFFFFFF AND PUSH20 0xFFFFFFFFFFFFFFFFFFFFFFFFFFFFFFFFFFFFFFFF AND DUP2 MSTORE PUSH1 0x20 ADD SWAP1 DUP2 MSTORE PUSH1 0x20 ADD PUSH1 0x0 KECCAK256 DUP2 SWAP1 DUP1 PUSH1 0x1 DUP2 SLOAD ADD DUP1 DUP3 SSTORE DUP1 SWAP2 POP POP PUSH1 0x1 SWAP1 SUB SWAP1 PUSH1 0x0 MSTORE PUSH1 0x20 PUSH1 0x0 KECCAK256 SWAP1 PUSH1 0xA MUL ADD PUSH1 0x0 SWAP1 SWAP2 SWAP1 SWAP2 SWAP1 SWAP2 POP PUSH1 0x0 DUP3 ADD MLOAD DUP2 PUSH1 0x0 ADD SSTORE PUSH1 0x20 DUP3 ADD MLOAD DUP2 PUSH1 0x1 ADD SSTORE PUSH1 0x40 DUP3 ADD MLOAD DUP2 PUSH1 0x2 ADD SSTORE PUSH1 0x60 DUP3 ADD MLOAD DUP2 PUSH1 0x3 ADD SSTORE PUSH1 0x80 DUP3 ADD MLOAD DUP2 PUSH1 0x4 ADD SSTORE PUSH1 0xA0 DUP3 ADD MLOAD DUP2 PUSH1 0x5 ADD SSTORE PUSH1 0xC0 DUP3 ADD MLOAD DUP2 PUSH1 0x6 ADD SSTORE PUSH1 0xE0 DUP3 ADD MLOAD DUP2 PUSH1 0x7 ADD PUSH1 0x0 PUSH2 0x100 EXP DUP2 SLOAD DUP2 PUSH20 0xFFFFFFFFFFFFFFFFFFFFFFFFFFFFFFFFFFFFFFFF MUL NOT AND SWAP1 DUP4 PUSH20 0xFFFFFFFFFFFFFFFFFFFFFFFFFFFFFFFFFFFFFFFF AND MUL OR SWAP1 SSTORE POP PUSH2 0x100 DUP3 ADD MLOAD DUP2 PUSH1 0x8 ADD PUSH1 0x0 PUSH2 0x100 EXP DUP2 SLOAD DUP2 PUSH20 0xFFFFFFFFFFFFFFFFFFFFFFFFFFFFFFFFFFFFFFFF MUL NOT AND SWAP1 DUP4 PUSH20 0xFFFFFFFFFFFFFFFFFFFFFFFFFFFFFFFFFFFFFFFF AND MUL OR SWAP1 SSTORE POP PUSH2 0x120 DUP3 ADD MLOAD DUP2 PUSH1 0x8 ADD PUSH1 0x14 PUSH2 0x100 EXP DUP2 SLOAD DUP2 PUSH1 0xFF MUL NOT AND SWAP1 DUP4 ISZERO ISZERO MUL OR SWAP1 SSTORE POP PUSH2 0x140 DUP3 ADD MLOAD DUP2 PUSH1 0x9 ADD SSTORE POP POP DUP6 PUSH1 0x0 DUP1 PUSH2 0x100 EXP DUP2 SLOAD DUP2 PUSH20 0xFFFFFFFFFFFFFFFFFFFFFFFFFFFFFFFFFFFFFFFF MUL NOT AND SWAP1 DUP4 PUSH20 0xFFFFFFFFFFFFFFFFFFFFFFFFFFFFFFFFFFFFFFFF AND MUL OR SWAP1 SSTORE POP PUSH1 0x0 DUP1 SLOAD SWAP1 PUSH2 0x100 EXP SWAP1 DIV PUSH20 0xFFFFFFFFFFFFFFFFFFFFFFFFFFFFFFFFFFFFFFFF AND PUSH20 0xFFFFFFFFFFFFFFFFFFFFFFFFFFFFFFFFFFFFFFFF AND PUSH4 0x23B872DD CALLER ADDRESS DUP15 PUSH1 0x40 MLOAD DUP5 PUSH4 0xFFFFFFFF AND PUSH1 0xE0 SHL DUP2 MSTORE PUSH1 0x4 ADD PUSH2 0xE06 SWAP4 SWAP3 SWAP2 SWAP1 PUSH2 0x1B14 JUMP JUMPDEST PUSH1 0x20 PUSH1 0x40 MLOAD DUP1 DUP4 SUB DUP2 PUSH1 0x0 DUP8 GAS CALL ISZERO DUP1 ISZERO PUSH2 0xE25 JUMPI RETURNDATASIZE PUSH1 0x0 DUP1 RETURNDATACOPY RETURNDATASIZE PUSH1 0x0 REVERT JUMPDEST POP POP POP POP PUSH1 0x40 MLOAD RETURNDATASIZE PUSH1 0x1F NOT PUSH1 0x1F DUP3 ADD AND DUP3 ADD DUP1 PUSH1 0x40 MSTORE POP DUP2 ADD SWAP1 PUSH2 0xE49 SWAP2 SWAP1 PUSH2 0x1772 JUMP JUMPDEST POP PUSH32 0x2C041AE393928AF2D7B44A39672D0319629F48C2F248CEF083A2A92F4159D07E CALLER DUP13 DUP13 DUP13 TIMESTAMP DUP14 DUP13 PUSH1 0x40 MLOAD PUSH2 0xE85 SWAP8 SWAP7 SWAP6 SWAP5 SWAP4 SWAP3 SWAP2 SWAP1 PUSH2 0x1B4B JUMP JUMPDEST PUSH1 0x40 MLOAD DUP1 SWAP2 SUB SWAP1 LOG1 POP POP POP POP POP POP POP POP POP POP POP JUMP JUMPDEST PUSH1 0x0 PUSH1 0x4 DUP1 SLOAD SWAP1 POP SWAP1 POP SWAP1 JUMP JUMPDEST PUSH1 0x0 PUSH1 0x2 PUSH1 0x0 CALLER PUSH20 0xFFFFFFFFFFFFFFFFFFFFFFFFFFFFFFFFFFFFFFFF AND PUSH20 0xFFFFFFFFFFFFFFFFFFFFFFFFFFFFFFFFFFFFFFFF AND DUP2 MSTORE PUSH1 0x20 ADD SWAP1 DUP2 MSTORE PUSH1 0x20 ADD PUSH1 0x0 KECCAK256 DUP1 SLOAD SWAP1 POP SWAP1 POP SWAP1 JUMP JUMPDEST PUSH1 0x4 DUP2 DUP2 SLOAD DUP2 LT PUSH2 0xF01 JUMPI PUSH1 0x0 DUP1 REVERT JUMPDEST SWAP1 PUSH1 0x0 MSTORE PUSH1 0x20 PUSH1 0x0 KECCAK256 ADD PUSH1 0x0 SWAP2 POP SLOAD SWAP1 PUSH2 0x100 EXP SWAP1 DIV PUSH20 0xFFFFFFFFFFFFFFFFFFFFFFFFFFFFFFFFFFFFFFFF AND DUP2 JUMP JUMPDEST PUSH1 0x1 PUSH1 0x0 SWAP1 SLOAD SWAP1 PUSH2 0x100 EXP SWAP1 DIV PUSH20 0xFFFFFFFFFFFFFFFFFFFFFFFFFFFFFFFFFFFFFFFF AND PUSH20 0xFFFFFFFFFFFFFFFFFFFFFFFFFFFFFFFFFFFFFFFF AND CALLER PUSH20 0xFFFFFFFFFFFFFFFFFFFFFFFFFFFFFFFFFFFFFFFF AND EQ PUSH2 0xFC0 JUMPI PUSH1 0x40 MLOAD PUSH32 0x8C379A000000000000000000000000000000000000000000000000000000000 DUP2 MSTORE PUSH1 0x4 ADD PUSH2 0xFB7 SWAP1 PUSH2 0x191E JUMP JUMPDEST PUSH1 0x40 MLOAD DUP1 SWAP2 SUB SWAP1 REVERT JUMPDEST PUSH1 0x1 ISZERO ISZERO PUSH1 0x3 PUSH1 0x0 DUP4 PUSH20 0xFFFFFFFFFFFFFFFFFFFFFFFFFFFFFFFFFFFFFFFF AND PUSH20 0xFFFFFFFFFFFFFFFFFFFFFFFFFFFFFFFFFFFFFFFF AND DUP2 MSTORE PUSH1 0x20 ADD SWAP1 DUP2 MSTORE PUSH1 0x20 ADD PUSH1 0x0 KECCAK256 PUSH1 0x0 SWAP1 SLOAD SWAP1 PUSH2 0x100 EXP SWAP1 DIV PUSH1 0xFF AND ISZERO ISZERO SUB PUSH2 0x1053 JUMPI PUSH1 0x40 MLOAD PUSH32 0x8C379A000000000000000000000000000000000000000000000000000000000 DUP2 MSTORE PUSH1 0x4 ADD PUSH2 0x104A SWAP1 PUSH2 0x1C06 JUMP JUMPDEST PUSH1 0x40 MLOAD DUP1 SWAP2 SUB SWAP1 REVERT JUMPDEST PUSH1 0x1 PUSH1 0x3 PUSH1 0x0 DUP4 PUSH20 0xFFFFFFFFFFFFFFFFFFFFFFFFFFFFFFFFFFFFFFFF AND PUSH20 0xFFFFFFFFFFFFFFFFFFFFFFFFFFFFFFFFFFFFFFFF AND DUP2 MSTORE PUSH1 0x20 ADD SWAP1 DUP2 MSTORE PUSH1 0x20 ADD PUSH1 0x0 KECCAK256 PUSH1 0x0 PUSH2 0x100 EXP DUP2 SLOAD DUP2 PUSH1 0xFF MUL NOT AND SWAP1 DUP4 ISZERO ISZERO MUL OR SWAP1 SSTORE POP PUSH1 0x4 DUP2 SWAP1 DUP1 PUSH1 0x1 DUP2 SLOAD ADD DUP1 DUP3 SSTORE DUP1 SWAP2 POP POP PUSH1 0x1 SWAP1 SUB SWAP1 PUSH1 0x0 MSTORE PUSH1 0x20 PUSH1 0x0 KECCAK256 ADD PUSH1 0x0 SWAP1 SWAP2 SWAP1 SWAP2 SWAP1 SWAP2 PUSH2 0x100 EXP DUP2 SLOAD DUP2 PUSH20 0xFFFFFFFFFFFFFFFFFFFFFFFFFFFFFFFFFFFFFFFF MUL NOT AND SWAP1 DUP4 PUSH20 0xFFFFFFFFFFFFFFFFFFFFFFFFFFFFFFFFFFFFFFFF AND MUL OR SWAP1 SSTORE POP POP JUMP JUMPDEST PUSH1 0x0 DUP1 SLOAD SWAP1 PUSH2 0x100 EXP SWAP1 DIV PUSH20 0xFFFFFFFFFFFFFFFFFFFFFFFFFFFFFFFFFFFFFFFF AND DUP2 JUMP JUMPDEST PUSH1 0x0 DUP1 REVERT JUMPDEST PUSH1 0x0 DUP2 SWAP1 POP SWAP2 SWAP1 POP JUMP JUMPDEST PUSH2 0x114D DUP2 PUSH2 0x113A JUMP JUMPDEST DUP2 EQ PUSH2 0x1158 JUMPI PUSH1 0x0 DUP1 REVERT JUMPDEST POP JUMP JUMPDEST PUSH1 0x0 DUP2 CALLDATALOAD SWAP1 POP PUSH2 0x116A DUP2 PUSH2 0x1144 JUMP JUMPDEST SWAP3 SWAP2 POP POP JUMP JUMPDEST PUSH1 0x0 PUSH1 0x20 DUP3 DUP5 SUB SLT ISZERO PUSH2 0x1186 JUMPI PUSH2 0x1185 PUSH2 0x1135 JUMP JUMPDEST JUMPDEST PUSH1 0x0 PUSH2 0x1194 DUP5 DUP3 DUP6 ADD PUSH2 0x115B JUMP JUMPDEST SWAP2 POP POP SWAP3 SWAP2 POP POP JUMP JUMPDEST PUSH2 0x11A6 DUP2 PUSH2 0x113A JUMP JUMPDEST DUP3 MSTORE POP POP JUMP JUMPDEST PUSH1 0x0 PUSH1 0x20 DUP3 ADD SWAP1 POP PUSH2 0x11C1 PUSH1 0x0 DUP4 ADD DUP5 PUSH2 0x119D JUMP JUMPDEST SWAP3 SWAP2 POP POP JUMP JUMPDEST PUSH1 0x0 PUSH20 0xFFFFFFFFFFFFFFFFFFFFFFFFFFFFFFFFFFFFFFFF DUP3 AND SWAP1 POP SWAP2 SWAP1 POP JUMP JUMPDEST PUSH1 0x0 PUSH2 0x11F2 DUP3 PUSH2 0x11C7 JUMP JUMPDEST SWAP1 POP SWAP2 SWAP1 POP JUMP JUMPDEST PUSH2 0x1202 DUP2 PUSH2 0x11E7 JUMP JUMPDEST DUP2 EQ PUSH2 0x120D JUMPI PUSH1 0x0 DUP1 REVERT JUMPDEST POP JUMP JUMPDEST PUSH1 0x0 DUP2 CALLDATALOAD SWAP1 POP PUSH2 0x121F DUP2 PUSH2 0x11F9 JUMP JUMPDEST SWAP3 SWAP2 POP POP JUMP JUMPDEST PUSH1 0x0 PUSH1 0x20 DUP3 DUP5 SUB SLT ISZERO PUSH2 0x123B JUMPI PUSH2 0x123A PUSH2 0x1135 JUMP JUMPDEST JUMPDEST PUSH1 0x0 PUSH2 0x1249 DUP5 DUP3 DUP6 ADD PUSH2 0x1210 JUMP JUMPDEST SWAP2 POP POP SWAP3 SWAP2 POP POP JUMP JUMPDEST PUSH1 0x0 DUP2 ISZERO ISZERO SWAP1 POP SWAP2 SWAP1 POP JUMP JUMPDEST PUSH2 0x1267 DUP2 PUSH2 0x1252 JUMP JUMPDEST DUP3 MSTORE POP POP JUMP JUMPDEST PUSH1 0x0 PUSH1 0x20 DUP3 ADD SWAP1 POP PUSH2 0x1282 PUSH1 0x0 DUP4 ADD DUP5 PUSH2 0x125E JUMP JUMPDEST SWAP3 SWAP2 POP POP JUMP JUMPDEST PUSH1 0x0 DUP1 PUSH1 0x40 DUP4 DUP6 SUB SLT ISZERO PUSH2 0x129F JUMPI PUSH2 0x129E PUSH2 0x1135 JUMP JUMPDEST JUMPDEST PUSH1 0x0 PUSH2 0x12AD DUP6 DUP3 DUP7 ADD PUSH2 0x1210 JUMP JUMPDEST SWAP3 POP POP PUSH1 0x20 PUSH2 0x12BE DUP6 DUP3 DUP7 ADD PUSH2 0x115B JUMP JUMPDEST SWAP2 POP POP SWAP3 POP SWAP3 SWAP1 POP JUMP JUMPDEST PUSH2 0x12D1 DUP2 PUSH2 0x11E7 JUMP JUMPDEST DUP3 MSTORE POP POP JUMP JUMPDEST PUSH1 0x0 PUSH2 0x160 DUP3 ADD SWAP1 POP PUSH2 0x12ED PUSH1 0x0 DUP4 ADD DUP15 PUSH2 0x119D JUMP JUMPDEST PUSH2 0x12FA PUSH1 0x20 DUP4 ADD DUP14 PUSH2 0x119D JUMP JUMPDEST PUSH2 0x1307 PUSH1 0x40 DUP4 ADD DUP13 PUSH2 0x119D JUMP JUMPDEST PUSH2 0x1314 PUSH1 0x60 DUP4 ADD DUP12 PUSH2 0x119D JUMP JUMPDEST PUSH2 0x1321 PUSH1 0x80 DUP4 ADD DUP11 PUSH2 0x119D JUMP JUMPDEST PUSH2 0x132E PUSH1 0xA0 DUP4 ADD DUP10 PUSH2 0x119D JUMP JUMPDEST PUSH2 0x133B PUSH1 0xC0 DUP4 ADD DUP9 PUSH2 0x119D JUMP JUMPDEST PUSH2 0x1348 PUSH1 0xE0 DUP4 ADD DUP8 PUSH2 0x12C8 JUMP JUMPDEST PUSH2 0x1356 PUSH2 0x100 DUP4 ADD DUP7 PUSH2 0x12C8 JUMP JUMPDEST PUSH2 0x1364 PUSH2 0x120 DUP4 ADD DUP6 PUSH2 0x125E JUMP JUMPDEST PUSH2 0x1372 PUSH2 0x140 DUP4 ADD DUP5 PUSH2 0x119D JUMP JUMPDEST SWAP13 SWAP12 POP POP POP POP POP POP POP POP POP POP POP POP JUMP JUMPDEST PUSH1 0x0 DUP1 PUSH1 0x0 DUP1 PUSH1 0x0 DUP1 PUSH1 0xC0 DUP8 DUP10 SUB SLT ISZERO PUSH2 0x139F JUMPI PUSH2 0x139E PUSH2 0x1135 JUMP JUMPDEST JUMPDEST PUSH1 0x0 PUSH2 0x13AD DUP10 DUP3 DUP11 ADD PUSH2 0x115B JUMP JUMPDEST SWAP7 POP POP PUSH1 0x20 PUSH2 0x13BE DUP10 DUP3 DUP11 ADD PUSH2 0x115B JUMP JUMPDEST SWAP6 POP POP PUSH1 0x40 PUSH2 0x13CF DUP10 DUP3 DUP11 ADD PUSH2 0x115B JUMP JUMPDEST SWAP5 POP POP PUSH1 0x60 PUSH2 0x13E0 DUP10 DUP3 DUP11 ADD PUSH2 0x115B JUMP JUMPDEST SWAP4 POP POP PUSH1 0x80 PUSH2 0x13F1 DUP10 DUP3 DUP11 ADD PUSH2 0x1210 JUMP JUMPDEST SWAP3 POP POP PUSH1 0xA0 PUSH2 0x1402 DUP10 DUP3 DUP11 ADD PUSH2 0x1210 JUMP JUMPDEST SWAP2 POP POP SWAP3 SWAP6 POP SWAP3 SWAP6 POP SWAP3 SWAP6 JUMP JUMPDEST PUSH1 0x0 PUSH1 0x20 DUP3 ADD SWAP1 POP PUSH2 0x1424 PUSH1 0x0 DUP4 ADD DUP5 PUSH2 0x12C8 JUMP JUMPDEST SWAP3 SWAP2 POP POP JUMP JUMPDEST PUSH1 0x0 DUP2 SWAP1 POP SWAP2 SWAP1 POP JUMP JUMPDEST PUSH1 0x0 PUSH2 0x144F PUSH2 0x144A PUSH2 0x1445 DUP5 PUSH2 0x11C7 JUMP JUMPDEST PUSH2 0x142A JUMP JUMPDEST PUSH2 0x11C7 JUMP JUMPDEST SWAP1 POP SWAP2 SWAP1 POP JUMP JUMPDEST PUSH1 0x0 PUSH2 0x1461 DUP3 PUSH2 0x1434 JUMP JUMPDEST SWAP1 POP SWAP2 SWAP1 POP JUMP JUMPDEST PUSH1 0x0 PUSH2 0x1473 DUP3 PUSH2 0x1456 JUMP JUMPDEST SWAP1 POP SWAP2 SWAP1 POP JUMP JUMPDEST PUSH2 0x1483 DUP2 PUSH2 0x1468 JUMP JUMPDEST DUP3 MSTORE POP POP JUMP JUMPDEST PUSH1 0x0 PUSH1 0x20 DUP3 ADD SWAP1 POP PUSH2 0x149E PUSH1 0x0 DUP4 ADD DUP5 PUSH2 0x147A JUMP JUMPDEST SWAP3 SWAP2 POP POP JUMP JUMPDEST PUSH32 0x4E487B7100000000000000000000000000000000000000000000000000000000 PUSH1 0x0 MSTORE PUSH1 0x32 PUSH1 0x4 MSTORE PUSH1 0x24 PUSH1 0x0 REVERT JUMPDEST PUSH1 0x0 DUP3 DUP3 MSTORE PUSH1 0x20 DUP3 ADD SWAP1 POP SWAP3 SWAP2 POP POP JUMP JUMPDEST PUSH32 0x46756E64732068617665206E6F74206265656E206C6F636B6564000000000000 PUSH1 0x0 DUP3 ADD MSTORE POP JUMP JUMPDEST PUSH1 0x0 PUSH2 0x151A PUSH1 0x1A DUP4 PUSH2 0x14D3 JUMP JUMPDEST SWAP2 POP PUSH2 0x1525 DUP3 PUSH2 0x14E4 JUMP JUMPDEST PUSH1 0x20 DUP3 ADD SWAP1 POP SWAP2 SWAP1 POP JUMP JUMPDEST PUSH1 0x0 PUSH1 0x20 DUP3 ADD SWAP1 POP DUP2 DUP2 SUB PUSH1 0x0 DUP4 ADD MSTORE PUSH2 0x1549 DUP2 PUSH2 0x150D JUMP JUMPDEST SWAP1 POP SWAP2 SWAP1 POP JUMP JUMPDEST PUSH32 0x546F6B656E20756E646572206C6F636B696E6720706C6561736520776169742E PUSH1 0x0 DUP3 ADD MSTORE PUSH32 0x2E00000000000000000000000000000000000000000000000000000000000000 PUSH1 0x20 DUP3 ADD MSTORE POP JUMP JUMPDEST PUSH1 0x0 PUSH2 0x15AC PUSH1 0x21 DUP4 PUSH2 0x14D3 JUMP JUMPDEST SWAP2 POP PUSH2 0x15B7 DUP3 PUSH2 0x1550 JUMP JUMPDEST PUSH1 0x40 DUP3 ADD SWAP1 POP SWAP2 SWAP1 POP JUMP JUMPDEST PUSH1 0x0 PUSH1 0x20 DUP3 ADD SWAP1 POP DUP2 DUP2 SUB PUSH1 0x0 DUP4 ADD MSTORE PUSH2 0x15DB DUP2 PUSH2 0x159F JUMP JUMPDEST SWAP1 POP SWAP2 SWAP1 POP JUMP JUMPDEST PUSH32 0x4E487B7100000000000000000000000000000000000000000000000000000000 PUSH1 0x0 MSTORE PUSH1 0x11 PUSH1 0x4 MSTORE PUSH1 0x24 PUSH1 0x0 REVERT JUMPDEST PUSH1 0x0 PUSH2 0x161C DUP3 PUSH2 0x113A JUMP JUMPDEST SWAP2 POP PUSH2 0x1627 DUP4 PUSH2 0x113A JUMP JUMPDEST SWAP3 POP DUP3 DUP3 ADD SWAP1 POP DUP1 DUP3 GT ISZERO PUSH2 0x163F JUMPI PUSH2 0x163E PUSH2 0x15E2 JUMP JUMPDEST JUMPDEST SWAP3 SWAP2 POP POP JUMP JUMPDEST PUSH32 0x436C696666206973206E6F7420656E646564207965742E000000000000000000 PUSH1 0x0 DUP3 ADD MSTORE POP JUMP JUMPDEST PUSH1 0x0 PUSH2 0x167B PUSH1 0x17 DUP4 PUSH2 0x14D3 JUMP JUMPDEST SWAP2 POP PUSH2 0x1686 DUP3 PUSH2 0x1645 JUMP JUMPDEST PUSH1 0x20 DUP3 ADD SWAP1 POP SWAP2 SWAP1 POP JUMP JUMPDEST PUSH1 0x0 PUSH1 0x20 DUP3 ADD SWAP1 POP DUP2 DUP2 SUB PUSH1 0x0 DUP4 ADD MSTORE PUSH2 0x16AA DUP2 PUSH2 0x166E JUMP JUMPDEST SWAP1 POP SWAP2 SWAP1 POP JUMP JUMPDEST PUSH32 0x4E6F7420656E6F75676820616D6F756E7420666F722077697468647261770000 PUSH1 0x0 DUP3 ADD MSTORE POP JUMP JUMPDEST PUSH1 0x0 PUSH2 0x16E7 PUSH1 0x1E DUP4 PUSH2 0x14D3 JUMP JUMPDEST SWAP2 POP PUSH2 0x16F2 DUP3 PUSH2 0x16B1 JUMP JUMPDEST PUSH1 0x20 DUP3 ADD SWAP1 POP SWAP2 SWAP1 POP JUMP JUMPDEST PUSH1 0x0 PUSH1 0x20 DUP3 ADD SWAP1 POP DUP2 DUP2 SUB PUSH1 0x0 DUP4 ADD MSTORE PUSH2 0x1716 DUP2 PUSH2 0x16DA JUMP JUMPDEST SWAP1 POP SWAP2 SWAP1 POP JUMP JUMPDEST PUSH1 0x0 PUSH1 0x40 DUP3 ADD SWAP1 POP PUSH2 0x1732 PUSH1 0x0 DUP4 ADD DUP6 PUSH2 0x12C8 JUMP JUMPDEST PUSH2 0x173F PUSH1 0x20 DUP4 ADD DUP5 PUSH2 0x119D JUMP JUMPDEST SWAP4 SWAP3 POP POP POP JUMP JUMPDEST PUSH2 0x174F DUP2 PUSH2 0x1252 JUMP JUMPDEST DUP2 EQ PUSH2 0x175A JUMPI PUSH1 0x0 DUP1 REVERT JUMPDEST POP JUMP JUMPDEST PUSH1 0x0 DUP2 MLOAD SWAP1 POP PUSH2 0x176C DUP2 PUSH2 0x1746 JUMP JUMPDEST SWAP3 SWAP2 POP POP JUMP JUMPDEST PUSH1 0x0 PUSH1 0x20 DUP3 DUP5 SUB SLT ISZERO PUSH2 0x1788 JUMPI PUSH2 0x1787 PUSH2 0x1135 JUMP JUMPDEST JUMPDEST PUSH1 0x0 PUSH2 0x1796 DUP5 DUP3 DUP6 ADD PUSH2 0x175D JUMP JUMPDEST SWAP2 POP POP SWAP3 SWAP2 POP POP JUMP JUMPDEST PUSH1 0x0 PUSH2 0x17AA DUP3 PUSH2 0x113A JUMP JUMPDEST SWAP2 POP PUSH2 0x17B5 DUP4 PUSH2 0x113A JUMP JUMPDEST SWAP3 POP DUP3 DUP3 SUB SWAP1 POP DUP2 DUP2 GT ISZERO PUSH2 0x17CD JUMPI PUSH2 0x17CC PUSH2 0x15E2 JUMP JUMPDEST JUMPDEST SWAP3 SWAP2 POP POP JUMP JUMPDEST PUSH1 0x0 PUSH1 0x60 DUP3 ADD SWAP1 POP PUSH2 0x17E8 PUSH1 0x0 DUP4 ADD DUP7 PUSH2 0x12C8 JUMP JUMPDEST PUSH2 0x17F5 PUSH1 0x20 DUP4 ADD DUP6 PUSH2 0x119D JUMP JUMPDEST PUSH2 0x1802 PUSH1 0x40 DUP4 ADD DUP5 PUSH2 0x119D JUMP JUMPDEST SWAP5 SWAP4 POP POP POP POP JUMP JUMPDEST PUSH32 0x4E487B7100000000000000000000000000000000000000000000000000000000 PUSH1 0x0 MSTORE PUSH1 0x12 PUSH1 0x4 MSTORE PUSH1 0x24 PUSH1 0x0 REVERT JUMPDEST PUSH1 0x0 PUSH2 0x1844 DUP3 PUSH2 0x113A JUMP JUMPDEST SWAP2 POP PUSH2 0x184F DUP4 PUSH2 0x113A JUMP JUMPDEST SWAP3 POP DUP3 PUSH2 0x185F JUMPI PUSH2 0x185E PUSH2 0x180A JUMP JUMPDEST JUMPDEST DUP3 DUP3 DIV SWAP1 POP SWAP3 SWAP2 POP POP JUMP JUMPDEST PUSH1 0x0 PUSH2 0x1875 DUP3 PUSH2 0x113A JUMP JUMPDEST SWAP2 POP PUSH2 0x1880 DUP4 PUSH2 0x113A JUMP JUMPDEST SWAP3 POP DUP3 DUP3 MUL PUSH2 0x188E DUP2 PUSH2 0x113A JUMP JUMPDEST SWAP2 POP DUP3 DUP3 DIV DUP5 EQ DUP4 ISZERO OR PUSH2 0x18A5 JUMPI PUSH2 0x18A4 PUSH2 0x15E2 JUMP JUMPDEST JUMPDEST POP SWAP3 SWAP2 POP POP JUMP JUMPDEST PUSH32 0x4F6E6C792074686520636F6E7472616374206F776E65722063616E2063616C6C PUSH1 0x0 DUP3 ADD MSTORE PUSH32 0x20746869732066756E6374696F6E000000000000000000000000000000000000 PUSH1 0x20 DUP3 ADD MSTORE POP JUMP JUMPDEST PUSH1 0x0 PUSH2 0x1908 PUSH1 0x2E DUP4 PUSH2 0x14D3 JUMP JUMPDEST SWAP2 POP PUSH2 0x1913 DUP3 PUSH2 0x18AC JUMP JUMPDEST PUSH1 0x40 DUP3 ADD SWAP1 POP SWAP2 SWAP1 POP JUMP JUMPDEST PUSH1 0x0 PUSH1 0x20 DUP3 ADD SWAP1 POP DUP2 DUP2 SUB PUSH1 0x0 DUP4 ADD MSTORE PUSH2 0x1937 DUP2 PUSH2 0x18FB JUMP JUMPDEST SWAP1 POP SWAP2 SWAP1 POP JUMP JUMPDEST PUSH32 0x546F6B656E206973206E6F7420696E2077686974656C69737400000000000000 PUSH1 0x0 DUP3 ADD MSTORE POP JUMP JUMPDEST PUSH1 0x0 PUSH2 0x1974 PUSH1 0x19 DUP4 PUSH2 0x14D3 JUMP JUMPDEST SWAP2 POP PUSH2 0x197F DUP3 PUSH2 0x193E JUMP JUMPDEST PUSH1 0x20 DUP3 ADD SWAP1 POP SWAP2 SWAP1 POP JUMP JUMPDEST PUSH1 0x0 PUSH1 0x20 DUP3 ADD SWAP1 POP DUP2 DUP2 SUB PUSH1 0x0 DUP4 ADD MSTORE PUSH2 0x19A3 DUP2 PUSH2 0x1967 JUMP JUMPDEST SWAP1 POP SWAP2 SWAP1 POP JUMP JUMPDEST PUSH32 0x416D6F756E74206E6F74206265205A65726F0000000000000000000000000000 PUSH1 0x0 DUP3 ADD MSTORE POP JUMP JUMPDEST PUSH1 0x0 PUSH2 0x19E0 PUSH1 0x12 DUP4 PUSH2 0x14D3 JUMP JUMPDEST SWAP2 POP PUSH2 0x19EB DUP3 PUSH2 0x19AA JUMP JUMPDEST PUSH1 0x20 DUP3 ADD SWAP1 POP SWAP2 SWAP1 POP JUMP JUMPDEST PUSH1 0x0 PUSH1 0x20 DUP3 ADD SWAP1 POP DUP2 DUP2 SUB PUSH1 0x0 DUP4 ADD MSTORE PUSH2 0x1A0F DUP2 PUSH2 0x19D3 JUMP JUMPDEST SWAP1 POP SWAP2 SWAP1 POP JUMP JUMPDEST PUSH32 0x596F7520617265206E6F7420616C6C6F77656420746F20757365207468697320 PUSH1 0x0 DUP3 ADD MSTORE PUSH32 0x636F6E74726163742E0000000000000000000000000000000000000000000000 PUSH1 0x20 DUP3 ADD MSTORE POP JUMP JUMPDEST PUSH1 0x0 PUSH2 0x1A72 PUSH1 0x29 DUP4 PUSH2 0x14D3 JUMP JUMPDEST SWAP2 POP PUSH2 0x1A7D DUP3 PUSH2 0x1A16 JUMP JUMPDEST PUSH1 0x40 DUP3 ADD SWAP1 POP SWAP2 SWAP1 POP JUMP JUMPDEST PUSH1 0x0 PUSH1 0x20 DUP3 ADD SWAP1 POP DUP2 DUP2 SUB PUSH1 0x0 DUP4 ADD MSTORE PUSH2 0x1AA1 DUP2 PUSH2 0x1A65 JUMP JUMPDEST SWAP1 POP SWAP2 SWAP1 POP JUMP JUMPDEST PUSH32 0x436C696666206D757374206D65206C657373207468616E206475726174696F6E PUSH1 0x0 DUP3 ADD MSTORE POP JUMP JUMPDEST PUSH1 0x0 PUSH2 0x1ADE PUSH1 0x20 DUP4 PUSH2 0x14D3 JUMP JUMPDEST SWAP2 POP PUSH2 0x1AE9 DUP3 PUSH2 0x1AA8 JUMP JUMPDEST PUSH1 0x20 DUP3 ADD SWAP1 POP SWAP2 SWAP1 POP JUMP JUMPDEST PUSH1 0x0 PUSH1 0x20 DUP3 ADD SWAP1 POP DUP2 DUP2 SUB PUSH1 0x0 DUP4 ADD MSTORE PUSH2 0x1B0D DUP2 PUSH2 0x1AD1 JUMP JUMPDEST SWAP1 POP SWAP2 SWAP1 POP JUMP JUMPDEST PUSH1 0x0 PUSH1 0x60 DUP3 ADD SWAP1 POP PUSH2 0x1B29 PUSH1 0x0 DUP4 ADD DUP7 PUSH2 0x12C8 JUMP JUMPDEST PUSH2 0x1B36 PUSH1 0x20 DUP4 ADD DUP6 PUSH2 0x12C8 JUMP JUMPDEST PUSH2 0x1B43 PUSH1 0x40 DUP4 ADD DUP5 PUSH2 0x119D JUMP JUMPDEST SWAP5 SWAP4 POP POP POP POP JUMP JUMPDEST PUSH1 0x0 PUSH1 0xE0 DUP3 ADD SWAP1 POP PUSH2 0x1B60 PUSH1 0x0 DUP4 ADD DUP11 PUSH2 0x12C8 JUMP JUMPDEST PUSH2 0x1B6D PUSH1 0x20 DUP4 ADD DUP10 PUSH2 0x119D JUMP JUMPDEST PUSH2 0x1B7A PUSH1 0x40 DUP4 ADD DUP9 PUSH2 0x119D JUMP JUMPDEST PUSH2 0x1B87 PUSH1 0x60 DUP4 ADD DUP8 PUSH2 0x119D JUMP JUMPDEST PUSH2 0x1B94 PUSH1 0x80 DUP4 ADD DUP7 PUSH2 0x119D JUMP JUMPDEST PUSH2 0x1BA1 PUSH1 0xA0 DUP4 ADD DUP6 PUSH2 0x119D JUMP JUMPDEST PUSH2 0x1BAE PUSH1 0xC0 DUP4 ADD DUP5 PUSH2 0x12C8 JUMP JUMPDEST SWAP9 SWAP8 POP POP POP POP POP POP POP POP JUMP JUMPDEST PUSH32 0x546F6B656E20616C726561647920616464656420746F2077686974656C697374 PUSH1 0x0 DUP3 ADD MSTORE POP JUMP JUMPDEST PUSH1 0x0 PUSH2 0x1BF0 PUSH1 0x20 DUP4 PUSH2 0x14D3 JUMP JUMPDEST SWAP2 POP PUSH2 0x1BFB DUP3 PUSH2 0x1BBA JUMP JUMPDEST PUSH1 0x20 DUP3 ADD SWAP1 POP SWAP2 SWAP1 POP JUMP JUMPDEST PUSH1 0x0 PUSH1 0x20 DUP3 ADD SWAP1 POP DUP2 DUP2 SUB PUSH1 0x0 DUP4 ADD MSTORE PUSH2 0x1C1F DUP2 PUSH2 0x1BE3 JUMP JUMPDEST SWAP1 POP SWAP2 SWAP1 POP JUMP INVALID LOG2 PUSH5 0x6970667358 0x22 SLT KECCAK256 MLOAD EXTCODEHASH LOG2 0xEF 0xE3 PUSH6 0xEACB4F214E0C EQ PC PUSH19 0x3FEB3468E54720F5FC808C50B127BF538B6473 PUSH16 0x6C634300081200330000000000000000 "
				},
				"gasEstimates": {
					"creation": {
						"codeDepositCost": "1452000",
						"executionCost": "25779",
						"totalCost": "1477779"
					},
					"external": {
						"CheckWhitelist(address)": "2934",
						"WhiteListTokens(uint256)": "5022",
						"addWhitelist(address)": "77910",
						"calculate_available_withdraw_token(uint256)": "infinite",
						"getTime()": "359",
						"getTotalVesting()": "2578",
						"getTotalWhitelist()": "2467",
						"lock(uint256,uint256,uint256,uint256,address,address)": "infinite",
						"removeWhitelist(address)": "53642",
						"token()": "infinite",
						"vestings(address,uint256)": "infinite",
						"withdraw(uint256)": "infinite"
					}
				},
				"methodIdentifiers": {
					"CheckWhitelist(address)": "95290163",
					"WhiteListTokens(uint256)": "eab72e65",
					"addWhitelist(address)": "f80f5dd5",
					"calculate_available_withdraw_token(uint256)": "5952ffd1",
					"getTime()": "557ed1ba",
					"getTotalVesting()": "e9afad38",
					"getTotalWhitelist()": "d41330d2",
					"lock(uint256,uint256,uint256,uint256,address,address)": "ce4f696b",
					"removeWhitelist(address)": "78c8cda7",
					"token()": "fc0c546a",
					"vestings(address,uint256)": "bd84477d",
					"withdraw(uint256)": "2e1a7d4d"
				}
			},
			"storageLayout": {
				"storage": [
					{
						"astId": 717,
						"contract": "Vesting Contract/version2.sol:VestingContract",
						"label": "token",
						"offset": 0,
						"slot": "0",
						"type": "t_contract(ERC20)586"
					},
					{
						"astId": 719,
						"contract": "Vesting Contract/version2.sol:VestingContract",
						"label": "owner",
						"offset": 0,
						"slot": "1",
						"type": "t_address"
					},
					{
						"astId": 757,
						"contract": "Vesting Contract/version2.sol:VestingContract",
						"label": "vestings",
						"offset": 0,
						"slot": "2",
						"type": "t_mapping(t_address,t_array(t_struct(VestingSchedule)751_storage)dyn_storage)"
					},
					{
						"astId": 761,
						"contract": "Vesting Contract/version2.sol:VestingContract",
						"label": "CheckWhitelist",
						"offset": 0,
						"slot": "3",
						"type": "t_mapping(t_address,t_bool)"
					},
					{
						"astId": 764,
						"contract": "Vesting Contract/version2.sol:VestingContract",
						"label": "WhiteListTokens",
						"offset": 0,
						"slot": "4",
						"type": "t_array(t_address)dyn_storage"
					}
				],
				"types": {
					"t_address": {
						"encoding": "inplace",
						"label": "address",
						"numberOfBytes": "20"
					},
					"t_array(t_address)dyn_storage": {
						"base": "t_address",
						"encoding": "dynamic_array",
						"label": "address[]",
						"numberOfBytes": "32"
					},
					"t_array(t_struct(VestingSchedule)751_storage)dyn_storage": {
						"base": "t_struct(VestingSchedule)751_storage",
						"encoding": "dynamic_array",
						"label": "struct VestingContract.VestingSchedule[]",
						"numberOfBytes": "32"
					},
					"t_bool": {
						"encoding": "inplace",
						"label": "bool",
						"numberOfBytes": "1"
					},
					"t_contract(ERC20)586": {
						"encoding": "inplace",
						"label": "contract ERC20",
						"numberOfBytes": "20"
					},
					"t_mapping(t_address,t_array(t_struct(VestingSchedule)751_storage)dyn_storage)": {
						"encoding": "mapping",
						"key": "t_address",
						"label": "mapping(address => struct VestingContract.VestingSchedule[])",
						"numberOfBytes": "32",
						"value": "t_array(t_struct(VestingSchedule)751_storage)dyn_storage"
					},
					"t_mapping(t_address,t_bool)": {
						"encoding": "mapping",
						"key": "t_address",
						"label": "mapping(address => bool)",
						"numberOfBytes": "32",
						"value": "t_bool"
					},
					"t_struct(VestingSchedule)751_storage": {
						"encoding": "inplace",
						"label": "struct VestingContract.VestingSchedule",
						"members": [
							{
								"astId": 730,
								"contract": "Vesting Contract/version2.sol:VestingContract",
								"label": "amount",
								"offset": 0,
								"slot": "0",
								"type": "t_uint256"
							},
							{
								"astId": 732,
								"contract": "Vesting Contract/version2.sol:VestingContract",
								"label": "start",
								"offset": 0,
								"slot": "1",
								"type": "t_uint256"
							},
							{
								"astId": 734,
								"contract": "Vesting Contract/version2.sol:VestingContract",
								"label": "duration",
								"offset": 0,
								"slot": "2",
								"type": "t_uint256"
							},
							{
								"astId": 736,
								"contract": "Vesting Contract/version2.sol:VestingContract",
								"label": "slice_period",
								"offset": 0,
								"slot": "3",
								"type": "t_uint256"
							},
							{
								"astId": 738,
								"contract": "Vesting Contract/version2.sol:VestingContract",
								"label": "cliff",
								"offset": 0,
								"slot": "4",
								"type": "t_uint256"
							},
							{
								"astId": 740,
								"contract": "Vesting Contract/version2.sol:VestingContract",
								"label": "recive_on_interval",
								"offset": 0,
								"slot": "5",
								"type": "t_uint256"
							},
							{
								"astId": 742,
								"contract": "Vesting Contract/version2.sol:VestingContract",
								"label": "VestingId",
								"offset": 0,
								"slot": "6",
								"type": "t_uint256"
							},
							{
								"astId": 744,
								"contract": "Vesting Contract/version2.sol:VestingContract",
								"label": "beneficiaries",
								"offset": 0,
								"slot": "7",
								"type": "t_address"
							},
							{
								"astId": 746,
								"contract": "Vesting Contract/version2.sol:VestingContract",
								"label": "TokenAddress",
								"offset": 0,
								"slot": "8",
								"type": "t_address"
							},
							{
								"astId": 748,
								"contract": "Vesting Contract/version2.sol:VestingContract",
								"label": "locked",
								"offset": 20,
								"slot": "8",
								"type": "t_bool"
							},
							{
								"astId": 750,
								"contract": "Vesting Contract/version2.sol:VestingContract",
								"label": "temp",
								"offset": 0,
								"slot": "9",
								"type": "t_uint256"
							}
						],
						"numberOfBytes": "320"
					},
					"t_uint256": {
						"encoding": "inplace",
						"label": "uint256",
						"numberOfBytes": "32"
					}
				}
			},
			"userdoc": {
				"kind": "user",
				"methods": {},
				"version": 1
			}
		}
	}
}