{
	"Vesting Contract/version3.sol": {
		"Vesting": {
			"abi": [
				{
					"inputs": [
						{
							"internalType": "address",
							"name": "_token",
							"type": "address"
						}
					],
					"stateMutability": "nonpayable",
					"type": "constructor"
				},
				{
					"anonymous": false,
					"inputs": [
						{
							"indexed": true,
							"internalType": "address",
							"name": "beneficiary",
							"type": "address"
						},
						{
							"indexed": false,
							"internalType": "uint256",
							"name": "amount",
							"type": "uint256"
						},
						{
							"indexed": false,
							"internalType": "uint256",
							"name": "duration",
							"type": "uint256"
						},
						{
							"indexed": false,
							"internalType": "uint8",
							"name": "slice_period",
							"type": "uint8"
						},
						{
							"indexed": false,
							"internalType": "uint256",
							"name": "start",
							"type": "uint256"
						},
						{
							"indexed": false,
							"internalType": "uint8",
							"name": "cliff",
							"type": "uint8"
						}
					],
					"name": "VestingLocked",
					"type": "event"
				},
				{
					"anonymous": false,
					"inputs": [
						{
							"indexed": true,
							"internalType": "address",
							"name": "beneficiary",
							"type": "address"
						},
						{
							"indexed": false,
							"internalType": "uint256",
							"name": "index",
							"type": "uint256"
						},
						{
							"indexed": false,
							"internalType": "uint256",
							"name": "amount",
							"type": "uint256"
						}
					],
					"name": "VestingWithdrawn",
					"type": "event"
				},
				{
					"inputs": [
						{
							"internalType": "address",
							"name": "_add",
							"type": "address"
						}
					],
					"name": "addWhitelist",
					"outputs": [],
					"stateMutability": "nonpayable",
					"type": "function"
				},
				{
					"inputs": [
						{
							"internalType": "uint256",
							"name": "index",
							"type": "uint256"
						}
					],
					"name": "calculate_available_withdraw_token",
					"outputs": [
						{
							"internalType": "uint256",
							"name": "",
							"type": "uint256"
						}
					],
					"stateMutability": "nonpayable",
					"type": "function"
				},
				{
					"inputs": [],
					"name": "getTime",
					"outputs": [
						{
							"internalType": "uint256",
							"name": "",
							"type": "uint256"
						}
					],
					"stateMutability": "view",
					"type": "function"
				},
				{
					"inputs": [
						{
							"internalType": "uint256",
							"name": "_amount",
							"type": "uint256"
						},
						{
							"internalType": "uint256",
							"name": "_duration",
							"type": "uint256"
						},
						{
							"internalType": "uint8",
							"name": "_slice_period",
							"type": "uint8"
						},
						{
							"internalType": "uint256",
							"name": "_start",
							"type": "uint256"
						},
						{
							"internalType": "uint8",
							"name": "_cliff",
							"type": "uint8"
						},
						{
							"internalType": "address",
							"name": "_beneficiaries",
							"type": "address"
						}
					],
					"name": "lock",
					"outputs": [],
					"stateMutability": "nonpayable",
					"type": "function"
				},
				{
					"inputs": [],
					"name": "token",
					"outputs": [
						{
							"internalType": "contract ERC20",
							"name": "",
							"type": "address"
						}
					],
					"stateMutability": "view",
					"type": "function"
				},
				{
					"inputs": [
						{
							"internalType": "address",
							"name": "",
							"type": "address"
						},
						{
							"internalType": "uint256",
							"name": "",
							"type": "uint256"
						}
					],
					"name": "vestings",
					"outputs": [
						{
							"internalType": "uint256",
							"name": "amount",
							"type": "uint256"
						},
						{
							"internalType": "uint256",
							"name": "start",
							"type": "uint256"
						},
						{
							"internalType": "uint256",
							"name": "duration",
							"type": "uint256"
						},
						{
							"internalType": "bool",
							"name": "locked",
							"type": "bool"
						},
						{
							"internalType": "bool",
							"name": "claimed",
							"type": "bool"
						},
						{
							"internalType": "uint8",
							"name": "slice_period",
							"type": "uint8"
						},
						{
							"internalType": "uint8",
							"name": "cliff",
							"type": "uint8"
						},
						{
							"internalType": "uint256",
							"name": "recive_on_interval",
							"type": "uint256"
						},
						{
							"internalType": "address",
							"name": "beneficiaries",
							"type": "address"
						},
						{
							"internalType": "uint256",
							"name": "total_withdrawable",
							"type": "uint256"
						},
						{
							"internalType": "uint256",
							"name": "temp",
							"type": "uint256"
						},
						{
							"internalType": "uint256",
							"name": "remain_token",
							"type": "uint256"
						}
					],
					"stateMutability": "view",
					"type": "function"
				},
				{
					"inputs": [
						{
							"internalType": "address",
							"name": "",
							"type": "address"
						}
					],
					"name": "whitelist",
					"outputs": [
						{
							"internalType": "bool",
							"name": "",
							"type": "bool"
						}
					],
					"stateMutability": "view",
					"type": "function"
				},
				{
					"inputs": [
						{
							"internalType": "uint256",
							"name": "index",
							"type": "uint256"
						}
					],
					"name": "withdraw",
					"outputs": [],
					"stateMutability": "nonpayable",
					"type": "function"
				}
			],
			"devdoc": {
				"kind": "dev",
				"methods": {},
				"version": 1
			},
			"evm": {
				"assembly": "    /* \"Vesting Contract/version3.sol\":114:3934  contract Vesting {... */\n  mstore(0x40, 0x80)\n    /* \"Vesting Contract/version3.sol\":168:250  constructor(address _token) {... */\n  callvalue\n  dup1\n  iszero\n  tag_1\n  jumpi\n  0x00\n  dup1\n  revert\ntag_1:\n  pop\n  mload(0x40)\n  sub(codesize, bytecodeSize)\n  dup1\n  bytecodeSize\n  dup4\n  codecopy\n  dup2\n  dup2\n  add\n  0x40\n  mstore\n  dup2\n  add\n  swap1\n  tag_2\n  swap2\n  swap1\n  tag_3\n  jump\t// in\ntag_2:\n    /* \"Vesting Contract/version3.sol\":216:222  _token */\n  dup1\n    /* \"Vesting Contract/version3.sol\":202:207  token */\n  0x00\n  dup1\n    /* \"Vesting Contract/version3.sol\":202:223  token = ERC20(_token) */\n  0x0100\n  exp\n  dup2\n  sload\n  dup2\n  0xffffffffffffffffffffffffffffffffffffffff\n  mul\n  not\n  and\n  swap1\n  dup4\n  0xffffffffffffffffffffffffffffffffffffffff\n  and\n  mul\n  or\n  swap1\n  sstore\n  pop\n    /* \"Vesting Contract/version3.sol\":237:247  msg.sender */\n  caller\n    /* \"Vesting Contract/version3.sol\":229:234  owner */\n  0x01\n  0x00\n    /* \"Vesting Contract/version3.sol\":229:247  owner = msg.sender */\n  0x0100\n  exp\n  dup2\n  sload\n  dup2\n  0xffffffffffffffffffffffffffffffffffffffff\n  mul\n  not\n  and\n  swap1\n  dup4\n  0xffffffffffffffffffffffffffffffffffffffff\n  and\n  mul\n  or\n  swap1\n  sstore\n  pop\n    /* \"Vesting Contract/version3.sol\":168:250  constructor(address _token) {... */\n  pop\n    /* \"Vesting Contract/version3.sol\":114:3934  contract Vesting {... */\n  jump(tag_6)\n    /* \"#utility.yul\":88:205   */\ntag_8:\n    /* \"#utility.yul\":197:198   */\n  0x00\n    /* \"#utility.yul\":194:195   */\n  dup1\n    /* \"#utility.yul\":187:199   */\n  revert\n    /* \"#utility.yul\":334:460   */\ntag_10:\n    /* \"#utility.yul\":371:378   */\n  0x00\n    /* \"#utility.yul\":411:453   */\n  0xffffffffffffffffffffffffffffffffffffffff\n    /* \"#utility.yul\":404:409   */\n  dup3\n    /* \"#utility.yul\":400:454   */\n  and\n    /* \"#utility.yul\":389:454   */\n  swap1\n  pop\n    /* \"#utility.yul\":334:460   */\n  swap2\n  swap1\n  pop\n  jump\t// out\n    /* \"#utility.yul\":466:562   */\ntag_11:\n    /* \"#utility.yul\":503:510   */\n  0x00\n    /* \"#utility.yul\":532:556   */\n  tag_20\n    /* \"#utility.yul\":550:555   */\n  dup3\n    /* \"#utility.yul\":532:556   */\n  tag_10\n  jump\t// in\ntag_20:\n    /* \"#utility.yul\":521:556   */\n  swap1\n  pop\n    /* \"#utility.yul\":466:562   */\n  swap2\n  swap1\n  pop\n  jump\t// out\n    /* \"#utility.yul\":568:690   */\ntag_12:\n    /* \"#utility.yul\":641:665   */\n  tag_22\n    /* \"#utility.yul\":659:664   */\n  dup2\n    /* \"#utility.yul\":641:665   */\n  tag_11\n  jump\t// in\ntag_22:\n    /* \"#utility.yul\":634:639   */\n  dup2\n    /* \"#utility.yul\":631:666   */\n  eq\n    /* \"#utility.yul\":621:684   */\n  tag_23\n  jumpi\n    /* \"#utility.yul\":680:681   */\n  0x00\n    /* \"#utility.yul\":677:678   */\n  dup1\n    /* \"#utility.yul\":670:682   */\n  revert\n    /* \"#utility.yul\":621:684   */\ntag_23:\n    /* \"#utility.yul\":568:690   */\n  pop\n  jump\t// out\n    /* \"#utility.yul\":696:839   */\ntag_13:\n    /* \"#utility.yul\":753:758   */\n  0x00\n    /* \"#utility.yul\":784:790   */\n  dup2\n    /* \"#utility.yul\":778:791   */\n  mload\n    /* \"#utility.yul\":769:791   */\n  swap1\n  pop\n    /* \"#utility.yul\":800:833   */\n  tag_25\n    /* \"#utility.yul\":827:832   */\n  dup2\n    /* \"#utility.yul\":800:833   */\n  tag_12\n  jump\t// in\ntag_25:\n    /* \"#utility.yul\":696:839   */\n  swap3\n  swap2\n  pop\n  pop\n  jump\t// out\n    /* \"#utility.yul\":845:1196   */\ntag_3:\n    /* \"#utility.yul\":915:921   */\n  0x00\n    /* \"#utility.yul\":964:966   */\n  0x20\n    /* \"#utility.yul\":952:961   */\n  dup3\n    /* \"#utility.yul\":943:950   */\n  dup5\n    /* \"#utility.yul\":939:962   */\n  sub\n    /* \"#utility.yul\":935:967   */\n  slt\n    /* \"#utility.yul\":932:1051   */\n  iszero\n  tag_27\n  jumpi\n    /* \"#utility.yul\":970:1049   */\n  tag_28\n  tag_8\n  jump\t// in\ntag_28:\n    /* \"#utility.yul\":932:1051   */\ntag_27:\n    /* \"#utility.yul\":1090:1091   */\n  0x00\n    /* \"#utility.yul\":1115:1179   */\n  tag_29\n    /* \"#utility.yul\":1171:1178   */\n  dup5\n    /* \"#utility.yul\":1162:1168   */\n  dup3\n    /* \"#utility.yul\":1151:1160   */\n  dup6\n    /* \"#utility.yul\":1147:1169   */\n  add\n    /* \"#utility.yul\":1115:1179   */\n  tag_13\n  jump\t// in\ntag_29:\n    /* \"#utility.yul\":1105:1179   */\n  swap2\n  pop\n    /* \"#utility.yul\":1061:1189   */\n  pop\n    /* \"#utility.yul\":845:1196   */\n  swap3\n  swap2\n  pop\n  pop\n  jump\t// out\n    /* \"Vesting Contract/version3.sol\":114:3934  contract Vesting {... */\ntag_6:\n  dataSize(sub_0)\n  dup1\n  dataOffset(sub_0)\n  0x00\n  codecopy\n  0x00\n  return\nstop\n\nsub_0: assembly {\n        /* \"Vesting Contract/version3.sol\":114:3934  contract Vesting {... */\n      mstore(0x40, 0x80)\n      callvalue\n      dup1\n      iszero\n      tag_1\n      jumpi\n      0x00\n      dup1\n      revert\n    tag_1:\n      pop\n      jumpi(tag_2, lt(calldatasize, 0x04))\n      shr(0xe0, calldataload(0x00))\n      dup1\n      0xaa9d691d\n      gt\n      tag_11\n      jumpi\n      dup1\n      0xaa9d691d\n      eq\n      tag_7\n      jumpi\n      dup1\n      0xbd84477d\n      eq\n      tag_8\n      jumpi\n      dup1\n      0xf80f5dd5\n      eq\n      tag_9\n      jumpi\n      dup1\n      0xfc0c546a\n      eq\n      tag_10\n      jumpi\n      jump(tag_2)\n    tag_11:\n      dup1\n      0x2e1a7d4d\n      eq\n      tag_3\n      jumpi\n      dup1\n      0x557ed1ba\n      eq\n      tag_4\n      jumpi\n      dup1\n      0x5952ffd1\n      eq\n      tag_5\n      jumpi\n      dup1\n      0x9b19251a\n      eq\n      tag_6\n      jumpi\n    tag_2:\n      0x00\n      dup1\n      revert\n        /* \"Vesting Contract/version3.sol\":2109:2867  function withdraw(uint256 index) external {... */\n    tag_3:\n      tag_12\n      0x04\n      dup1\n      calldatasize\n      sub\n      dup2\n      add\n      swap1\n      tag_13\n      swap2\n      swap1\n      tag_14\n      jump\t// in\n    tag_13:\n      tag_15\n      jump\t// in\n    tag_12:\n      stop\n        /* \"Vesting Contract/version3.sol\":3852:3932  function getTime() public view returns (uint256) {... */\n    tag_4:\n      tag_16\n      tag_17\n      jump\t// in\n    tag_16:\n      mload(0x40)\n      tag_18\n      swap2\n      swap1\n      tag_19\n      jump\t// in\n    tag_18:\n      mload(0x40)\n      dup1\n      swap2\n      sub\n      swap1\n      return\n        /* \"Vesting Contract/version3.sol\":2870:3461  function calculate_available_withdraw_token(uint256 index) public returns(uint256) {... */\n    tag_5:\n      tag_20\n      0x04\n      dup1\n      calldatasize\n      sub\n      dup2\n      add\n      swap1\n      tag_21\n      swap2\n      swap1\n      tag_14\n      jump\t// in\n    tag_21:\n      tag_22\n      jump\t// in\n    tag_20:\n      mload(0x40)\n      tag_23\n      swap2\n      swap1\n      tag_19\n      jump\t// in\n    tag_23:\n      mload(0x40)\n      dup1\n      swap2\n      sub\n      swap1\n      return\n        /* \"Vesting Contract/version3.sol\":635:676  mapping(address => bool) public whitelist */\n    tag_6:\n      tag_24\n      0x04\n      dup1\n      calldatasize\n      sub\n      dup2\n      add\n      swap1\n      tag_25\n      swap2\n      swap1\n      tag_26\n      jump\t// in\n    tag_25:\n      tag_27\n      jump\t// in\n    tag_24:\n      mload(0x40)\n      tag_28\n      swap2\n      swap1\n      tag_29\n      jump\t// in\n    tag_28:\n      mload(0x40)\n      dup1\n      swap2\n      sub\n      swap1\n      return\n        /* \"Vesting Contract/version3.sol\":1099:2107  function lock(... */\n    tag_7:\n      tag_30\n      0x04\n      dup1\n      calldatasize\n      sub\n      dup2\n      add\n      swap1\n      tag_31\n      swap2\n      swap1\n      tag_32\n      jump\t// in\n    tag_31:\n      tag_33\n      jump\t// in\n    tag_30:\n      stop\n        /* \"Vesting Contract/version3.sol\":580:633  mapping(address => VestingSchedule[]) public vestings */\n    tag_8:\n      tag_34\n      0x04\n      dup1\n      calldatasize\n      sub\n      dup2\n      add\n      swap1\n      tag_35\n      swap2\n      swap1\n      tag_36\n      jump\t// in\n    tag_35:\n      tag_37\n      jump\t// in\n    tag_34:\n      mload(0x40)\n      tag_38\n      swap13\n      swap12\n      swap11\n      swap10\n      swap9\n      swap8\n      swap7\n      swap6\n      swap5\n      swap4\n      swap3\n      swap2\n      swap1\n      tag_39\n      jump\t// in\n    tag_38:\n      mload(0x40)\n      dup1\n      swap2\n      sub\n      swap1\n      return\n        /* \"Vesting Contract/version3.sol\":796:878  function addWhitelist (address _add) public onlyOwner{... */\n    tag_9:\n      tag_40\n      0x04\n      dup1\n      calldatasize\n      sub\n      dup2\n      add\n      swap1\n      tag_41\n      swap2\n      swap1\n      tag_26\n      jump\t// in\n    tag_41:\n      tag_42\n      jump\t// in\n    tag_40:\n      stop\n        /* \"Vesting Contract/version3.sol\":133:151  ERC20 public token */\n    tag_10:\n      tag_43\n      tag_44\n      jump\t// in\n    tag_43:\n      mload(0x40)\n      tag_45\n      swap2\n      swap1\n      tag_46\n      jump\t// in\n    tag_45:\n      mload(0x40)\n      dup1\n      swap2\n      sub\n      swap1\n      return\n        /* \"Vesting Contract/version3.sol\":2109:2867  function withdraw(uint256 index) external {... */\n    tag_15:\n        /* \"Vesting Contract/version3.sol\":2157:2188  VestingSchedule storage vesting */\n      0x00\n        /* \"Vesting Contract/version3.sol\":2191:2199  vestings */\n      0x02\n        /* \"Vesting Contract/version3.sol\":2191:2211  vestings[msg.sender] */\n      0x00\n        /* \"Vesting Contract/version3.sol\":2200:2210  msg.sender */\n      caller\n        /* \"Vesting Contract/version3.sol\":2191:2211  vestings[msg.sender] */\n      0xffffffffffffffffffffffffffffffffffffffff\n      and\n      0xffffffffffffffffffffffffffffffffffffffff\n      and\n      dup2\n      mstore\n      0x20\n      add\n      swap1\n      dup2\n      mstore\n      0x20\n      add\n      0x00\n      keccak256\n        /* \"Vesting Contract/version3.sol\":2212:2217  index */\n      dup3\n        /* \"Vesting Contract/version3.sol\":2191:2218  vestings[msg.sender][index] */\n      dup2\n      sload\n      dup2\n      lt\n      tag_48\n      jumpi\n      tag_49\n      tag_50\n      jump\t// in\n    tag_49:\n    tag_48:\n      swap1\n      0x00\n      mstore\n      keccak256(0x00, 0x20)\n      swap1\n      0x09\n      mul\n      add\n        /* \"Vesting Contract/version3.sol\":2157:2218  VestingSchedule storage vesting = vestings[msg.sender][index] */\n      swap1\n      pop\n        /* \"Vesting Contract/version3.sol\":2233:2240  vesting */\n      dup1\n        /* \"Vesting Contract/version3.sol\":2233:2247  vesting.locked */\n      0x03\n      add\n      0x00\n      swap1\n      sload\n      swap1\n      0x0100\n      exp\n      swap1\n      div\n      0xff\n      and\n        /* \"Vesting Contract/version3.sol\":2225:2278  require(vesting.locked, \"Funds have not been locked\") */\n      tag_52\n      jumpi\n      mload(0x40)\n      0x08c379a000000000000000000000000000000000000000000000000000000000\n      dup2\n      mstore\n      0x04\n      add\n      tag_53\n      swap1\n      tag_54\n      jump\t// in\n    tag_53:\n      mload(0x40)\n      dup1\n      swap2\n      sub\n      swap1\n      revert\n    tag_52:\n        /* \"Vesting Contract/version3.sol\":2304:2311  vesting */\n      dup1\n        /* \"Vesting Contract/version3.sol\":2304:2317  vesting.start */\n      0x01\n      add\n      sload\n        /* \"Vesting Contract/version3.sol\":2292:2301  getTime() */\n      tag_55\n        /* \"Vesting Contract/version3.sol\":2292:2299  getTime */\n      tag_17\n        /* \"Vesting Contract/version3.sol\":2292:2301  getTime() */\n      jump\t// in\n    tag_55:\n        /* \"Vesting Contract/version3.sol\":2292:2317  getTime() > vesting.start */\n      gt\n        /* \"Vesting Contract/version3.sol\":2284:2355  require(getTime() > vesting.start, \"Token under locking please wait..\") */\n      tag_56\n      jumpi\n      mload(0x40)\n      0x08c379a000000000000000000000000000000000000000000000000000000000\n      dup2\n      mstore\n      0x04\n      add\n      tag_57\n      swap1\n      tag_58\n      jump\t// in\n    tag_57:\n      mload(0x40)\n      dup1\n      swap2\n      sub\n      swap1\n      revert\n    tag_56:\n        /* \"Vesting Contract/version3.sol\":2400:2441  calculate_available_withdraw_token(index) */\n      tag_59\n        /* \"Vesting Contract/version3.sol\":2435:2440  index */\n      dup3\n        /* \"Vesting Contract/version3.sol\":2400:2434  calculate_available_withdraw_token */\n      tag_22\n        /* \"Vesting Contract/version3.sol\":2400:2441  calculate_available_withdraw_token(index) */\n      jump\t// in\n    tag_59:\n        /* \"Vesting Contract/version3.sol\":2371:2378  vesting */\n      dup2\n        /* \"Vesting Contract/version3.sol\":2371:2397  vesting.total_withdrawable */\n      0x06\n      add\n        /* \"Vesting Contract/version3.sol\":2371:2441  vesting.total_withdrawable = calculate_available_withdraw_token(index) */\n      dup2\n      swap1\n      sstore\n      pop\n        /* \"Vesting Contract/version3.sol\":2488:2489  0 */\n      0x00\n        /* \"Vesting Contract/version3.sol\":2459:2466  vesting */\n      dup2\n        /* \"Vesting Contract/version3.sol\":2459:2485  vesting.total_withdrawable */\n      0x06\n      add\n      sload\n        /* \"Vesting Contract/version3.sol\":2459:2489  vesting.total_withdrawable > 0 */\n      gt\n        /* \"Vesting Contract/version3.sol\":2451:2530  require(vesting.total_withdrawable > 0, \"you not able to withdraw during lock\") */\n      tag_60\n      jumpi\n      mload(0x40)\n      0x08c379a000000000000000000000000000000000000000000000000000000000\n      dup2\n      mstore\n      0x04\n      add\n      tag_61\n      swap1\n      tag_62\n      jump\t// in\n    tag_61:\n      mload(0x40)\n      dup1\n      swap2\n      sub\n      swap1\n      revert\n    tag_60:\n        /* \"Vesting Contract/version3.sol\":2540:2545  token */\n      0x00\n      dup1\n      sload\n      swap1\n      0x0100\n      exp\n      swap1\n      div\n      0xffffffffffffffffffffffffffffffffffffffff\n      and\n        /* \"Vesting Contract/version3.sol\":2540:2554  token.transfer */\n      0xffffffffffffffffffffffffffffffffffffffff\n      and\n      0xa9059cbb\n        /* \"Vesting Contract/version3.sol\":2555:2565  msg.sender */\n      caller\n        /* \"Vesting Contract/version3.sol\":2567:2574  vesting */\n      dup4\n        /* \"Vesting Contract/version3.sol\":2567:2593  vesting.total_withdrawable */\n      0x06\n      add\n      sload\n        /* \"Vesting Contract/version3.sol\":2540:2594  token.transfer(msg.sender, vesting.total_withdrawable) */\n      mload(0x40)\n      dup4\n      0xffffffff\n      and\n      0xe0\n      shl\n      dup2\n      mstore\n      0x04\n      add\n      tag_63\n      swap3\n      swap2\n      swap1\n      tag_64\n      jump\t// in\n    tag_63:\n      0x20\n      mload(0x40)\n      dup1\n      dup4\n      sub\n      dup2\n      0x00\n      dup8\n      gas\n      call\n      iszero\n      dup1\n      iszero\n      tag_66\n      jumpi\n      returndatasize\n      0x00\n      dup1\n      returndatacopy\n      revert(0x00, returndatasize)\n    tag_66:\n      pop\n      pop\n      pop\n      pop\n      mload(0x40)\n      returndatasize\n      not(0x1f)\n      0x1f\n      dup3\n      add\n      and\n      dup3\n      add\n      dup1\n      0x40\n      mstore\n      pop\n      dup2\n      add\n      swap1\n      tag_67\n      swap2\n      swap1\n      tag_68\n      jump\t// in\n    tag_67:\n      pop\n        /* \"Vesting Contract/version3.sol\":2620:2627  vesting */\n      dup1\n        /* \"Vesting Contract/version3.sol\":2620:2646  vesting.total_withdrawable */\n      0x06\n      add\n      sload\n        /* \"Vesting Contract/version3.sol\":2604:2611  vesting */\n      dup2\n        /* \"Vesting Contract/version3.sol\":2604:2616  vesting.temp */\n      0x07\n      add\n      0x00\n        /* \"Vesting Contract/version3.sol\":2604:2646  vesting.temp += vesting.total_withdrawable */\n      dup3\n      dup3\n      sload\n      tag_69\n      swap2\n      swap1\n      tag_70\n      jump\t// in\n    tag_69:\n      swap3\n      pop\n      pop\n      dup2\n      swap1\n      sstore\n      pop\n        /* \"Vesting Contract/version3.sol\":2674:2681  vesting */\n      dup1\n        /* \"Vesting Contract/version3.sol\":2674:2700  vesting.total_withdrawable */\n      0x06\n      add\n      sload\n        /* \"Vesting Contract/version3.sol\":2656:2663  vesting */\n      dup2\n        /* \"Vesting Contract/version3.sol\":2656:2670  vesting.amount */\n      0x00\n      add\n      0x00\n        /* \"Vesting Contract/version3.sol\":2656:2700  vesting.amount -= vesting.total_withdrawable */\n      dup3\n      dup3\n      sload\n      tag_71\n      swap2\n      swap1\n      tag_72\n      jump\t// in\n    tag_71:\n      swap3\n      pop\n      pop\n      dup2\n      swap1\n      sstore\n      pop\n        /* \"Vesting Contract/version3.sol\":2732:2733  0 */\n      0x00\n        /* \"Vesting Contract/version3.sol\":2714:2721  vesting */\n      dup2\n        /* \"Vesting Contract/version3.sol\":2714:2728  vesting.amount */\n      0x00\n      add\n      sload\n        /* \"Vesting Contract/version3.sol\":2714:2733  vesting.amount == 0 */\n      sub\n        /* \"Vesting Contract/version3.sol\":2710:2782  if (vesting.amount == 0) {... */\n      tag_73\n      jumpi\n        /* \"Vesting Contract/version3.sol\":2766:2771  false */\n      0x00\n        /* \"Vesting Contract/version3.sol\":2749:2756  vesting */\n      dup2\n        /* \"Vesting Contract/version3.sol\":2749:2763  vesting.locked */\n      0x03\n      add\n      0x00\n        /* \"Vesting Contract/version3.sol\":2749:2771  vesting.locked = false */\n      0x0100\n      exp\n      dup2\n      sload\n      dup2\n      0xff\n      mul\n      not\n      and\n      swap1\n      dup4\n      iszero\n      iszero\n      mul\n      or\n      swap1\n      sstore\n      pop\n        /* \"Vesting Contract/version3.sol\":2710:2782  if (vesting.amount == 0) {... */\n    tag_73:\n        /* \"Vesting Contract/version3.sol\":2813:2823  msg.sender */\n      caller\n        /* \"Vesting Contract/version3.sol\":2796:2859  VestingWithdrawn(msg.sender, index, vesting.total_withdrawable) */\n      0xffffffffffffffffffffffffffffffffffffffff\n      and\n      0xccdb21e8b29fbf756f29d5f05c72606ca9e8160ec1a135ca6f50dae471188cec\n        /* \"Vesting Contract/version3.sol\":2825:2830  index */\n      dup4\n        /* \"Vesting Contract/version3.sol\":2832:2839  vesting */\n      dup4\n        /* \"Vesting Contract/version3.sol\":2832:2858  vesting.total_withdrawable */\n      0x06\n      add\n      sload\n        /* \"Vesting Contract/version3.sol\":2796:2859  VestingWithdrawn(msg.sender, index, vesting.total_withdrawable) */\n      mload(0x40)\n      tag_74\n      swap3\n      swap2\n      swap1\n      tag_75\n      jump\t// in\n    tag_74:\n      mload(0x40)\n      dup1\n      swap2\n      sub\n      swap1\n      log2\n        /* \"Vesting Contract/version3.sol\":2151:2867  {... */\n      pop\n        /* \"Vesting Contract/version3.sol\":2109:2867  function withdraw(uint256 index) external {... */\n      pop\n      jump\t// out\n        /* \"Vesting Contract/version3.sol\":3852:3932  function getTime() public view returns (uint256) {... */\n    tag_17:\n        /* \"Vesting Contract/version3.sol\":3892:3899  uint256 */\n      0x00\n        /* \"Vesting Contract/version3.sol\":3914:3929  block.timestamp */\n      timestamp\n        /* \"Vesting Contract/version3.sol\":3907:3929  return block.timestamp */\n      swap1\n      pop\n        /* \"Vesting Contract/version3.sol\":3852:3932  function getTime() public view returns (uint256) {... */\n      swap1\n      jump\t// out\n        /* \"Vesting Contract/version3.sol\":2870:3461  function calculate_available_withdraw_token(uint256 index) public returns(uint256) {... */\n    tag_22:\n        /* \"Vesting Contract/version3.sol\":2944:2951  uint256 */\n      0x00\n        /* \"Vesting Contract/version3.sol\":2959:2990  VestingSchedule storage vesting */\n      dup1\n        /* \"Vesting Contract/version3.sol\":2993:3001  vestings */\n      0x02\n        /* \"Vesting Contract/version3.sol\":2993:3013  vestings[msg.sender] */\n      0x00\n        /* \"Vesting Contract/version3.sol\":3002:3012  msg.sender */\n      caller\n        /* \"Vesting Contract/version3.sol\":2993:3013  vestings[msg.sender] */\n      0xffffffffffffffffffffffffffffffffffffffff\n      and\n      0xffffffffffffffffffffffffffffffffffffffff\n      and\n      dup2\n      mstore\n      0x20\n      add\n      swap1\n      dup2\n      mstore\n      0x20\n      add\n      0x00\n      keccak256\n        /* \"Vesting Contract/version3.sol\":3014:3019  index */\n      dup4\n        /* \"Vesting Contract/version3.sol\":2993:3020  vestings[msg.sender][index] */\n      dup2\n      sload\n      dup2\n      lt\n      tag_78\n      jumpi\n      tag_79\n      tag_50\n      jump\t// in\n    tag_79:\n    tag_78:\n      swap1\n      0x00\n      mstore\n      keccak256(0x00, 0x20)\n      swap1\n      0x09\n      mul\n      add\n        /* \"Vesting Contract/version3.sol\":2959:3020  VestingSchedule storage vesting = vestings[msg.sender][index] */\n      swap1\n      pop\n        /* \"Vesting Contract/version3.sol\":3049:3050  0 */\n      0x00\n        /* \"Vesting Contract/version3.sol\":3034:3041  vesting */\n      dup2\n        /* \"Vesting Contract/version3.sol\":3034:3048  vesting.amount */\n      0x00\n      add\n      sload\n        /* \"Vesting Contract/version3.sol\":3034:3050  vesting.amount>0 */\n      gt\n        /* \"Vesting Contract/version3.sol\":3026:3073  require(vesting.amount>0 , \"vesting time over\") */\n      tag_81\n      jumpi\n      mload(0x40)\n      0x08c379a000000000000000000000000000000000000000000000000000000000\n      dup2\n      mstore\n      0x04\n      add\n      tag_82\n      swap1\n      tag_83\n      jump\t// in\n    tag_82:\n      mload(0x40)\n      dup1\n      swap2\n      sub\n      swap1\n      revert\n    tag_81:\n        /* \"Vesting Contract/version3.sol\":3079:3104  uint256 total_slice_count */\n      0x00\n        /* \"Vesting Contract/version3.sol\":3137:3144  vesting */\n      dup2\n        /* \"Vesting Contract/version3.sol\":3137:3157  vesting.slice_period */\n      0x03\n      add\n      0x02\n      swap1\n      sload\n      swap1\n      0x0100\n      exp\n      swap1\n      div\n      0xff\n      and\n        /* \"Vesting Contract/version3.sol\":3107:3157  (getTime() - vesting.start) / vesting.slice_period */\n      0xff\n      and\n        /* \"Vesting Contract/version3.sol\":3120:3127  vesting */\n      dup3\n        /* \"Vesting Contract/version3.sol\":3120:3133  vesting.start */\n      0x01\n      add\n      sload\n        /* \"Vesting Contract/version3.sol\":3108:3117  getTime() */\n      tag_84\n        /* \"Vesting Contract/version3.sol\":3108:3115  getTime */\n      tag_17\n        /* \"Vesting Contract/version3.sol\":3108:3117  getTime() */\n      jump\t// in\n    tag_84:\n        /* \"Vesting Contract/version3.sol\":3108:3133  getTime() - vesting.start */\n      tag_85\n      swap2\n      swap1\n      tag_72\n      jump\t// in\n    tag_85:\n        /* \"Vesting Contract/version3.sol\":3107:3157  (getTime() - vesting.start) / vesting.slice_period */\n      tag_86\n      swap2\n      swap1\n      tag_87\n      jump\t// in\n    tag_86:\n        /* \"Vesting Contract/version3.sol\":3079:3157  uint256 total_slice_count = (getTime() - vesting.start) / vesting.slice_period */\n      swap1\n      pop\n        /* \"Vesting Contract/version3.sol\":3163:3189  uint256 total_mul_withdraw */\n      0x00\n        /* \"Vesting Contract/version3.sol\":3243:3250  vesting */\n      dup3\n        /* \"Vesting Contract/version3.sol\":3243:3255  vesting.temp */\n      0x07\n      add\n      sload\n        /* \"Vesting Contract/version3.sol\":3213:3220  vesting */\n      dup4\n        /* \"Vesting Contract/version3.sol\":3213:3239  vesting.recive_on_interval */\n      0x04\n      add\n      sload\n        /* \"Vesting Contract/version3.sol\":3193:3210  total_slice_count */\n      dup4\n        /* \"Vesting Contract/version3.sol\":3193:3239  total_slice_count * vesting.recive_on_interval */\n      tag_88\n      swap2\n      swap1\n      tag_89\n      jump\t// in\n    tag_88:\n        /* \"Vesting Contract/version3.sol\":3192:3255  (total_slice_count * vesting.recive_on_interval) - vesting.temp */\n      tag_90\n      swap2\n      swap1\n      tag_72\n      jump\t// in\n    tag_90:\n        /* \"Vesting Contract/version3.sol\":3163:3255  uint256 total_mul_withdraw = (total_slice_count * vesting.recive_on_interval) - vesting.temp */\n      swap1\n      pop\n        /* \"Vesting Contract/version3.sol\":3282:3289  vesting */\n      dup3\n        /* \"Vesting Contract/version3.sol\":3282:3302  vesting.remain_token */\n      0x08\n      add\n      sload\n        /* \"Vesting Contract/version3.sol\":3264:3271  vesting */\n      dup4\n        /* \"Vesting Contract/version3.sol\":3264:3278  vesting.amount */\n      0x00\n      add\n      sload\n        /* \"Vesting Contract/version3.sol\":3264:3302  vesting.amount <= vesting.remain_token */\n      gt\n        /* \"Vesting Contract/version3.sol\":3261:3357  if(vesting.amount <= vesting.remain_token){... */\n      tag_91\n      jumpi\n        /* \"Vesting Contract/version3.sol\":3317:3349  calculate_remaining_token(index) */\n      tag_92\n        /* \"Vesting Contract/version3.sol\":3343:3348  index */\n      dup6\n        /* \"Vesting Contract/version3.sol\":3317:3342  calculate_remaining_token */\n      tag_93\n        /* \"Vesting Contract/version3.sol\":3317:3349  calculate_remaining_token(index) */\n      jump\t// in\n    tag_92:\n        /* \"Vesting Contract/version3.sol\":3310:3349  return calculate_remaining_token(index) */\n      swap4\n      pop\n      pop\n      pop\n      pop\n      jump(tag_77)\n        /* \"Vesting Contract/version3.sol\":3261:3357  if(vesting.amount <= vesting.remain_token){... */\n    tag_91:\n        /* \"Vesting Contract/version3.sol\":3392:3399  vesting */\n      dup3\n        /* \"Vesting Contract/version3.sol\":3392:3406  vesting.amount */\n      0x00\n      add\n      sload\n        /* \"Vesting Contract/version3.sol\":3370:3388  total_mul_withdraw */\n      dup2\n        /* \"Vesting Contract/version3.sol\":3370:3406  total_mul_withdraw <= vesting.amount */\n      gt\n      iszero\n        /* \"Vesting Contract/version3.sol\":3362:3427  require(total_mul_withdraw <= vesting.amount, \"vesting complete\") */\n      tag_94\n      jumpi\n      mload(0x40)\n      0x08c379a000000000000000000000000000000000000000000000000000000000\n      dup2\n      mstore\n      0x04\n      add\n      tag_95\n      swap1\n      tag_96\n      jump\t// in\n    tag_95:\n      mload(0x40)\n      dup1\n      swap2\n      sub\n      swap1\n      revert\n    tag_94:\n        /* \"Vesting Contract/version3.sol\":3440:3458  total_mul_withdraw */\n      dup1\n        /* \"Vesting Contract/version3.sol\":3433:3458  return total_mul_withdraw */\n      swap4\n      pop\n      pop\n      pop\n      pop\n        /* \"Vesting Contract/version3.sol\":2870:3461  function calculate_available_withdraw_token(uint256 index) public returns(uint256) {... */\n    tag_77:\n      swap2\n      swap1\n      pop\n      jump\t// out\n        /* \"Vesting Contract/version3.sol\":635:676  mapping(address => bool) public whitelist */\n    tag_27:\n      mstore(0x20, 0x03)\n      dup1\n      0x00\n      mstore\n      keccak256(0x00, 0x40)\n      0x00\n      swap2\n      pop\n      sload\n      swap1\n      0x0100\n      exp\n      swap1\n      div\n      0xff\n      and\n      dup2\n      jump\t// out\n        /* \"Vesting Contract/version3.sol\":1099:2107  function lock(... */\n    tag_33:\n        /* \"Vesting Contract/version3.sol\":1282:1291  getTime() */\n      tag_98\n        /* \"Vesting Contract/version3.sol\":1282:1289  getTime */\n      tag_17\n        /* \"Vesting Contract/version3.sol\":1282:1291  getTime() */\n      jump\t// in\n    tag_98:\n        /* \"Vesting Contract/version3.sol\":1273:1279  _start */\n      dup4\n        /* \"Vesting Contract/version3.sol\":1273:1291  _start > getTime() */\n      gt\n        /* \"Vesting Contract/version3.sol\":1265:1313  require(_start > getTime(),\"eneter valid time\" ) */\n      tag_99\n      jumpi\n      mload(0x40)\n      0x08c379a000000000000000000000000000000000000000000000000000000000\n      dup2\n      mstore\n      0x04\n      add\n      tag_100\n      swap1\n      tag_101\n      jump\t// in\n    tag_100:\n      mload(0x40)\n      dup1\n      swap2\n      sub\n      swap1\n      revert\n    tag_99:\n        /* \"Vesting Contract/version3.sol\":1327:1336  whitelist */\n      0x03\n        /* \"Vesting Contract/version3.sol\":1327:1348  whitelist[msg.sender] */\n      0x00\n        /* \"Vesting Contract/version3.sol\":1337:1347  msg.sender */\n      caller\n        /* \"Vesting Contract/version3.sol\":1327:1348  whitelist[msg.sender] */\n      0xffffffffffffffffffffffffffffffffffffffff\n      and\n      0xffffffffffffffffffffffffffffffffffffffff\n      and\n      dup2\n      mstore\n      0x20\n      add\n      swap1\n      dup2\n      mstore\n      0x20\n      add\n      0x00\n      keccak256\n      0x00\n      swap1\n      sload\n      swap1\n      0x0100\n      exp\n      swap1\n      div\n      0xff\n      and\n        /* \"Vesting Contract/version3.sol\":1319:1394  require(whitelist[msg.sender], \"You are not allowed to use this contract.\") */\n      tag_102\n      jumpi\n      mload(0x40)\n      0x08c379a000000000000000000000000000000000000000000000000000000000\n      dup2\n      mstore\n      0x04\n      add\n      tag_103\n      swap1\n      tag_104\n      jump\t// in\n    tag_103:\n      mload(0x40)\n      dup1\n      swap2\n      sub\n      swap1\n      revert\n    tag_102:\n        /* \"Vesting Contract/version3.sol\":1400:1433  VestingSchedule memory newVesting */\n      0x00\n        /* \"Vesting Contract/version3.sol\":1436:1911  VestingSchedule({... */\n      mload(0x40)\n      dup1\n      0x0180\n      add\n      0x40\n      mstore\n      dup1\n        /* \"Vesting Contract/version3.sol\":1470:1477  _amount */\n      dup9\n        /* \"Vesting Contract/version3.sol\":1436:1911  VestingSchedule({... */\n      dup2\n      mstore\n      0x20\n      add\n        /* \"Vesting Contract/version3.sol\":1526:1532  _cliff */\n      dup5\n        /* \"Vesting Contract/version3.sol\":1517:1532  _start + _cliff */\n      0xff\n      and\n        /* \"Vesting Contract/version3.sol\":1517:1523  _start */\n      dup7\n        /* \"Vesting Contract/version3.sol\":1517:1532  _start + _cliff */\n      tag_105\n      swap2\n      swap1\n      tag_70\n      jump\t// in\n    tag_105:\n        /* \"Vesting Contract/version3.sol\":1436:1911  VestingSchedule({... */\n      dup2\n      mstore\n      0x20\n      add\n        /* \"Vesting Contract/version3.sol\":1552:1561  _duration */\n      dup8\n        /* \"Vesting Contract/version3.sol\":1436:1911  VestingSchedule({... */\n      dup2\n      mstore\n      0x20\n      add\n        /* \"Vesting Contract/version3.sol\":1579:1583  true */\n      0x01\n        /* \"Vesting Contract/version3.sol\":1436:1911  VestingSchedule({... */\n      iszero\n      iszero\n      dup2\n      mstore\n      0x20\n      add\n        /* \"Vesting Contract/version3.sol\":1602:1607  false */\n      0x00\n        /* \"Vesting Contract/version3.sol\":1436:1911  VestingSchedule({... */\n      iszero\n      iszero\n      dup2\n      mstore\n      0x20\n      add\n        /* \"Vesting Contract/version3.sol\":1631:1644  _slice_period */\n      dup7\n        /* \"Vesting Contract/version3.sol\":1436:1911  VestingSchedule({... */\n      0xff\n      and\n      dup2\n      mstore\n      0x20\n      add\n        /* \"Vesting Contract/version3.sol\":1494:1500  _cliff */\n      dup5\n        /* \"Vesting Contract/version3.sol\":1436:1911  VestingSchedule({... */\n      0xff\n      and\n      dup2\n      mstore\n      0x20\n      add\n        /* \"Vesting Contract/version3.sol\":1741:1750  _duration */\n      dup8\n        /* \"Vesting Contract/version3.sol\":1730:1737  _amount */\n      dup10\n        /* \"Vesting Contract/version3.sol\":1714:1727  _slice_period */\n      dup9\n        /* \"Vesting Contract/version3.sol\":1714:1737  _slice_period * _amount */\n      0xff\n      and\n      tag_106\n      swap2\n      swap1\n      tag_89\n      jump\t// in\n    tag_106:\n        /* \"Vesting Contract/version3.sol\":1713:1750  (_slice_period * _amount) / _duration */\n      tag_107\n      swap2\n      swap1\n      tag_87\n      jump\t// in\n    tag_107:\n        /* \"Vesting Contract/version3.sol\":1436:1911  VestingSchedule({... */\n      dup2\n      mstore\n      0x20\n      add\n        /* \"Vesting Contract/version3.sol\":1669:1683  _beneficiaries */\n      dup4\n        /* \"Vesting Contract/version3.sol\":1436:1911  VestingSchedule({... */\n      0xffffffffffffffffffffffffffffffffffffffff\n      and\n      dup2\n      mstore\n      0x20\n      add\n        /* \"Vesting Contract/version3.sol\":1824:1825  0 */\n      0x00\n        /* \"Vesting Contract/version3.sol\":1436:1911  VestingSchedule({... */\n      dup2\n      mstore\n      0x20\n      add\n        /* \"Vesting Contract/version3.sol\":1841:1842  0 */\n      0x00\n        /* \"Vesting Contract/version3.sol\":1436:1911  VestingSchedule({... */\n      dup2\n      mstore\n      0x20\n      add\n        /* \"Vesting Contract/version3.sol\":1890:1903  _slice_period */\n      dup7\n        /* \"Vesting Contract/version3.sol\":1878:1903  _duration / _slice_period */\n      0xff\n      and\n        /* \"Vesting Contract/version3.sol\":1878:1887  _duration */\n      dup9\n        /* \"Vesting Contract/version3.sol\":1878:1903  _duration / _slice_period */\n      tag_108\n      swap2\n      swap1\n      tag_87\n      jump\t// in\n    tag_108:\n        /* \"Vesting Contract/version3.sol\":1867:1874  _amount */\n      dup10\n        /* \"Vesting Contract/version3.sol\":1867:1904  _amount % (_duration / _slice_period) */\n      tag_109\n      swap2\n      swap1\n      tag_110\n      jump\t// in\n    tag_109:\n        /* \"Vesting Contract/version3.sol\":1436:1911  VestingSchedule({... */\n      dup2\n      mstore\n      pop\n        /* \"Vesting Contract/version3.sol\":1400:1911  VestingSchedule memory newVesting = VestingSchedule({... */\n      swap1\n      pop\n        /* \"Vesting Contract/version3.sol\":1918:1926  vestings */\n      0x02\n        /* \"Vesting Contract/version3.sol\":1918:1938  vestings[msg.sender] */\n      0x00\n        /* \"Vesting Contract/version3.sol\":1927:1937  msg.sender */\n      caller\n        /* \"Vesting Contract/version3.sol\":1918:1938  vestings[msg.sender] */\n      0xffffffffffffffffffffffffffffffffffffffff\n      and\n      0xffffffffffffffffffffffffffffffffffffffff\n      and\n      dup2\n      mstore\n      0x20\n      add\n      swap1\n      dup2\n      mstore\n      0x20\n      add\n      0x00\n      keccak256\n        /* \"Vesting Contract/version3.sol\":1944:1954  newVesting */\n      dup2\n        /* \"Vesting Contract/version3.sol\":1918:1955  vestings[msg.sender].push(newVesting) */\n      swap1\n      dup1\n      0x01\n      dup2\n      sload\n      add\n      dup1\n      dup3\n      sstore\n      dup1\n      swap2\n      pop\n      pop\n      0x01\n      swap1\n      sub\n      swap1\n      0x00\n      mstore\n      keccak256(0x00, 0x20)\n      swap1\n      0x09\n      mul\n      add\n      0x00\n      swap1\n      swap2\n      swap1\n      swap2\n      swap1\n      swap2\n      pop\n      0x00\n      dup3\n      add\n      mload\n      dup2\n      0x00\n      add\n      sstore\n      0x20\n      dup3\n      add\n      mload\n      dup2\n      0x01\n      add\n      sstore\n      0x40\n      dup3\n      add\n      mload\n      dup2\n      0x02\n      add\n      sstore\n      0x60\n      dup3\n      add\n      mload\n      dup2\n      0x03\n      add\n      exp(0x0100, 0x00)\n      dup2\n      sload\n      dup2\n      0xff\n      mul\n      not\n      and\n      swap1\n      dup4\n      iszero\n      iszero\n      mul\n      or\n      swap1\n      sstore\n      pop\n      0x80\n      dup3\n      add\n      mload\n      dup2\n      0x03\n      add\n      exp(0x0100, 0x01)\n      dup2\n      sload\n      dup2\n      0xff\n      mul\n      not\n      and\n      swap1\n      dup4\n      iszero\n      iszero\n      mul\n      or\n      swap1\n      sstore\n      pop\n      0xa0\n      dup3\n      add\n      mload\n      dup2\n      0x03\n      add\n      exp(0x0100, 0x02)\n      dup2\n      sload\n      dup2\n      0xff\n      mul\n      not\n      and\n      swap1\n      dup4\n      0xff\n      and\n      mul\n      or\n      swap1\n      sstore\n      pop\n      0xc0\n      dup3\n      add\n      mload\n      dup2\n      0x03\n      add\n      exp(0x0100, 0x03)\n      dup2\n      sload\n      dup2\n      0xff\n      mul\n      not\n      and\n      swap1\n      dup4\n      0xff\n      and\n      mul\n      or\n      swap1\n      sstore\n      pop\n      0xe0\n      dup3\n      add\n      mload\n      dup2\n      0x04\n      add\n      sstore\n      0x0100\n      dup3\n      add\n      mload\n      dup2\n      0x05\n      add\n      exp(0x0100, 0x00)\n      dup2\n      sload\n      dup2\n      0xffffffffffffffffffffffffffffffffffffffff\n      mul\n      not\n      and\n      swap1\n      dup4\n      0xffffffffffffffffffffffffffffffffffffffff\n      and\n      mul\n      or\n      swap1\n      sstore\n      pop\n      0x0120\n      dup3\n      add\n      mload\n      dup2\n      0x06\n      add\n      sstore\n      0x0140\n      dup3\n      add\n      mload\n      dup2\n      0x07\n      add\n      sstore\n      0x0160\n      dup3\n      add\n      mload\n      dup2\n      0x08\n      add\n      sstore\n      pop\n      pop\n        /* \"Vesting Contract/version3.sol\":1962:1967  token */\n      0x00\n      dup1\n      sload\n      swap1\n      0x0100\n      exp\n      swap1\n      div\n      0xffffffffffffffffffffffffffffffffffffffff\n      and\n        /* \"Vesting Contract/version3.sol\":1962:1980  token.transferFrom */\n      0xffffffffffffffffffffffffffffffffffffffff\n      and\n      0x23b872dd\n        /* \"Vesting Contract/version3.sol\":1981:1991  msg.sender */\n      caller\n        /* \"Vesting Contract/version3.sol\":2001:2005  this */\n      address\n        /* \"Vesting Contract/version3.sol\":2008:2015  _amount */\n      dup11\n        /* \"Vesting Contract/version3.sol\":1962:2016  token.transferFrom(msg.sender, address(this), _amount) */\n      mload(0x40)\n      dup5\n      0xffffffff\n      and\n      0xe0\n      shl\n      dup2\n      mstore\n      0x04\n      add\n      tag_112\n      swap4\n      swap3\n      swap2\n      swap1\n      tag_113\n      jump\t// in\n    tag_112:\n      0x20\n      mload(0x40)\n      dup1\n      dup4\n      sub\n      dup2\n      0x00\n      dup8\n      gas\n      call\n      iszero\n      dup1\n      iszero\n      tag_115\n      jumpi\n      returndatasize\n      0x00\n      dup1\n      returndatacopy\n      revert(0x00, returndatasize)\n    tag_115:\n      pop\n      pop\n      pop\n      pop\n      mload(0x40)\n      returndatasize\n      not(0x1f)\n      0x1f\n      dup3\n      add\n      and\n      dup3\n      add\n      dup1\n      0x40\n      mstore\n      pop\n      dup2\n      add\n      swap1\n      tag_116\n      swap2\n      swap1\n      tag_68\n      jump\t// in\n    tag_116:\n      pop\n        /* \"Vesting Contract/version3.sol\":2042:2052  msg.sender */\n      caller\n        /* \"Vesting Contract/version3.sol\":2028:2104  VestingLocked(msg.sender, _amount, _duration, _slice_period, _start, _cliff) */\n      0xffffffffffffffffffffffffffffffffffffffff\n      and\n      0xb2e88791d817c746d5e5fe14d588911bb8e67f1fe02d38cf2ed5c01d9ac07a07\n        /* \"Vesting Contract/version3.sol\":2054:2061  _amount */\n      dup9\n        /* \"Vesting Contract/version3.sol\":2063:2072  _duration */\n      dup9\n        /* \"Vesting Contract/version3.sol\":2074:2087  _slice_period */\n      dup9\n        /* \"Vesting Contract/version3.sol\":2089:2095  _start */\n      dup9\n        /* \"Vesting Contract/version3.sol\":2097:2103  _cliff */\n      dup9\n        /* \"Vesting Contract/version3.sol\":2028:2104  VestingLocked(msg.sender, _amount, _duration, _slice_period, _start, _cliff) */\n      mload(0x40)\n      tag_117\n      swap6\n      swap5\n      swap4\n      swap3\n      swap2\n      swap1\n      tag_118\n      jump\t// in\n    tag_117:\n      mload(0x40)\n      dup1\n      swap2\n      sub\n      swap1\n      log2\n        /* \"Vesting Contract/version3.sol\":1259:2107  {... */\n      pop\n        /* \"Vesting Contract/version3.sol\":1099:2107  function lock(... */\n      pop\n      pop\n      pop\n      pop\n      pop\n      pop\n      jump\t// out\n        /* \"Vesting Contract/version3.sol\":580:633  mapping(address => VestingSchedule[]) public vestings */\n    tag_37:\n      mstore(0x20, 0x02)\n      dup2\n      0x00\n      mstore\n      keccak256(0x00, 0x40)\n      dup2\n      dup2\n      sload\n      dup2\n      lt\n      tag_119\n      jumpi\n      0x00\n      dup1\n      revert\n    tag_119:\n      swap1\n      0x00\n      mstore\n      keccak256(0x00, 0x20)\n      swap1\n      0x09\n      mul\n      add\n      0x00\n      swap2\n      pop\n      swap2\n      pop\n      pop\n      dup1\n      0x00\n      add\n      sload\n      swap1\n      dup1\n      0x01\n      add\n      sload\n      swap1\n      dup1\n      0x02\n      add\n      sload\n      swap1\n      dup1\n      0x03\n      add\n      0x00\n      swap1\n      sload\n      swap1\n      0x0100\n      exp\n      swap1\n      div\n      0xff\n      and\n      swap1\n      dup1\n      0x03\n      add\n      0x01\n      swap1\n      sload\n      swap1\n      0x0100\n      exp\n      swap1\n      div\n      0xff\n      and\n      swap1\n      dup1\n      0x03\n      add\n      0x02\n      swap1\n      sload\n      swap1\n      0x0100\n      exp\n      swap1\n      div\n      0xff\n      and\n      swap1\n      dup1\n      0x03\n      add\n      0x03\n      swap1\n      sload\n      swap1\n      0x0100\n      exp\n      swap1\n      div\n      0xff\n      and\n      swap1\n      dup1\n      0x04\n      add\n      sload\n      swap1\n      dup1\n      0x05\n      add\n      0x00\n      swap1\n      sload\n      swap1\n      0x0100\n      exp\n      swap1\n      div\n      0xffffffffffffffffffffffffffffffffffffffff\n      and\n      swap1\n      dup1\n      0x06\n      add\n      sload\n      swap1\n      dup1\n      0x07\n      add\n      sload\n      swap1\n      dup1\n      0x08\n      add\n      sload\n      swap1\n      pop\n      dup13\n      jump\t// out\n        /* \"Vesting Contract/version3.sol\":796:878  function addWhitelist (address _add) public onlyOwner{... */\n    tag_42:\n        /* \"Vesting Contract/version3.sol\":728:733  owner */\n      0x01\n      0x00\n      swap1\n      sload\n      swap1\n      0x0100\n      exp\n      swap1\n      div\n      0xffffffffffffffffffffffffffffffffffffffff\n      and\n        /* \"Vesting Contract/version3.sol\":714:733  msg.sender == owner */\n      0xffffffffffffffffffffffffffffffffffffffff\n      and\n        /* \"Vesting Contract/version3.sol\":714:724  msg.sender */\n      caller\n        /* \"Vesting Contract/version3.sol\":714:733  msg.sender == owner */\n      0xffffffffffffffffffffffffffffffffffffffff\n      and\n      eq\n        /* \"Vesting Contract/version3.sol\":706:785  require(msg.sender == owner , \"Only the contract owner can call this function\") */\n      tag_122\n      jumpi\n      mload(0x40)\n      0x08c379a000000000000000000000000000000000000000000000000000000000\n      dup2\n      mstore\n      0x04\n      add\n      tag_123\n      swap1\n      tag_124\n      jump\t// in\n    tag_123:\n      mload(0x40)\n      dup1\n      swap2\n      sub\n      swap1\n      revert\n    tag_122:\n        /* \"Vesting Contract/version3.sol\":871:875  true */\n      0x01\n        /* \"Vesting Contract/version3.sol\":855:864  whitelist */\n      0x03\n        /* \"Vesting Contract/version3.sol\":855:870  whitelist[_add] */\n      0x00\n        /* \"Vesting Contract/version3.sol\":865:869  _add */\n      dup4\n        /* \"Vesting Contract/version3.sol\":855:870  whitelist[_add] */\n      0xffffffffffffffffffffffffffffffffffffffff\n      and\n      0xffffffffffffffffffffffffffffffffffffffff\n      and\n      dup2\n      mstore\n      0x20\n      add\n      swap1\n      dup2\n      mstore\n      0x20\n      add\n      0x00\n      keccak256\n      0x00\n        /* \"Vesting Contract/version3.sol\":855:875  whitelist[_add]=true */\n      0x0100\n      exp\n      dup2\n      sload\n      dup2\n      0xff\n      mul\n      not\n      and\n      swap1\n      dup4\n      iszero\n      iszero\n      mul\n      or\n      swap1\n      sstore\n      pop\n        /* \"Vesting Contract/version3.sol\":796:878  function addWhitelist (address _add) public onlyOwner{... */\n      pop\n      jump\t// out\n        /* \"Vesting Contract/version3.sol\":133:151  ERC20 public token */\n    tag_44:\n      0x00\n      dup1\n      sload\n      swap1\n      0x0100\n      exp\n      swap1\n      div\n      0xffffffffffffffffffffffffffffffffffffffff\n      and\n      dup2\n      jump\t// out\n        /* \"Vesting Contract/version3.sol\":3463:3850  function calculate_remaining_token(uint index) private returns(uint256){... */\n    tag_93:\n        /* \"Vesting Contract/version3.sol\":3526:3533  uint256 */\n      0x00\n        /* \"Vesting Contract/version3.sol\":3540:3571  VestingSchedule storage vesting */\n      dup1\n        /* \"Vesting Contract/version3.sol\":3574:3582  vestings */\n      0x02\n        /* \"Vesting Contract/version3.sol\":3574:3594  vestings[msg.sender] */\n      0x00\n        /* \"Vesting Contract/version3.sol\":3583:3593  msg.sender */\n      caller\n        /* \"Vesting Contract/version3.sol\":3574:3594  vestings[msg.sender] */\n      0xffffffffffffffffffffffffffffffffffffffff\n      and\n      0xffffffffffffffffffffffffffffffffffffffff\n      and\n      dup2\n      mstore\n      0x20\n      add\n      swap1\n      dup2\n      mstore\n      0x20\n      add\n      0x00\n      keccak256\n        /* \"Vesting Contract/version3.sol\":3595:3600  index */\n      dup4\n        /* \"Vesting Contract/version3.sol\":3574:3601  vestings[msg.sender][index] */\n      dup2\n      sload\n      dup2\n      lt\n      tag_127\n      jumpi\n      tag_128\n      tag_50\n      jump\t// in\n    tag_128:\n    tag_127:\n      swap1\n      0x00\n      mstore\n      keccak256(0x00, 0x20)\n      swap1\n      0x09\n      mul\n      add\n        /* \"Vesting Contract/version3.sol\":3540:3601  VestingSchedule storage vesting = vestings[msg.sender][index] */\n      swap1\n      pop\n        /* \"Vesting Contract/version3.sol\":3607:3627  uint256 remain_token */\n      0x00\n        /* \"Vesting Contract/version3.sol\":3685:3692  vesting */\n      dup2\n        /* \"Vesting Contract/version3.sol\":3685:3705  vesting.slice_period */\n      0x03\n      add\n      0x02\n      swap1\n      sload\n      swap1\n      0x0100\n      exp\n      swap1\n      div\n      0xff\n      and\n        /* \"Vesting Contract/version3.sol\":3666:3705  vesting.duration / vesting.slice_period */\n      0xff\n      and\n        /* \"Vesting Contract/version3.sol\":3666:3673  vesting */\n      dup3\n        /* \"Vesting Contract/version3.sol\":3666:3682  vesting.duration */\n      0x02\n      add\n      sload\n        /* \"Vesting Contract/version3.sol\":3666:3705  vesting.duration / vesting.slice_period */\n      tag_130\n      swap2\n      swap1\n      tag_87\n      jump\t// in\n    tag_130:\n        /* \"Vesting Contract/version3.sol\":3648:3655  vesting */\n      dup3\n        /* \"Vesting Contract/version3.sol\":3648:3662  vesting.amount */\n      0x00\n      add\n      sload\n        /* \"Vesting Contract/version3.sol\":3648:3706  vesting.amount % (vesting.duration / vesting.slice_period) */\n      tag_131\n      swap2\n      swap1\n      tag_110\n      jump\t// in\n    tag_131:\n        /* \"Vesting Contract/version3.sol\":3633:3706  remain_token = vesting.amount % (vesting.duration / vesting.slice_period) */\n      swap1\n      pop\n        /* \"Vesting Contract/version3.sol\":3713:3718  token */\n      0x00\n      dup1\n      sload\n      swap1\n      0x0100\n      exp\n      swap1\n      div\n      0xffffffffffffffffffffffffffffffffffffffff\n      and\n        /* \"Vesting Contract/version3.sol\":3713:3727  token.transfer */\n      0xffffffffffffffffffffffffffffffffffffffff\n      and\n      0xa9059cbb\n        /* \"Vesting Contract/version3.sol\":3728:3738  msg.sender */\n      caller\n        /* \"Vesting Contract/version3.sol\":3740:3747  vesting */\n      dup5\n        /* \"Vesting Contract/version3.sol\":3740:3760  vesting.remain_token */\n      0x08\n      add\n      sload\n        /* \"Vesting Contract/version3.sol\":3713:3761  token.transfer(msg.sender, vesting.remain_token) */\n      mload(0x40)\n      dup4\n      0xffffffff\n      and\n      0xe0\n      shl\n      dup2\n      mstore\n      0x04\n      add\n      tag_132\n      swap3\n      swap2\n      swap1\n      tag_64\n      jump\t// in\n    tag_132:\n      0x20\n      mload(0x40)\n      dup1\n      dup4\n      sub\n      dup2\n      0x00\n      dup8\n      gas\n      call\n      iszero\n      dup1\n      iszero\n      tag_134\n      jumpi\n      returndatasize\n      0x00\n      dup1\n      returndatacopy\n      revert(0x00, returndatasize)\n    tag_134:\n      pop\n      pop\n      pop\n      pop\n      mload(0x40)\n      returndatasize\n      not(0x1f)\n      0x1f\n      dup3\n      add\n      and\n      dup3\n      add\n      dup1\n      0x40\n      mstore\n      pop\n      dup2\n      add\n      swap1\n      tag_135\n      swap2\n      swap1\n      tag_68\n      jump\t// in\n    tag_135:\n      pop\n        /* \"Vesting Contract/version3.sol\":3783:3790  vesting */\n      dup2\n        /* \"Vesting Contract/version3.sol\":3783:3797  vesting.amount */\n      0x00\n      add\n      sload\n        /* \"Vesting Contract/version3.sol\":3767:3774  vesting */\n      dup3\n        /* \"Vesting Contract/version3.sol\":3767:3779  vesting.temp */\n      0x07\n      add\n      0x00\n        /* \"Vesting Contract/version3.sol\":3767:3797  vesting.temp += vesting.amount */\n      dup3\n      dup3\n      sload\n      tag_136\n      swap2\n      swap1\n      tag_70\n      jump\t// in\n    tag_136:\n      swap3\n      pop\n      pop\n      dup2\n      swap1\n      sstore\n      pop\n        /* \"Vesting Contract/version3.sol\":3821:3822  0 */\n      0x00\n        /* \"Vesting Contract/version3.sol\":3804:3811  vesting */\n      dup3\n        /* \"Vesting Contract/version3.sol\":3804:3818  vesting.amount */\n      0x00\n      add\n        /* \"Vesting Contract/version3.sol\":3804:3822  vesting.amount = 0 */\n      dup2\n      swap1\n      sstore\n      pop\n        /* \"Vesting Contract/version3.sol\":3835:3847  remain_token */\n      dup1\n        /* \"Vesting Contract/version3.sol\":3828:3847  return remain_token */\n      swap3\n      pop\n      pop\n      pop\n        /* \"Vesting Contract/version3.sol\":3463:3850  function calculate_remaining_token(uint index) private returns(uint256){... */\n      swap2\n      swap1\n      pop\n      jump\t// out\n        /* \"#utility.yul\":88:205   */\n    tag_138:\n        /* \"#utility.yul\":197:198   */\n      0x00\n        /* \"#utility.yul\":194:195   */\n      dup1\n        /* \"#utility.yul\":187:199   */\n      revert\n        /* \"#utility.yul\":334:411   */\n    tag_140:\n        /* \"#utility.yul\":371:378   */\n      0x00\n        /* \"#utility.yul\":400:405   */\n      dup2\n        /* \"#utility.yul\":389:405   */\n      swap1\n      pop\n        /* \"#utility.yul\":334:411   */\n      swap2\n      swap1\n      pop\n      jump\t// out\n        /* \"#utility.yul\":417:539   */\n    tag_141:\n        /* \"#utility.yul\":490:514   */\n      tag_187\n        /* \"#utility.yul\":508:513   */\n      dup2\n        /* \"#utility.yul\":490:514   */\n      tag_140\n      jump\t// in\n    tag_187:\n        /* \"#utility.yul\":483:488   */\n      dup2\n        /* \"#utility.yul\":480:515   */\n      eq\n        /* \"#utility.yul\":470:533   */\n      tag_188\n      jumpi\n        /* \"#utility.yul\":529:530   */\n      0x00\n        /* \"#utility.yul\":526:527   */\n      dup1\n        /* \"#utility.yul\":519:531   */\n      revert\n        /* \"#utility.yul\":470:533   */\n    tag_188:\n        /* \"#utility.yul\":417:539   */\n      pop\n      jump\t// out\n        /* \"#utility.yul\":545:684   */\n    tag_142:\n        /* \"#utility.yul\":591:596   */\n      0x00\n        /* \"#utility.yul\":629:635   */\n      dup2\n        /* \"#utility.yul\":616:636   */\n      calldataload\n        /* \"#utility.yul\":607:636   */\n      swap1\n      pop\n        /* \"#utility.yul\":645:678   */\n      tag_190\n        /* \"#utility.yul\":672:677   */\n      dup2\n        /* \"#utility.yul\":645:678   */\n      tag_141\n      jump\t// in\n    tag_190:\n        /* \"#utility.yul\":545:684   */\n      swap3\n      swap2\n      pop\n      pop\n      jump\t// out\n        /* \"#utility.yul\":690:1019   */\n    tag_14:\n        /* \"#utility.yul\":749:755   */\n      0x00\n        /* \"#utility.yul\":798:800   */\n      0x20\n        /* \"#utility.yul\":786:795   */\n      dup3\n        /* \"#utility.yul\":777:784   */\n      dup5\n        /* \"#utility.yul\":773:796   */\n      sub\n        /* \"#utility.yul\":769:801   */\n      slt\n        /* \"#utility.yul\":766:885   */\n      iszero\n      tag_192\n      jumpi\n        /* \"#utility.yul\":804:883   */\n      tag_193\n      tag_138\n      jump\t// in\n    tag_193:\n        /* \"#utility.yul\":766:885   */\n    tag_192:\n        /* \"#utility.yul\":924:925   */\n      0x00\n        /* \"#utility.yul\":949:1002   */\n      tag_194\n        /* \"#utility.yul\":994:1001   */\n      dup5\n        /* \"#utility.yul\":985:991   */\n      dup3\n        /* \"#utility.yul\":974:983   */\n      dup6\n        /* \"#utility.yul\":970:992   */\n      add\n        /* \"#utility.yul\":949:1002   */\n      tag_142\n      jump\t// in\n    tag_194:\n        /* \"#utility.yul\":939:1002   */\n      swap2\n      pop\n        /* \"#utility.yul\":895:1012   */\n      pop\n        /* \"#utility.yul\":690:1019   */\n      swap3\n      swap2\n      pop\n      pop\n      jump\t// out\n        /* \"#utility.yul\":1025:1143   */\n    tag_143:\n        /* \"#utility.yul\":1112:1136   */\n      tag_196\n        /* \"#utility.yul\":1130:1135   */\n      dup2\n        /* \"#utility.yul\":1112:1136   */\n      tag_140\n      jump\t// in\n    tag_196:\n        /* \"#utility.yul\":1107:1110   */\n      dup3\n        /* \"#utility.yul\":1100:1137   */\n      mstore\n        /* \"#utility.yul\":1025:1143   */\n      pop\n      pop\n      jump\t// out\n        /* \"#utility.yul\":1149:1371   */\n    tag_19:\n        /* \"#utility.yul\":1242:1246   */\n      0x00\n        /* \"#utility.yul\":1280:1282   */\n      0x20\n        /* \"#utility.yul\":1269:1278   */\n      dup3\n        /* \"#utility.yul\":1265:1283   */\n      add\n        /* \"#utility.yul\":1257:1283   */\n      swap1\n      pop\n        /* \"#utility.yul\":1293:1364   */\n      tag_198\n        /* \"#utility.yul\":1361:1362   */\n      0x00\n        /* \"#utility.yul\":1350:1359   */\n      dup4\n        /* \"#utility.yul\":1346:1363   */\n      add\n        /* \"#utility.yul\":1337:1343   */\n      dup5\n        /* \"#utility.yul\":1293:1364   */\n      tag_143\n      jump\t// in\n    tag_198:\n        /* \"#utility.yul\":1149:1371   */\n      swap3\n      swap2\n      pop\n      pop\n      jump\t// out\n        /* \"#utility.yul\":1377:1503   */\n    tag_144:\n        /* \"#utility.yul\":1414:1421   */\n      0x00\n        /* \"#utility.yul\":1454:1496   */\n      0xffffffffffffffffffffffffffffffffffffffff\n        /* \"#utility.yul\":1447:1452   */\n      dup3\n        /* \"#utility.yul\":1443:1497   */\n      and\n        /* \"#utility.yul\":1432:1497   */\n      swap1\n      pop\n        /* \"#utility.yul\":1377:1503   */\n      swap2\n      swap1\n      pop\n      jump\t// out\n        /* \"#utility.yul\":1509:1605   */\n    tag_145:\n        /* \"#utility.yul\":1546:1553   */\n      0x00\n        /* \"#utility.yul\":1575:1599   */\n      tag_201\n        /* \"#utility.yul\":1593:1598   */\n      dup3\n        /* \"#utility.yul\":1575:1599   */\n      tag_144\n      jump\t// in\n    tag_201:\n        /* \"#utility.yul\":1564:1599   */\n      swap1\n      pop\n        /* \"#utility.yul\":1509:1605   */\n      swap2\n      swap1\n      pop\n      jump\t// out\n        /* \"#utility.yul\":1611:1733   */\n    tag_146:\n        /* \"#utility.yul\":1684:1708   */\n      tag_203\n        /* \"#utility.yul\":1702:1707   */\n      dup2\n        /* \"#utility.yul\":1684:1708   */\n      tag_145\n      jump\t// in\n    tag_203:\n        /* \"#utility.yul\":1677:1682   */\n      dup2\n        /* \"#utility.yul\":1674:1709   */\n      eq\n        /* \"#utility.yul\":1664:1727   */\n      tag_204\n      jumpi\n        /* \"#utility.yul\":1723:1724   */\n      0x00\n        /* \"#utility.yul\":1720:1721   */\n      dup1\n        /* \"#utility.yul\":1713:1725   */\n      revert\n        /* \"#utility.yul\":1664:1727   */\n    tag_204:\n        /* \"#utility.yul\":1611:1733   */\n      pop\n      jump\t// out\n        /* \"#utility.yul\":1739:1878   */\n    tag_147:\n        /* \"#utility.yul\":1785:1790   */\n      0x00\n        /* \"#utility.yul\":1823:1829   */\n      dup2\n        /* \"#utility.yul\":1810:1830   */\n      calldataload\n        /* \"#utility.yul\":1801:1830   */\n      swap1\n      pop\n        /* \"#utility.yul\":1839:1872   */\n      tag_206\n        /* \"#utility.yul\":1866:1871   */\n      dup2\n        /* \"#utility.yul\":1839:1872   */\n      tag_146\n      jump\t// in\n    tag_206:\n        /* \"#utility.yul\":1739:1878   */\n      swap3\n      swap2\n      pop\n      pop\n      jump\t// out\n        /* \"#utility.yul\":1884:2213   */\n    tag_26:\n        /* \"#utility.yul\":1943:1949   */\n      0x00\n        /* \"#utility.yul\":1992:1994   */\n      0x20\n        /* \"#utility.yul\":1980:1989   */\n      dup3\n        /* \"#utility.yul\":1971:1978   */\n      dup5\n        /* \"#utility.yul\":1967:1990   */\n      sub\n        /* \"#utility.yul\":1963:1995   */\n      slt\n        /* \"#utility.yul\":1960:2079   */\n      iszero\n      tag_208\n      jumpi\n        /* \"#utility.yul\":1998:2077   */\n      tag_209\n      tag_138\n      jump\t// in\n    tag_209:\n        /* \"#utility.yul\":1960:2079   */\n    tag_208:\n        /* \"#utility.yul\":2118:2119   */\n      0x00\n        /* \"#utility.yul\":2143:2196   */\n      tag_210\n        /* \"#utility.yul\":2188:2195   */\n      dup5\n        /* \"#utility.yul\":2179:2185   */\n      dup3\n        /* \"#utility.yul\":2168:2177   */\n      dup6\n        /* \"#utility.yul\":2164:2186   */\n      add\n        /* \"#utility.yul\":2143:2196   */\n      tag_147\n      jump\t// in\n    tag_210:\n        /* \"#utility.yul\":2133:2196   */\n      swap2\n      pop\n        /* \"#utility.yul\":2089:2206   */\n      pop\n        /* \"#utility.yul\":1884:2213   */\n      swap3\n      swap2\n      pop\n      pop\n      jump\t// out\n        /* \"#utility.yul\":2219:2309   */\n    tag_148:\n        /* \"#utility.yul\":2253:2260   */\n      0x00\n        /* \"#utility.yul\":2296:2301   */\n      dup2\n        /* \"#utility.yul\":2289:2302   */\n      iszero\n        /* \"#utility.yul\":2282:2303   */\n      iszero\n        /* \"#utility.yul\":2271:2303   */\n      swap1\n      pop\n        /* \"#utility.yul\":2219:2309   */\n      swap2\n      swap1\n      pop\n      jump\t// out\n        /* \"#utility.yul\":2315:2424   */\n    tag_149:\n        /* \"#utility.yul\":2396:2417   */\n      tag_213\n        /* \"#utility.yul\":2411:2416   */\n      dup2\n        /* \"#utility.yul\":2396:2417   */\n      tag_148\n      jump\t// in\n    tag_213:\n        /* \"#utility.yul\":2391:2394   */\n      dup3\n        /* \"#utility.yul\":2384:2418   */\n      mstore\n        /* \"#utility.yul\":2315:2424   */\n      pop\n      pop\n      jump\t// out\n        /* \"#utility.yul\":2430:2640   */\n    tag_29:\n        /* \"#utility.yul\":2517:2521   */\n      0x00\n        /* \"#utility.yul\":2555:2557   */\n      0x20\n        /* \"#utility.yul\":2544:2553   */\n      dup3\n        /* \"#utility.yul\":2540:2558   */\n      add\n        /* \"#utility.yul\":2532:2558   */\n      swap1\n      pop\n        /* \"#utility.yul\":2568:2633   */\n      tag_215\n        /* \"#utility.yul\":2630:2631   */\n      0x00\n        /* \"#utility.yul\":2619:2628   */\n      dup4\n        /* \"#utility.yul\":2615:2632   */\n      add\n        /* \"#utility.yul\":2606:2612   */\n      dup5\n        /* \"#utility.yul\":2568:2633   */\n      tag_149\n      jump\t// in\n    tag_215:\n        /* \"#utility.yul\":2430:2640   */\n      swap3\n      swap2\n      pop\n      pop\n      jump\t// out\n        /* \"#utility.yul\":2646:2732   */\n    tag_150:\n        /* \"#utility.yul\":2681:2688   */\n      0x00\n        /* \"#utility.yul\":2721:2725   */\n      0xff\n        /* \"#utility.yul\":2714:2719   */\n      dup3\n        /* \"#utility.yul\":2710:2726   */\n      and\n        /* \"#utility.yul\":2699:2726   */\n      swap1\n      pop\n        /* \"#utility.yul\":2646:2732   */\n      swap2\n      swap1\n      pop\n      jump\t// out\n        /* \"#utility.yul\":2738:2856   */\n    tag_151:\n        /* \"#utility.yul\":2809:2831   */\n      tag_218\n        /* \"#utility.yul\":2825:2830   */\n      dup2\n        /* \"#utility.yul\":2809:2831   */\n      tag_150\n      jump\t// in\n    tag_218:\n        /* \"#utility.yul\":2802:2807   */\n      dup2\n        /* \"#utility.yul\":2799:2832   */\n      eq\n        /* \"#utility.yul\":2789:2850   */\n      tag_219\n      jumpi\n        /* \"#utility.yul\":2846:2847   */\n      0x00\n        /* \"#utility.yul\":2843:2844   */\n      dup1\n        /* \"#utility.yul\":2836:2848   */\n      revert\n        /* \"#utility.yul\":2789:2850   */\n    tag_219:\n        /* \"#utility.yul\":2738:2856   */\n      pop\n      jump\t// out\n        /* \"#utility.yul\":2862:2997   */\n    tag_152:\n        /* \"#utility.yul\":2906:2911   */\n      0x00\n        /* \"#utility.yul\":2944:2950   */\n      dup2\n        /* \"#utility.yul\":2931:2951   */\n      calldataload\n        /* \"#utility.yul\":2922:2951   */\n      swap1\n      pop\n        /* \"#utility.yul\":2960:2991   */\n      tag_221\n        /* \"#utility.yul\":2985:2990   */\n      dup2\n        /* \"#utility.yul\":2960:2991   */\n      tag_151\n      jump\t// in\n    tag_221:\n        /* \"#utility.yul\":2862:2997   */\n      swap3\n      swap2\n      pop\n      pop\n      jump\t// out\n        /* \"#utility.yul\":3003:4052   */\n    tag_32:\n        /* \"#utility.yul\":3103:3109   */\n      0x00\n        /* \"#utility.yul\":3111:3117   */\n      dup1\n        /* \"#utility.yul\":3119:3125   */\n      0x00\n        /* \"#utility.yul\":3127:3133   */\n      dup1\n        /* \"#utility.yul\":3135:3141   */\n      0x00\n        /* \"#utility.yul\":3143:3149   */\n      dup1\n        /* \"#utility.yul\":3192:3195   */\n      0xc0\n        /* \"#utility.yul\":3180:3189   */\n      dup8\n        /* \"#utility.yul\":3171:3178   */\n      dup10\n        /* \"#utility.yul\":3167:3190   */\n      sub\n        /* \"#utility.yul\":3163:3196   */\n      slt\n        /* \"#utility.yul\":3160:3280   */\n      iszero\n      tag_223\n      jumpi\n        /* \"#utility.yul\":3199:3278   */\n      tag_224\n      tag_138\n      jump\t// in\n    tag_224:\n        /* \"#utility.yul\":3160:3280   */\n    tag_223:\n        /* \"#utility.yul\":3319:3320   */\n      0x00\n        /* \"#utility.yul\":3344:3397   */\n      tag_225\n        /* \"#utility.yul\":3389:3396   */\n      dup10\n        /* \"#utility.yul\":3380:3386   */\n      dup3\n        /* \"#utility.yul\":3369:3378   */\n      dup11\n        /* \"#utility.yul\":3365:3387   */\n      add\n        /* \"#utility.yul\":3344:3397   */\n      tag_142\n      jump\t// in\n    tag_225:\n        /* \"#utility.yul\":3334:3397   */\n      swap7\n      pop\n        /* \"#utility.yul\":3290:3407   */\n      pop\n        /* \"#utility.yul\":3446:3448   */\n      0x20\n        /* \"#utility.yul\":3472:3525   */\n      tag_226\n        /* \"#utility.yul\":3517:3524   */\n      dup10\n        /* \"#utility.yul\":3508:3514   */\n      dup3\n        /* \"#utility.yul\":3497:3506   */\n      dup11\n        /* \"#utility.yul\":3493:3515   */\n      add\n        /* \"#utility.yul\":3472:3525   */\n      tag_142\n      jump\t// in\n    tag_226:\n        /* \"#utility.yul\":3462:3525   */\n      swap6\n      pop\n        /* \"#utility.yul\":3417:3535   */\n      pop\n        /* \"#utility.yul\":3574:3576   */\n      0x40\n        /* \"#utility.yul\":3600:3651   */\n      tag_227\n        /* \"#utility.yul\":3643:3650   */\n      dup10\n        /* \"#utility.yul\":3634:3640   */\n      dup3\n        /* \"#utility.yul\":3623:3632   */\n      dup11\n        /* \"#utility.yul\":3619:3641   */\n      add\n        /* \"#utility.yul\":3600:3651   */\n      tag_152\n      jump\t// in\n    tag_227:\n        /* \"#utility.yul\":3590:3651   */\n      swap5\n      pop\n        /* \"#utility.yul\":3545:3661   */\n      pop\n        /* \"#utility.yul\":3700:3702   */\n      0x60\n        /* \"#utility.yul\":3726:3779   */\n      tag_228\n        /* \"#utility.yul\":3771:3778   */\n      dup10\n        /* \"#utility.yul\":3762:3768   */\n      dup3\n        /* \"#utility.yul\":3751:3760   */\n      dup11\n        /* \"#utility.yul\":3747:3769   */\n      add\n        /* \"#utility.yul\":3726:3779   */\n      tag_142\n      jump\t// in\n    tag_228:\n        /* \"#utility.yul\":3716:3779   */\n      swap4\n      pop\n        /* \"#utility.yul\":3671:3789   */\n      pop\n        /* \"#utility.yul\":3828:3831   */\n      0x80\n        /* \"#utility.yul\":3855:3906   */\n      tag_229\n        /* \"#utility.yul\":3898:3905   */\n      dup10\n        /* \"#utility.yul\":3889:3895   */\n      dup3\n        /* \"#utility.yul\":3878:3887   */\n      dup11\n        /* \"#utility.yul\":3874:3896   */\n      add\n        /* \"#utility.yul\":3855:3906   */\n      tag_152\n      jump\t// in\n    tag_229:\n        /* \"#utility.yul\":3845:3906   */\n      swap3\n      pop\n        /* \"#utility.yul\":3799:3916   */\n      pop\n        /* \"#utility.yul\":3955:3958   */\n      0xa0\n        /* \"#utility.yul\":3982:4035   */\n      tag_230\n        /* \"#utility.yul\":4027:4034   */\n      dup10\n        /* \"#utility.yul\":4018:4024   */\n      dup3\n        /* \"#utility.yul\":4007:4016   */\n      dup11\n        /* \"#utility.yul\":4003:4025   */\n      add\n        /* \"#utility.yul\":3982:4035   */\n      tag_147\n      jump\t// in\n    tag_230:\n        /* \"#utility.yul\":3972:4035   */\n      swap2\n      pop\n        /* \"#utility.yul\":3926:4045   */\n      pop\n        /* \"#utility.yul\":3003:4052   */\n      swap3\n      swap6\n      pop\n      swap3\n      swap6\n      pop\n      swap3\n      swap6\n      jump\t// out\n        /* \"#utility.yul\":4058:4532   */\n    tag_36:\n        /* \"#utility.yul\":4126:4132   */\n      0x00\n        /* \"#utility.yul\":4134:4140   */\n      dup1\n        /* \"#utility.yul\":4183:4185   */\n      0x40\n        /* \"#utility.yul\":4171:4180   */\n      dup4\n        /* \"#utility.yul\":4162:4169   */\n      dup6\n        /* \"#utility.yul\":4158:4181   */\n      sub\n        /* \"#utility.yul\":4154:4186   */\n      slt\n        /* \"#utility.yul\":4151:4270   */\n      iszero\n      tag_232\n      jumpi\n        /* \"#utility.yul\":4189:4268   */\n      tag_233\n      tag_138\n      jump\t// in\n    tag_233:\n        /* \"#utility.yul\":4151:4270   */\n    tag_232:\n        /* \"#utility.yul\":4309:4310   */\n      0x00\n        /* \"#utility.yul\":4334:4387   */\n      tag_234\n        /* \"#utility.yul\":4379:4386   */\n      dup6\n        /* \"#utility.yul\":4370:4376   */\n      dup3\n        /* \"#utility.yul\":4359:4368   */\n      dup7\n        /* \"#utility.yul\":4355:4377   */\n      add\n        /* \"#utility.yul\":4334:4387   */\n      tag_147\n      jump\t// in\n    tag_234:\n        /* \"#utility.yul\":4324:4387   */\n      swap3\n      pop\n        /* \"#utility.yul\":4280:4397   */\n      pop\n        /* \"#utility.yul\":4436:4438   */\n      0x20\n        /* \"#utility.yul\":4462:4515   */\n      tag_235\n        /* \"#utility.yul\":4507:4514   */\n      dup6\n        /* \"#utility.yul\":4498:4504   */\n      dup3\n        /* \"#utility.yul\":4487:4496   */\n      dup7\n        /* \"#utility.yul\":4483:4505   */\n      add\n        /* \"#utility.yul\":4462:4515   */\n      tag_142\n      jump\t// in\n    tag_235:\n        /* \"#utility.yul\":4452:4515   */\n      swap2\n      pop\n        /* \"#utility.yul\":4407:4525   */\n      pop\n        /* \"#utility.yul\":4058:4532   */\n      swap3\n      pop\n      swap3\n      swap1\n      pop\n      jump\t// out\n        /* \"#utility.yul\":4538:4650   */\n    tag_153:\n        /* \"#utility.yul\":4621:4643   */\n      tag_237\n        /* \"#utility.yul\":4637:4642   */\n      dup2\n        /* \"#utility.yul\":4621:4643   */\n      tag_150\n      jump\t// in\n    tag_237:\n        /* \"#utility.yul\":4616:4619   */\n      dup3\n        /* \"#utility.yul\":4609:4644   */\n      mstore\n        /* \"#utility.yul\":4538:4650   */\n      pop\n      pop\n      jump\t// out\n        /* \"#utility.yul\":4656:4774   */\n    tag_154:\n        /* \"#utility.yul\":4743:4767   */\n      tag_239\n        /* \"#utility.yul\":4761:4766   */\n      dup2\n        /* \"#utility.yul\":4743:4767   */\n      tag_145\n      jump\t// in\n    tag_239:\n        /* \"#utility.yul\":4738:4741   */\n      dup3\n        /* \"#utility.yul\":4731:4768   */\n      mstore\n        /* \"#utility.yul\":4656:4774   */\n      pop\n      pop\n      jump\t// out\n        /* \"#utility.yul\":4780:6185   */\n    tag_39:\n        /* \"#utility.yul\":5163:5167   */\n      0x00\n        /* \"#utility.yul\":5201:5204   */\n      0x0180\n        /* \"#utility.yul\":5190:5199   */\n      dup3\n        /* \"#utility.yul\":5186:5205   */\n      add\n        /* \"#utility.yul\":5178:5205   */\n      swap1\n      pop\n        /* \"#utility.yul\":5215:5286   */\n      tag_241\n        /* \"#utility.yul\":5283:5284   */\n      0x00\n        /* \"#utility.yul\":5272:5281   */\n      dup4\n        /* \"#utility.yul\":5268:5285   */\n      add\n        /* \"#utility.yul\":5259:5265   */\n      dup16\n        /* \"#utility.yul\":5215:5286   */\n      tag_143\n      jump\t// in\n    tag_241:\n        /* \"#utility.yul\":5296:5368   */\n      tag_242\n        /* \"#utility.yul\":5364:5366   */\n      0x20\n        /* \"#utility.yul\":5353:5362   */\n      dup4\n        /* \"#utility.yul\":5349:5367   */\n      add\n        /* \"#utility.yul\":5340:5346   */\n      dup15\n        /* \"#utility.yul\":5296:5368   */\n      tag_143\n      jump\t// in\n    tag_242:\n        /* \"#utility.yul\":5378:5450   */\n      tag_243\n        /* \"#utility.yul\":5446:5448   */\n      0x40\n        /* \"#utility.yul\":5435:5444   */\n      dup4\n        /* \"#utility.yul\":5431:5449   */\n      add\n        /* \"#utility.yul\":5422:5428   */\n      dup14\n        /* \"#utility.yul\":5378:5450   */\n      tag_143\n      jump\t// in\n    tag_243:\n        /* \"#utility.yul\":5460:5526   */\n      tag_244\n        /* \"#utility.yul\":5522:5524   */\n      0x60\n        /* \"#utility.yul\":5511:5520   */\n      dup4\n        /* \"#utility.yul\":5507:5525   */\n      add\n        /* \"#utility.yul\":5498:5504   */\n      dup13\n        /* \"#utility.yul\":5460:5526   */\n      tag_149\n      jump\t// in\n    tag_244:\n        /* \"#utility.yul\":5536:5603   */\n      tag_245\n        /* \"#utility.yul\":5598:5601   */\n      0x80\n        /* \"#utility.yul\":5587:5596   */\n      dup4\n        /* \"#utility.yul\":5583:5602   */\n      add\n        /* \"#utility.yul\":5574:5580   */\n      dup12\n        /* \"#utility.yul\":5536:5603   */\n      tag_149\n      jump\t// in\n    tag_245:\n        /* \"#utility.yul\":5613:5682   */\n      tag_246\n        /* \"#utility.yul\":5677:5680   */\n      0xa0\n        /* \"#utility.yul\":5666:5675   */\n      dup4\n        /* \"#utility.yul\":5662:5681   */\n      add\n        /* \"#utility.yul\":5653:5659   */\n      dup11\n        /* \"#utility.yul\":5613:5682   */\n      tag_153\n      jump\t// in\n    tag_246:\n        /* \"#utility.yul\":5692:5761   */\n      tag_247\n        /* \"#utility.yul\":5756:5759   */\n      0xc0\n        /* \"#utility.yul\":5745:5754   */\n      dup4\n        /* \"#utility.yul\":5741:5760   */\n      add\n        /* \"#utility.yul\":5732:5738   */\n      dup10\n        /* \"#utility.yul\":5692:5761   */\n      tag_153\n      jump\t// in\n    tag_247:\n        /* \"#utility.yul\":5771:5844   */\n      tag_248\n        /* \"#utility.yul\":5839:5842   */\n      0xe0\n        /* \"#utility.yul\":5828:5837   */\n      dup4\n        /* \"#utility.yul\":5824:5843   */\n      add\n        /* \"#utility.yul\":5815:5821   */\n      dup9\n        /* \"#utility.yul\":5771:5844   */\n      tag_143\n      jump\t// in\n    tag_248:\n        /* \"#utility.yul\":5854:5927   */\n      tag_249\n        /* \"#utility.yul\":5922:5925   */\n      0x0100\n        /* \"#utility.yul\":5911:5920   */\n      dup4\n        /* \"#utility.yul\":5907:5926   */\n      add\n        /* \"#utility.yul\":5898:5904   */\n      dup8\n        /* \"#utility.yul\":5854:5927   */\n      tag_154\n      jump\t// in\n    tag_249:\n        /* \"#utility.yul\":5937:6010   */\n      tag_250\n        /* \"#utility.yul\":6005:6008   */\n      0x0120\n        /* \"#utility.yul\":5994:6003   */\n      dup4\n        /* \"#utility.yul\":5990:6009   */\n      add\n        /* \"#utility.yul\":5981:5987   */\n      dup7\n        /* \"#utility.yul\":5937:6010   */\n      tag_143\n      jump\t// in\n    tag_250:\n        /* \"#utility.yul\":6020:6094   */\n      tag_251\n        /* \"#utility.yul\":6089:6092   */\n      0x0140\n        /* \"#utility.yul\":6078:6087   */\n      dup4\n        /* \"#utility.yul\":6074:6093   */\n      add\n        /* \"#utility.yul\":6064:6071   */\n      dup6\n        /* \"#utility.yul\":6020:6094   */\n      tag_143\n      jump\t// in\n    tag_251:\n        /* \"#utility.yul\":6104:6178   */\n      tag_252\n        /* \"#utility.yul\":6173:6176   */\n      0x0160\n        /* \"#utility.yul\":6162:6171   */\n      dup4\n        /* \"#utility.yul\":6158:6177   */\n      add\n        /* \"#utility.yul\":6148:6155   */\n      dup5\n        /* \"#utility.yul\":6104:6178   */\n      tag_143\n      jump\t// in\n    tag_252:\n        /* \"#utility.yul\":4780:6185   */\n      swap14\n      swap13\n      pop\n      pop\n      pop\n      pop\n      pop\n      pop\n      pop\n      pop\n      pop\n      pop\n      pop\n      pop\n      pop\n      jump\t// out\n        /* \"#utility.yul\":6191:6251   */\n    tag_155:\n        /* \"#utility.yul\":6219:6222   */\n      0x00\n        /* \"#utility.yul\":6240:6245   */\n      dup2\n        /* \"#utility.yul\":6233:6245   */\n      swap1\n      pop\n        /* \"#utility.yul\":6191:6251   */\n      swap2\n      swap1\n      pop\n      jump\t// out\n        /* \"#utility.yul\":6257:6399   */\n    tag_156:\n        /* \"#utility.yul\":6307:6316   */\n      0x00\n        /* \"#utility.yul\":6340:6393   */\n      tag_255\n        /* \"#utility.yul\":6358:6392   */\n      tag_256\n        /* \"#utility.yul\":6367:6391   */\n      tag_257\n        /* \"#utility.yul\":6385:6390   */\n      dup5\n        /* \"#utility.yul\":6367:6391   */\n      tag_144\n      jump\t// in\n    tag_257:\n        /* \"#utility.yul\":6358:6392   */\n      tag_155\n      jump\t// in\n    tag_256:\n        /* \"#utility.yul\":6340:6393   */\n      tag_144\n      jump\t// in\n    tag_255:\n        /* \"#utility.yul\":6327:6393   */\n      swap1\n      pop\n        /* \"#utility.yul\":6257:6399   */\n      swap2\n      swap1\n      pop\n      jump\t// out\n        /* \"#utility.yul\":6405:6531   */\n    tag_157:\n        /* \"#utility.yul\":6455:6464   */\n      0x00\n        /* \"#utility.yul\":6488:6525   */\n      tag_259\n        /* \"#utility.yul\":6519:6524   */\n      dup3\n        /* \"#utility.yul\":6488:6525   */\n      tag_156\n      jump\t// in\n    tag_259:\n        /* \"#utility.yul\":6475:6525   */\n      swap1\n      pop\n        /* \"#utility.yul\":6405:6531   */\n      swap2\n      swap1\n      pop\n      jump\t// out\n        /* \"#utility.yul\":6537:6676   */\n    tag_158:\n        /* \"#utility.yul\":6600:6609   */\n      0x00\n        /* \"#utility.yul\":6633:6670   */\n      tag_261\n        /* \"#utility.yul\":6664:6669   */\n      dup3\n        /* \"#utility.yul\":6633:6670   */\n      tag_157\n      jump\t// in\n    tag_261:\n        /* \"#utility.yul\":6620:6670   */\n      swap1\n      pop\n        /* \"#utility.yul\":6537:6676   */\n      swap2\n      swap1\n      pop\n      jump\t// out\n        /* \"#utility.yul\":6682:6839   */\n    tag_159:\n        /* \"#utility.yul\":6782:6832   */\n      tag_263\n        /* \"#utility.yul\":6826:6831   */\n      dup2\n        /* \"#utility.yul\":6782:6832   */\n      tag_158\n      jump\t// in\n    tag_263:\n        /* \"#utility.yul\":6777:6780   */\n      dup3\n        /* \"#utility.yul\":6770:6833   */\n      mstore\n        /* \"#utility.yul\":6682:6839   */\n      pop\n      pop\n      jump\t// out\n        /* \"#utility.yul\":6845:7093   */\n    tag_46:\n        /* \"#utility.yul\":6951:6955   */\n      0x00\n        /* \"#utility.yul\":6989:6991   */\n      0x20\n        /* \"#utility.yul\":6978:6987   */\n      dup3\n        /* \"#utility.yul\":6974:6992   */\n      add\n        /* \"#utility.yul\":6966:6992   */\n      swap1\n      pop\n        /* \"#utility.yul\":7002:7086   */\n      tag_265\n        /* \"#utility.yul\":7083:7084   */\n      0x00\n        /* \"#utility.yul\":7072:7081   */\n      dup4\n        /* \"#utility.yul\":7068:7085   */\n      add\n        /* \"#utility.yul\":7059:7065   */\n      dup5\n        /* \"#utility.yul\":7002:7086   */\n      tag_159\n      jump\t// in\n    tag_265:\n        /* \"#utility.yul\":6845:7093   */\n      swap3\n      swap2\n      pop\n      pop\n      jump\t// out\n        /* \"#utility.yul\":7099:7279   */\n    tag_50:\n        /* \"#utility.yul\":7147:7224   */\n      0x4e487b7100000000000000000000000000000000000000000000000000000000\n        /* \"#utility.yul\":7144:7145   */\n      0x00\n        /* \"#utility.yul\":7137:7225   */\n      mstore\n        /* \"#utility.yul\":7244:7248   */\n      0x32\n        /* \"#utility.yul\":7241:7242   */\n      0x04\n        /* \"#utility.yul\":7234:7249   */\n      mstore\n        /* \"#utility.yul\":7268:7272   */\n      0x24\n        /* \"#utility.yul\":7265:7266   */\n      0x00\n        /* \"#utility.yul\":7258:7273   */\n      revert\n        /* \"#utility.yul\":7285:7454   */\n    tag_160:\n        /* \"#utility.yul\":7369:7380   */\n      0x00\n        /* \"#utility.yul\":7403:7409   */\n      dup3\n        /* \"#utility.yul\":7398:7401   */\n      dup3\n        /* \"#utility.yul\":7391:7410   */\n      mstore\n        /* \"#utility.yul\":7443:7447   */\n      0x20\n        /* \"#utility.yul\":7438:7441   */\n      dup3\n        /* \"#utility.yul\":7434:7448   */\n      add\n        /* \"#utility.yul\":7419:7448   */\n      swap1\n      pop\n        /* \"#utility.yul\":7285:7454   */\n      swap3\n      swap2\n      pop\n      pop\n      jump\t// out\n        /* \"#utility.yul\":7460:7636   */\n    tag_161:\n        /* \"#utility.yul\":7600:7628   */\n      0x46756e64732068617665206e6f74206265656e206c6f636b6564000000000000\n        /* \"#utility.yul\":7596:7597   */\n      0x00\n        /* \"#utility.yul\":7588:7594   */\n      dup3\n        /* \"#utility.yul\":7584:7598   */\n      add\n        /* \"#utility.yul\":7577:7629   */\n      mstore\n        /* \"#utility.yul\":7460:7636   */\n      pop\n      jump\t// out\n        /* \"#utility.yul\":7642:8008   */\n    tag_162:\n        /* \"#utility.yul\":7784:7787   */\n      0x00\n        /* \"#utility.yul\":7805:7872   */\n      tag_270\n        /* \"#utility.yul\":7869:7871   */\n      0x1a\n        /* \"#utility.yul\":7864:7867   */\n      dup4\n        /* \"#utility.yul\":7805:7872   */\n      tag_160\n      jump\t// in\n    tag_270:\n        /* \"#utility.yul\":7798:7872   */\n      swap2\n      pop\n        /* \"#utility.yul\":7881:7974   */\n      tag_271\n        /* \"#utility.yul\":7970:7973   */\n      dup3\n        /* \"#utility.yul\":7881:7974   */\n      tag_161\n      jump\t// in\n    tag_271:\n        /* \"#utility.yul\":7999:8001   */\n      0x20\n        /* \"#utility.yul\":7994:7997   */\n      dup3\n        /* \"#utility.yul\":7990:8002   */\n      add\n        /* \"#utility.yul\":7983:8002   */\n      swap1\n      pop\n        /* \"#utility.yul\":7642:8008   */\n      swap2\n      swap1\n      pop\n      jump\t// out\n        /* \"#utility.yul\":8014:8433   */\n    tag_54:\n        /* \"#utility.yul\":8180:8184   */\n      0x00\n        /* \"#utility.yul\":8218:8220   */\n      0x20\n        /* \"#utility.yul\":8207:8216   */\n      dup3\n        /* \"#utility.yul\":8203:8221   */\n      add\n        /* \"#utility.yul\":8195:8221   */\n      swap1\n      pop\n        /* \"#utility.yul\":8267:8276   */\n      dup2\n        /* \"#utility.yul\":8261:8265   */\n      dup2\n        /* \"#utility.yul\":8257:8277   */\n      sub\n        /* \"#utility.yul\":8253:8254   */\n      0x00\n        /* \"#utility.yul\":8242:8251   */\n      dup4\n        /* \"#utility.yul\":8238:8255   */\n      add\n        /* \"#utility.yul\":8231:8278   */\n      mstore\n        /* \"#utility.yul\":8295:8426   */\n      tag_273\n        /* \"#utility.yul\":8421:8425   */\n      dup2\n        /* \"#utility.yul\":8295:8426   */\n      tag_162\n      jump\t// in\n    tag_273:\n        /* \"#utility.yul\":8287:8426   */\n      swap1\n      pop\n        /* \"#utility.yul\":8014:8433   */\n      swap2\n      swap1\n      pop\n      jump\t// out\n        /* \"#utility.yul\":8439:8659   */\n    tag_163:\n        /* \"#utility.yul\":8579:8613   */\n      0x546f6b656e20756e646572206c6f636b696e6720706c6561736520776169742e\n        /* \"#utility.yul\":8575:8576   */\n      0x00\n        /* \"#utility.yul\":8567:8573   */\n      dup3\n        /* \"#utility.yul\":8563:8577   */\n      add\n        /* \"#utility.yul\":8556:8614   */\n      mstore\n        /* \"#utility.yul\":8648:8651   */\n      0x2e00000000000000000000000000000000000000000000000000000000000000\n        /* \"#utility.yul\":8643:8645   */\n      0x20\n        /* \"#utility.yul\":8635:8641   */\n      dup3\n        /* \"#utility.yul\":8631:8646   */\n      add\n        /* \"#utility.yul\":8624:8652   */\n      mstore\n        /* \"#utility.yul\":8439:8659   */\n      pop\n      jump\t// out\n        /* \"#utility.yul\":8665:9031   */\n    tag_164:\n        /* \"#utility.yul\":8807:8810   */\n      0x00\n        /* \"#utility.yul\":8828:8895   */\n      tag_276\n        /* \"#utility.yul\":8892:8894   */\n      0x21\n        /* \"#utility.yul\":8887:8890   */\n      dup4\n        /* \"#utility.yul\":8828:8895   */\n      tag_160\n      jump\t// in\n    tag_276:\n        /* \"#utility.yul\":8821:8895   */\n      swap2\n      pop\n        /* \"#utility.yul\":8904:8997   */\n      tag_277\n        /* \"#utility.yul\":8993:8996   */\n      dup3\n        /* \"#utility.yul\":8904:8997   */\n      tag_163\n      jump\t// in\n    tag_277:\n        /* \"#utility.yul\":9022:9024   */\n      0x40\n        /* \"#utility.yul\":9017:9020   */\n      dup3\n        /* \"#utility.yul\":9013:9025   */\n      add\n        /* \"#utility.yul\":9006:9025   */\n      swap1\n      pop\n        /* \"#utility.yul\":8665:9031   */\n      swap2\n      swap1\n      pop\n      jump\t// out\n        /* \"#utility.yul\":9037:9456   */\n    tag_58:\n        /* \"#utility.yul\":9203:9207   */\n      0x00\n        /* \"#utility.yul\":9241:9243   */\n      0x20\n        /* \"#utility.yul\":9230:9239   */\n      dup3\n        /* \"#utility.yul\":9226:9244   */\n      add\n        /* \"#utility.yul\":9218:9244   */\n      swap1\n      pop\n        /* \"#utility.yul\":9290:9299   */\n      dup2\n        /* \"#utility.yul\":9284:9288   */\n      dup2\n        /* \"#utility.yul\":9280:9300   */\n      sub\n        /* \"#utility.yul\":9276:9277   */\n      0x00\n        /* \"#utility.yul\":9265:9274   */\n      dup4\n        /* \"#utility.yul\":9261:9278   */\n      add\n        /* \"#utility.yul\":9254:9301   */\n      mstore\n        /* \"#utility.yul\":9318:9449   */\n      tag_279\n        /* \"#utility.yul\":9444:9448   */\n      dup2\n        /* \"#utility.yul\":9318:9449   */\n      tag_164\n      jump\t// in\n    tag_279:\n        /* \"#utility.yul\":9310:9449   */\n      swap1\n      pop\n        /* \"#utility.yul\":9037:9456   */\n      swap2\n      swap1\n      pop\n      jump\t// out\n        /* \"#utility.yul\":9462:9685   */\n    tag_165:\n        /* \"#utility.yul\":9602:9636   */\n      0x796f75206e6f742061626c6520746f20776974686472617720647572696e6720\n        /* \"#utility.yul\":9598:9599   */\n      0x00\n        /* \"#utility.yul\":9590:9596   */\n      dup3\n        /* \"#utility.yul\":9586:9600   */\n      add\n        /* \"#utility.yul\":9579:9637   */\n      mstore\n        /* \"#utility.yul\":9671:9677   */\n      0x6c6f636b00000000000000000000000000000000000000000000000000000000\n        /* \"#utility.yul\":9666:9668   */\n      0x20\n        /* \"#utility.yul\":9658:9664   */\n      dup3\n        /* \"#utility.yul\":9654:9669   */\n      add\n        /* \"#utility.yul\":9647:9678   */\n      mstore\n        /* \"#utility.yul\":9462:9685   */\n      pop\n      jump\t// out\n        /* \"#utility.yul\":9691:10057   */\n    tag_166:\n        /* \"#utility.yul\":9833:9836   */\n      0x00\n        /* \"#utility.yul\":9854:9921   */\n      tag_282\n        /* \"#utility.yul\":9918:9920   */\n      0x24\n        /* \"#utility.yul\":9913:9916   */\n      dup4\n        /* \"#utility.yul\":9854:9921   */\n      tag_160\n      jump\t// in\n    tag_282:\n        /* \"#utility.yul\":9847:9921   */\n      swap2\n      pop\n        /* \"#utility.yul\":9930:10023   */\n      tag_283\n        /* \"#utility.yul\":10019:10022   */\n      dup3\n        /* \"#utility.yul\":9930:10023   */\n      tag_165\n      jump\t// in\n    tag_283:\n        /* \"#utility.yul\":10048:10050   */\n      0x40\n        /* \"#utility.yul\":10043:10046   */\n      dup3\n        /* \"#utility.yul\":10039:10051   */\n      add\n        /* \"#utility.yul\":10032:10051   */\n      swap1\n      pop\n        /* \"#utility.yul\":9691:10057   */\n      swap2\n      swap1\n      pop\n      jump\t// out\n        /* \"#utility.yul\":10063:10482   */\n    tag_62:\n        /* \"#utility.yul\":10229:10233   */\n      0x00\n        /* \"#utility.yul\":10267:10269   */\n      0x20\n        /* \"#utility.yul\":10256:10265   */\n      dup3\n        /* \"#utility.yul\":10252:10270   */\n      add\n        /* \"#utility.yul\":10244:10270   */\n      swap1\n      pop\n        /* \"#utility.yul\":10316:10325   */\n      dup2\n        /* \"#utility.yul\":10310:10314   */\n      dup2\n        /* \"#utility.yul\":10306:10326   */\n      sub\n        /* \"#utility.yul\":10302:10303   */\n      0x00\n        /* \"#utility.yul\":10291:10300   */\n      dup4\n        /* \"#utility.yul\":10287:10304   */\n      add\n        /* \"#utility.yul\":10280:10327   */\n      mstore\n        /* \"#utility.yul\":10344:10475   */\n      tag_285\n        /* \"#utility.yul\":10470:10474   */\n      dup2\n        /* \"#utility.yul\":10344:10475   */\n      tag_166\n      jump\t// in\n    tag_285:\n        /* \"#utility.yul\":10336:10475   */\n      swap1\n      pop\n        /* \"#utility.yul\":10063:10482   */\n      swap2\n      swap1\n      pop\n      jump\t// out\n        /* \"#utility.yul\":10488:10820   */\n    tag_64:\n        /* \"#utility.yul\":10609:10613   */\n      0x00\n        /* \"#utility.yul\":10647:10649   */\n      0x40\n        /* \"#utility.yul\":10636:10645   */\n      dup3\n        /* \"#utility.yul\":10632:10650   */\n      add\n        /* \"#utility.yul\":10624:10650   */\n      swap1\n      pop\n        /* \"#utility.yul\":10660:10731   */\n      tag_287\n        /* \"#utility.yul\":10728:10729   */\n      0x00\n        /* \"#utility.yul\":10717:10726   */\n      dup4\n        /* \"#utility.yul\":10713:10730   */\n      add\n        /* \"#utility.yul\":10704:10710   */\n      dup6\n        /* \"#utility.yul\":10660:10731   */\n      tag_154\n      jump\t// in\n    tag_287:\n        /* \"#utility.yul\":10741:10813   */\n      tag_288\n        /* \"#utility.yul\":10809:10811   */\n      0x20\n        /* \"#utility.yul\":10798:10807   */\n      dup4\n        /* \"#utility.yul\":10794:10812   */\n      add\n        /* \"#utility.yul\":10785:10791   */\n      dup5\n        /* \"#utility.yul\":10741:10813   */\n      tag_143\n      jump\t// in\n    tag_288:\n        /* \"#utility.yul\":10488:10820   */\n      swap4\n      swap3\n      pop\n      pop\n      pop\n      jump\t// out\n        /* \"#utility.yul\":10826:10942   */\n    tag_167:\n        /* \"#utility.yul\":10896:10917   */\n      tag_290\n        /* \"#utility.yul\":10911:10916   */\n      dup2\n        /* \"#utility.yul\":10896:10917   */\n      tag_148\n      jump\t// in\n    tag_290:\n        /* \"#utility.yul\":10889:10894   */\n      dup2\n        /* \"#utility.yul\":10886:10918   */\n      eq\n        /* \"#utility.yul\":10876:10936   */\n      tag_291\n      jumpi\n        /* \"#utility.yul\":10932:10933   */\n      0x00\n        /* \"#utility.yul\":10929:10930   */\n      dup1\n        /* \"#utility.yul\":10922:10934   */\n      revert\n        /* \"#utility.yul\":10876:10936   */\n    tag_291:\n        /* \"#utility.yul\":10826:10942   */\n      pop\n      jump\t// out\n        /* \"#utility.yul\":10948:11085   */\n    tag_168:\n        /* \"#utility.yul\":11002:11007   */\n      0x00\n        /* \"#utility.yul\":11033:11039   */\n      dup2\n        /* \"#utility.yul\":11027:11040   */\n      mload\n        /* \"#utility.yul\":11018:11040   */\n      swap1\n      pop\n        /* \"#utility.yul\":11049:11079   */\n      tag_293\n        /* \"#utility.yul\":11073:11078   */\n      dup2\n        /* \"#utility.yul\":11049:11079   */\n      tag_167\n      jump\t// in\n    tag_293:\n        /* \"#utility.yul\":10948:11085   */\n      swap3\n      swap2\n      pop\n      pop\n      jump\t// out\n        /* \"#utility.yul\":11091:11436   */\n    tag_68:\n        /* \"#utility.yul\":11158:11164   */\n      0x00\n        /* \"#utility.yul\":11207:11209   */\n      0x20\n        /* \"#utility.yul\":11195:11204   */\n      dup3\n        /* \"#utility.yul\":11186:11193   */\n      dup5\n        /* \"#utility.yul\":11182:11205   */\n      sub\n        /* \"#utility.yul\":11178:11210   */\n      slt\n        /* \"#utility.yul\":11175:11294   */\n      iszero\n      tag_295\n      jumpi\n        /* \"#utility.yul\":11213:11292   */\n      tag_296\n      tag_138\n      jump\t// in\n    tag_296:\n        /* \"#utility.yul\":11175:11294   */\n    tag_295:\n        /* \"#utility.yul\":11333:11334   */\n      0x00\n        /* \"#utility.yul\":11358:11419   */\n      tag_297\n        /* \"#utility.yul\":11411:11418   */\n      dup5\n        /* \"#utility.yul\":11402:11408   */\n      dup3\n        /* \"#utility.yul\":11391:11400   */\n      dup6\n        /* \"#utility.yul\":11387:11409   */\n      add\n        /* \"#utility.yul\":11358:11419   */\n      tag_168\n      jump\t// in\n    tag_297:\n        /* \"#utility.yul\":11348:11419   */\n      swap2\n      pop\n        /* \"#utility.yul\":11304:11429   */\n      pop\n        /* \"#utility.yul\":11091:11436   */\n      swap3\n      swap2\n      pop\n      pop\n      jump\t// out\n        /* \"#utility.yul\":11442:11622   */\n    tag_169:\n        /* \"#utility.yul\":11490:11567   */\n      0x4e487b7100000000000000000000000000000000000000000000000000000000\n        /* \"#utility.yul\":11487:11488   */\n      0x00\n        /* \"#utility.yul\":11480:11568   */\n      mstore\n        /* \"#utility.yul\":11587:11591   */\n      0x11\n        /* \"#utility.yul\":11584:11585   */\n      0x04\n        /* \"#utility.yul\":11577:11592   */\n      mstore\n        /* \"#utility.yul\":11611:11615   */\n      0x24\n        /* \"#utility.yul\":11608:11609   */\n      0x00\n        /* \"#utility.yul\":11601:11616   */\n      revert\n        /* \"#utility.yul\":11628:11819   */\n    tag_70:\n        /* \"#utility.yul\":11668:11671   */\n      0x00\n        /* \"#utility.yul\":11687:11707   */\n      tag_300\n        /* \"#utility.yul\":11705:11706   */\n      dup3\n        /* \"#utility.yul\":11687:11707   */\n      tag_140\n      jump\t// in\n    tag_300:\n        /* \"#utility.yul\":11682:11707   */\n      swap2\n      pop\n        /* \"#utility.yul\":11721:11741   */\n      tag_301\n        /* \"#utility.yul\":11739:11740   */\n      dup4\n        /* \"#utility.yul\":11721:11741   */\n      tag_140\n      jump\t// in\n    tag_301:\n        /* \"#utility.yul\":11716:11741   */\n      swap3\n      pop\n        /* \"#utility.yul\":11764:11765   */\n      dup3\n        /* \"#utility.yul\":11761:11762   */\n      dup3\n        /* \"#utility.yul\":11757:11766   */\n      add\n        /* \"#utility.yul\":11750:11766   */\n      swap1\n      pop\n        /* \"#utility.yul\":11785:11788   */\n      dup1\n        /* \"#utility.yul\":11782:11783   */\n      dup3\n        /* \"#utility.yul\":11779:11789   */\n      gt\n        /* \"#utility.yul\":11776:11812   */\n      iszero\n      tag_302\n      jumpi\n        /* \"#utility.yul\":11792:11810   */\n      tag_303\n      tag_169\n      jump\t// in\n    tag_303:\n        /* \"#utility.yul\":11776:11812   */\n    tag_302:\n        /* \"#utility.yul\":11628:11819   */\n      swap3\n      swap2\n      pop\n      pop\n      jump\t// out\n        /* \"#utility.yul\":11825:12019   */\n    tag_72:\n        /* \"#utility.yul\":11865:11869   */\n      0x00\n        /* \"#utility.yul\":11885:11905   */\n      tag_305\n        /* \"#utility.yul\":11903:11904   */\n      dup3\n        /* \"#utility.yul\":11885:11905   */\n      tag_140\n      jump\t// in\n    tag_305:\n        /* \"#utility.yul\":11880:11905   */\n      swap2\n      pop\n        /* \"#utility.yul\":11919:11939   */\n      tag_306\n        /* \"#utility.yul\":11937:11938   */\n      dup4\n        /* \"#utility.yul\":11919:11939   */\n      tag_140\n      jump\t// in\n    tag_306:\n        /* \"#utility.yul\":11914:11939   */\n      swap3\n      pop\n        /* \"#utility.yul\":11963:11964   */\n      dup3\n        /* \"#utility.yul\":11960:11961   */\n      dup3\n        /* \"#utility.yul\":11956:11965   */\n      sub\n        /* \"#utility.yul\":11948:11965   */\n      swap1\n      pop\n        /* \"#utility.yul\":11987:11988   */\n      dup2\n        /* \"#utility.yul\":11981:11985   */\n      dup2\n        /* \"#utility.yul\":11978:11989   */\n      gt\n        /* \"#utility.yul\":11975:12012   */\n      iszero\n      tag_307\n      jumpi\n        /* \"#utility.yul\":11992:12010   */\n      tag_308\n      tag_169\n      jump\t// in\n    tag_308:\n        /* \"#utility.yul\":11975:12012   */\n    tag_307:\n        /* \"#utility.yul\":11825:12019   */\n      swap3\n      swap2\n      pop\n      pop\n      jump\t// out\n        /* \"#utility.yul\":12025:12357   */\n    tag_75:\n        /* \"#utility.yul\":12146:12150   */\n      0x00\n        /* \"#utility.yul\":12184:12186   */\n      0x40\n        /* \"#utility.yul\":12173:12182   */\n      dup3\n        /* \"#utility.yul\":12169:12187   */\n      add\n        /* \"#utility.yul\":12161:12187   */\n      swap1\n      pop\n        /* \"#utility.yul\":12197:12268   */\n      tag_310\n        /* \"#utility.yul\":12265:12266   */\n      0x00\n        /* \"#utility.yul\":12254:12263   */\n      dup4\n        /* \"#utility.yul\":12250:12267   */\n      add\n        /* \"#utility.yul\":12241:12247   */\n      dup6\n        /* \"#utility.yul\":12197:12268   */\n      tag_143\n      jump\t// in\n    tag_310:\n        /* \"#utility.yul\":12278:12350   */\n      tag_311\n        /* \"#utility.yul\":12346:12348   */\n      0x20\n        /* \"#utility.yul\":12335:12344   */\n      dup4\n        /* \"#utility.yul\":12331:12349   */\n      add\n        /* \"#utility.yul\":12322:12328   */\n      dup5\n        /* \"#utility.yul\":12278:12350   */\n      tag_143\n      jump\t// in\n    tag_311:\n        /* \"#utility.yul\":12025:12357   */\n      swap4\n      swap3\n      pop\n      pop\n      pop\n      jump\t// out\n        /* \"#utility.yul\":12363:12530   */\n    tag_170:\n        /* \"#utility.yul\":12503:12522   */\n      0x76657374696e672074696d65206f766572000000000000000000000000000000\n        /* \"#utility.yul\":12499:12500   */\n      0x00\n        /* \"#utility.yul\":12491:12497   */\n      dup3\n        /* \"#utility.yul\":12487:12501   */\n      add\n        /* \"#utility.yul\":12480:12523   */\n      mstore\n        /* \"#utility.yul\":12363:12530   */\n      pop\n      jump\t// out\n        /* \"#utility.yul\":12536:12902   */\n    tag_171:\n        /* \"#utility.yul\":12678:12681   */\n      0x00\n        /* \"#utility.yul\":12699:12766   */\n      tag_314\n        /* \"#utility.yul\":12763:12765   */\n      0x11\n        /* \"#utility.yul\":12758:12761   */\n      dup4\n        /* \"#utility.yul\":12699:12766   */\n      tag_160\n      jump\t// in\n    tag_314:\n        /* \"#utility.yul\":12692:12766   */\n      swap2\n      pop\n        /* \"#utility.yul\":12775:12868   */\n      tag_315\n        /* \"#utility.yul\":12864:12867   */\n      dup3\n        /* \"#utility.yul\":12775:12868   */\n      tag_170\n      jump\t// in\n    tag_315:\n        /* \"#utility.yul\":12893:12895   */\n      0x20\n        /* \"#utility.yul\":12888:12891   */\n      dup3\n        /* \"#utility.yul\":12884:12896   */\n      add\n        /* \"#utility.yul\":12877:12896   */\n      swap1\n      pop\n        /* \"#utility.yul\":12536:12902   */\n      swap2\n      swap1\n      pop\n      jump\t// out\n        /* \"#utility.yul\":12908:13327   */\n    tag_83:\n        /* \"#utility.yul\":13074:13078   */\n      0x00\n        /* \"#utility.yul\":13112:13114   */\n      0x20\n        /* \"#utility.yul\":13101:13110   */\n      dup3\n        /* \"#utility.yul\":13097:13115   */\n      add\n        /* \"#utility.yul\":13089:13115   */\n      swap1\n      pop\n        /* \"#utility.yul\":13161:13170   */\n      dup2\n        /* \"#utility.yul\":13155:13159   */\n      dup2\n        /* \"#utility.yul\":13151:13171   */\n      sub\n        /* \"#utility.yul\":13147:13148   */\n      0x00\n        /* \"#utility.yul\":13136:13145   */\n      dup4\n        /* \"#utility.yul\":13132:13149   */\n      add\n        /* \"#utility.yul\":13125:13172   */\n      mstore\n        /* \"#utility.yul\":13189:13320   */\n      tag_317\n        /* \"#utility.yul\":13315:13319   */\n      dup2\n        /* \"#utility.yul\":13189:13320   */\n      tag_171\n      jump\t// in\n    tag_317:\n        /* \"#utility.yul\":13181:13320   */\n      swap1\n      pop\n        /* \"#utility.yul\":12908:13327   */\n      swap2\n      swap1\n      pop\n      jump\t// out\n        /* \"#utility.yul\":13333:13513   */\n    tag_172:\n        /* \"#utility.yul\":13381:13458   */\n      0x4e487b7100000000000000000000000000000000000000000000000000000000\n        /* \"#utility.yul\":13378:13379   */\n      0x00\n        /* \"#utility.yul\":13371:13459   */\n      mstore\n        /* \"#utility.yul\":13478:13482   */\n      0x12\n        /* \"#utility.yul\":13475:13476   */\n      0x04\n        /* \"#utility.yul\":13468:13483   */\n      mstore\n        /* \"#utility.yul\":13502:13506   */\n      0x24\n        /* \"#utility.yul\":13499:13500   */\n      0x00\n        /* \"#utility.yul\":13492:13507   */\n      revert\n        /* \"#utility.yul\":13519:13704   */\n    tag_87:\n        /* \"#utility.yul\":13559:13560   */\n      0x00\n        /* \"#utility.yul\":13576:13596   */\n      tag_320\n        /* \"#utility.yul\":13594:13595   */\n      dup3\n        /* \"#utility.yul\":13576:13596   */\n      tag_140\n      jump\t// in\n    tag_320:\n        /* \"#utility.yul\":13571:13596   */\n      swap2\n      pop\n        /* \"#utility.yul\":13610:13630   */\n      tag_321\n        /* \"#utility.yul\":13628:13629   */\n      dup4\n        /* \"#utility.yul\":13610:13630   */\n      tag_140\n      jump\t// in\n    tag_321:\n        /* \"#utility.yul\":13605:13630   */\n      swap3\n      pop\n        /* \"#utility.yul\":13649:13650   */\n      dup3\n        /* \"#utility.yul\":13639:13674   */\n      tag_322\n      jumpi\n        /* \"#utility.yul\":13654:13672   */\n      tag_323\n      tag_172\n      jump\t// in\n    tag_323:\n        /* \"#utility.yul\":13639:13674   */\n    tag_322:\n        /* \"#utility.yul\":13696:13697   */\n      dup3\n        /* \"#utility.yul\":13693:13694   */\n      dup3\n        /* \"#utility.yul\":13689:13698   */\n      div\n        /* \"#utility.yul\":13684:13698   */\n      swap1\n      pop\n        /* \"#utility.yul\":13519:13704   */\n      swap3\n      swap2\n      pop\n      pop\n      jump\t// out\n        /* \"#utility.yul\":13710:14120   */\n    tag_89:\n        /* \"#utility.yul\":13750:13757   */\n      0x00\n        /* \"#utility.yul\":13773:13793   */\n      tag_325\n        /* \"#utility.yul\":13791:13792   */\n      dup3\n        /* \"#utility.yul\":13773:13793   */\n      tag_140\n      jump\t// in\n    tag_325:\n        /* \"#utility.yul\":13768:13793   */\n      swap2\n      pop\n        /* \"#utility.yul\":13807:13827   */\n      tag_326\n        /* \"#utility.yul\":13825:13826   */\n      dup4\n        /* \"#utility.yul\":13807:13827   */\n      tag_140\n      jump\t// in\n    tag_326:\n        /* \"#utility.yul\":13802:13827   */\n      swap3\n      pop\n        /* \"#utility.yul\":13862:13863   */\n      dup3\n        /* \"#utility.yul\":13859:13860   */\n      dup3\n        /* \"#utility.yul\":13855:13864   */\n      mul\n        /* \"#utility.yul\":13884:13914   */\n      tag_327\n        /* \"#utility.yul\":13902:13913   */\n      dup2\n        /* \"#utility.yul\":13884:13914   */\n      tag_140\n      jump\t// in\n    tag_327:\n        /* \"#utility.yul\":13873:13914   */\n      swap2\n      pop\n        /* \"#utility.yul\":14063:14064   */\n      dup3\n        /* \"#utility.yul\":14054:14061   */\n      dup3\n        /* \"#utility.yul\":14050:14065   */\n      div\n        /* \"#utility.yul\":14047:14048   */\n      dup5\n        /* \"#utility.yul\":14044:14066   */\n      eq\n        /* \"#utility.yul\":14024:14025   */\n      dup4\n        /* \"#utility.yul\":14017:14026   */\n      iszero\n        /* \"#utility.yul\":13997:14080   */\n      or\n        /* \"#utility.yul\":13974:14113   */\n      tag_328\n      jumpi\n        /* \"#utility.yul\":14093:14111   */\n      tag_329\n      tag_169\n      jump\t// in\n    tag_329:\n        /* \"#utility.yul\":13974:14113   */\n    tag_328:\n        /* \"#utility.yul\":13758:14120   */\n      pop\n        /* \"#utility.yul\":13710:14120   */\n      swap3\n      swap2\n      pop\n      pop\n      jump\t// out\n        /* \"#utility.yul\":14126:14292   */\n    tag_173:\n        /* \"#utility.yul\":14266:14284   */\n      0x76657374696e6720636f6d706c65746500000000000000000000000000000000\n        /* \"#utility.yul\":14262:14263   */\n      0x00\n        /* \"#utility.yul\":14254:14260   */\n      dup3\n        /* \"#utility.yul\":14250:14264   */\n      add\n        /* \"#utility.yul\":14243:14285   */\n      mstore\n        /* \"#utility.yul\":14126:14292   */\n      pop\n      jump\t// out\n        /* \"#utility.yul\":14298:14664   */\n    tag_174:\n        /* \"#utility.yul\":14440:14443   */\n      0x00\n        /* \"#utility.yul\":14461:14528   */\n      tag_332\n        /* \"#utility.yul\":14525:14527   */\n      0x10\n        /* \"#utility.yul\":14520:14523   */\n      dup4\n        /* \"#utility.yul\":14461:14528   */\n      tag_160\n      jump\t// in\n    tag_332:\n        /* \"#utility.yul\":14454:14528   */\n      swap2\n      pop\n        /* \"#utility.yul\":14537:14630   */\n      tag_333\n        /* \"#utility.yul\":14626:14629   */\n      dup3\n        /* \"#utility.yul\":14537:14630   */\n      tag_173\n      jump\t// in\n    tag_333:\n        /* \"#utility.yul\":14655:14657   */\n      0x20\n        /* \"#utility.yul\":14650:14653   */\n      dup3\n        /* \"#utility.yul\":14646:14658   */\n      add\n        /* \"#utility.yul\":14639:14658   */\n      swap1\n      pop\n        /* \"#utility.yul\":14298:14664   */\n      swap2\n      swap1\n      pop\n      jump\t// out\n        /* \"#utility.yul\":14670:15089   */\n    tag_96:\n        /* \"#utility.yul\":14836:14840   */\n      0x00\n        /* \"#utility.yul\":14874:14876   */\n      0x20\n        /* \"#utility.yul\":14863:14872   */\n      dup3\n        /* \"#utility.yul\":14859:14877   */\n      add\n        /* \"#utility.yul\":14851:14877   */\n      swap1\n      pop\n        /* \"#utility.yul\":14923:14932   */\n      dup2\n        /* \"#utility.yul\":14917:14921   */\n      dup2\n        /* \"#utility.yul\":14913:14933   */\n      sub\n        /* \"#utility.yul\":14909:14910   */\n      0x00\n        /* \"#utility.yul\":14898:14907   */\n      dup4\n        /* \"#utility.yul\":14894:14911   */\n      add\n        /* \"#utility.yul\":14887:14934   */\n      mstore\n        /* \"#utility.yul\":14951:15082   */\n      tag_335\n        /* \"#utility.yul\":15077:15081   */\n      dup2\n        /* \"#utility.yul\":14951:15082   */\n      tag_174\n      jump\t// in\n    tag_335:\n        /* \"#utility.yul\":14943:15082   */\n      swap1\n      pop\n        /* \"#utility.yul\":14670:15089   */\n      swap2\n      swap1\n      pop\n      jump\t// out\n        /* \"#utility.yul\":15095:15262   */\n    tag_175:\n        /* \"#utility.yul\":15235:15254   */\n      0x656e657465722076616c69642074696d65000000000000000000000000000000\n        /* \"#utility.yul\":15231:15232   */\n      0x00\n        /* \"#utility.yul\":15223:15229   */\n      dup3\n        /* \"#utility.yul\":15219:15233   */\n      add\n        /* \"#utility.yul\":15212:15255   */\n      mstore\n        /* \"#utility.yul\":15095:15262   */\n      pop\n      jump\t// out\n        /* \"#utility.yul\":15268:15634   */\n    tag_176:\n        /* \"#utility.yul\":15410:15413   */\n      0x00\n        /* \"#utility.yul\":15431:15498   */\n      tag_338\n        /* \"#utility.yul\":15495:15497   */\n      0x11\n        /* \"#utility.yul\":15490:15493   */\n      dup4\n        /* \"#utility.yul\":15431:15498   */\n      tag_160\n      jump\t// in\n    tag_338:\n        /* \"#utility.yul\":15424:15498   */\n      swap2\n      pop\n        /* \"#utility.yul\":15507:15600   */\n      tag_339\n        /* \"#utility.yul\":15596:15599   */\n      dup3\n        /* \"#utility.yul\":15507:15600   */\n      tag_175\n      jump\t// in\n    tag_339:\n        /* \"#utility.yul\":15625:15627   */\n      0x20\n        /* \"#utility.yul\":15620:15623   */\n      dup3\n        /* \"#utility.yul\":15616:15628   */\n      add\n        /* \"#utility.yul\":15609:15628   */\n      swap1\n      pop\n        /* \"#utility.yul\":15268:15634   */\n      swap2\n      swap1\n      pop\n      jump\t// out\n        /* \"#utility.yul\":15640:16059   */\n    tag_101:\n        /* \"#utility.yul\":15806:15810   */\n      0x00\n        /* \"#utility.yul\":15844:15846   */\n      0x20\n        /* \"#utility.yul\":15833:15842   */\n      dup3\n        /* \"#utility.yul\":15829:15847   */\n      add\n        /* \"#utility.yul\":15821:15847   */\n      swap1\n      pop\n        /* \"#utility.yul\":15893:15902   */\n      dup2\n        /* \"#utility.yul\":15887:15891   */\n      dup2\n        /* \"#utility.yul\":15883:15903   */\n      sub\n        /* \"#utility.yul\":15879:15880   */\n      0x00\n        /* \"#utility.yul\":15868:15877   */\n      dup4\n        /* \"#utility.yul\":15864:15881   */\n      add\n        /* \"#utility.yul\":15857:15904   */\n      mstore\n        /* \"#utility.yul\":15921:16052   */\n      tag_341\n        /* \"#utility.yul\":16047:16051   */\n      dup2\n        /* \"#utility.yul\":15921:16052   */\n      tag_176\n      jump\t// in\n    tag_341:\n        /* \"#utility.yul\":15913:16052   */\n      swap1\n      pop\n        /* \"#utility.yul\":15640:16059   */\n      swap2\n      swap1\n      pop\n      jump\t// out\n        /* \"#utility.yul\":16065:16293   */\n    tag_177:\n        /* \"#utility.yul\":16205:16239   */\n      0x596f7520617265206e6f7420616c6c6f77656420746f20757365207468697320\n        /* \"#utility.yul\":16201:16202   */\n      0x00\n        /* \"#utility.yul\":16193:16199   */\n      dup3\n        /* \"#utility.yul\":16189:16203   */\n      add\n        /* \"#utility.yul\":16182:16240   */\n      mstore\n        /* \"#utility.yul\":16274:16285   */\n      0x636f6e74726163742e0000000000000000000000000000000000000000000000\n        /* \"#utility.yul\":16269:16271   */\n      0x20\n        /* \"#utility.yul\":16261:16267   */\n      dup3\n        /* \"#utility.yul\":16257:16272   */\n      add\n        /* \"#utility.yul\":16250:16286   */\n      mstore\n        /* \"#utility.yul\":16065:16293   */\n      pop\n      jump\t// out\n        /* \"#utility.yul\":16299:16665   */\n    tag_178:\n        /* \"#utility.yul\":16441:16444   */\n      0x00\n        /* \"#utility.yul\":16462:16529   */\n      tag_344\n        /* \"#utility.yul\":16526:16528   */\n      0x29\n        /* \"#utility.yul\":16521:16524   */\n      dup4\n        /* \"#utility.yul\":16462:16529   */\n      tag_160\n      jump\t// in\n    tag_344:\n        /* \"#utility.yul\":16455:16529   */\n      swap2\n      pop\n        /* \"#utility.yul\":16538:16631   */\n      tag_345\n        /* \"#utility.yul\":16627:16630   */\n      dup3\n        /* \"#utility.yul\":16538:16631   */\n      tag_177\n      jump\t// in\n    tag_345:\n        /* \"#utility.yul\":16656:16658   */\n      0x40\n        /* \"#utility.yul\":16651:16654   */\n      dup3\n        /* \"#utility.yul\":16647:16659   */\n      add\n        /* \"#utility.yul\":16640:16659   */\n      swap1\n      pop\n        /* \"#utility.yul\":16299:16665   */\n      swap2\n      swap1\n      pop\n      jump\t// out\n        /* \"#utility.yul\":16671:17090   */\n    tag_104:\n        /* \"#utility.yul\":16837:16841   */\n      0x00\n        /* \"#utility.yul\":16875:16877   */\n      0x20\n        /* \"#utility.yul\":16864:16873   */\n      dup3\n        /* \"#utility.yul\":16860:16878   */\n      add\n        /* \"#utility.yul\":16852:16878   */\n      swap1\n      pop\n        /* \"#utility.yul\":16924:16933   */\n      dup2\n        /* \"#utility.yul\":16918:16922   */\n      dup2\n        /* \"#utility.yul\":16914:16934   */\n      sub\n        /* \"#utility.yul\":16910:16911   */\n      0x00\n        /* \"#utility.yul\":16899:16908   */\n      dup4\n        /* \"#utility.yul\":16895:16912   */\n      add\n        /* \"#utility.yul\":16888:16935   */\n      mstore\n        /* \"#utility.yul\":16952:17083   */\n      tag_347\n        /* \"#utility.yul\":17078:17082   */\n      dup2\n        /* \"#utility.yul\":16952:17083   */\n      tag_178\n      jump\t// in\n    tag_347:\n        /* \"#utility.yul\":16944:17083   */\n      swap1\n      pop\n        /* \"#utility.yul\":16671:17090   */\n      swap2\n      swap1\n      pop\n      jump\t// out\n        /* \"#utility.yul\":17096:17272   */\n    tag_110:\n        /* \"#utility.yul\":17128:17129   */\n      0x00\n        /* \"#utility.yul\":17145:17165   */\n      tag_349\n        /* \"#utility.yul\":17163:17164   */\n      dup3\n        /* \"#utility.yul\":17145:17165   */\n      tag_140\n      jump\t// in\n    tag_349:\n        /* \"#utility.yul\":17140:17165   */\n      swap2\n      pop\n        /* \"#utility.yul\":17179:17199   */\n      tag_350\n        /* \"#utility.yul\":17197:17198   */\n      dup4\n        /* \"#utility.yul\":17179:17199   */\n      tag_140\n      jump\t// in\n    tag_350:\n        /* \"#utility.yul\":17174:17199   */\n      swap3\n      pop\n        /* \"#utility.yul\":17218:17219   */\n      dup3\n        /* \"#utility.yul\":17208:17243   */\n      tag_351\n      jumpi\n        /* \"#utility.yul\":17223:17241   */\n      tag_352\n      tag_172\n      jump\t// in\n    tag_352:\n        /* \"#utility.yul\":17208:17243   */\n    tag_351:\n        /* \"#utility.yul\":17264:17265   */\n      dup3\n        /* \"#utility.yul\":17261:17262   */\n      dup3\n        /* \"#utility.yul\":17257:17266   */\n      mod\n        /* \"#utility.yul\":17252:17266   */\n      swap1\n      pop\n        /* \"#utility.yul\":17096:17272   */\n      swap3\n      swap2\n      pop\n      pop\n      jump\t// out\n        /* \"#utility.yul\":17278:17720   */\n    tag_113:\n        /* \"#utility.yul\":17427:17431   */\n      0x00\n        /* \"#utility.yul\":17465:17467   */\n      0x60\n        /* \"#utility.yul\":17454:17463   */\n      dup3\n        /* \"#utility.yul\":17450:17468   */\n      add\n        /* \"#utility.yul\":17442:17468   */\n      swap1\n      pop\n        /* \"#utility.yul\":17478:17549   */\n      tag_354\n        /* \"#utility.yul\":17546:17547   */\n      0x00\n        /* \"#utility.yul\":17535:17544   */\n      dup4\n        /* \"#utility.yul\":17531:17548   */\n      add\n        /* \"#utility.yul\":17522:17528   */\n      dup7\n        /* \"#utility.yul\":17478:17549   */\n      tag_154\n      jump\t// in\n    tag_354:\n        /* \"#utility.yul\":17559:17631   */\n      tag_355\n        /* \"#utility.yul\":17627:17629   */\n      0x20\n        /* \"#utility.yul\":17616:17625   */\n      dup4\n        /* \"#utility.yul\":17612:17630   */\n      add\n        /* \"#utility.yul\":17603:17609   */\n      dup6\n        /* \"#utility.yul\":17559:17631   */\n      tag_154\n      jump\t// in\n    tag_355:\n        /* \"#utility.yul\":17641:17713   */\n      tag_356\n        /* \"#utility.yul\":17709:17711   */\n      0x40\n        /* \"#utility.yul\":17698:17707   */\n      dup4\n        /* \"#utility.yul\":17694:17712   */\n      add\n        /* \"#utility.yul\":17685:17691   */\n      dup5\n        /* \"#utility.yul\":17641:17713   */\n      tag_143\n      jump\t// in\n    tag_356:\n        /* \"#utility.yul\":17278:17720   */\n      swap5\n      swap4\n      pop\n      pop\n      pop\n      pop\n      jump\t// out\n        /* \"#utility.yul\":17726:18374   */\n    tag_118:\n        /* \"#utility.yul\":17923:17927   */\n      0x00\n        /* \"#utility.yul\":17961:17964   */\n      0xa0\n        /* \"#utility.yul\":17950:17959   */\n      dup3\n        /* \"#utility.yul\":17946:17965   */\n      add\n        /* \"#utility.yul\":17938:17965   */\n      swap1\n      pop\n        /* \"#utility.yul\":17975:18046   */\n      tag_358\n        /* \"#utility.yul\":18043:18044   */\n      0x00\n        /* \"#utility.yul\":18032:18041   */\n      dup4\n        /* \"#utility.yul\":18028:18045   */\n      add\n        /* \"#utility.yul\":18019:18025   */\n      dup9\n        /* \"#utility.yul\":17975:18046   */\n      tag_143\n      jump\t// in\n    tag_358:\n        /* \"#utility.yul\":18056:18128   */\n      tag_359\n        /* \"#utility.yul\":18124:18126   */\n      0x20\n        /* \"#utility.yul\":18113:18122   */\n      dup4\n        /* \"#utility.yul\":18109:18127   */\n      add\n        /* \"#utility.yul\":18100:18106   */\n      dup8\n        /* \"#utility.yul\":18056:18128   */\n      tag_143\n      jump\t// in\n    tag_359:\n        /* \"#utility.yul\":18138:18206   */\n      tag_360\n        /* \"#utility.yul\":18202:18204   */\n      0x40\n        /* \"#utility.yul\":18191:18200   */\n      dup4\n        /* \"#utility.yul\":18187:18205   */\n      add\n        /* \"#utility.yul\":18178:18184   */\n      dup7\n        /* \"#utility.yul\":18138:18206   */\n      tag_153\n      jump\t// in\n    tag_360:\n        /* \"#utility.yul\":18216:18288   */\n      tag_361\n        /* \"#utility.yul\":18284:18286   */\n      0x60\n        /* \"#utility.yul\":18273:18282   */\n      dup4\n        /* \"#utility.yul\":18269:18287   */\n      add\n        /* \"#utility.yul\":18260:18266   */\n      dup6\n        /* \"#utility.yul\":18216:18288   */\n      tag_143\n      jump\t// in\n    tag_361:\n        /* \"#utility.yul\":18298:18367   */\n      tag_362\n        /* \"#utility.yul\":18362:18365   */\n      0x80\n        /* \"#utility.yul\":18351:18360   */\n      dup4\n        /* \"#utility.yul\":18347:18366   */\n      add\n        /* \"#utility.yul\":18338:18344   */\n      dup5\n        /* \"#utility.yul\":18298:18367   */\n      tag_153\n      jump\t// in\n    tag_362:\n        /* \"#utility.yul\":17726:18374   */\n      swap7\n      swap6\n      pop\n      pop\n      pop\n      pop\n      pop\n      pop\n      jump\t// out\n        /* \"#utility.yul\":18380:18613   */\n    tag_179:\n        /* \"#utility.yul\":18520:18554   */\n      0x4f6e6c792074686520636f6e7472616374206f776e65722063616e2063616c6c\n        /* \"#utility.yul\":18516:18517   */\n      0x00\n        /* \"#utility.yul\":18508:18514   */\n      dup3\n        /* \"#utility.yul\":18504:18518   */\n      add\n        /* \"#utility.yul\":18497:18555   */\n      mstore\n        /* \"#utility.yul\":18589:18605   */\n      0x20746869732066756e6374696f6e000000000000000000000000000000000000\n        /* \"#utility.yul\":18584:18586   */\n      0x20\n        /* \"#utility.yul\":18576:18582   */\n      dup3\n        /* \"#utility.yul\":18572:18587   */\n      add\n        /* \"#utility.yul\":18565:18606   */\n      mstore\n        /* \"#utility.yul\":18380:18613   */\n      pop\n      jump\t// out\n        /* \"#utility.yul\":18619:18985   */\n    tag_180:\n        /* \"#utility.yul\":18761:18764   */\n      0x00\n        /* \"#utility.yul\":18782:18849   */\n      tag_365\n        /* \"#utility.yul\":18846:18848   */\n      0x2e\n        /* \"#utility.yul\":18841:18844   */\n      dup4\n        /* \"#utility.yul\":18782:18849   */\n      tag_160\n      jump\t// in\n    tag_365:\n        /* \"#utility.yul\":18775:18849   */\n      swap2\n      pop\n        /* \"#utility.yul\":18858:18951   */\n      tag_366\n        /* \"#utility.yul\":18947:18950   */\n      dup3\n        /* \"#utility.yul\":18858:18951   */\n      tag_179\n      jump\t// in\n    tag_366:\n        /* \"#utility.yul\":18976:18978   */\n      0x40\n        /* \"#utility.yul\":18971:18974   */\n      dup3\n        /* \"#utility.yul\":18967:18979   */\n      add\n        /* \"#utility.yul\":18960:18979   */\n      swap1\n      pop\n        /* \"#utility.yul\":18619:18985   */\n      swap2\n      swap1\n      pop\n      jump\t// out\n        /* \"#utility.yul\":18991:19410   */\n    tag_124:\n        /* \"#utility.yul\":19157:19161   */\n      0x00\n        /* \"#utility.yul\":19195:19197   */\n      0x20\n        /* \"#utility.yul\":19184:19193   */\n      dup3\n        /* \"#utility.yul\":19180:19198   */\n      add\n        /* \"#utility.yul\":19172:19198   */\n      swap1\n      pop\n        /* \"#utility.yul\":19244:19253   */\n      dup2\n        /* \"#utility.yul\":19238:19242   */\n      dup2\n        /* \"#utility.yul\":19234:19254   */\n      sub\n        /* \"#utility.yul\":19230:19231   */\n      0x00\n        /* \"#utility.yul\":19219:19228   */\n      dup4\n        /* \"#utility.yul\":19215:19232   */\n      add\n        /* \"#utility.yul\":19208:19255   */\n      mstore\n        /* \"#utility.yul\":19272:19403   */\n      tag_368\n        /* \"#utility.yul\":19398:19402   */\n      dup2\n        /* \"#utility.yul\":19272:19403   */\n      tag_180\n      jump\t// in\n    tag_368:\n        /* \"#utility.yul\":19264:19403   */\n      swap1\n      pop\n        /* \"#utility.yul\":18991:19410   */\n      swap2\n      swap1\n      pop\n      jump\t// out\n\n    auxdata: 0xa2646970667358221220d30f124331cf6727a4484646fc3702dffccac43c76fdd055be586ded0cc0d74164736f6c63430008120033\n}\n",
				"bytecode": {
					"linkReferences": {},
					"object": "60806040523480156200001157600080fd5b506040516200199a3803806200199a833981810160405281019062000037919062000129565b806000806101000a81548173ffffffffffffffffffffffffffffffffffffffff021916908373ffffffffffffffffffffffffffffffffffffffff16021790555033600160006101000a81548173ffffffffffffffffffffffffffffffffffffffff021916908373ffffffffffffffffffffffffffffffffffffffff160217905550506200015b565b600080fd5b600073ffffffffffffffffffffffffffffffffffffffff82169050919050565b6000620000f182620000c4565b9050919050565b6200010381620000e4565b81146200010f57600080fd5b50565b6000815190506200012381620000f8565b92915050565b600060208284031215620001425762000141620000bf565b5b6000620001528482850162000112565b91505092915050565b61182f806200016b6000396000f3fe608060405234801561001057600080fd5b50600436106100885760003560e01c8063aa9d691d1161005b578063aa9d691d14610127578063bd84477d14610143578063f80f5dd51461017e578063fc0c546a1461019a57610088565b80632e1a7d4d1461008d578063557ed1ba146100a95780635952ffd1146100c75780639b19251a146100f7575b600080fd5b6100a760048036038101906100a29190610db2565b6101b8565b005b6100b1610474565b6040516100be9190610dee565b60405180910390f35b6100e160048036038101906100dc9190610db2565b61047c565b6040516100ee9190610dee565b60405180910390f35b610111600480360381019061010c9190610e67565b6105f9565b60405161011e9190610eaf565b60405180910390f35b610141600480360381019061013c9190610f03565b610619565b005b61015d60048036038101906101589190610f90565b610a26565b6040516101759c9b9a99989796959493929190610fee565b60405180910390f35b61019860048036038101906101939190610e67565b610af7565b005b6101a2610be2565b6040516101af9190611107565b60405180910390f35b6000600260003373ffffffffffffffffffffffffffffffffffffffff1673ffffffffffffffffffffffffffffffffffffffff168152602001908152602001600020828154811061020b5761020a611122565b5b906000526020600020906009020190508060030160009054906101000a900460ff1661026c576040517f08c379a0000000000000000000000000000000000000000000000000000000008152600401610263906111ae565b60405180910390fd5b8060010154610279610474565b116102b9576040517f08c379a00000000000000000000000000000000000000000000000000000000081526004016102b090611240565b60405180910390fd5b6102c28261047c565b81600601819055506000816006015411610311576040517f08c379a0000000000000000000000000000000000000000000000000000000008152600401610308906112d2565b60405180910390fd5b60008054906101000a900473ffffffffffffffffffffffffffffffffffffffff1673ffffffffffffffffffffffffffffffffffffffff1663a9059cbb3383600601546040518363ffffffff1660e01b81526004016103709291906112f2565b6020604051808303816000875af115801561038f573d6000803e3d6000fd5b505050506040513d601f19601f820116820180604052508101906103b39190611347565b5080600601548160070160008282546103cc91906113a3565b9250508190555080600601548160000160008282546103eb91906113d7565b92505081905550600081600001540361041c5760008160030160006101000a81548160ff0219169083151502179055505b3373ffffffffffffffffffffffffffffffffffffffff167fccdb21e8b29fbf756f29d5f05c72606ca9e8160ec1a135ca6f50dae471188cec83836006015460405161046892919061140b565b60405180910390a25050565b600042905090565b600080600260003373ffffffffffffffffffffffffffffffffffffffff1673ffffffffffffffffffffffffffffffffffffffff16815260200190815260200160002083815481106104d0576104cf611122565b5b906000526020600020906009020190506000816000015411610527576040517f08c379a000000000000000000000000000000000000000000000000000000000815260040161051e90611480565b60405180910390fd5b60008160030160029054906101000a900460ff1660ff16826001015461054b610474565b61055591906113d7565b61055f91906114cf565b9050600082600701548360040154836105789190611500565b61058291906113d7565b905082600801548360000154116105a65761059c85610c06565b93505050506105f4565b82600001548111156105ed576040517f08c379a00000000000000000000000000000000000000000000000000000000081526004016105e49061158e565b60405180910390fd5b8093505050505b919050565b60036020528060005260406000206000915054906101000a900460ff1681565b610621610474565b8311610662576040517f08c379a0000000000000000000000000000000000000000000000000000000008152600401610659906115fa565b60405180910390fd5b600360003373ffffffffffffffffffffffffffffffffffffffff1673ffffffffffffffffffffffffffffffffffffffff16815260200190815260200160002060009054906101000a900460ff166106ee576040517f08c379a00000000000000000000000000000000000000000000000000000000081526004016106e59061168c565b60405180910390fd5b60006040518061018001604052808881526020018460ff168661071191906113a3565b81526020018781526020016001151581526020016000151581526020018660ff1681526020018460ff16815260200187898860ff166107509190611500565b61075a91906114cf565b81526020018373ffffffffffffffffffffffffffffffffffffffff16815260200160008152602001600081526020018660ff168861079891906114cf565b896107a391906116ac565b8152509050600260003373ffffffffffffffffffffffffffffffffffffffff1673ffffffffffffffffffffffffffffffffffffffff16815260200190815260200160002081908060018154018082558091505060019003906000526020600020906009020160009091909190915060008201518160000155602082015181600101556040820151816002015560608201518160030160006101000a81548160ff02191690831515021790555060808201518160030160016101000a81548160ff02191690831515021790555060a08201518160030160026101000a81548160ff021916908360ff16021790555060c08201518160030160036101000a81548160ff021916908360ff16021790555060e082015181600401556101008201518160050160006101000a81548173ffffffffffffffffffffffffffffffffffffffff021916908373ffffffffffffffffffffffffffffffffffffffff160217905550610120820151816006015561014082015181600701556101608201518160080155505060008054906101000a900473ffffffffffffffffffffffffffffffffffffffff1673ffffffffffffffffffffffffffffffffffffffff166323b872dd33308a6040518463ffffffff1660e01b8152600401610983939291906116dd565b6020604051808303816000875af11580156109a2573d6000803e3d6000fd5b505050506040513d601f19601f820116820180604052508101906109c69190611347565b503373ffffffffffffffffffffffffffffffffffffffff167fb2e88791d817c746d5e5fe14d588911bb8e67f1fe02d38cf2ed5c01d9ac07a078888888888604051610a15959493929190611714565b60405180910390a250505050505050565b60026020528160005260406000208181548110610a4257600080fd5b9060005260206000209060090201600091509150508060000154908060010154908060020154908060030160009054906101000a900460ff16908060030160019054906101000a900460ff16908060030160029054906101000a900460ff16908060030160039054906101000a900460ff16908060040154908060050160009054906101000a900473ffffffffffffffffffffffffffffffffffffffff1690806006015490806007015490806008015490508c565b600160009054906101000a900473ffffffffffffffffffffffffffffffffffffffff1673ffffffffffffffffffffffffffffffffffffffff163373ffffffffffffffffffffffffffffffffffffffff1614610b87576040517f08c379a0000000000000000000000000000000000000000000000000000000008152600401610b7e906117d9565b60405180910390fd5b6001600360008373ffffffffffffffffffffffffffffffffffffffff1673ffffffffffffffffffffffffffffffffffffffff16815260200190815260200160002060006101000a81548160ff02191690831515021790555050565b60008054906101000a900473ffffffffffffffffffffffffffffffffffffffff1681565b600080600260003373ffffffffffffffffffffffffffffffffffffffff1673ffffffffffffffffffffffffffffffffffffffff1681526020019081526020016000208381548110610c5a57610c59611122565b5b9060005260206000209060090201905060008160030160029054906101000a900460ff1660ff168260020154610c9091906114cf565b8260000154610c9f91906116ac565b905060008054906101000a900473ffffffffffffffffffffffffffffffffffffffff1673ffffffffffffffffffffffffffffffffffffffff1663a9059cbb3384600801546040518363ffffffff1660e01b8152600401610d009291906112f2565b6020604051808303816000875af1158015610d1f573d6000803e3d6000fd5b505050506040513d601f19601f82011682018060405250810190610d439190611347565b508160000154826007016000828254610d5c91906113a3565b92505081905550600082600001819055508092505050919050565b600080fd5b6000819050919050565b610d8f81610d7c565b8114610d9a57600080fd5b50565b600081359050610dac81610d86565b92915050565b600060208284031215610dc857610dc7610d77565b5b6000610dd684828501610d9d565b91505092915050565b610de881610d7c565b82525050565b6000602082019050610e036000830184610ddf565b92915050565b600073ffffffffffffffffffffffffffffffffffffffff82169050919050565b6000610e3482610e09565b9050919050565b610e4481610e29565b8114610e4f57600080fd5b50565b600081359050610e6181610e3b565b92915050565b600060208284031215610e7d57610e7c610d77565b5b6000610e8b84828501610e52565b91505092915050565b60008115159050919050565b610ea981610e94565b82525050565b6000602082019050610ec46000830184610ea0565b92915050565b600060ff82169050919050565b610ee081610eca565b8114610eeb57600080fd5b50565b600081359050610efd81610ed7565b92915050565b60008060008060008060c08789031215610f2057610f1f610d77565b5b6000610f2e89828a01610d9d565b9650506020610f3f89828a01610d9d565b9550506040610f5089828a01610eee565b9450506060610f6189828a01610d9d565b9350506080610f7289828a01610eee565b92505060a0610f8389828a01610e52565b9150509295509295509295565b60008060408385031215610fa757610fa6610d77565b5b6000610fb585828601610e52565b9250506020610fc685828601610d9d565b9150509250929050565b610fd981610eca565b82525050565b610fe881610e29565b82525050565b600061018082019050611004600083018f610ddf565b611011602083018e610ddf565b61101e604083018d610ddf565b61102b606083018c610ea0565b611038608083018b610ea0565b61104560a083018a610fd0565b61105260c0830189610fd0565b61105f60e0830188610ddf565b61106d610100830187610fdf565b61107b610120830186610ddf565b611089610140830185610ddf565b611097610160830184610ddf565b9d9c50505050505050505050505050565b6000819050919050565b60006110cd6110c86110c384610e09565b6110a8565b610e09565b9050919050565b60006110df826110b2565b9050919050565b60006110f1826110d4565b9050919050565b611101816110e6565b82525050565b600060208201905061111c60008301846110f8565b92915050565b7f4e487b7100000000000000000000000000000000000000000000000000000000600052603260045260246000fd5b600082825260208201905092915050565b7f46756e64732068617665206e6f74206265656e206c6f636b6564000000000000600082015250565b6000611198601a83611151565b91506111a382611162565b602082019050919050565b600060208201905081810360008301526111c78161118b565b9050919050565b7f546f6b656e20756e646572206c6f636b696e6720706c6561736520776169742e60008201527f2e00000000000000000000000000000000000000000000000000000000000000602082015250565b600061122a602183611151565b9150611235826111ce565b604082019050919050565b600060208201905081810360008301526112598161121d565b9050919050565b7f796f75206e6f742061626c6520746f20776974686472617720647572696e672060008201527f6c6f636b00000000000000000000000000000000000000000000000000000000602082015250565b60006112bc602483611151565b91506112c782611260565b604082019050919050565b600060208201905081810360008301526112eb816112af565b9050919050565b60006040820190506113076000830185610fdf565b6113146020830184610ddf565b9392505050565b61132481610e94565b811461132f57600080fd5b50565b6000815190506113418161131b565b92915050565b60006020828403121561135d5761135c610d77565b5b600061136b84828501611332565b91505092915050565b7f4e487b7100000000000000000000000000000000000000000000000000000000600052601160045260246000fd5b60006113ae82610d7c565b91506113b983610d7c565b92508282019050808211156113d1576113d0611374565b5b92915050565b60006113e282610d7c565b91506113ed83610d7c565b925082820390508181111561140557611404611374565b5b92915050565b60006040820190506114206000830185610ddf565b61142d6020830184610ddf565b9392505050565b7f76657374696e672074696d65206f766572000000000000000000000000000000600082015250565b600061146a601183611151565b915061147582611434565b602082019050919050565b600060208201905081810360008301526114998161145d565b9050919050565b7f4e487b7100000000000000000000000000000000000000000000000000000000600052601260045260246000fd5b60006114da82610d7c565b91506114e583610d7c565b9250826114f5576114f46114a0565b5b828204905092915050565b600061150b82610d7c565b915061151683610d7c565b925082820261152481610d7c565b9150828204841483151761153b5761153a611374565b5b5092915050565b7f76657374696e6720636f6d706c65746500000000000000000000000000000000600082015250565b6000611578601083611151565b915061158382611542565b602082019050919050565b600060208201905081810360008301526115a78161156b565b9050919050565b7f656e657465722076616c69642074696d65000000000000000000000000000000600082015250565b60006115e4601183611151565b91506115ef826115ae565b602082019050919050565b60006020820190508181036000830152611613816115d7565b9050919050565b7f596f7520617265206e6f7420616c6c6f77656420746f2075736520746869732060008201527f636f6e74726163742e0000000000000000000000000000000000000000000000602082015250565b6000611676602983611151565b91506116818261161a565b604082019050919050565b600060208201905081810360008301526116a581611669565b9050919050565b60006116b782610d7c565b91506116c283610d7c565b9250826116d2576116d16114a0565b5b828206905092915050565b60006060820190506116f26000830186610fdf565b6116ff6020830185610fdf565b61170c6040830184610ddf565b949350505050565b600060a0820190506117296000830188610ddf565b6117366020830187610ddf565b6117436040830186610fd0565b6117506060830185610ddf565b61175d6080830184610fd0565b9695505050505050565b7f4f6e6c792074686520636f6e7472616374206f776e65722063616e2063616c6c60008201527f20746869732066756e6374696f6e000000000000000000000000000000000000602082015250565b60006117c3602e83611151565b91506117ce82611767565b604082019050919050565b600060208201905081810360008301526117f2816117b6565b905091905056fea2646970667358221220d30f124331cf6727a4484646fc3702dffccac43c76fdd055be586ded0cc0d74164736f6c63430008120033",
					"opcodes": "PUSH1 0x80 PUSH1 0x40 MSTORE CALLVALUE DUP1 ISZERO PUSH3 0x11 JUMPI PUSH1 0x0 DUP1 REVERT JUMPDEST POP PUSH1 0x40 MLOAD PUSH3 0x199A CODESIZE SUB DUP1 PUSH3 0x199A DUP4 CODECOPY DUP2 DUP2 ADD PUSH1 0x40 MSTORE DUP2 ADD SWAP1 PUSH3 0x37 SWAP2 SWAP1 PUSH3 0x129 JUMP JUMPDEST DUP1 PUSH1 0x0 DUP1 PUSH2 0x100 EXP DUP2 SLOAD DUP2 PUSH20 0xFFFFFFFFFFFFFFFFFFFFFFFFFFFFFFFFFFFFFFFF MUL NOT AND SWAP1 DUP4 PUSH20 0xFFFFFFFFFFFFFFFFFFFFFFFFFFFFFFFFFFFFFFFF AND MUL OR SWAP1 SSTORE POP CALLER PUSH1 0x1 PUSH1 0x0 PUSH2 0x100 EXP DUP2 SLOAD DUP2 PUSH20 0xFFFFFFFFFFFFFFFFFFFFFFFFFFFFFFFFFFFFFFFF MUL NOT AND SWAP1 DUP4 PUSH20 0xFFFFFFFFFFFFFFFFFFFFFFFFFFFFFFFFFFFFFFFF AND MUL OR SWAP1 SSTORE POP POP PUSH3 0x15B JUMP JUMPDEST PUSH1 0x0 DUP1 REVERT JUMPDEST PUSH1 0x0 PUSH20 0xFFFFFFFFFFFFFFFFFFFFFFFFFFFFFFFFFFFFFFFF DUP3 AND SWAP1 POP SWAP2 SWAP1 POP JUMP JUMPDEST PUSH1 0x0 PUSH3 0xF1 DUP3 PUSH3 0xC4 JUMP JUMPDEST SWAP1 POP SWAP2 SWAP1 POP JUMP JUMPDEST PUSH3 0x103 DUP2 PUSH3 0xE4 JUMP JUMPDEST DUP2 EQ PUSH3 0x10F JUMPI PUSH1 0x0 DUP1 REVERT JUMPDEST POP JUMP JUMPDEST PUSH1 0x0 DUP2 MLOAD SWAP1 POP PUSH3 0x123 DUP2 PUSH3 0xF8 JUMP JUMPDEST SWAP3 SWAP2 POP POP JUMP JUMPDEST PUSH1 0x0 PUSH1 0x20 DUP3 DUP5 SUB SLT ISZERO PUSH3 0x142 JUMPI PUSH3 0x141 PUSH3 0xBF JUMP JUMPDEST JUMPDEST PUSH1 0x0 PUSH3 0x152 DUP5 DUP3 DUP6 ADD PUSH3 0x112 JUMP JUMPDEST SWAP2 POP POP SWAP3 SWAP2 POP POP JUMP JUMPDEST PUSH2 0x182F DUP1 PUSH3 0x16B PUSH1 0x0 CODECOPY PUSH1 0x0 RETURN INVALID PUSH1 0x80 PUSH1 0x40 MSTORE CALLVALUE DUP1 ISZERO PUSH2 0x10 JUMPI PUSH1 0x0 DUP1 REVERT JUMPDEST POP PUSH1 0x4 CALLDATASIZE LT PUSH2 0x88 JUMPI PUSH1 0x0 CALLDATALOAD PUSH1 0xE0 SHR DUP1 PUSH4 0xAA9D691D GT PUSH2 0x5B JUMPI DUP1 PUSH4 0xAA9D691D EQ PUSH2 0x127 JUMPI DUP1 PUSH4 0xBD84477D EQ PUSH2 0x143 JUMPI DUP1 PUSH4 0xF80F5DD5 EQ PUSH2 0x17E JUMPI DUP1 PUSH4 0xFC0C546A EQ PUSH2 0x19A JUMPI PUSH2 0x88 JUMP JUMPDEST DUP1 PUSH4 0x2E1A7D4D EQ PUSH2 0x8D JUMPI DUP1 PUSH4 0x557ED1BA EQ PUSH2 0xA9 JUMPI DUP1 PUSH4 0x5952FFD1 EQ PUSH2 0xC7 JUMPI DUP1 PUSH4 0x9B19251A EQ PUSH2 0xF7 JUMPI JUMPDEST PUSH1 0x0 DUP1 REVERT JUMPDEST PUSH2 0xA7 PUSH1 0x4 DUP1 CALLDATASIZE SUB DUP2 ADD SWAP1 PUSH2 0xA2 SWAP2 SWAP1 PUSH2 0xDB2 JUMP JUMPDEST PUSH2 0x1B8 JUMP JUMPDEST STOP JUMPDEST PUSH2 0xB1 PUSH2 0x474 JUMP JUMPDEST PUSH1 0x40 MLOAD PUSH2 0xBE SWAP2 SWAP1 PUSH2 0xDEE JUMP JUMPDEST PUSH1 0x40 MLOAD DUP1 SWAP2 SUB SWAP1 RETURN JUMPDEST PUSH2 0xE1 PUSH1 0x4 DUP1 CALLDATASIZE SUB DUP2 ADD SWAP1 PUSH2 0xDC SWAP2 SWAP1 PUSH2 0xDB2 JUMP JUMPDEST PUSH2 0x47C JUMP JUMPDEST PUSH1 0x40 MLOAD PUSH2 0xEE SWAP2 SWAP1 PUSH2 0xDEE JUMP JUMPDEST PUSH1 0x40 MLOAD DUP1 SWAP2 SUB SWAP1 RETURN JUMPDEST PUSH2 0x111 PUSH1 0x4 DUP1 CALLDATASIZE SUB DUP2 ADD SWAP1 PUSH2 0x10C SWAP2 SWAP1 PUSH2 0xE67 JUMP JUMPDEST PUSH2 0x5F9 JUMP JUMPDEST PUSH1 0x40 MLOAD PUSH2 0x11E SWAP2 SWAP1 PUSH2 0xEAF JUMP JUMPDEST PUSH1 0x40 MLOAD DUP1 SWAP2 SUB SWAP1 RETURN JUMPDEST PUSH2 0x141 PUSH1 0x4 DUP1 CALLDATASIZE SUB DUP2 ADD SWAP1 PUSH2 0x13C SWAP2 SWAP1 PUSH2 0xF03 JUMP JUMPDEST PUSH2 0x619 JUMP JUMPDEST STOP JUMPDEST PUSH2 0x15D PUSH1 0x4 DUP1 CALLDATASIZE SUB DUP2 ADD SWAP1 PUSH2 0x158 SWAP2 SWAP1 PUSH2 0xF90 JUMP JUMPDEST PUSH2 0xA26 JUMP JUMPDEST PUSH1 0x40 MLOAD PUSH2 0x175 SWAP13 SWAP12 SWAP11 SWAP10 SWAP9 SWAP8 SWAP7 SWAP6 SWAP5 SWAP4 SWAP3 SWAP2 SWAP1 PUSH2 0xFEE JUMP JUMPDEST PUSH1 0x40 MLOAD DUP1 SWAP2 SUB SWAP1 RETURN JUMPDEST PUSH2 0x198 PUSH1 0x4 DUP1 CALLDATASIZE SUB DUP2 ADD SWAP1 PUSH2 0x193 SWAP2 SWAP1 PUSH2 0xE67 JUMP JUMPDEST PUSH2 0xAF7 JUMP JUMPDEST STOP JUMPDEST PUSH2 0x1A2 PUSH2 0xBE2 JUMP JUMPDEST PUSH1 0x40 MLOAD PUSH2 0x1AF SWAP2 SWAP1 PUSH2 0x1107 JUMP JUMPDEST PUSH1 0x40 MLOAD DUP1 SWAP2 SUB SWAP1 RETURN JUMPDEST PUSH1 0x0 PUSH1 0x2 PUSH1 0x0 CALLER PUSH20 0xFFFFFFFFFFFFFFFFFFFFFFFFFFFFFFFFFFFFFFFF AND PUSH20 0xFFFFFFFFFFFFFFFFFFFFFFFFFFFFFFFFFFFFFFFF AND DUP2 MSTORE PUSH1 0x20 ADD SWAP1 DUP2 MSTORE PUSH1 0x20 ADD PUSH1 0x0 KECCAK256 DUP3 DUP2 SLOAD DUP2 LT PUSH2 0x20B JUMPI PUSH2 0x20A PUSH2 0x1122 JUMP JUMPDEST JUMPDEST SWAP1 PUSH1 0x0 MSTORE PUSH1 0x20 PUSH1 0x0 KECCAK256 SWAP1 PUSH1 0x9 MUL ADD SWAP1 POP DUP1 PUSH1 0x3 ADD PUSH1 0x0 SWAP1 SLOAD SWAP1 PUSH2 0x100 EXP SWAP1 DIV PUSH1 0xFF AND PUSH2 0x26C JUMPI PUSH1 0x40 MLOAD PUSH32 0x8C379A000000000000000000000000000000000000000000000000000000000 DUP2 MSTORE PUSH1 0x4 ADD PUSH2 0x263 SWAP1 PUSH2 0x11AE JUMP JUMPDEST PUSH1 0x40 MLOAD DUP1 SWAP2 SUB SWAP1 REVERT JUMPDEST DUP1 PUSH1 0x1 ADD SLOAD PUSH2 0x279 PUSH2 0x474 JUMP JUMPDEST GT PUSH2 0x2B9 JUMPI PUSH1 0x40 MLOAD PUSH32 0x8C379A000000000000000000000000000000000000000000000000000000000 DUP2 MSTORE PUSH1 0x4 ADD PUSH2 0x2B0 SWAP1 PUSH2 0x1240 JUMP JUMPDEST PUSH1 0x40 MLOAD DUP1 SWAP2 SUB SWAP1 REVERT JUMPDEST PUSH2 0x2C2 DUP3 PUSH2 0x47C JUMP JUMPDEST DUP2 PUSH1 0x6 ADD DUP2 SWAP1 SSTORE POP PUSH1 0x0 DUP2 PUSH1 0x6 ADD SLOAD GT PUSH2 0x311 JUMPI PUSH1 0x40 MLOAD PUSH32 0x8C379A000000000000000000000000000000000000000000000000000000000 DUP2 MSTORE PUSH1 0x4 ADD PUSH2 0x308 SWAP1 PUSH2 0x12D2 JUMP JUMPDEST PUSH1 0x40 MLOAD DUP1 SWAP2 SUB SWAP1 REVERT JUMPDEST PUSH1 0x0 DUP1 SLOAD SWAP1 PUSH2 0x100 EXP SWAP1 DIV PUSH20 0xFFFFFFFFFFFFFFFFFFFFFFFFFFFFFFFFFFFFFFFF AND PUSH20 0xFFFFFFFFFFFFFFFFFFFFFFFFFFFFFFFFFFFFFFFF AND PUSH4 0xA9059CBB CALLER DUP4 PUSH1 0x6 ADD SLOAD PUSH1 0x40 MLOAD DUP4 PUSH4 0xFFFFFFFF AND PUSH1 0xE0 SHL DUP2 MSTORE PUSH1 0x4 ADD PUSH2 0x370 SWAP3 SWAP2 SWAP1 PUSH2 0x12F2 JUMP JUMPDEST PUSH1 0x20 PUSH1 0x40 MLOAD DUP1 DUP4 SUB DUP2 PUSH1 0x0 DUP8 GAS CALL ISZERO DUP1 ISZERO PUSH2 0x38F JUMPI RETURNDATASIZE PUSH1 0x0 DUP1 RETURNDATACOPY RETURNDATASIZE PUSH1 0x0 REVERT JUMPDEST POP POP POP POP PUSH1 0x40 MLOAD RETURNDATASIZE PUSH1 0x1F NOT PUSH1 0x1F DUP3 ADD AND DUP3 ADD DUP1 PUSH1 0x40 MSTORE POP DUP2 ADD SWAP1 PUSH2 0x3B3 SWAP2 SWAP1 PUSH2 0x1347 JUMP JUMPDEST POP DUP1 PUSH1 0x6 ADD SLOAD DUP2 PUSH1 0x7 ADD PUSH1 0x0 DUP3 DUP3 SLOAD PUSH2 0x3CC SWAP2 SWAP1 PUSH2 0x13A3 JUMP JUMPDEST SWAP3 POP POP DUP2 SWAP1 SSTORE POP DUP1 PUSH1 0x6 ADD SLOAD DUP2 PUSH1 0x0 ADD PUSH1 0x0 DUP3 DUP3 SLOAD PUSH2 0x3EB SWAP2 SWAP1 PUSH2 0x13D7 JUMP JUMPDEST SWAP3 POP POP DUP2 SWAP1 SSTORE POP PUSH1 0x0 DUP2 PUSH1 0x0 ADD SLOAD SUB PUSH2 0x41C JUMPI PUSH1 0x0 DUP2 PUSH1 0x3 ADD PUSH1 0x0 PUSH2 0x100 EXP DUP2 SLOAD DUP2 PUSH1 0xFF MUL NOT AND SWAP1 DUP4 ISZERO ISZERO MUL OR SWAP1 SSTORE POP JUMPDEST CALLER PUSH20 0xFFFFFFFFFFFFFFFFFFFFFFFFFFFFFFFFFFFFFFFF AND PUSH32 0xCCDB21E8B29FBF756F29D5F05C72606CA9E8160EC1A135CA6F50DAE471188CEC DUP4 DUP4 PUSH1 0x6 ADD SLOAD PUSH1 0x40 MLOAD PUSH2 0x468 SWAP3 SWAP2 SWAP1 PUSH2 0x140B JUMP JUMPDEST PUSH1 0x40 MLOAD DUP1 SWAP2 SUB SWAP1 LOG2 POP POP JUMP JUMPDEST PUSH1 0x0 TIMESTAMP SWAP1 POP SWAP1 JUMP JUMPDEST PUSH1 0x0 DUP1 PUSH1 0x2 PUSH1 0x0 CALLER PUSH20 0xFFFFFFFFFFFFFFFFFFFFFFFFFFFFFFFFFFFFFFFF AND PUSH20 0xFFFFFFFFFFFFFFFFFFFFFFFFFFFFFFFFFFFFFFFF AND DUP2 MSTORE PUSH1 0x20 ADD SWAP1 DUP2 MSTORE PUSH1 0x20 ADD PUSH1 0x0 KECCAK256 DUP4 DUP2 SLOAD DUP2 LT PUSH2 0x4D0 JUMPI PUSH2 0x4CF PUSH2 0x1122 JUMP JUMPDEST JUMPDEST SWAP1 PUSH1 0x0 MSTORE PUSH1 0x20 PUSH1 0x0 KECCAK256 SWAP1 PUSH1 0x9 MUL ADD SWAP1 POP PUSH1 0x0 DUP2 PUSH1 0x0 ADD SLOAD GT PUSH2 0x527 JUMPI PUSH1 0x40 MLOAD PUSH32 0x8C379A000000000000000000000000000000000000000000000000000000000 DUP2 MSTORE PUSH1 0x4 ADD PUSH2 0x51E SWAP1 PUSH2 0x1480 JUMP JUMPDEST PUSH1 0x40 MLOAD DUP1 SWAP2 SUB SWAP1 REVERT JUMPDEST PUSH1 0x0 DUP2 PUSH1 0x3 ADD PUSH1 0x2 SWAP1 SLOAD SWAP1 PUSH2 0x100 EXP SWAP1 DIV PUSH1 0xFF AND PUSH1 0xFF AND DUP3 PUSH1 0x1 ADD SLOAD PUSH2 0x54B PUSH2 0x474 JUMP JUMPDEST PUSH2 0x555 SWAP2 SWAP1 PUSH2 0x13D7 JUMP JUMPDEST PUSH2 0x55F SWAP2 SWAP1 PUSH2 0x14CF JUMP JUMPDEST SWAP1 POP PUSH1 0x0 DUP3 PUSH1 0x7 ADD SLOAD DUP4 PUSH1 0x4 ADD SLOAD DUP4 PUSH2 0x578 SWAP2 SWAP1 PUSH2 0x1500 JUMP JUMPDEST PUSH2 0x582 SWAP2 SWAP1 PUSH2 0x13D7 JUMP JUMPDEST SWAP1 POP DUP3 PUSH1 0x8 ADD SLOAD DUP4 PUSH1 0x0 ADD SLOAD GT PUSH2 0x5A6 JUMPI PUSH2 0x59C DUP6 PUSH2 0xC06 JUMP JUMPDEST SWAP4 POP POP POP POP PUSH2 0x5F4 JUMP JUMPDEST DUP3 PUSH1 0x0 ADD SLOAD DUP2 GT ISZERO PUSH2 0x5ED JUMPI PUSH1 0x40 MLOAD PUSH32 0x8C379A000000000000000000000000000000000000000000000000000000000 DUP2 MSTORE PUSH1 0x4 ADD PUSH2 0x5E4 SWAP1 PUSH2 0x158E JUMP JUMPDEST PUSH1 0x40 MLOAD DUP1 SWAP2 SUB SWAP1 REVERT JUMPDEST DUP1 SWAP4 POP POP POP POP JUMPDEST SWAP2 SWAP1 POP JUMP JUMPDEST PUSH1 0x3 PUSH1 0x20 MSTORE DUP1 PUSH1 0x0 MSTORE PUSH1 0x40 PUSH1 0x0 KECCAK256 PUSH1 0x0 SWAP2 POP SLOAD SWAP1 PUSH2 0x100 EXP SWAP1 DIV PUSH1 0xFF AND DUP2 JUMP JUMPDEST PUSH2 0x621 PUSH2 0x474 JUMP JUMPDEST DUP4 GT PUSH2 0x662 JUMPI PUSH1 0x40 MLOAD PUSH32 0x8C379A000000000000000000000000000000000000000000000000000000000 DUP2 MSTORE PUSH1 0x4 ADD PUSH2 0x659 SWAP1 PUSH2 0x15FA JUMP JUMPDEST PUSH1 0x40 MLOAD DUP1 SWAP2 SUB SWAP1 REVERT JUMPDEST PUSH1 0x3 PUSH1 0x0 CALLER PUSH20 0xFFFFFFFFFFFFFFFFFFFFFFFFFFFFFFFFFFFFFFFF AND PUSH20 0xFFFFFFFFFFFFFFFFFFFFFFFFFFFFFFFFFFFFFFFF AND DUP2 MSTORE PUSH1 0x20 ADD SWAP1 DUP2 MSTORE PUSH1 0x20 ADD PUSH1 0x0 KECCAK256 PUSH1 0x0 SWAP1 SLOAD SWAP1 PUSH2 0x100 EXP SWAP1 DIV PUSH1 0xFF AND PUSH2 0x6EE JUMPI PUSH1 0x40 MLOAD PUSH32 0x8C379A000000000000000000000000000000000000000000000000000000000 DUP2 MSTORE PUSH1 0x4 ADD PUSH2 0x6E5 SWAP1 PUSH2 0x168C JUMP JUMPDEST PUSH1 0x40 MLOAD DUP1 SWAP2 SUB SWAP1 REVERT JUMPDEST PUSH1 0x0 PUSH1 0x40 MLOAD DUP1 PUSH2 0x180 ADD PUSH1 0x40 MSTORE DUP1 DUP9 DUP2 MSTORE PUSH1 0x20 ADD DUP5 PUSH1 0xFF AND DUP7 PUSH2 0x711 SWAP2 SWAP1 PUSH2 0x13A3 JUMP JUMPDEST DUP2 MSTORE PUSH1 0x20 ADD DUP8 DUP2 MSTORE PUSH1 0x20 ADD PUSH1 0x1 ISZERO ISZERO DUP2 MSTORE PUSH1 0x20 ADD PUSH1 0x0 ISZERO ISZERO DUP2 MSTORE PUSH1 0x20 ADD DUP7 PUSH1 0xFF AND DUP2 MSTORE PUSH1 0x20 ADD DUP5 PUSH1 0xFF AND DUP2 MSTORE PUSH1 0x20 ADD DUP8 DUP10 DUP9 PUSH1 0xFF AND PUSH2 0x750 SWAP2 SWAP1 PUSH2 0x1500 JUMP JUMPDEST PUSH2 0x75A SWAP2 SWAP1 PUSH2 0x14CF JUMP JUMPDEST DUP2 MSTORE PUSH1 0x20 ADD DUP4 PUSH20 0xFFFFFFFFFFFFFFFFFFFFFFFFFFFFFFFFFFFFFFFF AND DUP2 MSTORE PUSH1 0x20 ADD PUSH1 0x0 DUP2 MSTORE PUSH1 0x20 ADD PUSH1 0x0 DUP2 MSTORE PUSH1 0x20 ADD DUP7 PUSH1 0xFF AND DUP9 PUSH2 0x798 SWAP2 SWAP1 PUSH2 0x14CF JUMP JUMPDEST DUP10 PUSH2 0x7A3 SWAP2 SWAP1 PUSH2 0x16AC JUMP JUMPDEST DUP2 MSTORE POP SWAP1 POP PUSH1 0x2 PUSH1 0x0 CALLER PUSH20 0xFFFFFFFFFFFFFFFFFFFFFFFFFFFFFFFFFFFFFFFF AND PUSH20 0xFFFFFFFFFFFFFFFFFFFFFFFFFFFFFFFFFFFFFFFF AND DUP2 MSTORE PUSH1 0x20 ADD SWAP1 DUP2 MSTORE PUSH1 0x20 ADD PUSH1 0x0 KECCAK256 DUP2 SWAP1 DUP1 PUSH1 0x1 DUP2 SLOAD ADD DUP1 DUP3 SSTORE DUP1 SWAP2 POP POP PUSH1 0x1 SWAP1 SUB SWAP1 PUSH1 0x0 MSTORE PUSH1 0x20 PUSH1 0x0 KECCAK256 SWAP1 PUSH1 0x9 MUL ADD PUSH1 0x0 SWAP1 SWAP2 SWAP1 SWAP2 SWAP1 SWAP2 POP PUSH1 0x0 DUP3 ADD MLOAD DUP2 PUSH1 0x0 ADD SSTORE PUSH1 0x20 DUP3 ADD MLOAD DUP2 PUSH1 0x1 ADD SSTORE PUSH1 0x40 DUP3 ADD MLOAD DUP2 PUSH1 0x2 ADD SSTORE PUSH1 0x60 DUP3 ADD MLOAD DUP2 PUSH1 0x3 ADD PUSH1 0x0 PUSH2 0x100 EXP DUP2 SLOAD DUP2 PUSH1 0xFF MUL NOT AND SWAP1 DUP4 ISZERO ISZERO MUL OR SWAP1 SSTORE POP PUSH1 0x80 DUP3 ADD MLOAD DUP2 PUSH1 0x3 ADD PUSH1 0x1 PUSH2 0x100 EXP DUP2 SLOAD DUP2 PUSH1 0xFF MUL NOT AND SWAP1 DUP4 ISZERO ISZERO MUL OR SWAP1 SSTORE POP PUSH1 0xA0 DUP3 ADD MLOAD DUP2 PUSH1 0x3 ADD PUSH1 0x2 PUSH2 0x100 EXP DUP2 SLOAD DUP2 PUSH1 0xFF MUL NOT AND SWAP1 DUP4 PUSH1 0xFF AND MUL OR SWAP1 SSTORE POP PUSH1 0xC0 DUP3 ADD MLOAD DUP2 PUSH1 0x3 ADD PUSH1 0x3 PUSH2 0x100 EXP DUP2 SLOAD DUP2 PUSH1 0xFF MUL NOT AND SWAP1 DUP4 PUSH1 0xFF AND MUL OR SWAP1 SSTORE POP PUSH1 0xE0 DUP3 ADD MLOAD DUP2 PUSH1 0x4 ADD SSTORE PUSH2 0x100 DUP3 ADD MLOAD DUP2 PUSH1 0x5 ADD PUSH1 0x0 PUSH2 0x100 EXP DUP2 SLOAD DUP2 PUSH20 0xFFFFFFFFFFFFFFFFFFFFFFFFFFFFFFFFFFFFFFFF MUL NOT AND SWAP1 DUP4 PUSH20 0xFFFFFFFFFFFFFFFFFFFFFFFFFFFFFFFFFFFFFFFF AND MUL OR SWAP1 SSTORE POP PUSH2 0x120 DUP3 ADD MLOAD DUP2 PUSH1 0x6 ADD SSTORE PUSH2 0x140 DUP3 ADD MLOAD DUP2 PUSH1 0x7 ADD SSTORE PUSH2 0x160 DUP3 ADD MLOAD DUP2 PUSH1 0x8 ADD SSTORE POP POP PUSH1 0x0 DUP1 SLOAD SWAP1 PUSH2 0x100 EXP SWAP1 DIV PUSH20 0xFFFFFFFFFFFFFFFFFFFFFFFFFFFFFFFFFFFFFFFF AND PUSH20 0xFFFFFFFFFFFFFFFFFFFFFFFFFFFFFFFFFFFFFFFF AND PUSH4 0x23B872DD CALLER ADDRESS DUP11 PUSH1 0x40 MLOAD DUP5 PUSH4 0xFFFFFFFF AND PUSH1 0xE0 SHL DUP2 MSTORE PUSH1 0x4 ADD PUSH2 0x983 SWAP4 SWAP3 SWAP2 SWAP1 PUSH2 0x16DD JUMP JUMPDEST PUSH1 0x20 PUSH1 0x40 MLOAD DUP1 DUP4 SUB DUP2 PUSH1 0x0 DUP8 GAS CALL ISZERO DUP1 ISZERO PUSH2 0x9A2 JUMPI RETURNDATASIZE PUSH1 0x0 DUP1 RETURNDATACOPY RETURNDATASIZE PUSH1 0x0 REVERT JUMPDEST POP POP POP POP PUSH1 0x40 MLOAD RETURNDATASIZE PUSH1 0x1F NOT PUSH1 0x1F DUP3 ADD AND DUP3 ADD DUP1 PUSH1 0x40 MSTORE POP DUP2 ADD SWAP1 PUSH2 0x9C6 SWAP2 SWAP1 PUSH2 0x1347 JUMP JUMPDEST POP CALLER PUSH20 0xFFFFFFFFFFFFFFFFFFFFFFFFFFFFFFFFFFFFFFFF AND PUSH32 0xB2E88791D817C746D5E5FE14D588911BB8E67F1FE02D38CF2ED5C01D9AC07A07 DUP9 DUP9 DUP9 DUP9 DUP9 PUSH1 0x40 MLOAD PUSH2 0xA15 SWAP6 SWAP5 SWAP4 SWAP3 SWAP2 SWAP1 PUSH2 0x1714 JUMP JUMPDEST PUSH1 0x40 MLOAD DUP1 SWAP2 SUB SWAP1 LOG2 POP POP POP POP POP POP POP JUMP JUMPDEST PUSH1 0x2 PUSH1 0x20 MSTORE DUP2 PUSH1 0x0 MSTORE PUSH1 0x40 PUSH1 0x0 KECCAK256 DUP2 DUP2 SLOAD DUP2 LT PUSH2 0xA42 JUMPI PUSH1 0x0 DUP1 REVERT JUMPDEST SWAP1 PUSH1 0x0 MSTORE PUSH1 0x20 PUSH1 0x0 KECCAK256 SWAP1 PUSH1 0x9 MUL ADD PUSH1 0x0 SWAP2 POP SWAP2 POP POP DUP1 PUSH1 0x0 ADD SLOAD SWAP1 DUP1 PUSH1 0x1 ADD SLOAD SWAP1 DUP1 PUSH1 0x2 ADD SLOAD SWAP1 DUP1 PUSH1 0x3 ADD PUSH1 0x0 SWAP1 SLOAD SWAP1 PUSH2 0x100 EXP SWAP1 DIV PUSH1 0xFF AND SWAP1 DUP1 PUSH1 0x3 ADD PUSH1 0x1 SWAP1 SLOAD SWAP1 PUSH2 0x100 EXP SWAP1 DIV PUSH1 0xFF AND SWAP1 DUP1 PUSH1 0x3 ADD PUSH1 0x2 SWAP1 SLOAD SWAP1 PUSH2 0x100 EXP SWAP1 DIV PUSH1 0xFF AND SWAP1 DUP1 PUSH1 0x3 ADD PUSH1 0x3 SWAP1 SLOAD SWAP1 PUSH2 0x100 EXP SWAP1 DIV PUSH1 0xFF AND SWAP1 DUP1 PUSH1 0x4 ADD SLOAD SWAP1 DUP1 PUSH1 0x5 ADD PUSH1 0x0 SWAP1 SLOAD SWAP1 PUSH2 0x100 EXP SWAP1 DIV PUSH20 0xFFFFFFFFFFFFFFFFFFFFFFFFFFFFFFFFFFFFFFFF AND SWAP1 DUP1 PUSH1 0x6 ADD SLOAD SWAP1 DUP1 PUSH1 0x7 ADD SLOAD SWAP1 DUP1 PUSH1 0x8 ADD SLOAD SWAP1 POP DUP13 JUMP JUMPDEST PUSH1 0x1 PUSH1 0x0 SWAP1 SLOAD SWAP1 PUSH2 0x100 EXP SWAP1 DIV PUSH20 0xFFFFFFFFFFFFFFFFFFFFFFFFFFFFFFFFFFFFFFFF AND PUSH20 0xFFFFFFFFFFFFFFFFFFFFFFFFFFFFFFFFFFFFFFFF AND CALLER PUSH20 0xFFFFFFFFFFFFFFFFFFFFFFFFFFFFFFFFFFFFFFFF AND EQ PUSH2 0xB87 JUMPI PUSH1 0x40 MLOAD PUSH32 0x8C379A000000000000000000000000000000000000000000000000000000000 DUP2 MSTORE PUSH1 0x4 ADD PUSH2 0xB7E SWAP1 PUSH2 0x17D9 JUMP JUMPDEST PUSH1 0x40 MLOAD DUP1 SWAP2 SUB SWAP1 REVERT JUMPDEST PUSH1 0x1 PUSH1 0x3 PUSH1 0x0 DUP4 PUSH20 0xFFFFFFFFFFFFFFFFFFFFFFFFFFFFFFFFFFFFFFFF AND PUSH20 0xFFFFFFFFFFFFFFFFFFFFFFFFFFFFFFFFFFFFFFFF AND DUP2 MSTORE PUSH1 0x20 ADD SWAP1 DUP2 MSTORE PUSH1 0x20 ADD PUSH1 0x0 KECCAK256 PUSH1 0x0 PUSH2 0x100 EXP DUP2 SLOAD DUP2 PUSH1 0xFF MUL NOT AND SWAP1 DUP4 ISZERO ISZERO MUL OR SWAP1 SSTORE POP POP JUMP JUMPDEST PUSH1 0x0 DUP1 SLOAD SWAP1 PUSH2 0x100 EXP SWAP1 DIV PUSH20 0xFFFFFFFFFFFFFFFFFFFFFFFFFFFFFFFFFFFFFFFF AND DUP2 JUMP JUMPDEST PUSH1 0x0 DUP1 PUSH1 0x2 PUSH1 0x0 CALLER PUSH20 0xFFFFFFFFFFFFFFFFFFFFFFFFFFFFFFFFFFFFFFFF AND PUSH20 0xFFFFFFFFFFFFFFFFFFFFFFFFFFFFFFFFFFFFFFFF AND DUP2 MSTORE PUSH1 0x20 ADD SWAP1 DUP2 MSTORE PUSH1 0x20 ADD PUSH1 0x0 KECCAK256 DUP4 DUP2 SLOAD DUP2 LT PUSH2 0xC5A JUMPI PUSH2 0xC59 PUSH2 0x1122 JUMP JUMPDEST JUMPDEST SWAP1 PUSH1 0x0 MSTORE PUSH1 0x20 PUSH1 0x0 KECCAK256 SWAP1 PUSH1 0x9 MUL ADD SWAP1 POP PUSH1 0x0 DUP2 PUSH1 0x3 ADD PUSH1 0x2 SWAP1 SLOAD SWAP1 PUSH2 0x100 EXP SWAP1 DIV PUSH1 0xFF AND PUSH1 0xFF AND DUP3 PUSH1 0x2 ADD SLOAD PUSH2 0xC90 SWAP2 SWAP1 PUSH2 0x14CF JUMP JUMPDEST DUP3 PUSH1 0x0 ADD SLOAD PUSH2 0xC9F SWAP2 SWAP1 PUSH2 0x16AC JUMP JUMPDEST SWAP1 POP PUSH1 0x0 DUP1 SLOAD SWAP1 PUSH2 0x100 EXP SWAP1 DIV PUSH20 0xFFFFFFFFFFFFFFFFFFFFFFFFFFFFFFFFFFFFFFFF AND PUSH20 0xFFFFFFFFFFFFFFFFFFFFFFFFFFFFFFFFFFFFFFFF AND PUSH4 0xA9059CBB CALLER DUP5 PUSH1 0x8 ADD SLOAD PUSH1 0x40 MLOAD DUP4 PUSH4 0xFFFFFFFF AND PUSH1 0xE0 SHL DUP2 MSTORE PUSH1 0x4 ADD PUSH2 0xD00 SWAP3 SWAP2 SWAP1 PUSH2 0x12F2 JUMP JUMPDEST PUSH1 0x20 PUSH1 0x40 MLOAD DUP1 DUP4 SUB DUP2 PUSH1 0x0 DUP8 GAS CALL ISZERO DUP1 ISZERO PUSH2 0xD1F JUMPI RETURNDATASIZE PUSH1 0x0 DUP1 RETURNDATACOPY RETURNDATASIZE PUSH1 0x0 REVERT JUMPDEST POP POP POP POP PUSH1 0x40 MLOAD RETURNDATASIZE PUSH1 0x1F NOT PUSH1 0x1F DUP3 ADD AND DUP3 ADD DUP1 PUSH1 0x40 MSTORE POP DUP2 ADD SWAP1 PUSH2 0xD43 SWAP2 SWAP1 PUSH2 0x1347 JUMP JUMPDEST POP DUP2 PUSH1 0x0 ADD SLOAD DUP3 PUSH1 0x7 ADD PUSH1 0x0 DUP3 DUP3 SLOAD PUSH2 0xD5C SWAP2 SWAP1 PUSH2 0x13A3 JUMP JUMPDEST SWAP3 POP POP DUP2 SWAP1 SSTORE POP PUSH1 0x0 DUP3 PUSH1 0x0 ADD DUP2 SWAP1 SSTORE POP DUP1 SWAP3 POP POP POP SWAP2 SWAP1 POP JUMP JUMPDEST PUSH1 0x0 DUP1 REVERT JUMPDEST PUSH1 0x0 DUP2 SWAP1 POP SWAP2 SWAP1 POP JUMP JUMPDEST PUSH2 0xD8F DUP2 PUSH2 0xD7C JUMP JUMPDEST DUP2 EQ PUSH2 0xD9A JUMPI PUSH1 0x0 DUP1 REVERT JUMPDEST POP JUMP JUMPDEST PUSH1 0x0 DUP2 CALLDATALOAD SWAP1 POP PUSH2 0xDAC DUP2 PUSH2 0xD86 JUMP JUMPDEST SWAP3 SWAP2 POP POP JUMP JUMPDEST PUSH1 0x0 PUSH1 0x20 DUP3 DUP5 SUB SLT ISZERO PUSH2 0xDC8 JUMPI PUSH2 0xDC7 PUSH2 0xD77 JUMP JUMPDEST JUMPDEST PUSH1 0x0 PUSH2 0xDD6 DUP5 DUP3 DUP6 ADD PUSH2 0xD9D JUMP JUMPDEST SWAP2 POP POP SWAP3 SWAP2 POP POP JUMP JUMPDEST PUSH2 0xDE8 DUP2 PUSH2 0xD7C JUMP JUMPDEST DUP3 MSTORE POP POP JUMP JUMPDEST PUSH1 0x0 PUSH1 0x20 DUP3 ADD SWAP1 POP PUSH2 0xE03 PUSH1 0x0 DUP4 ADD DUP5 PUSH2 0xDDF JUMP JUMPDEST SWAP3 SWAP2 POP POP JUMP JUMPDEST PUSH1 0x0 PUSH20 0xFFFFFFFFFFFFFFFFFFFFFFFFFFFFFFFFFFFFFFFF DUP3 AND SWAP1 POP SWAP2 SWAP1 POP JUMP JUMPDEST PUSH1 0x0 PUSH2 0xE34 DUP3 PUSH2 0xE09 JUMP JUMPDEST SWAP1 POP SWAP2 SWAP1 POP JUMP JUMPDEST PUSH2 0xE44 DUP2 PUSH2 0xE29 JUMP JUMPDEST DUP2 EQ PUSH2 0xE4F JUMPI PUSH1 0x0 DUP1 REVERT JUMPDEST POP JUMP JUMPDEST PUSH1 0x0 DUP2 CALLDATALOAD SWAP1 POP PUSH2 0xE61 DUP2 PUSH2 0xE3B JUMP JUMPDEST SWAP3 SWAP2 POP POP JUMP JUMPDEST PUSH1 0x0 PUSH1 0x20 DUP3 DUP5 SUB SLT ISZERO PUSH2 0xE7D JUMPI PUSH2 0xE7C PUSH2 0xD77 JUMP JUMPDEST JUMPDEST PUSH1 0x0 PUSH2 0xE8B DUP5 DUP3 DUP6 ADD PUSH2 0xE52 JUMP JUMPDEST SWAP2 POP POP SWAP3 SWAP2 POP POP JUMP JUMPDEST PUSH1 0x0 DUP2 ISZERO ISZERO SWAP1 POP SWAP2 SWAP1 POP JUMP JUMPDEST PUSH2 0xEA9 DUP2 PUSH2 0xE94 JUMP JUMPDEST DUP3 MSTORE POP POP JUMP JUMPDEST PUSH1 0x0 PUSH1 0x20 DUP3 ADD SWAP1 POP PUSH2 0xEC4 PUSH1 0x0 DUP4 ADD DUP5 PUSH2 0xEA0 JUMP JUMPDEST SWAP3 SWAP2 POP POP JUMP JUMPDEST PUSH1 0x0 PUSH1 0xFF DUP3 AND SWAP1 POP SWAP2 SWAP1 POP JUMP JUMPDEST PUSH2 0xEE0 DUP2 PUSH2 0xECA JUMP JUMPDEST DUP2 EQ PUSH2 0xEEB JUMPI PUSH1 0x0 DUP1 REVERT JUMPDEST POP JUMP JUMPDEST PUSH1 0x0 DUP2 CALLDATALOAD SWAP1 POP PUSH2 0xEFD DUP2 PUSH2 0xED7 JUMP JUMPDEST SWAP3 SWAP2 POP POP JUMP JUMPDEST PUSH1 0x0 DUP1 PUSH1 0x0 DUP1 PUSH1 0x0 DUP1 PUSH1 0xC0 DUP8 DUP10 SUB SLT ISZERO PUSH2 0xF20 JUMPI PUSH2 0xF1F PUSH2 0xD77 JUMP JUMPDEST JUMPDEST PUSH1 0x0 PUSH2 0xF2E DUP10 DUP3 DUP11 ADD PUSH2 0xD9D JUMP JUMPDEST SWAP7 POP POP PUSH1 0x20 PUSH2 0xF3F DUP10 DUP3 DUP11 ADD PUSH2 0xD9D JUMP JUMPDEST SWAP6 POP POP PUSH1 0x40 PUSH2 0xF50 DUP10 DUP3 DUP11 ADD PUSH2 0xEEE JUMP JUMPDEST SWAP5 POP POP PUSH1 0x60 PUSH2 0xF61 DUP10 DUP3 DUP11 ADD PUSH2 0xD9D JUMP JUMPDEST SWAP4 POP POP PUSH1 0x80 PUSH2 0xF72 DUP10 DUP3 DUP11 ADD PUSH2 0xEEE JUMP JUMPDEST SWAP3 POP POP PUSH1 0xA0 PUSH2 0xF83 DUP10 DUP3 DUP11 ADD PUSH2 0xE52 JUMP JUMPDEST SWAP2 POP POP SWAP3 SWAP6 POP SWAP3 SWAP6 POP SWAP3 SWAP6 JUMP JUMPDEST PUSH1 0x0 DUP1 PUSH1 0x40 DUP4 DUP6 SUB SLT ISZERO PUSH2 0xFA7 JUMPI PUSH2 0xFA6 PUSH2 0xD77 JUMP JUMPDEST JUMPDEST PUSH1 0x0 PUSH2 0xFB5 DUP6 DUP3 DUP7 ADD PUSH2 0xE52 JUMP JUMPDEST SWAP3 POP POP PUSH1 0x20 PUSH2 0xFC6 DUP6 DUP3 DUP7 ADD PUSH2 0xD9D JUMP JUMPDEST SWAP2 POP POP SWAP3 POP SWAP3 SWAP1 POP JUMP JUMPDEST PUSH2 0xFD9 DUP2 PUSH2 0xECA JUMP JUMPDEST DUP3 MSTORE POP POP JUMP JUMPDEST PUSH2 0xFE8 DUP2 PUSH2 0xE29 JUMP JUMPDEST DUP3 MSTORE POP POP JUMP JUMPDEST PUSH1 0x0 PUSH2 0x180 DUP3 ADD SWAP1 POP PUSH2 0x1004 PUSH1 0x0 DUP4 ADD DUP16 PUSH2 0xDDF JUMP JUMPDEST PUSH2 0x1011 PUSH1 0x20 DUP4 ADD DUP15 PUSH2 0xDDF JUMP JUMPDEST PUSH2 0x101E PUSH1 0x40 DUP4 ADD DUP14 PUSH2 0xDDF JUMP JUMPDEST PUSH2 0x102B PUSH1 0x60 DUP4 ADD DUP13 PUSH2 0xEA0 JUMP JUMPDEST PUSH2 0x1038 PUSH1 0x80 DUP4 ADD DUP12 PUSH2 0xEA0 JUMP JUMPDEST PUSH2 0x1045 PUSH1 0xA0 DUP4 ADD DUP11 PUSH2 0xFD0 JUMP JUMPDEST PUSH2 0x1052 PUSH1 0xC0 DUP4 ADD DUP10 PUSH2 0xFD0 JUMP JUMPDEST PUSH2 0x105F PUSH1 0xE0 DUP4 ADD DUP9 PUSH2 0xDDF JUMP JUMPDEST PUSH2 0x106D PUSH2 0x100 DUP4 ADD DUP8 PUSH2 0xFDF JUMP JUMPDEST PUSH2 0x107B PUSH2 0x120 DUP4 ADD DUP7 PUSH2 0xDDF JUMP JUMPDEST PUSH2 0x1089 PUSH2 0x140 DUP4 ADD DUP6 PUSH2 0xDDF JUMP JUMPDEST PUSH2 0x1097 PUSH2 0x160 DUP4 ADD DUP5 PUSH2 0xDDF JUMP JUMPDEST SWAP14 SWAP13 POP POP POP POP POP POP POP POP POP POP POP POP POP JUMP JUMPDEST PUSH1 0x0 DUP2 SWAP1 POP SWAP2 SWAP1 POP JUMP JUMPDEST PUSH1 0x0 PUSH2 0x10CD PUSH2 0x10C8 PUSH2 0x10C3 DUP5 PUSH2 0xE09 JUMP JUMPDEST PUSH2 0x10A8 JUMP JUMPDEST PUSH2 0xE09 JUMP JUMPDEST SWAP1 POP SWAP2 SWAP1 POP JUMP JUMPDEST PUSH1 0x0 PUSH2 0x10DF DUP3 PUSH2 0x10B2 JUMP JUMPDEST SWAP1 POP SWAP2 SWAP1 POP JUMP JUMPDEST PUSH1 0x0 PUSH2 0x10F1 DUP3 PUSH2 0x10D4 JUMP JUMPDEST SWAP1 POP SWAP2 SWAP1 POP JUMP JUMPDEST PUSH2 0x1101 DUP2 PUSH2 0x10E6 JUMP JUMPDEST DUP3 MSTORE POP POP JUMP JUMPDEST PUSH1 0x0 PUSH1 0x20 DUP3 ADD SWAP1 POP PUSH2 0x111C PUSH1 0x0 DUP4 ADD DUP5 PUSH2 0x10F8 JUMP JUMPDEST SWAP3 SWAP2 POP POP JUMP JUMPDEST PUSH32 0x4E487B7100000000000000000000000000000000000000000000000000000000 PUSH1 0x0 MSTORE PUSH1 0x32 PUSH1 0x4 MSTORE PUSH1 0x24 PUSH1 0x0 REVERT JUMPDEST PUSH1 0x0 DUP3 DUP3 MSTORE PUSH1 0x20 DUP3 ADD SWAP1 POP SWAP3 SWAP2 POP POP JUMP JUMPDEST PUSH32 0x46756E64732068617665206E6F74206265656E206C6F636B6564000000000000 PUSH1 0x0 DUP3 ADD MSTORE POP JUMP JUMPDEST PUSH1 0x0 PUSH2 0x1198 PUSH1 0x1A DUP4 PUSH2 0x1151 JUMP JUMPDEST SWAP2 POP PUSH2 0x11A3 DUP3 PUSH2 0x1162 JUMP JUMPDEST PUSH1 0x20 DUP3 ADD SWAP1 POP SWAP2 SWAP1 POP JUMP JUMPDEST PUSH1 0x0 PUSH1 0x20 DUP3 ADD SWAP1 POP DUP2 DUP2 SUB PUSH1 0x0 DUP4 ADD MSTORE PUSH2 0x11C7 DUP2 PUSH2 0x118B JUMP JUMPDEST SWAP1 POP SWAP2 SWAP1 POP JUMP JUMPDEST PUSH32 0x546F6B656E20756E646572206C6F636B696E6720706C6561736520776169742E PUSH1 0x0 DUP3 ADD MSTORE PUSH32 0x2E00000000000000000000000000000000000000000000000000000000000000 PUSH1 0x20 DUP3 ADD MSTORE POP JUMP JUMPDEST PUSH1 0x0 PUSH2 0x122A PUSH1 0x21 DUP4 PUSH2 0x1151 JUMP JUMPDEST SWAP2 POP PUSH2 0x1235 DUP3 PUSH2 0x11CE JUMP JUMPDEST PUSH1 0x40 DUP3 ADD SWAP1 POP SWAP2 SWAP1 POP JUMP JUMPDEST PUSH1 0x0 PUSH1 0x20 DUP3 ADD SWAP1 POP DUP2 DUP2 SUB PUSH1 0x0 DUP4 ADD MSTORE PUSH2 0x1259 DUP2 PUSH2 0x121D JUMP JUMPDEST SWAP1 POP SWAP2 SWAP1 POP JUMP JUMPDEST PUSH32 0x796F75206E6F742061626C6520746F20776974686472617720647572696E6720 PUSH1 0x0 DUP3 ADD MSTORE PUSH32 0x6C6F636B00000000000000000000000000000000000000000000000000000000 PUSH1 0x20 DUP3 ADD MSTORE POP JUMP JUMPDEST PUSH1 0x0 PUSH2 0x12BC PUSH1 0x24 DUP4 PUSH2 0x1151 JUMP JUMPDEST SWAP2 POP PUSH2 0x12C7 DUP3 PUSH2 0x1260 JUMP JUMPDEST PUSH1 0x40 DUP3 ADD SWAP1 POP SWAP2 SWAP1 POP JUMP JUMPDEST PUSH1 0x0 PUSH1 0x20 DUP3 ADD SWAP1 POP DUP2 DUP2 SUB PUSH1 0x0 DUP4 ADD MSTORE PUSH2 0x12EB DUP2 PUSH2 0x12AF JUMP JUMPDEST SWAP1 POP SWAP2 SWAP1 POP JUMP JUMPDEST PUSH1 0x0 PUSH1 0x40 DUP3 ADD SWAP1 POP PUSH2 0x1307 PUSH1 0x0 DUP4 ADD DUP6 PUSH2 0xFDF JUMP JUMPDEST PUSH2 0x1314 PUSH1 0x20 DUP4 ADD DUP5 PUSH2 0xDDF JUMP JUMPDEST SWAP4 SWAP3 POP POP POP JUMP JUMPDEST PUSH2 0x1324 DUP2 PUSH2 0xE94 JUMP JUMPDEST DUP2 EQ PUSH2 0x132F JUMPI PUSH1 0x0 DUP1 REVERT JUMPDEST POP JUMP JUMPDEST PUSH1 0x0 DUP2 MLOAD SWAP1 POP PUSH2 0x1341 DUP2 PUSH2 0x131B JUMP JUMPDEST SWAP3 SWAP2 POP POP JUMP JUMPDEST PUSH1 0x0 PUSH1 0x20 DUP3 DUP5 SUB SLT ISZERO PUSH2 0x135D JUMPI PUSH2 0x135C PUSH2 0xD77 JUMP JUMPDEST JUMPDEST PUSH1 0x0 PUSH2 0x136B DUP5 DUP3 DUP6 ADD PUSH2 0x1332 JUMP JUMPDEST SWAP2 POP POP SWAP3 SWAP2 POP POP JUMP JUMPDEST PUSH32 0x4E487B7100000000000000000000000000000000000000000000000000000000 PUSH1 0x0 MSTORE PUSH1 0x11 PUSH1 0x4 MSTORE PUSH1 0x24 PUSH1 0x0 REVERT JUMPDEST PUSH1 0x0 PUSH2 0x13AE DUP3 PUSH2 0xD7C JUMP JUMPDEST SWAP2 POP PUSH2 0x13B9 DUP4 PUSH2 0xD7C JUMP JUMPDEST SWAP3 POP DUP3 DUP3 ADD SWAP1 POP DUP1 DUP3 GT ISZERO PUSH2 0x13D1 JUMPI PUSH2 0x13D0 PUSH2 0x1374 JUMP JUMPDEST JUMPDEST SWAP3 SWAP2 POP POP JUMP JUMPDEST PUSH1 0x0 PUSH2 0x13E2 DUP3 PUSH2 0xD7C JUMP JUMPDEST SWAP2 POP PUSH2 0x13ED DUP4 PUSH2 0xD7C JUMP JUMPDEST SWAP3 POP DUP3 DUP3 SUB SWAP1 POP DUP2 DUP2 GT ISZERO PUSH2 0x1405 JUMPI PUSH2 0x1404 PUSH2 0x1374 JUMP JUMPDEST JUMPDEST SWAP3 SWAP2 POP POP JUMP JUMPDEST PUSH1 0x0 PUSH1 0x40 DUP3 ADD SWAP1 POP PUSH2 0x1420 PUSH1 0x0 DUP4 ADD DUP6 PUSH2 0xDDF JUMP JUMPDEST PUSH2 0x142D PUSH1 0x20 DUP4 ADD DUP5 PUSH2 0xDDF JUMP JUMPDEST SWAP4 SWAP3 POP POP POP JUMP JUMPDEST PUSH32 0x76657374696E672074696D65206F766572000000000000000000000000000000 PUSH1 0x0 DUP3 ADD MSTORE POP JUMP JUMPDEST PUSH1 0x0 PUSH2 0x146A PUSH1 0x11 DUP4 PUSH2 0x1151 JUMP JUMPDEST SWAP2 POP PUSH2 0x1475 DUP3 PUSH2 0x1434 JUMP JUMPDEST PUSH1 0x20 DUP3 ADD SWAP1 POP SWAP2 SWAP1 POP JUMP JUMPDEST PUSH1 0x0 PUSH1 0x20 DUP3 ADD SWAP1 POP DUP2 DUP2 SUB PUSH1 0x0 DUP4 ADD MSTORE PUSH2 0x1499 DUP2 PUSH2 0x145D JUMP JUMPDEST SWAP1 POP SWAP2 SWAP1 POP JUMP JUMPDEST PUSH32 0x4E487B7100000000000000000000000000000000000000000000000000000000 PUSH1 0x0 MSTORE PUSH1 0x12 PUSH1 0x4 MSTORE PUSH1 0x24 PUSH1 0x0 REVERT JUMPDEST PUSH1 0x0 PUSH2 0x14DA DUP3 PUSH2 0xD7C JUMP JUMPDEST SWAP2 POP PUSH2 0x14E5 DUP4 PUSH2 0xD7C JUMP JUMPDEST SWAP3 POP DUP3 PUSH2 0x14F5 JUMPI PUSH2 0x14F4 PUSH2 0x14A0 JUMP JUMPDEST JUMPDEST DUP3 DUP3 DIV SWAP1 POP SWAP3 SWAP2 POP POP JUMP JUMPDEST PUSH1 0x0 PUSH2 0x150B DUP3 PUSH2 0xD7C JUMP JUMPDEST SWAP2 POP PUSH2 0x1516 DUP4 PUSH2 0xD7C JUMP JUMPDEST SWAP3 POP DUP3 DUP3 MUL PUSH2 0x1524 DUP2 PUSH2 0xD7C JUMP JUMPDEST SWAP2 POP DUP3 DUP3 DIV DUP5 EQ DUP4 ISZERO OR PUSH2 0x153B JUMPI PUSH2 0x153A PUSH2 0x1374 JUMP JUMPDEST JUMPDEST POP SWAP3 SWAP2 POP POP JUMP JUMPDEST PUSH32 0x76657374696E6720636F6D706C65746500000000000000000000000000000000 PUSH1 0x0 DUP3 ADD MSTORE POP JUMP JUMPDEST PUSH1 0x0 PUSH2 0x1578 PUSH1 0x10 DUP4 PUSH2 0x1151 JUMP JUMPDEST SWAP2 POP PUSH2 0x1583 DUP3 PUSH2 0x1542 JUMP JUMPDEST PUSH1 0x20 DUP3 ADD SWAP1 POP SWAP2 SWAP1 POP JUMP JUMPDEST PUSH1 0x0 PUSH1 0x20 DUP3 ADD SWAP1 POP DUP2 DUP2 SUB PUSH1 0x0 DUP4 ADD MSTORE PUSH2 0x15A7 DUP2 PUSH2 0x156B JUMP JUMPDEST SWAP1 POP SWAP2 SWAP1 POP JUMP JUMPDEST PUSH32 0x656E657465722076616C69642074696D65000000000000000000000000000000 PUSH1 0x0 DUP3 ADD MSTORE POP JUMP JUMPDEST PUSH1 0x0 PUSH2 0x15E4 PUSH1 0x11 DUP4 PUSH2 0x1151 JUMP JUMPDEST SWAP2 POP PUSH2 0x15EF DUP3 PUSH2 0x15AE JUMP JUMPDEST PUSH1 0x20 DUP3 ADD SWAP1 POP SWAP2 SWAP1 POP JUMP JUMPDEST PUSH1 0x0 PUSH1 0x20 DUP3 ADD SWAP1 POP DUP2 DUP2 SUB PUSH1 0x0 DUP4 ADD MSTORE PUSH2 0x1613 DUP2 PUSH2 0x15D7 JUMP JUMPDEST SWAP1 POP SWAP2 SWAP1 POP JUMP JUMPDEST PUSH32 0x596F7520617265206E6F7420616C6C6F77656420746F20757365207468697320 PUSH1 0x0 DUP3 ADD MSTORE PUSH32 0x636F6E74726163742E0000000000000000000000000000000000000000000000 PUSH1 0x20 DUP3 ADD MSTORE POP JUMP JUMPDEST PUSH1 0x0 PUSH2 0x1676 PUSH1 0x29 DUP4 PUSH2 0x1151 JUMP JUMPDEST SWAP2 POP PUSH2 0x1681 DUP3 PUSH2 0x161A JUMP JUMPDEST PUSH1 0x40 DUP3 ADD SWAP1 POP SWAP2 SWAP1 POP JUMP JUMPDEST PUSH1 0x0 PUSH1 0x20 DUP3 ADD SWAP1 POP DUP2 DUP2 SUB PUSH1 0x0 DUP4 ADD MSTORE PUSH2 0x16A5 DUP2 PUSH2 0x1669 JUMP JUMPDEST SWAP1 POP SWAP2 SWAP1 POP JUMP JUMPDEST PUSH1 0x0 PUSH2 0x16B7 DUP3 PUSH2 0xD7C JUMP JUMPDEST SWAP2 POP PUSH2 0x16C2 DUP4 PUSH2 0xD7C JUMP JUMPDEST SWAP3 POP DUP3 PUSH2 0x16D2 JUMPI PUSH2 0x16D1 PUSH2 0x14A0 JUMP JUMPDEST JUMPDEST DUP3 DUP3 MOD SWAP1 POP SWAP3 SWAP2 POP POP JUMP JUMPDEST PUSH1 0x0 PUSH1 0x60 DUP3 ADD SWAP1 POP PUSH2 0x16F2 PUSH1 0x0 DUP4 ADD DUP7 PUSH2 0xFDF JUMP JUMPDEST PUSH2 0x16FF PUSH1 0x20 DUP4 ADD DUP6 PUSH2 0xFDF JUMP JUMPDEST PUSH2 0x170C PUSH1 0x40 DUP4 ADD DUP5 PUSH2 0xDDF JUMP JUMPDEST SWAP5 SWAP4 POP POP POP POP JUMP JUMPDEST PUSH1 0x0 PUSH1 0xA0 DUP3 ADD SWAP1 POP PUSH2 0x1729 PUSH1 0x0 DUP4 ADD DUP9 PUSH2 0xDDF JUMP JUMPDEST PUSH2 0x1736 PUSH1 0x20 DUP4 ADD DUP8 PUSH2 0xDDF JUMP JUMPDEST PUSH2 0x1743 PUSH1 0x40 DUP4 ADD DUP7 PUSH2 0xFD0 JUMP JUMPDEST PUSH2 0x1750 PUSH1 0x60 DUP4 ADD DUP6 PUSH2 0xDDF JUMP JUMPDEST PUSH2 0x175D PUSH1 0x80 DUP4 ADD DUP5 PUSH2 0xFD0 JUMP JUMPDEST SWAP7 SWAP6 POP POP POP POP POP POP JUMP JUMPDEST PUSH32 0x4F6E6C792074686520636F6E7472616374206F776E65722063616E2063616C6C PUSH1 0x0 DUP3 ADD MSTORE PUSH32 0x20746869732066756E6374696F6E000000000000000000000000000000000000 PUSH1 0x20 DUP3 ADD MSTORE POP JUMP JUMPDEST PUSH1 0x0 PUSH2 0x17C3 PUSH1 0x2E DUP4 PUSH2 0x1151 JUMP JUMPDEST SWAP2 POP PUSH2 0x17CE DUP3 PUSH2 0x1767 JUMP JUMPDEST PUSH1 0x40 DUP3 ADD SWAP1 POP SWAP2 SWAP1 POP JUMP JUMPDEST PUSH1 0x0 PUSH1 0x20 DUP3 ADD SWAP1 POP DUP2 DUP2 SUB PUSH1 0x0 DUP4 ADD MSTORE PUSH2 0x17F2 DUP2 PUSH2 0x17B6 JUMP JUMPDEST SWAP1 POP SWAP2 SWAP1 POP JUMP INVALID LOG2 PUSH5 0x6970667358 0x22 SLT KECCAK256 0xD3 0xF SLT NUMBER BALANCE 0xCF PUSH8 0x27A4484646FC3702 0xDF 0xFC 0xCA 0xC4 EXTCODECOPY PUSH23 0xFDD055BE586DED0CC0D74164736F6C6343000812003300 "
				},
				"gasEstimates": {
					"creation": {
						"codeDepositCost": "1238200",
						"executionCost": "infinite",
						"totalCost": "infinite"
					},
					"external": {
						"addWhitelist(address)": "27026",
						"calculate_available_withdraw_token(uint256)": "infinite",
						"getTime()": "359",
						"lock(uint256,uint256,uint8,uint256,uint8,address)": "infinite",
						"token()": "infinite",
						"vestings(address,uint256)": "infinite",
						"whitelist(address)": "2912",
						"withdraw(uint256)": "infinite"
					},
					"internal": {
						"calculate_remaining_token(uint256)": "infinite"
					}
				},
				"methodIdentifiers": {
					"addWhitelist(address)": "f80f5dd5",
					"calculate_available_withdraw_token(uint256)": "5952ffd1",
					"getTime()": "557ed1ba",
					"lock(uint256,uint256,uint8,uint256,uint8,address)": "aa9d691d",
					"token()": "fc0c546a",
					"vestings(address,uint256)": "bd84477d",
					"whitelist(address)": "9b19251a",
					"withdraw(uint256)": "2e1a7d4d"
				}
			},
			"storageLayout": {
				"storage": [
					{
						"astId": 717,
						"contract": "Vesting Contract/version3.sol:Vesting",
						"label": "token",
						"offset": 0,
						"slot": "0",
						"type": "t_contract(ERC20)586"
					},
					{
						"astId": 719,
						"contract": "Vesting Contract/version3.sol:Vesting",
						"label": "owner",
						"offset": 0,
						"slot": "1",
						"type": "t_address"
					},
					{
						"astId": 767,
						"contract": "Vesting Contract/version3.sol:Vesting",
						"label": "vestings",
						"offset": 0,
						"slot": "2",
						"type": "t_mapping(t_address,t_array(t_struct(VestingSchedule)761_storage)dyn_storage)"
					},
					{
						"astId": 771,
						"contract": "Vesting Contract/version3.sol:Vesting",
						"label": "whitelist",
						"offset": 0,
						"slot": "3",
						"type": "t_mapping(t_address,t_bool)"
					}
				],
				"types": {
					"t_address": {
						"encoding": "inplace",
						"label": "address",
						"numberOfBytes": "20"
					},
					"t_array(t_struct(VestingSchedule)761_storage)dyn_storage": {
						"base": "t_struct(VestingSchedule)761_storage",
						"encoding": "dynamic_array",
						"label": "struct Vesting.VestingSchedule[]",
						"numberOfBytes": "32"
					},
					"t_bool": {
						"encoding": "inplace",
						"label": "bool",
						"numberOfBytes": "1"
					},
					"t_contract(ERC20)586": {
						"encoding": "inplace",
						"label": "contract ERC20",
						"numberOfBytes": "20"
					},
					"t_mapping(t_address,t_array(t_struct(VestingSchedule)761_storage)dyn_storage)": {
						"encoding": "mapping",
						"key": "t_address",
						"label": "mapping(address => struct Vesting.VestingSchedule[])",
						"numberOfBytes": "32",
						"value": "t_array(t_struct(VestingSchedule)761_storage)dyn_storage"
					},
					"t_mapping(t_address,t_bool)": {
						"encoding": "mapping",
						"key": "t_address",
						"label": "mapping(address => bool)",
						"numberOfBytes": "32",
						"value": "t_bool"
					},
					"t_struct(VestingSchedule)761_storage": {
						"encoding": "inplace",
						"label": "struct Vesting.VestingSchedule",
						"members": [
							{
								"astId": 738,
								"contract": "Vesting Contract/version3.sol:Vesting",
								"label": "amount",
								"offset": 0,
								"slot": "0",
								"type": "t_uint256"
							},
							{
								"astId": 740,
								"contract": "Vesting Contract/version3.sol:Vesting",
								"label": "start",
								"offset": 0,
								"slot": "1",
								"type": "t_uint256"
							},
							{
								"astId": 742,
								"contract": "Vesting Contract/version3.sol:Vesting",
								"label": "duration",
								"offset": 0,
								"slot": "2",
								"type": "t_uint256"
							},
							{
								"astId": 744,
								"contract": "Vesting Contract/version3.sol:Vesting",
								"label": "locked",
								"offset": 0,
								"slot": "3",
								"type": "t_bool"
							},
							{
								"astId": 746,
								"contract": "Vesting Contract/version3.sol:Vesting",
								"label": "claimed",
								"offset": 1,
								"slot": "3",
								"type": "t_bool"
							},
							{
								"astId": 748,
								"contract": "Vesting Contract/version3.sol:Vesting",
								"label": "slice_period",
								"offset": 2,
								"slot": "3",
								"type": "t_uint8"
							},
							{
								"astId": 750,
								"contract": "Vesting Contract/version3.sol:Vesting",
								"label": "cliff",
								"offset": 3,
								"slot": "3",
								"type": "t_uint8"
							},
							{
								"astId": 752,
								"contract": "Vesting Contract/version3.sol:Vesting",
								"label": "recive_on_interval",
								"offset": 0,
								"slot": "4",
								"type": "t_uint256"
							},
							{
								"astId": 754,
								"contract": "Vesting Contract/version3.sol:Vesting",
								"label": "beneficiaries",
								"offset": 0,
								"slot": "5",
								"type": "t_address"
							},
							{
								"astId": 756,
								"contract": "Vesting Contract/version3.sol:Vesting",
								"label": "total_withdrawable",
								"offset": 0,
								"slot": "6",
								"type": "t_uint256"
							},
							{
								"astId": 758,
								"contract": "Vesting Contract/version3.sol:Vesting",
								"label": "temp",
								"offset": 0,
								"slot": "7",
								"type": "t_uint256"
							},
							{
								"astId": 760,
								"contract": "Vesting Contract/version3.sol:Vesting",
								"label": "remain_token",
								"offset": 0,
								"slot": "8",
								"type": "t_uint256"
							}
						],
						"numberOfBytes": "288"
					},
					"t_uint256": {
						"encoding": "inplace",
						"label": "uint256",
						"numberOfBytes": "32"
					},
					"t_uint8": {
						"encoding": "inplace",
						"label": "uint8",
						"numberOfBytes": "1"
					}
				}
			},
			"userdoc": {
				"kind": "user",
				"methods": {},
				"version": 1
			}
		}
	}
}