{
	"Vesting Contract/v4.sol": {
		"VestingContract": {
			"abi": [
				{
					"inputs": [],
					"stateMutability": "nonpayable",
					"type": "constructor"
				},
				{
					"anonymous": false,
					"inputs": [
						{
							"indexed": false,
							"internalType": "address",
							"name": "beneficiary",
							"type": "address"
						},
						{
							"indexed": false,
							"internalType": "uint256",
							"name": "amount",
							"type": "uint256"
						},
						{
							"indexed": false,
							"internalType": "uint256",
							"name": "duration",
							"type": "uint256"
						},
						{
							"indexed": false,
							"internalType": "uint256",
							"name": "slice_period",
							"type": "uint256"
						},
						{
							"indexed": false,
							"internalType": "uint256",
							"name": "start",
							"type": "uint256"
						},
						{
							"indexed": false,
							"internalType": "uint256",
							"name": "cliff",
							"type": "uint256"
						},
						{
							"indexed": false,
							"internalType": "address",
							"name": "Token",
							"type": "address"
						}
					],
					"name": "VestingLocked",
					"type": "event"
				},
				{
					"anonymous": false,
					"inputs": [
						{
							"indexed": false,
							"internalType": "address",
							"name": "beneficiary",
							"type": "address"
						},
						{
							"indexed": false,
							"internalType": "uint256",
							"name": "index",
							"type": "uint256"
						},
						{
							"indexed": false,
							"internalType": "uint256",
							"name": "amount",
							"type": "uint256"
						}
					],
					"name": "VestingWithdrawn",
					"type": "event"
				},
				{
					"inputs": [
						{
							"internalType": "address",
							"name": "",
							"type": "address"
						}
					],
					"name": "CheckWhitelist",
					"outputs": [
						{
							"internalType": "bool",
							"name": "",
							"type": "bool"
						}
					],
					"stateMutability": "view",
					"type": "function"
				},
				{
					"inputs": [
						{
							"internalType": "uint256",
							"name": "",
							"type": "uint256"
						}
					],
					"name": "WhiteListTokens",
					"outputs": [
						{
							"internalType": "address",
							"name": "",
							"type": "address"
						}
					],
					"stateMutability": "view",
					"type": "function"
				},
				{
					"inputs": [
						{
							"internalType": "address",
							"name": "_add",
							"type": "address"
						}
					],
					"name": "addWhitelist",
					"outputs": [],
					"stateMutability": "nonpayable",
					"type": "function"
				},
				{
					"inputs": [
						{
							"internalType": "uint256",
							"name": "index",
							"type": "uint256"
						}
					],
					"name": "calculate_available_withdraw_token",
					"outputs": [
						{
							"internalType": "uint256",
							"name": "",
							"type": "uint256"
						}
					],
					"stateMutability": "view",
					"type": "function"
				},
				{
					"inputs": [],
					"name": "getTime",
					"outputs": [
						{
							"internalType": "uint256",
							"name": "",
							"type": "uint256"
						}
					],
					"stateMutability": "view",
					"type": "function"
				},
				{
					"inputs": [],
					"name": "getTotalVesting",
					"outputs": [
						{
							"internalType": "uint256",
							"name": "",
							"type": "uint256"
						}
					],
					"stateMutability": "view",
					"type": "function"
				},
				{
					"inputs": [],
					"name": "getTotalWhitelist",
					"outputs": [
						{
							"internalType": "uint256",
							"name": "",
							"type": "uint256"
						}
					],
					"stateMutability": "view",
					"type": "function"
				},
				{
					"inputs": [
						{
							"internalType": "uint256",
							"name": "_amount",
							"type": "uint256"
						},
						{
							"internalType": "uint256",
							"name": "_start",
							"type": "uint256"
						},
						{
							"internalType": "uint256",
							"name": "_duration",
							"type": "uint256"
						},
						{
							"internalType": "uint256",
							"name": "_slice_period",
							"type": "uint256"
						},
						{
							"internalType": "uint256",
							"name": "_cliff",
							"type": "uint256"
						},
						{
							"internalType": "address",
							"name": "_beneficiaries",
							"type": "address"
						},
						{
							"internalType": "address",
							"name": "_addressOfToken",
							"type": "address"
						}
					],
					"name": "lock",
					"outputs": [],
					"stateMutability": "nonpayable",
					"type": "function"
				},
				{
					"inputs": [
						{
							"internalType": "address",
							"name": "_add",
							"type": "address"
						}
					],
					"name": "removeWhitelist",
					"outputs": [],
					"stateMutability": "nonpayable",
					"type": "function"
				},
				{
					"inputs": [],
					"name": "token",
					"outputs": [
						{
							"internalType": "contract ERC20",
							"name": "",
							"type": "address"
						}
					],
					"stateMutability": "view",
					"type": "function"
				},
				{
					"inputs": [
						{
							"internalType": "address",
							"name": "",
							"type": "address"
						},
						{
							"internalType": "uint256",
							"name": "",
							"type": "uint256"
						}
					],
					"name": "vestings",
					"outputs": [
						{
							"internalType": "uint256",
							"name": "VestingId",
							"type": "uint256"
						},
						{
							"internalType": "bool",
							"name": "locked",
							"type": "bool"
						},
						{
							"internalType": "uint256",
							"name": "claimed",
							"type": "uint256"
						},
						{
							"components": [
								{
									"internalType": "uint256",
									"name": "amount",
									"type": "uint256"
								},
								{
									"internalType": "uint256",
									"name": "start",
									"type": "uint256"
								},
								{
									"internalType": "uint256",
									"name": "duration",
									"type": "uint256"
								},
								{
									"internalType": "uint256",
									"name": "slice_period",
									"type": "uint256"
								},
								{
									"internalType": "uint256",
									"name": "cliff",
									"type": "uint256"
								},
								{
									"internalType": "uint256",
									"name": "recive_on_interval",
									"type": "uint256"
								},
								{
									"internalType": "address",
									"name": "beneficiaries",
									"type": "address"
								},
								{
									"internalType": "address",
									"name": "TokenAddress",
									"type": "address"
								}
							],
							"internalType": "struct VestingContract.VestingParams",
							"name": "params",
							"type": "tuple"
						}
					],
					"stateMutability": "view",
					"type": "function"
				},
				{
					"inputs": [
						{
							"internalType": "uint256",
							"name": "index",
							"type": "uint256"
						}
					],
					"name": "withdraw",
					"outputs": [],
					"stateMutability": "nonpayable",
					"type": "function"
				}
			],
			"devdoc": {
				"kind": "dev",
				"methods": {},
				"version": 1
			},
			"evm": {
				"assembly": "    /* \"Vesting Contract/v4.sol\":115:6051  contract VestingContract {... */\n  mstore(0x40, 0x80)\n    /* \"Vesting Contract/v4.sol\":190:239  constructor() {... */\n  callvalue\n  dup1\n  iszero\n  tag_1\n  jumpi\n  0x00\n  dup1\n  revert\ntag_1:\n  pop\n    /* \"Vesting Contract/v4.sol\":222:232  msg.sender */\n  caller\n    /* \"Vesting Contract/v4.sol\":214:219  owner */\n  0x01\n  0x00\n    /* \"Vesting Contract/v4.sol\":214:232  owner = msg.sender */\n  0x0100\n  exp\n  dup2\n  sload\n  dup2\n  0xffffffffffffffffffffffffffffffffffffffff\n  mul\n  not\n  and\n  swap1\n  dup4\n  0xffffffffffffffffffffffffffffffffffffffff\n  and\n  mul\n  or\n  swap1\n  sstore\n  pop\n    /* \"Vesting Contract/v4.sol\":115:6051  contract VestingContract {... */\n  dataSize(sub_0)\n  dup1\n  dataOffset(sub_0)\n  0x00\n  codecopy\n  0x00\n  return\nstop\n\nsub_0: assembly {\n        /* \"Vesting Contract/v4.sol\":115:6051  contract VestingContract {... */\n      mstore(0x40, 0x80)\n      callvalue\n      dup1\n      iszero\n      tag_1\n      jumpi\n      0x00\n      dup1\n      revert\n    tag_1:\n      pop\n      jumpi(tag_2, lt(calldatasize, 0x04))\n      shr(0xe0, calldataload(0x00))\n      dup1\n      0xd41330d2\n      gt\n      tag_15\n      jumpi\n      dup1\n      0xd41330d2\n      eq\n      tag_9\n      jumpi\n      dup1\n      0xe9afad38\n      eq\n      tag_10\n      jumpi\n      dup1\n      0xeab72e65\n      eq\n      tag_11\n      jumpi\n      dup1\n      0xf80f5dd5\n      eq\n      tag_12\n      jumpi\n      dup1\n      0xf8c8d140\n      eq\n      tag_13\n      jumpi\n      dup1\n      0xfc0c546a\n      eq\n      tag_14\n      jumpi\n      jump(tag_2)\n    tag_15:\n      dup1\n      0x2e1a7d4d\n      eq\n      tag_3\n      jumpi\n      dup1\n      0x557ed1ba\n      eq\n      tag_4\n      jumpi\n      dup1\n      0x5952ffd1\n      eq\n      tag_5\n      jumpi\n      dup1\n      0x78c8cda7\n      eq\n      tag_6\n      jumpi\n      dup1\n      0x95290163\n      eq\n      tag_7\n      jumpi\n      dup1\n      0xbd84477d\n      eq\n      tag_8\n      jumpi\n    tag_2:\n      0x00\n      dup1\n      revert\n        /* \"Vesting Contract/v4.sol\":4121:5046  function withdraw(uint256 index) external {... */\n    tag_3:\n      tag_16\n      0x04\n      dup1\n      calldatasize\n      sub\n      dup2\n      add\n      swap1\n      tag_17\n      swap2\n      swap1\n      tag_18\n      jump\t// in\n    tag_17:\n      tag_19\n      jump\t// in\n    tag_16:\n      stop\n        /* \"Vesting Contract/v4.sol\":5736:5824  function getTime() public view returns (uint256) {... */\n    tag_4:\n      tag_20\n      tag_21\n      jump\t// in\n    tag_20:\n      mload(0x40)\n      tag_22\n      swap2\n      swap1\n      tag_23\n      jump\t// in\n    tag_22:\n      mload(0x40)\n      dup1\n      swap2\n      sub\n      swap1\n      return\n        /* \"Vesting Contract/v4.sol\":5052:5730  function calculate_available_withdraw_token(uint256 index)... */\n    tag_5:\n      tag_24\n      0x04\n      dup1\n      calldatasize\n      sub\n      dup2\n      add\n      swap1\n      tag_25\n      swap2\n      swap1\n      tag_18\n      jump\t// in\n    tag_25:\n      tag_26\n      jump\t// in\n    tag_24:\n      mload(0x40)\n      tag_27\n      swap2\n      swap1\n      tag_23\n      jump\t// in\n    tag_27:\n      mload(0x40)\n      dup1\n      swap2\n      sub\n      swap1\n      return\n        /* \"Vesting Contract/v4.sol\":1173:1379  function removeWhitelist(address _add) public onlyOwner {... */\n    tag_6:\n      tag_28\n      0x04\n      dup1\n      calldatasize\n      sub\n      dup2\n      add\n      swap1\n      tag_29\n      swap2\n      swap1\n      tag_30\n      jump\t// in\n    tag_29:\n      tag_31\n      jump\t// in\n    tag_28:\n      stop\n        /* \"Vesting Contract/v4.sol\":700:746  mapping(address => bool) public CheckWhitelist */\n    tag_7:\n      tag_32\n      0x04\n      dup1\n      calldatasize\n      sub\n      dup2\n      add\n      swap1\n      tag_33\n      swap2\n      swap1\n      tag_30\n      jump\t// in\n    tag_33:\n      tag_34\n      jump\t// in\n    tag_32:\n      mload(0x40)\n      tag_35\n      swap2\n      swap1\n      tag_36\n      jump\t// in\n    tag_35:\n      mload(0x40)\n      dup1\n      swap2\n      sub\n      swap1\n      return\n        /* \"Vesting Contract/v4.sol\":641:694  mapping(address => VestingSchedule[]) public vestings */\n    tag_8:\n      tag_37\n      0x04\n      dup1\n      calldatasize\n      sub\n      dup2\n      add\n      swap1\n      tag_38\n      swap2\n      swap1\n      tag_39\n      jump\t// in\n    tag_38:\n      tag_40\n      jump\t// in\n    tag_37:\n      mload(0x40)\n      tag_41\n      swap5\n      swap4\n      swap3\n      swap2\n      swap1\n      tag_42\n      jump\t// in\n    tag_41:\n      mload(0x40)\n      dup1\n      swap2\n      sub\n      swap1\n      return\n        /* \"Vesting Contract/v4.sol\":5944:6049  function getTotalWhitelist() public view returns (uint256) {... */\n    tag_9:\n      tag_43\n      tag_44\n      jump\t// in\n    tag_43:\n      mload(0x40)\n      tag_45\n      swap2\n      swap1\n      tag_23\n      jump\t// in\n    tag_45:\n      mload(0x40)\n      dup1\n      swap2\n      sub\n      swap1\n      return\n        /* \"Vesting Contract/v4.sol\":5830:5938  function getTotalVesting() public view returns (uint256) {... */\n    tag_10:\n      tag_46\n      tag_47\n      jump\t// in\n    tag_46:\n      mload(0x40)\n      tag_48\n      swap2\n      swap1\n      tag_23\n      jump\t// in\n    tag_48:\n      mload(0x40)\n      dup1\n      swap2\n      sub\n      swap1\n      return\n        /* \"Vesting Contract/v4.sol\":752:784  address[] public WhiteListTokens */\n    tag_11:\n      tag_49\n      0x04\n      dup1\n      calldatasize\n      sub\n      dup2\n      add\n      swap1\n      tag_50\n      swap2\n      swap1\n      tag_18\n      jump\t// in\n    tag_50:\n      tag_51\n      jump\t// in\n    tag_49:\n      mload(0x40)\n      tag_52\n      swap2\n      swap1\n      tag_53\n      jump\t// in\n    tag_52:\n      mload(0x40)\n      dup1\n      swap2\n      sub\n      swap1\n      return\n        /* \"Vesting Contract/v4.sol\":958:1167  function addWhitelist(address _add) public onlyOwner {... */\n    tag_12:\n      tag_54\n      0x04\n      dup1\n      calldatasize\n      sub\n      dup2\n      add\n      swap1\n      tag_55\n      swap2\n      swap1\n      tag_30\n      jump\t// in\n    tag_55:\n      tag_56\n      jump\t// in\n    tag_54:\n      stop\n        /* \"Vesting Contract/v4.sol\":2481:4115  function lock(... */\n    tag_13:\n      tag_57\n      0x04\n      dup1\n      calldatasize\n      sub\n      dup2\n      add\n      swap1\n      tag_58\n      swap2\n      swap1\n      tag_59\n      jump\t// in\n    tag_58:\n      tag_60\n      jump\t// in\n    tag_57:\n      stop\n        /* \"Vesting Contract/v4.sol\":146:164  ERC20 public token */\n    tag_14:\n      tag_61\n      tag_62\n      jump\t// in\n    tag_61:\n      mload(0x40)\n      tag_63\n      swap2\n      swap1\n      tag_64\n      jump\t// in\n    tag_63:\n      mload(0x40)\n      dup1\n      swap2\n      sub\n      swap1\n      return\n        /* \"Vesting Contract/v4.sol\":4121:5046  function withdraw(uint256 index) external {... */\n    tag_19:\n        /* \"Vesting Contract/v4.sol\":4173:4204  VestingSchedule storage vesting */\n      0x00\n        /* \"Vesting Contract/v4.sol\":4207:4215  vestings */\n      0x02\n        /* \"Vesting Contract/v4.sol\":4207:4227  vestings[msg.sender] */\n      0x00\n        /* \"Vesting Contract/v4.sol\":4216:4226  msg.sender */\n      caller\n        /* \"Vesting Contract/v4.sol\":4207:4227  vestings[msg.sender] */\n      0xffffffffffffffffffffffffffffffffffffffff\n      and\n      0xffffffffffffffffffffffffffffffffffffffff\n      and\n      dup2\n      mstore\n      0x20\n      add\n      swap1\n      dup2\n      mstore\n      0x20\n      add\n      0x00\n      keccak256\n        /* \"Vesting Contract/v4.sol\":4228:4233  index */\n      dup3\n        /* \"Vesting Contract/v4.sol\":4207:4234  vestings[msg.sender][index] */\n      dup2\n      sload\n      dup2\n      lt\n      tag_66\n      jumpi\n      tag_67\n      tag_68\n      jump\t// in\n    tag_67:\n    tag_66:\n      swap1\n      0x00\n      mstore\n      keccak256(0x00, 0x20)\n      swap1\n      0x0b\n      mul\n      add\n        /* \"Vesting Contract/v4.sol\":4173:4234  VestingSchedule storage vesting = vestings[msg.sender][index] */\n      swap1\n      pop\n        /* \"Vesting Contract/v4.sol\":4252:4259  vesting */\n      dup1\n        /* \"Vesting Contract/v4.sol\":4252:4266  vesting.locked */\n      0x01\n      add\n      0x00\n      swap1\n      sload\n      swap1\n      0x0100\n      exp\n      swap1\n      div\n      0xff\n      and\n        /* \"Vesting Contract/v4.sol\":4244:4297  require(vesting.locked, \"Funds have not been locked\") */\n      tag_70\n      jumpi\n      mload(0x40)\n      0x08c379a000000000000000000000000000000000000000000000000000000000\n      dup2\n      mstore\n      0x04\n      add\n      tag_71\n      swap1\n      tag_72\n      jump\t// in\n    tag_71:\n      mload(0x40)\n      dup1\n      swap2\n      sub\n      swap1\n      revert\n    tag_70:\n        /* \"Vesting Contract/v4.sol\":4340:4347  vesting */\n      dup1\n        /* \"Vesting Contract/v4.sol\":4340:4354  vesting.params */\n      0x03\n      add\n        /* \"Vesting Contract/v4.sol\":4340:4360  vesting.params.start */\n      0x01\n      add\n      sload\n        /* \"Vesting Contract/v4.sol\":4328:4337  getTime() */\n      tag_73\n        /* \"Vesting Contract/v4.sol\":4328:4335  getTime */\n      tag_21\n        /* \"Vesting Contract/v4.sol\":4328:4337  getTime() */\n      jump\t// in\n    tag_73:\n        /* \"Vesting Contract/v4.sol\":4328:4360  getTime() > vesting.params.start */\n      gt\n        /* \"Vesting Contract/v4.sol\":4307:4420  require(... */\n      tag_74\n      jumpi\n      mload(0x40)\n      0x08c379a000000000000000000000000000000000000000000000000000000000\n      dup2\n      mstore\n      0x04\n      add\n      tag_75\n      swap1\n      tag_76\n      jump\t// in\n    tag_75:\n      mload(0x40)\n      dup1\n      swap2\n      sub\n      swap1\n      revert\n    tag_74:\n        /* \"Vesting Contract/v4.sol\":4499:4508  getTime() */\n      tag_77\n        /* \"Vesting Contract/v4.sol\":4499:4506  getTime */\n      tag_21\n        /* \"Vesting Contract/v4.sol\":4499:4508  getTime() */\n      jump\t// in\n    tag_77:\n        /* \"Vesting Contract/v4.sol\":4475:4482  vesting */\n      dup2\n        /* \"Vesting Contract/v4.sol\":4475:4489  vesting.params */\n      0x03\n      add\n        /* \"Vesting Contract/v4.sol\":4475:4495  vesting.params.start */\n      0x01\n      add\n      sload\n        /* \"Vesting Contract/v4.sol\":4452:4459  vesting */\n      dup3\n        /* \"Vesting Contract/v4.sol\":4452:4466  vesting.params */\n      0x03\n      add\n        /* \"Vesting Contract/v4.sol\":4452:4472  vesting.params.cliff */\n      0x04\n      add\n      sload\n        /* \"Vesting Contract/v4.sol\":4452:4495  vesting.params.cliff + vesting.params.start */\n      tag_78\n      swap2\n      swap1\n      tag_79\n      jump\t// in\n    tag_78:\n        /* \"Vesting Contract/v4.sol\":4451:4508  (vesting.params.cliff + vesting.params.start) < getTime() */\n      lt\n        /* \"Vesting Contract/v4.sol\":4430:4565  require(... */\n      tag_80\n      jumpi\n      mload(0x40)\n      0x08c379a000000000000000000000000000000000000000000000000000000000\n      dup2\n      mstore\n      0x04\n      add\n      tag_81\n      swap1\n      tag_82\n      jump\t// in\n    tag_81:\n      mload(0x40)\n      dup1\n      swap2\n      sub\n      swap1\n      revert\n    tag_80:\n        /* \"Vesting Contract/v4.sol\":4575:4595  uint256 withdrawable */\n      0x00\n        /* \"Vesting Contract/v4.sol\":4598:4639  calculate_available_withdraw_token(index) */\n      tag_83\n        /* \"Vesting Contract/v4.sol\":4633:4638  index */\n      dup4\n        /* \"Vesting Contract/v4.sol\":4598:4632  calculate_available_withdraw_token */\n      tag_26\n        /* \"Vesting Contract/v4.sol\":4598:4639  calculate_available_withdraw_token(index) */\n      jump\t// in\n    tag_83:\n        /* \"Vesting Contract/v4.sol\":4575:4639  uint256 withdrawable = calculate_available_withdraw_token(index) */\n      swap1\n      pop\n        /* \"Vesting Contract/v4.sol\":4672:4673  0 */\n      0x00\n        /* \"Vesting Contract/v4.sol\":4657:4669  withdrawable */\n      dup2\n        /* \"Vesting Contract/v4.sol\":4657:4673  withdrawable > 0 */\n      gt\n        /* \"Vesting Contract/v4.sol\":4649:4720  require(withdrawable > 0, \"Not enough amount available for withdrawal\") */\n      tag_84\n      jumpi\n      mload(0x40)\n      0x08c379a000000000000000000000000000000000000000000000000000000000\n      dup2\n      mstore\n      0x04\n      add\n      tag_85\n      swap1\n      tag_86\n      jump\t// in\n    tag_85:\n      mload(0x40)\n      dup1\n      swap2\n      sub\n      swap1\n      revert\n    tag_84:\n        /* \"Vesting Contract/v4.sol\":4736:4743  vesting */\n      dup2\n        /* \"Vesting Contract/v4.sol\":4736:4750  vesting.params */\n      0x03\n      add\n        /* \"Vesting Contract/v4.sol\":4736:4763  vesting.params.TokenAddress */\n      0x07\n      add\n      0x00\n      swap1\n      sload\n      swap1\n      0x0100\n      exp\n      swap1\n      div\n      0xffffffffffffffffffffffffffffffffffffffff\n      and\n        /* \"Vesting Contract/v4.sol\":4730:4773  ERC20(vesting.params.TokenAddress).transfer */\n      0xffffffffffffffffffffffffffffffffffffffff\n      and\n      0xa9059cbb\n        /* \"Vesting Contract/v4.sol\":4774:4784  msg.sender */\n      caller\n        /* \"Vesting Contract/v4.sol\":4786:4798  withdrawable */\n      dup4\n        /* \"Vesting Contract/v4.sol\":4730:4799  ERC20(vesting.params.TokenAddress).transfer(msg.sender, withdrawable) */\n      mload(0x40)\n      dup4\n      0xffffffff\n      and\n      0xe0\n      shl\n      dup2\n      mstore\n      0x04\n      add\n      tag_87\n      swap3\n      swap2\n      swap1\n      tag_88\n      jump\t// in\n    tag_87:\n      0x20\n      mload(0x40)\n      dup1\n      dup4\n      sub\n      dup2\n      0x00\n      dup8\n      gas\n      call\n      iszero\n      dup1\n      iszero\n      tag_90\n      jumpi\n      returndatasize\n      0x00\n      dup1\n      returndatacopy\n      revert(0x00, returndatasize)\n    tag_90:\n      pop\n      pop\n      pop\n      pop\n      mload(0x40)\n      returndatasize\n      not(0x1f)\n      0x1f\n      dup3\n      add\n      and\n      dup3\n      add\n      dup1\n      0x40\n      mstore\n      pop\n      dup2\n      add\n      swap1\n      tag_91\n      swap2\n      swap1\n      tag_92\n      jump\t// in\n    tag_91:\n      pop\n        /* \"Vesting Contract/v4.sol\":4828:4840  withdrawable */\n      dup1\n        /* \"Vesting Contract/v4.sol\":4809:4816  vesting */\n      dup3\n        /* \"Vesting Contract/v4.sol\":4809:4824  vesting.claimed */\n      0x02\n      add\n      0x00\n        /* \"Vesting Contract/v4.sol\":4809:4840  vesting.claimed += withdrawable */\n      dup3\n      dup3\n      sload\n      tag_93\n      swap2\n      swap1\n      tag_79\n      jump\t// in\n    tag_93:\n      swap3\n      pop\n      pop\n      dup2\n      swap1\n      sstore\n      pop\n        /* \"Vesting Contract/v4.sol\":4875:4887  withdrawable */\n      dup1\n        /* \"Vesting Contract/v4.sol\":4850:4857  vesting */\n      dup3\n        /* \"Vesting Contract/v4.sol\":4850:4864  vesting.params */\n      0x03\n      add\n        /* \"Vesting Contract/v4.sol\":4850:4871  vesting.params.amount */\n      0x00\n      add\n      0x00\n        /* \"Vesting Contract/v4.sol\":4850:4887  vesting.params.amount -= withdrawable */\n      dup3\n      dup3\n      sload\n      tag_94\n      swap2\n      swap1\n      tag_95\n      jump\t// in\n    tag_94:\n      swap3\n      pop\n      pop\n      dup2\n      swap1\n      sstore\n      pop\n        /* \"Vesting Contract/v4.sol\":4926:4927  0 */\n      0x00\n        /* \"Vesting Contract/v4.sol\":4901:4908  vesting */\n      dup3\n        /* \"Vesting Contract/v4.sol\":4901:4915  vesting.params */\n      0x03\n      add\n        /* \"Vesting Contract/v4.sol\":4901:4922  vesting.params.amount */\n      0x00\n      add\n      sload\n        /* \"Vesting Contract/v4.sol\":4901:4927  vesting.params.amount == 0 */\n      sub\n        /* \"Vesting Contract/v4.sol\":4897:4976  if (vesting.params.amount == 0) {... */\n      tag_96\n      jumpi\n        /* \"Vesting Contract/v4.sol\":4960:4965  false */\n      0x00\n        /* \"Vesting Contract/v4.sol\":4943:4950  vesting */\n      dup3\n        /* \"Vesting Contract/v4.sol\":4943:4957  vesting.locked */\n      0x01\n      add\n      0x00\n        /* \"Vesting Contract/v4.sol\":4943:4965  vesting.locked = false */\n      0x0100\n      exp\n      dup2\n      sload\n      dup2\n      0xff\n      mul\n      not\n      and\n      swap1\n      dup4\n      iszero\n      iszero\n      mul\n      or\n      swap1\n      sstore\n      pop\n        /* \"Vesting Contract/v4.sol\":4897:4976  if (vesting.params.amount == 0) {... */\n    tag_96:\n        /* \"Vesting Contract/v4.sol\":4990:5039  VestingWithdrawn(msg.sender, index, withdrawable) */\n      0xccdb21e8b29fbf756f29d5f05c72606ca9e8160ec1a135ca6f50dae471188cec\n        /* \"Vesting Contract/v4.sol\":5007:5017  msg.sender */\n      caller\n        /* \"Vesting Contract/v4.sol\":5019:5024  index */\n      dup5\n        /* \"Vesting Contract/v4.sol\":5026:5038  withdrawable */\n      dup4\n        /* \"Vesting Contract/v4.sol\":4990:5039  VestingWithdrawn(msg.sender, index, withdrawable) */\n      mload(0x40)\n      tag_97\n      swap4\n      swap3\n      swap2\n      swap1\n      tag_98\n      jump\t// in\n    tag_97:\n      mload(0x40)\n      dup1\n      swap2\n      sub\n      swap1\n      log1\n        /* \"Vesting Contract/v4.sol\":4163:5046  {... */\n      pop\n      pop\n        /* \"Vesting Contract/v4.sol\":4121:5046  function withdraw(uint256 index) external {... */\n      pop\n      jump\t// out\n        /* \"Vesting Contract/v4.sol\":5736:5824  function getTime() public view returns (uint256) {... */\n    tag_21:\n        /* \"Vesting Contract/v4.sol\":5776:5783  uint256 */\n      0x00\n        /* \"Vesting Contract/v4.sol\":5802:5817  block.timestamp */\n      timestamp\n        /* \"Vesting Contract/v4.sol\":5795:5817  return block.timestamp */\n      swap1\n      pop\n        /* \"Vesting Contract/v4.sol\":5736:5824  function getTime() public view returns (uint256) {... */\n      swap1\n      jump\t// out\n        /* \"Vesting Contract/v4.sol\":5052:5730  function calculate_available_withdraw_token(uint256 index)... */\n    tag_26:\n        /* \"Vesting Contract/v4.sol\":5156:5163  uint256 */\n      0x00\n        /* \"Vesting Contract/v4.sol\":5182:5212  VestingSchedule memory vesting */\n      dup1\n        /* \"Vesting Contract/v4.sol\":5215:5223  vestings */\n      0x02\n        /* \"Vesting Contract/v4.sol\":5215:5235  vestings[msg.sender] */\n      0x00\n        /* \"Vesting Contract/v4.sol\":5224:5234  msg.sender */\n      caller\n        /* \"Vesting Contract/v4.sol\":5215:5235  vestings[msg.sender] */\n      0xffffffffffffffffffffffffffffffffffffffff\n      and\n      0xffffffffffffffffffffffffffffffffffffffff\n      and\n      dup2\n      mstore\n      0x20\n      add\n      swap1\n      dup2\n      mstore\n      0x20\n      add\n      0x00\n      keccak256\n        /* \"Vesting Contract/v4.sol\":5236:5241  index */\n      dup4\n        /* \"Vesting Contract/v4.sol\":5215:5242  vestings[msg.sender][index] */\n      dup2\n      sload\n      dup2\n      lt\n      tag_101\n      jumpi\n      tag_102\n      tag_68\n      jump\t// in\n    tag_102:\n    tag_101:\n      swap1\n      0x00\n      mstore\n      keccak256(0x00, 0x20)\n      swap1\n      0x0b\n      mul\n      add\n        /* \"Vesting Contract/v4.sol\":5182:5242  VestingSchedule memory vesting = vestings[msg.sender][index] */\n      mload(0x40)\n      dup1\n      0x80\n      add\n      0x40\n      mstore\n      swap1\n      dup2\n      0x00\n      dup3\n      add\n      sload\n      dup2\n      mstore\n      0x20\n      add\n      0x01\n      dup3\n      add\n      0x00\n      swap1\n      sload\n      swap1\n      0x0100\n      exp\n      swap1\n      div\n      0xff\n      and\n      iszero\n      iszero\n      iszero\n      iszero\n      dup2\n      mstore\n      0x20\n      add\n      0x02\n      dup3\n      add\n      sload\n      dup2\n      mstore\n      0x20\n      add\n      0x03\n      dup3\n      add\n      mload(0x40)\n      dup1\n      0x0100\n      add\n      0x40\n      mstore\n      swap1\n      dup2\n      0x00\n      dup3\n      add\n      sload\n      dup2\n      mstore\n      0x20\n      add\n      0x01\n      dup3\n      add\n      sload\n      dup2\n      mstore\n      0x20\n      add\n      0x02\n      dup3\n      add\n      sload\n      dup2\n      mstore\n      0x20\n      add\n      0x03\n      dup3\n      add\n      sload\n      dup2\n      mstore\n      0x20\n      add\n      0x04\n      dup3\n      add\n      sload\n      dup2\n      mstore\n      0x20\n      add\n      0x05\n      dup3\n      add\n      sload\n      dup2\n      mstore\n      0x20\n      add\n      0x06\n      dup3\n      add\n      0x00\n      swap1\n      sload\n      swap1\n      0x0100\n      exp\n      swap1\n      div\n      0xffffffffffffffffffffffffffffffffffffffff\n      and\n      0xffffffffffffffffffffffffffffffffffffffff\n      and\n      0xffffffffffffffffffffffffffffffffffffffff\n      and\n      dup2\n      mstore\n      0x20\n      add\n      0x07\n      dup3\n      add\n      0x00\n      swap1\n      sload\n      swap1\n      0x0100\n      exp\n      swap1\n      div\n      0xffffffffffffffffffffffffffffffffffffffff\n      and\n      0xffffffffffffffffffffffffffffffffffffffff\n      and\n      0xffffffffffffffffffffffffffffffffffffffff\n      and\n      dup2\n      mstore\n      pop\n      pop\n      dup2\n      mstore\n      pop\n      pop\n      swap1\n      pop\n        /* \"Vesting Contract/v4.sol\":5272:5279  vesting */\n      dup1\n        /* \"Vesting Contract/v4.sol\":5272:5286  vesting.params */\n      0x60\n      add\n      mload\n        /* \"Vesting Contract/v4.sol\":5272:5292  vesting.params.start */\n      0x20\n      add\n      mload\n        /* \"Vesting Contract/v4.sol\":5260:5269  getTime() */\n      tag_104\n        /* \"Vesting Contract/v4.sol\":5260:5267  getTime */\n      tag_21\n        /* \"Vesting Contract/v4.sol\":5260:5269  getTime() */\n      jump\t// in\n    tag_104:\n        /* \"Vesting Contract/v4.sol\":5260:5292  getTime() > vesting.params.start */\n      gt\n        /* \"Vesting Contract/v4.sol\":5252:5319  require(getTime() > vesting.params.start,\"Vesting not started yet\") */\n      tag_105\n      jumpi\n      mload(0x40)\n      0x08c379a000000000000000000000000000000000000000000000000000000000\n      dup2\n      mstore\n      0x04\n      add\n      tag_106\n      swap1\n      tag_107\n      jump\t// in\n    tag_106:\n      mload(0x40)\n      dup1\n      swap2\n      sub\n      swap1\n      revert\n    tag_105:\n        /* \"Vesting Contract/v4.sol\":5329:5354  uint256 total_slice_count */\n      0x00\n        /* \"Vesting Contract/v4.sol\":5406:5413  vesting */\n      dup2\n        /* \"Vesting Contract/v4.sol\":5406:5420  vesting.params */\n      0x60\n      add\n      mload\n        /* \"Vesting Contract/v4.sol\":5406:5433  vesting.params.slice_period */\n      0x60\n      add\n      mload\n        /* \"Vesting Contract/v4.sol\":5370:5377  vesting */\n      dup3\n        /* \"Vesting Contract/v4.sol\":5370:5384  vesting.params */\n      0x60\n      add\n      mload\n        /* \"Vesting Contract/v4.sol\":5370:5390  vesting.params.start */\n      0x20\n      add\n      mload\n        /* \"Vesting Contract/v4.sol\":5358:5367  getTime() */\n      tag_108\n        /* \"Vesting Contract/v4.sol\":5358:5365  getTime */\n      tag_21\n        /* \"Vesting Contract/v4.sol\":5358:5367  getTime() */\n      jump\t// in\n    tag_108:\n        /* \"Vesting Contract/v4.sol\":5358:5390  getTime() - vesting.params.start */\n      tag_109\n      swap2\n      swap1\n      tag_95\n      jump\t// in\n    tag_109:\n        /* \"Vesting Contract/v4.sol\":5357:5433  (getTime() - vesting.params.start) /... */\n      tag_110\n      swap2\n      swap1\n      tag_111\n      jump\t// in\n    tag_110:\n        /* \"Vesting Contract/v4.sol\":5329:5433  uint256 total_slice_count = (getTime() - vesting.params.start) /... */\n      swap1\n      pop\n        /* \"Vesting Contract/v4.sol\":5443:5469  uint256 total_mul_withdraw */\n      0x00\n        /* \"Vesting Contract/v4.sol\":5542:5549  vesting */\n      dup3\n        /* \"Vesting Contract/v4.sol\":5542:5557  vesting.claimed */\n      0x40\n      add\n      mload\n        /* \"Vesting Contract/v4.sol\":5505:5512  vesting */\n      dup4\n        /* \"Vesting Contract/v4.sol\":5505:5519  vesting.params */\n      0x60\n      add\n      mload\n        /* \"Vesting Contract/v4.sol\":5505:5538  vesting.params.recive_on_interval */\n      0xa0\n      add\n      mload\n        /* \"Vesting Contract/v4.sol\":5473:5490  total_slice_count */\n      dup4\n        /* \"Vesting Contract/v4.sol\":5473:5538  total_slice_count *... */\n      tag_112\n      swap2\n      swap1\n      tag_113\n      jump\t// in\n    tag_112:\n        /* \"Vesting Contract/v4.sol\":5472:5557  (total_slice_count *... */\n      tag_114\n      swap2\n      swap1\n      tag_95\n      jump\t// in\n    tag_114:\n        /* \"Vesting Contract/v4.sol\":5443:5557  uint256 total_mul_withdraw = (total_slice_count *... */\n      swap1\n      pop\n        /* \"Vesting Contract/v4.sol\":5592:5599  vesting */\n      dup3\n        /* \"Vesting Contract/v4.sol\":5592:5606  vesting.params */\n      0x60\n      add\n      mload\n        /* \"Vesting Contract/v4.sol\":5592:5613  vesting.params.amount */\n      0x00\n      add\n      mload\n        /* \"Vesting Contract/v4.sol\":5571:5589  total_mul_withdraw */\n      dup2\n        /* \"Vesting Contract/v4.sol\":5571:5613  total_mul_withdraw < vesting.params.amount */\n      lt\n        /* \"Vesting Contract/v4.sol\":5567:5724  if (total_mul_withdraw < vesting.params.amount) {... */\n      iszero\n      tag_115\n      jumpi\n        /* \"Vesting Contract/v4.sol\":5636:5654  total_mul_withdraw */\n      dup1\n        /* \"Vesting Contract/v4.sol\":5629:5654  return total_mul_withdraw */\n      swap4\n      pop\n      pop\n      pop\n      pop\n      jump(tag_100)\n        /* \"Vesting Contract/v4.sol\":5567:5724  if (total_mul_withdraw < vesting.params.amount) {... */\n    tag_115:\n        /* \"Vesting Contract/v4.sol\":5692:5699  vesting */\n      dup3\n        /* \"Vesting Contract/v4.sol\":5692:5706  vesting.params */\n      0x60\n      add\n      mload\n        /* \"Vesting Contract/v4.sol\":5692:5713  vesting.params.amount */\n      0x00\n      add\n      mload\n        /* \"Vesting Contract/v4.sol\":5685:5713  return vesting.params.amount */\n      swap4\n      pop\n      pop\n      pop\n      pop\n        /* \"Vesting Contract/v4.sol\":5052:5730  function calculate_available_withdraw_token(uint256 index)... */\n    tag_100:\n      swap2\n      swap1\n      pop\n      jump\t// out\n        /* \"Vesting Contract/v4.sol\":1173:1379  function removeWhitelist(address _add) public onlyOwner {... */\n    tag_31:\n        /* \"Vesting Contract/v4.sol\":857:862  owner */\n      0x01\n      0x00\n      swap1\n      sload\n      swap1\n      0x0100\n      exp\n      swap1\n      div\n      0xffffffffffffffffffffffffffffffffffffffff\n      and\n        /* \"Vesting Contract/v4.sol\":843:862  msg.sender == owner */\n      0xffffffffffffffffffffffffffffffffffffffff\n      and\n        /* \"Vesting Contract/v4.sol\":843:853  msg.sender */\n      caller\n        /* \"Vesting Contract/v4.sol\":843:862  msg.sender == owner */\n      0xffffffffffffffffffffffffffffffffffffffff\n      and\n      eq\n        /* \"Vesting Contract/v4.sol\":822:934  require(... */\n      tag_118\n      jumpi\n      mload(0x40)\n      0x08c379a000000000000000000000000000000000000000000000000000000000\n      dup2\n      mstore\n      0x04\n      add\n      tag_119\n      swap1\n      tag_120\n      jump\t// in\n    tag_119:\n      mload(0x40)\n      dup1\n      swap2\n      sub\n      swap1\n      revert\n    tag_118:\n        /* \"Vesting Contract/v4.sol\":1247:1261  CheckWhitelist */\n      0x03\n        /* \"Vesting Contract/v4.sol\":1247:1267  CheckWhitelist[_add] */\n      0x00\n        /* \"Vesting Contract/v4.sol\":1262:1266  _add */\n      dup3\n        /* \"Vesting Contract/v4.sol\":1247:1267  CheckWhitelist[_add] */\n      0xffffffffffffffffffffffffffffffffffffffff\n      and\n      0xffffffffffffffffffffffffffffffffffffffff\n      and\n      dup2\n      mstore\n      0x20\n      add\n      swap1\n      dup2\n      mstore\n      0x20\n      add\n      0x00\n      keccak256\n      0x00\n      swap1\n      sload\n      swap1\n      0x0100\n      exp\n      swap1\n      div\n      0xff\n      and\n        /* \"Vesting Contract/v4.sol\":1239:1297  require(CheckWhitelist[_add], \"Token is not in whitelist\") */\n      tag_122\n      jumpi\n      mload(0x40)\n      0x08c379a000000000000000000000000000000000000000000000000000000000\n      dup2\n      mstore\n      0x04\n      add\n      tag_123\n      swap1\n      tag_124\n      jump\t// in\n    tag_123:\n      mload(0x40)\n      dup1\n      swap2\n      sub\n      swap1\n      revert\n    tag_122:\n        /* \"Vesting Contract/v4.sol\":1330:1335  false */\n      0x00\n        /* \"Vesting Contract/v4.sol\":1307:1321  CheckWhitelist */\n      0x03\n        /* \"Vesting Contract/v4.sol\":1307:1327  CheckWhitelist[_add] */\n      0x00\n        /* \"Vesting Contract/v4.sol\":1322:1326  _add */\n      dup4\n        /* \"Vesting Contract/v4.sol\":1307:1327  CheckWhitelist[_add] */\n      0xffffffffffffffffffffffffffffffffffffffff\n      and\n      0xffffffffffffffffffffffffffffffffffffffff\n      and\n      dup2\n      mstore\n      0x20\n      add\n      swap1\n      dup2\n      mstore\n      0x20\n      add\n      0x00\n      keccak256\n      0x00\n        /* \"Vesting Contract/v4.sol\":1307:1335  CheckWhitelist[_add] = false */\n      0x0100\n      exp\n      dup2\n      sload\n      dup2\n      0xff\n      mul\n      not\n      and\n      swap1\n      dup4\n      iszero\n      iszero\n      mul\n      or\n      swap1\n      sstore\n      pop\n        /* \"Vesting Contract/v4.sol\":1352:1366  CheckWhitelist */\n      0x03\n        /* \"Vesting Contract/v4.sol\":1352:1372  CheckWhitelist[_add] */\n      0x00\n        /* \"Vesting Contract/v4.sol\":1367:1371  _add */\n      dup3\n        /* \"Vesting Contract/v4.sol\":1352:1372  CheckWhitelist[_add] */\n      0xffffffffffffffffffffffffffffffffffffffff\n      and\n      0xffffffffffffffffffffffffffffffffffffffff\n      and\n      dup2\n      mstore\n      0x20\n      add\n      swap1\n      dup2\n      mstore\n      0x20\n      add\n      0x00\n      keccak256\n      0x00\n        /* \"Vesting Contract/v4.sol\":1345:1372  delete CheckWhitelist[_add] */\n      0x0100\n      exp\n      dup2\n      sload\n      swap1\n      0xff\n      mul\n      not\n      and\n      swap1\n      sstore\n        /* \"Vesting Contract/v4.sol\":1173:1379  function removeWhitelist(address _add) public onlyOwner {... */\n      pop\n      jump\t// out\n        /* \"Vesting Contract/v4.sol\":700:746  mapping(address => bool) public CheckWhitelist */\n    tag_34:\n      mstore(0x20, 0x03)\n      dup1\n      0x00\n      mstore\n      keccak256(0x00, 0x40)\n      0x00\n      swap2\n      pop\n      sload\n      swap1\n      0x0100\n      exp\n      swap1\n      div\n      0xff\n      and\n      dup2\n      jump\t// out\n        /* \"Vesting Contract/v4.sol\":641:694  mapping(address => VestingSchedule[]) public vestings */\n    tag_40:\n      mstore(0x20, 0x02)\n      dup2\n      0x00\n      mstore\n      keccak256(0x00, 0x40)\n      dup2\n      dup2\n      sload\n      dup2\n      lt\n      tag_125\n      jumpi\n      0x00\n      dup1\n      revert\n    tag_125:\n      swap1\n      0x00\n      mstore\n      keccak256(0x00, 0x20)\n      swap1\n      0x0b\n      mul\n      add\n      0x00\n      swap2\n      pop\n      swap2\n      pop\n      pop\n      dup1\n      0x00\n      add\n      sload\n      swap1\n      dup1\n      0x01\n      add\n      0x00\n      swap1\n      sload\n      swap1\n      0x0100\n      exp\n      swap1\n      div\n      0xff\n      and\n      swap1\n      dup1\n      0x02\n      add\n      sload\n      swap1\n      dup1\n      0x03\n      add\n      mload(0x40)\n      dup1\n      0x0100\n      add\n      0x40\n      mstore\n      swap1\n      dup2\n      0x00\n      dup3\n      add\n      sload\n      dup2\n      mstore\n      0x20\n      add\n      0x01\n      dup3\n      add\n      sload\n      dup2\n      mstore\n      0x20\n      add\n      0x02\n      dup3\n      add\n      sload\n      dup2\n      mstore\n      0x20\n      add\n      0x03\n      dup3\n      add\n      sload\n      dup2\n      mstore\n      0x20\n      add\n      0x04\n      dup3\n      add\n      sload\n      dup2\n      mstore\n      0x20\n      add\n      0x05\n      dup3\n      add\n      sload\n      dup2\n      mstore\n      0x20\n      add\n      0x06\n      dup3\n      add\n      0x00\n      swap1\n      sload\n      swap1\n      0x0100\n      exp\n      swap1\n      div\n      0xffffffffffffffffffffffffffffffffffffffff\n      and\n      0xffffffffffffffffffffffffffffffffffffffff\n      and\n      0xffffffffffffffffffffffffffffffffffffffff\n      and\n      dup2\n      mstore\n      0x20\n      add\n      0x07\n      dup3\n      add\n      0x00\n      swap1\n      sload\n      swap1\n      0x0100\n      exp\n      swap1\n      div\n      0xffffffffffffffffffffffffffffffffffffffff\n      and\n      0xffffffffffffffffffffffffffffffffffffffff\n      and\n      0xffffffffffffffffffffffffffffffffffffffff\n      and\n      dup2\n      mstore\n      pop\n      pop\n      swap1\n      pop\n      dup5\n      jump\t// out\n        /* \"Vesting Contract/v4.sol\":5944:6049  function getTotalWhitelist() public view returns (uint256) {... */\n    tag_44:\n        /* \"Vesting Contract/v4.sol\":5994:6001  uint256 */\n      0x00\n        /* \"Vesting Contract/v4.sol\":6020:6035  WhiteListTokens */\n      0x04\n        /* \"Vesting Contract/v4.sol\":6020:6042  WhiteListTokens.length */\n      dup1\n      sload\n      swap1\n      pop\n        /* \"Vesting Contract/v4.sol\":6013:6042  return WhiteListTokens.length */\n      swap1\n      pop\n        /* \"Vesting Contract/v4.sol\":5944:6049  function getTotalWhitelist() public view returns (uint256) {... */\n      swap1\n      jump\t// out\n        /* \"Vesting Contract/v4.sol\":5830:5938  function getTotalVesting() public view returns (uint256) {... */\n    tag_47:\n        /* \"Vesting Contract/v4.sol\":5878:5885  uint256 */\n      0x00\n        /* \"Vesting Contract/v4.sol\":5904:5912  vestings */\n      0x02\n        /* \"Vesting Contract/v4.sol\":5904:5924  vestings[msg.sender] */\n      0x00\n        /* \"Vesting Contract/v4.sol\":5913:5923  msg.sender */\n      caller\n        /* \"Vesting Contract/v4.sol\":5904:5924  vestings[msg.sender] */\n      0xffffffffffffffffffffffffffffffffffffffff\n      and\n      0xffffffffffffffffffffffffffffffffffffffff\n      and\n      dup2\n      mstore\n      0x20\n      add\n      swap1\n      dup2\n      mstore\n      0x20\n      add\n      0x00\n      keccak256\n        /* \"Vesting Contract/v4.sol\":5904:5931  vestings[msg.sender].length */\n      dup1\n      sload\n      swap1\n      pop\n        /* \"Vesting Contract/v4.sol\":5897:5931  return vestings[msg.sender].length */\n      swap1\n      pop\n        /* \"Vesting Contract/v4.sol\":5830:5938  function getTotalVesting() public view returns (uint256) {... */\n      swap1\n      jump\t// out\n        /* \"Vesting Contract/v4.sol\":752:784  address[] public WhiteListTokens */\n    tag_51:\n      0x04\n      dup2\n      dup2\n      sload\n      dup2\n      lt\n      tag_129\n      jumpi\n      0x00\n      dup1\n      revert\n    tag_129:\n      swap1\n      0x00\n      mstore\n      keccak256(0x00, 0x20)\n      add\n      0x00\n      swap2\n      pop\n      sload\n      swap1\n      0x0100\n      exp\n      swap1\n      div\n      0xffffffffffffffffffffffffffffffffffffffff\n      and\n      dup2\n      jump\t// out\n        /* \"Vesting Contract/v4.sol\":958:1167  function addWhitelist(address _add) public onlyOwner {... */\n    tag_56:\n        /* \"Vesting Contract/v4.sol\":857:862  owner */\n      0x01\n      0x00\n      swap1\n      sload\n      swap1\n      0x0100\n      exp\n      swap1\n      div\n      0xffffffffffffffffffffffffffffffffffffffff\n      and\n        /* \"Vesting Contract/v4.sol\":843:862  msg.sender == owner */\n      0xffffffffffffffffffffffffffffffffffffffff\n      and\n        /* \"Vesting Contract/v4.sol\":843:853  msg.sender */\n      caller\n        /* \"Vesting Contract/v4.sol\":843:862  msg.sender == owner */\n      0xffffffffffffffffffffffffffffffffffffffff\n      and\n      eq\n        /* \"Vesting Contract/v4.sol\":822:934  require(... */\n      tag_132\n      jumpi\n      mload(0x40)\n      0x08c379a000000000000000000000000000000000000000000000000000000000\n      dup2\n      mstore\n      0x04\n      add\n      tag_133\n      swap1\n      tag_120\n      jump\t// in\n    tag_133:\n      mload(0x40)\n      dup1\n      swap2\n      sub\n      swap1\n      revert\n    tag_132:\n        /* \"Vesting Contract/v4.sol\":1030:1044  CheckWhitelist */\n      0x03\n        /* \"Vesting Contract/v4.sol\":1030:1050  CheckWhitelist[_add] */\n      0x00\n        /* \"Vesting Contract/v4.sol\":1045:1049  _add */\n      dup3\n        /* \"Vesting Contract/v4.sol\":1030:1050  CheckWhitelist[_add] */\n      0xffffffffffffffffffffffffffffffffffffffff\n      and\n      0xffffffffffffffffffffffffffffffffffffffff\n      and\n      dup2\n      mstore\n      0x20\n      add\n      swap1\n      dup2\n      mstore\n      0x20\n      add\n      0x00\n      keccak256\n      0x00\n      swap1\n      sload\n      swap1\n      0x0100\n      exp\n      swap1\n      div\n      0xff\n      and\n        /* \"Vesting Contract/v4.sol\":1029:1050  !CheckWhitelist[_add] */\n      iszero\n        /* \"Vesting Contract/v4.sol\":1021:1087  require(!CheckWhitelist[_add], \"Token already added to whitelist\") */\n      tag_135\n      jumpi\n      mload(0x40)\n      0x08c379a000000000000000000000000000000000000000000000000000000000\n      dup2\n      mstore\n      0x04\n      add\n      tag_136\n      swap1\n      tag_137\n      jump\t// in\n    tag_136:\n      mload(0x40)\n      dup1\n      swap2\n      sub\n      swap1\n      revert\n    tag_135:\n        /* \"Vesting Contract/v4.sol\":1120:1124  true */\n      0x01\n        /* \"Vesting Contract/v4.sol\":1097:1111  CheckWhitelist */\n      0x03\n        /* \"Vesting Contract/v4.sol\":1097:1117  CheckWhitelist[_add] */\n      0x00\n        /* \"Vesting Contract/v4.sol\":1112:1116  _add */\n      dup4\n        /* \"Vesting Contract/v4.sol\":1097:1117  CheckWhitelist[_add] */\n      0xffffffffffffffffffffffffffffffffffffffff\n      and\n      0xffffffffffffffffffffffffffffffffffffffff\n      and\n      dup2\n      mstore\n      0x20\n      add\n      swap1\n      dup2\n      mstore\n      0x20\n      add\n      0x00\n      keccak256\n      0x00\n        /* \"Vesting Contract/v4.sol\":1097:1124  CheckWhitelist[_add] = true */\n      0x0100\n      exp\n      dup2\n      sload\n      dup2\n      0xff\n      mul\n      not\n      and\n      swap1\n      dup4\n      iszero\n      iszero\n      mul\n      or\n      swap1\n      sstore\n      pop\n        /* \"Vesting Contract/v4.sol\":1134:1149  WhiteListTokens */\n      0x04\n        /* \"Vesting Contract/v4.sol\":1155:1159  _add */\n      dup2\n        /* \"Vesting Contract/v4.sol\":1134:1160  WhiteListTokens.push(_add) */\n      swap1\n      dup1\n      0x01\n      dup2\n      sload\n      add\n      dup1\n      dup3\n      sstore\n      dup1\n      swap2\n      pop\n      pop\n      0x01\n      swap1\n      sub\n      swap1\n      0x00\n      mstore\n      keccak256(0x00, 0x20)\n      add\n      0x00\n      swap1\n      swap2\n      swap1\n      swap2\n      swap1\n      swap2\n      0x0100\n      exp\n      dup2\n      sload\n      dup2\n      0xffffffffffffffffffffffffffffffffffffffff\n      mul\n      not\n      and\n      swap1\n      dup4\n      0xffffffffffffffffffffffffffffffffffffffff\n      and\n      mul\n      or\n      swap1\n      sstore\n      pop\n        /* \"Vesting Contract/v4.sol\":958:1167  function addWhitelist(address _add) public onlyOwner {... */\n      pop\n      jump\t// out\n        /* \"Vesting Contract/v4.sol\":2481:4115  function lock(... */\n    tag_60:\n        /* \"Vesting Contract/v4.sol\":2746:3145  VestingParams({... */\n      mload(0x40)\n      dup1\n      0x0100\n      add\n      0x40\n      mstore\n      dup1\n        /* \"Vesting Contract/v4.sol\":2786:2793  _amount */\n      dup9\n        /* \"Vesting Contract/v4.sol\":2746:3145  VestingParams({... */\n      dup2\n      mstore\n      0x20\n      add\n        /* \"Vesting Contract/v4.sol\":2827:2836  getTime() */\n      tag_139\n        /* \"Vesting Contract/v4.sol\":2827:2834  getTime */\n      tag_21\n        /* \"Vesting Contract/v4.sol\":2827:2836  getTime() */\n      jump\t// in\n    tag_139:\n        /* \"Vesting Contract/v4.sol\":2818:2824  _start */\n      dup9\n        /* \"Vesting Contract/v4.sol\":2818:2836  _start + getTime() */\n      tag_140\n      swap2\n      swap1\n      tag_79\n      jump\t// in\n    tag_140:\n        /* \"Vesting Contract/v4.sol\":2746:3145  VestingParams({... */\n      dup2\n      mstore\n      0x20\n      add\n        /* \"Vesting Contract/v4.sol\":2864:2873  _duration */\n      dup7\n        /* \"Vesting Contract/v4.sol\":2746:3145  VestingParams({... */\n      dup2\n      mstore\n      0x20\n      add\n        /* \"Vesting Contract/v4.sol\":2905:2918  _slice_period */\n      dup6\n        /* \"Vesting Contract/v4.sol\":2746:3145  VestingParams({... */\n      dup2\n      mstore\n      0x20\n      add\n        /* \"Vesting Contract/v4.sol\":2952:2961  getTime() */\n      tag_141\n        /* \"Vesting Contract/v4.sol\":2952:2959  getTime */\n      tag_21\n        /* \"Vesting Contract/v4.sol\":2952:2961  getTime() */\n      jump\t// in\n    tag_141:\n        /* \"Vesting Contract/v4.sol\":2943:2949  _cliff */\n      dup6\n        /* \"Vesting Contract/v4.sol\":2943:2961  _cliff + getTime() */\n      tag_142\n      swap2\n      swap1\n      tag_79\n      jump\t// in\n    tag_142:\n        /* \"Vesting Contract/v4.sol\":2746:3145  VestingParams({... */\n      dup2\n      mstore\n      0x20\n      add\n        /* \"Vesting Contract/v4.sol\":3027:3036  _duration */\n      dup7\n        /* \"Vesting Contract/v4.sol\":3016:3023  _amount */\n      dup10\n        /* \"Vesting Contract/v4.sol\":3000:3013  _slice_period */\n      dup8\n        /* \"Vesting Contract/v4.sol\":3000:3023  _slice_period * _amount */\n      tag_143\n      swap2\n      swap1\n      tag_113\n      jump\t// in\n    tag_143:\n        /* \"Vesting Contract/v4.sol\":2999:3036  (_slice_period * _amount) / _duration */\n      tag_144\n      swap2\n      swap1\n      tag_111\n      jump\t// in\n    tag_144:\n        /* \"Vesting Contract/v4.sol\":2746:3145  VestingParams({... */\n      dup2\n      mstore\n      0x20\n      add\n        /* \"Vesting Contract/v4.sol\":3069:3083  _beneficiaries */\n      dup4\n        /* \"Vesting Contract/v4.sol\":2746:3145  VestingParams({... */\n      0xffffffffffffffffffffffffffffffffffffffff\n      and\n      dup2\n      mstore\n      0x20\n      add\n        /* \"Vesting Contract/v4.sol\":3115:3130  _addressOfToken */\n      dup3\n        /* \"Vesting Contract/v4.sol\":2746:3145  VestingParams({... */\n      0xffffffffffffffffffffffffffffffffffffffff\n      and\n      dup2\n      mstore\n      pop\n        /* \"Vesting Contract/v4.sol\":1759:1760  0 */\n      0x00\n        /* \"Vesting Contract/v4.sol\":1743:1749  params */\n      dup2\n        /* \"Vesting Contract/v4.sol\":1743:1756  params.amount */\n      0x00\n      add\n      mload\n        /* \"Vesting Contract/v4.sol\":1743:1760  params.amount > 0 */\n      gt\n        /* \"Vesting Contract/v4.sol\":1735:1788  require(params.amount > 0, \"Amount must not be zero\") */\n      tag_146\n      jumpi\n      mload(0x40)\n      0x08c379a000000000000000000000000000000000000000000000000000000000\n      dup2\n      mstore\n      0x04\n      add\n      tag_147\n      swap1\n      tag_148\n      jump\t// in\n    tag_147:\n      mload(0x40)\n      dup1\n      swap2\n      sub\n      swap1\n      revert\n    tag_146:\n        /* \"Vesting Contract/v4.sol\":1834:1843  getTime() */\n      tag_149\n        /* \"Vesting Contract/v4.sol\":1834:1841  getTime */\n      tag_21\n        /* \"Vesting Contract/v4.sol\":1834:1843  getTime() */\n      jump\t// in\n    tag_149:\n        /* \"Vesting Contract/v4.sol\":1819:1825  params */\n      dup2\n        /* \"Vesting Contract/v4.sol\":1819:1831  params.start */\n      0x20\n      add\n      mload\n        /* \"Vesting Contract/v4.sol\":1819:1843  params.start > getTime() */\n      gt\n        /* \"Vesting Contract/v4.sol\":1798:1914  require(... */\n      tag_150\n      jumpi\n      mload(0x40)\n      0x08c379a000000000000000000000000000000000000000000000000000000000\n      dup2\n      mstore\n      0x04\n      add\n      tag_151\n      swap1\n      tag_152\n      jump\t// in\n    tag_151:\n      mload(0x40)\n      dup1\n      swap2\n      sub\n      swap1\n      revert\n    tag_150:\n        /* \"Vesting Contract/v4.sol\":1987:1993  params */\n      dup1\n        /* \"Vesting Contract/v4.sol\":1987:2002  params.duration */\n      0x40\n      add\n      mload\n        /* \"Vesting Contract/v4.sol\":1972:1978  params */\n      dup2\n        /* \"Vesting Contract/v4.sol\":1972:1984  params.start */\n      0x20\n      add\n      mload\n        /* \"Vesting Contract/v4.sol\":1961:1970  getTime() */\n      tag_153\n        /* \"Vesting Contract/v4.sol\":1961:1968  getTime */\n      tag_21\n        /* \"Vesting Contract/v4.sol\":1961:1970  getTime() */\n      jump\t// in\n    tag_153:\n        /* \"Vesting Contract/v4.sol\":1961:1984  getTime() +params.start */\n      tag_154\n      swap2\n      swap1\n      tag_79\n      jump\t// in\n    tag_154:\n        /* \"Vesting Contract/v4.sol\":1961:2002  getTime() +params.start + params.duration */\n      tag_155\n      swap2\n      swap1\n      tag_79\n      jump\t// in\n    tag_155:\n        /* \"Vesting Contract/v4.sol\":1945:1951  params */\n      dup2\n        /* \"Vesting Contract/v4.sol\":1945:1957  params.start */\n      0x20\n      add\n      mload\n        /* \"Vesting Contract/v4.sol\":1945:2003  params.start < (getTime() +params.start + params.duration) */\n      lt\n        /* \"Vesting Contract/v4.sol\":1924:2067  require(... */\n      tag_156\n      jumpi\n      mload(0x40)\n      0x08c379a000000000000000000000000000000000000000000000000000000000\n      dup2\n      mstore\n      0x04\n      add\n      tag_157\n      swap1\n      tag_158\n      jump\t// in\n    tag_157:\n      mload(0x40)\n      dup1\n      swap2\n      sub\n      swap1\n      revert\n    tag_156:\n        /* \"Vesting Contract/v4.sol\":2098:2112  CheckWhitelist */\n      0x03\n        /* \"Vesting Contract/v4.sol\":2098:2133  CheckWhitelist[params.TokenAddress] */\n      0x00\n        /* \"Vesting Contract/v4.sol\":2113:2119  params */\n      dup3\n        /* \"Vesting Contract/v4.sol\":2113:2132  params.TokenAddress */\n      0xe0\n      add\n      mload\n        /* \"Vesting Contract/v4.sol\":2098:2133  CheckWhitelist[params.TokenAddress] */\n      0xffffffffffffffffffffffffffffffffffffffff\n      and\n      0xffffffffffffffffffffffffffffffffffffffff\n      and\n      dup2\n      mstore\n      0x20\n      add\n      swap1\n      dup2\n      mstore\n      0x20\n      add\n      0x00\n      keccak256\n      0x00\n      swap1\n      sload\n      swap1\n      0x0100\n      exp\n      swap1\n      div\n      0xff\n      and\n        /* \"Vesting Contract/v4.sol\":2077:2200  require(... */\n      tag_159\n      jumpi\n      mload(0x40)\n      0x08c379a000000000000000000000000000000000000000000000000000000000\n      dup2\n      mstore\n      0x04\n      add\n      tag_160\n      swap1\n      tag_161\n      jump\t// in\n    tag_160:\n      mload(0x40)\n      dup1\n      swap2\n      sub\n      swap1\n      revert\n    tag_159:\n        /* \"Vesting Contract/v4.sol\":2261:2267  params */\n      dup1\n        /* \"Vesting Contract/v4.sol\":2261:2276  params.duration */\n      0x40\n      add\n      mload\n        /* \"Vesting Contract/v4.sol\":2247:2253  params */\n      dup2\n        /* \"Vesting Contract/v4.sol\":2247:2259  params.start */\n      0x20\n      add\n      mload\n        /* \"Vesting Contract/v4.sol\":2247:2276  params.start +params.duration */\n      tag_162\n      swap2\n      swap1\n      tag_79\n      jump\t// in\n    tag_162:\n        /* \"Vesting Contract/v4.sol\":2231:2237  params */\n      dup2\n        /* \"Vesting Contract/v4.sol\":2231:2243  params.cliff */\n      0x80\n      add\n      mload\n        /* \"Vesting Contract/v4.sol\":2231:2277  params.cliff < (params.start +params.duration) */\n      lt\n        /* \"Vesting Contract/v4.sol\":2210:2336  require(... */\n      tag_163\n      jumpi\n      mload(0x40)\n      0x08c379a000000000000000000000000000000000000000000000000000000000\n      dup2\n      mstore\n      0x04\n      add\n      tag_164\n      swap1\n      tag_165\n      jump\t// in\n    tag_164:\n      mload(0x40)\n      dup1\n      swap2\n      sub\n      swap1\n      revert\n    tag_163:\n        /* \"Vesting Contract/v4.sol\":2382:2388  params */\n      dup1\n        /* \"Vesting Contract/v4.sol\":2382:2394  params.start */\n      0x20\n      add\n      mload\n        /* \"Vesting Contract/v4.sol\":2367:2373  params */\n      dup2\n        /* \"Vesting Contract/v4.sol\":2367:2379  params.cliff */\n      0x80\n      add\n      mload\n        /* \"Vesting Contract/v4.sol\":2367:2394  params.cliff > params.start */\n      gt\n        /* \"Vesting Contract/v4.sol\":2346:2457  require(... */\n      tag_166\n      jumpi\n      mload(0x40)\n      0x08c379a000000000000000000000000000000000000000000000000000000000\n      dup2\n      mstore\n      0x04\n      add\n      tag_167\n      swap1\n      tag_168\n      jump\t// in\n    tag_167:\n      mload(0x40)\n      dup1\n      swap2\n      sub\n      swap1\n      revert\n    tag_166:\n        /* \"Vesting Contract/v4.sol\":3170:3203  VestingSchedule memory newVesting */\n      0x00\n        /* \"Vesting Contract/v4.sol\":3206:3746  VestingSchedule({... */\n      mload(0x40)\n      dup1\n      0x80\n      add\n      0x40\n      mstore\n      dup1\n        /* \"Vesting Contract/v4.sol\":3247:3255  vestings */\n      0x02\n        /* \"Vesting Contract/v4.sol\":3247:3271  vestings[_beneficiaries] */\n      0x00\n        /* \"Vesting Contract/v4.sol\":3256:3270  _beneficiaries */\n      dup8\n        /* \"Vesting Contract/v4.sol\":3247:3271  vestings[_beneficiaries] */\n      0xffffffffffffffffffffffffffffffffffffffff\n      and\n      0xffffffffffffffffffffffffffffffffffffffff\n      and\n      dup2\n      mstore\n      0x20\n      add\n      swap1\n      dup2\n      mstore\n      0x20\n      add\n      0x00\n      keccak256\n        /* \"Vesting Contract/v4.sol\":3247:3278  vestings[_beneficiaries].length */\n      dup1\n      sload\n      swap1\n      pop\n        /* \"Vesting Contract/v4.sol\":3206:3746  VestingSchedule({... */\n      dup2\n      mstore\n      0x20\n      add\n        /* \"Vesting Contract/v4.sol\":3300:3304  true */\n      0x01\n        /* \"Vesting Contract/v4.sol\":3206:3746  VestingSchedule({... */\n      iszero\n      iszero\n      dup2\n      mstore\n      0x20\n      add\n        /* \"Vesting Contract/v4.sol\":3327:3328  0 */\n      0x00\n        /* \"Vesting Contract/v4.sol\":3206:3746  VestingSchedule({... */\n      dup2\n      mstore\n      0x20\n      add\n        /* \"Vesting Contract/v4.sol\":3350:3735  VestingParams({... */\n      mload(0x40)\n      dup1\n      0x0100\n      add\n      0x40\n      mstore\n      dup1\n        /* \"Vesting Contract/v4.sol\":3390:3397  _amount */\n      dup13\n        /* \"Vesting Contract/v4.sol\":3350:3735  VestingParams({... */\n      dup2\n      mstore\n      0x20\n      add\n        /* \"Vesting Contract/v4.sol\":3429:3438  getTime() */\n      tag_170\n        /* \"Vesting Contract/v4.sol\":3429:3436  getTime */\n      tag_21\n        /* \"Vesting Contract/v4.sol\":3429:3438  getTime() */\n      jump\t// in\n    tag_170:\n        /* \"Vesting Contract/v4.sol\":3422:3428  _start */\n      dup13\n        /* \"Vesting Contract/v4.sol\":3422:3438  _start+getTime() */\n      tag_171\n      swap2\n      swap1\n      tag_79\n      jump\t// in\n    tag_171:\n        /* \"Vesting Contract/v4.sol\":3350:3735  VestingParams({... */\n      dup2\n      mstore\n      0x20\n      add\n        /* \"Vesting Contract/v4.sol\":3466:3475  _duration */\n      dup11\n        /* \"Vesting Contract/v4.sol\":3350:3735  VestingParams({... */\n      dup2\n      mstore\n      0x20\n      add\n        /* \"Vesting Contract/v4.sol\":3507:3520  _slice_period */\n      dup10\n        /* \"Vesting Contract/v4.sol\":3350:3735  VestingParams({... */\n      dup2\n      mstore\n      0x20\n      add\n        /* \"Vesting Contract/v4.sol\":3545:3551  _cliff */\n      dup9\n        /* \"Vesting Contract/v4.sol\":3350:3735  VestingParams({... */\n      dup2\n      mstore\n      0x20\n      add\n        /* \"Vesting Contract/v4.sol\":3617:3626  _duration */\n      dup11\n        /* \"Vesting Contract/v4.sol\":3606:3613  _amount */\n      dup14\n        /* \"Vesting Contract/v4.sol\":3590:3603  _slice_period */\n      dup12\n        /* \"Vesting Contract/v4.sol\":3590:3613  _slice_period * _amount */\n      tag_172\n      swap2\n      swap1\n      tag_113\n      jump\t// in\n    tag_172:\n        /* \"Vesting Contract/v4.sol\":3589:3626  (_slice_period * _amount) / _duration */\n      tag_173\n      swap2\n      swap1\n      tag_111\n      jump\t// in\n    tag_173:\n        /* \"Vesting Contract/v4.sol\":3350:3735  VestingParams({... */\n      dup2\n      mstore\n      0x20\n      add\n        /* \"Vesting Contract/v4.sol\":3659:3673  _beneficiaries */\n      dup8\n        /* \"Vesting Contract/v4.sol\":3350:3735  VestingParams({... */\n      0xffffffffffffffffffffffffffffffffffffffff\n      and\n      dup2\n      mstore\n      0x20\n      add\n        /* \"Vesting Contract/v4.sol\":3705:3720  _addressOfToken */\n      dup7\n        /* \"Vesting Contract/v4.sol\":3350:3735  VestingParams({... */\n      0xffffffffffffffffffffffffffffffffffffffff\n      and\n      dup2\n      mstore\n      pop\n        /* \"Vesting Contract/v4.sol\":3206:3746  VestingSchedule({... */\n      dup2\n      mstore\n      pop\n        /* \"Vesting Contract/v4.sol\":3170:3746  VestingSchedule memory newVesting = VestingSchedule({... */\n      swap1\n      pop\n        /* \"Vesting Contract/v4.sol\":3756:3764  vestings */\n      0x02\n        /* \"Vesting Contract/v4.sol\":3756:3780  vestings[_beneficiaries] */\n      0x00\n        /* \"Vesting Contract/v4.sol\":3765:3779  _beneficiaries */\n      dup6\n        /* \"Vesting Contract/v4.sol\":3756:3780  vestings[_beneficiaries] */\n      0xffffffffffffffffffffffffffffffffffffffff\n      and\n      0xffffffffffffffffffffffffffffffffffffffff\n      and\n      dup2\n      mstore\n      0x20\n      add\n      swap1\n      dup2\n      mstore\n      0x20\n      add\n      0x00\n      keccak256\n        /* \"Vesting Contract/v4.sol\":3786:3796  newVesting */\n      dup2\n        /* \"Vesting Contract/v4.sol\":3756:3797  vestings[_beneficiaries].push(newVesting) */\n      swap1\n      dup1\n      0x01\n      dup2\n      sload\n      add\n      dup1\n      dup3\n      sstore\n      dup1\n      swap2\n      pop\n      pop\n      0x01\n      swap1\n      sub\n      swap1\n      0x00\n      mstore\n      keccak256(0x00, 0x20)\n      swap1\n      0x0b\n      mul\n      add\n      0x00\n      swap1\n      swap2\n      swap1\n      swap2\n      swap1\n      swap2\n      pop\n      0x00\n      dup3\n      add\n      mload\n      dup2\n      0x00\n      add\n      sstore\n      0x20\n      dup3\n      add\n      mload\n      dup2\n      0x01\n      add\n      exp(0x0100, 0x00)\n      dup2\n      sload\n      dup2\n      0xff\n      mul\n      not\n      and\n      swap1\n      dup4\n      iszero\n      iszero\n      mul\n      or\n      swap1\n      sstore\n      pop\n      0x40\n      dup3\n      add\n      mload\n      dup2\n      0x02\n      add\n      sstore\n      0x60\n      dup3\n      add\n      mload\n      dup2\n      0x03\n      add\n      0x00\n      dup3\n      add\n      mload\n      dup2\n      0x00\n      add\n      sstore\n      0x20\n      dup3\n      add\n      mload\n      dup2\n      0x01\n      add\n      sstore\n      0x40\n      dup3\n      add\n      mload\n      dup2\n      0x02\n      add\n      sstore\n      0x60\n      dup3\n      add\n      mload\n      dup2\n      0x03\n      add\n      sstore\n      0x80\n      dup3\n      add\n      mload\n      dup2\n      0x04\n      add\n      sstore\n      0xa0\n      dup3\n      add\n      mload\n      dup2\n      0x05\n      add\n      sstore\n      0xc0\n      dup3\n      add\n      mload\n      dup2\n      0x06\n      add\n      exp(0x0100, 0x00)\n      dup2\n      sload\n      dup2\n      0xffffffffffffffffffffffffffffffffffffffff\n      mul\n      not\n      and\n      swap1\n      dup4\n      0xffffffffffffffffffffffffffffffffffffffff\n      and\n      mul\n      or\n      swap1\n      sstore\n      pop\n      0xe0\n      dup3\n      add\n      mload\n      dup2\n      0x07\n      add\n      exp(0x0100, 0x00)\n      dup2\n      sload\n      dup2\n      0xffffffffffffffffffffffffffffffffffffffff\n      mul\n      not\n      and\n      swap1\n      dup4\n      0xffffffffffffffffffffffffffffffffffffffff\n      and\n      mul\n      or\n      swap1\n      sstore\n      pop\n      pop\n      pop\n      pop\n      pop\n        /* \"Vesting Contract/v4.sol\":3821:3836  _addressOfToken */\n      dup3\n        /* \"Vesting Contract/v4.sol\":3807:3812  token */\n      0x00\n      dup1\n        /* \"Vesting Contract/v4.sol\":3807:3837  token = ERC20(_addressOfToken) */\n      0x0100\n      exp\n      dup2\n      sload\n      dup2\n      0xffffffffffffffffffffffffffffffffffffffff\n      mul\n      not\n      and\n      swap1\n      dup4\n      0xffffffffffffffffffffffffffffffffffffffff\n      and\n      mul\n      or\n      swap1\n      sstore\n      pop\n        /* \"Vesting Contract/v4.sol\":3847:3852  token */\n      0x00\n      dup1\n      sload\n      swap1\n      0x0100\n      exp\n      swap1\n      div\n      0xffffffffffffffffffffffffffffffffffffffff\n      and\n        /* \"Vesting Contract/v4.sol\":3847:3865  token.transferFrom */\n      0xffffffffffffffffffffffffffffffffffffffff\n      and\n      0x23b872dd\n        /* \"Vesting Contract/v4.sol\":3866:3876  msg.sender */\n      caller\n        /* \"Vesting Contract/v4.sol\":3886:3890  this */\n      address\n        /* \"Vesting Contract/v4.sol\":3893:3900  _amount */\n      dup13\n        /* \"Vesting Contract/v4.sol\":3847:3901  token.transferFrom(msg.sender, address(this), _amount) */\n      mload(0x40)\n      dup5\n      0xffffffff\n      and\n      0xe0\n      shl\n      dup2\n      mstore\n      0x04\n      add\n      tag_175\n      swap4\n      swap3\n      swap2\n      swap1\n      tag_176\n      jump\t// in\n    tag_175:\n      0x20\n      mload(0x40)\n      dup1\n      dup4\n      sub\n      dup2\n      0x00\n      dup8\n      gas\n      call\n      iszero\n      dup1\n      iszero\n      tag_178\n      jumpi\n      returndatasize\n      0x00\n      dup1\n      returndatacopy\n      revert(0x00, returndatasize)\n    tag_178:\n      pop\n      pop\n      pop\n      pop\n      mload(0x40)\n      returndatasize\n      not(0x1f)\n      0x1f\n      dup3\n      add\n      and\n      dup3\n      add\n      dup1\n      0x40\n      mstore\n      pop\n      dup2\n      add\n      swap1\n      tag_179\n      swap2\n      swap1\n      tag_92\n      jump\t// in\n    tag_179:\n      pop\n        /* \"Vesting Contract/v4.sol\":3917:4108  VestingLocked(... */\n      0x2c041ae393928af2d7b44a39672d0319629f48c2f248cef083a2a92f4159d07e\n        /* \"Vesting Contract/v4.sol\":3944:3958  _beneficiaries */\n      dup5\n        /* \"Vesting Contract/v4.sol\":3972:3979  _amount */\n      dup11\n        /* \"Vesting Contract/v4.sol\":3993:4002  _duration */\n      dup10\n        /* \"Vesting Contract/v4.sol\":4016:4029  _slice_period */\n      dup10\n        /* \"Vesting Contract/v4.sol\":4043:4049  _start */\n      dup13\n        /* \"Vesting Contract/v4.sol\":4063:4069  _cliff */\n      dup11\n        /* \"Vesting Contract/v4.sol\":4083:4098  _addressOfToken */\n      dup10\n        /* \"Vesting Contract/v4.sol\":3917:4108  VestingLocked(... */\n      mload(0x40)\n      tag_180\n      swap8\n      swap7\n      swap6\n      swap5\n      swap4\n      swap3\n      swap2\n      swap1\n      tag_181\n      jump\t// in\n    tag_180:\n      mload(0x40)\n      dup1\n      swap2\n      sub\n      swap1\n      log1\n        /* \"Vesting Contract/v4.sol\":3160:4115  {... */\n      pop\n        /* \"Vesting Contract/v4.sol\":2481:4115  function lock(... */\n      pop\n      pop\n      pop\n      pop\n      pop\n      pop\n      pop\n      pop\n      jump\t// out\n        /* \"Vesting Contract/v4.sol\":146:164  ERC20 public token */\n    tag_62:\n      0x00\n      dup1\n      sload\n      swap1\n      0x0100\n      exp\n      swap1\n      div\n      0xffffffffffffffffffffffffffffffffffffffff\n      and\n      dup2\n      jump\t// out\n        /* \"#utility.yul\":88:205   */\n    tag_183:\n        /* \"#utility.yul\":197:198   */\n      0x00\n        /* \"#utility.yul\":194:195   */\n      dup1\n        /* \"#utility.yul\":187:199   */\n      revert\n        /* \"#utility.yul\":334:411   */\n    tag_185:\n        /* \"#utility.yul\":371:378   */\n      0x00\n        /* \"#utility.yul\":400:405   */\n      dup2\n        /* \"#utility.yul\":389:405   */\n      swap1\n      pop\n        /* \"#utility.yul\":334:411   */\n      swap2\n      swap1\n      pop\n      jump\t// out\n        /* \"#utility.yul\":417:539   */\n    tag_186:\n        /* \"#utility.yul\":490:514   */\n      tag_243\n        /* \"#utility.yul\":508:513   */\n      dup2\n        /* \"#utility.yul\":490:514   */\n      tag_185\n      jump\t// in\n    tag_243:\n        /* \"#utility.yul\":483:488   */\n      dup2\n        /* \"#utility.yul\":480:515   */\n      eq\n        /* \"#utility.yul\":470:533   */\n      tag_244\n      jumpi\n        /* \"#utility.yul\":529:530   */\n      0x00\n        /* \"#utility.yul\":526:527   */\n      dup1\n        /* \"#utility.yul\":519:531   */\n      revert\n        /* \"#utility.yul\":470:533   */\n    tag_244:\n        /* \"#utility.yul\":417:539   */\n      pop\n      jump\t// out\n        /* \"#utility.yul\":545:684   */\n    tag_187:\n        /* \"#utility.yul\":591:596   */\n      0x00\n        /* \"#utility.yul\":629:635   */\n      dup2\n        /* \"#utility.yul\":616:636   */\n      calldataload\n        /* \"#utility.yul\":607:636   */\n      swap1\n      pop\n        /* \"#utility.yul\":645:678   */\n      tag_246\n        /* \"#utility.yul\":672:677   */\n      dup2\n        /* \"#utility.yul\":645:678   */\n      tag_186\n      jump\t// in\n    tag_246:\n        /* \"#utility.yul\":545:684   */\n      swap3\n      swap2\n      pop\n      pop\n      jump\t// out\n        /* \"#utility.yul\":690:1019   */\n    tag_18:\n        /* \"#utility.yul\":749:755   */\n      0x00\n        /* \"#utility.yul\":798:800   */\n      0x20\n        /* \"#utility.yul\":786:795   */\n      dup3\n        /* \"#utility.yul\":777:784   */\n      dup5\n        /* \"#utility.yul\":773:796   */\n      sub\n        /* \"#utility.yul\":769:801   */\n      slt\n        /* \"#utility.yul\":766:885   */\n      iszero\n      tag_248\n      jumpi\n        /* \"#utility.yul\":804:883   */\n      tag_249\n      tag_183\n      jump\t// in\n    tag_249:\n        /* \"#utility.yul\":766:885   */\n    tag_248:\n        /* \"#utility.yul\":924:925   */\n      0x00\n        /* \"#utility.yul\":949:1002   */\n      tag_250\n        /* \"#utility.yul\":994:1001   */\n      dup5\n        /* \"#utility.yul\":985:991   */\n      dup3\n        /* \"#utility.yul\":974:983   */\n      dup6\n        /* \"#utility.yul\":970:992   */\n      add\n        /* \"#utility.yul\":949:1002   */\n      tag_187\n      jump\t// in\n    tag_250:\n        /* \"#utility.yul\":939:1002   */\n      swap2\n      pop\n        /* \"#utility.yul\":895:1012   */\n      pop\n        /* \"#utility.yul\":690:1019   */\n      swap3\n      swap2\n      pop\n      pop\n      jump\t// out\n        /* \"#utility.yul\":1025:1143   */\n    tag_188:\n        /* \"#utility.yul\":1112:1136   */\n      tag_252\n        /* \"#utility.yul\":1130:1135   */\n      dup2\n        /* \"#utility.yul\":1112:1136   */\n      tag_185\n      jump\t// in\n    tag_252:\n        /* \"#utility.yul\":1107:1110   */\n      dup3\n        /* \"#utility.yul\":1100:1137   */\n      mstore\n        /* \"#utility.yul\":1025:1143   */\n      pop\n      pop\n      jump\t// out\n        /* \"#utility.yul\":1149:1371   */\n    tag_23:\n        /* \"#utility.yul\":1242:1246   */\n      0x00\n        /* \"#utility.yul\":1280:1282   */\n      0x20\n        /* \"#utility.yul\":1269:1278   */\n      dup3\n        /* \"#utility.yul\":1265:1283   */\n      add\n        /* \"#utility.yul\":1257:1283   */\n      swap1\n      pop\n        /* \"#utility.yul\":1293:1364   */\n      tag_254\n        /* \"#utility.yul\":1361:1362   */\n      0x00\n        /* \"#utility.yul\":1350:1359   */\n      dup4\n        /* \"#utility.yul\":1346:1363   */\n      add\n        /* \"#utility.yul\":1337:1343   */\n      dup5\n        /* \"#utility.yul\":1293:1364   */\n      tag_188\n      jump\t// in\n    tag_254:\n        /* \"#utility.yul\":1149:1371   */\n      swap3\n      swap2\n      pop\n      pop\n      jump\t// out\n        /* \"#utility.yul\":1377:1503   */\n    tag_189:\n        /* \"#utility.yul\":1414:1421   */\n      0x00\n        /* \"#utility.yul\":1454:1496   */\n      0xffffffffffffffffffffffffffffffffffffffff\n        /* \"#utility.yul\":1447:1452   */\n      dup3\n        /* \"#utility.yul\":1443:1497   */\n      and\n        /* \"#utility.yul\":1432:1497   */\n      swap1\n      pop\n        /* \"#utility.yul\":1377:1503   */\n      swap2\n      swap1\n      pop\n      jump\t// out\n        /* \"#utility.yul\":1509:1605   */\n    tag_190:\n        /* \"#utility.yul\":1546:1553   */\n      0x00\n        /* \"#utility.yul\":1575:1599   */\n      tag_257\n        /* \"#utility.yul\":1593:1598   */\n      dup3\n        /* \"#utility.yul\":1575:1599   */\n      tag_189\n      jump\t// in\n    tag_257:\n        /* \"#utility.yul\":1564:1599   */\n      swap1\n      pop\n        /* \"#utility.yul\":1509:1605   */\n      swap2\n      swap1\n      pop\n      jump\t// out\n        /* \"#utility.yul\":1611:1733   */\n    tag_191:\n        /* \"#utility.yul\":1684:1708   */\n      tag_259\n        /* \"#utility.yul\":1702:1707   */\n      dup2\n        /* \"#utility.yul\":1684:1708   */\n      tag_190\n      jump\t// in\n    tag_259:\n        /* \"#utility.yul\":1677:1682   */\n      dup2\n        /* \"#utility.yul\":1674:1709   */\n      eq\n        /* \"#utility.yul\":1664:1727   */\n      tag_260\n      jumpi\n        /* \"#utility.yul\":1723:1724   */\n      0x00\n        /* \"#utility.yul\":1720:1721   */\n      dup1\n        /* \"#utility.yul\":1713:1725   */\n      revert\n        /* \"#utility.yul\":1664:1727   */\n    tag_260:\n        /* \"#utility.yul\":1611:1733   */\n      pop\n      jump\t// out\n        /* \"#utility.yul\":1739:1878   */\n    tag_192:\n        /* \"#utility.yul\":1785:1790   */\n      0x00\n        /* \"#utility.yul\":1823:1829   */\n      dup2\n        /* \"#utility.yul\":1810:1830   */\n      calldataload\n        /* \"#utility.yul\":1801:1830   */\n      swap1\n      pop\n        /* \"#utility.yul\":1839:1872   */\n      tag_262\n        /* \"#utility.yul\":1866:1871   */\n      dup2\n        /* \"#utility.yul\":1839:1872   */\n      tag_191\n      jump\t// in\n    tag_262:\n        /* \"#utility.yul\":1739:1878   */\n      swap3\n      swap2\n      pop\n      pop\n      jump\t// out\n        /* \"#utility.yul\":1884:2213   */\n    tag_30:\n        /* \"#utility.yul\":1943:1949   */\n      0x00\n        /* \"#utility.yul\":1992:1994   */\n      0x20\n        /* \"#utility.yul\":1980:1989   */\n      dup3\n        /* \"#utility.yul\":1971:1978   */\n      dup5\n        /* \"#utility.yul\":1967:1990   */\n      sub\n        /* \"#utility.yul\":1963:1995   */\n      slt\n        /* \"#utility.yul\":1960:2079   */\n      iszero\n      tag_264\n      jumpi\n        /* \"#utility.yul\":1998:2077   */\n      tag_265\n      tag_183\n      jump\t// in\n    tag_265:\n        /* \"#utility.yul\":1960:2079   */\n    tag_264:\n        /* \"#utility.yul\":2118:2119   */\n      0x00\n        /* \"#utility.yul\":2143:2196   */\n      tag_266\n        /* \"#utility.yul\":2188:2195   */\n      dup5\n        /* \"#utility.yul\":2179:2185   */\n      dup3\n        /* \"#utility.yul\":2168:2177   */\n      dup6\n        /* \"#utility.yul\":2164:2186   */\n      add\n        /* \"#utility.yul\":2143:2196   */\n      tag_192\n      jump\t// in\n    tag_266:\n        /* \"#utility.yul\":2133:2196   */\n      swap2\n      pop\n        /* \"#utility.yul\":2089:2206   */\n      pop\n        /* \"#utility.yul\":1884:2213   */\n      swap3\n      swap2\n      pop\n      pop\n      jump\t// out\n        /* \"#utility.yul\":2219:2309   */\n    tag_193:\n        /* \"#utility.yul\":2253:2260   */\n      0x00\n        /* \"#utility.yul\":2296:2301   */\n      dup2\n        /* \"#utility.yul\":2289:2302   */\n      iszero\n        /* \"#utility.yul\":2282:2303   */\n      iszero\n        /* \"#utility.yul\":2271:2303   */\n      swap1\n      pop\n        /* \"#utility.yul\":2219:2309   */\n      swap2\n      swap1\n      pop\n      jump\t// out\n        /* \"#utility.yul\":2315:2424   */\n    tag_194:\n        /* \"#utility.yul\":2396:2417   */\n      tag_269\n        /* \"#utility.yul\":2411:2416   */\n      dup2\n        /* \"#utility.yul\":2396:2417   */\n      tag_193\n      jump\t// in\n    tag_269:\n        /* \"#utility.yul\":2391:2394   */\n      dup3\n        /* \"#utility.yul\":2384:2418   */\n      mstore\n        /* \"#utility.yul\":2315:2424   */\n      pop\n      pop\n      jump\t// out\n        /* \"#utility.yul\":2430:2640   */\n    tag_36:\n        /* \"#utility.yul\":2517:2521   */\n      0x00\n        /* \"#utility.yul\":2555:2557   */\n      0x20\n        /* \"#utility.yul\":2544:2553   */\n      dup3\n        /* \"#utility.yul\":2540:2558   */\n      add\n        /* \"#utility.yul\":2532:2558   */\n      swap1\n      pop\n        /* \"#utility.yul\":2568:2633   */\n      tag_271\n        /* \"#utility.yul\":2630:2631   */\n      0x00\n        /* \"#utility.yul\":2619:2628   */\n      dup4\n        /* \"#utility.yul\":2615:2632   */\n      add\n        /* \"#utility.yul\":2606:2612   */\n      dup5\n        /* \"#utility.yul\":2568:2633   */\n      tag_194\n      jump\t// in\n    tag_271:\n        /* \"#utility.yul\":2430:2640   */\n      swap3\n      swap2\n      pop\n      pop\n      jump\t// out\n        /* \"#utility.yul\":2646:3120   */\n    tag_39:\n        /* \"#utility.yul\":2714:2720   */\n      0x00\n        /* \"#utility.yul\":2722:2728   */\n      dup1\n        /* \"#utility.yul\":2771:2773   */\n      0x40\n        /* \"#utility.yul\":2759:2768   */\n      dup4\n        /* \"#utility.yul\":2750:2757   */\n      dup6\n        /* \"#utility.yul\":2746:2769   */\n      sub\n        /* \"#utility.yul\":2742:2774   */\n      slt\n        /* \"#utility.yul\":2739:2858   */\n      iszero\n      tag_273\n      jumpi\n        /* \"#utility.yul\":2777:2856   */\n      tag_274\n      tag_183\n      jump\t// in\n    tag_274:\n        /* \"#utility.yul\":2739:2858   */\n    tag_273:\n        /* \"#utility.yul\":2897:2898   */\n      0x00\n        /* \"#utility.yul\":2922:2975   */\n      tag_275\n        /* \"#utility.yul\":2967:2974   */\n      dup6\n        /* \"#utility.yul\":2958:2964   */\n      dup3\n        /* \"#utility.yul\":2947:2956   */\n      dup7\n        /* \"#utility.yul\":2943:2965   */\n      add\n        /* \"#utility.yul\":2922:2975   */\n      tag_192\n      jump\t// in\n    tag_275:\n        /* \"#utility.yul\":2912:2975   */\n      swap3\n      pop\n        /* \"#utility.yul\":2868:2985   */\n      pop\n        /* \"#utility.yul\":3024:3026   */\n      0x20\n        /* \"#utility.yul\":3050:3103   */\n      tag_276\n        /* \"#utility.yul\":3095:3102   */\n      dup6\n        /* \"#utility.yul\":3086:3092   */\n      dup3\n        /* \"#utility.yul\":3075:3084   */\n      dup7\n        /* \"#utility.yul\":3071:3093   */\n      add\n        /* \"#utility.yul\":3050:3103   */\n      tag_187\n      jump\t// in\n    tag_276:\n        /* \"#utility.yul\":3040:3103   */\n      swap2\n      pop\n        /* \"#utility.yul\":2995:3113   */\n      pop\n        /* \"#utility.yul\":2646:3120   */\n      swap3\n      pop\n      swap3\n      swap1\n      pop\n      jump\t// out\n        /* \"#utility.yul\":3126:3234   */\n    tag_195:\n        /* \"#utility.yul\":3203:3227   */\n      tag_278\n        /* \"#utility.yul\":3221:3226   */\n      dup2\n        /* \"#utility.yul\":3203:3227   */\n      tag_185\n      jump\t// in\n    tag_278:\n        /* \"#utility.yul\":3198:3201   */\n      dup3\n        /* \"#utility.yul\":3191:3228   */\n      mstore\n        /* \"#utility.yul\":3126:3234   */\n      pop\n      pop\n      jump\t// out\n        /* \"#utility.yul\":3240:3348   */\n    tag_196:\n        /* \"#utility.yul\":3317:3341   */\n      tag_280\n        /* \"#utility.yul\":3335:3340   */\n      dup2\n        /* \"#utility.yul\":3317:3341   */\n      tag_190\n      jump\t// in\n    tag_280:\n        /* \"#utility.yul\":3312:3315   */\n      dup3\n        /* \"#utility.yul\":3305:3342   */\n      mstore\n        /* \"#utility.yul\":3240:3348   */\n      pop\n      pop\n      jump\t// out\n        /* \"#utility.yul\":3438:5048   */\n    tag_197:\n        /* \"#utility.yul\":3595:3601   */\n      0x0100\n        /* \"#utility.yul\":3590:3593   */\n      dup3\n        /* \"#utility.yul\":3586:3602   */\n      add\n        /* \"#utility.yul\":3686:3690   */\n      0x00\n        /* \"#utility.yul\":3679:3684   */\n      dup3\n        /* \"#utility.yul\":3675:3691   */\n      add\n        /* \"#utility.yul\":3669:3692   */\n      mload\n        /* \"#utility.yul\":3705:3768   */\n      tag_282\n        /* \"#utility.yul\":3762:3766   */\n      0x00\n        /* \"#utility.yul\":3757:3760   */\n      dup6\n        /* \"#utility.yul\":3753:3767   */\n      add\n        /* \"#utility.yul\":3739:3751   */\n      dup3\n        /* \"#utility.yul\":3705:3768   */\n      tag_195\n      jump\t// in\n    tag_282:\n        /* \"#utility.yul\":3612:3778   */\n      pop\n        /* \"#utility.yul\":3861:3865   */\n      0x20\n        /* \"#utility.yul\":3854:3859   */\n      dup3\n        /* \"#utility.yul\":3850:3866   */\n      add\n        /* \"#utility.yul\":3844:3867   */\n      mload\n        /* \"#utility.yul\":3880:3943   */\n      tag_283\n        /* \"#utility.yul\":3937:3941   */\n      0x20\n        /* \"#utility.yul\":3932:3935   */\n      dup6\n        /* \"#utility.yul\":3928:3942   */\n      add\n        /* \"#utility.yul\":3914:3926   */\n      dup3\n        /* \"#utility.yul\":3880:3943   */\n      tag_195\n      jump\t// in\n    tag_283:\n        /* \"#utility.yul\":3788:3953   */\n      pop\n        /* \"#utility.yul\":4039:4043   */\n      0x40\n        /* \"#utility.yul\":4032:4037   */\n      dup3\n        /* \"#utility.yul\":4028:4044   */\n      add\n        /* \"#utility.yul\":4022:4045   */\n      mload\n        /* \"#utility.yul\":4058:4121   */\n      tag_284\n        /* \"#utility.yul\":4115:4119   */\n      0x40\n        /* \"#utility.yul\":4110:4113   */\n      dup6\n        /* \"#utility.yul\":4106:4120   */\n      add\n        /* \"#utility.yul\":4092:4104   */\n      dup3\n        /* \"#utility.yul\":4058:4121   */\n      tag_195\n      jump\t// in\n    tag_284:\n        /* \"#utility.yul\":3963:4131   */\n      pop\n        /* \"#utility.yul\":4221:4225   */\n      0x60\n        /* \"#utility.yul\":4214:4219   */\n      dup3\n        /* \"#utility.yul\":4210:4226   */\n      add\n        /* \"#utility.yul\":4204:4227   */\n      mload\n        /* \"#utility.yul\":4240:4303   */\n      tag_285\n        /* \"#utility.yul\":4297:4301   */\n      0x60\n        /* \"#utility.yul\":4292:4295   */\n      dup6\n        /* \"#utility.yul\":4288:4302   */\n      add\n        /* \"#utility.yul\":4274:4286   */\n      dup3\n        /* \"#utility.yul\":4240:4303   */\n      tag_195\n      jump\t// in\n    tag_285:\n        /* \"#utility.yul\":4141:4313   */\n      pop\n        /* \"#utility.yul\":4396:4400   */\n      0x80\n        /* \"#utility.yul\":4389:4394   */\n      dup3\n        /* \"#utility.yul\":4385:4401   */\n      add\n        /* \"#utility.yul\":4379:4402   */\n      mload\n        /* \"#utility.yul\":4415:4478   */\n      tag_286\n        /* \"#utility.yul\":4472:4476   */\n      0x80\n        /* \"#utility.yul\":4467:4470   */\n      dup6\n        /* \"#utility.yul\":4463:4477   */\n      add\n        /* \"#utility.yul\":4449:4461   */\n      dup3\n        /* \"#utility.yul\":4415:4478   */\n      tag_195\n      jump\t// in\n    tag_286:\n        /* \"#utility.yul\":4323:4488   */\n      pop\n        /* \"#utility.yul\":4584:4588   */\n      0xa0\n        /* \"#utility.yul\":4577:4582   */\n      dup3\n        /* \"#utility.yul\":4573:4589   */\n      add\n        /* \"#utility.yul\":4567:4590   */\n      mload\n        /* \"#utility.yul\":4603:4666   */\n      tag_287\n        /* \"#utility.yul\":4660:4664   */\n      0xa0\n        /* \"#utility.yul\":4655:4658   */\n      dup6\n        /* \"#utility.yul\":4651:4665   */\n      add\n        /* \"#utility.yul\":4637:4649   */\n      dup3\n        /* \"#utility.yul\":4603:4666   */\n      tag_195\n      jump\t// in\n    tag_287:\n        /* \"#utility.yul\":4498:4676   */\n      pop\n        /* \"#utility.yul\":4767:4771   */\n      0xc0\n        /* \"#utility.yul\":4760:4765   */\n      dup3\n        /* \"#utility.yul\":4756:4772   */\n      add\n        /* \"#utility.yul\":4750:4773   */\n      mload\n        /* \"#utility.yul\":4786:4849   */\n      tag_288\n        /* \"#utility.yul\":4843:4847   */\n      0xc0\n        /* \"#utility.yul\":4838:4841   */\n      dup6\n        /* \"#utility.yul\":4834:4848   */\n      add\n        /* \"#utility.yul\":4820:4832   */\n      dup3\n        /* \"#utility.yul\":4786:4849   */\n      tag_196\n      jump\t// in\n    tag_288:\n        /* \"#utility.yul\":4686:4859   */\n      pop\n        /* \"#utility.yul\":4949:4953   */\n      0xe0\n        /* \"#utility.yul\":4942:4947   */\n      dup3\n        /* \"#utility.yul\":4938:4954   */\n      add\n        /* \"#utility.yul\":4932:4955   */\n      mload\n        /* \"#utility.yul\":4968:5031   */\n      tag_289\n        /* \"#utility.yul\":5025:5029   */\n      0xe0\n        /* \"#utility.yul\":5020:5023   */\n      dup6\n        /* \"#utility.yul\":5016:5030   */\n      add\n        /* \"#utility.yul\":5002:5014   */\n      dup3\n        /* \"#utility.yul\":4968:5031   */\n      tag_196\n      jump\t// in\n    tag_289:\n        /* \"#utility.yul\":4869:5041   */\n      pop\n        /* \"#utility.yul\":3564:5048   */\n      pop\n        /* \"#utility.yul\":3438:5048   */\n      pop\n      pop\n      jump\t// out\n        /* \"#utility.yul\":5054:5715   */\n    tag_42:\n        /* \"#utility.yul\":5285:5289   */\n      0x00\n        /* \"#utility.yul\":5323:5326   */\n      0x0160\n        /* \"#utility.yul\":5312:5321   */\n      dup3\n        /* \"#utility.yul\":5308:5327   */\n      add\n        /* \"#utility.yul\":5300:5327   */\n      swap1\n      pop\n        /* \"#utility.yul\":5337:5408   */\n      tag_291\n        /* \"#utility.yul\":5405:5406   */\n      0x00\n        /* \"#utility.yul\":5394:5403   */\n      dup4\n        /* \"#utility.yul\":5390:5407   */\n      add\n        /* \"#utility.yul\":5381:5387   */\n      dup8\n        /* \"#utility.yul\":5337:5408   */\n      tag_188\n      jump\t// in\n    tag_291:\n        /* \"#utility.yul\":5418:5484   */\n      tag_292\n        /* \"#utility.yul\":5480:5482   */\n      0x20\n        /* \"#utility.yul\":5469:5478   */\n      dup4\n        /* \"#utility.yul\":5465:5483   */\n      add\n        /* \"#utility.yul\":5456:5462   */\n      dup7\n        /* \"#utility.yul\":5418:5484   */\n      tag_194\n      jump\t// in\n    tag_292:\n        /* \"#utility.yul\":5494:5566   */\n      tag_293\n        /* \"#utility.yul\":5562:5564   */\n      0x40\n        /* \"#utility.yul\":5551:5560   */\n      dup4\n        /* \"#utility.yul\":5547:5565   */\n      add\n        /* \"#utility.yul\":5538:5544   */\n      dup6\n        /* \"#utility.yul\":5494:5566   */\n      tag_188\n      jump\t// in\n    tag_293:\n        /* \"#utility.yul\":5576:5708   */\n      tag_294\n        /* \"#utility.yul\":5704:5706   */\n      0x60\n        /* \"#utility.yul\":5693:5702   */\n      dup4\n        /* \"#utility.yul\":5689:5707   */\n      add\n        /* \"#utility.yul\":5680:5686   */\n      dup5\n        /* \"#utility.yul\":5576:5708   */\n      tag_197\n      jump\t// in\n    tag_294:\n        /* \"#utility.yul\":5054:5715   */\n      swap6\n      swap5\n      pop\n      pop\n      pop\n      pop\n      pop\n      jump\t// out\n        /* \"#utility.yul\":5721:5839   */\n    tag_198:\n        /* \"#utility.yul\":5808:5832   */\n      tag_296\n        /* \"#utility.yul\":5826:5831   */\n      dup2\n        /* \"#utility.yul\":5808:5832   */\n      tag_190\n      jump\t// in\n    tag_296:\n        /* \"#utility.yul\":5803:5806   */\n      dup3\n        /* \"#utility.yul\":5796:5833   */\n      mstore\n        /* \"#utility.yul\":5721:5839   */\n      pop\n      pop\n      jump\t// out\n        /* \"#utility.yul\":5845:6067   */\n    tag_53:\n        /* \"#utility.yul\":5938:5942   */\n      0x00\n        /* \"#utility.yul\":5976:5978   */\n      0x20\n        /* \"#utility.yul\":5965:5974   */\n      dup3\n        /* \"#utility.yul\":5961:5979   */\n      add\n        /* \"#utility.yul\":5953:5979   */\n      swap1\n      pop\n        /* \"#utility.yul\":5989:6060   */\n      tag_298\n        /* \"#utility.yul\":6057:6058   */\n      0x00\n        /* \"#utility.yul\":6046:6055   */\n      dup4\n        /* \"#utility.yul\":6042:6059   */\n      add\n        /* \"#utility.yul\":6033:6039   */\n      dup5\n        /* \"#utility.yul\":5989:6060   */\n      tag_198\n      jump\t// in\n    tag_298:\n        /* \"#utility.yul\":5845:6067   */\n      swap3\n      swap2\n      pop\n      pop\n      jump\t// out\n        /* \"#utility.yul\":6073:7276   */\n    tag_59:\n        /* \"#utility.yul\":6186:6192   */\n      0x00\n        /* \"#utility.yul\":6194:6200   */\n      dup1\n        /* \"#utility.yul\":6202:6208   */\n      0x00\n        /* \"#utility.yul\":6210:6216   */\n      dup1\n        /* \"#utility.yul\":6218:6224   */\n      0x00\n        /* \"#utility.yul\":6226:6232   */\n      dup1\n        /* \"#utility.yul\":6234:6240   */\n      0x00\n        /* \"#utility.yul\":6283:6286   */\n      0xe0\n        /* \"#utility.yul\":6271:6280   */\n      dup9\n        /* \"#utility.yul\":6262:6269   */\n      dup11\n        /* \"#utility.yul\":6258:6281   */\n      sub\n        /* \"#utility.yul\":6254:6287   */\n      slt\n        /* \"#utility.yul\":6251:6371   */\n      iszero\n      tag_300\n      jumpi\n        /* \"#utility.yul\":6290:6369   */\n      tag_301\n      tag_183\n      jump\t// in\n    tag_301:\n        /* \"#utility.yul\":6251:6371   */\n    tag_300:\n        /* \"#utility.yul\":6410:6411   */\n      0x00\n        /* \"#utility.yul\":6435:6488   */\n      tag_302\n        /* \"#utility.yul\":6480:6487   */\n      dup11\n        /* \"#utility.yul\":6471:6477   */\n      dup3\n        /* \"#utility.yul\":6460:6469   */\n      dup12\n        /* \"#utility.yul\":6456:6478   */\n      add\n        /* \"#utility.yul\":6435:6488   */\n      tag_187\n      jump\t// in\n    tag_302:\n        /* \"#utility.yul\":6425:6488   */\n      swap8\n      pop\n        /* \"#utility.yul\":6381:6498   */\n      pop\n        /* \"#utility.yul\":6537:6539   */\n      0x20\n        /* \"#utility.yul\":6563:6616   */\n      tag_303\n        /* \"#utility.yul\":6608:6615   */\n      dup11\n        /* \"#utility.yul\":6599:6605   */\n      dup3\n        /* \"#utility.yul\":6588:6597   */\n      dup12\n        /* \"#utility.yul\":6584:6606   */\n      add\n        /* \"#utility.yul\":6563:6616   */\n      tag_187\n      jump\t// in\n    tag_303:\n        /* \"#utility.yul\":6553:6616   */\n      swap7\n      pop\n        /* \"#utility.yul\":6508:6626   */\n      pop\n        /* \"#utility.yul\":6665:6667   */\n      0x40\n        /* \"#utility.yul\":6691:6744   */\n      tag_304\n        /* \"#utility.yul\":6736:6743   */\n      dup11\n        /* \"#utility.yul\":6727:6733   */\n      dup3\n        /* \"#utility.yul\":6716:6725   */\n      dup12\n        /* \"#utility.yul\":6712:6734   */\n      add\n        /* \"#utility.yul\":6691:6744   */\n      tag_187\n      jump\t// in\n    tag_304:\n        /* \"#utility.yul\":6681:6744   */\n      swap6\n      pop\n        /* \"#utility.yul\":6636:6754   */\n      pop\n        /* \"#utility.yul\":6793:6795   */\n      0x60\n        /* \"#utility.yul\":6819:6872   */\n      tag_305\n        /* \"#utility.yul\":6864:6871   */\n      dup11\n        /* \"#utility.yul\":6855:6861   */\n      dup3\n        /* \"#utility.yul\":6844:6853   */\n      dup12\n        /* \"#utility.yul\":6840:6862   */\n      add\n        /* \"#utility.yul\":6819:6872   */\n      tag_187\n      jump\t// in\n    tag_305:\n        /* \"#utility.yul\":6809:6872   */\n      swap5\n      pop\n        /* \"#utility.yul\":6764:6882   */\n      pop\n        /* \"#utility.yul\":6921:6924   */\n      0x80\n        /* \"#utility.yul\":6948:7001   */\n      tag_306\n        /* \"#utility.yul\":6993:7000   */\n      dup11\n        /* \"#utility.yul\":6984:6990   */\n      dup3\n        /* \"#utility.yul\":6973:6982   */\n      dup12\n        /* \"#utility.yul\":6969:6991   */\n      add\n        /* \"#utility.yul\":6948:7001   */\n      tag_187\n      jump\t// in\n    tag_306:\n        /* \"#utility.yul\":6938:7001   */\n      swap4\n      pop\n        /* \"#utility.yul\":6892:7011   */\n      pop\n        /* \"#utility.yul\":7050:7053   */\n      0xa0\n        /* \"#utility.yul\":7077:7130   */\n      tag_307\n        /* \"#utility.yul\":7122:7129   */\n      dup11\n        /* \"#utility.yul\":7113:7119   */\n      dup3\n        /* \"#utility.yul\":7102:7111   */\n      dup12\n        /* \"#utility.yul\":7098:7120   */\n      add\n        /* \"#utility.yul\":7077:7130   */\n      tag_192\n      jump\t// in\n    tag_307:\n        /* \"#utility.yul\":7067:7130   */\n      swap3\n      pop\n        /* \"#utility.yul\":7021:7140   */\n      pop\n        /* \"#utility.yul\":7179:7182   */\n      0xc0\n        /* \"#utility.yul\":7206:7259   */\n      tag_308\n        /* \"#utility.yul\":7251:7258   */\n      dup11\n        /* \"#utility.yul\":7242:7248   */\n      dup3\n        /* \"#utility.yul\":7231:7240   */\n      dup12\n        /* \"#utility.yul\":7227:7249   */\n      add\n        /* \"#utility.yul\":7206:7259   */\n      tag_192\n      jump\t// in\n    tag_308:\n        /* \"#utility.yul\":7196:7259   */\n      swap2\n      pop\n        /* \"#utility.yul\":7150:7269   */\n      pop\n        /* \"#utility.yul\":6073:7276   */\n      swap3\n      swap6\n      swap9\n      swap2\n      swap5\n      swap8\n      pop\n      swap3\n      swap6\n      pop\n      jump\t// out\n        /* \"#utility.yul\":7282:7342   */\n    tag_199:\n        /* \"#utility.yul\":7310:7313   */\n      0x00\n        /* \"#utility.yul\":7331:7336   */\n      dup2\n        /* \"#utility.yul\":7324:7336   */\n      swap1\n      pop\n        /* \"#utility.yul\":7282:7342   */\n      swap2\n      swap1\n      pop\n      jump\t// out\n        /* \"#utility.yul\":7348:7490   */\n    tag_200:\n        /* \"#utility.yul\":7398:7407   */\n      0x00\n        /* \"#utility.yul\":7431:7484   */\n      tag_311\n        /* \"#utility.yul\":7449:7483   */\n      tag_312\n        /* \"#utility.yul\":7458:7482   */\n      tag_313\n        /* \"#utility.yul\":7476:7481   */\n      dup5\n        /* \"#utility.yul\":7458:7482   */\n      tag_189\n      jump\t// in\n    tag_313:\n        /* \"#utility.yul\":7449:7483   */\n      tag_199\n      jump\t// in\n    tag_312:\n        /* \"#utility.yul\":7431:7484   */\n      tag_189\n      jump\t// in\n    tag_311:\n        /* \"#utility.yul\":7418:7484   */\n      swap1\n      pop\n        /* \"#utility.yul\":7348:7490   */\n      swap2\n      swap1\n      pop\n      jump\t// out\n        /* \"#utility.yul\":7496:7622   */\n    tag_201:\n        /* \"#utility.yul\":7546:7555   */\n      0x00\n        /* \"#utility.yul\":7579:7616   */\n      tag_315\n        /* \"#utility.yul\":7610:7615   */\n      dup3\n        /* \"#utility.yul\":7579:7616   */\n      tag_200\n      jump\t// in\n    tag_315:\n        /* \"#utility.yul\":7566:7616   */\n      swap1\n      pop\n        /* \"#utility.yul\":7496:7622   */\n      swap2\n      swap1\n      pop\n      jump\t// out\n        /* \"#utility.yul\":7628:7767   */\n    tag_202:\n        /* \"#utility.yul\":7691:7700   */\n      0x00\n        /* \"#utility.yul\":7724:7761   */\n      tag_317\n        /* \"#utility.yul\":7755:7760   */\n      dup3\n        /* \"#utility.yul\":7724:7761   */\n      tag_201\n      jump\t// in\n    tag_317:\n        /* \"#utility.yul\":7711:7761   */\n      swap1\n      pop\n        /* \"#utility.yul\":7628:7767   */\n      swap2\n      swap1\n      pop\n      jump\t// out\n        /* \"#utility.yul\":7773:7930   */\n    tag_203:\n        /* \"#utility.yul\":7873:7923   */\n      tag_319\n        /* \"#utility.yul\":7917:7922   */\n      dup2\n        /* \"#utility.yul\":7873:7923   */\n      tag_202\n      jump\t// in\n    tag_319:\n        /* \"#utility.yul\":7868:7871   */\n      dup3\n        /* \"#utility.yul\":7861:7924   */\n      mstore\n        /* \"#utility.yul\":7773:7930   */\n      pop\n      pop\n      jump\t// out\n        /* \"#utility.yul\":7936:8184   */\n    tag_64:\n        /* \"#utility.yul\":8042:8046   */\n      0x00\n        /* \"#utility.yul\":8080:8082   */\n      0x20\n        /* \"#utility.yul\":8069:8078   */\n      dup3\n        /* \"#utility.yul\":8065:8083   */\n      add\n        /* \"#utility.yul\":8057:8083   */\n      swap1\n      pop\n        /* \"#utility.yul\":8093:8177   */\n      tag_321\n        /* \"#utility.yul\":8174:8175   */\n      0x00\n        /* \"#utility.yul\":8163:8172   */\n      dup4\n        /* \"#utility.yul\":8159:8176   */\n      add\n        /* \"#utility.yul\":8150:8156   */\n      dup5\n        /* \"#utility.yul\":8093:8177   */\n      tag_203\n      jump\t// in\n    tag_321:\n        /* \"#utility.yul\":7936:8184   */\n      swap3\n      swap2\n      pop\n      pop\n      jump\t// out\n        /* \"#utility.yul\":8190:8370   */\n    tag_68:\n        /* \"#utility.yul\":8238:8315   */\n      0x4e487b7100000000000000000000000000000000000000000000000000000000\n        /* \"#utility.yul\":8235:8236   */\n      0x00\n        /* \"#utility.yul\":8228:8316   */\n      mstore\n        /* \"#utility.yul\":8335:8339   */\n      0x32\n        /* \"#utility.yul\":8332:8333   */\n      0x04\n        /* \"#utility.yul\":8325:8340   */\n      mstore\n        /* \"#utility.yul\":8359:8363   */\n      0x24\n        /* \"#utility.yul\":8356:8357   */\n      0x00\n        /* \"#utility.yul\":8349:8364   */\n      revert\n        /* \"#utility.yul\":8376:8545   */\n    tag_204:\n        /* \"#utility.yul\":8460:8471   */\n      0x00\n        /* \"#utility.yul\":8494:8500   */\n      dup3\n        /* \"#utility.yul\":8489:8492   */\n      dup3\n        /* \"#utility.yul\":8482:8501   */\n      mstore\n        /* \"#utility.yul\":8534:8538   */\n      0x20\n        /* \"#utility.yul\":8529:8532   */\n      dup3\n        /* \"#utility.yul\":8525:8539   */\n      add\n        /* \"#utility.yul\":8510:8539   */\n      swap1\n      pop\n        /* \"#utility.yul\":8376:8545   */\n      swap3\n      swap2\n      pop\n      pop\n      jump\t// out\n        /* \"#utility.yul\":8551:8727   */\n    tag_205:\n        /* \"#utility.yul\":8691:8719   */\n      0x46756e64732068617665206e6f74206265656e206c6f636b6564000000000000\n        /* \"#utility.yul\":8687:8688   */\n      0x00\n        /* \"#utility.yul\":8679:8685   */\n      dup3\n        /* \"#utility.yul\":8675:8689   */\n      add\n        /* \"#utility.yul\":8668:8720   */\n      mstore\n        /* \"#utility.yul\":8551:8727   */\n      pop\n      jump\t// out\n        /* \"#utility.yul\":8733:9099   */\n    tag_206:\n        /* \"#utility.yul\":8875:8878   */\n      0x00\n        /* \"#utility.yul\":8896:8963   */\n      tag_326\n        /* \"#utility.yul\":8960:8962   */\n      0x1a\n        /* \"#utility.yul\":8955:8958   */\n      dup4\n        /* \"#utility.yul\":8896:8963   */\n      tag_204\n      jump\t// in\n    tag_326:\n        /* \"#utility.yul\":8889:8963   */\n      swap2\n      pop\n        /* \"#utility.yul\":8972:9065   */\n      tag_327\n        /* \"#utility.yul\":9061:9064   */\n      dup3\n        /* \"#utility.yul\":8972:9065   */\n      tag_205\n      jump\t// in\n    tag_327:\n        /* \"#utility.yul\":9090:9092   */\n      0x20\n        /* \"#utility.yul\":9085:9088   */\n      dup3\n        /* \"#utility.yul\":9081:9093   */\n      add\n        /* \"#utility.yul\":9074:9093   */\n      swap1\n      pop\n        /* \"#utility.yul\":8733:9099   */\n      swap2\n      swap1\n      pop\n      jump\t// out\n        /* \"#utility.yul\":9105:9524   */\n    tag_72:\n        /* \"#utility.yul\":9271:9275   */\n      0x00\n        /* \"#utility.yul\":9309:9311   */\n      0x20\n        /* \"#utility.yul\":9298:9307   */\n      dup3\n        /* \"#utility.yul\":9294:9312   */\n      add\n        /* \"#utility.yul\":9286:9312   */\n      swap1\n      pop\n        /* \"#utility.yul\":9358:9367   */\n      dup2\n        /* \"#utility.yul\":9352:9356   */\n      dup2\n        /* \"#utility.yul\":9348:9368   */\n      sub\n        /* \"#utility.yul\":9344:9345   */\n      0x00\n        /* \"#utility.yul\":9333:9342   */\n      dup4\n        /* \"#utility.yul\":9329:9346   */\n      add\n        /* \"#utility.yul\":9322:9369   */\n      mstore\n        /* \"#utility.yul\":9386:9517   */\n      tag_329\n        /* \"#utility.yul\":9512:9516   */\n      dup2\n        /* \"#utility.yul\":9386:9517   */\n      tag_206\n      jump\t// in\n    tag_329:\n        /* \"#utility.yul\":9378:9517   */\n      swap1\n      pop\n        /* \"#utility.yul\":9105:9524   */\n      swap2\n      swap1\n      pop\n      jump\t// out\n        /* \"#utility.yul\":9530:9751   */\n    tag_207:\n        /* \"#utility.yul\":9670:9704   */\n      0x546f6b656e20756e646572206c6f636b696e672c20706c656173652077616974\n        /* \"#utility.yul\":9666:9667   */\n      0x00\n        /* \"#utility.yul\":9658:9664   */\n      dup3\n        /* \"#utility.yul\":9654:9668   */\n      add\n        /* \"#utility.yul\":9647:9705   */\n      mstore\n        /* \"#utility.yul\":9739:9743   */\n      0x2e2e000000000000000000000000000000000000000000000000000000000000\n        /* \"#utility.yul\":9734:9736   */\n      0x20\n        /* \"#utility.yul\":9726:9732   */\n      dup3\n        /* \"#utility.yul\":9722:9737   */\n      add\n        /* \"#utility.yul\":9715:9744   */\n      mstore\n        /* \"#utility.yul\":9530:9751   */\n      pop\n      jump\t// out\n        /* \"#utility.yul\":9757:10123   */\n    tag_208:\n        /* \"#utility.yul\":9899:9902   */\n      0x00\n        /* \"#utility.yul\":9920:9987   */\n      tag_332\n        /* \"#utility.yul\":9984:9986   */\n      0x22\n        /* \"#utility.yul\":9979:9982   */\n      dup4\n        /* \"#utility.yul\":9920:9987   */\n      tag_204\n      jump\t// in\n    tag_332:\n        /* \"#utility.yul\":9913:9987   */\n      swap2\n      pop\n        /* \"#utility.yul\":9996:10089   */\n      tag_333\n        /* \"#utility.yul\":10085:10088   */\n      dup3\n        /* \"#utility.yul\":9996:10089   */\n      tag_207\n      jump\t// in\n    tag_333:\n        /* \"#utility.yul\":10114:10116   */\n      0x40\n        /* \"#utility.yul\":10109:10112   */\n      dup3\n        /* \"#utility.yul\":10105:10117   */\n      add\n        /* \"#utility.yul\":10098:10117   */\n      swap1\n      pop\n        /* \"#utility.yul\":9757:10123   */\n      swap2\n      swap1\n      pop\n      jump\t// out\n        /* \"#utility.yul\":10129:10548   */\n    tag_76:\n        /* \"#utility.yul\":10295:10299   */\n      0x00\n        /* \"#utility.yul\":10333:10335   */\n      0x20\n        /* \"#utility.yul\":10322:10331   */\n      dup3\n        /* \"#utility.yul\":10318:10336   */\n      add\n        /* \"#utility.yul\":10310:10336   */\n      swap1\n      pop\n        /* \"#utility.yul\":10382:10391   */\n      dup2\n        /* \"#utility.yul\":10376:10380   */\n      dup2\n        /* \"#utility.yul\":10372:10392   */\n      sub\n        /* \"#utility.yul\":10368:10369   */\n      0x00\n        /* \"#utility.yul\":10357:10366   */\n      dup4\n        /* \"#utility.yul\":10353:10370   */\n      add\n        /* \"#utility.yul\":10346:10393   */\n      mstore\n        /* \"#utility.yul\":10410:10541   */\n      tag_335\n        /* \"#utility.yul\":10536:10540   */\n      dup2\n        /* \"#utility.yul\":10410:10541   */\n      tag_208\n      jump\t// in\n    tag_335:\n        /* \"#utility.yul\":10402:10541   */\n      swap1\n      pop\n        /* \"#utility.yul\":10129:10548   */\n      swap2\n      swap1\n      pop\n      jump\t// out\n        /* \"#utility.yul\":10554:10734   */\n    tag_209:\n        /* \"#utility.yul\":10602:10679   */\n      0x4e487b7100000000000000000000000000000000000000000000000000000000\n        /* \"#utility.yul\":10599:10600   */\n      0x00\n        /* \"#utility.yul\":10592:10680   */\n      mstore\n        /* \"#utility.yul\":10699:10703   */\n      0x11\n        /* \"#utility.yul\":10696:10697   */\n      0x04\n        /* \"#utility.yul\":10689:10704   */\n      mstore\n        /* \"#utility.yul\":10723:10727   */\n      0x24\n        /* \"#utility.yul\":10720:10721   */\n      0x00\n        /* \"#utility.yul\":10713:10728   */\n      revert\n        /* \"#utility.yul\":10740:10931   */\n    tag_79:\n        /* \"#utility.yul\":10780:10783   */\n      0x00\n        /* \"#utility.yul\":10799:10819   */\n      tag_338\n        /* \"#utility.yul\":10817:10818   */\n      dup3\n        /* \"#utility.yul\":10799:10819   */\n      tag_185\n      jump\t// in\n    tag_338:\n        /* \"#utility.yul\":10794:10819   */\n      swap2\n      pop\n        /* \"#utility.yul\":10833:10853   */\n      tag_339\n        /* \"#utility.yul\":10851:10852   */\n      dup4\n        /* \"#utility.yul\":10833:10853   */\n      tag_185\n      jump\t// in\n    tag_339:\n        /* \"#utility.yul\":10828:10853   */\n      swap3\n      pop\n        /* \"#utility.yul\":10876:10877   */\n      dup3\n        /* \"#utility.yul\":10873:10874   */\n      dup3\n        /* \"#utility.yul\":10869:10878   */\n      add\n        /* \"#utility.yul\":10862:10878   */\n      swap1\n      pop\n        /* \"#utility.yul\":10897:10900   */\n      dup1\n        /* \"#utility.yul\":10894:10895   */\n      dup3\n        /* \"#utility.yul\":10891:10901   */\n      gt\n        /* \"#utility.yul\":10888:10924   */\n      iszero\n      tag_340\n      jumpi\n        /* \"#utility.yul\":10904:10922   */\n      tag_341\n      tag_209\n      jump\t// in\n    tag_341:\n        /* \"#utility.yul\":10888:10924   */\n    tag_340:\n        /* \"#utility.yul\":10740:10931   */\n      swap3\n      swap2\n      pop\n      pop\n      jump\t// out\n        /* \"#utility.yul\":10937:11118   */\n    tag_210:\n        /* \"#utility.yul\":11077:11110   */\n      0x436c69666620706572696f6420686173206e6f7420656e646564207965742e00\n        /* \"#utility.yul\":11073:11074   */\n      0x00\n        /* \"#utility.yul\":11065:11071   */\n      dup3\n        /* \"#utility.yul\":11061:11075   */\n      add\n        /* \"#utility.yul\":11054:11111   */\n      mstore\n        /* \"#utility.yul\":10937:11118   */\n      pop\n      jump\t// out\n        /* \"#utility.yul\":11124:11490   */\n    tag_211:\n        /* \"#utility.yul\":11266:11269   */\n      0x00\n        /* \"#utility.yul\":11287:11354   */\n      tag_344\n        /* \"#utility.yul\":11351:11353   */\n      0x1f\n        /* \"#utility.yul\":11346:11349   */\n      dup4\n        /* \"#utility.yul\":11287:11354   */\n      tag_204\n      jump\t// in\n    tag_344:\n        /* \"#utility.yul\":11280:11354   */\n      swap2\n      pop\n        /* \"#utility.yul\":11363:11456   */\n      tag_345\n        /* \"#utility.yul\":11452:11455   */\n      dup3\n        /* \"#utility.yul\":11363:11456   */\n      tag_210\n      jump\t// in\n    tag_345:\n        /* \"#utility.yul\":11481:11483   */\n      0x20\n        /* \"#utility.yul\":11476:11479   */\n      dup3\n        /* \"#utility.yul\":11472:11484   */\n      add\n        /* \"#utility.yul\":11465:11484   */\n      swap1\n      pop\n        /* \"#utility.yul\":11124:11490   */\n      swap2\n      swap1\n      pop\n      jump\t// out\n        /* \"#utility.yul\":11496:11915   */\n    tag_82:\n        /* \"#utility.yul\":11662:11666   */\n      0x00\n        /* \"#utility.yul\":11700:11702   */\n      0x20\n        /* \"#utility.yul\":11689:11698   */\n      dup3\n        /* \"#utility.yul\":11685:11703   */\n      add\n        /* \"#utility.yul\":11677:11703   */\n      swap1\n      pop\n        /* \"#utility.yul\":11749:11758   */\n      dup2\n        /* \"#utility.yul\":11743:11747   */\n      dup2\n        /* \"#utility.yul\":11739:11759   */\n      sub\n        /* \"#utility.yul\":11735:11736   */\n      0x00\n        /* \"#utility.yul\":11724:11733   */\n      dup4\n        /* \"#utility.yul\":11720:11737   */\n      add\n        /* \"#utility.yul\":11713:11760   */\n      mstore\n        /* \"#utility.yul\":11777:11908   */\n      tag_347\n        /* \"#utility.yul\":11903:11907   */\n      dup2\n        /* \"#utility.yul\":11777:11908   */\n      tag_211\n      jump\t// in\n    tag_347:\n        /* \"#utility.yul\":11769:11908   */\n      swap1\n      pop\n        /* \"#utility.yul\":11496:11915   */\n      swap2\n      swap1\n      pop\n      jump\t// out\n        /* \"#utility.yul\":11921:12150   */\n    tag_212:\n        /* \"#utility.yul\":12061:12095   */\n      0x4e6f7420656e6f75676820616d6f756e7420617661696c61626c6520666f7220\n        /* \"#utility.yul\":12057:12058   */\n      0x00\n        /* \"#utility.yul\":12049:12055   */\n      dup3\n        /* \"#utility.yul\":12045:12059   */\n      add\n        /* \"#utility.yul\":12038:12096   */\n      mstore\n        /* \"#utility.yul\":12130:12142   */\n      0x7769746864726177616c00000000000000000000000000000000000000000000\n        /* \"#utility.yul\":12125:12127   */\n      0x20\n        /* \"#utility.yul\":12117:12123   */\n      dup3\n        /* \"#utility.yul\":12113:12128   */\n      add\n        /* \"#utility.yul\":12106:12143   */\n      mstore\n        /* \"#utility.yul\":11921:12150   */\n      pop\n      jump\t// out\n        /* \"#utility.yul\":12156:12522   */\n    tag_213:\n        /* \"#utility.yul\":12298:12301   */\n      0x00\n        /* \"#utility.yul\":12319:12386   */\n      tag_350\n        /* \"#utility.yul\":12383:12385   */\n      0x2a\n        /* \"#utility.yul\":12378:12381   */\n      dup4\n        /* \"#utility.yul\":12319:12386   */\n      tag_204\n      jump\t// in\n    tag_350:\n        /* \"#utility.yul\":12312:12386   */\n      swap2\n      pop\n        /* \"#utility.yul\":12395:12488   */\n      tag_351\n        /* \"#utility.yul\":12484:12487   */\n      dup3\n        /* \"#utility.yul\":12395:12488   */\n      tag_212\n      jump\t// in\n    tag_351:\n        /* \"#utility.yul\":12513:12515   */\n      0x40\n        /* \"#utility.yul\":12508:12511   */\n      dup3\n        /* \"#utility.yul\":12504:12516   */\n      add\n        /* \"#utility.yul\":12497:12516   */\n      swap1\n      pop\n        /* \"#utility.yul\":12156:12522   */\n      swap2\n      swap1\n      pop\n      jump\t// out\n        /* \"#utility.yul\":12528:12947   */\n    tag_86:\n        /* \"#utility.yul\":12694:12698   */\n      0x00\n        /* \"#utility.yul\":12732:12734   */\n      0x20\n        /* \"#utility.yul\":12721:12730   */\n      dup3\n        /* \"#utility.yul\":12717:12735   */\n      add\n        /* \"#utility.yul\":12709:12735   */\n      swap1\n      pop\n        /* \"#utility.yul\":12781:12790   */\n      dup2\n        /* \"#utility.yul\":12775:12779   */\n      dup2\n        /* \"#utility.yul\":12771:12791   */\n      sub\n        /* \"#utility.yul\":12767:12768   */\n      0x00\n        /* \"#utility.yul\":12756:12765   */\n      dup4\n        /* \"#utility.yul\":12752:12769   */\n      add\n        /* \"#utility.yul\":12745:12792   */\n      mstore\n        /* \"#utility.yul\":12809:12940   */\n      tag_353\n        /* \"#utility.yul\":12935:12939   */\n      dup2\n        /* \"#utility.yul\":12809:12940   */\n      tag_213\n      jump\t// in\n    tag_353:\n        /* \"#utility.yul\":12801:12940   */\n      swap1\n      pop\n        /* \"#utility.yul\":12528:12947   */\n      swap2\n      swap1\n      pop\n      jump\t// out\n        /* \"#utility.yul\":12953:13285   */\n    tag_88:\n        /* \"#utility.yul\":13074:13078   */\n      0x00\n        /* \"#utility.yul\":13112:13114   */\n      0x40\n        /* \"#utility.yul\":13101:13110   */\n      dup3\n        /* \"#utility.yul\":13097:13115   */\n      add\n        /* \"#utility.yul\":13089:13115   */\n      swap1\n      pop\n        /* \"#utility.yul\":13125:13196   */\n      tag_355\n        /* \"#utility.yul\":13193:13194   */\n      0x00\n        /* \"#utility.yul\":13182:13191   */\n      dup4\n        /* \"#utility.yul\":13178:13195   */\n      add\n        /* \"#utility.yul\":13169:13175   */\n      dup6\n        /* \"#utility.yul\":13125:13196   */\n      tag_198\n      jump\t// in\n    tag_355:\n        /* \"#utility.yul\":13206:13278   */\n      tag_356\n        /* \"#utility.yul\":13274:13276   */\n      0x20\n        /* \"#utility.yul\":13263:13272   */\n      dup4\n        /* \"#utility.yul\":13259:13277   */\n      add\n        /* \"#utility.yul\":13250:13256   */\n      dup5\n        /* \"#utility.yul\":13206:13278   */\n      tag_188\n      jump\t// in\n    tag_356:\n        /* \"#utility.yul\":12953:13285   */\n      swap4\n      swap3\n      pop\n      pop\n      pop\n      jump\t// out\n        /* \"#utility.yul\":13291:13407   */\n    tag_214:\n        /* \"#utility.yul\":13361:13382   */\n      tag_358\n        /* \"#utility.yul\":13376:13381   */\n      dup2\n        /* \"#utility.yul\":13361:13382   */\n      tag_193\n      jump\t// in\n    tag_358:\n        /* \"#utility.yul\":13354:13359   */\n      dup2\n        /* \"#utility.yul\":13351:13383   */\n      eq\n        /* \"#utility.yul\":13341:13401   */\n      tag_359\n      jumpi\n        /* \"#utility.yul\":13397:13398   */\n      0x00\n        /* \"#utility.yul\":13394:13395   */\n      dup1\n        /* \"#utility.yul\":13387:13399   */\n      revert\n        /* \"#utility.yul\":13341:13401   */\n    tag_359:\n        /* \"#utility.yul\":13291:13407   */\n      pop\n      jump\t// out\n        /* \"#utility.yul\":13413:13550   */\n    tag_215:\n        /* \"#utility.yul\":13467:13472   */\n      0x00\n        /* \"#utility.yul\":13498:13504   */\n      dup2\n        /* \"#utility.yul\":13492:13505   */\n      mload\n        /* \"#utility.yul\":13483:13505   */\n      swap1\n      pop\n        /* \"#utility.yul\":13514:13544   */\n      tag_361\n        /* \"#utility.yul\":13538:13543   */\n      dup2\n        /* \"#utility.yul\":13514:13544   */\n      tag_214\n      jump\t// in\n    tag_361:\n        /* \"#utility.yul\":13413:13550   */\n      swap3\n      swap2\n      pop\n      pop\n      jump\t// out\n        /* \"#utility.yul\":13556:13901   */\n    tag_92:\n        /* \"#utility.yul\":13623:13629   */\n      0x00\n        /* \"#utility.yul\":13672:13674   */\n      0x20\n        /* \"#utility.yul\":13660:13669   */\n      dup3\n        /* \"#utility.yul\":13651:13658   */\n      dup5\n        /* \"#utility.yul\":13647:13670   */\n      sub\n        /* \"#utility.yul\":13643:13675   */\n      slt\n        /* \"#utility.yul\":13640:13759   */\n      iszero\n      tag_363\n      jumpi\n        /* \"#utility.yul\":13678:13757   */\n      tag_364\n      tag_183\n      jump\t// in\n    tag_364:\n        /* \"#utility.yul\":13640:13759   */\n    tag_363:\n        /* \"#utility.yul\":13798:13799   */\n      0x00\n        /* \"#utility.yul\":13823:13884   */\n      tag_365\n        /* \"#utility.yul\":13876:13883   */\n      dup5\n        /* \"#utility.yul\":13867:13873   */\n      dup3\n        /* \"#utility.yul\":13856:13865   */\n      dup6\n        /* \"#utility.yul\":13852:13874   */\n      add\n        /* \"#utility.yul\":13823:13884   */\n      tag_215\n      jump\t// in\n    tag_365:\n        /* \"#utility.yul\":13813:13884   */\n      swap2\n      pop\n        /* \"#utility.yul\":13769:13894   */\n      pop\n        /* \"#utility.yul\":13556:13901   */\n      swap3\n      swap2\n      pop\n      pop\n      jump\t// out\n        /* \"#utility.yul\":13907:14101   */\n    tag_95:\n        /* \"#utility.yul\":13947:13951   */\n      0x00\n        /* \"#utility.yul\":13967:13987   */\n      tag_367\n        /* \"#utility.yul\":13985:13986   */\n      dup3\n        /* \"#utility.yul\":13967:13987   */\n      tag_185\n      jump\t// in\n    tag_367:\n        /* \"#utility.yul\":13962:13987   */\n      swap2\n      pop\n        /* \"#utility.yul\":14001:14021   */\n      tag_368\n        /* \"#utility.yul\":14019:14020   */\n      dup4\n        /* \"#utility.yul\":14001:14021   */\n      tag_185\n      jump\t// in\n    tag_368:\n        /* \"#utility.yul\":13996:14021   */\n      swap3\n      pop\n        /* \"#utility.yul\":14045:14046   */\n      dup3\n        /* \"#utility.yul\":14042:14043   */\n      dup3\n        /* \"#utility.yul\":14038:14047   */\n      sub\n        /* \"#utility.yul\":14030:14047   */\n      swap1\n      pop\n        /* \"#utility.yul\":14069:14070   */\n      dup2\n        /* \"#utility.yul\":14063:14067   */\n      dup2\n        /* \"#utility.yul\":14060:14071   */\n      gt\n        /* \"#utility.yul\":14057:14094   */\n      iszero\n      tag_369\n      jumpi\n        /* \"#utility.yul\":14074:14092   */\n      tag_370\n      tag_209\n      jump\t// in\n    tag_370:\n        /* \"#utility.yul\":14057:14094   */\n    tag_369:\n        /* \"#utility.yul\":13907:14101   */\n      swap3\n      swap2\n      pop\n      pop\n      jump\t// out\n        /* \"#utility.yul\":14107:14549   */\n    tag_98:\n        /* \"#utility.yul\":14256:14260   */\n      0x00\n        /* \"#utility.yul\":14294:14296   */\n      0x60\n        /* \"#utility.yul\":14283:14292   */\n      dup3\n        /* \"#utility.yul\":14279:14297   */\n      add\n        /* \"#utility.yul\":14271:14297   */\n      swap1\n      pop\n        /* \"#utility.yul\":14307:14378   */\n      tag_372\n        /* \"#utility.yul\":14375:14376   */\n      0x00\n        /* \"#utility.yul\":14364:14373   */\n      dup4\n        /* \"#utility.yul\":14360:14377   */\n      add\n        /* \"#utility.yul\":14351:14357   */\n      dup7\n        /* \"#utility.yul\":14307:14378   */\n      tag_198\n      jump\t// in\n    tag_372:\n        /* \"#utility.yul\":14388:14460   */\n      tag_373\n        /* \"#utility.yul\":14456:14458   */\n      0x20\n        /* \"#utility.yul\":14445:14454   */\n      dup4\n        /* \"#utility.yul\":14441:14459   */\n      add\n        /* \"#utility.yul\":14432:14438   */\n      dup6\n        /* \"#utility.yul\":14388:14460   */\n      tag_188\n      jump\t// in\n    tag_373:\n        /* \"#utility.yul\":14470:14542   */\n      tag_374\n        /* \"#utility.yul\":14538:14540   */\n      0x40\n        /* \"#utility.yul\":14527:14536   */\n      dup4\n        /* \"#utility.yul\":14523:14541   */\n      add\n        /* \"#utility.yul\":14514:14520   */\n      dup5\n        /* \"#utility.yul\":14470:14542   */\n      tag_188\n      jump\t// in\n    tag_374:\n        /* \"#utility.yul\":14107:14549   */\n      swap5\n      swap4\n      pop\n      pop\n      pop\n      pop\n      jump\t// out\n        /* \"#utility.yul\":14555:14728   */\n    tag_216:\n        /* \"#utility.yul\":14695:14720   */\n      0x56657374696e67206e6f74207374617274656420796574000000000000000000\n        /* \"#utility.yul\":14691:14692   */\n      0x00\n        /* \"#utility.yul\":14683:14689   */\n      dup3\n        /* \"#utility.yul\":14679:14693   */\n      add\n        /* \"#utility.yul\":14672:14721   */\n      mstore\n        /* \"#utility.yul\":14555:14728   */\n      pop\n      jump\t// out\n        /* \"#utility.yul\":14734:15100   */\n    tag_217:\n        /* \"#utility.yul\":14876:14879   */\n      0x00\n        /* \"#utility.yul\":14897:14964   */\n      tag_377\n        /* \"#utility.yul\":14961:14963   */\n      0x17\n        /* \"#utility.yul\":14956:14959   */\n      dup4\n        /* \"#utility.yul\":14897:14964   */\n      tag_204\n      jump\t// in\n    tag_377:\n        /* \"#utility.yul\":14890:14964   */\n      swap2\n      pop\n        /* \"#utility.yul\":14973:15066   */\n      tag_378\n        /* \"#utility.yul\":15062:15065   */\n      dup3\n        /* \"#utility.yul\":14973:15066   */\n      tag_216\n      jump\t// in\n    tag_378:\n        /* \"#utility.yul\":15091:15093   */\n      0x20\n        /* \"#utility.yul\":15086:15089   */\n      dup3\n        /* \"#utility.yul\":15082:15094   */\n      add\n        /* \"#utility.yul\":15075:15094   */\n      swap1\n      pop\n        /* \"#utility.yul\":14734:15100   */\n      swap2\n      swap1\n      pop\n      jump\t// out\n        /* \"#utility.yul\":15106:15525   */\n    tag_107:\n        /* \"#utility.yul\":15272:15276   */\n      0x00\n        /* \"#utility.yul\":15310:15312   */\n      0x20\n        /* \"#utility.yul\":15299:15308   */\n      dup3\n        /* \"#utility.yul\":15295:15313   */\n      add\n        /* \"#utility.yul\":15287:15313   */\n      swap1\n      pop\n        /* \"#utility.yul\":15359:15368   */\n      dup2\n        /* \"#utility.yul\":15353:15357   */\n      dup2\n        /* \"#utility.yul\":15349:15369   */\n      sub\n        /* \"#utility.yul\":15345:15346   */\n      0x00\n        /* \"#utility.yul\":15334:15343   */\n      dup4\n        /* \"#utility.yul\":15330:15347   */\n      add\n        /* \"#utility.yul\":15323:15370   */\n      mstore\n        /* \"#utility.yul\":15387:15518   */\n      tag_380\n        /* \"#utility.yul\":15513:15517   */\n      dup2\n        /* \"#utility.yul\":15387:15518   */\n      tag_217\n      jump\t// in\n    tag_380:\n        /* \"#utility.yul\":15379:15518   */\n      swap1\n      pop\n        /* \"#utility.yul\":15106:15525   */\n      swap2\n      swap1\n      pop\n      jump\t// out\n        /* \"#utility.yul\":15531:15711   */\n    tag_218:\n        /* \"#utility.yul\":15579:15656   */\n      0x4e487b7100000000000000000000000000000000000000000000000000000000\n        /* \"#utility.yul\":15576:15577   */\n      0x00\n        /* \"#utility.yul\":15569:15657   */\n      mstore\n        /* \"#utility.yul\":15676:15680   */\n      0x12\n        /* \"#utility.yul\":15673:15674   */\n      0x04\n        /* \"#utility.yul\":15666:15681   */\n      mstore\n        /* \"#utility.yul\":15700:15704   */\n      0x24\n        /* \"#utility.yul\":15697:15698   */\n      0x00\n        /* \"#utility.yul\":15690:15705   */\n      revert\n        /* \"#utility.yul\":15717:15902   */\n    tag_111:\n        /* \"#utility.yul\":15757:15758   */\n      0x00\n        /* \"#utility.yul\":15774:15794   */\n      tag_383\n        /* \"#utility.yul\":15792:15793   */\n      dup3\n        /* \"#utility.yul\":15774:15794   */\n      tag_185\n      jump\t// in\n    tag_383:\n        /* \"#utility.yul\":15769:15794   */\n      swap2\n      pop\n        /* \"#utility.yul\":15808:15828   */\n      tag_384\n        /* \"#utility.yul\":15826:15827   */\n      dup4\n        /* \"#utility.yul\":15808:15828   */\n      tag_185\n      jump\t// in\n    tag_384:\n        /* \"#utility.yul\":15803:15828   */\n      swap3\n      pop\n        /* \"#utility.yul\":15847:15848   */\n      dup3\n        /* \"#utility.yul\":15837:15872   */\n      tag_385\n      jumpi\n        /* \"#utility.yul\":15852:15870   */\n      tag_386\n      tag_218\n      jump\t// in\n    tag_386:\n        /* \"#utility.yul\":15837:15872   */\n    tag_385:\n        /* \"#utility.yul\":15894:15895   */\n      dup3\n        /* \"#utility.yul\":15891:15892   */\n      dup3\n        /* \"#utility.yul\":15887:15896   */\n      div\n        /* \"#utility.yul\":15882:15896   */\n      swap1\n      pop\n        /* \"#utility.yul\":15717:15902   */\n      swap3\n      swap2\n      pop\n      pop\n      jump\t// out\n        /* \"#utility.yul\":15908:16318   */\n    tag_113:\n        /* \"#utility.yul\":15948:15955   */\n      0x00\n        /* \"#utility.yul\":15971:15991   */\n      tag_388\n        /* \"#utility.yul\":15989:15990   */\n      dup3\n        /* \"#utility.yul\":15971:15991   */\n      tag_185\n      jump\t// in\n    tag_388:\n        /* \"#utility.yul\":15966:15991   */\n      swap2\n      pop\n        /* \"#utility.yul\":16005:16025   */\n      tag_389\n        /* \"#utility.yul\":16023:16024   */\n      dup4\n        /* \"#utility.yul\":16005:16025   */\n      tag_185\n      jump\t// in\n    tag_389:\n        /* \"#utility.yul\":16000:16025   */\n      swap3\n      pop\n        /* \"#utility.yul\":16060:16061   */\n      dup3\n        /* \"#utility.yul\":16057:16058   */\n      dup3\n        /* \"#utility.yul\":16053:16062   */\n      mul\n        /* \"#utility.yul\":16082:16112   */\n      tag_390\n        /* \"#utility.yul\":16100:16111   */\n      dup2\n        /* \"#utility.yul\":16082:16112   */\n      tag_185\n      jump\t// in\n    tag_390:\n        /* \"#utility.yul\":16071:16112   */\n      swap2\n      pop\n        /* \"#utility.yul\":16261:16262   */\n      dup3\n        /* \"#utility.yul\":16252:16259   */\n      dup3\n        /* \"#utility.yul\":16248:16263   */\n      div\n        /* \"#utility.yul\":16245:16246   */\n      dup5\n        /* \"#utility.yul\":16242:16264   */\n      eq\n        /* \"#utility.yul\":16222:16223   */\n      dup4\n        /* \"#utility.yul\":16215:16224   */\n      iszero\n        /* \"#utility.yul\":16195:16278   */\n      or\n        /* \"#utility.yul\":16172:16311   */\n      tag_391\n      jumpi\n        /* \"#utility.yul\":16291:16309   */\n      tag_392\n      tag_209\n      jump\t// in\n    tag_392:\n        /* \"#utility.yul\":16172:16311   */\n    tag_391:\n        /* \"#utility.yul\":15956:16318   */\n      pop\n        /* \"#utility.yul\":15908:16318   */\n      swap3\n      swap2\n      pop\n      pop\n      jump\t// out\n        /* \"#utility.yul\":16324:16557   */\n    tag_219:\n        /* \"#utility.yul\":16464:16498   */\n      0x4f6e6c792074686520636f6e7472616374206f776e65722063616e2063616c6c\n        /* \"#utility.yul\":16460:16461   */\n      0x00\n        /* \"#utility.yul\":16452:16458   */\n      dup3\n        /* \"#utility.yul\":16448:16462   */\n      add\n        /* \"#utility.yul\":16441:16499   */\n      mstore\n        /* \"#utility.yul\":16533:16549   */\n      0x20746869732066756e6374696f6e000000000000000000000000000000000000\n        /* \"#utility.yul\":16528:16530   */\n      0x20\n        /* \"#utility.yul\":16520:16526   */\n      dup3\n        /* \"#utility.yul\":16516:16531   */\n      add\n        /* \"#utility.yul\":16509:16550   */\n      mstore\n        /* \"#utility.yul\":16324:16557   */\n      pop\n      jump\t// out\n        /* \"#utility.yul\":16563:16929   */\n    tag_220:\n        /* \"#utility.yul\":16705:16708   */\n      0x00\n        /* \"#utility.yul\":16726:16793   */\n      tag_395\n        /* \"#utility.yul\":16790:16792   */\n      0x2e\n        /* \"#utility.yul\":16785:16788   */\n      dup4\n        /* \"#utility.yul\":16726:16793   */\n      tag_204\n      jump\t// in\n    tag_395:\n        /* \"#utility.yul\":16719:16793   */\n      swap2\n      pop\n        /* \"#utility.yul\":16802:16895   */\n      tag_396\n        /* \"#utility.yul\":16891:16894   */\n      dup3\n        /* \"#utility.yul\":16802:16895   */\n      tag_219\n      jump\t// in\n    tag_396:\n        /* \"#utility.yul\":16920:16922   */\n      0x40\n        /* \"#utility.yul\":16915:16918   */\n      dup3\n        /* \"#utility.yul\":16911:16923   */\n      add\n        /* \"#utility.yul\":16904:16923   */\n      swap1\n      pop\n        /* \"#utility.yul\":16563:16929   */\n      swap2\n      swap1\n      pop\n      jump\t// out\n        /* \"#utility.yul\":16935:17354   */\n    tag_120:\n        /* \"#utility.yul\":17101:17105   */\n      0x00\n        /* \"#utility.yul\":17139:17141   */\n      0x20\n        /* \"#utility.yul\":17128:17137   */\n      dup3\n        /* \"#utility.yul\":17124:17142   */\n      add\n        /* \"#utility.yul\":17116:17142   */\n      swap1\n      pop\n        /* \"#utility.yul\":17188:17197   */\n      dup2\n        /* \"#utility.yul\":17182:17186   */\n      dup2\n        /* \"#utility.yul\":17178:17198   */\n      sub\n        /* \"#utility.yul\":17174:17175   */\n      0x00\n        /* \"#utility.yul\":17163:17172   */\n      dup4\n        /* \"#utility.yul\":17159:17176   */\n      add\n        /* \"#utility.yul\":17152:17199   */\n      mstore\n        /* \"#utility.yul\":17216:17347   */\n      tag_398\n        /* \"#utility.yul\":17342:17346   */\n      dup2\n        /* \"#utility.yul\":17216:17347   */\n      tag_220\n      jump\t// in\n    tag_398:\n        /* \"#utility.yul\":17208:17347   */\n      swap1\n      pop\n        /* \"#utility.yul\":16935:17354   */\n      swap2\n      swap1\n      pop\n      jump\t// out\n        /* \"#utility.yul\":17360:17535   */\n    tag_221:\n        /* \"#utility.yul\":17500:17527   */\n      0x546f6b656e206973206e6f7420696e2077686974656c69737400000000000000\n        /* \"#utility.yul\":17496:17497   */\n      0x00\n        /* \"#utility.yul\":17488:17494   */\n      dup3\n        /* \"#utility.yul\":17484:17498   */\n      add\n        /* \"#utility.yul\":17477:17528   */\n      mstore\n        /* \"#utility.yul\":17360:17535   */\n      pop\n      jump\t// out\n        /* \"#utility.yul\":17541:17907   */\n    tag_222:\n        /* \"#utility.yul\":17683:17686   */\n      0x00\n        /* \"#utility.yul\":17704:17771   */\n      tag_401\n        /* \"#utility.yul\":17768:17770   */\n      0x19\n        /* \"#utility.yul\":17763:17766   */\n      dup4\n        /* \"#utility.yul\":17704:17771   */\n      tag_204\n      jump\t// in\n    tag_401:\n        /* \"#utility.yul\":17697:17771   */\n      swap2\n      pop\n        /* \"#utility.yul\":17780:17873   */\n      tag_402\n        /* \"#utility.yul\":17869:17872   */\n      dup3\n        /* \"#utility.yul\":17780:17873   */\n      tag_221\n      jump\t// in\n    tag_402:\n        /* \"#utility.yul\":17898:17900   */\n      0x20\n        /* \"#utility.yul\":17893:17896   */\n      dup3\n        /* \"#utility.yul\":17889:17901   */\n      add\n        /* \"#utility.yul\":17882:17901   */\n      swap1\n      pop\n        /* \"#utility.yul\":17541:17907   */\n      swap2\n      swap1\n      pop\n      jump\t// out\n        /* \"#utility.yul\":17913:18332   */\n    tag_124:\n        /* \"#utility.yul\":18079:18083   */\n      0x00\n        /* \"#utility.yul\":18117:18119   */\n      0x20\n        /* \"#utility.yul\":18106:18115   */\n      dup3\n        /* \"#utility.yul\":18102:18120   */\n      add\n        /* \"#utility.yul\":18094:18120   */\n      swap1\n      pop\n        /* \"#utility.yul\":18166:18175   */\n      dup2\n        /* \"#utility.yul\":18160:18164   */\n      dup2\n        /* \"#utility.yul\":18156:18176   */\n      sub\n        /* \"#utility.yul\":18152:18153   */\n      0x00\n        /* \"#utility.yul\":18141:18150   */\n      dup4\n        /* \"#utility.yul\":18137:18154   */\n      add\n        /* \"#utility.yul\":18130:18177   */\n      mstore\n        /* \"#utility.yul\":18194:18325   */\n      tag_404\n        /* \"#utility.yul\":18320:18324   */\n      dup2\n        /* \"#utility.yul\":18194:18325   */\n      tag_222\n      jump\t// in\n    tag_404:\n        /* \"#utility.yul\":18186:18325   */\n      swap1\n      pop\n        /* \"#utility.yul\":17913:18332   */\n      swap2\n      swap1\n      pop\n      jump\t// out\n        /* \"#utility.yul\":18338:18520   */\n    tag_223:\n        /* \"#utility.yul\":18478:18512   */\n      0x546f6b656e20616c726561647920616464656420746f2077686974656c697374\n        /* \"#utility.yul\":18474:18475   */\n      0x00\n        /* \"#utility.yul\":18466:18472   */\n      dup3\n        /* \"#utility.yul\":18462:18476   */\n      add\n        /* \"#utility.yul\":18455:18513   */\n      mstore\n        /* \"#utility.yul\":18338:18520   */\n      pop\n      jump\t// out\n        /* \"#utility.yul\":18526:18892   */\n    tag_224:\n        /* \"#utility.yul\":18668:18671   */\n      0x00\n        /* \"#utility.yul\":18689:18756   */\n      tag_407\n        /* \"#utility.yul\":18753:18755   */\n      0x20\n        /* \"#utility.yul\":18748:18751   */\n      dup4\n        /* \"#utility.yul\":18689:18756   */\n      tag_204\n      jump\t// in\n    tag_407:\n        /* \"#utility.yul\":18682:18756   */\n      swap2\n      pop\n        /* \"#utility.yul\":18765:18858   */\n      tag_408\n        /* \"#utility.yul\":18854:18857   */\n      dup3\n        /* \"#utility.yul\":18765:18858   */\n      tag_223\n      jump\t// in\n    tag_408:\n        /* \"#utility.yul\":18883:18885   */\n      0x20\n        /* \"#utility.yul\":18878:18881   */\n      dup3\n        /* \"#utility.yul\":18874:18886   */\n      add\n        /* \"#utility.yul\":18867:18886   */\n      swap1\n      pop\n        /* \"#utility.yul\":18526:18892   */\n      swap2\n      swap1\n      pop\n      jump\t// out\n        /* \"#utility.yul\":18898:19317   */\n    tag_137:\n        /* \"#utility.yul\":19064:19068   */\n      0x00\n        /* \"#utility.yul\":19102:19104   */\n      0x20\n        /* \"#utility.yul\":19091:19100   */\n      dup3\n        /* \"#utility.yul\":19087:19105   */\n      add\n        /* \"#utility.yul\":19079:19105   */\n      swap1\n      pop\n        /* \"#utility.yul\":19151:19160   */\n      dup2\n        /* \"#utility.yul\":19145:19149   */\n      dup2\n        /* \"#utility.yul\":19141:19161   */\n      sub\n        /* \"#utility.yul\":19137:19138   */\n      0x00\n        /* \"#utility.yul\":19126:19135   */\n      dup4\n        /* \"#utility.yul\":19122:19139   */\n      add\n        /* \"#utility.yul\":19115:19162   */\n      mstore\n        /* \"#utility.yul\":19179:19310   */\n      tag_410\n        /* \"#utility.yul\":19305:19309   */\n      dup2\n        /* \"#utility.yul\":19179:19310   */\n      tag_224\n      jump\t// in\n    tag_410:\n        /* \"#utility.yul\":19171:19310   */\n      swap1\n      pop\n        /* \"#utility.yul\":18898:19317   */\n      swap2\n      swap1\n      pop\n      jump\t// out\n        /* \"#utility.yul\":19323:19496   */\n    tag_225:\n        /* \"#utility.yul\":19463:19488   */\n      0x416d6f756e74206d757374206e6f74206265207a65726f000000000000000000\n        /* \"#utility.yul\":19459:19460   */\n      0x00\n        /* \"#utility.yul\":19451:19457   */\n      dup3\n        /* \"#utility.yul\":19447:19461   */\n      add\n        /* \"#utility.yul\":19440:19489   */\n      mstore\n        /* \"#utility.yul\":19323:19496   */\n      pop\n      jump\t// out\n        /* \"#utility.yul\":19502:19868   */\n    tag_226:\n        /* \"#utility.yul\":19644:19647   */\n      0x00\n        /* \"#utility.yul\":19665:19732   */\n      tag_413\n        /* \"#utility.yul\":19729:19731   */\n      0x17\n        /* \"#utility.yul\":19724:19727   */\n      dup4\n        /* \"#utility.yul\":19665:19732   */\n      tag_204\n      jump\t// in\n    tag_413:\n        /* \"#utility.yul\":19658:19732   */\n      swap2\n      pop\n        /* \"#utility.yul\":19741:19834   */\n      tag_414\n        /* \"#utility.yul\":19830:19833   */\n      dup3\n        /* \"#utility.yul\":19741:19834   */\n      tag_225\n      jump\t// in\n    tag_414:\n        /* \"#utility.yul\":19859:19861   */\n      0x20\n        /* \"#utility.yul\":19854:19857   */\n      dup3\n        /* \"#utility.yul\":19850:19862   */\n      add\n        /* \"#utility.yul\":19843:19862   */\n      swap1\n      pop\n        /* \"#utility.yul\":19502:19868   */\n      swap2\n      swap1\n      pop\n      jump\t// out\n        /* \"#utility.yul\":19874:20293   */\n    tag_148:\n        /* \"#utility.yul\":20040:20044   */\n      0x00\n        /* \"#utility.yul\":20078:20080   */\n      0x20\n        /* \"#utility.yul\":20067:20076   */\n      dup3\n        /* \"#utility.yul\":20063:20081   */\n      add\n        /* \"#utility.yul\":20055:20081   */\n      swap1\n      pop\n        /* \"#utility.yul\":20127:20136   */\n      dup2\n        /* \"#utility.yul\":20121:20125   */\n      dup2\n        /* \"#utility.yul\":20117:20137   */\n      sub\n        /* \"#utility.yul\":20113:20114   */\n      0x00\n        /* \"#utility.yul\":20102:20111   */\n      dup4\n        /* \"#utility.yul\":20098:20115   */\n      add\n        /* \"#utility.yul\":20091:20138   */\n      mstore\n        /* \"#utility.yul\":20155:20286   */\n      tag_416\n        /* \"#utility.yul\":20281:20285   */\n      dup2\n        /* \"#utility.yul\":20155:20286   */\n      tag_226\n      jump\t// in\n    tag_416:\n        /* \"#utility.yul\":20147:20286   */\n      swap1\n      pop\n        /* \"#utility.yul\":19874:20293   */\n      swap2\n      swap1\n      pop\n      jump\t// out\n        /* \"#utility.yul\":20299:20531   */\n    tag_227:\n        /* \"#utility.yul\":20439:20473   */\n      0x53746172742054696d65206d7573742062652067726561746572207468616e20\n        /* \"#utility.yul\":20435:20436   */\n      0x00\n        /* \"#utility.yul\":20427:20433   */\n      dup3\n        /* \"#utility.yul\":20423:20437   */\n      add\n        /* \"#utility.yul\":20416:20474   */\n      mstore\n        /* \"#utility.yul\":20508:20523   */\n      0x63757272656e742074696d652e00000000000000000000000000000000000000\n        /* \"#utility.yul\":20503:20505   */\n      0x20\n        /* \"#utility.yul\":20495:20501   */\n      dup3\n        /* \"#utility.yul\":20491:20506   */\n      add\n        /* \"#utility.yul\":20484:20524   */\n      mstore\n        /* \"#utility.yul\":20299:20531   */\n      pop\n      jump\t// out\n        /* \"#utility.yul\":20537:20903   */\n    tag_228:\n        /* \"#utility.yul\":20679:20682   */\n      0x00\n        /* \"#utility.yul\":20700:20767   */\n      tag_419\n        /* \"#utility.yul\":20764:20766   */\n      0x2d\n        /* \"#utility.yul\":20759:20762   */\n      dup4\n        /* \"#utility.yul\":20700:20767   */\n      tag_204\n      jump\t// in\n    tag_419:\n        /* \"#utility.yul\":20693:20767   */\n      swap2\n      pop\n        /* \"#utility.yul\":20776:20869   */\n      tag_420\n        /* \"#utility.yul\":20865:20868   */\n      dup3\n        /* \"#utility.yul\":20776:20869   */\n      tag_227\n      jump\t// in\n    tag_420:\n        /* \"#utility.yul\":20894:20896   */\n      0x40\n        /* \"#utility.yul\":20889:20892   */\n      dup3\n        /* \"#utility.yul\":20885:20897   */\n      add\n        /* \"#utility.yul\":20878:20897   */\n      swap1\n      pop\n        /* \"#utility.yul\":20537:20903   */\n      swap2\n      swap1\n      pop\n      jump\t// out\n        /* \"#utility.yul\":20909:21328   */\n    tag_152:\n        /* \"#utility.yul\":21075:21079   */\n      0x00\n        /* \"#utility.yul\":21113:21115   */\n      0x20\n        /* \"#utility.yul\":21102:21111   */\n      dup3\n        /* \"#utility.yul\":21098:21116   */\n      add\n        /* \"#utility.yul\":21090:21116   */\n      swap1\n      pop\n        /* \"#utility.yul\":21162:21171   */\n      dup2\n        /* \"#utility.yul\":21156:21160   */\n      dup2\n        /* \"#utility.yul\":21152:21172   */\n      sub\n        /* \"#utility.yul\":21148:21149   */\n      0x00\n        /* \"#utility.yul\":21137:21146   */\n      dup4\n        /* \"#utility.yul\":21133:21150   */\n      add\n        /* \"#utility.yul\":21126:21173   */\n      mstore\n        /* \"#utility.yul\":21190:21321   */\n      tag_422\n        /* \"#utility.yul\":21316:21320   */\n      dup2\n        /* \"#utility.yul\":21190:21321   */\n      tag_228\n      jump\t// in\n    tag_422:\n        /* \"#utility.yul\":21182:21321   */\n      swap1\n      pop\n        /* \"#utility.yul\":20909:21328   */\n      swap2\n      swap1\n      pop\n      jump\t// out\n        /* \"#utility.yul\":21334:21559   */\n    tag_229:\n        /* \"#utility.yul\":21474:21508   */\n      0x53746172742054696d65206d757374206265206c657373207468616e20456e64\n        /* \"#utility.yul\":21470:21471   */\n      0x00\n        /* \"#utility.yul\":21462:21468   */\n      dup3\n        /* \"#utility.yul\":21458:21472   */\n      add\n        /* \"#utility.yul\":21451:21509   */\n      mstore\n        /* \"#utility.yul\":21543:21551   */\n      0x2074696d652e0000000000000000000000000000000000000000000000000000\n        /* \"#utility.yul\":21538:21540   */\n      0x20\n        /* \"#utility.yul\":21530:21536   */\n      dup3\n        /* \"#utility.yul\":21526:21541   */\n      add\n        /* \"#utility.yul\":21519:21552   */\n      mstore\n        /* \"#utility.yul\":21334:21559   */\n      pop\n      jump\t// out\n        /* \"#utility.yul\":21565:21931   */\n    tag_230:\n        /* \"#utility.yul\":21707:21710   */\n      0x00\n        /* \"#utility.yul\":21728:21795   */\n      tag_425\n        /* \"#utility.yul\":21792:21794   */\n      0x26\n        /* \"#utility.yul\":21787:21790   */\n      dup4\n        /* \"#utility.yul\":21728:21795   */\n      tag_204\n      jump\t// in\n    tag_425:\n        /* \"#utility.yul\":21721:21795   */\n      swap2\n      pop\n        /* \"#utility.yul\":21804:21897   */\n      tag_426\n        /* \"#utility.yul\":21893:21896   */\n      dup3\n        /* \"#utility.yul\":21804:21897   */\n      tag_229\n      jump\t// in\n    tag_426:\n        /* \"#utility.yul\":21922:21924   */\n      0x40\n        /* \"#utility.yul\":21917:21920   */\n      dup3\n        /* \"#utility.yul\":21913:21925   */\n      add\n        /* \"#utility.yul\":21906:21925   */\n      swap1\n      pop\n        /* \"#utility.yul\":21565:21931   */\n      swap2\n      swap1\n      pop\n      jump\t// out\n        /* \"#utility.yul\":21937:22356   */\n    tag_158:\n        /* \"#utility.yul\":22103:22107   */\n      0x00\n        /* \"#utility.yul\":22141:22143   */\n      0x20\n        /* \"#utility.yul\":22130:22139   */\n      dup3\n        /* \"#utility.yul\":22126:22144   */\n      add\n        /* \"#utility.yul\":22118:22144   */\n      swap1\n      pop\n        /* \"#utility.yul\":22190:22199   */\n      dup2\n        /* \"#utility.yul\":22184:22188   */\n      dup2\n        /* \"#utility.yul\":22180:22200   */\n      sub\n        /* \"#utility.yul\":22176:22177   */\n      0x00\n        /* \"#utility.yul\":22165:22174   */\n      dup4\n        /* \"#utility.yul\":22161:22178   */\n      add\n        /* \"#utility.yul\":22154:22201   */\n      mstore\n        /* \"#utility.yul\":22218:22349   */\n      tag_428\n        /* \"#utility.yul\":22344:22348   */\n      dup2\n        /* \"#utility.yul\":22218:22349   */\n      tag_230\n      jump\t// in\n    tag_428:\n        /* \"#utility.yul\":22210:22349   */\n      swap1\n      pop\n        /* \"#utility.yul\":21937:22356   */\n      swap2\n      swap1\n      pop\n      jump\t// out\n        /* \"#utility.yul\":22362:22590   */\n    tag_231:\n        /* \"#utility.yul\":22502:22536   */\n      0x596f7520617265206e6f7420616c6c6f77656420746f20757365207468697320\n        /* \"#utility.yul\":22498:22499   */\n      0x00\n        /* \"#utility.yul\":22490:22496   */\n      dup3\n        /* \"#utility.yul\":22486:22500   */\n      add\n        /* \"#utility.yul\":22479:22537   */\n      mstore\n        /* \"#utility.yul\":22571:22582   */\n      0x636f6e74726163742e0000000000000000000000000000000000000000000000\n        /* \"#utility.yul\":22566:22568   */\n      0x20\n        /* \"#utility.yul\":22558:22564   */\n      dup3\n        /* \"#utility.yul\":22554:22569   */\n      add\n        /* \"#utility.yul\":22547:22583   */\n      mstore\n        /* \"#utility.yul\":22362:22590   */\n      pop\n      jump\t// out\n        /* \"#utility.yul\":22596:22962   */\n    tag_232:\n        /* \"#utility.yul\":22738:22741   */\n      0x00\n        /* \"#utility.yul\":22759:22826   */\n      tag_431\n        /* \"#utility.yul\":22823:22825   */\n      0x29\n        /* \"#utility.yul\":22818:22821   */\n      dup4\n        /* \"#utility.yul\":22759:22826   */\n      tag_204\n      jump\t// in\n    tag_431:\n        /* \"#utility.yul\":22752:22826   */\n      swap2\n      pop\n        /* \"#utility.yul\":22835:22928   */\n      tag_432\n        /* \"#utility.yul\":22924:22927   */\n      dup3\n        /* \"#utility.yul\":22835:22928   */\n      tag_231\n      jump\t// in\n    tag_432:\n        /* \"#utility.yul\":22953:22955   */\n      0x40\n        /* \"#utility.yul\":22948:22951   */\n      dup3\n        /* \"#utility.yul\":22944:22956   */\n      add\n        /* \"#utility.yul\":22937:22956   */\n      swap1\n      pop\n        /* \"#utility.yul\":22596:22962   */\n      swap2\n      swap1\n      pop\n      jump\t// out\n        /* \"#utility.yul\":22968:23387   */\n    tag_161:\n        /* \"#utility.yul\":23134:23138   */\n      0x00\n        /* \"#utility.yul\":23172:23174   */\n      0x20\n        /* \"#utility.yul\":23161:23170   */\n      dup3\n        /* \"#utility.yul\":23157:23175   */\n      add\n        /* \"#utility.yul\":23149:23175   */\n      swap1\n      pop\n        /* \"#utility.yul\":23221:23230   */\n      dup2\n        /* \"#utility.yul\":23215:23219   */\n      dup2\n        /* \"#utility.yul\":23211:23231   */\n      sub\n        /* \"#utility.yul\":23207:23208   */\n      0x00\n        /* \"#utility.yul\":23196:23205   */\n      dup4\n        /* \"#utility.yul\":23192:23209   */\n      add\n        /* \"#utility.yul\":23185:23232   */\n      mstore\n        /* \"#utility.yul\":23249:23380   */\n      tag_434\n        /* \"#utility.yul\":23375:23379   */\n      dup2\n        /* \"#utility.yul\":23249:23380   */\n      tag_232\n      jump\t// in\n    tag_434:\n        /* \"#utility.yul\":23241:23380   */\n      swap1\n      pop\n        /* \"#utility.yul\":22968:23387   */\n      swap2\n      swap1\n      pop\n      jump\t// out\n        /* \"#utility.yul\":23393:23575   */\n    tag_233:\n        /* \"#utility.yul\":23533:23567   */\n      0x436c696666206d757374206265206c657373207468616e206475726174696f6e\n        /* \"#utility.yul\":23529:23530   */\n      0x00\n        /* \"#utility.yul\":23521:23527   */\n      dup3\n        /* \"#utility.yul\":23517:23531   */\n      add\n        /* \"#utility.yul\":23510:23568   */\n      mstore\n        /* \"#utility.yul\":23393:23575   */\n      pop\n      jump\t// out\n        /* \"#utility.yul\":23581:23947   */\n    tag_234:\n        /* \"#utility.yul\":23723:23726   */\n      0x00\n        /* \"#utility.yul\":23744:23811   */\n      tag_437\n        /* \"#utility.yul\":23808:23810   */\n      0x20\n        /* \"#utility.yul\":23803:23806   */\n      dup4\n        /* \"#utility.yul\":23744:23811   */\n      tag_204\n      jump\t// in\n    tag_437:\n        /* \"#utility.yul\":23737:23811   */\n      swap2\n      pop\n        /* \"#utility.yul\":23820:23913   */\n      tag_438\n        /* \"#utility.yul\":23909:23912   */\n      dup3\n        /* \"#utility.yul\":23820:23913   */\n      tag_233\n      jump\t// in\n    tag_438:\n        /* \"#utility.yul\":23938:23940   */\n      0x20\n        /* \"#utility.yul\":23933:23936   */\n      dup3\n        /* \"#utility.yul\":23929:23941   */\n      add\n        /* \"#utility.yul\":23922:23941   */\n      swap1\n      pop\n        /* \"#utility.yul\":23581:23947   */\n      swap2\n      swap1\n      pop\n      jump\t// out\n        /* \"#utility.yul\":23953:24372   */\n    tag_165:\n        /* \"#utility.yul\":24119:24123   */\n      0x00\n        /* \"#utility.yul\":24157:24159   */\n      0x20\n        /* \"#utility.yul\":24146:24155   */\n      dup3\n        /* \"#utility.yul\":24142:24160   */\n      add\n        /* \"#utility.yul\":24134:24160   */\n      swap1\n      pop\n        /* \"#utility.yul\":24206:24215   */\n      dup2\n        /* \"#utility.yul\":24200:24204   */\n      dup2\n        /* \"#utility.yul\":24196:24216   */\n      sub\n        /* \"#utility.yul\":24192:24193   */\n      0x00\n        /* \"#utility.yul\":24181:24190   */\n      dup4\n        /* \"#utility.yul\":24177:24194   */\n      add\n        /* \"#utility.yul\":24170:24217   */\n      mstore\n        /* \"#utility.yul\":24234:24365   */\n      tag_440\n        /* \"#utility.yul\":24360:24364   */\n      dup2\n        /* \"#utility.yul\":24234:24365   */\n      tag_234\n      jump\t// in\n    tag_440:\n        /* \"#utility.yul\":24226:24365   */\n      swap1\n      pop\n        /* \"#utility.yul\":23953:24372   */\n      swap2\n      swap1\n      pop\n      jump\t// out\n        /* \"#utility.yul\":24378:24602   */\n    tag_235:\n        /* \"#utility.yul\":24518:24552   */\n      0x436c696666206d7573742062652067726561746572207468616e207374617274\n        /* \"#utility.yul\":24514:24515   */\n      0x00\n        /* \"#utility.yul\":24506:24512   */\n      dup3\n        /* \"#utility.yul\":24502:24516   */\n      add\n        /* \"#utility.yul\":24495:24553   */\n      mstore\n        /* \"#utility.yul\":24587:24594   */\n      0x2074696d65000000000000000000000000000000000000000000000000000000\n        /* \"#utility.yul\":24582:24584   */\n      0x20\n        /* \"#utility.yul\":24574:24580   */\n      dup3\n        /* \"#utility.yul\":24570:24585   */\n      add\n        /* \"#utility.yul\":24563:24595   */\n      mstore\n        /* \"#utility.yul\":24378:24602   */\n      pop\n      jump\t// out\n        /* \"#utility.yul\":24608:24974   */\n    tag_236:\n        /* \"#utility.yul\":24750:24753   */\n      0x00\n        /* \"#utility.yul\":24771:24838   */\n      tag_443\n        /* \"#utility.yul\":24835:24837   */\n      0x25\n        /* \"#utility.yul\":24830:24833   */\n      dup4\n        /* \"#utility.yul\":24771:24838   */\n      tag_204\n      jump\t// in\n    tag_443:\n        /* \"#utility.yul\":24764:24838   */\n      swap2\n      pop\n        /* \"#utility.yul\":24847:24940   */\n      tag_444\n        /* \"#utility.yul\":24936:24939   */\n      dup3\n        /* \"#utility.yul\":24847:24940   */\n      tag_235\n      jump\t// in\n    tag_444:\n        /* \"#utility.yul\":24965:24967   */\n      0x40\n        /* \"#utility.yul\":24960:24963   */\n      dup3\n        /* \"#utility.yul\":24956:24968   */\n      add\n        /* \"#utility.yul\":24949:24968   */\n      swap1\n      pop\n        /* \"#utility.yul\":24608:24974   */\n      swap2\n      swap1\n      pop\n      jump\t// out\n        /* \"#utility.yul\":24980:25399   */\n    tag_168:\n        /* \"#utility.yul\":25146:25150   */\n      0x00\n        /* \"#utility.yul\":25184:25186   */\n      0x20\n        /* \"#utility.yul\":25173:25182   */\n      dup3\n        /* \"#utility.yul\":25169:25187   */\n      add\n        /* \"#utility.yul\":25161:25187   */\n      swap1\n      pop\n        /* \"#utility.yul\":25233:25242   */\n      dup2\n        /* \"#utility.yul\":25227:25231   */\n      dup2\n        /* \"#utility.yul\":25223:25243   */\n      sub\n        /* \"#utility.yul\":25219:25220   */\n      0x00\n        /* \"#utility.yul\":25208:25217   */\n      dup4\n        /* \"#utility.yul\":25204:25221   */\n      add\n        /* \"#utility.yul\":25197:25244   */\n      mstore\n        /* \"#utility.yul\":25261:25392   */\n      tag_446\n        /* \"#utility.yul\":25387:25391   */\n      dup2\n        /* \"#utility.yul\":25261:25392   */\n      tag_236\n      jump\t// in\n    tag_446:\n        /* \"#utility.yul\":25253:25392   */\n      swap1\n      pop\n        /* \"#utility.yul\":24980:25399   */\n      swap2\n      swap1\n      pop\n      jump\t// out\n        /* \"#utility.yul\":25405:25847   */\n    tag_176:\n        /* \"#utility.yul\":25554:25558   */\n      0x00\n        /* \"#utility.yul\":25592:25594   */\n      0x60\n        /* \"#utility.yul\":25581:25590   */\n      dup3\n        /* \"#utility.yul\":25577:25595   */\n      add\n        /* \"#utility.yul\":25569:25595   */\n      swap1\n      pop\n        /* \"#utility.yul\":25605:25676   */\n      tag_448\n        /* \"#utility.yul\":25673:25674   */\n      0x00\n        /* \"#utility.yul\":25662:25671   */\n      dup4\n        /* \"#utility.yul\":25658:25675   */\n      add\n        /* \"#utility.yul\":25649:25655   */\n      dup7\n        /* \"#utility.yul\":25605:25676   */\n      tag_198\n      jump\t// in\n    tag_448:\n        /* \"#utility.yul\":25686:25758   */\n      tag_449\n        /* \"#utility.yul\":25754:25756   */\n      0x20\n        /* \"#utility.yul\":25743:25752   */\n      dup4\n        /* \"#utility.yul\":25739:25757   */\n      add\n        /* \"#utility.yul\":25730:25736   */\n      dup6\n        /* \"#utility.yul\":25686:25758   */\n      tag_198\n      jump\t// in\n    tag_449:\n        /* \"#utility.yul\":25768:25840   */\n      tag_450\n        /* \"#utility.yul\":25836:25838   */\n      0x40\n        /* \"#utility.yul\":25825:25834   */\n      dup4\n        /* \"#utility.yul\":25821:25839   */\n      add\n        /* \"#utility.yul\":25812:25818   */\n      dup5\n        /* \"#utility.yul\":25768:25840   */\n      tag_188\n      jump\t// in\n    tag_450:\n        /* \"#utility.yul\":25405:25847   */\n      swap5\n      swap4\n      pop\n      pop\n      pop\n      pop\n      jump\t// out\n        /* \"#utility.yul\":25853:26739   */\n    tag_181:\n        /* \"#utility.yul\":26114:26118   */\n      0x00\n        /* \"#utility.yul\":26152:26155   */\n      0xe0\n        /* \"#utility.yul\":26141:26150   */\n      dup3\n        /* \"#utility.yul\":26137:26156   */\n      add\n        /* \"#utility.yul\":26129:26156   */\n      swap1\n      pop\n        /* \"#utility.yul\":26166:26237   */\n      tag_452\n        /* \"#utility.yul\":26234:26235   */\n      0x00\n        /* \"#utility.yul\":26223:26232   */\n      dup4\n        /* \"#utility.yul\":26219:26236   */\n      add\n        /* \"#utility.yul\":26210:26216   */\n      dup11\n        /* \"#utility.yul\":26166:26237   */\n      tag_198\n      jump\t// in\n    tag_452:\n        /* \"#utility.yul\":26247:26319   */\n      tag_453\n        /* \"#utility.yul\":26315:26317   */\n      0x20\n        /* \"#utility.yul\":26304:26313   */\n      dup4\n        /* \"#utility.yul\":26300:26318   */\n      add\n        /* \"#utility.yul\":26291:26297   */\n      dup10\n        /* \"#utility.yul\":26247:26319   */\n      tag_188\n      jump\t// in\n    tag_453:\n        /* \"#utility.yul\":26329:26401   */\n      tag_454\n        /* \"#utility.yul\":26397:26399   */\n      0x40\n        /* \"#utility.yul\":26386:26395   */\n      dup4\n        /* \"#utility.yul\":26382:26400   */\n      add\n        /* \"#utility.yul\":26373:26379   */\n      dup9\n        /* \"#utility.yul\":26329:26401   */\n      tag_188\n      jump\t// in\n    tag_454:\n        /* \"#utility.yul\":26411:26483   */\n      tag_455\n        /* \"#utility.yul\":26479:26481   */\n      0x60\n        /* \"#utility.yul\":26468:26477   */\n      dup4\n        /* \"#utility.yul\":26464:26482   */\n      add\n        /* \"#utility.yul\":26455:26461   */\n      dup8\n        /* \"#utility.yul\":26411:26483   */\n      tag_188\n      jump\t// in\n    tag_455:\n        /* \"#utility.yul\":26493:26566   */\n      tag_456\n        /* \"#utility.yul\":26561:26564   */\n      0x80\n        /* \"#utility.yul\":26550:26559   */\n      dup4\n        /* \"#utility.yul\":26546:26565   */\n      add\n        /* \"#utility.yul\":26537:26543   */\n      dup7\n        /* \"#utility.yul\":26493:26566   */\n      tag_188\n      jump\t// in\n    tag_456:\n        /* \"#utility.yul\":26576:26649   */\n      tag_457\n        /* \"#utility.yul\":26644:26647   */\n      0xa0\n        /* \"#utility.yul\":26633:26642   */\n      dup4\n        /* \"#utility.yul\":26629:26648   */\n      add\n        /* \"#utility.yul\":26620:26626   */\n      dup6\n        /* \"#utility.yul\":26576:26649   */\n      tag_188\n      jump\t// in\n    tag_457:\n        /* \"#utility.yul\":26659:26732   */\n      tag_458\n        /* \"#utility.yul\":26727:26730   */\n      0xc0\n        /* \"#utility.yul\":26716:26725   */\n      dup4\n        /* \"#utility.yul\":26712:26731   */\n      add\n        /* \"#utility.yul\":26703:26709   */\n      dup5\n        /* \"#utility.yul\":26659:26732   */\n      tag_198\n      jump\t// in\n    tag_458:\n        /* \"#utility.yul\":25853:26739   */\n      swap9\n      swap8\n      pop\n      pop\n      pop\n      pop\n      pop\n      pop\n      pop\n      pop\n      jump\t// out\n\n    auxdata: 0xa2646970667358221220762d1093093e60d4e969c4345406d6713c587dd059afcd3a2492bd0a6d632b7f64736f6c63430008120033\n}\n",
				"bytecode": {
					"linkReferences": {},
					"object": "608060405234801561001057600080fd5b5033600160006101000a81548173ffffffffffffffffffffffffffffffffffffffff021916908373ffffffffffffffffffffffffffffffffffffffff1602179055506121f6806100616000396000f3fe608060405234801561001057600080fd5b50600436106100b45760003560e01c8063d41330d211610071578063d41330d2146101a2578063e9afad38146101c0578063eab72e65146101de578063f80f5dd51461020e578063f8c8d1401461022a578063fc0c546a14610246576100b4565b80632e1a7d4d146100b9578063557ed1ba146100d55780635952ffd1146100f357806378c8cda714610123578063952901631461013f578063bd84477d1461016f575b600080fd5b6100d360048036038101906100ce9190611452565b610264565b005b6100dd610566565b6040516100ea919061148e565b60405180910390f35b61010d60048036038101906101089190611452565b61056e565b60405161011a919061148e565b60405180910390f35b61013d60048036038101906101389190611507565b6107e2565b005b61015960048036038101906101549190611507565b6109a8565b604051610166919061154f565b60405180910390f35b6101896004803603810190610184919061156a565b6109c8565b604051610199949392919061166a565b60405180910390f35b6101aa610b15565b6040516101b7919061148e565b60405180910390f35b6101c8610b22565b6040516101d5919061148e565b60405180910390f35b6101f860048036038101906101f39190611452565b610b6c565b60405161020591906116bf565b60405180910390f35b61022860048036038101906102239190611507565b610bab565b005b610244600480360381019061023f91906116da565b610d86565b005b61024e6113f3565b60405161025b91906117db565b60405180910390f35b6000600260003373ffffffffffffffffffffffffffffffffffffffff1673ffffffffffffffffffffffffffffffffffffffff16815260200190815260200160002082815481106102b7576102b66117f6565b5b90600052602060002090600b020190508060010160009054906101000a900460ff16610318576040517f08c379a000000000000000000000000000000000000000000000000000000000815260040161030f90611882565b60405180910390fd5b8060030160010154610328610566565b11610368576040517f08c379a000000000000000000000000000000000000000000000000000000000815260040161035f90611914565b60405180910390fd5b610370610566565b8160030160010154826003016004015461038a9190611963565b106103ca576040517f08c379a00000000000000000000000000000000000000000000000000000000081526004016103c1906119e3565b60405180910390fd5b60006103d58361056e565b90506000811161041a576040517f08c379a000000000000000000000000000000000000000000000000000000000815260040161041190611a75565b60405180910390fd5b8160030160070160009054906101000a900473ffffffffffffffffffffffffffffffffffffffff1673ffffffffffffffffffffffffffffffffffffffff1663a9059cbb33836040518363ffffffff1660e01b815260040161047c929190611a95565b6020604051808303816000875af115801561049b573d6000803e3d6000fd5b505050506040513d601f19601f820116820180604052508101906104bf9190611aea565b50808260020160008282546104d49190611963565b92505081905550808260030160000160008282546104f29190611b17565b9250508190555060008260030160000154036105265760008260010160006101000a81548160ff0219169083151502179055505b7fccdb21e8b29fbf756f29d5f05c72606ca9e8160ec1a135ca6f50dae471188cec33848360405161055993929190611b4b565b60405180910390a1505050565b600042905090565b600080600260003373ffffffffffffffffffffffffffffffffffffffff1673ffffffffffffffffffffffffffffffffffffffff16815260200190815260200160002083815481106105c2576105c16117f6565b5b90600052602060002090600b0201604051806080016040529081600082015481526020016001820160009054906101000a900460ff161515151581526020016002820154815260200160038201604051806101000160405290816000820154815260200160018201548152602001600282015481526020016003820154815260200160048201548152602001600582015481526020016006820160009054906101000a900473ffffffffffffffffffffffffffffffffffffffff1673ffffffffffffffffffffffffffffffffffffffff1673ffffffffffffffffffffffffffffffffffffffff1681526020016007820160009054906101000a900473ffffffffffffffffffffffffffffffffffffffff1673ffffffffffffffffffffffffffffffffffffffff1673ffffffffffffffffffffffffffffffffffffffff168152505081525050905080606001516020015161071a610566565b1161075a576040517f08c379a000000000000000000000000000000000000000000000000000000000815260040161075190611bce565b60405180910390fd5b6000816060015160600151826060015160200151610776610566565b6107809190611b17565b61078a9190611c1d565b905060008260400151836060015160a00151836107a79190611c4e565b6107b19190611b17565b90508260600151600001518110156107ce578093505050506107dd565b82606001516000015193505050505b919050565b600160009054906101000a900473ffffffffffffffffffffffffffffffffffffffff1673ffffffffffffffffffffffffffffffffffffffff163373ffffffffffffffffffffffffffffffffffffffff1614610872576040517f08c379a000000000000000000000000000000000000000000000000000000000815260040161086990611d02565b60405180910390fd5b600360008273ffffffffffffffffffffffffffffffffffffffff1673ffffffffffffffffffffffffffffffffffffffff16815260200190815260200160002060009054906101000a900460ff166108fe576040517f08c379a00000000000000000000000000000000000000000000000000000000081526004016108f590611d6e565b60405180910390fd5b6000600360008373ffffffffffffffffffffffffffffffffffffffff1673ffffffffffffffffffffffffffffffffffffffff16815260200190815260200160002060006101000a81548160ff021916908315150217905550600360008273ffffffffffffffffffffffffffffffffffffffff1673ffffffffffffffffffffffffffffffffffffffff16815260200190815260200160002060006101000a81549060ff021916905550565b60036020528060005260406000206000915054906101000a900460ff1681565b600260205281600052604060002081815481106109e457600080fd5b90600052602060002090600b0201600091509150508060000154908060010160009054906101000a900460ff169080600201549080600301604051806101000160405290816000820154815260200160018201548152602001600282015481526020016003820154815260200160048201548152602001600582015481526020016006820160009054906101000a900473ffffffffffffffffffffffffffffffffffffffff1673ffffffffffffffffffffffffffffffffffffffff1673ffffffffffffffffffffffffffffffffffffffff1681526020016007820160009054906101000a900473ffffffffffffffffffffffffffffffffffffffff1673ffffffffffffffffffffffffffffffffffffffff1673ffffffffffffffffffffffffffffffffffffffff1681525050905084565b6000600480549050905090565b6000600260003373ffffffffffffffffffffffffffffffffffffffff1673ffffffffffffffffffffffffffffffffffffffff16815260200190815260200160002080549050905090565b60048181548110610b7c57600080fd5b906000526020600020016000915054906101000a900473ffffffffffffffffffffffffffffffffffffffff1681565b600160009054906101000a900473ffffffffffffffffffffffffffffffffffffffff1673ffffffffffffffffffffffffffffffffffffffff163373ffffffffffffffffffffffffffffffffffffffff1614610c3b576040517f08c379a0000000000000000000000000000000000000000000000000000000008152600401610c3290611d02565b60405180910390fd5b600360008273ffffffffffffffffffffffffffffffffffffffff1673ffffffffffffffffffffffffffffffffffffffff16815260200190815260200160002060009054906101000a900460ff1615610cc8576040517f08c379a0000000000000000000000000000000000000000000000000000000008152600401610cbf90611dda565b60405180910390fd5b6001600360008373ffffffffffffffffffffffffffffffffffffffff1673ffffffffffffffffffffffffffffffffffffffff16815260200190815260200160002060006101000a81548160ff0219169083151502179055506004819080600181540180825580915050600190039060005260206000200160009091909190916101000a81548173ffffffffffffffffffffffffffffffffffffffff021916908373ffffffffffffffffffffffffffffffffffffffff16021790555050565b604051806101000160405280888152602001610da0610566565b88610dab9190611963565b8152602001868152602001858152602001610dc4610566565b85610dcf9190611963565b8152602001868987610de19190611c4e565b610deb9190611c1d565b81526020018373ffffffffffffffffffffffffffffffffffffffff1681526020018273ffffffffffffffffffffffffffffffffffffffff168152506000816000015111610e6d576040517f08c379a0000000000000000000000000000000000000000000000000000000008152600401610e6490611e46565b60405180910390fd5b610e75610566565b816020015111610eba576040517f08c379a0000000000000000000000000000000000000000000000000000000008152600401610eb190611ed8565b60405180910390fd5b80604001518160200151610ecc610566565b610ed69190611963565b610ee09190611963565b816020015110610f25576040517f08c379a0000000000000000000000000000000000000000000000000000000008152600401610f1c90611f6a565b60405180910390fd5b600360008260e0015173ffffffffffffffffffffffffffffffffffffffff1673ffffffffffffffffffffffffffffffffffffffff16815260200190815260200160002060009054906101000a900460ff16610fb5576040517f08c379a0000000000000000000000000000000000000000000000000000000008152600401610fac90611ffc565b60405180910390fd5b80604001518160200151610fc99190611963565b81608001511061100e576040517f08c379a000000000000000000000000000000000000000000000000000000000815260040161100590612068565b60405180910390fd5b8060200151816080015111611058576040517f08c379a000000000000000000000000000000000000000000000000000000000815260040161104f906120fa565b60405180910390fd5b60006040518060800160405280600260008773ffffffffffffffffffffffffffffffffffffffff1673ffffffffffffffffffffffffffffffffffffffff168152602001908152602001600020805490508152602001600115158152602001600081526020016040518061010001604052808c81526020016110d7610566565b8c6110e29190611963565b81526020018a81526020018981526020018881526020018a8d8b6111069190611c4e565b6111109190611c1d565b81526020018773ffffffffffffffffffffffffffffffffffffffff1681526020018673ffffffffffffffffffffffffffffffffffffffff168152508152509050600260008573ffffffffffffffffffffffffffffffffffffffff1673ffffffffffffffffffffffffffffffffffffffff1681526020019081526020016000208190806001815401808255809150506001900390600052602060002090600b02016000909190919091506000820151816000015560208201518160010160006101000a81548160ff02191690831515021790555060408201518160020155606082015181600301600082015181600001556020820151816001015560408201518160020155606082015181600301556080820151816004015560a0820151816005015560c08201518160060160006101000a81548173ffffffffffffffffffffffffffffffffffffffff021916908373ffffffffffffffffffffffffffffffffffffffff16021790555060e08201518160070160006101000a81548173ffffffffffffffffffffffffffffffffffffffff021916908373ffffffffffffffffffffffffffffffffffffffff16021790555050505050826000806101000a81548173ffffffffffffffffffffffffffffffffffffffff021916908373ffffffffffffffffffffffffffffffffffffffff16021790555060008054906101000a900473ffffffffffffffffffffffffffffffffffffffff1673ffffffffffffffffffffffffffffffffffffffff166323b872dd33308c6040518463ffffffff1660e01b81526004016113619392919061211a565b6020604051808303816000875af1158015611380573d6000803e3d6000fd5b505050506040513d601f19601f820116820180604052508101906113a49190611aea565b507f2c041ae393928af2d7b44a39672d0319629f48c2f248cef083a2a92f4159d07e848a89898c8a896040516113e09796959493929190612151565b60405180910390a1505050505050505050565b60008054906101000a900473ffffffffffffffffffffffffffffffffffffffff1681565b600080fd5b6000819050919050565b61142f8161141c565b811461143a57600080fd5b50565b60008135905061144c81611426565b92915050565b60006020828403121561146857611467611417565b5b60006114768482850161143d565b91505092915050565b6114888161141c565b82525050565b60006020820190506114a3600083018461147f565b92915050565b600073ffffffffffffffffffffffffffffffffffffffff82169050919050565b60006114d4826114a9565b9050919050565b6114e4816114c9565b81146114ef57600080fd5b50565b600081359050611501816114db565b92915050565b60006020828403121561151d5761151c611417565b5b600061152b848285016114f2565b91505092915050565b60008115159050919050565b61154981611534565b82525050565b60006020820190506115646000830184611540565b92915050565b6000806040838503121561158157611580611417565b5b600061158f858286016114f2565b92505060206115a08582860161143d565b9150509250929050565b6115b38161141c565b82525050565b6115c2816114c9565b82525050565b610100820160008201516115df60008501826115aa565b5060208201516115f260208501826115aa565b50604082015161160560408501826115aa565b50606082015161161860608501826115aa565b50608082015161162b60808501826115aa565b5060a082015161163e60a08501826115aa565b5060c082015161165160c08501826115b9565b5060e082015161166460e08501826115b9565b50505050565b600061016082019050611680600083018761147f565b61168d6020830186611540565b61169a604083018561147f565b6116a760608301846115c8565b95945050505050565b6116b9816114c9565b82525050565b60006020820190506116d460008301846116b0565b92915050565b600080600080600080600060e0888a0312156116f9576116f8611417565b5b60006117078a828b0161143d565b97505060206117188a828b0161143d565b96505060406117298a828b0161143d565b955050606061173a8a828b0161143d565b945050608061174b8a828b0161143d565b93505060a061175c8a828b016114f2565b92505060c061176d8a828b016114f2565b91505092959891949750929550565b6000819050919050565b60006117a161179c611797846114a9565b61177c565b6114a9565b9050919050565b60006117b382611786565b9050919050565b60006117c5826117a8565b9050919050565b6117d5816117ba565b82525050565b60006020820190506117f060008301846117cc565b92915050565b7f4e487b7100000000000000000000000000000000000000000000000000000000600052603260045260246000fd5b600082825260208201905092915050565b7f46756e64732068617665206e6f74206265656e206c6f636b6564000000000000600082015250565b600061186c601a83611825565b915061187782611836565b602082019050919050565b6000602082019050818103600083015261189b8161185f565b9050919050565b7f546f6b656e20756e646572206c6f636b696e672c20706c65617365207761697460008201527f2e2e000000000000000000000000000000000000000000000000000000000000602082015250565b60006118fe602283611825565b9150611909826118a2565b604082019050919050565b6000602082019050818103600083015261192d816118f1565b9050919050565b7f4e487b7100000000000000000000000000000000000000000000000000000000600052601160045260246000fd5b600061196e8261141c565b91506119798361141c565b925082820190508082111561199157611990611934565b5b92915050565b7f436c69666620706572696f6420686173206e6f7420656e646564207965742e00600082015250565b60006119cd601f83611825565b91506119d882611997565b602082019050919050565b600060208201905081810360008301526119fc816119c0565b9050919050565b7f4e6f7420656e6f75676820616d6f756e7420617661696c61626c6520666f722060008201527f7769746864726177616c00000000000000000000000000000000000000000000602082015250565b6000611a5f602a83611825565b9150611a6a82611a03565b604082019050919050565b60006020820190508181036000830152611a8e81611a52565b9050919050565b6000604082019050611aaa60008301856116b0565b611ab7602083018461147f565b9392505050565b611ac781611534565b8114611ad257600080fd5b50565b600081519050611ae481611abe565b92915050565b600060208284031215611b0057611aff611417565b5b6000611b0e84828501611ad5565b91505092915050565b6000611b228261141c565b9150611b2d8361141c565b9250828203905081811115611b4557611b44611934565b5b92915050565b6000606082019050611b6060008301866116b0565b611b6d602083018561147f565b611b7a604083018461147f565b949350505050565b7f56657374696e67206e6f74207374617274656420796574000000000000000000600082015250565b6000611bb8601783611825565b9150611bc382611b82565b602082019050919050565b60006020820190508181036000830152611be781611bab565b9050919050565b7f4e487b7100000000000000000000000000000000000000000000000000000000600052601260045260246000fd5b6000611c288261141c565b9150611c338361141c565b925082611c4357611c42611bee565b5b828204905092915050565b6000611c598261141c565b9150611c648361141c565b9250828202611c728161141c565b91508282048414831517611c8957611c88611934565b5b5092915050565b7f4f6e6c792074686520636f6e7472616374206f776e65722063616e2063616c6c60008201527f20746869732066756e6374696f6e000000000000000000000000000000000000602082015250565b6000611cec602e83611825565b9150611cf782611c90565b604082019050919050565b60006020820190508181036000830152611d1b81611cdf565b9050919050565b7f546f6b656e206973206e6f7420696e2077686974656c69737400000000000000600082015250565b6000611d58601983611825565b9150611d6382611d22565b602082019050919050565b60006020820190508181036000830152611d8781611d4b565b9050919050565b7f546f6b656e20616c726561647920616464656420746f2077686974656c697374600082015250565b6000611dc4602083611825565b9150611dcf82611d8e565b602082019050919050565b60006020820190508181036000830152611df381611db7565b9050919050565b7f416d6f756e74206d757374206e6f74206265207a65726f000000000000000000600082015250565b6000611e30601783611825565b9150611e3b82611dfa565b602082019050919050565b60006020820190508181036000830152611e5f81611e23565b9050919050565b7f53746172742054696d65206d7573742062652067726561746572207468616e2060008201527f63757272656e742074696d652e00000000000000000000000000000000000000602082015250565b6000611ec2602d83611825565b9150611ecd82611e66565b604082019050919050565b60006020820190508181036000830152611ef181611eb5565b9050919050565b7f53746172742054696d65206d757374206265206c657373207468616e20456e6460008201527f2074696d652e0000000000000000000000000000000000000000000000000000602082015250565b6000611f54602683611825565b9150611f5f82611ef8565b604082019050919050565b60006020820190508181036000830152611f8381611f47565b9050919050565b7f596f7520617265206e6f7420616c6c6f77656420746f2075736520746869732060008201527f636f6e74726163742e0000000000000000000000000000000000000000000000602082015250565b6000611fe6602983611825565b9150611ff182611f8a565b604082019050919050565b6000602082019050818103600083015261201581611fd9565b9050919050565b7f436c696666206d757374206265206c657373207468616e206475726174696f6e600082015250565b6000612052602083611825565b915061205d8261201c565b602082019050919050565b6000602082019050818103600083015261208181612045565b9050919050565b7f436c696666206d7573742062652067726561746572207468616e20737461727460008201527f2074696d65000000000000000000000000000000000000000000000000000000602082015250565b60006120e4602583611825565b91506120ef82612088565b604082019050919050565b60006020820190508181036000830152612113816120d7565b9050919050565b600060608201905061212f60008301866116b0565b61213c60208301856116b0565b612149604083018461147f565b949350505050565b600060e082019050612166600083018a6116b0565b612173602083018961147f565b612180604083018861147f565b61218d606083018761147f565b61219a608083018661147f565b6121a760a083018561147f565b6121b460c08301846116b0565b9897505050505050505056fea2646970667358221220762d1093093e60d4e969c4345406d6713c587dd059afcd3a2492bd0a6d632b7f64736f6c63430008120033",
					"opcodes": "PUSH1 0x80 PUSH1 0x40 MSTORE CALLVALUE DUP1 ISZERO PUSH2 0x10 JUMPI PUSH1 0x0 DUP1 REVERT JUMPDEST POP CALLER PUSH1 0x1 PUSH1 0x0 PUSH2 0x100 EXP DUP2 SLOAD DUP2 PUSH20 0xFFFFFFFFFFFFFFFFFFFFFFFFFFFFFFFFFFFFFFFF MUL NOT AND SWAP1 DUP4 PUSH20 0xFFFFFFFFFFFFFFFFFFFFFFFFFFFFFFFFFFFFFFFF AND MUL OR SWAP1 SSTORE POP PUSH2 0x21F6 DUP1 PUSH2 0x61 PUSH1 0x0 CODECOPY PUSH1 0x0 RETURN INVALID PUSH1 0x80 PUSH1 0x40 MSTORE CALLVALUE DUP1 ISZERO PUSH2 0x10 JUMPI PUSH1 0x0 DUP1 REVERT JUMPDEST POP PUSH1 0x4 CALLDATASIZE LT PUSH2 0xB4 JUMPI PUSH1 0x0 CALLDATALOAD PUSH1 0xE0 SHR DUP1 PUSH4 0xD41330D2 GT PUSH2 0x71 JUMPI DUP1 PUSH4 0xD41330D2 EQ PUSH2 0x1A2 JUMPI DUP1 PUSH4 0xE9AFAD38 EQ PUSH2 0x1C0 JUMPI DUP1 PUSH4 0xEAB72E65 EQ PUSH2 0x1DE JUMPI DUP1 PUSH4 0xF80F5DD5 EQ PUSH2 0x20E JUMPI DUP1 PUSH4 0xF8C8D140 EQ PUSH2 0x22A JUMPI DUP1 PUSH4 0xFC0C546A EQ PUSH2 0x246 JUMPI PUSH2 0xB4 JUMP JUMPDEST DUP1 PUSH4 0x2E1A7D4D EQ PUSH2 0xB9 JUMPI DUP1 PUSH4 0x557ED1BA EQ PUSH2 0xD5 JUMPI DUP1 PUSH4 0x5952FFD1 EQ PUSH2 0xF3 JUMPI DUP1 PUSH4 0x78C8CDA7 EQ PUSH2 0x123 JUMPI DUP1 PUSH4 0x95290163 EQ PUSH2 0x13F JUMPI DUP1 PUSH4 0xBD84477D EQ PUSH2 0x16F JUMPI JUMPDEST PUSH1 0x0 DUP1 REVERT JUMPDEST PUSH2 0xD3 PUSH1 0x4 DUP1 CALLDATASIZE SUB DUP2 ADD SWAP1 PUSH2 0xCE SWAP2 SWAP1 PUSH2 0x1452 JUMP JUMPDEST PUSH2 0x264 JUMP JUMPDEST STOP JUMPDEST PUSH2 0xDD PUSH2 0x566 JUMP JUMPDEST PUSH1 0x40 MLOAD PUSH2 0xEA SWAP2 SWAP1 PUSH2 0x148E JUMP JUMPDEST PUSH1 0x40 MLOAD DUP1 SWAP2 SUB SWAP1 RETURN JUMPDEST PUSH2 0x10D PUSH1 0x4 DUP1 CALLDATASIZE SUB DUP2 ADD SWAP1 PUSH2 0x108 SWAP2 SWAP1 PUSH2 0x1452 JUMP JUMPDEST PUSH2 0x56E JUMP JUMPDEST PUSH1 0x40 MLOAD PUSH2 0x11A SWAP2 SWAP1 PUSH2 0x148E JUMP JUMPDEST PUSH1 0x40 MLOAD DUP1 SWAP2 SUB SWAP1 RETURN JUMPDEST PUSH2 0x13D PUSH1 0x4 DUP1 CALLDATASIZE SUB DUP2 ADD SWAP1 PUSH2 0x138 SWAP2 SWAP1 PUSH2 0x1507 JUMP JUMPDEST PUSH2 0x7E2 JUMP JUMPDEST STOP JUMPDEST PUSH2 0x159 PUSH1 0x4 DUP1 CALLDATASIZE SUB DUP2 ADD SWAP1 PUSH2 0x154 SWAP2 SWAP1 PUSH2 0x1507 JUMP JUMPDEST PUSH2 0x9A8 JUMP JUMPDEST PUSH1 0x40 MLOAD PUSH2 0x166 SWAP2 SWAP1 PUSH2 0x154F JUMP JUMPDEST PUSH1 0x40 MLOAD DUP1 SWAP2 SUB SWAP1 RETURN JUMPDEST PUSH2 0x189 PUSH1 0x4 DUP1 CALLDATASIZE SUB DUP2 ADD SWAP1 PUSH2 0x184 SWAP2 SWAP1 PUSH2 0x156A JUMP JUMPDEST PUSH2 0x9C8 JUMP JUMPDEST PUSH1 0x40 MLOAD PUSH2 0x199 SWAP5 SWAP4 SWAP3 SWAP2 SWAP1 PUSH2 0x166A JUMP JUMPDEST PUSH1 0x40 MLOAD DUP1 SWAP2 SUB SWAP1 RETURN JUMPDEST PUSH2 0x1AA PUSH2 0xB15 JUMP JUMPDEST PUSH1 0x40 MLOAD PUSH2 0x1B7 SWAP2 SWAP1 PUSH2 0x148E JUMP JUMPDEST PUSH1 0x40 MLOAD DUP1 SWAP2 SUB SWAP1 RETURN JUMPDEST PUSH2 0x1C8 PUSH2 0xB22 JUMP JUMPDEST PUSH1 0x40 MLOAD PUSH2 0x1D5 SWAP2 SWAP1 PUSH2 0x148E JUMP JUMPDEST PUSH1 0x40 MLOAD DUP1 SWAP2 SUB SWAP1 RETURN JUMPDEST PUSH2 0x1F8 PUSH1 0x4 DUP1 CALLDATASIZE SUB DUP2 ADD SWAP1 PUSH2 0x1F3 SWAP2 SWAP1 PUSH2 0x1452 JUMP JUMPDEST PUSH2 0xB6C JUMP JUMPDEST PUSH1 0x40 MLOAD PUSH2 0x205 SWAP2 SWAP1 PUSH2 0x16BF JUMP JUMPDEST PUSH1 0x40 MLOAD DUP1 SWAP2 SUB SWAP1 RETURN JUMPDEST PUSH2 0x228 PUSH1 0x4 DUP1 CALLDATASIZE SUB DUP2 ADD SWAP1 PUSH2 0x223 SWAP2 SWAP1 PUSH2 0x1507 JUMP JUMPDEST PUSH2 0xBAB JUMP JUMPDEST STOP JUMPDEST PUSH2 0x244 PUSH1 0x4 DUP1 CALLDATASIZE SUB DUP2 ADD SWAP1 PUSH2 0x23F SWAP2 SWAP1 PUSH2 0x16DA JUMP JUMPDEST PUSH2 0xD86 JUMP JUMPDEST STOP JUMPDEST PUSH2 0x24E PUSH2 0x13F3 JUMP JUMPDEST PUSH1 0x40 MLOAD PUSH2 0x25B SWAP2 SWAP1 PUSH2 0x17DB JUMP JUMPDEST PUSH1 0x40 MLOAD DUP1 SWAP2 SUB SWAP1 RETURN JUMPDEST PUSH1 0x0 PUSH1 0x2 PUSH1 0x0 CALLER PUSH20 0xFFFFFFFFFFFFFFFFFFFFFFFFFFFFFFFFFFFFFFFF AND PUSH20 0xFFFFFFFFFFFFFFFFFFFFFFFFFFFFFFFFFFFFFFFF AND DUP2 MSTORE PUSH1 0x20 ADD SWAP1 DUP2 MSTORE PUSH1 0x20 ADD PUSH1 0x0 KECCAK256 DUP3 DUP2 SLOAD DUP2 LT PUSH2 0x2B7 JUMPI PUSH2 0x2B6 PUSH2 0x17F6 JUMP JUMPDEST JUMPDEST SWAP1 PUSH1 0x0 MSTORE PUSH1 0x20 PUSH1 0x0 KECCAK256 SWAP1 PUSH1 0xB MUL ADD SWAP1 POP DUP1 PUSH1 0x1 ADD PUSH1 0x0 SWAP1 SLOAD SWAP1 PUSH2 0x100 EXP SWAP1 DIV PUSH1 0xFF AND PUSH2 0x318 JUMPI PUSH1 0x40 MLOAD PUSH32 0x8C379A000000000000000000000000000000000000000000000000000000000 DUP2 MSTORE PUSH1 0x4 ADD PUSH2 0x30F SWAP1 PUSH2 0x1882 JUMP JUMPDEST PUSH1 0x40 MLOAD DUP1 SWAP2 SUB SWAP1 REVERT JUMPDEST DUP1 PUSH1 0x3 ADD PUSH1 0x1 ADD SLOAD PUSH2 0x328 PUSH2 0x566 JUMP JUMPDEST GT PUSH2 0x368 JUMPI PUSH1 0x40 MLOAD PUSH32 0x8C379A000000000000000000000000000000000000000000000000000000000 DUP2 MSTORE PUSH1 0x4 ADD PUSH2 0x35F SWAP1 PUSH2 0x1914 JUMP JUMPDEST PUSH1 0x40 MLOAD DUP1 SWAP2 SUB SWAP1 REVERT JUMPDEST PUSH2 0x370 PUSH2 0x566 JUMP JUMPDEST DUP2 PUSH1 0x3 ADD PUSH1 0x1 ADD SLOAD DUP3 PUSH1 0x3 ADD PUSH1 0x4 ADD SLOAD PUSH2 0x38A SWAP2 SWAP1 PUSH2 0x1963 JUMP JUMPDEST LT PUSH2 0x3CA JUMPI PUSH1 0x40 MLOAD PUSH32 0x8C379A000000000000000000000000000000000000000000000000000000000 DUP2 MSTORE PUSH1 0x4 ADD PUSH2 0x3C1 SWAP1 PUSH2 0x19E3 JUMP JUMPDEST PUSH1 0x40 MLOAD DUP1 SWAP2 SUB SWAP1 REVERT JUMPDEST PUSH1 0x0 PUSH2 0x3D5 DUP4 PUSH2 0x56E JUMP JUMPDEST SWAP1 POP PUSH1 0x0 DUP2 GT PUSH2 0x41A JUMPI PUSH1 0x40 MLOAD PUSH32 0x8C379A000000000000000000000000000000000000000000000000000000000 DUP2 MSTORE PUSH1 0x4 ADD PUSH2 0x411 SWAP1 PUSH2 0x1A75 JUMP JUMPDEST PUSH1 0x40 MLOAD DUP1 SWAP2 SUB SWAP1 REVERT JUMPDEST DUP2 PUSH1 0x3 ADD PUSH1 0x7 ADD PUSH1 0x0 SWAP1 SLOAD SWAP1 PUSH2 0x100 EXP SWAP1 DIV PUSH20 0xFFFFFFFFFFFFFFFFFFFFFFFFFFFFFFFFFFFFFFFF AND PUSH20 0xFFFFFFFFFFFFFFFFFFFFFFFFFFFFFFFFFFFFFFFF AND PUSH4 0xA9059CBB CALLER DUP4 PUSH1 0x40 MLOAD DUP4 PUSH4 0xFFFFFFFF AND PUSH1 0xE0 SHL DUP2 MSTORE PUSH1 0x4 ADD PUSH2 0x47C SWAP3 SWAP2 SWAP1 PUSH2 0x1A95 JUMP JUMPDEST PUSH1 0x20 PUSH1 0x40 MLOAD DUP1 DUP4 SUB DUP2 PUSH1 0x0 DUP8 GAS CALL ISZERO DUP1 ISZERO PUSH2 0x49B JUMPI RETURNDATASIZE PUSH1 0x0 DUP1 RETURNDATACOPY RETURNDATASIZE PUSH1 0x0 REVERT JUMPDEST POP POP POP POP PUSH1 0x40 MLOAD RETURNDATASIZE PUSH1 0x1F NOT PUSH1 0x1F DUP3 ADD AND DUP3 ADD DUP1 PUSH1 0x40 MSTORE POP DUP2 ADD SWAP1 PUSH2 0x4BF SWAP2 SWAP1 PUSH2 0x1AEA JUMP JUMPDEST POP DUP1 DUP3 PUSH1 0x2 ADD PUSH1 0x0 DUP3 DUP3 SLOAD PUSH2 0x4D4 SWAP2 SWAP1 PUSH2 0x1963 JUMP JUMPDEST SWAP3 POP POP DUP2 SWAP1 SSTORE POP DUP1 DUP3 PUSH1 0x3 ADD PUSH1 0x0 ADD PUSH1 0x0 DUP3 DUP3 SLOAD PUSH2 0x4F2 SWAP2 SWAP1 PUSH2 0x1B17 JUMP JUMPDEST SWAP3 POP POP DUP2 SWAP1 SSTORE POP PUSH1 0x0 DUP3 PUSH1 0x3 ADD PUSH1 0x0 ADD SLOAD SUB PUSH2 0x526 JUMPI PUSH1 0x0 DUP3 PUSH1 0x1 ADD PUSH1 0x0 PUSH2 0x100 EXP DUP2 SLOAD DUP2 PUSH1 0xFF MUL NOT AND SWAP1 DUP4 ISZERO ISZERO MUL OR SWAP1 SSTORE POP JUMPDEST PUSH32 0xCCDB21E8B29FBF756F29D5F05C72606CA9E8160EC1A135CA6F50DAE471188CEC CALLER DUP5 DUP4 PUSH1 0x40 MLOAD PUSH2 0x559 SWAP4 SWAP3 SWAP2 SWAP1 PUSH2 0x1B4B JUMP JUMPDEST PUSH1 0x40 MLOAD DUP1 SWAP2 SUB SWAP1 LOG1 POP POP POP JUMP JUMPDEST PUSH1 0x0 TIMESTAMP SWAP1 POP SWAP1 JUMP JUMPDEST PUSH1 0x0 DUP1 PUSH1 0x2 PUSH1 0x0 CALLER PUSH20 0xFFFFFFFFFFFFFFFFFFFFFFFFFFFFFFFFFFFFFFFF AND PUSH20 0xFFFFFFFFFFFFFFFFFFFFFFFFFFFFFFFFFFFFFFFF AND DUP2 MSTORE PUSH1 0x20 ADD SWAP1 DUP2 MSTORE PUSH1 0x20 ADD PUSH1 0x0 KECCAK256 DUP4 DUP2 SLOAD DUP2 LT PUSH2 0x5C2 JUMPI PUSH2 0x5C1 PUSH2 0x17F6 JUMP JUMPDEST JUMPDEST SWAP1 PUSH1 0x0 MSTORE PUSH1 0x20 PUSH1 0x0 KECCAK256 SWAP1 PUSH1 0xB MUL ADD PUSH1 0x40 MLOAD DUP1 PUSH1 0x80 ADD PUSH1 0x40 MSTORE SWAP1 DUP2 PUSH1 0x0 DUP3 ADD SLOAD DUP2 MSTORE PUSH1 0x20 ADD PUSH1 0x1 DUP3 ADD PUSH1 0x0 SWAP1 SLOAD SWAP1 PUSH2 0x100 EXP SWAP1 DIV PUSH1 0xFF AND ISZERO ISZERO ISZERO ISZERO DUP2 MSTORE PUSH1 0x20 ADD PUSH1 0x2 DUP3 ADD SLOAD DUP2 MSTORE PUSH1 0x20 ADD PUSH1 0x3 DUP3 ADD PUSH1 0x40 MLOAD DUP1 PUSH2 0x100 ADD PUSH1 0x40 MSTORE SWAP1 DUP2 PUSH1 0x0 DUP3 ADD SLOAD DUP2 MSTORE PUSH1 0x20 ADD PUSH1 0x1 DUP3 ADD SLOAD DUP2 MSTORE PUSH1 0x20 ADD PUSH1 0x2 DUP3 ADD SLOAD DUP2 MSTORE PUSH1 0x20 ADD PUSH1 0x3 DUP3 ADD SLOAD DUP2 MSTORE PUSH1 0x20 ADD PUSH1 0x4 DUP3 ADD SLOAD DUP2 MSTORE PUSH1 0x20 ADD PUSH1 0x5 DUP3 ADD SLOAD DUP2 MSTORE PUSH1 0x20 ADD PUSH1 0x6 DUP3 ADD PUSH1 0x0 SWAP1 SLOAD SWAP1 PUSH2 0x100 EXP SWAP1 DIV PUSH20 0xFFFFFFFFFFFFFFFFFFFFFFFFFFFFFFFFFFFFFFFF AND PUSH20 0xFFFFFFFFFFFFFFFFFFFFFFFFFFFFFFFFFFFFFFFF AND PUSH20 0xFFFFFFFFFFFFFFFFFFFFFFFFFFFFFFFFFFFFFFFF AND DUP2 MSTORE PUSH1 0x20 ADD PUSH1 0x7 DUP3 ADD PUSH1 0x0 SWAP1 SLOAD SWAP1 PUSH2 0x100 EXP SWAP1 DIV PUSH20 0xFFFFFFFFFFFFFFFFFFFFFFFFFFFFFFFFFFFFFFFF AND PUSH20 0xFFFFFFFFFFFFFFFFFFFFFFFFFFFFFFFFFFFFFFFF AND PUSH20 0xFFFFFFFFFFFFFFFFFFFFFFFFFFFFFFFFFFFFFFFF AND DUP2 MSTORE POP POP DUP2 MSTORE POP POP SWAP1 POP DUP1 PUSH1 0x60 ADD MLOAD PUSH1 0x20 ADD MLOAD PUSH2 0x71A PUSH2 0x566 JUMP JUMPDEST GT PUSH2 0x75A JUMPI PUSH1 0x40 MLOAD PUSH32 0x8C379A000000000000000000000000000000000000000000000000000000000 DUP2 MSTORE PUSH1 0x4 ADD PUSH2 0x751 SWAP1 PUSH2 0x1BCE JUMP JUMPDEST PUSH1 0x40 MLOAD DUP1 SWAP2 SUB SWAP1 REVERT JUMPDEST PUSH1 0x0 DUP2 PUSH1 0x60 ADD MLOAD PUSH1 0x60 ADD MLOAD DUP3 PUSH1 0x60 ADD MLOAD PUSH1 0x20 ADD MLOAD PUSH2 0x776 PUSH2 0x566 JUMP JUMPDEST PUSH2 0x780 SWAP2 SWAP1 PUSH2 0x1B17 JUMP JUMPDEST PUSH2 0x78A SWAP2 SWAP1 PUSH2 0x1C1D JUMP JUMPDEST SWAP1 POP PUSH1 0x0 DUP3 PUSH1 0x40 ADD MLOAD DUP4 PUSH1 0x60 ADD MLOAD PUSH1 0xA0 ADD MLOAD DUP4 PUSH2 0x7A7 SWAP2 SWAP1 PUSH2 0x1C4E JUMP JUMPDEST PUSH2 0x7B1 SWAP2 SWAP1 PUSH2 0x1B17 JUMP JUMPDEST SWAP1 POP DUP3 PUSH1 0x60 ADD MLOAD PUSH1 0x0 ADD MLOAD DUP2 LT ISZERO PUSH2 0x7CE JUMPI DUP1 SWAP4 POP POP POP POP PUSH2 0x7DD JUMP JUMPDEST DUP3 PUSH1 0x60 ADD MLOAD PUSH1 0x0 ADD MLOAD SWAP4 POP POP POP POP JUMPDEST SWAP2 SWAP1 POP JUMP JUMPDEST PUSH1 0x1 PUSH1 0x0 SWAP1 SLOAD SWAP1 PUSH2 0x100 EXP SWAP1 DIV PUSH20 0xFFFFFFFFFFFFFFFFFFFFFFFFFFFFFFFFFFFFFFFF AND PUSH20 0xFFFFFFFFFFFFFFFFFFFFFFFFFFFFFFFFFFFFFFFF AND CALLER PUSH20 0xFFFFFFFFFFFFFFFFFFFFFFFFFFFFFFFFFFFFFFFF AND EQ PUSH2 0x872 JUMPI PUSH1 0x40 MLOAD PUSH32 0x8C379A000000000000000000000000000000000000000000000000000000000 DUP2 MSTORE PUSH1 0x4 ADD PUSH2 0x869 SWAP1 PUSH2 0x1D02 JUMP JUMPDEST PUSH1 0x40 MLOAD DUP1 SWAP2 SUB SWAP1 REVERT JUMPDEST PUSH1 0x3 PUSH1 0x0 DUP3 PUSH20 0xFFFFFFFFFFFFFFFFFFFFFFFFFFFFFFFFFFFFFFFF AND PUSH20 0xFFFFFFFFFFFFFFFFFFFFFFFFFFFFFFFFFFFFFFFF AND DUP2 MSTORE PUSH1 0x20 ADD SWAP1 DUP2 MSTORE PUSH1 0x20 ADD PUSH1 0x0 KECCAK256 PUSH1 0x0 SWAP1 SLOAD SWAP1 PUSH2 0x100 EXP SWAP1 DIV PUSH1 0xFF AND PUSH2 0x8FE JUMPI PUSH1 0x40 MLOAD PUSH32 0x8C379A000000000000000000000000000000000000000000000000000000000 DUP2 MSTORE PUSH1 0x4 ADD PUSH2 0x8F5 SWAP1 PUSH2 0x1D6E JUMP JUMPDEST PUSH1 0x40 MLOAD DUP1 SWAP2 SUB SWAP1 REVERT JUMPDEST PUSH1 0x0 PUSH1 0x3 PUSH1 0x0 DUP4 PUSH20 0xFFFFFFFFFFFFFFFFFFFFFFFFFFFFFFFFFFFFFFFF AND PUSH20 0xFFFFFFFFFFFFFFFFFFFFFFFFFFFFFFFFFFFFFFFF AND DUP2 MSTORE PUSH1 0x20 ADD SWAP1 DUP2 MSTORE PUSH1 0x20 ADD PUSH1 0x0 KECCAK256 PUSH1 0x0 PUSH2 0x100 EXP DUP2 SLOAD DUP2 PUSH1 0xFF MUL NOT AND SWAP1 DUP4 ISZERO ISZERO MUL OR SWAP1 SSTORE POP PUSH1 0x3 PUSH1 0x0 DUP3 PUSH20 0xFFFFFFFFFFFFFFFFFFFFFFFFFFFFFFFFFFFFFFFF AND PUSH20 0xFFFFFFFFFFFFFFFFFFFFFFFFFFFFFFFFFFFFFFFF AND DUP2 MSTORE PUSH1 0x20 ADD SWAP1 DUP2 MSTORE PUSH1 0x20 ADD PUSH1 0x0 KECCAK256 PUSH1 0x0 PUSH2 0x100 EXP DUP2 SLOAD SWAP1 PUSH1 0xFF MUL NOT AND SWAP1 SSTORE POP JUMP JUMPDEST PUSH1 0x3 PUSH1 0x20 MSTORE DUP1 PUSH1 0x0 MSTORE PUSH1 0x40 PUSH1 0x0 KECCAK256 PUSH1 0x0 SWAP2 POP SLOAD SWAP1 PUSH2 0x100 EXP SWAP1 DIV PUSH1 0xFF AND DUP2 JUMP JUMPDEST PUSH1 0x2 PUSH1 0x20 MSTORE DUP2 PUSH1 0x0 MSTORE PUSH1 0x40 PUSH1 0x0 KECCAK256 DUP2 DUP2 SLOAD DUP2 LT PUSH2 0x9E4 JUMPI PUSH1 0x0 DUP1 REVERT JUMPDEST SWAP1 PUSH1 0x0 MSTORE PUSH1 0x20 PUSH1 0x0 KECCAK256 SWAP1 PUSH1 0xB MUL ADD PUSH1 0x0 SWAP2 POP SWAP2 POP POP DUP1 PUSH1 0x0 ADD SLOAD SWAP1 DUP1 PUSH1 0x1 ADD PUSH1 0x0 SWAP1 SLOAD SWAP1 PUSH2 0x100 EXP SWAP1 DIV PUSH1 0xFF AND SWAP1 DUP1 PUSH1 0x2 ADD SLOAD SWAP1 DUP1 PUSH1 0x3 ADD PUSH1 0x40 MLOAD DUP1 PUSH2 0x100 ADD PUSH1 0x40 MSTORE SWAP1 DUP2 PUSH1 0x0 DUP3 ADD SLOAD DUP2 MSTORE PUSH1 0x20 ADD PUSH1 0x1 DUP3 ADD SLOAD DUP2 MSTORE PUSH1 0x20 ADD PUSH1 0x2 DUP3 ADD SLOAD DUP2 MSTORE PUSH1 0x20 ADD PUSH1 0x3 DUP3 ADD SLOAD DUP2 MSTORE PUSH1 0x20 ADD PUSH1 0x4 DUP3 ADD SLOAD DUP2 MSTORE PUSH1 0x20 ADD PUSH1 0x5 DUP3 ADD SLOAD DUP2 MSTORE PUSH1 0x20 ADD PUSH1 0x6 DUP3 ADD PUSH1 0x0 SWAP1 SLOAD SWAP1 PUSH2 0x100 EXP SWAP1 DIV PUSH20 0xFFFFFFFFFFFFFFFFFFFFFFFFFFFFFFFFFFFFFFFF AND PUSH20 0xFFFFFFFFFFFFFFFFFFFFFFFFFFFFFFFFFFFFFFFF AND PUSH20 0xFFFFFFFFFFFFFFFFFFFFFFFFFFFFFFFFFFFFFFFF AND DUP2 MSTORE PUSH1 0x20 ADD PUSH1 0x7 DUP3 ADD PUSH1 0x0 SWAP1 SLOAD SWAP1 PUSH2 0x100 EXP SWAP1 DIV PUSH20 0xFFFFFFFFFFFFFFFFFFFFFFFFFFFFFFFFFFFFFFFF AND PUSH20 0xFFFFFFFFFFFFFFFFFFFFFFFFFFFFFFFFFFFFFFFF AND PUSH20 0xFFFFFFFFFFFFFFFFFFFFFFFFFFFFFFFFFFFFFFFF AND DUP2 MSTORE POP POP SWAP1 POP DUP5 JUMP JUMPDEST PUSH1 0x0 PUSH1 0x4 DUP1 SLOAD SWAP1 POP SWAP1 POP SWAP1 JUMP JUMPDEST PUSH1 0x0 PUSH1 0x2 PUSH1 0x0 CALLER PUSH20 0xFFFFFFFFFFFFFFFFFFFFFFFFFFFFFFFFFFFFFFFF AND PUSH20 0xFFFFFFFFFFFFFFFFFFFFFFFFFFFFFFFFFFFFFFFF AND DUP2 MSTORE PUSH1 0x20 ADD SWAP1 DUP2 MSTORE PUSH1 0x20 ADD PUSH1 0x0 KECCAK256 DUP1 SLOAD SWAP1 POP SWAP1 POP SWAP1 JUMP JUMPDEST PUSH1 0x4 DUP2 DUP2 SLOAD DUP2 LT PUSH2 0xB7C JUMPI PUSH1 0x0 DUP1 REVERT JUMPDEST SWAP1 PUSH1 0x0 MSTORE PUSH1 0x20 PUSH1 0x0 KECCAK256 ADD PUSH1 0x0 SWAP2 POP SLOAD SWAP1 PUSH2 0x100 EXP SWAP1 DIV PUSH20 0xFFFFFFFFFFFFFFFFFFFFFFFFFFFFFFFFFFFFFFFF AND DUP2 JUMP JUMPDEST PUSH1 0x1 PUSH1 0x0 SWAP1 SLOAD SWAP1 PUSH2 0x100 EXP SWAP1 DIV PUSH20 0xFFFFFFFFFFFFFFFFFFFFFFFFFFFFFFFFFFFFFFFF AND PUSH20 0xFFFFFFFFFFFFFFFFFFFFFFFFFFFFFFFFFFFFFFFF AND CALLER PUSH20 0xFFFFFFFFFFFFFFFFFFFFFFFFFFFFFFFFFFFFFFFF AND EQ PUSH2 0xC3B JUMPI PUSH1 0x40 MLOAD PUSH32 0x8C379A000000000000000000000000000000000000000000000000000000000 DUP2 MSTORE PUSH1 0x4 ADD PUSH2 0xC32 SWAP1 PUSH2 0x1D02 JUMP JUMPDEST PUSH1 0x40 MLOAD DUP1 SWAP2 SUB SWAP1 REVERT JUMPDEST PUSH1 0x3 PUSH1 0x0 DUP3 PUSH20 0xFFFFFFFFFFFFFFFFFFFFFFFFFFFFFFFFFFFFFFFF AND PUSH20 0xFFFFFFFFFFFFFFFFFFFFFFFFFFFFFFFFFFFFFFFF AND DUP2 MSTORE PUSH1 0x20 ADD SWAP1 DUP2 MSTORE PUSH1 0x20 ADD PUSH1 0x0 KECCAK256 PUSH1 0x0 SWAP1 SLOAD SWAP1 PUSH2 0x100 EXP SWAP1 DIV PUSH1 0xFF AND ISZERO PUSH2 0xCC8 JUMPI PUSH1 0x40 MLOAD PUSH32 0x8C379A000000000000000000000000000000000000000000000000000000000 DUP2 MSTORE PUSH1 0x4 ADD PUSH2 0xCBF SWAP1 PUSH2 0x1DDA JUMP JUMPDEST PUSH1 0x40 MLOAD DUP1 SWAP2 SUB SWAP1 REVERT JUMPDEST PUSH1 0x1 PUSH1 0x3 PUSH1 0x0 DUP4 PUSH20 0xFFFFFFFFFFFFFFFFFFFFFFFFFFFFFFFFFFFFFFFF AND PUSH20 0xFFFFFFFFFFFFFFFFFFFFFFFFFFFFFFFFFFFFFFFF AND DUP2 MSTORE PUSH1 0x20 ADD SWAP1 DUP2 MSTORE PUSH1 0x20 ADD PUSH1 0x0 KECCAK256 PUSH1 0x0 PUSH2 0x100 EXP DUP2 SLOAD DUP2 PUSH1 0xFF MUL NOT AND SWAP1 DUP4 ISZERO ISZERO MUL OR SWAP1 SSTORE POP PUSH1 0x4 DUP2 SWAP1 DUP1 PUSH1 0x1 DUP2 SLOAD ADD DUP1 DUP3 SSTORE DUP1 SWAP2 POP POP PUSH1 0x1 SWAP1 SUB SWAP1 PUSH1 0x0 MSTORE PUSH1 0x20 PUSH1 0x0 KECCAK256 ADD PUSH1 0x0 SWAP1 SWAP2 SWAP1 SWAP2 SWAP1 SWAP2 PUSH2 0x100 EXP DUP2 SLOAD DUP2 PUSH20 0xFFFFFFFFFFFFFFFFFFFFFFFFFFFFFFFFFFFFFFFF MUL NOT AND SWAP1 DUP4 PUSH20 0xFFFFFFFFFFFFFFFFFFFFFFFFFFFFFFFFFFFFFFFF AND MUL OR SWAP1 SSTORE POP POP JUMP JUMPDEST PUSH1 0x40 MLOAD DUP1 PUSH2 0x100 ADD PUSH1 0x40 MSTORE DUP1 DUP9 DUP2 MSTORE PUSH1 0x20 ADD PUSH2 0xDA0 PUSH2 0x566 JUMP JUMPDEST DUP9 PUSH2 0xDAB SWAP2 SWAP1 PUSH2 0x1963 JUMP JUMPDEST DUP2 MSTORE PUSH1 0x20 ADD DUP7 DUP2 MSTORE PUSH1 0x20 ADD DUP6 DUP2 MSTORE PUSH1 0x20 ADD PUSH2 0xDC4 PUSH2 0x566 JUMP JUMPDEST DUP6 PUSH2 0xDCF SWAP2 SWAP1 PUSH2 0x1963 JUMP JUMPDEST DUP2 MSTORE PUSH1 0x20 ADD DUP7 DUP10 DUP8 PUSH2 0xDE1 SWAP2 SWAP1 PUSH2 0x1C4E JUMP JUMPDEST PUSH2 0xDEB SWAP2 SWAP1 PUSH2 0x1C1D JUMP JUMPDEST DUP2 MSTORE PUSH1 0x20 ADD DUP4 PUSH20 0xFFFFFFFFFFFFFFFFFFFFFFFFFFFFFFFFFFFFFFFF AND DUP2 MSTORE PUSH1 0x20 ADD DUP3 PUSH20 0xFFFFFFFFFFFFFFFFFFFFFFFFFFFFFFFFFFFFFFFF AND DUP2 MSTORE POP PUSH1 0x0 DUP2 PUSH1 0x0 ADD MLOAD GT PUSH2 0xE6D JUMPI PUSH1 0x40 MLOAD PUSH32 0x8C379A000000000000000000000000000000000000000000000000000000000 DUP2 MSTORE PUSH1 0x4 ADD PUSH2 0xE64 SWAP1 PUSH2 0x1E46 JUMP JUMPDEST PUSH1 0x40 MLOAD DUP1 SWAP2 SUB SWAP1 REVERT JUMPDEST PUSH2 0xE75 PUSH2 0x566 JUMP JUMPDEST DUP2 PUSH1 0x20 ADD MLOAD GT PUSH2 0xEBA JUMPI PUSH1 0x40 MLOAD PUSH32 0x8C379A000000000000000000000000000000000000000000000000000000000 DUP2 MSTORE PUSH1 0x4 ADD PUSH2 0xEB1 SWAP1 PUSH2 0x1ED8 JUMP JUMPDEST PUSH1 0x40 MLOAD DUP1 SWAP2 SUB SWAP1 REVERT JUMPDEST DUP1 PUSH1 0x40 ADD MLOAD DUP2 PUSH1 0x20 ADD MLOAD PUSH2 0xECC PUSH2 0x566 JUMP JUMPDEST PUSH2 0xED6 SWAP2 SWAP1 PUSH2 0x1963 JUMP JUMPDEST PUSH2 0xEE0 SWAP2 SWAP1 PUSH2 0x1963 JUMP JUMPDEST DUP2 PUSH1 0x20 ADD MLOAD LT PUSH2 0xF25 JUMPI PUSH1 0x40 MLOAD PUSH32 0x8C379A000000000000000000000000000000000000000000000000000000000 DUP2 MSTORE PUSH1 0x4 ADD PUSH2 0xF1C SWAP1 PUSH2 0x1F6A JUMP JUMPDEST PUSH1 0x40 MLOAD DUP1 SWAP2 SUB SWAP1 REVERT JUMPDEST PUSH1 0x3 PUSH1 0x0 DUP3 PUSH1 0xE0 ADD MLOAD PUSH20 0xFFFFFFFFFFFFFFFFFFFFFFFFFFFFFFFFFFFFFFFF AND PUSH20 0xFFFFFFFFFFFFFFFFFFFFFFFFFFFFFFFFFFFFFFFF AND DUP2 MSTORE PUSH1 0x20 ADD SWAP1 DUP2 MSTORE PUSH1 0x20 ADD PUSH1 0x0 KECCAK256 PUSH1 0x0 SWAP1 SLOAD SWAP1 PUSH2 0x100 EXP SWAP1 DIV PUSH1 0xFF AND PUSH2 0xFB5 JUMPI PUSH1 0x40 MLOAD PUSH32 0x8C379A000000000000000000000000000000000000000000000000000000000 DUP2 MSTORE PUSH1 0x4 ADD PUSH2 0xFAC SWAP1 PUSH2 0x1FFC JUMP JUMPDEST PUSH1 0x40 MLOAD DUP1 SWAP2 SUB SWAP1 REVERT JUMPDEST DUP1 PUSH1 0x40 ADD MLOAD DUP2 PUSH1 0x20 ADD MLOAD PUSH2 0xFC9 SWAP2 SWAP1 PUSH2 0x1963 JUMP JUMPDEST DUP2 PUSH1 0x80 ADD MLOAD LT PUSH2 0x100E JUMPI PUSH1 0x40 MLOAD PUSH32 0x8C379A000000000000000000000000000000000000000000000000000000000 DUP2 MSTORE PUSH1 0x4 ADD PUSH2 0x1005 SWAP1 PUSH2 0x2068 JUMP JUMPDEST PUSH1 0x40 MLOAD DUP1 SWAP2 SUB SWAP1 REVERT JUMPDEST DUP1 PUSH1 0x20 ADD MLOAD DUP2 PUSH1 0x80 ADD MLOAD GT PUSH2 0x1058 JUMPI PUSH1 0x40 MLOAD PUSH32 0x8C379A000000000000000000000000000000000000000000000000000000000 DUP2 MSTORE PUSH1 0x4 ADD PUSH2 0x104F SWAP1 PUSH2 0x20FA JUMP JUMPDEST PUSH1 0x40 MLOAD DUP1 SWAP2 SUB SWAP1 REVERT JUMPDEST PUSH1 0x0 PUSH1 0x40 MLOAD DUP1 PUSH1 0x80 ADD PUSH1 0x40 MSTORE DUP1 PUSH1 0x2 PUSH1 0x0 DUP8 PUSH20 0xFFFFFFFFFFFFFFFFFFFFFFFFFFFFFFFFFFFFFFFF AND PUSH20 0xFFFFFFFFFFFFFFFFFFFFFFFFFFFFFFFFFFFFFFFF AND DUP2 MSTORE PUSH1 0x20 ADD SWAP1 DUP2 MSTORE PUSH1 0x20 ADD PUSH1 0x0 KECCAK256 DUP1 SLOAD SWAP1 POP DUP2 MSTORE PUSH1 0x20 ADD PUSH1 0x1 ISZERO ISZERO DUP2 MSTORE PUSH1 0x20 ADD PUSH1 0x0 DUP2 MSTORE PUSH1 0x20 ADD PUSH1 0x40 MLOAD DUP1 PUSH2 0x100 ADD PUSH1 0x40 MSTORE DUP1 DUP13 DUP2 MSTORE PUSH1 0x20 ADD PUSH2 0x10D7 PUSH2 0x566 JUMP JUMPDEST DUP13 PUSH2 0x10E2 SWAP2 SWAP1 PUSH2 0x1963 JUMP JUMPDEST DUP2 MSTORE PUSH1 0x20 ADD DUP11 DUP2 MSTORE PUSH1 0x20 ADD DUP10 DUP2 MSTORE PUSH1 0x20 ADD DUP9 DUP2 MSTORE PUSH1 0x20 ADD DUP11 DUP14 DUP12 PUSH2 0x1106 SWAP2 SWAP1 PUSH2 0x1C4E JUMP JUMPDEST PUSH2 0x1110 SWAP2 SWAP1 PUSH2 0x1C1D JUMP JUMPDEST DUP2 MSTORE PUSH1 0x20 ADD DUP8 PUSH20 0xFFFFFFFFFFFFFFFFFFFFFFFFFFFFFFFFFFFFFFFF AND DUP2 MSTORE PUSH1 0x20 ADD DUP7 PUSH20 0xFFFFFFFFFFFFFFFFFFFFFFFFFFFFFFFFFFFFFFFF AND DUP2 MSTORE POP DUP2 MSTORE POP SWAP1 POP PUSH1 0x2 PUSH1 0x0 DUP6 PUSH20 0xFFFFFFFFFFFFFFFFFFFFFFFFFFFFFFFFFFFFFFFF AND PUSH20 0xFFFFFFFFFFFFFFFFFFFFFFFFFFFFFFFFFFFFFFFF AND DUP2 MSTORE PUSH1 0x20 ADD SWAP1 DUP2 MSTORE PUSH1 0x20 ADD PUSH1 0x0 KECCAK256 DUP2 SWAP1 DUP1 PUSH1 0x1 DUP2 SLOAD ADD DUP1 DUP3 SSTORE DUP1 SWAP2 POP POP PUSH1 0x1 SWAP1 SUB SWAP1 PUSH1 0x0 MSTORE PUSH1 0x20 PUSH1 0x0 KECCAK256 SWAP1 PUSH1 0xB MUL ADD PUSH1 0x0 SWAP1 SWAP2 SWAP1 SWAP2 SWAP1 SWAP2 POP PUSH1 0x0 DUP3 ADD MLOAD DUP2 PUSH1 0x0 ADD SSTORE PUSH1 0x20 DUP3 ADD MLOAD DUP2 PUSH1 0x1 ADD PUSH1 0x0 PUSH2 0x100 EXP DUP2 SLOAD DUP2 PUSH1 0xFF MUL NOT AND SWAP1 DUP4 ISZERO ISZERO MUL OR SWAP1 SSTORE POP PUSH1 0x40 DUP3 ADD MLOAD DUP2 PUSH1 0x2 ADD SSTORE PUSH1 0x60 DUP3 ADD MLOAD DUP2 PUSH1 0x3 ADD PUSH1 0x0 DUP3 ADD MLOAD DUP2 PUSH1 0x0 ADD SSTORE PUSH1 0x20 DUP3 ADD MLOAD DUP2 PUSH1 0x1 ADD SSTORE PUSH1 0x40 DUP3 ADD MLOAD DUP2 PUSH1 0x2 ADD SSTORE PUSH1 0x60 DUP3 ADD MLOAD DUP2 PUSH1 0x3 ADD SSTORE PUSH1 0x80 DUP3 ADD MLOAD DUP2 PUSH1 0x4 ADD SSTORE PUSH1 0xA0 DUP3 ADD MLOAD DUP2 PUSH1 0x5 ADD SSTORE PUSH1 0xC0 DUP3 ADD MLOAD DUP2 PUSH1 0x6 ADD PUSH1 0x0 PUSH2 0x100 EXP DUP2 SLOAD DUP2 PUSH20 0xFFFFFFFFFFFFFFFFFFFFFFFFFFFFFFFFFFFFFFFF MUL NOT AND SWAP1 DUP4 PUSH20 0xFFFFFFFFFFFFFFFFFFFFFFFFFFFFFFFFFFFFFFFF AND MUL OR SWAP1 SSTORE POP PUSH1 0xE0 DUP3 ADD MLOAD DUP2 PUSH1 0x7 ADD PUSH1 0x0 PUSH2 0x100 EXP DUP2 SLOAD DUP2 PUSH20 0xFFFFFFFFFFFFFFFFFFFFFFFFFFFFFFFFFFFFFFFF MUL NOT AND SWAP1 DUP4 PUSH20 0xFFFFFFFFFFFFFFFFFFFFFFFFFFFFFFFFFFFFFFFF AND MUL OR SWAP1 SSTORE POP POP POP POP POP DUP3 PUSH1 0x0 DUP1 PUSH2 0x100 EXP DUP2 SLOAD DUP2 PUSH20 0xFFFFFFFFFFFFFFFFFFFFFFFFFFFFFFFFFFFFFFFF MUL NOT AND SWAP1 DUP4 PUSH20 0xFFFFFFFFFFFFFFFFFFFFFFFFFFFFFFFFFFFFFFFF AND MUL OR SWAP1 SSTORE POP PUSH1 0x0 DUP1 SLOAD SWAP1 PUSH2 0x100 EXP SWAP1 DIV PUSH20 0xFFFFFFFFFFFFFFFFFFFFFFFFFFFFFFFFFFFFFFFF AND PUSH20 0xFFFFFFFFFFFFFFFFFFFFFFFFFFFFFFFFFFFFFFFF AND PUSH4 0x23B872DD CALLER ADDRESS DUP13 PUSH1 0x40 MLOAD DUP5 PUSH4 0xFFFFFFFF AND PUSH1 0xE0 SHL DUP2 MSTORE PUSH1 0x4 ADD PUSH2 0x1361 SWAP4 SWAP3 SWAP2 SWAP1 PUSH2 0x211A JUMP JUMPDEST PUSH1 0x20 PUSH1 0x40 MLOAD DUP1 DUP4 SUB DUP2 PUSH1 0x0 DUP8 GAS CALL ISZERO DUP1 ISZERO PUSH2 0x1380 JUMPI RETURNDATASIZE PUSH1 0x0 DUP1 RETURNDATACOPY RETURNDATASIZE PUSH1 0x0 REVERT JUMPDEST POP POP POP POP PUSH1 0x40 MLOAD RETURNDATASIZE PUSH1 0x1F NOT PUSH1 0x1F DUP3 ADD AND DUP3 ADD DUP1 PUSH1 0x40 MSTORE POP DUP2 ADD SWAP1 PUSH2 0x13A4 SWAP2 SWAP1 PUSH2 0x1AEA JUMP JUMPDEST POP PUSH32 0x2C041AE393928AF2D7B44A39672D0319629F48C2F248CEF083A2A92F4159D07E DUP5 DUP11 DUP10 DUP10 DUP13 DUP11 DUP10 PUSH1 0x40 MLOAD PUSH2 0x13E0 SWAP8 SWAP7 SWAP6 SWAP5 SWAP4 SWAP3 SWAP2 SWAP1 PUSH2 0x2151 JUMP JUMPDEST PUSH1 0x40 MLOAD DUP1 SWAP2 SUB SWAP1 LOG1 POP POP POP POP POP POP POP POP POP JUMP JUMPDEST PUSH1 0x0 DUP1 SLOAD SWAP1 PUSH2 0x100 EXP SWAP1 DIV PUSH20 0xFFFFFFFFFFFFFFFFFFFFFFFFFFFFFFFFFFFFFFFF AND DUP2 JUMP JUMPDEST PUSH1 0x0 DUP1 REVERT JUMPDEST PUSH1 0x0 DUP2 SWAP1 POP SWAP2 SWAP1 POP JUMP JUMPDEST PUSH2 0x142F DUP2 PUSH2 0x141C JUMP JUMPDEST DUP2 EQ PUSH2 0x143A JUMPI PUSH1 0x0 DUP1 REVERT JUMPDEST POP JUMP JUMPDEST PUSH1 0x0 DUP2 CALLDATALOAD SWAP1 POP PUSH2 0x144C DUP2 PUSH2 0x1426 JUMP JUMPDEST SWAP3 SWAP2 POP POP JUMP JUMPDEST PUSH1 0x0 PUSH1 0x20 DUP3 DUP5 SUB SLT ISZERO PUSH2 0x1468 JUMPI PUSH2 0x1467 PUSH2 0x1417 JUMP JUMPDEST JUMPDEST PUSH1 0x0 PUSH2 0x1476 DUP5 DUP3 DUP6 ADD PUSH2 0x143D JUMP JUMPDEST SWAP2 POP POP SWAP3 SWAP2 POP POP JUMP JUMPDEST PUSH2 0x1488 DUP2 PUSH2 0x141C JUMP JUMPDEST DUP3 MSTORE POP POP JUMP JUMPDEST PUSH1 0x0 PUSH1 0x20 DUP3 ADD SWAP1 POP PUSH2 0x14A3 PUSH1 0x0 DUP4 ADD DUP5 PUSH2 0x147F JUMP JUMPDEST SWAP3 SWAP2 POP POP JUMP JUMPDEST PUSH1 0x0 PUSH20 0xFFFFFFFFFFFFFFFFFFFFFFFFFFFFFFFFFFFFFFFF DUP3 AND SWAP1 POP SWAP2 SWAP1 POP JUMP JUMPDEST PUSH1 0x0 PUSH2 0x14D4 DUP3 PUSH2 0x14A9 JUMP JUMPDEST SWAP1 POP SWAP2 SWAP1 POP JUMP JUMPDEST PUSH2 0x14E4 DUP2 PUSH2 0x14C9 JUMP JUMPDEST DUP2 EQ PUSH2 0x14EF JUMPI PUSH1 0x0 DUP1 REVERT JUMPDEST POP JUMP JUMPDEST PUSH1 0x0 DUP2 CALLDATALOAD SWAP1 POP PUSH2 0x1501 DUP2 PUSH2 0x14DB JUMP JUMPDEST SWAP3 SWAP2 POP POP JUMP JUMPDEST PUSH1 0x0 PUSH1 0x20 DUP3 DUP5 SUB SLT ISZERO PUSH2 0x151D JUMPI PUSH2 0x151C PUSH2 0x1417 JUMP JUMPDEST JUMPDEST PUSH1 0x0 PUSH2 0x152B DUP5 DUP3 DUP6 ADD PUSH2 0x14F2 JUMP JUMPDEST SWAP2 POP POP SWAP3 SWAP2 POP POP JUMP JUMPDEST PUSH1 0x0 DUP2 ISZERO ISZERO SWAP1 POP SWAP2 SWAP1 POP JUMP JUMPDEST PUSH2 0x1549 DUP2 PUSH2 0x1534 JUMP JUMPDEST DUP3 MSTORE POP POP JUMP JUMPDEST PUSH1 0x0 PUSH1 0x20 DUP3 ADD SWAP1 POP PUSH2 0x1564 PUSH1 0x0 DUP4 ADD DUP5 PUSH2 0x1540 JUMP JUMPDEST SWAP3 SWAP2 POP POP JUMP JUMPDEST PUSH1 0x0 DUP1 PUSH1 0x40 DUP4 DUP6 SUB SLT ISZERO PUSH2 0x1581 JUMPI PUSH2 0x1580 PUSH2 0x1417 JUMP JUMPDEST JUMPDEST PUSH1 0x0 PUSH2 0x158F DUP6 DUP3 DUP7 ADD PUSH2 0x14F2 JUMP JUMPDEST SWAP3 POP POP PUSH1 0x20 PUSH2 0x15A0 DUP6 DUP3 DUP7 ADD PUSH2 0x143D JUMP JUMPDEST SWAP2 POP POP SWAP3 POP SWAP3 SWAP1 POP JUMP JUMPDEST PUSH2 0x15B3 DUP2 PUSH2 0x141C JUMP JUMPDEST DUP3 MSTORE POP POP JUMP JUMPDEST PUSH2 0x15C2 DUP2 PUSH2 0x14C9 JUMP JUMPDEST DUP3 MSTORE POP POP JUMP JUMPDEST PUSH2 0x100 DUP3 ADD PUSH1 0x0 DUP3 ADD MLOAD PUSH2 0x15DF PUSH1 0x0 DUP6 ADD DUP3 PUSH2 0x15AA JUMP JUMPDEST POP PUSH1 0x20 DUP3 ADD MLOAD PUSH2 0x15F2 PUSH1 0x20 DUP6 ADD DUP3 PUSH2 0x15AA JUMP JUMPDEST POP PUSH1 0x40 DUP3 ADD MLOAD PUSH2 0x1605 PUSH1 0x40 DUP6 ADD DUP3 PUSH2 0x15AA JUMP JUMPDEST POP PUSH1 0x60 DUP3 ADD MLOAD PUSH2 0x1618 PUSH1 0x60 DUP6 ADD DUP3 PUSH2 0x15AA JUMP JUMPDEST POP PUSH1 0x80 DUP3 ADD MLOAD PUSH2 0x162B PUSH1 0x80 DUP6 ADD DUP3 PUSH2 0x15AA JUMP JUMPDEST POP PUSH1 0xA0 DUP3 ADD MLOAD PUSH2 0x163E PUSH1 0xA0 DUP6 ADD DUP3 PUSH2 0x15AA JUMP JUMPDEST POP PUSH1 0xC0 DUP3 ADD MLOAD PUSH2 0x1651 PUSH1 0xC0 DUP6 ADD DUP3 PUSH2 0x15B9 JUMP JUMPDEST POP PUSH1 0xE0 DUP3 ADD MLOAD PUSH2 0x1664 PUSH1 0xE0 DUP6 ADD DUP3 PUSH2 0x15B9 JUMP JUMPDEST POP POP POP POP JUMP JUMPDEST PUSH1 0x0 PUSH2 0x160 DUP3 ADD SWAP1 POP PUSH2 0x1680 PUSH1 0x0 DUP4 ADD DUP8 PUSH2 0x147F JUMP JUMPDEST PUSH2 0x168D PUSH1 0x20 DUP4 ADD DUP7 PUSH2 0x1540 JUMP JUMPDEST PUSH2 0x169A PUSH1 0x40 DUP4 ADD DUP6 PUSH2 0x147F JUMP JUMPDEST PUSH2 0x16A7 PUSH1 0x60 DUP4 ADD DUP5 PUSH2 0x15C8 JUMP JUMPDEST SWAP6 SWAP5 POP POP POP POP POP JUMP JUMPDEST PUSH2 0x16B9 DUP2 PUSH2 0x14C9 JUMP JUMPDEST DUP3 MSTORE POP POP JUMP JUMPDEST PUSH1 0x0 PUSH1 0x20 DUP3 ADD SWAP1 POP PUSH2 0x16D4 PUSH1 0x0 DUP4 ADD DUP5 PUSH2 0x16B0 JUMP JUMPDEST SWAP3 SWAP2 POP POP JUMP JUMPDEST PUSH1 0x0 DUP1 PUSH1 0x0 DUP1 PUSH1 0x0 DUP1 PUSH1 0x0 PUSH1 0xE0 DUP9 DUP11 SUB SLT ISZERO PUSH2 0x16F9 JUMPI PUSH2 0x16F8 PUSH2 0x1417 JUMP JUMPDEST JUMPDEST PUSH1 0x0 PUSH2 0x1707 DUP11 DUP3 DUP12 ADD PUSH2 0x143D JUMP JUMPDEST SWAP8 POP POP PUSH1 0x20 PUSH2 0x1718 DUP11 DUP3 DUP12 ADD PUSH2 0x143D JUMP JUMPDEST SWAP7 POP POP PUSH1 0x40 PUSH2 0x1729 DUP11 DUP3 DUP12 ADD PUSH2 0x143D JUMP JUMPDEST SWAP6 POP POP PUSH1 0x60 PUSH2 0x173A DUP11 DUP3 DUP12 ADD PUSH2 0x143D JUMP JUMPDEST SWAP5 POP POP PUSH1 0x80 PUSH2 0x174B DUP11 DUP3 DUP12 ADD PUSH2 0x143D JUMP JUMPDEST SWAP4 POP POP PUSH1 0xA0 PUSH2 0x175C DUP11 DUP3 DUP12 ADD PUSH2 0x14F2 JUMP JUMPDEST SWAP3 POP POP PUSH1 0xC0 PUSH2 0x176D DUP11 DUP3 DUP12 ADD PUSH2 0x14F2 JUMP JUMPDEST SWAP2 POP POP SWAP3 SWAP6 SWAP9 SWAP2 SWAP5 SWAP8 POP SWAP3 SWAP6 POP JUMP JUMPDEST PUSH1 0x0 DUP2 SWAP1 POP SWAP2 SWAP1 POP JUMP JUMPDEST PUSH1 0x0 PUSH2 0x17A1 PUSH2 0x179C PUSH2 0x1797 DUP5 PUSH2 0x14A9 JUMP JUMPDEST PUSH2 0x177C JUMP JUMPDEST PUSH2 0x14A9 JUMP JUMPDEST SWAP1 POP SWAP2 SWAP1 POP JUMP JUMPDEST PUSH1 0x0 PUSH2 0x17B3 DUP3 PUSH2 0x1786 JUMP JUMPDEST SWAP1 POP SWAP2 SWAP1 POP JUMP JUMPDEST PUSH1 0x0 PUSH2 0x17C5 DUP3 PUSH2 0x17A8 JUMP JUMPDEST SWAP1 POP SWAP2 SWAP1 POP JUMP JUMPDEST PUSH2 0x17D5 DUP2 PUSH2 0x17BA JUMP JUMPDEST DUP3 MSTORE POP POP JUMP JUMPDEST PUSH1 0x0 PUSH1 0x20 DUP3 ADD SWAP1 POP PUSH2 0x17F0 PUSH1 0x0 DUP4 ADD DUP5 PUSH2 0x17CC JUMP JUMPDEST SWAP3 SWAP2 POP POP JUMP JUMPDEST PUSH32 0x4E487B7100000000000000000000000000000000000000000000000000000000 PUSH1 0x0 MSTORE PUSH1 0x32 PUSH1 0x4 MSTORE PUSH1 0x24 PUSH1 0x0 REVERT JUMPDEST PUSH1 0x0 DUP3 DUP3 MSTORE PUSH1 0x20 DUP3 ADD SWAP1 POP SWAP3 SWAP2 POP POP JUMP JUMPDEST PUSH32 0x46756E64732068617665206E6F74206265656E206C6F636B6564000000000000 PUSH1 0x0 DUP3 ADD MSTORE POP JUMP JUMPDEST PUSH1 0x0 PUSH2 0x186C PUSH1 0x1A DUP4 PUSH2 0x1825 JUMP JUMPDEST SWAP2 POP PUSH2 0x1877 DUP3 PUSH2 0x1836 JUMP JUMPDEST PUSH1 0x20 DUP3 ADD SWAP1 POP SWAP2 SWAP1 POP JUMP JUMPDEST PUSH1 0x0 PUSH1 0x20 DUP3 ADD SWAP1 POP DUP2 DUP2 SUB PUSH1 0x0 DUP4 ADD MSTORE PUSH2 0x189B DUP2 PUSH2 0x185F JUMP JUMPDEST SWAP1 POP SWAP2 SWAP1 POP JUMP JUMPDEST PUSH32 0x546F6B656E20756E646572206C6F636B696E672C20706C656173652077616974 PUSH1 0x0 DUP3 ADD MSTORE PUSH32 0x2E2E000000000000000000000000000000000000000000000000000000000000 PUSH1 0x20 DUP3 ADD MSTORE POP JUMP JUMPDEST PUSH1 0x0 PUSH2 0x18FE PUSH1 0x22 DUP4 PUSH2 0x1825 JUMP JUMPDEST SWAP2 POP PUSH2 0x1909 DUP3 PUSH2 0x18A2 JUMP JUMPDEST PUSH1 0x40 DUP3 ADD SWAP1 POP SWAP2 SWAP1 POP JUMP JUMPDEST PUSH1 0x0 PUSH1 0x20 DUP3 ADD SWAP1 POP DUP2 DUP2 SUB PUSH1 0x0 DUP4 ADD MSTORE PUSH2 0x192D DUP2 PUSH2 0x18F1 JUMP JUMPDEST SWAP1 POP SWAP2 SWAP1 POP JUMP JUMPDEST PUSH32 0x4E487B7100000000000000000000000000000000000000000000000000000000 PUSH1 0x0 MSTORE PUSH1 0x11 PUSH1 0x4 MSTORE PUSH1 0x24 PUSH1 0x0 REVERT JUMPDEST PUSH1 0x0 PUSH2 0x196E DUP3 PUSH2 0x141C JUMP JUMPDEST SWAP2 POP PUSH2 0x1979 DUP4 PUSH2 0x141C JUMP JUMPDEST SWAP3 POP DUP3 DUP3 ADD SWAP1 POP DUP1 DUP3 GT ISZERO PUSH2 0x1991 JUMPI PUSH2 0x1990 PUSH2 0x1934 JUMP JUMPDEST JUMPDEST SWAP3 SWAP2 POP POP JUMP JUMPDEST PUSH32 0x436C69666620706572696F6420686173206E6F7420656E646564207965742E00 PUSH1 0x0 DUP3 ADD MSTORE POP JUMP JUMPDEST PUSH1 0x0 PUSH2 0x19CD PUSH1 0x1F DUP4 PUSH2 0x1825 JUMP JUMPDEST SWAP2 POP PUSH2 0x19D8 DUP3 PUSH2 0x1997 JUMP JUMPDEST PUSH1 0x20 DUP3 ADD SWAP1 POP SWAP2 SWAP1 POP JUMP JUMPDEST PUSH1 0x0 PUSH1 0x20 DUP3 ADD SWAP1 POP DUP2 DUP2 SUB PUSH1 0x0 DUP4 ADD MSTORE PUSH2 0x19FC DUP2 PUSH2 0x19C0 JUMP JUMPDEST SWAP1 POP SWAP2 SWAP1 POP JUMP JUMPDEST PUSH32 0x4E6F7420656E6F75676820616D6F756E7420617661696C61626C6520666F7220 PUSH1 0x0 DUP3 ADD MSTORE PUSH32 0x7769746864726177616C00000000000000000000000000000000000000000000 PUSH1 0x20 DUP3 ADD MSTORE POP JUMP JUMPDEST PUSH1 0x0 PUSH2 0x1A5F PUSH1 0x2A DUP4 PUSH2 0x1825 JUMP JUMPDEST SWAP2 POP PUSH2 0x1A6A DUP3 PUSH2 0x1A03 JUMP JUMPDEST PUSH1 0x40 DUP3 ADD SWAP1 POP SWAP2 SWAP1 POP JUMP JUMPDEST PUSH1 0x0 PUSH1 0x20 DUP3 ADD SWAP1 POP DUP2 DUP2 SUB PUSH1 0x0 DUP4 ADD MSTORE PUSH2 0x1A8E DUP2 PUSH2 0x1A52 JUMP JUMPDEST SWAP1 POP SWAP2 SWAP1 POP JUMP JUMPDEST PUSH1 0x0 PUSH1 0x40 DUP3 ADD SWAP1 POP PUSH2 0x1AAA PUSH1 0x0 DUP4 ADD DUP6 PUSH2 0x16B0 JUMP JUMPDEST PUSH2 0x1AB7 PUSH1 0x20 DUP4 ADD DUP5 PUSH2 0x147F JUMP JUMPDEST SWAP4 SWAP3 POP POP POP JUMP JUMPDEST PUSH2 0x1AC7 DUP2 PUSH2 0x1534 JUMP JUMPDEST DUP2 EQ PUSH2 0x1AD2 JUMPI PUSH1 0x0 DUP1 REVERT JUMPDEST POP JUMP JUMPDEST PUSH1 0x0 DUP2 MLOAD SWAP1 POP PUSH2 0x1AE4 DUP2 PUSH2 0x1ABE JUMP JUMPDEST SWAP3 SWAP2 POP POP JUMP JUMPDEST PUSH1 0x0 PUSH1 0x20 DUP3 DUP5 SUB SLT ISZERO PUSH2 0x1B00 JUMPI PUSH2 0x1AFF PUSH2 0x1417 JUMP JUMPDEST JUMPDEST PUSH1 0x0 PUSH2 0x1B0E DUP5 DUP3 DUP6 ADD PUSH2 0x1AD5 JUMP JUMPDEST SWAP2 POP POP SWAP3 SWAP2 POP POP JUMP JUMPDEST PUSH1 0x0 PUSH2 0x1B22 DUP3 PUSH2 0x141C JUMP JUMPDEST SWAP2 POP PUSH2 0x1B2D DUP4 PUSH2 0x141C JUMP JUMPDEST SWAP3 POP DUP3 DUP3 SUB SWAP1 POP DUP2 DUP2 GT ISZERO PUSH2 0x1B45 JUMPI PUSH2 0x1B44 PUSH2 0x1934 JUMP JUMPDEST JUMPDEST SWAP3 SWAP2 POP POP JUMP JUMPDEST PUSH1 0x0 PUSH1 0x60 DUP3 ADD SWAP1 POP PUSH2 0x1B60 PUSH1 0x0 DUP4 ADD DUP7 PUSH2 0x16B0 JUMP JUMPDEST PUSH2 0x1B6D PUSH1 0x20 DUP4 ADD DUP6 PUSH2 0x147F JUMP JUMPDEST PUSH2 0x1B7A PUSH1 0x40 DUP4 ADD DUP5 PUSH2 0x147F JUMP JUMPDEST SWAP5 SWAP4 POP POP POP POP JUMP JUMPDEST PUSH32 0x56657374696E67206E6F74207374617274656420796574000000000000000000 PUSH1 0x0 DUP3 ADD MSTORE POP JUMP JUMPDEST PUSH1 0x0 PUSH2 0x1BB8 PUSH1 0x17 DUP4 PUSH2 0x1825 JUMP JUMPDEST SWAP2 POP PUSH2 0x1BC3 DUP3 PUSH2 0x1B82 JUMP JUMPDEST PUSH1 0x20 DUP3 ADD SWAP1 POP SWAP2 SWAP1 POP JUMP JUMPDEST PUSH1 0x0 PUSH1 0x20 DUP3 ADD SWAP1 POP DUP2 DUP2 SUB PUSH1 0x0 DUP4 ADD MSTORE PUSH2 0x1BE7 DUP2 PUSH2 0x1BAB JUMP JUMPDEST SWAP1 POP SWAP2 SWAP1 POP JUMP JUMPDEST PUSH32 0x4E487B7100000000000000000000000000000000000000000000000000000000 PUSH1 0x0 MSTORE PUSH1 0x12 PUSH1 0x4 MSTORE PUSH1 0x24 PUSH1 0x0 REVERT JUMPDEST PUSH1 0x0 PUSH2 0x1C28 DUP3 PUSH2 0x141C JUMP JUMPDEST SWAP2 POP PUSH2 0x1C33 DUP4 PUSH2 0x141C JUMP JUMPDEST SWAP3 POP DUP3 PUSH2 0x1C43 JUMPI PUSH2 0x1C42 PUSH2 0x1BEE JUMP JUMPDEST JUMPDEST DUP3 DUP3 DIV SWAP1 POP SWAP3 SWAP2 POP POP JUMP JUMPDEST PUSH1 0x0 PUSH2 0x1C59 DUP3 PUSH2 0x141C JUMP JUMPDEST SWAP2 POP PUSH2 0x1C64 DUP4 PUSH2 0x141C JUMP JUMPDEST SWAP3 POP DUP3 DUP3 MUL PUSH2 0x1C72 DUP2 PUSH2 0x141C JUMP JUMPDEST SWAP2 POP DUP3 DUP3 DIV DUP5 EQ DUP4 ISZERO OR PUSH2 0x1C89 JUMPI PUSH2 0x1C88 PUSH2 0x1934 JUMP JUMPDEST JUMPDEST POP SWAP3 SWAP2 POP POP JUMP JUMPDEST PUSH32 0x4F6E6C792074686520636F6E7472616374206F776E65722063616E2063616C6C PUSH1 0x0 DUP3 ADD MSTORE PUSH32 0x20746869732066756E6374696F6E000000000000000000000000000000000000 PUSH1 0x20 DUP3 ADD MSTORE POP JUMP JUMPDEST PUSH1 0x0 PUSH2 0x1CEC PUSH1 0x2E DUP4 PUSH2 0x1825 JUMP JUMPDEST SWAP2 POP PUSH2 0x1CF7 DUP3 PUSH2 0x1C90 JUMP JUMPDEST PUSH1 0x40 DUP3 ADD SWAP1 POP SWAP2 SWAP1 POP JUMP JUMPDEST PUSH1 0x0 PUSH1 0x20 DUP3 ADD SWAP1 POP DUP2 DUP2 SUB PUSH1 0x0 DUP4 ADD MSTORE PUSH2 0x1D1B DUP2 PUSH2 0x1CDF JUMP JUMPDEST SWAP1 POP SWAP2 SWAP1 POP JUMP JUMPDEST PUSH32 0x546F6B656E206973206E6F7420696E2077686974656C69737400000000000000 PUSH1 0x0 DUP3 ADD MSTORE POP JUMP JUMPDEST PUSH1 0x0 PUSH2 0x1D58 PUSH1 0x19 DUP4 PUSH2 0x1825 JUMP JUMPDEST SWAP2 POP PUSH2 0x1D63 DUP3 PUSH2 0x1D22 JUMP JUMPDEST PUSH1 0x20 DUP3 ADD SWAP1 POP SWAP2 SWAP1 POP JUMP JUMPDEST PUSH1 0x0 PUSH1 0x20 DUP3 ADD SWAP1 POP DUP2 DUP2 SUB PUSH1 0x0 DUP4 ADD MSTORE PUSH2 0x1D87 DUP2 PUSH2 0x1D4B JUMP JUMPDEST SWAP1 POP SWAP2 SWAP1 POP JUMP JUMPDEST PUSH32 0x546F6B656E20616C726561647920616464656420746F2077686974656C697374 PUSH1 0x0 DUP3 ADD MSTORE POP JUMP JUMPDEST PUSH1 0x0 PUSH2 0x1DC4 PUSH1 0x20 DUP4 PUSH2 0x1825 JUMP JUMPDEST SWAP2 POP PUSH2 0x1DCF DUP3 PUSH2 0x1D8E JUMP JUMPDEST PUSH1 0x20 DUP3 ADD SWAP1 POP SWAP2 SWAP1 POP JUMP JUMPDEST PUSH1 0x0 PUSH1 0x20 DUP3 ADD SWAP1 POP DUP2 DUP2 SUB PUSH1 0x0 DUP4 ADD MSTORE PUSH2 0x1DF3 DUP2 PUSH2 0x1DB7 JUMP JUMPDEST SWAP1 POP SWAP2 SWAP1 POP JUMP JUMPDEST PUSH32 0x416D6F756E74206D757374206E6F74206265207A65726F000000000000000000 PUSH1 0x0 DUP3 ADD MSTORE POP JUMP JUMPDEST PUSH1 0x0 PUSH2 0x1E30 PUSH1 0x17 DUP4 PUSH2 0x1825 JUMP JUMPDEST SWAP2 POP PUSH2 0x1E3B DUP3 PUSH2 0x1DFA JUMP JUMPDEST PUSH1 0x20 DUP3 ADD SWAP1 POP SWAP2 SWAP1 POP JUMP JUMPDEST PUSH1 0x0 PUSH1 0x20 DUP3 ADD SWAP1 POP DUP2 DUP2 SUB PUSH1 0x0 DUP4 ADD MSTORE PUSH2 0x1E5F DUP2 PUSH2 0x1E23 JUMP JUMPDEST SWAP1 POP SWAP2 SWAP1 POP JUMP JUMPDEST PUSH32 0x53746172742054696D65206D7573742062652067726561746572207468616E20 PUSH1 0x0 DUP3 ADD MSTORE PUSH32 0x63757272656E742074696D652E00000000000000000000000000000000000000 PUSH1 0x20 DUP3 ADD MSTORE POP JUMP JUMPDEST PUSH1 0x0 PUSH2 0x1EC2 PUSH1 0x2D DUP4 PUSH2 0x1825 JUMP JUMPDEST SWAP2 POP PUSH2 0x1ECD DUP3 PUSH2 0x1E66 JUMP JUMPDEST PUSH1 0x40 DUP3 ADD SWAP1 POP SWAP2 SWAP1 POP JUMP JUMPDEST PUSH1 0x0 PUSH1 0x20 DUP3 ADD SWAP1 POP DUP2 DUP2 SUB PUSH1 0x0 DUP4 ADD MSTORE PUSH2 0x1EF1 DUP2 PUSH2 0x1EB5 JUMP JUMPDEST SWAP1 POP SWAP2 SWAP1 POP JUMP JUMPDEST PUSH32 0x53746172742054696D65206D757374206265206C657373207468616E20456E64 PUSH1 0x0 DUP3 ADD MSTORE PUSH32 0x2074696D652E0000000000000000000000000000000000000000000000000000 PUSH1 0x20 DUP3 ADD MSTORE POP JUMP JUMPDEST PUSH1 0x0 PUSH2 0x1F54 PUSH1 0x26 DUP4 PUSH2 0x1825 JUMP JUMPDEST SWAP2 POP PUSH2 0x1F5F DUP3 PUSH2 0x1EF8 JUMP JUMPDEST PUSH1 0x40 DUP3 ADD SWAP1 POP SWAP2 SWAP1 POP JUMP JUMPDEST PUSH1 0x0 PUSH1 0x20 DUP3 ADD SWAP1 POP DUP2 DUP2 SUB PUSH1 0x0 DUP4 ADD MSTORE PUSH2 0x1F83 DUP2 PUSH2 0x1F47 JUMP JUMPDEST SWAP1 POP SWAP2 SWAP1 POP JUMP JUMPDEST PUSH32 0x596F7520617265206E6F7420616C6C6F77656420746F20757365207468697320 PUSH1 0x0 DUP3 ADD MSTORE PUSH32 0x636F6E74726163742E0000000000000000000000000000000000000000000000 PUSH1 0x20 DUP3 ADD MSTORE POP JUMP JUMPDEST PUSH1 0x0 PUSH2 0x1FE6 PUSH1 0x29 DUP4 PUSH2 0x1825 JUMP JUMPDEST SWAP2 POP PUSH2 0x1FF1 DUP3 PUSH2 0x1F8A JUMP JUMPDEST PUSH1 0x40 DUP3 ADD SWAP1 POP SWAP2 SWAP1 POP JUMP JUMPDEST PUSH1 0x0 PUSH1 0x20 DUP3 ADD SWAP1 POP DUP2 DUP2 SUB PUSH1 0x0 DUP4 ADD MSTORE PUSH2 0x2015 DUP2 PUSH2 0x1FD9 JUMP JUMPDEST SWAP1 POP SWAP2 SWAP1 POP JUMP JUMPDEST PUSH32 0x436C696666206D757374206265206C657373207468616E206475726174696F6E PUSH1 0x0 DUP3 ADD MSTORE POP JUMP JUMPDEST PUSH1 0x0 PUSH2 0x2052 PUSH1 0x20 DUP4 PUSH2 0x1825 JUMP JUMPDEST SWAP2 POP PUSH2 0x205D DUP3 PUSH2 0x201C JUMP JUMPDEST PUSH1 0x20 DUP3 ADD SWAP1 POP SWAP2 SWAP1 POP JUMP JUMPDEST PUSH1 0x0 PUSH1 0x20 DUP3 ADD SWAP1 POP DUP2 DUP2 SUB PUSH1 0x0 DUP4 ADD MSTORE PUSH2 0x2081 DUP2 PUSH2 0x2045 JUMP JUMPDEST SWAP1 POP SWAP2 SWAP1 POP JUMP JUMPDEST PUSH32 0x436C696666206D7573742062652067726561746572207468616E207374617274 PUSH1 0x0 DUP3 ADD MSTORE PUSH32 0x2074696D65000000000000000000000000000000000000000000000000000000 PUSH1 0x20 DUP3 ADD MSTORE POP JUMP JUMPDEST PUSH1 0x0 PUSH2 0x20E4 PUSH1 0x25 DUP4 PUSH2 0x1825 JUMP JUMPDEST SWAP2 POP PUSH2 0x20EF DUP3 PUSH2 0x2088 JUMP JUMPDEST PUSH1 0x40 DUP3 ADD SWAP1 POP SWAP2 SWAP1 POP JUMP JUMPDEST PUSH1 0x0 PUSH1 0x20 DUP3 ADD SWAP1 POP DUP2 DUP2 SUB PUSH1 0x0 DUP4 ADD MSTORE PUSH2 0x2113 DUP2 PUSH2 0x20D7 JUMP JUMPDEST SWAP1 POP SWAP2 SWAP1 POP JUMP JUMPDEST PUSH1 0x0 PUSH1 0x60 DUP3 ADD SWAP1 POP PUSH2 0x212F PUSH1 0x0 DUP4 ADD DUP7 PUSH2 0x16B0 JUMP JUMPDEST PUSH2 0x213C PUSH1 0x20 DUP4 ADD DUP6 PUSH2 0x16B0 JUMP JUMPDEST PUSH2 0x2149 PUSH1 0x40 DUP4 ADD DUP5 PUSH2 0x147F JUMP JUMPDEST SWAP5 SWAP4 POP POP POP POP JUMP JUMPDEST PUSH1 0x0 PUSH1 0xE0 DUP3 ADD SWAP1 POP PUSH2 0x2166 PUSH1 0x0 DUP4 ADD DUP11 PUSH2 0x16B0 JUMP JUMPDEST PUSH2 0x2173 PUSH1 0x20 DUP4 ADD DUP10 PUSH2 0x147F JUMP JUMPDEST PUSH2 0x2180 PUSH1 0x40 DUP4 ADD DUP9 PUSH2 0x147F JUMP JUMPDEST PUSH2 0x218D PUSH1 0x60 DUP4 ADD DUP8 PUSH2 0x147F JUMP JUMPDEST PUSH2 0x219A PUSH1 0x80 DUP4 ADD DUP7 PUSH2 0x147F JUMP JUMPDEST PUSH2 0x21A7 PUSH1 0xA0 DUP4 ADD DUP6 PUSH2 0x147F JUMP JUMPDEST PUSH2 0x21B4 PUSH1 0xC0 DUP4 ADD DUP5 PUSH2 0x16B0 JUMP JUMPDEST SWAP9 SWAP8 POP POP POP POP POP POP POP POP JUMP INVALID LOG2 PUSH5 0x6970667358 0x22 SLT KECCAK256 PUSH23 0x2D1093093E60D4E969C4345406D6713C587DD059AFCD3A 0x24 SWAP3 0xBD EXP PUSH14 0x632B7F64736F6C63430008120033 "
				},
				"gasEstimates": {
					"creation": {
						"codeDepositCost": "1738800",
						"executionCost": "26093",
						"totalCost": "1764893"
					},
					"external": {
						"CheckWhitelist(address)": "2934",
						"WhiteListTokens(uint256)": "5000",
						"addWhitelist(address)": "77873",
						"calculate_available_withdraw_token(uint256)": "infinite",
						"getTime()": "359",
						"getTotalVesting()": "2556",
						"getTotalWhitelist()": "2445",
						"lock(uint256,uint256,uint256,uint256,uint256,address,address)": "infinite",
						"removeWhitelist(address)": "53624",
						"token()": "infinite",
						"vestings(address,uint256)": "infinite",
						"withdraw(uint256)": "infinite"
					}
				},
				"methodIdentifiers": {
					"CheckWhitelist(address)": "95290163",
					"WhiteListTokens(uint256)": "eab72e65",
					"addWhitelist(address)": "f80f5dd5",
					"calculate_available_withdraw_token(uint256)": "5952ffd1",
					"getTime()": "557ed1ba",
					"getTotalVesting()": "e9afad38",
					"getTotalWhitelist()": "d41330d2",
					"lock(uint256,uint256,uint256,uint256,uint256,address,address)": "f8c8d140",
					"removeWhitelist(address)": "78c8cda7",
					"token()": "fc0c546a",
					"vestings(address,uint256)": "bd84477d",
					"withdraw(uint256)": "2e1a7d4d"
				}
			},
			"storageLayout": {
				"storage": [
					{
						"astId": 717,
						"contract": "Vesting Contract/v4.sol:VestingContract",
						"label": "token",
						"offset": 0,
						"slot": "0",
						"type": "t_contract(ERC20)586"
					},
					{
						"astId": 719,
						"contract": "Vesting Contract/v4.sol:VestingContract",
						"label": "owner",
						"offset": 0,
						"slot": "1",
						"type": "t_address"
					},
					{
						"astId": 761,
						"contract": "Vesting Contract/v4.sol:VestingContract",
						"label": "vestings",
						"offset": 0,
						"slot": "2",
						"type": "t_mapping(t_address,t_array(t_struct(VestingSchedule)755_storage)dyn_storage)"
					},
					{
						"astId": 765,
						"contract": "Vesting Contract/v4.sol:VestingContract",
						"label": "CheckWhitelist",
						"offset": 0,
						"slot": "3",
						"type": "t_mapping(t_address,t_bool)"
					},
					{
						"astId": 768,
						"contract": "Vesting Contract/v4.sol:VestingContract",
						"label": "WhiteListTokens",
						"offset": 0,
						"slot": "4",
						"type": "t_array(t_address)dyn_storage"
					}
				],
				"types": {
					"t_address": {
						"encoding": "inplace",
						"label": "address",
						"numberOfBytes": "20"
					},
					"t_array(t_address)dyn_storage": {
						"base": "t_address",
						"encoding": "dynamic_array",
						"label": "address[]",
						"numberOfBytes": "32"
					},
					"t_array(t_struct(VestingSchedule)755_storage)dyn_storage": {
						"base": "t_struct(VestingSchedule)755_storage",
						"encoding": "dynamic_array",
						"label": "struct VestingContract.VestingSchedule[]",
						"numberOfBytes": "32"
					},
					"t_bool": {
						"encoding": "inplace",
						"label": "bool",
						"numberOfBytes": "1"
					},
					"t_contract(ERC20)586": {
						"encoding": "inplace",
						"label": "contract ERC20",
						"numberOfBytes": "20"
					},
					"t_mapping(t_address,t_array(t_struct(VestingSchedule)755_storage)dyn_storage)": {
						"encoding": "mapping",
						"key": "t_address",
						"label": "mapping(address => struct VestingContract.VestingSchedule[])",
						"numberOfBytes": "32",
						"value": "t_array(t_struct(VestingSchedule)755_storage)dyn_storage"
					},
					"t_mapping(t_address,t_bool)": {
						"encoding": "mapping",
						"key": "t_address",
						"label": "mapping(address => bool)",
						"numberOfBytes": "32",
						"value": "t_bool"
					},
					"t_struct(VestingParams)745_storage": {
						"encoding": "inplace",
						"label": "struct VestingContract.VestingParams",
						"members": [
							{
								"astId": 730,
								"contract": "Vesting Contract/v4.sol:VestingContract",
								"label": "amount",
								"offset": 0,
								"slot": "0",
								"type": "t_uint256"
							},
							{
								"astId": 732,
								"contract": "Vesting Contract/v4.sol:VestingContract",
								"label": "start",
								"offset": 0,
								"slot": "1",
								"type": "t_uint256"
							},
							{
								"astId": 734,
								"contract": "Vesting Contract/v4.sol:VestingContract",
								"label": "duration",
								"offset": 0,
								"slot": "2",
								"type": "t_uint256"
							},
							{
								"astId": 736,
								"contract": "Vesting Contract/v4.sol:VestingContract",
								"label": "slice_period",
								"offset": 0,
								"slot": "3",
								"type": "t_uint256"
							},
							{
								"astId": 738,
								"contract": "Vesting Contract/v4.sol:VestingContract",
								"label": "cliff",
								"offset": 0,
								"slot": "4",
								"type": "t_uint256"
							},
							{
								"astId": 740,
								"contract": "Vesting Contract/v4.sol:VestingContract",
								"label": "recive_on_interval",
								"offset": 0,
								"slot": "5",
								"type": "t_uint256"
							},
							{
								"astId": 742,
								"contract": "Vesting Contract/v4.sol:VestingContract",
								"label": "beneficiaries",
								"offset": 0,
								"slot": "6",
								"type": "t_address"
							},
							{
								"astId": 744,
								"contract": "Vesting Contract/v4.sol:VestingContract",
								"label": "TokenAddress",
								"offset": 0,
								"slot": "7",
								"type": "t_address"
							}
						],
						"numberOfBytes": "256"
					},
					"t_struct(VestingSchedule)755_storage": {
						"encoding": "inplace",
						"label": "struct VestingContract.VestingSchedule",
						"members": [
							{
								"astId": 747,
								"contract": "Vesting Contract/v4.sol:VestingContract",
								"label": "VestingId",
								"offset": 0,
								"slot": "0",
								"type": "t_uint256"
							},
							{
								"astId": 749,
								"contract": "Vesting Contract/v4.sol:VestingContract",
								"label": "locked",
								"offset": 0,
								"slot": "1",
								"type": "t_bool"
							},
							{
								"astId": 751,
								"contract": "Vesting Contract/v4.sol:VestingContract",
								"label": "claimed",
								"offset": 0,
								"slot": "2",
								"type": "t_uint256"
							},
							{
								"astId": 754,
								"contract": "Vesting Contract/v4.sol:VestingContract",
								"label": "params",
								"offset": 0,
								"slot": "3",
								"type": "t_struct(VestingParams)745_storage"
							}
						],
						"numberOfBytes": "352"
					},
					"t_uint256": {
						"encoding": "inplace",
						"label": "uint256",
						"numberOfBytes": "32"
					}
				}
			},
			"userdoc": {
				"kind": "user",
				"methods": {},
				"version": 1
			}
		}
	}
}