{
	"Vesting Contract/version2.sol": {
		"Vesting": {
			"abi": [
				{
					"inputs": [],
					"stateMutability": "nonpayable",
					"type": "constructor"
				},
				{
					"anonymous": false,
					"inputs": [
						{
							"indexed": false,
							"internalType": "address",
							"name": "beneficiary",
							"type": "address"
						},
						{
							"indexed": false,
							"internalType": "uint256",
							"name": "amount",
							"type": "uint256"
						},
						{
							"indexed": false,
							"internalType": "uint256",
							"name": "duration",
							"type": "uint256"
						},
						{
							"indexed": false,
							"internalType": "uint8",
							"name": "slice_period",
							"type": "uint8"
						},
						{
							"indexed": false,
							"internalType": "uint256",
							"name": "start",
							"type": "uint256"
						},
						{
							"indexed": false,
							"internalType": "uint8",
							"name": "cliff",
							"type": "uint8"
						}
					],
					"name": "VestingLocked",
					"type": "event"
				},
				{
					"anonymous": false,
					"inputs": [
						{
							"indexed": false,
							"internalType": "address",
							"name": "beneficiary",
							"type": "address"
						},
						{
							"indexed": false,
							"internalType": "uint256",
							"name": "index",
							"type": "uint256"
						},
						{
							"indexed": false,
							"internalType": "uint256",
							"name": "amount",
							"type": "uint256"
						}
					],
					"name": "VestingWithdrawn",
					"type": "event"
				},
				{
					"inputs": [
						{
							"internalType": "address",
							"name": "_add",
							"type": "address"
						}
					],
					"name": "addWhitelist",
					"outputs": [],
					"stateMutability": "nonpayable",
					"type": "function"
				},
				{
					"inputs": [
						{
							"internalType": "uint256",
							"name": "index",
							"type": "uint256"
						}
					],
					"name": "calculate_available_withdraw_token",
					"outputs": [
						{
							"internalType": "uint256",
							"name": "",
							"type": "uint256"
						}
					],
					"stateMutability": "view",
					"type": "function"
				},
				{
					"inputs": [],
					"name": "getTime",
					"outputs": [
						{
							"internalType": "uint256",
							"name": "",
							"type": "uint256"
						}
					],
					"stateMutability": "view",
					"type": "function"
				},
				{
					"inputs": [
						{
							"internalType": "uint256",
							"name": "_amount",
							"type": "uint256"
						},
						{
							"internalType": "uint256",
							"name": "_duration",
							"type": "uint256"
						},
						{
							"internalType": "uint8",
							"name": "_slice_period",
							"type": "uint8"
						},
						{
							"internalType": "uint8",
							"name": "_cliff",
							"type": "uint8"
						},
						{
							"internalType": "address",
							"name": "_beneficiaries",
							"type": "address"
						},
						{
							"internalType": "address",
							"name": "addressOfToken",
							"type": "address"
						}
					],
					"name": "lock",
					"outputs": [],
					"stateMutability": "nonpayable",
					"type": "function"
				},
				{
					"inputs": [],
					"name": "token",
					"outputs": [
						{
							"internalType": "contract ERC20",
							"name": "",
							"type": "address"
						}
					],
					"stateMutability": "view",
					"type": "function"
				},
				{
					"inputs": [
						{
							"internalType": "address",
							"name": "",
							"type": "address"
						},
						{
							"internalType": "uint256",
							"name": "",
							"type": "uint256"
						}
					],
					"name": "vestings",
					"outputs": [
						{
							"internalType": "uint256",
							"name": "amount",
							"type": "uint256"
						},
						{
							"internalType": "uint256",
							"name": "start",
							"type": "uint256"
						},
						{
							"internalType": "uint256",
							"name": "duration",
							"type": "uint256"
						},
						{
							"internalType": "bool",
							"name": "locked",
							"type": "bool"
						},
						{
							"internalType": "uint8",
							"name": "slice_period",
							"type": "uint8"
						},
						{
							"internalType": "uint8",
							"name": "cliff",
							"type": "uint8"
						},
						{
							"internalType": "uint256",
							"name": "recive_on_interval",
							"type": "uint256"
						},
						{
							"internalType": "address",
							"name": "beneficiaries",
							"type": "address"
						},
						{
							"internalType": "uint256",
							"name": "temp",
							"type": "uint256"
						}
					],
					"stateMutability": "view",
					"type": "function"
				},
				{
					"inputs": [
						{
							"internalType": "address",
							"name": "",
							"type": "address"
						}
					],
					"name": "whitelist",
					"outputs": [
						{
							"internalType": "bool",
							"name": "",
							"type": "bool"
						}
					],
					"stateMutability": "view",
					"type": "function"
				},
				{
					"inputs": [
						{
							"internalType": "uint256",
							"name": "index",
							"type": "uint256"
						}
					],
					"name": "withdraw",
					"outputs": [],
					"stateMutability": "nonpayable",
					"type": "function"
				}
			],
			"devdoc": {
				"kind": "dev",
				"methods": {},
				"version": 1
			},
			"evm": {
				"assembly": "    /* \"Vesting Contract/version2.sol\":114:3410  contract Vesting {... */\n  mstore(0x40, 0x80)\n    /* \"Vesting Contract/version2.sol\":193:298  constructor() {... */\n  callvalue\n  dup1\n  iszero\n  tag_1\n  jumpi\n  0x00\n  dup1\n  revert\ntag_1:\n  pop\n    /* \"Vesting Contract/version2.sol\":251:261  msg.sender */\n  caller\n    /* \"Vesting Contract/version2.sol\":243:248  owner */\n  0x01\n  0x00\n    /* \"Vesting Contract/version2.sol\":243:261  owner = msg.sender */\n  0x0100\n  exp\n  dup2\n  sload\n  dup2\n  0xffffffffffffffffffffffffffffffffffffffff\n  mul\n  not\n  and\n  swap1\n  dup4\n  0xffffffffffffffffffffffffffffffffffffffff\n  and\n  mul\n  or\n  swap1\n  sstore\n  pop\n    /* \"Vesting Contract/version2.sol\":114:3410  contract Vesting {... */\n  dataSize(sub_0)\n  dup1\n  dataOffset(sub_0)\n  0x00\n  codecopy\n  0x00\n  return\nstop\n\nsub_0: assembly {\n        /* \"Vesting Contract/version2.sol\":114:3410  contract Vesting {... */\n      mstore(0x40, 0x80)\n      callvalue\n      dup1\n      iszero\n      tag_1\n      jumpi\n      0x00\n      dup1\n      revert\n    tag_1:\n      pop\n      jumpi(tag_2, lt(calldatasize, 0x04))\n      shr(0xe0, calldataload(0x00))\n      dup1\n      0x9b19251a\n      gt\n      tag_11\n      jumpi\n      dup1\n      0x9b19251a\n      eq\n      tag_7\n      jumpi\n      dup1\n      0xbd84477d\n      eq\n      tag_8\n      jumpi\n      dup1\n      0xf80f5dd5\n      eq\n      tag_9\n      jumpi\n      dup1\n      0xfc0c546a\n      eq\n      tag_10\n      jumpi\n      jump(tag_2)\n    tag_11:\n      dup1\n      0x1a072a22\n      eq\n      tag_3\n      jumpi\n      dup1\n      0x2e1a7d4d\n      eq\n      tag_4\n      jumpi\n      dup1\n      0x557ed1ba\n      eq\n      tag_5\n      jumpi\n      dup1\n      0x5952ffd1\n      eq\n      tag_6\n      jumpi\n    tag_2:\n      0x00\n      dup1\n      revert\n        /* \"Vesting Contract/version2.sol\":1342:2163  function lock(... */\n    tag_3:\n      tag_12\n      0x04\n      dup1\n      calldatasize\n      sub\n      dup2\n      add\n      swap1\n      tag_13\n      swap2\n      swap1\n      tag_14\n      jump\t// in\n    tag_13:\n      tag_15\n      jump\t// in\n    tag_12:\n      stop\n        /* \"Vesting Contract/version2.sol\":2165:2851  function withdraw(uint256 index) external {... */\n    tag_4:\n      tag_16\n      0x04\n      dup1\n      calldatasize\n      sub\n      dup2\n      add\n      swap1\n      tag_17\n      swap2\n      swap1\n      tag_18\n      jump\t// in\n    tag_17:\n      tag_19\n      jump\t// in\n    tag_16:\n      stop\n        /* \"Vesting Contract/version2.sol\":3328:3408  function getTime() public view returns (uint256) {... */\n    tag_5:\n      tag_20\n      tag_21\n      jump\t// in\n    tag_20:\n      mload(0x40)\n      tag_22\n      swap2\n      swap1\n      tag_23\n      jump\t// in\n    tag_22:\n      mload(0x40)\n      dup1\n      swap2\n      sub\n      swap1\n      return\n        /* \"Vesting Contract/version2.sol\":2853:3326  function calculate_available_withdraw_token(uint256 index) public view returns(uint256) {... */\n    tag_6:\n      tag_24\n      0x04\n      dup1\n      calldatasize\n      sub\n      dup2\n      add\n      swap1\n      tag_25\n      swap2\n      swap1\n      tag_18\n      jump\t// in\n    tag_25:\n      tag_26\n      jump\t// in\n    tag_24:\n      mload(0x40)\n      tag_27\n      swap2\n      swap1\n      tag_23\n      jump\t// in\n    tag_27:\n      mload(0x40)\n      dup1\n      swap2\n      sub\n      swap1\n      return\n        /* \"Vesting Contract/version2.sol\":579:620  mapping(address => bool) public whitelist */\n    tag_7:\n      tag_28\n      0x04\n      dup1\n      calldatasize\n      sub\n      dup2\n      add\n      swap1\n      tag_29\n      swap2\n      swap1\n      tag_30\n      jump\t// in\n    tag_29:\n      tag_31\n      jump\t// in\n    tag_28:\n      mload(0x40)\n      tag_32\n      swap2\n      swap1\n      tag_33\n      jump\t// in\n    tag_32:\n      mload(0x40)\n      dup1\n      swap2\n      sub\n      swap1\n      return\n        /* \"Vesting Contract/version2.sol\":524:577  mapping(address => VestingSchedule[]) public vestings */\n    tag_8:\n      tag_34\n      0x04\n      dup1\n      calldatasize\n      sub\n      dup2\n      add\n      swap1\n      tag_35\n      swap2\n      swap1\n      tag_36\n      jump\t// in\n    tag_35:\n      tag_37\n      jump\t// in\n    tag_34:\n      mload(0x40)\n      tag_38\n      swap10\n      swap9\n      swap8\n      swap7\n      swap6\n      swap5\n      swap4\n      swap3\n      swap2\n      swap1\n      tag_39\n      jump\t// in\n    tag_38:\n      mload(0x40)\n      dup1\n      swap2\n      sub\n      swap1\n      return\n        /* \"Vesting Contract/version2.sol\":740:822  function addWhitelist (address _add) public onlyOwner{... */\n    tag_9:\n      tag_40\n      0x04\n      dup1\n      calldatasize\n      sub\n      dup2\n      add\n      swap1\n      tag_41\n      swap2\n      swap1\n      tag_30\n      jump\t// in\n    tag_41:\n      tag_42\n      jump\t// in\n    tag_40:\n      stop\n        /* \"Vesting Contract/version2.sol\":133:151  ERC20 public token */\n    tag_10:\n      tag_43\n      tag_44\n      jump\t// in\n    tag_43:\n      mload(0x40)\n      tag_45\n      swap2\n      swap1\n      tag_46\n      jump\t// in\n    tag_45:\n      mload(0x40)\n      dup1\n      swap2\n      sub\n      swap1\n      return\n        /* \"Vesting Contract/version2.sol\":1342:2163  function lock(... */\n    tag_15:\n        /* \"Vesting Contract/version2.sol\":1522:1529  _amount */\n      dup6\n        /* \"Vesting Contract/version2.sol\":1531:1540  _duration */\n      dup6\n        /* \"Vesting Contract/version2.sol\":1542:1548  _cliff */\n      dup5\n        /* \"Vesting Contract/version2.sol\":1550:1564  addressOfToken */\n      dup4\n        /* \"Vesting Contract/version2.sol\":1153:1154  0 */\n      0x00\n        /* \"Vesting Contract/version2.sol\":1145:1152  _amount */\n      dup5\n        /* \"Vesting Contract/version2.sol\":1145:1154  _amount>0 */\n      gt\n        /* \"Vesting Contract/version2.sol\":1137:1176  require(_amount>0,\"Amount not be Zero\") */\n      tag_48\n      jumpi\n      mload(0x40)\n      0x08c379a000000000000000000000000000000000000000000000000000000000\n      dup2\n      mstore\n      0x04\n      add\n      tag_49\n      swap1\n      tag_50\n      jump\t// in\n    tag_49:\n      mload(0x40)\n      dup1\n      swap2\n      sub\n      swap1\n      revert\n    tag_48:\n        /* \"Vesting Contract/version2.sol\":1190:1199  whitelist */\n      0x04\n        /* \"Vesting Contract/version2.sol\":1190:1215  whitelist[addressOfToken] */\n      0x00\n        /* \"Vesting Contract/version2.sol\":1200:1214  addressOfToken */\n      dup3\n        /* \"Vesting Contract/version2.sol\":1190:1215  whitelist[addressOfToken] */\n      0xffffffffffffffffffffffffffffffffffffffff\n      and\n      0xffffffffffffffffffffffffffffffffffffffff\n      and\n      dup2\n      mstore\n      0x20\n      add\n      swap1\n      dup2\n      mstore\n      0x20\n      add\n      0x00\n      keccak256\n      0x00\n      swap1\n      sload\n      swap1\n      0x0100\n      exp\n      swap1\n      div\n      0xff\n      and\n        /* \"Vesting Contract/version2.sol\":1182:1261  require(whitelist[addressOfToken], \"You are not allowed to use this contract.\") */\n      tag_51\n      jumpi\n      mload(0x40)\n      0x08c379a000000000000000000000000000000000000000000000000000000000\n      dup2\n      mstore\n      0x04\n      add\n      tag_52\n      swap1\n      tag_53\n      jump\t// in\n    tag_52:\n      mload(0x40)\n      dup1\n      swap2\n      sub\n      swap1\n      revert\n    tag_51:\n        /* \"Vesting Contract/version2.sol\":1284:1293  _duration */\n      dup3\n        /* \"Vesting Contract/version2.sol\":1275:1281  _cliff */\n      dup3\n        /* \"Vesting Contract/version2.sol\":1275:1293  _cliff < _duration */\n      0xff\n      and\n      lt\n        /* \"Vesting Contract/version2.sol\":1267:1330  require(_cliff < _duration, \"Cliff must me less than duration\") */\n      tag_54\n      jumpi\n      mload(0x40)\n      0x08c379a000000000000000000000000000000000000000000000000000000000\n      dup2\n      mstore\n      0x04\n      add\n      tag_55\n      swap1\n      tag_56\n      jump\t// in\n    tag_55:\n      mload(0x40)\n      dup1\n      swap2\n      sub\n      swap1\n      revert\n    tag_54:\n        /* \"Vesting Contract/version2.sol\":1575:1608  VestingSchedule memory newVesting */\n      0x00\n        /* \"Vesting Contract/version2.sol\":1611:1925  VestingSchedule({... */\n      mload(0x40)\n      dup1\n      0x0120\n      add\n      0x40\n      mstore\n      dup1\n        /* \"Vesting Contract/version2.sol\":1645:1652  _amount */\n      dup13\n        /* \"Vesting Contract/version2.sol\":1611:1925  VestingSchedule({... */\n      dup2\n      mstore\n      0x20\n      add\n        /* \"Vesting Contract/version2.sol\":1692:1707  block.timestamp */\n      timestamp\n        /* \"Vesting Contract/version2.sol\":1611:1925  VestingSchedule({... */\n      dup2\n      mstore\n      0x20\n      add\n        /* \"Vesting Contract/version2.sol\":1727:1736  _duration */\n      dup12\n        /* \"Vesting Contract/version2.sol\":1611:1925  VestingSchedule({... */\n      dup2\n      mstore\n      0x20\n      add\n        /* \"Vesting Contract/version2.sol\":1754:1758  true */\n      0x01\n        /* \"Vesting Contract/version2.sol\":1611:1925  VestingSchedule({... */\n      iszero\n      iszero\n      dup2\n      mstore\n      0x20\n      add\n        /* \"Vesting Contract/version2.sol\":1782:1795  _slice_period */\n      dup11\n        /* \"Vesting Contract/version2.sol\":1611:1925  VestingSchedule({... */\n      0xff\n      and\n      dup2\n      mstore\n      0x20\n      add\n        /* \"Vesting Contract/version2.sol\":1669:1675  _cliff */\n      dup10\n        /* \"Vesting Contract/version2.sol\":1611:1925  VestingSchedule({... */\n      0xff\n      and\n      dup2\n      mstore\n      0x20\n      add\n        /* \"Vesting Contract/version2.sol\":1892:1901  _duration */\n      dup12\n        /* \"Vesting Contract/version2.sol\":1881:1888  _amount */\n      dup14\n        /* \"Vesting Contract/version2.sol\":1865:1878  _slice_period */\n      dup13\n        /* \"Vesting Contract/version2.sol\":1865:1888  _slice_period * _amount */\n      0xff\n      and\n      tag_58\n      swap2\n      swap1\n      tag_59\n      jump\t// in\n    tag_58:\n        /* \"Vesting Contract/version2.sol\":1864:1901  (_slice_period * _amount) / _duration */\n      tag_60\n      swap2\n      swap1\n      tag_61\n      jump\t// in\n    tag_60:\n        /* \"Vesting Contract/version2.sol\":1611:1925  VestingSchedule({... */\n      dup2\n      mstore\n      0x20\n      add\n        /* \"Vesting Contract/version2.sol\":1820:1834  _beneficiaries */\n      dup9\n        /* \"Vesting Contract/version2.sol\":1611:1925  VestingSchedule({... */\n      0xffffffffffffffffffffffffffffffffffffffff\n      and\n      dup2\n      mstore\n      0x20\n      add\n        /* \"Vesting Contract/version2.sol\":1917:1918  0 */\n      0x00\n        /* \"Vesting Contract/version2.sol\":1611:1925  VestingSchedule({... */\n      dup2\n      mstore\n      pop\n        /* \"Vesting Contract/version2.sol\":1575:1925  VestingSchedule memory newVesting = VestingSchedule({... */\n      swap1\n      pop\n        /* \"Vesting Contract/version2.sol\":1931:1939  vestings */\n      0x03\n        /* \"Vesting Contract/version2.sol\":1931:1951  vestings[msg.sender] */\n      0x00\n        /* \"Vesting Contract/version2.sol\":1940:1950  msg.sender */\n      caller\n        /* \"Vesting Contract/version2.sol\":1931:1951  vestings[msg.sender] */\n      0xffffffffffffffffffffffffffffffffffffffff\n      and\n      0xffffffffffffffffffffffffffffffffffffffff\n      and\n      dup2\n      mstore\n      0x20\n      add\n      swap1\n      dup2\n      mstore\n      0x20\n      add\n      0x00\n      keccak256\n        /* \"Vesting Contract/version2.sol\":1957:1967  newVesting */\n      dup2\n        /* \"Vesting Contract/version2.sol\":1931:1968  vestings[msg.sender].push(newVesting) */\n      swap1\n      dup1\n      0x01\n      dup2\n      sload\n      add\n      dup1\n      dup3\n      sstore\n      dup1\n      swap2\n      pop\n      pop\n      0x01\n      swap1\n      sub\n      swap1\n      0x00\n      mstore\n      keccak256(0x00, 0x20)\n      swap1\n      0x07\n      mul\n      add\n      0x00\n      swap1\n      swap2\n      swap1\n      swap2\n      swap1\n      swap2\n      pop\n      0x00\n      dup3\n      add\n      mload\n      dup2\n      0x00\n      add\n      sstore\n      0x20\n      dup3\n      add\n      mload\n      dup2\n      0x01\n      add\n      sstore\n      0x40\n      dup3\n      add\n      mload\n      dup2\n      0x02\n      add\n      sstore\n      0x60\n      dup3\n      add\n      mload\n      dup2\n      0x03\n      add\n      exp(0x0100, 0x00)\n      dup2\n      sload\n      dup2\n      0xff\n      mul\n      not\n      and\n      swap1\n      dup4\n      iszero\n      iszero\n      mul\n      or\n      swap1\n      sstore\n      pop\n      0x80\n      dup3\n      add\n      mload\n      dup2\n      0x03\n      add\n      exp(0x0100, 0x01)\n      dup2\n      sload\n      dup2\n      0xff\n      mul\n      not\n      and\n      swap1\n      dup4\n      0xff\n      and\n      mul\n      or\n      swap1\n      sstore\n      pop\n      0xa0\n      dup3\n      add\n      mload\n      dup2\n      0x03\n      add\n      exp(0x0100, 0x02)\n      dup2\n      sload\n      dup2\n      0xff\n      mul\n      not\n      and\n      swap1\n      dup4\n      0xff\n      and\n      mul\n      or\n      swap1\n      sstore\n      pop\n      0xc0\n      dup3\n      add\n      mload\n      dup2\n      0x04\n      add\n      sstore\n      0xe0\n      dup3\n      add\n      mload\n      dup2\n      0x05\n      add\n      exp(0x0100, 0x00)\n      dup2\n      sload\n      dup2\n      0xffffffffffffffffffffffffffffffffffffffff\n      mul\n      not\n      and\n      swap1\n      dup4\n      0xffffffffffffffffffffffffffffffffffffffff\n      and\n      mul\n      or\n      swap1\n      sstore\n      pop\n      0x0100\n      dup3\n      add\n      mload\n      dup2\n      0x06\n      add\n      sstore\n      pop\n      pop\n        /* \"Vesting Contract/version2.sol\":1988:2002  addressOfToken */\n      dup6\n        /* \"Vesting Contract/version2.sol\":1974:1979  token */\n      0x00\n      dup1\n        /* \"Vesting Contract/version2.sol\":1974:2003  token = ERC20(addressOfToken) */\n      0x0100\n      exp\n      dup2\n      sload\n      dup2\n      0xffffffffffffffffffffffffffffffffffffffff\n      mul\n      not\n      and\n      swap1\n      dup4\n      0xffffffffffffffffffffffffffffffffffffffff\n      and\n      mul\n      or\n      swap1\n      sstore\n      pop\n        /* \"Vesting Contract/version2.sol\":2009:2014  token */\n      0x00\n      dup1\n      sload\n      swap1\n      0x0100\n      exp\n      swap1\n      div\n      0xffffffffffffffffffffffffffffffffffffffff\n      and\n        /* \"Vesting Contract/version2.sol\":2009:2027  token.transferFrom */\n      0xffffffffffffffffffffffffffffffffffffffff\n      and\n      0x23b872dd\n        /* \"Vesting Contract/version2.sol\":2028:2038  msg.sender */\n      caller\n        /* \"Vesting Contract/version2.sol\":2048:2052  this */\n      address\n        /* \"Vesting Contract/version2.sol\":2055:2062  _amount */\n      dup15\n        /* \"Vesting Contract/version2.sol\":2009:2063  token.transferFrom(msg.sender, address(this), _amount) */\n      mload(0x40)\n      dup5\n      0xffffffff\n      and\n      0xe0\n      shl\n      dup2\n      mstore\n      0x04\n      add\n      tag_63\n      swap4\n      swap3\n      swap2\n      swap1\n      tag_64\n      jump\t// in\n    tag_63:\n      0x20\n      mload(0x40)\n      dup1\n      dup4\n      sub\n      dup2\n      0x00\n      dup8\n      gas\n      call\n      iszero\n      dup1\n      iszero\n      tag_66\n      jumpi\n      returndatasize\n      0x00\n      dup1\n      returndatacopy\n      revert(0x00, returndatasize)\n    tag_66:\n      pop\n      pop\n      pop\n      pop\n      mload(0x40)\n      returndatasize\n      not(0x1f)\n      0x1f\n      dup3\n      add\n      and\n      dup3\n      add\n      dup1\n      0x40\n      mstore\n      pop\n      dup2\n      add\n      swap1\n      tag_67\n      swap2\n      swap1\n      tag_68\n      jump\t// in\n    tag_67:\n      pop\n        /* \"Vesting Contract/version2.sol\":2075:2160  VestingLocked(msg.sender, _amount, _duration, _slice_period, block.timestamp, _cliff) */\n      0xb2e88791d817c746d5e5fe14d588911bb8e67f1fe02d38cf2ed5c01d9ac07a07\n        /* \"Vesting Contract/version2.sol\":2089:2099  msg.sender */\n      caller\n        /* \"Vesting Contract/version2.sol\":2101:2108  _amount */\n      dup13\n        /* \"Vesting Contract/version2.sol\":2110:2119  _duration */\n      dup13\n        /* \"Vesting Contract/version2.sol\":2121:2134  _slice_period */\n      dup13\n        /* \"Vesting Contract/version2.sol\":2136:2151  block.timestamp */\n      timestamp\n        /* \"Vesting Contract/version2.sol\":2153:2159  _cliff */\n      dup14\n        /* \"Vesting Contract/version2.sol\":2075:2160  VestingLocked(msg.sender, _amount, _duration, _slice_period, block.timestamp, _cliff) */\n      mload(0x40)\n      tag_69\n      swap7\n      swap6\n      swap5\n      swap4\n      swap3\n      swap2\n      swap1\n      tag_70\n      jump\t// in\n    tag_69:\n      mload(0x40)\n      dup1\n      swap2\n      sub\n      swap1\n      log1\n        /* \"Vesting Contract/version2.sol\":1565:2163  {... */\n      pop\n        /* \"Vesting Contract/version2.sol\":1342:2163  function lock(... */\n      pop\n      pop\n      pop\n      pop\n      pop\n      pop\n      pop\n      pop\n      pop\n      pop\n      jump\t// out\n        /* \"Vesting Contract/version2.sol\":2165:2851  function withdraw(uint256 index) external {... */\n    tag_19:\n        /* \"Vesting Contract/version2.sol\":2213:2244  VestingSchedule storage vesting */\n      0x00\n        /* \"Vesting Contract/version2.sol\":2247:2255  vestings */\n      0x03\n        /* \"Vesting Contract/version2.sol\":2247:2267  vestings[msg.sender] */\n      0x00\n        /* \"Vesting Contract/version2.sol\":2256:2266  msg.sender */\n      caller\n        /* \"Vesting Contract/version2.sol\":2247:2267  vestings[msg.sender] */\n      0xffffffffffffffffffffffffffffffffffffffff\n      and\n      0xffffffffffffffffffffffffffffffffffffffff\n      and\n      dup2\n      mstore\n      0x20\n      add\n      swap1\n      dup2\n      mstore\n      0x20\n      add\n      0x00\n      keccak256\n        /* \"Vesting Contract/version2.sol\":2268:2273  index */\n      dup3\n        /* \"Vesting Contract/version2.sol\":2247:2274  vestings[msg.sender][index] */\n      dup2\n      sload\n      dup2\n      lt\n      tag_72\n      jumpi\n      tag_73\n      tag_74\n      jump\t// in\n    tag_73:\n    tag_72:\n      swap1\n      0x00\n      mstore\n      keccak256(0x00, 0x20)\n      swap1\n      0x07\n      mul\n      add\n        /* \"Vesting Contract/version2.sol\":2213:2274  VestingSchedule storage vesting = vestings[msg.sender][index] */\n      swap1\n      pop\n        /* \"Vesting Contract/version2.sol\":2288:2295  vesting */\n      dup1\n        /* \"Vesting Contract/version2.sol\":2288:2302  vesting.locked */\n      0x03\n      add\n      0x00\n      swap1\n      sload\n      swap1\n      0x0100\n      exp\n      swap1\n      div\n      0xff\n      and\n        /* \"Vesting Contract/version2.sol\":2280:2333  require(vesting.locked, \"Funds have not been locked\") */\n      tag_76\n      jumpi\n      mload(0x40)\n      0x08c379a000000000000000000000000000000000000000000000000000000000\n      dup2\n      mstore\n      0x04\n      add\n      tag_77\n      swap1\n      tag_78\n      jump\t// in\n    tag_77:\n      mload(0x40)\n      dup1\n      swap2\n      sub\n      swap1\n      revert\n    tag_76:\n        /* \"Vesting Contract/version2.sol\":2359:2366  vesting */\n      dup1\n        /* \"Vesting Contract/version2.sol\":2359:2372  vesting.start */\n      0x01\n      add\n      sload\n        /* \"Vesting Contract/version2.sol\":2347:2356  getTime() */\n      tag_79\n        /* \"Vesting Contract/version2.sol\":2347:2354  getTime */\n      tag_21\n        /* \"Vesting Contract/version2.sol\":2347:2356  getTime() */\n      jump\t// in\n    tag_79:\n        /* \"Vesting Contract/version2.sol\":2347:2372  getTime() > vesting.start */\n      gt\n        /* \"Vesting Contract/version2.sol\":2339:2410  require(getTime() > vesting.start, \"Token under locking please wait..\") */\n      tag_80\n      jumpi\n      mload(0x40)\n      0x08c379a000000000000000000000000000000000000000000000000000000000\n      dup2\n      mstore\n      0x04\n      add\n      tag_81\n      swap1\n      tag_82\n      jump\t// in\n    tag_81:\n      mload(0x40)\n      dup1\n      swap2\n      sub\n      swap1\n      revert\n    tag_80:\n        /* \"Vesting Contract/version2.sol\":2455:2464  getTime() */\n      tag_83\n        /* \"Vesting Contract/version2.sol\":2455:2462  getTime */\n      tag_21\n        /* \"Vesting Contract/version2.sol\":2455:2464  getTime() */\n      jump\t// in\n    tag_83:\n        /* \"Vesting Contract/version2.sol\":2439:2446  vesting */\n      dup2\n        /* \"Vesting Contract/version2.sol\":2439:2452  vesting.start */\n      0x01\n      add\n      sload\n        /* \"Vesting Contract/version2.sol\":2425:2432  vesting */\n      dup3\n        /* \"Vesting Contract/version2.sol\":2425:2438  vesting.cliff */\n      0x03\n      add\n      0x02\n      swap1\n      sload\n      swap1\n      0x0100\n      exp\n      swap1\n      div\n      0xff\n      and\n        /* \"Vesting Contract/version2.sol\":2425:2452  vesting.cliff+vesting.start */\n      0xff\n      and\n      tag_84\n      swap2\n      swap1\n      tag_85\n      jump\t// in\n    tag_84:\n        /* \"Vesting Contract/version2.sol\":2424:2464  (vesting.cliff+vesting.start)< getTime() */\n      lt\n        /* \"Vesting Contract/version2.sol\":2416:2491  require((vesting.cliff+vesting.start)< getTime(),\"Cliff is not ended yet.\") */\n      tag_86\n      jumpi\n      mload(0x40)\n      0x08c379a000000000000000000000000000000000000000000000000000000000\n      dup2\n      mstore\n      0x04\n      add\n      tag_87\n      swap1\n      tag_88\n      jump\t// in\n    tag_87:\n      mload(0x40)\n      dup1\n      swap2\n      sub\n      swap1\n      revert\n    tag_86:\n        /* \"Vesting Contract/version2.sol\":2497:2514  uint withdrawable */\n      0x00\n        /* \"Vesting Contract/version2.sol\":2517:2558  calculate_available_withdraw_token(index) */\n      tag_89\n        /* \"Vesting Contract/version2.sol\":2552:2557  index */\n      dup4\n        /* \"Vesting Contract/version2.sol\":2517:2551  calculate_available_withdraw_token */\n      tag_26\n        /* \"Vesting Contract/version2.sol\":2517:2558  calculate_available_withdraw_token(index) */\n      jump\t// in\n    tag_89:\n        /* \"Vesting Contract/version2.sol\":2497:2558  uint withdrawable = calculate_available_withdraw_token(index) */\n      swap1\n      pop\n        /* \"Vesting Contract/version2.sol\":2587:2588  0 */\n      0x00\n        /* \"Vesting Contract/version2.sol\":2572:2584  withdrawable */\n      dup2\n        /* \"Vesting Contract/version2.sol\":2572:2588  withdrawable > 0 */\n      gt\n        /* \"Vesting Contract/version2.sol\":2564:2624  require(withdrawable > 0 , \"Not enough amount for withdraw\") */\n      tag_90\n      jumpi\n      mload(0x40)\n      0x08c379a000000000000000000000000000000000000000000000000000000000\n      dup2\n      mstore\n      0x04\n      add\n      tag_91\n      swap1\n      tag_92\n      jump\t// in\n    tag_91:\n      mload(0x40)\n      dup1\n      swap2\n      sub\n      swap1\n      revert\n    tag_90:\n        /* \"Vesting Contract/version2.sol\":2630:2635  token */\n      0x00\n      dup1\n      sload\n      swap1\n      0x0100\n      exp\n      swap1\n      div\n      0xffffffffffffffffffffffffffffffffffffffff\n      and\n        /* \"Vesting Contract/version2.sol\":2630:2644  token.transfer */\n      0xffffffffffffffffffffffffffffffffffffffff\n      and\n      0xa9059cbb\n        /* \"Vesting Contract/version2.sol\":2645:2655  msg.sender */\n      caller\n        /* \"Vesting Contract/version2.sol\":2657:2669  withdrawable */\n      dup4\n        /* \"Vesting Contract/version2.sol\":2630:2670  token.transfer(msg.sender, withdrawable) */\n      mload(0x40)\n      dup4\n      0xffffffff\n      and\n      0xe0\n      shl\n      dup2\n      mstore\n      0x04\n      add\n      tag_93\n      swap3\n      swap2\n      swap1\n      tag_94\n      jump\t// in\n    tag_93:\n      0x20\n      mload(0x40)\n      dup1\n      dup4\n      sub\n      dup2\n      0x00\n      dup8\n      gas\n      call\n      iszero\n      dup1\n      iszero\n      tag_96\n      jumpi\n      returndatasize\n      0x00\n      dup1\n      returndatacopy\n      revert(0x00, returndatasize)\n    tag_96:\n      pop\n      pop\n      pop\n      pop\n      mload(0x40)\n      returndatasize\n      not(0x1f)\n      0x1f\n      dup3\n      add\n      and\n      dup3\n      add\n      dup1\n      0x40\n      mstore\n      pop\n      dup2\n      add\n      swap1\n      tag_97\n      swap2\n      swap1\n      tag_68\n      jump\t// in\n    tag_97:\n      pop\n        /* \"Vesting Contract/version2.sol\":2692:2704  withdrawable */\n      dup1\n        /* \"Vesting Contract/version2.sol\":2676:2683  vesting */\n      dup3\n        /* \"Vesting Contract/version2.sol\":2676:2688  vesting.temp */\n      0x06\n      add\n      0x00\n        /* \"Vesting Contract/version2.sol\":2676:2704  vesting.temp += withdrawable */\n      dup3\n      dup3\n      sload\n      tag_98\n      swap2\n      swap1\n      tag_85\n      jump\t// in\n    tag_98:\n      swap3\n      pop\n      pop\n      dup2\n      swap1\n      sstore\n      pop\n        /* \"Vesting Contract/version2.sol\":2728:2740  withdrawable */\n      dup1\n        /* \"Vesting Contract/version2.sol\":2710:2717  vesting */\n      dup3\n        /* \"Vesting Contract/version2.sol\":2710:2724  vesting.amount */\n      0x00\n      add\n      0x00\n        /* \"Vesting Contract/version2.sol\":2710:2740  vesting.amount -= withdrawable */\n      dup3\n      dup3\n      sload\n      tag_99\n      swap2\n      swap1\n      tag_100\n      jump\t// in\n    tag_99:\n      swap3\n      pop\n      pop\n      dup2\n      swap1\n      sstore\n      pop\n        /* \"Vesting Contract/version2.sol\":2765:2766  0 */\n      0x00\n        /* \"Vesting Contract/version2.sol\":2749:2756  vesting */\n      dup3\n        /* \"Vesting Contract/version2.sol\":2749:2763  vesting.amount */\n      0x00\n      add\n      sload\n        /* \"Vesting Contract/version2.sol\":2749:2766  vesting.amount==0 */\n      sub\n        /* \"Vesting Contract/version2.sol\":2746:2787  if(vesting.amount==0)vesting.locked=false */\n      tag_101\n      jumpi\n        /* \"Vesting Contract/version2.sol\":2782:2787  false */\n      0x00\n        /* \"Vesting Contract/version2.sol\":2767:2774  vesting */\n      dup3\n        /* \"Vesting Contract/version2.sol\":2767:2781  vesting.locked */\n      0x03\n      add\n      0x00\n        /* \"Vesting Contract/version2.sol\":2767:2787  vesting.locked=false */\n      0x0100\n      exp\n      dup2\n      sload\n      dup2\n      0xff\n      mul\n      not\n      and\n      swap1\n      dup4\n      iszero\n      iszero\n      mul\n      or\n      swap1\n      sstore\n      pop\n        /* \"Vesting Contract/version2.sol\":2746:2787  if(vesting.amount==0)vesting.locked=false */\n    tag_101:\n        /* \"Vesting Contract/version2.sol\":2799:2848  VestingWithdrawn(msg.sender, index, withdrawable) */\n      0xccdb21e8b29fbf756f29d5f05c72606ca9e8160ec1a135ca6f50dae471188cec\n        /* \"Vesting Contract/version2.sol\":2816:2826  msg.sender */\n      caller\n        /* \"Vesting Contract/version2.sol\":2828:2833  index */\n      dup5\n        /* \"Vesting Contract/version2.sol\":2835:2847  withdrawable */\n      dup4\n        /* \"Vesting Contract/version2.sol\":2799:2848  VestingWithdrawn(msg.sender, index, withdrawable) */\n      mload(0x40)\n      tag_102\n      swap4\n      swap3\n      swap2\n      swap1\n      tag_103\n      jump\t// in\n    tag_102:\n      mload(0x40)\n      dup1\n      swap2\n      sub\n      swap1\n      log1\n        /* \"Vesting Contract/version2.sol\":2207:2851  {... */\n      pop\n      pop\n        /* \"Vesting Contract/version2.sol\":2165:2851  function withdraw(uint256 index) external {... */\n      pop\n      jump\t// out\n        /* \"Vesting Contract/version2.sol\":3328:3408  function getTime() public view returns (uint256) {... */\n    tag_21:\n        /* \"Vesting Contract/version2.sol\":3368:3375  uint256 */\n      0x00\n        /* \"Vesting Contract/version2.sol\":3390:3405  block.timestamp */\n      timestamp\n        /* \"Vesting Contract/version2.sol\":3383:3405  return block.timestamp */\n      swap1\n      pop\n        /* \"Vesting Contract/version2.sol\":3328:3408  function getTime() public view returns (uint256) {... */\n      swap1\n      jump\t// out\n        /* \"Vesting Contract/version2.sol\":2853:3326  function calculate_available_withdraw_token(uint256 index) public view returns(uint256) {... */\n    tag_26:\n        /* \"Vesting Contract/version2.sol\":2932:2939  uint256 */\n      0x00\n        /* \"Vesting Contract/version2.sol\":2947:2978  VestingSchedule storage vesting */\n      dup1\n        /* \"Vesting Contract/version2.sol\":2981:2989  vestings */\n      0x03\n        /* \"Vesting Contract/version2.sol\":2981:3001  vestings[msg.sender] */\n      0x00\n        /* \"Vesting Contract/version2.sol\":2990:3000  msg.sender */\n      caller\n        /* \"Vesting Contract/version2.sol\":2981:3001  vestings[msg.sender] */\n      0xffffffffffffffffffffffffffffffffffffffff\n      and\n      0xffffffffffffffffffffffffffffffffffffffff\n      and\n      dup2\n      mstore\n      0x20\n      add\n      swap1\n      dup2\n      mstore\n      0x20\n      add\n      0x00\n      keccak256\n        /* \"Vesting Contract/version2.sol\":3002:3007  index */\n      dup4\n        /* \"Vesting Contract/version2.sol\":2981:3008  vestings[msg.sender][index] */\n      dup2\n      sload\n      dup2\n      lt\n      tag_106\n      jumpi\n      tag_107\n      tag_74\n      jump\t// in\n    tag_107:\n    tag_106:\n      swap1\n      0x00\n      mstore\n      keccak256(0x00, 0x20)\n      swap1\n      0x07\n      mul\n      add\n        /* \"Vesting Contract/version2.sol\":2947:3008  VestingSchedule storage vesting = vestings[msg.sender][index] */\n      swap1\n      pop\n        /* \"Vesting Contract/version2.sol\":3014:3039  uint256 total_slice_count */\n      0x00\n        /* \"Vesting Contract/version2.sol\":3072:3079  vesting */\n      dup2\n        /* \"Vesting Contract/version2.sol\":3072:3092  vesting.slice_period */\n      0x03\n      add\n      0x01\n      swap1\n      sload\n      swap1\n      0x0100\n      exp\n      swap1\n      div\n      0xff\n      and\n        /* \"Vesting Contract/version2.sol\":3042:3092  (getTime() - vesting.start) / vesting.slice_period */\n      0xff\n      and\n        /* \"Vesting Contract/version2.sol\":3055:3062  vesting */\n      dup3\n        /* \"Vesting Contract/version2.sol\":3055:3068  vesting.start */\n      0x01\n      add\n      sload\n        /* \"Vesting Contract/version2.sol\":3043:3052  getTime() */\n      tag_109\n        /* \"Vesting Contract/version2.sol\":3043:3050  getTime */\n      tag_21\n        /* \"Vesting Contract/version2.sol\":3043:3052  getTime() */\n      jump\t// in\n    tag_109:\n        /* \"Vesting Contract/version2.sol\":3043:3068  getTime() - vesting.start */\n      tag_110\n      swap2\n      swap1\n      tag_100\n      jump\t// in\n    tag_110:\n        /* \"Vesting Contract/version2.sol\":3042:3092  (getTime() - vesting.start) / vesting.slice_period */\n      tag_111\n      swap2\n      swap1\n      tag_61\n      jump\t// in\n    tag_111:\n        /* \"Vesting Contract/version2.sol\":3014:3092  uint256 total_slice_count = (getTime() - vesting.start) / vesting.slice_period */\n      swap1\n      pop\n        /* \"Vesting Contract/version2.sol\":3098:3124  uint256 total_mul_withdraw */\n      0x00\n        /* \"Vesting Contract/version2.sol\":3178:3185  vesting */\n      dup3\n        /* \"Vesting Contract/version2.sol\":3178:3190  vesting.temp */\n      0x06\n      add\n      sload\n        /* \"Vesting Contract/version2.sol\":3148:3155  vesting */\n      dup4\n        /* \"Vesting Contract/version2.sol\":3148:3174  vesting.recive_on_interval */\n      0x04\n      add\n      sload\n        /* \"Vesting Contract/version2.sol\":3128:3145  total_slice_count */\n      dup4\n        /* \"Vesting Contract/version2.sol\":3128:3174  total_slice_count * vesting.recive_on_interval */\n      tag_112\n      swap2\n      swap1\n      tag_59\n      jump\t// in\n    tag_112:\n        /* \"Vesting Contract/version2.sol\":3127:3190  (total_slice_count * vesting.recive_on_interval) - vesting.temp */\n      tag_113\n      swap2\n      swap1\n      tag_100\n      jump\t// in\n    tag_113:\n        /* \"Vesting Contract/version2.sol\":3098:3190  uint256 total_mul_withdraw = (total_slice_count * vesting.recive_on_interval) - vesting.temp */\n      swap1\n      pop\n        /* \"Vesting Contract/version2.sol\":3220:3227  vesting */\n      dup3\n        /* \"Vesting Contract/version2.sol\":3220:3234  vesting.amount */\n      0x00\n      add\n      sload\n        /* \"Vesting Contract/version2.sol\":3199:3217  total_mul_withdraw */\n      dup2\n        /* \"Vesting Contract/version2.sol\":3199:3234  total_mul_withdraw < vesting.amount */\n      lt\n        /* \"Vesting Contract/version2.sol\":3196:3324  if(total_mul_withdraw < vesting.amount){... */\n      iszero\n      tag_114\n      jumpi\n        /* \"Vesting Contract/version2.sol\":3252:3270  total_mul_withdraw */\n      dup1\n        /* \"Vesting Contract/version2.sol\":3245:3270  return total_mul_withdraw */\n      swap4\n      pop\n      pop\n      pop\n      pop\n      jump(tag_105)\n        /* \"Vesting Contract/version2.sol\":3196:3324  if(total_mul_withdraw < vesting.amount){... */\n    tag_114:\n        /* \"Vesting Contract/version2.sol\":3303:3310  vesting */\n      dup3\n        /* \"Vesting Contract/version2.sol\":3303:3317  vesting.amount */\n      0x00\n      add\n      sload\n        /* \"Vesting Contract/version2.sol\":3296:3317  return vesting.amount */\n      swap4\n      pop\n      pop\n      pop\n      pop\n        /* \"Vesting Contract/version2.sol\":2853:3326  function calculate_available_withdraw_token(uint256 index) public view returns(uint256) {... */\n    tag_105:\n      swap2\n      swap1\n      pop\n      jump\t// out\n        /* \"Vesting Contract/version2.sol\":579:620  mapping(address => bool) public whitelist */\n    tag_31:\n      mstore(0x20, 0x04)\n      dup1\n      0x00\n      mstore\n      keccak256(0x00, 0x40)\n      0x00\n      swap2\n      pop\n      sload\n      swap1\n      0x0100\n      exp\n      swap1\n      div\n      0xff\n      and\n      dup2\n      jump\t// out\n        /* \"Vesting Contract/version2.sol\":524:577  mapping(address => VestingSchedule[]) public vestings */\n    tag_37:\n      mstore(0x20, 0x03)\n      dup2\n      0x00\n      mstore\n      keccak256(0x00, 0x40)\n      dup2\n      dup2\n      sload\n      dup2\n      lt\n      tag_116\n      jumpi\n      0x00\n      dup1\n      revert\n    tag_116:\n      swap1\n      0x00\n      mstore\n      keccak256(0x00, 0x20)\n      swap1\n      0x07\n      mul\n      add\n      0x00\n      swap2\n      pop\n      swap2\n      pop\n      pop\n      dup1\n      0x00\n      add\n      sload\n      swap1\n      dup1\n      0x01\n      add\n      sload\n      swap1\n      dup1\n      0x02\n      add\n      sload\n      swap1\n      dup1\n      0x03\n      add\n      0x00\n      swap1\n      sload\n      swap1\n      0x0100\n      exp\n      swap1\n      div\n      0xff\n      and\n      swap1\n      dup1\n      0x03\n      add\n      0x01\n      swap1\n      sload\n      swap1\n      0x0100\n      exp\n      swap1\n      div\n      0xff\n      and\n      swap1\n      dup1\n      0x03\n      add\n      0x02\n      swap1\n      sload\n      swap1\n      0x0100\n      exp\n      swap1\n      div\n      0xff\n      and\n      swap1\n      dup1\n      0x04\n      add\n      sload\n      swap1\n      dup1\n      0x05\n      add\n      0x00\n      swap1\n      sload\n      swap1\n      0x0100\n      exp\n      swap1\n      div\n      0xffffffffffffffffffffffffffffffffffffffff\n      and\n      swap1\n      dup1\n      0x06\n      add\n      sload\n      swap1\n      pop\n      dup10\n      jump\t// out\n        /* \"Vesting Contract/version2.sol\":740:822  function addWhitelist (address _add) public onlyOwner{... */\n    tag_42:\n        /* \"Vesting Contract/version2.sol\":672:677  owner */\n      0x01\n      0x00\n      swap1\n      sload\n      swap1\n      0x0100\n      exp\n      swap1\n      div\n      0xffffffffffffffffffffffffffffffffffffffff\n      and\n        /* \"Vesting Contract/version2.sol\":658:677  msg.sender == owner */\n      0xffffffffffffffffffffffffffffffffffffffff\n      and\n        /* \"Vesting Contract/version2.sol\":658:668  msg.sender */\n      caller\n        /* \"Vesting Contract/version2.sol\":658:677  msg.sender == owner */\n      0xffffffffffffffffffffffffffffffffffffffff\n      and\n      eq\n        /* \"Vesting Contract/version2.sol\":650:729  require(msg.sender == owner , \"Only the contract owner can call this function\") */\n      tag_119\n      jumpi\n      mload(0x40)\n      0x08c379a000000000000000000000000000000000000000000000000000000000\n      dup2\n      mstore\n      0x04\n      add\n      tag_120\n      swap1\n      tag_121\n      jump\t// in\n    tag_120:\n      mload(0x40)\n      dup1\n      swap2\n      sub\n      swap1\n      revert\n    tag_119:\n        /* \"Vesting Contract/version2.sol\":815:819  true */\n      0x01\n        /* \"Vesting Contract/version2.sol\":799:808  whitelist */\n      0x04\n        /* \"Vesting Contract/version2.sol\":799:814  whitelist[_add] */\n      0x00\n        /* \"Vesting Contract/version2.sol\":809:813  _add */\n      dup4\n        /* \"Vesting Contract/version2.sol\":799:814  whitelist[_add] */\n      0xffffffffffffffffffffffffffffffffffffffff\n      and\n      0xffffffffffffffffffffffffffffffffffffffff\n      and\n      dup2\n      mstore\n      0x20\n      add\n      swap1\n      dup2\n      mstore\n      0x20\n      add\n      0x00\n      keccak256\n      0x00\n        /* \"Vesting Contract/version2.sol\":799:819  whitelist[_add]=true */\n      0x0100\n      exp\n      dup2\n      sload\n      dup2\n      0xff\n      mul\n      not\n      and\n      swap1\n      dup4\n      iszero\n      iszero\n      mul\n      or\n      swap1\n      sstore\n      pop\n        /* \"Vesting Contract/version2.sol\":740:822  function addWhitelist (address _add) public onlyOwner{... */\n      pop\n      jump\t// out\n        /* \"Vesting Contract/version2.sol\":133:151  ERC20 public token */\n    tag_44:\n      0x00\n      dup1\n      sload\n      swap1\n      0x0100\n      exp\n      swap1\n      div\n      0xffffffffffffffffffffffffffffffffffffffff\n      and\n      dup2\n      jump\t// out\n        /* \"#utility.yul\":88:205   */\n    tag_124:\n        /* \"#utility.yul\":197:198   */\n      0x00\n        /* \"#utility.yul\":194:195   */\n      dup1\n        /* \"#utility.yul\":187:199   */\n      revert\n        /* \"#utility.yul\":334:411   */\n    tag_126:\n        /* \"#utility.yul\":371:378   */\n      0x00\n        /* \"#utility.yul\":400:405   */\n      dup2\n        /* \"#utility.yul\":389:405   */\n      swap1\n      pop\n        /* \"#utility.yul\":334:411   */\n      swap2\n      swap1\n      pop\n      jump\t// out\n        /* \"#utility.yul\":417:539   */\n    tag_127:\n        /* \"#utility.yul\":490:514   */\n      tag_173\n        /* \"#utility.yul\":508:513   */\n      dup2\n        /* \"#utility.yul\":490:514   */\n      tag_126\n      jump\t// in\n    tag_173:\n        /* \"#utility.yul\":483:488   */\n      dup2\n        /* \"#utility.yul\":480:515   */\n      eq\n        /* \"#utility.yul\":470:533   */\n      tag_174\n      jumpi\n        /* \"#utility.yul\":529:530   */\n      0x00\n        /* \"#utility.yul\":526:527   */\n      dup1\n        /* \"#utility.yul\":519:531   */\n      revert\n        /* \"#utility.yul\":470:533   */\n    tag_174:\n        /* \"#utility.yul\":417:539   */\n      pop\n      jump\t// out\n        /* \"#utility.yul\":545:684   */\n    tag_128:\n        /* \"#utility.yul\":591:596   */\n      0x00\n        /* \"#utility.yul\":629:635   */\n      dup2\n        /* \"#utility.yul\":616:636   */\n      calldataload\n        /* \"#utility.yul\":607:636   */\n      swap1\n      pop\n        /* \"#utility.yul\":645:678   */\n      tag_176\n        /* \"#utility.yul\":672:677   */\n      dup2\n        /* \"#utility.yul\":645:678   */\n      tag_127\n      jump\t// in\n    tag_176:\n        /* \"#utility.yul\":545:684   */\n      swap3\n      swap2\n      pop\n      pop\n      jump\t// out\n        /* \"#utility.yul\":690:776   */\n    tag_129:\n        /* \"#utility.yul\":725:732   */\n      0x00\n        /* \"#utility.yul\":765:769   */\n      0xff\n        /* \"#utility.yul\":758:763   */\n      dup3\n        /* \"#utility.yul\":754:770   */\n      and\n        /* \"#utility.yul\":743:770   */\n      swap1\n      pop\n        /* \"#utility.yul\":690:776   */\n      swap2\n      swap1\n      pop\n      jump\t// out\n        /* \"#utility.yul\":782:900   */\n    tag_130:\n        /* \"#utility.yul\":853:875   */\n      tag_179\n        /* \"#utility.yul\":869:874   */\n      dup2\n        /* \"#utility.yul\":853:875   */\n      tag_129\n      jump\t// in\n    tag_179:\n        /* \"#utility.yul\":846:851   */\n      dup2\n        /* \"#utility.yul\":843:876   */\n      eq\n        /* \"#utility.yul\":833:894   */\n      tag_180\n      jumpi\n        /* \"#utility.yul\":890:891   */\n      0x00\n        /* \"#utility.yul\":887:888   */\n      dup1\n        /* \"#utility.yul\":880:892   */\n      revert\n        /* \"#utility.yul\":833:894   */\n    tag_180:\n        /* \"#utility.yul\":782:900   */\n      pop\n      jump\t// out\n        /* \"#utility.yul\":906:1041   */\n    tag_131:\n        /* \"#utility.yul\":950:955   */\n      0x00\n        /* \"#utility.yul\":988:994   */\n      dup2\n        /* \"#utility.yul\":975:995   */\n      calldataload\n        /* \"#utility.yul\":966:995   */\n      swap1\n      pop\n        /* \"#utility.yul\":1004:1035   */\n      tag_182\n        /* \"#utility.yul\":1029:1034   */\n      dup2\n        /* \"#utility.yul\":1004:1035   */\n      tag_130\n      jump\t// in\n    tag_182:\n        /* \"#utility.yul\":906:1041   */\n      swap3\n      swap2\n      pop\n      pop\n      jump\t// out\n        /* \"#utility.yul\":1047:1173   */\n    tag_132:\n        /* \"#utility.yul\":1084:1091   */\n      0x00\n        /* \"#utility.yul\":1124:1166   */\n      0xffffffffffffffffffffffffffffffffffffffff\n        /* \"#utility.yul\":1117:1122   */\n      dup3\n        /* \"#utility.yul\":1113:1167   */\n      and\n        /* \"#utility.yul\":1102:1167   */\n      swap1\n      pop\n        /* \"#utility.yul\":1047:1173   */\n      swap2\n      swap1\n      pop\n      jump\t// out\n        /* \"#utility.yul\":1179:1275   */\n    tag_133:\n        /* \"#utility.yul\":1216:1223   */\n      0x00\n        /* \"#utility.yul\":1245:1269   */\n      tag_185\n        /* \"#utility.yul\":1263:1268   */\n      dup3\n        /* \"#utility.yul\":1245:1269   */\n      tag_132\n      jump\t// in\n    tag_185:\n        /* \"#utility.yul\":1234:1269   */\n      swap1\n      pop\n        /* \"#utility.yul\":1179:1275   */\n      swap2\n      swap1\n      pop\n      jump\t// out\n        /* \"#utility.yul\":1281:1403   */\n    tag_134:\n        /* \"#utility.yul\":1354:1378   */\n      tag_187\n        /* \"#utility.yul\":1372:1377   */\n      dup2\n        /* \"#utility.yul\":1354:1378   */\n      tag_133\n      jump\t// in\n    tag_187:\n        /* \"#utility.yul\":1347:1352   */\n      dup2\n        /* \"#utility.yul\":1344:1379   */\n      eq\n        /* \"#utility.yul\":1334:1397   */\n      tag_188\n      jumpi\n        /* \"#utility.yul\":1393:1394   */\n      0x00\n        /* \"#utility.yul\":1390:1391   */\n      dup1\n        /* \"#utility.yul\":1383:1395   */\n      revert\n        /* \"#utility.yul\":1334:1397   */\n    tag_188:\n        /* \"#utility.yul\":1281:1403   */\n      pop\n      jump\t// out\n        /* \"#utility.yul\":1409:1548   */\n    tag_135:\n        /* \"#utility.yul\":1455:1460   */\n      0x00\n        /* \"#utility.yul\":1493:1499   */\n      dup2\n        /* \"#utility.yul\":1480:1500   */\n      calldataload\n        /* \"#utility.yul\":1471:1500   */\n      swap1\n      pop\n        /* \"#utility.yul\":1509:1542   */\n      tag_190\n        /* \"#utility.yul\":1536:1541   */\n      dup2\n        /* \"#utility.yul\":1509:1542   */\n      tag_134\n      jump\t// in\n    tag_190:\n        /* \"#utility.yul\":1409:1548   */\n      swap3\n      swap2\n      pop\n      pop\n      jump\t// out\n        /* \"#utility.yul\":1554:2603   */\n    tag_14:\n        /* \"#utility.yul\":1654:1660   */\n      0x00\n        /* \"#utility.yul\":1662:1668   */\n      dup1\n        /* \"#utility.yul\":1670:1676   */\n      0x00\n        /* \"#utility.yul\":1678:1684   */\n      dup1\n        /* \"#utility.yul\":1686:1692   */\n      0x00\n        /* \"#utility.yul\":1694:1700   */\n      dup1\n        /* \"#utility.yul\":1743:1746   */\n      0xc0\n        /* \"#utility.yul\":1731:1740   */\n      dup8\n        /* \"#utility.yul\":1722:1729   */\n      dup10\n        /* \"#utility.yul\":1718:1741   */\n      sub\n        /* \"#utility.yul\":1714:1747   */\n      slt\n        /* \"#utility.yul\":1711:1831   */\n      iszero\n      tag_192\n      jumpi\n        /* \"#utility.yul\":1750:1829   */\n      tag_193\n      tag_124\n      jump\t// in\n    tag_193:\n        /* \"#utility.yul\":1711:1831   */\n    tag_192:\n        /* \"#utility.yul\":1870:1871   */\n      0x00\n        /* \"#utility.yul\":1895:1948   */\n      tag_194\n        /* \"#utility.yul\":1940:1947   */\n      dup10\n        /* \"#utility.yul\":1931:1937   */\n      dup3\n        /* \"#utility.yul\":1920:1929   */\n      dup11\n        /* \"#utility.yul\":1916:1938   */\n      add\n        /* \"#utility.yul\":1895:1948   */\n      tag_128\n      jump\t// in\n    tag_194:\n        /* \"#utility.yul\":1885:1948   */\n      swap7\n      pop\n        /* \"#utility.yul\":1841:1958   */\n      pop\n        /* \"#utility.yul\":1997:1999   */\n      0x20\n        /* \"#utility.yul\":2023:2076   */\n      tag_195\n        /* \"#utility.yul\":2068:2075   */\n      dup10\n        /* \"#utility.yul\":2059:2065   */\n      dup3\n        /* \"#utility.yul\":2048:2057   */\n      dup11\n        /* \"#utility.yul\":2044:2066   */\n      add\n        /* \"#utility.yul\":2023:2076   */\n      tag_128\n      jump\t// in\n    tag_195:\n        /* \"#utility.yul\":2013:2076   */\n      swap6\n      pop\n        /* \"#utility.yul\":1968:2086   */\n      pop\n        /* \"#utility.yul\":2125:2127   */\n      0x40\n        /* \"#utility.yul\":2151:2202   */\n      tag_196\n        /* \"#utility.yul\":2194:2201   */\n      dup10\n        /* \"#utility.yul\":2185:2191   */\n      dup3\n        /* \"#utility.yul\":2174:2183   */\n      dup11\n        /* \"#utility.yul\":2170:2192   */\n      add\n        /* \"#utility.yul\":2151:2202   */\n      tag_131\n      jump\t// in\n    tag_196:\n        /* \"#utility.yul\":2141:2202   */\n      swap5\n      pop\n        /* \"#utility.yul\":2096:2212   */\n      pop\n        /* \"#utility.yul\":2251:2253   */\n      0x60\n        /* \"#utility.yul\":2277:2328   */\n      tag_197\n        /* \"#utility.yul\":2320:2327   */\n      dup10\n        /* \"#utility.yul\":2311:2317   */\n      dup3\n        /* \"#utility.yul\":2300:2309   */\n      dup11\n        /* \"#utility.yul\":2296:2318   */\n      add\n        /* \"#utility.yul\":2277:2328   */\n      tag_131\n      jump\t// in\n    tag_197:\n        /* \"#utility.yul\":2267:2328   */\n      swap4\n      pop\n        /* \"#utility.yul\":2222:2338   */\n      pop\n        /* \"#utility.yul\":2377:2380   */\n      0x80\n        /* \"#utility.yul\":2404:2457   */\n      tag_198\n        /* \"#utility.yul\":2449:2456   */\n      dup10\n        /* \"#utility.yul\":2440:2446   */\n      dup3\n        /* \"#utility.yul\":2429:2438   */\n      dup11\n        /* \"#utility.yul\":2425:2447   */\n      add\n        /* \"#utility.yul\":2404:2457   */\n      tag_135\n      jump\t// in\n    tag_198:\n        /* \"#utility.yul\":2394:2457   */\n      swap3\n      pop\n        /* \"#utility.yul\":2348:2467   */\n      pop\n        /* \"#utility.yul\":2506:2509   */\n      0xa0\n        /* \"#utility.yul\":2533:2586   */\n      tag_199\n        /* \"#utility.yul\":2578:2585   */\n      dup10\n        /* \"#utility.yul\":2569:2575   */\n      dup3\n        /* \"#utility.yul\":2558:2567   */\n      dup11\n        /* \"#utility.yul\":2554:2576   */\n      add\n        /* \"#utility.yul\":2533:2586   */\n      tag_135\n      jump\t// in\n    tag_199:\n        /* \"#utility.yul\":2523:2586   */\n      swap2\n      pop\n        /* \"#utility.yul\":2477:2596   */\n      pop\n        /* \"#utility.yul\":1554:2603   */\n      swap3\n      swap6\n      pop\n      swap3\n      swap6\n      pop\n      swap3\n      swap6\n      jump\t// out\n        /* \"#utility.yul\":2609:2938   */\n    tag_18:\n        /* \"#utility.yul\":2668:2674   */\n      0x00\n        /* \"#utility.yul\":2717:2719   */\n      0x20\n        /* \"#utility.yul\":2705:2714   */\n      dup3\n        /* \"#utility.yul\":2696:2703   */\n      dup5\n        /* \"#utility.yul\":2692:2715   */\n      sub\n        /* \"#utility.yul\":2688:2720   */\n      slt\n        /* \"#utility.yul\":2685:2804   */\n      iszero\n      tag_201\n      jumpi\n        /* \"#utility.yul\":2723:2802   */\n      tag_202\n      tag_124\n      jump\t// in\n    tag_202:\n        /* \"#utility.yul\":2685:2804   */\n    tag_201:\n        /* \"#utility.yul\":2843:2844   */\n      0x00\n        /* \"#utility.yul\":2868:2921   */\n      tag_203\n        /* \"#utility.yul\":2913:2920   */\n      dup5\n        /* \"#utility.yul\":2904:2910   */\n      dup3\n        /* \"#utility.yul\":2893:2902   */\n      dup6\n        /* \"#utility.yul\":2889:2911   */\n      add\n        /* \"#utility.yul\":2868:2921   */\n      tag_128\n      jump\t// in\n    tag_203:\n        /* \"#utility.yul\":2858:2921   */\n      swap2\n      pop\n        /* \"#utility.yul\":2814:2931   */\n      pop\n        /* \"#utility.yul\":2609:2938   */\n      swap3\n      swap2\n      pop\n      pop\n      jump\t// out\n        /* \"#utility.yul\":2944:3062   */\n    tag_136:\n        /* \"#utility.yul\":3031:3055   */\n      tag_205\n        /* \"#utility.yul\":3049:3054   */\n      dup2\n        /* \"#utility.yul\":3031:3055   */\n      tag_126\n      jump\t// in\n    tag_205:\n        /* \"#utility.yul\":3026:3029   */\n      dup3\n        /* \"#utility.yul\":3019:3056   */\n      mstore\n        /* \"#utility.yul\":2944:3062   */\n      pop\n      pop\n      jump\t// out\n        /* \"#utility.yul\":3068:3290   */\n    tag_23:\n        /* \"#utility.yul\":3161:3165   */\n      0x00\n        /* \"#utility.yul\":3199:3201   */\n      0x20\n        /* \"#utility.yul\":3188:3197   */\n      dup3\n        /* \"#utility.yul\":3184:3202   */\n      add\n        /* \"#utility.yul\":3176:3202   */\n      swap1\n      pop\n        /* \"#utility.yul\":3212:3283   */\n      tag_207\n        /* \"#utility.yul\":3280:3281   */\n      0x00\n        /* \"#utility.yul\":3269:3278   */\n      dup4\n        /* \"#utility.yul\":3265:3282   */\n      add\n        /* \"#utility.yul\":3256:3262   */\n      dup5\n        /* \"#utility.yul\":3212:3283   */\n      tag_136\n      jump\t// in\n    tag_207:\n        /* \"#utility.yul\":3068:3290   */\n      swap3\n      swap2\n      pop\n      pop\n      jump\t// out\n        /* \"#utility.yul\":3296:3625   */\n    tag_30:\n        /* \"#utility.yul\":3355:3361   */\n      0x00\n        /* \"#utility.yul\":3404:3406   */\n      0x20\n        /* \"#utility.yul\":3392:3401   */\n      dup3\n        /* \"#utility.yul\":3383:3390   */\n      dup5\n        /* \"#utility.yul\":3379:3402   */\n      sub\n        /* \"#utility.yul\":3375:3407   */\n      slt\n        /* \"#utility.yul\":3372:3491   */\n      iszero\n      tag_209\n      jumpi\n        /* \"#utility.yul\":3410:3489   */\n      tag_210\n      tag_124\n      jump\t// in\n    tag_210:\n        /* \"#utility.yul\":3372:3491   */\n    tag_209:\n        /* \"#utility.yul\":3530:3531   */\n      0x00\n        /* \"#utility.yul\":3555:3608   */\n      tag_211\n        /* \"#utility.yul\":3600:3607   */\n      dup5\n        /* \"#utility.yul\":3591:3597   */\n      dup3\n        /* \"#utility.yul\":3580:3589   */\n      dup6\n        /* \"#utility.yul\":3576:3598   */\n      add\n        /* \"#utility.yul\":3555:3608   */\n      tag_135\n      jump\t// in\n    tag_211:\n        /* \"#utility.yul\":3545:3608   */\n      swap2\n      pop\n        /* \"#utility.yul\":3501:3618   */\n      pop\n        /* \"#utility.yul\":3296:3625   */\n      swap3\n      swap2\n      pop\n      pop\n      jump\t// out\n        /* \"#utility.yul\":3631:3721   */\n    tag_137:\n        /* \"#utility.yul\":3665:3672   */\n      0x00\n        /* \"#utility.yul\":3708:3713   */\n      dup2\n        /* \"#utility.yul\":3701:3714   */\n      iszero\n        /* \"#utility.yul\":3694:3715   */\n      iszero\n        /* \"#utility.yul\":3683:3715   */\n      swap1\n      pop\n        /* \"#utility.yul\":3631:3721   */\n      swap2\n      swap1\n      pop\n      jump\t// out\n        /* \"#utility.yul\":3727:3836   */\n    tag_138:\n        /* \"#utility.yul\":3808:3829   */\n      tag_214\n        /* \"#utility.yul\":3823:3828   */\n      dup2\n        /* \"#utility.yul\":3808:3829   */\n      tag_137\n      jump\t// in\n    tag_214:\n        /* \"#utility.yul\":3803:3806   */\n      dup3\n        /* \"#utility.yul\":3796:3830   */\n      mstore\n        /* \"#utility.yul\":3727:3836   */\n      pop\n      pop\n      jump\t// out\n        /* \"#utility.yul\":3842:4052   */\n    tag_33:\n        /* \"#utility.yul\":3929:3933   */\n      0x00\n        /* \"#utility.yul\":3967:3969   */\n      0x20\n        /* \"#utility.yul\":3956:3965   */\n      dup3\n        /* \"#utility.yul\":3952:3970   */\n      add\n        /* \"#utility.yul\":3944:3970   */\n      swap1\n      pop\n        /* \"#utility.yul\":3980:4045   */\n      tag_216\n        /* \"#utility.yul\":4042:4043   */\n      0x00\n        /* \"#utility.yul\":4031:4040   */\n      dup4\n        /* \"#utility.yul\":4027:4044   */\n      add\n        /* \"#utility.yul\":4018:4024   */\n      dup5\n        /* \"#utility.yul\":3980:4045   */\n      tag_138\n      jump\t// in\n    tag_216:\n        /* \"#utility.yul\":3842:4052   */\n      swap3\n      swap2\n      pop\n      pop\n      jump\t// out\n        /* \"#utility.yul\":4058:4532   */\n    tag_36:\n        /* \"#utility.yul\":4126:4132   */\n      0x00\n        /* \"#utility.yul\":4134:4140   */\n      dup1\n        /* \"#utility.yul\":4183:4185   */\n      0x40\n        /* \"#utility.yul\":4171:4180   */\n      dup4\n        /* \"#utility.yul\":4162:4169   */\n      dup6\n        /* \"#utility.yul\":4158:4181   */\n      sub\n        /* \"#utility.yul\":4154:4186   */\n      slt\n        /* \"#utility.yul\":4151:4270   */\n      iszero\n      tag_218\n      jumpi\n        /* \"#utility.yul\":4189:4268   */\n      tag_219\n      tag_124\n      jump\t// in\n    tag_219:\n        /* \"#utility.yul\":4151:4270   */\n    tag_218:\n        /* \"#utility.yul\":4309:4310   */\n      0x00\n        /* \"#utility.yul\":4334:4387   */\n      tag_220\n        /* \"#utility.yul\":4379:4386   */\n      dup6\n        /* \"#utility.yul\":4370:4376   */\n      dup3\n        /* \"#utility.yul\":4359:4368   */\n      dup7\n        /* \"#utility.yul\":4355:4377   */\n      add\n        /* \"#utility.yul\":4334:4387   */\n      tag_135\n      jump\t// in\n    tag_220:\n        /* \"#utility.yul\":4324:4387   */\n      swap3\n      pop\n        /* \"#utility.yul\":4280:4397   */\n      pop\n        /* \"#utility.yul\":4436:4438   */\n      0x20\n        /* \"#utility.yul\":4462:4515   */\n      tag_221\n        /* \"#utility.yul\":4507:4514   */\n      dup6\n        /* \"#utility.yul\":4498:4504   */\n      dup3\n        /* \"#utility.yul\":4487:4496   */\n      dup7\n        /* \"#utility.yul\":4483:4505   */\n      add\n        /* \"#utility.yul\":4462:4515   */\n      tag_128\n      jump\t// in\n    tag_221:\n        /* \"#utility.yul\":4452:4515   */\n      swap2\n      pop\n        /* \"#utility.yul\":4407:4525   */\n      pop\n        /* \"#utility.yul\":4058:4532   */\n      swap3\n      pop\n      swap3\n      swap1\n      pop\n      jump\t// out\n        /* \"#utility.yul\":4538:4650   */\n    tag_139:\n        /* \"#utility.yul\":4621:4643   */\n      tag_223\n        /* \"#utility.yul\":4637:4642   */\n      dup2\n        /* \"#utility.yul\":4621:4643   */\n      tag_129\n      jump\t// in\n    tag_223:\n        /* \"#utility.yul\":4616:4619   */\n      dup3\n        /* \"#utility.yul\":4609:4644   */\n      mstore\n        /* \"#utility.yul\":4538:4650   */\n      pop\n      pop\n      jump\t// out\n        /* \"#utility.yul\":4656:4774   */\n    tag_140:\n        /* \"#utility.yul\":4743:4767   */\n      tag_225\n        /* \"#utility.yul\":4761:4766   */\n      dup2\n        /* \"#utility.yul\":4743:4767   */\n      tag_133\n      jump\t// in\n    tag_225:\n        /* \"#utility.yul\":4738:4741   */\n      dup3\n        /* \"#utility.yul\":4731:4768   */\n      mstore\n        /* \"#utility.yul\":4656:4774   */\n      pop\n      pop\n      jump\t// out\n        /* \"#utility.yul\":4780:5860   */\n    tag_39:\n        /* \"#utility.yul\":5083:5087   */\n      0x00\n        /* \"#utility.yul\":5121:5124   */\n      0x0120\n        /* \"#utility.yul\":5110:5119   */\n      dup3\n        /* \"#utility.yul\":5106:5125   */\n      add\n        /* \"#utility.yul\":5098:5125   */\n      swap1\n      pop\n        /* \"#utility.yul\":5135:5206   */\n      tag_227\n        /* \"#utility.yul\":5203:5204   */\n      0x00\n        /* \"#utility.yul\":5192:5201   */\n      dup4\n        /* \"#utility.yul\":5188:5205   */\n      add\n        /* \"#utility.yul\":5179:5185   */\n      dup13\n        /* \"#utility.yul\":5135:5206   */\n      tag_136\n      jump\t// in\n    tag_227:\n        /* \"#utility.yul\":5216:5288   */\n      tag_228\n        /* \"#utility.yul\":5284:5286   */\n      0x20\n        /* \"#utility.yul\":5273:5282   */\n      dup4\n        /* \"#utility.yul\":5269:5287   */\n      add\n        /* \"#utility.yul\":5260:5266   */\n      dup12\n        /* \"#utility.yul\":5216:5288   */\n      tag_136\n      jump\t// in\n    tag_228:\n        /* \"#utility.yul\":5298:5370   */\n      tag_229\n        /* \"#utility.yul\":5366:5368   */\n      0x40\n        /* \"#utility.yul\":5355:5364   */\n      dup4\n        /* \"#utility.yul\":5351:5369   */\n      add\n        /* \"#utility.yul\":5342:5348   */\n      dup11\n        /* \"#utility.yul\":5298:5370   */\n      tag_136\n      jump\t// in\n    tag_229:\n        /* \"#utility.yul\":5380:5446   */\n      tag_230\n        /* \"#utility.yul\":5442:5444   */\n      0x60\n        /* \"#utility.yul\":5431:5440   */\n      dup4\n        /* \"#utility.yul\":5427:5445   */\n      add\n        /* \"#utility.yul\":5418:5424   */\n      dup10\n        /* \"#utility.yul\":5380:5446   */\n      tag_138\n      jump\t// in\n    tag_230:\n        /* \"#utility.yul\":5456:5525   */\n      tag_231\n        /* \"#utility.yul\":5520:5523   */\n      0x80\n        /* \"#utility.yul\":5509:5518   */\n      dup4\n        /* \"#utility.yul\":5505:5524   */\n      add\n        /* \"#utility.yul\":5496:5502   */\n      dup9\n        /* \"#utility.yul\":5456:5525   */\n      tag_139\n      jump\t// in\n    tag_231:\n        /* \"#utility.yul\":5535:5604   */\n      tag_232\n        /* \"#utility.yul\":5599:5602   */\n      0xa0\n        /* \"#utility.yul\":5588:5597   */\n      dup4\n        /* \"#utility.yul\":5584:5603   */\n      add\n        /* \"#utility.yul\":5575:5581   */\n      dup8\n        /* \"#utility.yul\":5535:5604   */\n      tag_139\n      jump\t// in\n    tag_232:\n        /* \"#utility.yul\":5614:5687   */\n      tag_233\n        /* \"#utility.yul\":5682:5685   */\n      0xc0\n        /* \"#utility.yul\":5671:5680   */\n      dup4\n        /* \"#utility.yul\":5667:5686   */\n      add\n        /* \"#utility.yul\":5658:5664   */\n      dup7\n        /* \"#utility.yul\":5614:5687   */\n      tag_136\n      jump\t// in\n    tag_233:\n        /* \"#utility.yul\":5697:5770   */\n      tag_234\n        /* \"#utility.yul\":5765:5768   */\n      0xe0\n        /* \"#utility.yul\":5754:5763   */\n      dup4\n        /* \"#utility.yul\":5750:5769   */\n      add\n        /* \"#utility.yul\":5741:5747   */\n      dup6\n        /* \"#utility.yul\":5697:5770   */\n      tag_140\n      jump\t// in\n    tag_234:\n        /* \"#utility.yul\":5780:5853   */\n      tag_235\n        /* \"#utility.yul\":5848:5851   */\n      0x0100\n        /* \"#utility.yul\":5837:5846   */\n      dup4\n        /* \"#utility.yul\":5833:5852   */\n      add\n        /* \"#utility.yul\":5824:5830   */\n      dup5\n        /* \"#utility.yul\":5780:5853   */\n      tag_136\n      jump\t// in\n    tag_235:\n        /* \"#utility.yul\":4780:5860   */\n      swap11\n      swap10\n      pop\n      pop\n      pop\n      pop\n      pop\n      pop\n      pop\n      pop\n      pop\n      pop\n      jump\t// out\n        /* \"#utility.yul\":5866:5926   */\n    tag_141:\n        /* \"#utility.yul\":5894:5897   */\n      0x00\n        /* \"#utility.yul\":5915:5920   */\n      dup2\n        /* \"#utility.yul\":5908:5920   */\n      swap1\n      pop\n        /* \"#utility.yul\":5866:5926   */\n      swap2\n      swap1\n      pop\n      jump\t// out\n        /* \"#utility.yul\":5932:6074   */\n    tag_142:\n        /* \"#utility.yul\":5982:5991   */\n      0x00\n        /* \"#utility.yul\":6015:6068   */\n      tag_238\n        /* \"#utility.yul\":6033:6067   */\n      tag_239\n        /* \"#utility.yul\":6042:6066   */\n      tag_240\n        /* \"#utility.yul\":6060:6065   */\n      dup5\n        /* \"#utility.yul\":6042:6066   */\n      tag_132\n      jump\t// in\n    tag_240:\n        /* \"#utility.yul\":6033:6067   */\n      tag_141\n      jump\t// in\n    tag_239:\n        /* \"#utility.yul\":6015:6068   */\n      tag_132\n      jump\t// in\n    tag_238:\n        /* \"#utility.yul\":6002:6068   */\n      swap1\n      pop\n        /* \"#utility.yul\":5932:6074   */\n      swap2\n      swap1\n      pop\n      jump\t// out\n        /* \"#utility.yul\":6080:6206   */\n    tag_143:\n        /* \"#utility.yul\":6130:6139   */\n      0x00\n        /* \"#utility.yul\":6163:6200   */\n      tag_242\n        /* \"#utility.yul\":6194:6199   */\n      dup3\n        /* \"#utility.yul\":6163:6200   */\n      tag_142\n      jump\t// in\n    tag_242:\n        /* \"#utility.yul\":6150:6200   */\n      swap1\n      pop\n        /* \"#utility.yul\":6080:6206   */\n      swap2\n      swap1\n      pop\n      jump\t// out\n        /* \"#utility.yul\":6212:6351   */\n    tag_144:\n        /* \"#utility.yul\":6275:6284   */\n      0x00\n        /* \"#utility.yul\":6308:6345   */\n      tag_244\n        /* \"#utility.yul\":6339:6344   */\n      dup3\n        /* \"#utility.yul\":6308:6345   */\n      tag_143\n      jump\t// in\n    tag_244:\n        /* \"#utility.yul\":6295:6345   */\n      swap1\n      pop\n        /* \"#utility.yul\":6212:6351   */\n      swap2\n      swap1\n      pop\n      jump\t// out\n        /* \"#utility.yul\":6357:6514   */\n    tag_145:\n        /* \"#utility.yul\":6457:6507   */\n      tag_246\n        /* \"#utility.yul\":6501:6506   */\n      dup2\n        /* \"#utility.yul\":6457:6507   */\n      tag_144\n      jump\t// in\n    tag_246:\n        /* \"#utility.yul\":6452:6455   */\n      dup3\n        /* \"#utility.yul\":6445:6508   */\n      mstore\n        /* \"#utility.yul\":6357:6514   */\n      pop\n      pop\n      jump\t// out\n        /* \"#utility.yul\":6520:6768   */\n    tag_46:\n        /* \"#utility.yul\":6626:6630   */\n      0x00\n        /* \"#utility.yul\":6664:6666   */\n      0x20\n        /* \"#utility.yul\":6653:6662   */\n      dup3\n        /* \"#utility.yul\":6649:6667   */\n      add\n        /* \"#utility.yul\":6641:6667   */\n      swap1\n      pop\n        /* \"#utility.yul\":6677:6761   */\n      tag_248\n        /* \"#utility.yul\":6758:6759   */\n      0x00\n        /* \"#utility.yul\":6747:6756   */\n      dup4\n        /* \"#utility.yul\":6743:6760   */\n      add\n        /* \"#utility.yul\":6734:6740   */\n      dup5\n        /* \"#utility.yul\":6677:6761   */\n      tag_145\n      jump\t// in\n    tag_248:\n        /* \"#utility.yul\":6520:6768   */\n      swap3\n      swap2\n      pop\n      pop\n      jump\t// out\n        /* \"#utility.yul\":6774:6943   */\n    tag_146:\n        /* \"#utility.yul\":6858:6869   */\n      0x00\n        /* \"#utility.yul\":6892:6898   */\n      dup3\n        /* \"#utility.yul\":6887:6890   */\n      dup3\n        /* \"#utility.yul\":6880:6899   */\n      mstore\n        /* \"#utility.yul\":6932:6936   */\n      0x20\n        /* \"#utility.yul\":6927:6930   */\n      dup3\n        /* \"#utility.yul\":6923:6937   */\n      add\n        /* \"#utility.yul\":6908:6937   */\n      swap1\n      pop\n        /* \"#utility.yul\":6774:6943   */\n      swap3\n      swap2\n      pop\n      pop\n      jump\t// out\n        /* \"#utility.yul\":6949:7117   */\n    tag_147:\n        /* \"#utility.yul\":7089:7109   */\n      0x416d6f756e74206e6f74206265205a65726f0000000000000000000000000000\n        /* \"#utility.yul\":7085:7086   */\n      0x00\n        /* \"#utility.yul\":7077:7083   */\n      dup3\n        /* \"#utility.yul\":7073:7087   */\n      add\n        /* \"#utility.yul\":7066:7110   */\n      mstore\n        /* \"#utility.yul\":6949:7117   */\n      pop\n      jump\t// out\n        /* \"#utility.yul\":7123:7489   */\n    tag_148:\n        /* \"#utility.yul\":7265:7268   */\n      0x00\n        /* \"#utility.yul\":7286:7353   */\n      tag_252\n        /* \"#utility.yul\":7350:7352   */\n      0x12\n        /* \"#utility.yul\":7345:7348   */\n      dup4\n        /* \"#utility.yul\":7286:7353   */\n      tag_146\n      jump\t// in\n    tag_252:\n        /* \"#utility.yul\":7279:7353   */\n      swap2\n      pop\n        /* \"#utility.yul\":7362:7455   */\n      tag_253\n        /* \"#utility.yul\":7451:7454   */\n      dup3\n        /* \"#utility.yul\":7362:7455   */\n      tag_147\n      jump\t// in\n    tag_253:\n        /* \"#utility.yul\":7480:7482   */\n      0x20\n        /* \"#utility.yul\":7475:7478   */\n      dup3\n        /* \"#utility.yul\":7471:7483   */\n      add\n        /* \"#utility.yul\":7464:7483   */\n      swap1\n      pop\n        /* \"#utility.yul\":7123:7489   */\n      swap2\n      swap1\n      pop\n      jump\t// out\n        /* \"#utility.yul\":7495:7914   */\n    tag_50:\n        /* \"#utility.yul\":7661:7665   */\n      0x00\n        /* \"#utility.yul\":7699:7701   */\n      0x20\n        /* \"#utility.yul\":7688:7697   */\n      dup3\n        /* \"#utility.yul\":7684:7702   */\n      add\n        /* \"#utility.yul\":7676:7702   */\n      swap1\n      pop\n        /* \"#utility.yul\":7748:7757   */\n      dup2\n        /* \"#utility.yul\":7742:7746   */\n      dup2\n        /* \"#utility.yul\":7738:7758   */\n      sub\n        /* \"#utility.yul\":7734:7735   */\n      0x00\n        /* \"#utility.yul\":7723:7732   */\n      dup4\n        /* \"#utility.yul\":7719:7736   */\n      add\n        /* \"#utility.yul\":7712:7759   */\n      mstore\n        /* \"#utility.yul\":7776:7907   */\n      tag_255\n        /* \"#utility.yul\":7902:7906   */\n      dup2\n        /* \"#utility.yul\":7776:7907   */\n      tag_148\n      jump\t// in\n    tag_255:\n        /* \"#utility.yul\":7768:7907   */\n      swap1\n      pop\n        /* \"#utility.yul\":7495:7914   */\n      swap2\n      swap1\n      pop\n      jump\t// out\n        /* \"#utility.yul\":7920:8148   */\n    tag_149:\n        /* \"#utility.yul\":8060:8094   */\n      0x596f7520617265206e6f7420616c6c6f77656420746f20757365207468697320\n        /* \"#utility.yul\":8056:8057   */\n      0x00\n        /* \"#utility.yul\":8048:8054   */\n      dup3\n        /* \"#utility.yul\":8044:8058   */\n      add\n        /* \"#utility.yul\":8037:8095   */\n      mstore\n        /* \"#utility.yul\":8129:8140   */\n      0x636f6e74726163742e0000000000000000000000000000000000000000000000\n        /* \"#utility.yul\":8124:8126   */\n      0x20\n        /* \"#utility.yul\":8116:8122   */\n      dup3\n        /* \"#utility.yul\":8112:8127   */\n      add\n        /* \"#utility.yul\":8105:8141   */\n      mstore\n        /* \"#utility.yul\":7920:8148   */\n      pop\n      jump\t// out\n        /* \"#utility.yul\":8154:8520   */\n    tag_150:\n        /* \"#utility.yul\":8296:8299   */\n      0x00\n        /* \"#utility.yul\":8317:8384   */\n      tag_258\n        /* \"#utility.yul\":8381:8383   */\n      0x29\n        /* \"#utility.yul\":8376:8379   */\n      dup4\n        /* \"#utility.yul\":8317:8384   */\n      tag_146\n      jump\t// in\n    tag_258:\n        /* \"#utility.yul\":8310:8384   */\n      swap2\n      pop\n        /* \"#utility.yul\":8393:8486   */\n      tag_259\n        /* \"#utility.yul\":8482:8485   */\n      dup3\n        /* \"#utility.yul\":8393:8486   */\n      tag_149\n      jump\t// in\n    tag_259:\n        /* \"#utility.yul\":8511:8513   */\n      0x40\n        /* \"#utility.yul\":8506:8509   */\n      dup3\n        /* \"#utility.yul\":8502:8514   */\n      add\n        /* \"#utility.yul\":8495:8514   */\n      swap1\n      pop\n        /* \"#utility.yul\":8154:8520   */\n      swap2\n      swap1\n      pop\n      jump\t// out\n        /* \"#utility.yul\":8526:8945   */\n    tag_53:\n        /* \"#utility.yul\":8692:8696   */\n      0x00\n        /* \"#utility.yul\":8730:8732   */\n      0x20\n        /* \"#utility.yul\":8719:8728   */\n      dup3\n        /* \"#utility.yul\":8715:8733   */\n      add\n        /* \"#utility.yul\":8707:8733   */\n      swap1\n      pop\n        /* \"#utility.yul\":8779:8788   */\n      dup2\n        /* \"#utility.yul\":8773:8777   */\n      dup2\n        /* \"#utility.yul\":8769:8789   */\n      sub\n        /* \"#utility.yul\":8765:8766   */\n      0x00\n        /* \"#utility.yul\":8754:8763   */\n      dup4\n        /* \"#utility.yul\":8750:8767   */\n      add\n        /* \"#utility.yul\":8743:8790   */\n      mstore\n        /* \"#utility.yul\":8807:8938   */\n      tag_261\n        /* \"#utility.yul\":8933:8937   */\n      dup2\n        /* \"#utility.yul\":8807:8938   */\n      tag_150\n      jump\t// in\n    tag_261:\n        /* \"#utility.yul\":8799:8938   */\n      swap1\n      pop\n        /* \"#utility.yul\":8526:8945   */\n      swap2\n      swap1\n      pop\n      jump\t// out\n        /* \"#utility.yul\":8951:9133   */\n    tag_151:\n        /* \"#utility.yul\":9091:9125   */\n      0x436c696666206d757374206d65206c657373207468616e206475726174696f6e\n        /* \"#utility.yul\":9087:9088   */\n      0x00\n        /* \"#utility.yul\":9079:9085   */\n      dup3\n        /* \"#utility.yul\":9075:9089   */\n      add\n        /* \"#utility.yul\":9068:9126   */\n      mstore\n        /* \"#utility.yul\":8951:9133   */\n      pop\n      jump\t// out\n        /* \"#utility.yul\":9139:9505   */\n    tag_152:\n        /* \"#utility.yul\":9281:9284   */\n      0x00\n        /* \"#utility.yul\":9302:9369   */\n      tag_264\n        /* \"#utility.yul\":9366:9368   */\n      0x20\n        /* \"#utility.yul\":9361:9364   */\n      dup4\n        /* \"#utility.yul\":9302:9369   */\n      tag_146\n      jump\t// in\n    tag_264:\n        /* \"#utility.yul\":9295:9369   */\n      swap2\n      pop\n        /* \"#utility.yul\":9378:9471   */\n      tag_265\n        /* \"#utility.yul\":9467:9470   */\n      dup3\n        /* \"#utility.yul\":9378:9471   */\n      tag_151\n      jump\t// in\n    tag_265:\n        /* \"#utility.yul\":9496:9498   */\n      0x20\n        /* \"#utility.yul\":9491:9494   */\n      dup3\n        /* \"#utility.yul\":9487:9499   */\n      add\n        /* \"#utility.yul\":9480:9499   */\n      swap1\n      pop\n        /* \"#utility.yul\":9139:9505   */\n      swap2\n      swap1\n      pop\n      jump\t// out\n        /* \"#utility.yul\":9511:9930   */\n    tag_56:\n        /* \"#utility.yul\":9677:9681   */\n      0x00\n        /* \"#utility.yul\":9715:9717   */\n      0x20\n        /* \"#utility.yul\":9704:9713   */\n      dup3\n        /* \"#utility.yul\":9700:9718   */\n      add\n        /* \"#utility.yul\":9692:9718   */\n      swap1\n      pop\n        /* \"#utility.yul\":9764:9773   */\n      dup2\n        /* \"#utility.yul\":9758:9762   */\n      dup2\n        /* \"#utility.yul\":9754:9774   */\n      sub\n        /* \"#utility.yul\":9750:9751   */\n      0x00\n        /* \"#utility.yul\":9739:9748   */\n      dup4\n        /* \"#utility.yul\":9735:9752   */\n      add\n        /* \"#utility.yul\":9728:9775   */\n      mstore\n        /* \"#utility.yul\":9792:9923   */\n      tag_267\n        /* \"#utility.yul\":9918:9922   */\n      dup2\n        /* \"#utility.yul\":9792:9923   */\n      tag_152\n      jump\t// in\n    tag_267:\n        /* \"#utility.yul\":9784:9923   */\n      swap1\n      pop\n        /* \"#utility.yul\":9511:9930   */\n      swap2\n      swap1\n      pop\n      jump\t// out\n        /* \"#utility.yul\":9936:10116   */\n    tag_153:\n        /* \"#utility.yul\":9984:10061   */\n      0x4e487b7100000000000000000000000000000000000000000000000000000000\n        /* \"#utility.yul\":9981:9982   */\n      0x00\n        /* \"#utility.yul\":9974:10062   */\n      mstore\n        /* \"#utility.yul\":10081:10085   */\n      0x11\n        /* \"#utility.yul\":10078:10079   */\n      0x04\n        /* \"#utility.yul\":10071:10086   */\n      mstore\n        /* \"#utility.yul\":10105:10109   */\n      0x24\n        /* \"#utility.yul\":10102:10103   */\n      0x00\n        /* \"#utility.yul\":10095:10110   */\n      revert\n        /* \"#utility.yul\":10122:10532   */\n    tag_59:\n        /* \"#utility.yul\":10162:10169   */\n      0x00\n        /* \"#utility.yul\":10185:10205   */\n      tag_270\n        /* \"#utility.yul\":10203:10204   */\n      dup3\n        /* \"#utility.yul\":10185:10205   */\n      tag_126\n      jump\t// in\n    tag_270:\n        /* \"#utility.yul\":10180:10205   */\n      swap2\n      pop\n        /* \"#utility.yul\":10219:10239   */\n      tag_271\n        /* \"#utility.yul\":10237:10238   */\n      dup4\n        /* \"#utility.yul\":10219:10239   */\n      tag_126\n      jump\t// in\n    tag_271:\n        /* \"#utility.yul\":10214:10239   */\n      swap3\n      pop\n        /* \"#utility.yul\":10274:10275   */\n      dup3\n        /* \"#utility.yul\":10271:10272   */\n      dup3\n        /* \"#utility.yul\":10267:10276   */\n      mul\n        /* \"#utility.yul\":10296:10326   */\n      tag_272\n        /* \"#utility.yul\":10314:10325   */\n      dup2\n        /* \"#utility.yul\":10296:10326   */\n      tag_126\n      jump\t// in\n    tag_272:\n        /* \"#utility.yul\":10285:10326   */\n      swap2\n      pop\n        /* \"#utility.yul\":10475:10476   */\n      dup3\n        /* \"#utility.yul\":10466:10473   */\n      dup3\n        /* \"#utility.yul\":10462:10477   */\n      div\n        /* \"#utility.yul\":10459:10460   */\n      dup5\n        /* \"#utility.yul\":10456:10478   */\n      eq\n        /* \"#utility.yul\":10436:10437   */\n      dup4\n        /* \"#utility.yul\":10429:10438   */\n      iszero\n        /* \"#utility.yul\":10409:10492   */\n      or\n        /* \"#utility.yul\":10386:10525   */\n      tag_273\n      jumpi\n        /* \"#utility.yul\":10505:10523   */\n      tag_274\n      tag_153\n      jump\t// in\n    tag_274:\n        /* \"#utility.yul\":10386:10525   */\n    tag_273:\n        /* \"#utility.yul\":10170:10532   */\n      pop\n        /* \"#utility.yul\":10122:10532   */\n      swap3\n      swap2\n      pop\n      pop\n      jump\t// out\n        /* \"#utility.yul\":10538:10718   */\n    tag_154:\n        /* \"#utility.yul\":10586:10663   */\n      0x4e487b7100000000000000000000000000000000000000000000000000000000\n        /* \"#utility.yul\":10583:10584   */\n      0x00\n        /* \"#utility.yul\":10576:10664   */\n      mstore\n        /* \"#utility.yul\":10683:10687   */\n      0x12\n        /* \"#utility.yul\":10680:10681   */\n      0x04\n        /* \"#utility.yul\":10673:10688   */\n      mstore\n        /* \"#utility.yul\":10707:10711   */\n      0x24\n        /* \"#utility.yul\":10704:10705   */\n      0x00\n        /* \"#utility.yul\":10697:10712   */\n      revert\n        /* \"#utility.yul\":10724:10909   */\n    tag_61:\n        /* \"#utility.yul\":10764:10765   */\n      0x00\n        /* \"#utility.yul\":10781:10801   */\n      tag_277\n        /* \"#utility.yul\":10799:10800   */\n      dup3\n        /* \"#utility.yul\":10781:10801   */\n      tag_126\n      jump\t// in\n    tag_277:\n        /* \"#utility.yul\":10776:10801   */\n      swap2\n      pop\n        /* \"#utility.yul\":10815:10835   */\n      tag_278\n        /* \"#utility.yul\":10833:10834   */\n      dup4\n        /* \"#utility.yul\":10815:10835   */\n      tag_126\n      jump\t// in\n    tag_278:\n        /* \"#utility.yul\":10810:10835   */\n      swap3\n      pop\n        /* \"#utility.yul\":10854:10855   */\n      dup3\n        /* \"#utility.yul\":10844:10879   */\n      tag_279\n      jumpi\n        /* \"#utility.yul\":10859:10877   */\n      tag_280\n      tag_154\n      jump\t// in\n    tag_280:\n        /* \"#utility.yul\":10844:10879   */\n    tag_279:\n        /* \"#utility.yul\":10901:10902   */\n      dup3\n        /* \"#utility.yul\":10898:10899   */\n      dup3\n        /* \"#utility.yul\":10894:10903   */\n      div\n        /* \"#utility.yul\":10889:10903   */\n      swap1\n      pop\n        /* \"#utility.yul\":10724:10909   */\n      swap3\n      swap2\n      pop\n      pop\n      jump\t// out\n        /* \"#utility.yul\":10915:11357   */\n    tag_64:\n        /* \"#utility.yul\":11064:11068   */\n      0x00\n        /* \"#utility.yul\":11102:11104   */\n      0x60\n        /* \"#utility.yul\":11091:11100   */\n      dup3\n        /* \"#utility.yul\":11087:11105   */\n      add\n        /* \"#utility.yul\":11079:11105   */\n      swap1\n      pop\n        /* \"#utility.yul\":11115:11186   */\n      tag_282\n        /* \"#utility.yul\":11183:11184   */\n      0x00\n        /* \"#utility.yul\":11172:11181   */\n      dup4\n        /* \"#utility.yul\":11168:11185   */\n      add\n        /* \"#utility.yul\":11159:11165   */\n      dup7\n        /* \"#utility.yul\":11115:11186   */\n      tag_140\n      jump\t// in\n    tag_282:\n        /* \"#utility.yul\":11196:11268   */\n      tag_283\n        /* \"#utility.yul\":11264:11266   */\n      0x20\n        /* \"#utility.yul\":11253:11262   */\n      dup4\n        /* \"#utility.yul\":11249:11267   */\n      add\n        /* \"#utility.yul\":11240:11246   */\n      dup6\n        /* \"#utility.yul\":11196:11268   */\n      tag_140\n      jump\t// in\n    tag_283:\n        /* \"#utility.yul\":11278:11350   */\n      tag_284\n        /* \"#utility.yul\":11346:11348   */\n      0x40\n        /* \"#utility.yul\":11335:11344   */\n      dup4\n        /* \"#utility.yul\":11331:11349   */\n      add\n        /* \"#utility.yul\":11322:11328   */\n      dup5\n        /* \"#utility.yul\":11278:11350   */\n      tag_136\n      jump\t// in\n    tag_284:\n        /* \"#utility.yul\":10915:11357   */\n      swap5\n      swap4\n      pop\n      pop\n      pop\n      pop\n      jump\t// out\n        /* \"#utility.yul\":11363:11479   */\n    tag_155:\n        /* \"#utility.yul\":11433:11454   */\n      tag_286\n        /* \"#utility.yul\":11448:11453   */\n      dup2\n        /* \"#utility.yul\":11433:11454   */\n      tag_137\n      jump\t// in\n    tag_286:\n        /* \"#utility.yul\":11426:11431   */\n      dup2\n        /* \"#utility.yul\":11423:11455   */\n      eq\n        /* \"#utility.yul\":11413:11473   */\n      tag_287\n      jumpi\n        /* \"#utility.yul\":11469:11470   */\n      0x00\n        /* \"#utility.yul\":11466:11467   */\n      dup1\n        /* \"#utility.yul\":11459:11471   */\n      revert\n        /* \"#utility.yul\":11413:11473   */\n    tag_287:\n        /* \"#utility.yul\":11363:11479   */\n      pop\n      jump\t// out\n        /* \"#utility.yul\":11485:11622   */\n    tag_156:\n        /* \"#utility.yul\":11539:11544   */\n      0x00\n        /* \"#utility.yul\":11570:11576   */\n      dup2\n        /* \"#utility.yul\":11564:11577   */\n      mload\n        /* \"#utility.yul\":11555:11577   */\n      swap1\n      pop\n        /* \"#utility.yul\":11586:11616   */\n      tag_289\n        /* \"#utility.yul\":11610:11615   */\n      dup2\n        /* \"#utility.yul\":11586:11616   */\n      tag_155\n      jump\t// in\n    tag_289:\n        /* \"#utility.yul\":11485:11622   */\n      swap3\n      swap2\n      pop\n      pop\n      jump\t// out\n        /* \"#utility.yul\":11628:11973   */\n    tag_68:\n        /* \"#utility.yul\":11695:11701   */\n      0x00\n        /* \"#utility.yul\":11744:11746   */\n      0x20\n        /* \"#utility.yul\":11732:11741   */\n      dup3\n        /* \"#utility.yul\":11723:11730   */\n      dup5\n        /* \"#utility.yul\":11719:11742   */\n      sub\n        /* \"#utility.yul\":11715:11747   */\n      slt\n        /* \"#utility.yul\":11712:11831   */\n      iszero\n      tag_291\n      jumpi\n        /* \"#utility.yul\":11750:11829   */\n      tag_292\n      tag_124\n      jump\t// in\n    tag_292:\n        /* \"#utility.yul\":11712:11831   */\n    tag_291:\n        /* \"#utility.yul\":11870:11871   */\n      0x00\n        /* \"#utility.yul\":11895:11956   */\n      tag_293\n        /* \"#utility.yul\":11948:11955   */\n      dup5\n        /* \"#utility.yul\":11939:11945   */\n      dup3\n        /* \"#utility.yul\":11928:11937   */\n      dup6\n        /* \"#utility.yul\":11924:11946   */\n      add\n        /* \"#utility.yul\":11895:11956   */\n      tag_156\n      jump\t// in\n    tag_293:\n        /* \"#utility.yul\":11885:11956   */\n      swap2\n      pop\n        /* \"#utility.yul\":11841:11966   */\n      pop\n        /* \"#utility.yul\":11628:11973   */\n      swap3\n      swap2\n      pop\n      pop\n      jump\t// out\n        /* \"#utility.yul\":11979:12738   */\n    tag_70:\n        /* \"#utility.yul\":12204:12208   */\n      0x00\n        /* \"#utility.yul\":12242:12245   */\n      0xc0\n        /* \"#utility.yul\":12231:12240   */\n      dup3\n        /* \"#utility.yul\":12227:12246   */\n      add\n        /* \"#utility.yul\":12219:12246   */\n      swap1\n      pop\n        /* \"#utility.yul\":12256:12327   */\n      tag_295\n        /* \"#utility.yul\":12324:12325   */\n      0x00\n        /* \"#utility.yul\":12313:12322   */\n      dup4\n        /* \"#utility.yul\":12309:12326   */\n      add\n        /* \"#utility.yul\":12300:12306   */\n      dup10\n        /* \"#utility.yul\":12256:12327   */\n      tag_140\n      jump\t// in\n    tag_295:\n        /* \"#utility.yul\":12337:12409   */\n      tag_296\n        /* \"#utility.yul\":12405:12407   */\n      0x20\n        /* \"#utility.yul\":12394:12403   */\n      dup4\n        /* \"#utility.yul\":12390:12408   */\n      add\n        /* \"#utility.yul\":12381:12387   */\n      dup9\n        /* \"#utility.yul\":12337:12409   */\n      tag_136\n      jump\t// in\n    tag_296:\n        /* \"#utility.yul\":12419:12491   */\n      tag_297\n        /* \"#utility.yul\":12487:12489   */\n      0x40\n        /* \"#utility.yul\":12476:12485   */\n      dup4\n        /* \"#utility.yul\":12472:12490   */\n      add\n        /* \"#utility.yul\":12463:12469   */\n      dup8\n        /* \"#utility.yul\":12419:12491   */\n      tag_136\n      jump\t// in\n    tag_297:\n        /* \"#utility.yul\":12501:12569   */\n      tag_298\n        /* \"#utility.yul\":12565:12567   */\n      0x60\n        /* \"#utility.yul\":12554:12563   */\n      dup4\n        /* \"#utility.yul\":12550:12568   */\n      add\n        /* \"#utility.yul\":12541:12547   */\n      dup7\n        /* \"#utility.yul\":12501:12569   */\n      tag_139\n      jump\t// in\n    tag_298:\n        /* \"#utility.yul\":12579:12652   */\n      tag_299\n        /* \"#utility.yul\":12647:12650   */\n      0x80\n        /* \"#utility.yul\":12636:12645   */\n      dup4\n        /* \"#utility.yul\":12632:12651   */\n      add\n        /* \"#utility.yul\":12623:12629   */\n      dup6\n        /* \"#utility.yul\":12579:12652   */\n      tag_136\n      jump\t// in\n    tag_299:\n        /* \"#utility.yul\":12662:12731   */\n      tag_300\n        /* \"#utility.yul\":12726:12729   */\n      0xa0\n        /* \"#utility.yul\":12715:12724   */\n      dup4\n        /* \"#utility.yul\":12711:12730   */\n      add\n        /* \"#utility.yul\":12702:12708   */\n      dup5\n        /* \"#utility.yul\":12662:12731   */\n      tag_139\n      jump\t// in\n    tag_300:\n        /* \"#utility.yul\":11979:12738   */\n      swap8\n      swap7\n      pop\n      pop\n      pop\n      pop\n      pop\n      pop\n      pop\n      jump\t// out\n        /* \"#utility.yul\":12744:12924   */\n    tag_74:\n        /* \"#utility.yul\":12792:12869   */\n      0x4e487b7100000000000000000000000000000000000000000000000000000000\n        /* \"#utility.yul\":12789:12790   */\n      0x00\n        /* \"#utility.yul\":12782:12870   */\n      mstore\n        /* \"#utility.yul\":12889:12893   */\n      0x32\n        /* \"#utility.yul\":12886:12887   */\n      0x04\n        /* \"#utility.yul\":12879:12894   */\n      mstore\n        /* \"#utility.yul\":12913:12917   */\n      0x24\n        /* \"#utility.yul\":12910:12911   */\n      0x00\n        /* \"#utility.yul\":12903:12918   */\n      revert\n        /* \"#utility.yul\":12930:13106   */\n    tag_157:\n        /* \"#utility.yul\":13070:13098   */\n      0x46756e64732068617665206e6f74206265656e206c6f636b6564000000000000\n        /* \"#utility.yul\":13066:13067   */\n      0x00\n        /* \"#utility.yul\":13058:13064   */\n      dup3\n        /* \"#utility.yul\":13054:13068   */\n      add\n        /* \"#utility.yul\":13047:13099   */\n      mstore\n        /* \"#utility.yul\":12930:13106   */\n      pop\n      jump\t// out\n        /* \"#utility.yul\":13112:13478   */\n    tag_158:\n        /* \"#utility.yul\":13254:13257   */\n      0x00\n        /* \"#utility.yul\":13275:13342   */\n      tag_304\n        /* \"#utility.yul\":13339:13341   */\n      0x1a\n        /* \"#utility.yul\":13334:13337   */\n      dup4\n        /* \"#utility.yul\":13275:13342   */\n      tag_146\n      jump\t// in\n    tag_304:\n        /* \"#utility.yul\":13268:13342   */\n      swap2\n      pop\n        /* \"#utility.yul\":13351:13444   */\n      tag_305\n        /* \"#utility.yul\":13440:13443   */\n      dup3\n        /* \"#utility.yul\":13351:13444   */\n      tag_157\n      jump\t// in\n    tag_305:\n        /* \"#utility.yul\":13469:13471   */\n      0x20\n        /* \"#utility.yul\":13464:13467   */\n      dup3\n        /* \"#utility.yul\":13460:13472   */\n      add\n        /* \"#utility.yul\":13453:13472   */\n      swap1\n      pop\n        /* \"#utility.yul\":13112:13478   */\n      swap2\n      swap1\n      pop\n      jump\t// out\n        /* \"#utility.yul\":13484:13903   */\n    tag_78:\n        /* \"#utility.yul\":13650:13654   */\n      0x00\n        /* \"#utility.yul\":13688:13690   */\n      0x20\n        /* \"#utility.yul\":13677:13686   */\n      dup3\n        /* \"#utility.yul\":13673:13691   */\n      add\n        /* \"#utility.yul\":13665:13691   */\n      swap1\n      pop\n        /* \"#utility.yul\":13737:13746   */\n      dup2\n        /* \"#utility.yul\":13731:13735   */\n      dup2\n        /* \"#utility.yul\":13727:13747   */\n      sub\n        /* \"#utility.yul\":13723:13724   */\n      0x00\n        /* \"#utility.yul\":13712:13721   */\n      dup4\n        /* \"#utility.yul\":13708:13725   */\n      add\n        /* \"#utility.yul\":13701:13748   */\n      mstore\n        /* \"#utility.yul\":13765:13896   */\n      tag_307\n        /* \"#utility.yul\":13891:13895   */\n      dup2\n        /* \"#utility.yul\":13765:13896   */\n      tag_158\n      jump\t// in\n    tag_307:\n        /* \"#utility.yul\":13757:13896   */\n      swap1\n      pop\n        /* \"#utility.yul\":13484:13903   */\n      swap2\n      swap1\n      pop\n      jump\t// out\n        /* \"#utility.yul\":13909:14129   */\n    tag_159:\n        /* \"#utility.yul\":14049:14083   */\n      0x546f6b656e20756e646572206c6f636b696e6720706c6561736520776169742e\n        /* \"#utility.yul\":14045:14046   */\n      0x00\n        /* \"#utility.yul\":14037:14043   */\n      dup3\n        /* \"#utility.yul\":14033:14047   */\n      add\n        /* \"#utility.yul\":14026:14084   */\n      mstore\n        /* \"#utility.yul\":14118:14121   */\n      0x2e00000000000000000000000000000000000000000000000000000000000000\n        /* \"#utility.yul\":14113:14115   */\n      0x20\n        /* \"#utility.yul\":14105:14111   */\n      dup3\n        /* \"#utility.yul\":14101:14116   */\n      add\n        /* \"#utility.yul\":14094:14122   */\n      mstore\n        /* \"#utility.yul\":13909:14129   */\n      pop\n      jump\t// out\n        /* \"#utility.yul\":14135:14501   */\n    tag_160:\n        /* \"#utility.yul\":14277:14280   */\n      0x00\n        /* \"#utility.yul\":14298:14365   */\n      tag_310\n        /* \"#utility.yul\":14362:14364   */\n      0x21\n        /* \"#utility.yul\":14357:14360   */\n      dup4\n        /* \"#utility.yul\":14298:14365   */\n      tag_146\n      jump\t// in\n    tag_310:\n        /* \"#utility.yul\":14291:14365   */\n      swap2\n      pop\n        /* \"#utility.yul\":14374:14467   */\n      tag_311\n        /* \"#utility.yul\":14463:14466   */\n      dup3\n        /* \"#utility.yul\":14374:14467   */\n      tag_159\n      jump\t// in\n    tag_311:\n        /* \"#utility.yul\":14492:14494   */\n      0x40\n        /* \"#utility.yul\":14487:14490   */\n      dup3\n        /* \"#utility.yul\":14483:14495   */\n      add\n        /* \"#utility.yul\":14476:14495   */\n      swap1\n      pop\n        /* \"#utility.yul\":14135:14501   */\n      swap2\n      swap1\n      pop\n      jump\t// out\n        /* \"#utility.yul\":14507:14926   */\n    tag_82:\n        /* \"#utility.yul\":14673:14677   */\n      0x00\n        /* \"#utility.yul\":14711:14713   */\n      0x20\n        /* \"#utility.yul\":14700:14709   */\n      dup3\n        /* \"#utility.yul\":14696:14714   */\n      add\n        /* \"#utility.yul\":14688:14714   */\n      swap1\n      pop\n        /* \"#utility.yul\":14760:14769   */\n      dup2\n        /* \"#utility.yul\":14754:14758   */\n      dup2\n        /* \"#utility.yul\":14750:14770   */\n      sub\n        /* \"#utility.yul\":14746:14747   */\n      0x00\n        /* \"#utility.yul\":14735:14744   */\n      dup4\n        /* \"#utility.yul\":14731:14748   */\n      add\n        /* \"#utility.yul\":14724:14771   */\n      mstore\n        /* \"#utility.yul\":14788:14919   */\n      tag_313\n        /* \"#utility.yul\":14914:14918   */\n      dup2\n        /* \"#utility.yul\":14788:14919   */\n      tag_160\n      jump\t// in\n    tag_313:\n        /* \"#utility.yul\":14780:14919   */\n      swap1\n      pop\n        /* \"#utility.yul\":14507:14926   */\n      swap2\n      swap1\n      pop\n      jump\t// out\n        /* \"#utility.yul\":14932:15123   */\n    tag_85:\n        /* \"#utility.yul\":14972:14975   */\n      0x00\n        /* \"#utility.yul\":14991:15011   */\n      tag_315\n        /* \"#utility.yul\":15009:15010   */\n      dup3\n        /* \"#utility.yul\":14991:15011   */\n      tag_126\n      jump\t// in\n    tag_315:\n        /* \"#utility.yul\":14986:15011   */\n      swap2\n      pop\n        /* \"#utility.yul\":15025:15045   */\n      tag_316\n        /* \"#utility.yul\":15043:15044   */\n      dup4\n        /* \"#utility.yul\":15025:15045   */\n      tag_126\n      jump\t// in\n    tag_316:\n        /* \"#utility.yul\":15020:15045   */\n      swap3\n      pop\n        /* \"#utility.yul\":15068:15069   */\n      dup3\n        /* \"#utility.yul\":15065:15066   */\n      dup3\n        /* \"#utility.yul\":15061:15070   */\n      add\n        /* \"#utility.yul\":15054:15070   */\n      swap1\n      pop\n        /* \"#utility.yul\":15089:15092   */\n      dup1\n        /* \"#utility.yul\":15086:15087   */\n      dup3\n        /* \"#utility.yul\":15083:15093   */\n      gt\n        /* \"#utility.yul\":15080:15116   */\n      iszero\n      tag_317\n      jumpi\n        /* \"#utility.yul\":15096:15114   */\n      tag_318\n      tag_153\n      jump\t// in\n    tag_318:\n        /* \"#utility.yul\":15080:15116   */\n    tag_317:\n        /* \"#utility.yul\":14932:15123   */\n      swap3\n      swap2\n      pop\n      pop\n      jump\t// out\n        /* \"#utility.yul\":15129:15302   */\n    tag_161:\n        /* \"#utility.yul\":15269:15294   */\n      0x436c696666206973206e6f7420656e646564207965742e000000000000000000\n        /* \"#utility.yul\":15265:15266   */\n      0x00\n        /* \"#utility.yul\":15257:15263   */\n      dup3\n        /* \"#utility.yul\":15253:15267   */\n      add\n        /* \"#utility.yul\":15246:15295   */\n      mstore\n        /* \"#utility.yul\":15129:15302   */\n      pop\n      jump\t// out\n        /* \"#utility.yul\":15308:15674   */\n    tag_162:\n        /* \"#utility.yul\":15450:15453   */\n      0x00\n        /* \"#utility.yul\":15471:15538   */\n      tag_321\n        /* \"#utility.yul\":15535:15537   */\n      0x17\n        /* \"#utility.yul\":15530:15533   */\n      dup4\n        /* \"#utility.yul\":15471:15538   */\n      tag_146\n      jump\t// in\n    tag_321:\n        /* \"#utility.yul\":15464:15538   */\n      swap2\n      pop\n        /* \"#utility.yul\":15547:15640   */\n      tag_322\n        /* \"#utility.yul\":15636:15639   */\n      dup3\n        /* \"#utility.yul\":15547:15640   */\n      tag_161\n      jump\t// in\n    tag_322:\n        /* \"#utility.yul\":15665:15667   */\n      0x20\n        /* \"#utility.yul\":15660:15663   */\n      dup3\n        /* \"#utility.yul\":15656:15668   */\n      add\n        /* \"#utility.yul\":15649:15668   */\n      swap1\n      pop\n        /* \"#utility.yul\":15308:15674   */\n      swap2\n      swap1\n      pop\n      jump\t// out\n        /* \"#utility.yul\":15680:16099   */\n    tag_88:\n        /* \"#utility.yul\":15846:15850   */\n      0x00\n        /* \"#utility.yul\":15884:15886   */\n      0x20\n        /* \"#utility.yul\":15873:15882   */\n      dup3\n        /* \"#utility.yul\":15869:15887   */\n      add\n        /* \"#utility.yul\":15861:15887   */\n      swap1\n      pop\n        /* \"#utility.yul\":15933:15942   */\n      dup2\n        /* \"#utility.yul\":15927:15931   */\n      dup2\n        /* \"#utility.yul\":15923:15943   */\n      sub\n        /* \"#utility.yul\":15919:15920   */\n      0x00\n        /* \"#utility.yul\":15908:15917   */\n      dup4\n        /* \"#utility.yul\":15904:15921   */\n      add\n        /* \"#utility.yul\":15897:15944   */\n      mstore\n        /* \"#utility.yul\":15961:16092   */\n      tag_324\n        /* \"#utility.yul\":16087:16091   */\n      dup2\n        /* \"#utility.yul\":15961:16092   */\n      tag_162\n      jump\t// in\n    tag_324:\n        /* \"#utility.yul\":15953:16092   */\n      swap1\n      pop\n        /* \"#utility.yul\":15680:16099   */\n      swap2\n      swap1\n      pop\n      jump\t// out\n        /* \"#utility.yul\":16105:16285   */\n    tag_163:\n        /* \"#utility.yul\":16245:16277   */\n      0x4e6f7420656e6f75676820616d6f756e7420666f722077697468647261770000\n        /* \"#utility.yul\":16241:16242   */\n      0x00\n        /* \"#utility.yul\":16233:16239   */\n      dup3\n        /* \"#utility.yul\":16229:16243   */\n      add\n        /* \"#utility.yul\":16222:16278   */\n      mstore\n        /* \"#utility.yul\":16105:16285   */\n      pop\n      jump\t// out\n        /* \"#utility.yul\":16291:16657   */\n    tag_164:\n        /* \"#utility.yul\":16433:16436   */\n      0x00\n        /* \"#utility.yul\":16454:16521   */\n      tag_327\n        /* \"#utility.yul\":16518:16520   */\n      0x1e\n        /* \"#utility.yul\":16513:16516   */\n      dup4\n        /* \"#utility.yul\":16454:16521   */\n      tag_146\n      jump\t// in\n    tag_327:\n        /* \"#utility.yul\":16447:16521   */\n      swap2\n      pop\n        /* \"#utility.yul\":16530:16623   */\n      tag_328\n        /* \"#utility.yul\":16619:16622   */\n      dup3\n        /* \"#utility.yul\":16530:16623   */\n      tag_163\n      jump\t// in\n    tag_328:\n        /* \"#utility.yul\":16648:16650   */\n      0x20\n        /* \"#utility.yul\":16643:16646   */\n      dup3\n        /* \"#utility.yul\":16639:16651   */\n      add\n        /* \"#utility.yul\":16632:16651   */\n      swap1\n      pop\n        /* \"#utility.yul\":16291:16657   */\n      swap2\n      swap1\n      pop\n      jump\t// out\n        /* \"#utility.yul\":16663:17082   */\n    tag_92:\n        /* \"#utility.yul\":16829:16833   */\n      0x00\n        /* \"#utility.yul\":16867:16869   */\n      0x20\n        /* \"#utility.yul\":16856:16865   */\n      dup3\n        /* \"#utility.yul\":16852:16870   */\n      add\n        /* \"#utility.yul\":16844:16870   */\n      swap1\n      pop\n        /* \"#utility.yul\":16916:16925   */\n      dup2\n        /* \"#utility.yul\":16910:16914   */\n      dup2\n        /* \"#utility.yul\":16906:16926   */\n      sub\n        /* \"#utility.yul\":16902:16903   */\n      0x00\n        /* \"#utility.yul\":16891:16900   */\n      dup4\n        /* \"#utility.yul\":16887:16904   */\n      add\n        /* \"#utility.yul\":16880:16927   */\n      mstore\n        /* \"#utility.yul\":16944:17075   */\n      tag_330\n        /* \"#utility.yul\":17070:17074   */\n      dup2\n        /* \"#utility.yul\":16944:17075   */\n      tag_164\n      jump\t// in\n    tag_330:\n        /* \"#utility.yul\":16936:17075   */\n      swap1\n      pop\n        /* \"#utility.yul\":16663:17082   */\n      swap2\n      swap1\n      pop\n      jump\t// out\n        /* \"#utility.yul\":17088:17420   */\n    tag_94:\n        /* \"#utility.yul\":17209:17213   */\n      0x00\n        /* \"#utility.yul\":17247:17249   */\n      0x40\n        /* \"#utility.yul\":17236:17245   */\n      dup3\n        /* \"#utility.yul\":17232:17250   */\n      add\n        /* \"#utility.yul\":17224:17250   */\n      swap1\n      pop\n        /* \"#utility.yul\":17260:17331   */\n      tag_332\n        /* \"#utility.yul\":17328:17329   */\n      0x00\n        /* \"#utility.yul\":17317:17326   */\n      dup4\n        /* \"#utility.yul\":17313:17330   */\n      add\n        /* \"#utility.yul\":17304:17310   */\n      dup6\n        /* \"#utility.yul\":17260:17331   */\n      tag_140\n      jump\t// in\n    tag_332:\n        /* \"#utility.yul\":17341:17413   */\n      tag_333\n        /* \"#utility.yul\":17409:17411   */\n      0x20\n        /* \"#utility.yul\":17398:17407   */\n      dup4\n        /* \"#utility.yul\":17394:17412   */\n      add\n        /* \"#utility.yul\":17385:17391   */\n      dup5\n        /* \"#utility.yul\":17341:17413   */\n      tag_136\n      jump\t// in\n    tag_333:\n        /* \"#utility.yul\":17088:17420   */\n      swap4\n      swap3\n      pop\n      pop\n      pop\n      jump\t// out\n        /* \"#utility.yul\":17426:17620   */\n    tag_100:\n        /* \"#utility.yul\":17466:17470   */\n      0x00\n        /* \"#utility.yul\":17486:17506   */\n      tag_335\n        /* \"#utility.yul\":17504:17505   */\n      dup3\n        /* \"#utility.yul\":17486:17506   */\n      tag_126\n      jump\t// in\n    tag_335:\n        /* \"#utility.yul\":17481:17506   */\n      swap2\n      pop\n        /* \"#utility.yul\":17520:17540   */\n      tag_336\n        /* \"#utility.yul\":17538:17539   */\n      dup4\n        /* \"#utility.yul\":17520:17540   */\n      tag_126\n      jump\t// in\n    tag_336:\n        /* \"#utility.yul\":17515:17540   */\n      swap3\n      pop\n        /* \"#utility.yul\":17564:17565   */\n      dup3\n        /* \"#utility.yul\":17561:17562   */\n      dup3\n        /* \"#utility.yul\":17557:17566   */\n      sub\n        /* \"#utility.yul\":17549:17566   */\n      swap1\n      pop\n        /* \"#utility.yul\":17588:17589   */\n      dup2\n        /* \"#utility.yul\":17582:17586   */\n      dup2\n        /* \"#utility.yul\":17579:17590   */\n      gt\n        /* \"#utility.yul\":17576:17613   */\n      iszero\n      tag_337\n      jumpi\n        /* \"#utility.yul\":17593:17611   */\n      tag_338\n      tag_153\n      jump\t// in\n    tag_338:\n        /* \"#utility.yul\":17576:17613   */\n    tag_337:\n        /* \"#utility.yul\":17426:17620   */\n      swap3\n      swap2\n      pop\n      pop\n      jump\t// out\n        /* \"#utility.yul\":17626:18068   */\n    tag_103:\n        /* \"#utility.yul\":17775:17779   */\n      0x00\n        /* \"#utility.yul\":17813:17815   */\n      0x60\n        /* \"#utility.yul\":17802:17811   */\n      dup3\n        /* \"#utility.yul\":17798:17816   */\n      add\n        /* \"#utility.yul\":17790:17816   */\n      swap1\n      pop\n        /* \"#utility.yul\":17826:17897   */\n      tag_340\n        /* \"#utility.yul\":17894:17895   */\n      0x00\n        /* \"#utility.yul\":17883:17892   */\n      dup4\n        /* \"#utility.yul\":17879:17896   */\n      add\n        /* \"#utility.yul\":17870:17876   */\n      dup7\n        /* \"#utility.yul\":17826:17897   */\n      tag_140\n      jump\t// in\n    tag_340:\n        /* \"#utility.yul\":17907:17979   */\n      tag_341\n        /* \"#utility.yul\":17975:17977   */\n      0x20\n        /* \"#utility.yul\":17964:17973   */\n      dup4\n        /* \"#utility.yul\":17960:17978   */\n      add\n        /* \"#utility.yul\":17951:17957   */\n      dup6\n        /* \"#utility.yul\":17907:17979   */\n      tag_136\n      jump\t// in\n    tag_341:\n        /* \"#utility.yul\":17989:18061   */\n      tag_342\n        /* \"#utility.yul\":18057:18059   */\n      0x40\n        /* \"#utility.yul\":18046:18055   */\n      dup4\n        /* \"#utility.yul\":18042:18060   */\n      add\n        /* \"#utility.yul\":18033:18039   */\n      dup5\n        /* \"#utility.yul\":17989:18061   */\n      tag_136\n      jump\t// in\n    tag_342:\n        /* \"#utility.yul\":17626:18068   */\n      swap5\n      swap4\n      pop\n      pop\n      pop\n      pop\n      jump\t// out\n        /* \"#utility.yul\":18074:18307   */\n    tag_165:\n        /* \"#utility.yul\":18214:18248   */\n      0x4f6e6c792074686520636f6e7472616374206f776e65722063616e2063616c6c\n        /* \"#utility.yul\":18210:18211   */\n      0x00\n        /* \"#utility.yul\":18202:18208   */\n      dup3\n        /* \"#utility.yul\":18198:18212   */\n      add\n        /* \"#utility.yul\":18191:18249   */\n      mstore\n        /* \"#utility.yul\":18283:18299   */\n      0x20746869732066756e6374696f6e000000000000000000000000000000000000\n        /* \"#utility.yul\":18278:18280   */\n      0x20\n        /* \"#utility.yul\":18270:18276   */\n      dup3\n        /* \"#utility.yul\":18266:18281   */\n      add\n        /* \"#utility.yul\":18259:18300   */\n      mstore\n        /* \"#utility.yul\":18074:18307   */\n      pop\n      jump\t// out\n        /* \"#utility.yul\":18313:18679   */\n    tag_166:\n        /* \"#utility.yul\":18455:18458   */\n      0x00\n        /* \"#utility.yul\":18476:18543   */\n      tag_345\n        /* \"#utility.yul\":18540:18542   */\n      0x2e\n        /* \"#utility.yul\":18535:18538   */\n      dup4\n        /* \"#utility.yul\":18476:18543   */\n      tag_146\n      jump\t// in\n    tag_345:\n        /* \"#utility.yul\":18469:18543   */\n      swap2\n      pop\n        /* \"#utility.yul\":18552:18645   */\n      tag_346\n        /* \"#utility.yul\":18641:18644   */\n      dup3\n        /* \"#utility.yul\":18552:18645   */\n      tag_165\n      jump\t// in\n    tag_346:\n        /* \"#utility.yul\":18670:18672   */\n      0x40\n        /* \"#utility.yul\":18665:18668   */\n      dup3\n        /* \"#utility.yul\":18661:18673   */\n      add\n        /* \"#utility.yul\":18654:18673   */\n      swap1\n      pop\n        /* \"#utility.yul\":18313:18679   */\n      swap2\n      swap1\n      pop\n      jump\t// out\n        /* \"#utility.yul\":18685:19104   */\n    tag_121:\n        /* \"#utility.yul\":18851:18855   */\n      0x00\n        /* \"#utility.yul\":18889:18891   */\n      0x20\n        /* \"#utility.yul\":18878:18887   */\n      dup3\n        /* \"#utility.yul\":18874:18892   */\n      add\n        /* \"#utility.yul\":18866:18892   */\n      swap1\n      pop\n        /* \"#utility.yul\":18938:18947   */\n      dup2\n        /* \"#utility.yul\":18932:18936   */\n      dup2\n        /* \"#utility.yul\":18928:18948   */\n      sub\n        /* \"#utility.yul\":18924:18925   */\n      0x00\n        /* \"#utility.yul\":18913:18922   */\n      dup4\n        /* \"#utility.yul\":18909:18926   */\n      add\n        /* \"#utility.yul\":18902:18949   */\n      mstore\n        /* \"#utility.yul\":18966:19097   */\n      tag_348\n        /* \"#utility.yul\":19092:19096   */\n      dup2\n        /* \"#utility.yul\":18966:19097   */\n      tag_166\n      jump\t// in\n    tag_348:\n        /* \"#utility.yul\":18958:19097   */\n      swap1\n      pop\n        /* \"#utility.yul\":18685:19104   */\n      swap2\n      swap1\n      pop\n      jump\t// out\n\n    auxdata: 0xa2646970667358221220f6bbb98745e95f4f5a0080bac6c98ebdd9fe2ef443c6529046e1d02790cfa31764736f6c63430008120033\n}\n",
				"bytecode": {
					"linkReferences": {},
					"object": "608060405234801561001057600080fd5b5033600160006101000a81548173ffffffffffffffffffffffffffffffffffffffff021916908373ffffffffffffffffffffffffffffffffffffffff1602179055506115dd806100616000396000f3fe608060405234801561001057600080fd5b50600436106100885760003560e01c80639b19251a1161005b5780639b19251a14610113578063bd84477d14610143578063f80f5dd51461017b578063fc0c546a1461019757610088565b80631a072a221461008d5780632e1a7d4d146100a9578063557ed1ba146100c55780635952ffd1146100e3575b600080fd5b6100a760048036038101906100a29190610c5f565b6101b5565b005b6100c360048036038101906100be9190610cec565b6105c0565b005b6100cd6108bc565b6040516100da9190610d28565b60405180910390f35b6100fd60048036038101906100f89190610cec565b6108c4565b60405161010a9190610d28565b60405180910390f35b61012d60048036038101906101289190610d43565b6109ac565b60405161013a9190610d8b565b60405180910390f35b61015d60048036038101906101589190610da6565b6109cc565b60405161017299989796959493929190610e04565b60405180910390f35b61019560048036038101906101909190610d43565b610a7e565b005b61019f610b69565b6040516101ac9190610ef0565b60405180910390f35b85858483600084116101fc576040517f08c379a00000000000000000000000000000000000000000000000000000000081526004016101f390610f68565b60405180910390fd5b600460008273ffffffffffffffffffffffffffffffffffffffff1673ffffffffffffffffffffffffffffffffffffffff16815260200190815260200160002060009054906101000a900460ff16610288576040517f08c379a000000000000000000000000000000000000000000000000000000000815260040161027f90610ffa565b60405180910390fd5b828260ff16106102cd576040517f08c379a00000000000000000000000000000000000000000000000000000000081526004016102c490611066565b60405180910390fd5b60006040518061012001604052808c81526020014281526020018b81526020016001151581526020018a60ff1681526020018960ff1681526020018b8d8c60ff1661031891906110b5565b6103229190611126565b81526020018873ffffffffffffffffffffffffffffffffffffffff16815260200160008152509050600360003373ffffffffffffffffffffffffffffffffffffffff1673ffffffffffffffffffffffffffffffffffffffff16815260200190815260200160002081908060018154018082558091505060019003906000526020600020906007020160009091909190915060008201518160000155602082015181600101556040820151816002015560608201518160030160006101000a81548160ff02191690831515021790555060808201518160030160016101000a81548160ff021916908360ff16021790555060a08201518160030160026101000a81548160ff021916908360ff16021790555060c0820151816004015560e08201518160050160006101000a81548173ffffffffffffffffffffffffffffffffffffffff021916908373ffffffffffffffffffffffffffffffffffffffff16021790555061010082015181600601555050856000806101000a81548173ffffffffffffffffffffffffffffffffffffffff021916908373ffffffffffffffffffffffffffffffffffffffff16021790555060008054906101000a900473ffffffffffffffffffffffffffffffffffffffff1673ffffffffffffffffffffffffffffffffffffffff166323b872dd33308e6040518463ffffffff1660e01b815260040161052e93929190611157565b6020604051808303816000875af115801561054d573d6000803e3d6000fd5b505050506040513d601f19601f8201168201806040525081019061057191906111ba565b507fb2e88791d817c746d5e5fe14d588911bb8e67f1fe02d38cf2ed5c01d9ac07a07338c8c8c428d6040516105ab969594939291906111e7565b60405180910390a15050505050505050505050565b6000600360003373ffffffffffffffffffffffffffffffffffffffff1673ffffffffffffffffffffffffffffffffffffffff168152602001908152602001600020828154811061061357610612611248565b5b906000526020600020906007020190508060030160009054906101000a900460ff16610674576040517f08c379a000000000000000000000000000000000000000000000000000000000815260040161066b906112c3565b60405180910390fd5b80600101546106816108bc565b116106c1576040517f08c379a00000000000000000000000000000000000000000000000000000000081526004016106b890611355565b60405180910390fd5b6106c96108bc565b81600101548260030160029054906101000a900460ff1660ff166106ed9190611375565b1061072d576040517f08c379a0000000000000000000000000000000000000000000000000000000008152600401610724906113f5565b60405180910390fd5b6000610738836108c4565b90506000811161077d576040517f08c379a000000000000000000000000000000000000000000000000000000000815260040161077490611461565b60405180910390fd5b60008054906101000a900473ffffffffffffffffffffffffffffffffffffffff1673ffffffffffffffffffffffffffffffffffffffff1663a9059cbb33836040518363ffffffff1660e01b81526004016107d8929190611481565b6020604051808303816000875af11580156107f7573d6000803e3d6000fd5b505050506040513d601f19601f8201168201806040525081019061081b91906111ba565b50808260060160008282546108309190611375565b925050819055508082600001600082825461084b91906114aa565b92505081905550600082600001540361087c5760008260030160006101000a81548160ff0219169083151502179055505b7fccdb21e8b29fbf756f29d5f05c72606ca9e8160ec1a135ca6f50dae471188cec3384836040516108af939291906114de565b60405180910390a1505050565b600042905090565b600080600360003373ffffffffffffffffffffffffffffffffffffffff1673ffffffffffffffffffffffffffffffffffffffff168152602001908152602001600020838154811061091857610917611248565b5b9060005260206000209060070201905060008160030160019054906101000a900460ff1660ff16826001015461094c6108bc565b61095691906114aa565b6109609190611126565b90506000826006015483600401548361097991906110b5565b61098391906114aa565b9050826000015481101561099c578093505050506109a7565b826000015493505050505b919050565b60046020528060005260406000206000915054906101000a900460ff1681565b600360205281600052604060002081815481106109e857600080fd5b9060005260206000209060070201600091509150508060000154908060010154908060020154908060030160009054906101000a900460ff16908060030160019054906101000a900460ff16908060030160029054906101000a900460ff16908060040154908060050160009054906101000a900473ffffffffffffffffffffffffffffffffffffffff16908060060154905089565b600160009054906101000a900473ffffffffffffffffffffffffffffffffffffffff1673ffffffffffffffffffffffffffffffffffffffff163373ffffffffffffffffffffffffffffffffffffffff1614610b0e576040517f08c379a0000000000000000000000000000000000000000000000000000000008152600401610b0590611587565b60405180910390fd5b6001600460008373ffffffffffffffffffffffffffffffffffffffff1673ffffffffffffffffffffffffffffffffffffffff16815260200190815260200160002060006101000a81548160ff02191690831515021790555050565b60008054906101000a900473ffffffffffffffffffffffffffffffffffffffff1681565b600080fd5b6000819050919050565b610ba581610b92565b8114610bb057600080fd5b50565b600081359050610bc281610b9c565b92915050565b600060ff82169050919050565b610bde81610bc8565b8114610be957600080fd5b50565b600081359050610bfb81610bd5565b92915050565b600073ffffffffffffffffffffffffffffffffffffffff82169050919050565b6000610c2c82610c01565b9050919050565b610c3c81610c21565b8114610c4757600080fd5b50565b600081359050610c5981610c33565b92915050565b60008060008060008060c08789031215610c7c57610c7b610b8d565b5b6000610c8a89828a01610bb3565b9650506020610c9b89828a01610bb3565b9550506040610cac89828a01610bec565b9450506060610cbd89828a01610bec565b9350506080610cce89828a01610c4a565b92505060a0610cdf89828a01610c4a565b9150509295509295509295565b600060208284031215610d0257610d01610b8d565b5b6000610d1084828501610bb3565b91505092915050565b610d2281610b92565b82525050565b6000602082019050610d3d6000830184610d19565b92915050565b600060208284031215610d5957610d58610b8d565b5b6000610d6784828501610c4a565b91505092915050565b60008115159050919050565b610d8581610d70565b82525050565b6000602082019050610da06000830184610d7c565b92915050565b60008060408385031215610dbd57610dbc610b8d565b5b6000610dcb85828601610c4a565b9250506020610ddc85828601610bb3565b9150509250929050565b610def81610bc8565b82525050565b610dfe81610c21565b82525050565b600061012082019050610e1a600083018c610d19565b610e27602083018b610d19565b610e34604083018a610d19565b610e416060830189610d7c565b610e4e6080830188610de6565b610e5b60a0830187610de6565b610e6860c0830186610d19565b610e7560e0830185610df5565b610e83610100830184610d19565b9a9950505050505050505050565b6000819050919050565b6000610eb6610eb1610eac84610c01565b610e91565b610c01565b9050919050565b6000610ec882610e9b565b9050919050565b6000610eda82610ebd565b9050919050565b610eea81610ecf565b82525050565b6000602082019050610f056000830184610ee1565b92915050565b600082825260208201905092915050565b7f416d6f756e74206e6f74206265205a65726f0000000000000000000000000000600082015250565b6000610f52601283610f0b565b9150610f5d82610f1c565b602082019050919050565b60006020820190508181036000830152610f8181610f45565b9050919050565b7f596f7520617265206e6f7420616c6c6f77656420746f2075736520746869732060008201527f636f6e74726163742e0000000000000000000000000000000000000000000000602082015250565b6000610fe4602983610f0b565b9150610fef82610f88565b604082019050919050565b6000602082019050818103600083015261101381610fd7565b9050919050565b7f436c696666206d757374206d65206c657373207468616e206475726174696f6e600082015250565b6000611050602083610f0b565b915061105b8261101a565b602082019050919050565b6000602082019050818103600083015261107f81611043565b9050919050565b7f4e487b7100000000000000000000000000000000000000000000000000000000600052601160045260246000fd5b60006110c082610b92565b91506110cb83610b92565b92508282026110d981610b92565b915082820484148315176110f0576110ef611086565b5b5092915050565b7f4e487b7100000000000000000000000000000000000000000000000000000000600052601260045260246000fd5b600061113182610b92565b915061113c83610b92565b92508261114c5761114b6110f7565b5b828204905092915050565b600060608201905061116c6000830186610df5565b6111796020830185610df5565b6111866040830184610d19565b949350505050565b61119781610d70565b81146111a257600080fd5b50565b6000815190506111b48161118e565b92915050565b6000602082840312156111d0576111cf610b8d565b5b60006111de848285016111a5565b91505092915050565b600060c0820190506111fc6000830189610df5565b6112096020830188610d19565b6112166040830187610d19565b6112236060830186610de6565b6112306080830185610d19565b61123d60a0830184610de6565b979650505050505050565b7f4e487b7100000000000000000000000000000000000000000000000000000000600052603260045260246000fd5b7f46756e64732068617665206e6f74206265656e206c6f636b6564000000000000600082015250565b60006112ad601a83610f0b565b91506112b882611277565b602082019050919050565b600060208201905081810360008301526112dc816112a0565b9050919050565b7f546f6b656e20756e646572206c6f636b696e6720706c6561736520776169742e60008201527f2e00000000000000000000000000000000000000000000000000000000000000602082015250565b600061133f602183610f0b565b915061134a826112e3565b604082019050919050565b6000602082019050818103600083015261136e81611332565b9050919050565b600061138082610b92565b915061138b83610b92565b92508282019050808211156113a3576113a2611086565b5b92915050565b7f436c696666206973206e6f7420656e646564207965742e000000000000000000600082015250565b60006113df601783610f0b565b91506113ea826113a9565b602082019050919050565b6000602082019050818103600083015261140e816113d2565b9050919050565b7f4e6f7420656e6f75676820616d6f756e7420666f722077697468647261770000600082015250565b600061144b601e83610f0b565b915061145682611415565b602082019050919050565b6000602082019050818103600083015261147a8161143e565b9050919050565b60006040820190506114966000830185610df5565b6114a36020830184610d19565b9392505050565b60006114b582610b92565b91506114c083610b92565b92508282039050818111156114d8576114d7611086565b5b92915050565b60006060820190506114f36000830186610df5565b6115006020830185610d19565b61150d6040830184610d19565b949350505050565b7f4f6e6c792074686520636f6e7472616374206f776e65722063616e2063616c6c60008201527f20746869732066756e6374696f6e000000000000000000000000000000000000602082015250565b6000611571602e83610f0b565b915061157c82611515565b604082019050919050565b600060208201905081810360008301526115a081611564565b905091905056fea2646970667358221220f6bbb98745e95f4f5a0080bac6c98ebdd9fe2ef443c6529046e1d02790cfa31764736f6c63430008120033",
					"opcodes": "PUSH1 0x80 PUSH1 0x40 MSTORE CALLVALUE DUP1 ISZERO PUSH2 0x10 JUMPI PUSH1 0x0 DUP1 REVERT JUMPDEST POP CALLER PUSH1 0x1 PUSH1 0x0 PUSH2 0x100 EXP DUP2 SLOAD DUP2 PUSH20 0xFFFFFFFFFFFFFFFFFFFFFFFFFFFFFFFFFFFFFFFF MUL NOT AND SWAP1 DUP4 PUSH20 0xFFFFFFFFFFFFFFFFFFFFFFFFFFFFFFFFFFFFFFFF AND MUL OR SWAP1 SSTORE POP PUSH2 0x15DD DUP1 PUSH2 0x61 PUSH1 0x0 CODECOPY PUSH1 0x0 RETURN INVALID PUSH1 0x80 PUSH1 0x40 MSTORE CALLVALUE DUP1 ISZERO PUSH2 0x10 JUMPI PUSH1 0x0 DUP1 REVERT JUMPDEST POP PUSH1 0x4 CALLDATASIZE LT PUSH2 0x88 JUMPI PUSH1 0x0 CALLDATALOAD PUSH1 0xE0 SHR DUP1 PUSH4 0x9B19251A GT PUSH2 0x5B JUMPI DUP1 PUSH4 0x9B19251A EQ PUSH2 0x113 JUMPI DUP1 PUSH4 0xBD84477D EQ PUSH2 0x143 JUMPI DUP1 PUSH4 0xF80F5DD5 EQ PUSH2 0x17B JUMPI DUP1 PUSH4 0xFC0C546A EQ PUSH2 0x197 JUMPI PUSH2 0x88 JUMP JUMPDEST DUP1 PUSH4 0x1A072A22 EQ PUSH2 0x8D JUMPI DUP1 PUSH4 0x2E1A7D4D EQ PUSH2 0xA9 JUMPI DUP1 PUSH4 0x557ED1BA EQ PUSH2 0xC5 JUMPI DUP1 PUSH4 0x5952FFD1 EQ PUSH2 0xE3 JUMPI JUMPDEST PUSH1 0x0 DUP1 REVERT JUMPDEST PUSH2 0xA7 PUSH1 0x4 DUP1 CALLDATASIZE SUB DUP2 ADD SWAP1 PUSH2 0xA2 SWAP2 SWAP1 PUSH2 0xC5F JUMP JUMPDEST PUSH2 0x1B5 JUMP JUMPDEST STOP JUMPDEST PUSH2 0xC3 PUSH1 0x4 DUP1 CALLDATASIZE SUB DUP2 ADD SWAP1 PUSH2 0xBE SWAP2 SWAP1 PUSH2 0xCEC JUMP JUMPDEST PUSH2 0x5C0 JUMP JUMPDEST STOP JUMPDEST PUSH2 0xCD PUSH2 0x8BC JUMP JUMPDEST PUSH1 0x40 MLOAD PUSH2 0xDA SWAP2 SWAP1 PUSH2 0xD28 JUMP JUMPDEST PUSH1 0x40 MLOAD DUP1 SWAP2 SUB SWAP1 RETURN JUMPDEST PUSH2 0xFD PUSH1 0x4 DUP1 CALLDATASIZE SUB DUP2 ADD SWAP1 PUSH2 0xF8 SWAP2 SWAP1 PUSH2 0xCEC JUMP JUMPDEST PUSH2 0x8C4 JUMP JUMPDEST PUSH1 0x40 MLOAD PUSH2 0x10A SWAP2 SWAP1 PUSH2 0xD28 JUMP JUMPDEST PUSH1 0x40 MLOAD DUP1 SWAP2 SUB SWAP1 RETURN JUMPDEST PUSH2 0x12D PUSH1 0x4 DUP1 CALLDATASIZE SUB DUP2 ADD SWAP1 PUSH2 0x128 SWAP2 SWAP1 PUSH2 0xD43 JUMP JUMPDEST PUSH2 0x9AC JUMP JUMPDEST PUSH1 0x40 MLOAD PUSH2 0x13A SWAP2 SWAP1 PUSH2 0xD8B JUMP JUMPDEST PUSH1 0x40 MLOAD DUP1 SWAP2 SUB SWAP1 RETURN JUMPDEST PUSH2 0x15D PUSH1 0x4 DUP1 CALLDATASIZE SUB DUP2 ADD SWAP1 PUSH2 0x158 SWAP2 SWAP1 PUSH2 0xDA6 JUMP JUMPDEST PUSH2 0x9CC JUMP JUMPDEST PUSH1 0x40 MLOAD PUSH2 0x172 SWAP10 SWAP9 SWAP8 SWAP7 SWAP6 SWAP5 SWAP4 SWAP3 SWAP2 SWAP1 PUSH2 0xE04 JUMP JUMPDEST PUSH1 0x40 MLOAD DUP1 SWAP2 SUB SWAP1 RETURN JUMPDEST PUSH2 0x195 PUSH1 0x4 DUP1 CALLDATASIZE SUB DUP2 ADD SWAP1 PUSH2 0x190 SWAP2 SWAP1 PUSH2 0xD43 JUMP JUMPDEST PUSH2 0xA7E JUMP JUMPDEST STOP JUMPDEST PUSH2 0x19F PUSH2 0xB69 JUMP JUMPDEST PUSH1 0x40 MLOAD PUSH2 0x1AC SWAP2 SWAP1 PUSH2 0xEF0 JUMP JUMPDEST PUSH1 0x40 MLOAD DUP1 SWAP2 SUB SWAP1 RETURN JUMPDEST DUP6 DUP6 DUP5 DUP4 PUSH1 0x0 DUP5 GT PUSH2 0x1FC JUMPI PUSH1 0x40 MLOAD PUSH32 0x8C379A000000000000000000000000000000000000000000000000000000000 DUP2 MSTORE PUSH1 0x4 ADD PUSH2 0x1F3 SWAP1 PUSH2 0xF68 JUMP JUMPDEST PUSH1 0x40 MLOAD DUP1 SWAP2 SUB SWAP1 REVERT JUMPDEST PUSH1 0x4 PUSH1 0x0 DUP3 PUSH20 0xFFFFFFFFFFFFFFFFFFFFFFFFFFFFFFFFFFFFFFFF AND PUSH20 0xFFFFFFFFFFFFFFFFFFFFFFFFFFFFFFFFFFFFFFFF AND DUP2 MSTORE PUSH1 0x20 ADD SWAP1 DUP2 MSTORE PUSH1 0x20 ADD PUSH1 0x0 KECCAK256 PUSH1 0x0 SWAP1 SLOAD SWAP1 PUSH2 0x100 EXP SWAP1 DIV PUSH1 0xFF AND PUSH2 0x288 JUMPI PUSH1 0x40 MLOAD PUSH32 0x8C379A000000000000000000000000000000000000000000000000000000000 DUP2 MSTORE PUSH1 0x4 ADD PUSH2 0x27F SWAP1 PUSH2 0xFFA JUMP JUMPDEST PUSH1 0x40 MLOAD DUP1 SWAP2 SUB SWAP1 REVERT JUMPDEST DUP3 DUP3 PUSH1 0xFF AND LT PUSH2 0x2CD JUMPI PUSH1 0x40 MLOAD PUSH32 0x8C379A000000000000000000000000000000000000000000000000000000000 DUP2 MSTORE PUSH1 0x4 ADD PUSH2 0x2C4 SWAP1 PUSH2 0x1066 JUMP JUMPDEST PUSH1 0x40 MLOAD DUP1 SWAP2 SUB SWAP1 REVERT JUMPDEST PUSH1 0x0 PUSH1 0x40 MLOAD DUP1 PUSH2 0x120 ADD PUSH1 0x40 MSTORE DUP1 DUP13 DUP2 MSTORE PUSH1 0x20 ADD TIMESTAMP DUP2 MSTORE PUSH1 0x20 ADD DUP12 DUP2 MSTORE PUSH1 0x20 ADD PUSH1 0x1 ISZERO ISZERO DUP2 MSTORE PUSH1 0x20 ADD DUP11 PUSH1 0xFF AND DUP2 MSTORE PUSH1 0x20 ADD DUP10 PUSH1 0xFF AND DUP2 MSTORE PUSH1 0x20 ADD DUP12 DUP14 DUP13 PUSH1 0xFF AND PUSH2 0x318 SWAP2 SWAP1 PUSH2 0x10B5 JUMP JUMPDEST PUSH2 0x322 SWAP2 SWAP1 PUSH2 0x1126 JUMP JUMPDEST DUP2 MSTORE PUSH1 0x20 ADD DUP9 PUSH20 0xFFFFFFFFFFFFFFFFFFFFFFFFFFFFFFFFFFFFFFFF AND DUP2 MSTORE PUSH1 0x20 ADD PUSH1 0x0 DUP2 MSTORE POP SWAP1 POP PUSH1 0x3 PUSH1 0x0 CALLER PUSH20 0xFFFFFFFFFFFFFFFFFFFFFFFFFFFFFFFFFFFFFFFF AND PUSH20 0xFFFFFFFFFFFFFFFFFFFFFFFFFFFFFFFFFFFFFFFF AND DUP2 MSTORE PUSH1 0x20 ADD SWAP1 DUP2 MSTORE PUSH1 0x20 ADD PUSH1 0x0 KECCAK256 DUP2 SWAP1 DUP1 PUSH1 0x1 DUP2 SLOAD ADD DUP1 DUP3 SSTORE DUP1 SWAP2 POP POP PUSH1 0x1 SWAP1 SUB SWAP1 PUSH1 0x0 MSTORE PUSH1 0x20 PUSH1 0x0 KECCAK256 SWAP1 PUSH1 0x7 MUL ADD PUSH1 0x0 SWAP1 SWAP2 SWAP1 SWAP2 SWAP1 SWAP2 POP PUSH1 0x0 DUP3 ADD MLOAD DUP2 PUSH1 0x0 ADD SSTORE PUSH1 0x20 DUP3 ADD MLOAD DUP2 PUSH1 0x1 ADD SSTORE PUSH1 0x40 DUP3 ADD MLOAD DUP2 PUSH1 0x2 ADD SSTORE PUSH1 0x60 DUP3 ADD MLOAD DUP2 PUSH1 0x3 ADD PUSH1 0x0 PUSH2 0x100 EXP DUP2 SLOAD DUP2 PUSH1 0xFF MUL NOT AND SWAP1 DUP4 ISZERO ISZERO MUL OR SWAP1 SSTORE POP PUSH1 0x80 DUP3 ADD MLOAD DUP2 PUSH1 0x3 ADD PUSH1 0x1 PUSH2 0x100 EXP DUP2 SLOAD DUP2 PUSH1 0xFF MUL NOT AND SWAP1 DUP4 PUSH1 0xFF AND MUL OR SWAP1 SSTORE POP PUSH1 0xA0 DUP3 ADD MLOAD DUP2 PUSH1 0x3 ADD PUSH1 0x2 PUSH2 0x100 EXP DUP2 SLOAD DUP2 PUSH1 0xFF MUL NOT AND SWAP1 DUP4 PUSH1 0xFF AND MUL OR SWAP1 SSTORE POP PUSH1 0xC0 DUP3 ADD MLOAD DUP2 PUSH1 0x4 ADD SSTORE PUSH1 0xE0 DUP3 ADD MLOAD DUP2 PUSH1 0x5 ADD PUSH1 0x0 PUSH2 0x100 EXP DUP2 SLOAD DUP2 PUSH20 0xFFFFFFFFFFFFFFFFFFFFFFFFFFFFFFFFFFFFFFFF MUL NOT AND SWAP1 DUP4 PUSH20 0xFFFFFFFFFFFFFFFFFFFFFFFFFFFFFFFFFFFFFFFF AND MUL OR SWAP1 SSTORE POP PUSH2 0x100 DUP3 ADD MLOAD DUP2 PUSH1 0x6 ADD SSTORE POP POP DUP6 PUSH1 0x0 DUP1 PUSH2 0x100 EXP DUP2 SLOAD DUP2 PUSH20 0xFFFFFFFFFFFFFFFFFFFFFFFFFFFFFFFFFFFFFFFF MUL NOT AND SWAP1 DUP4 PUSH20 0xFFFFFFFFFFFFFFFFFFFFFFFFFFFFFFFFFFFFFFFF AND MUL OR SWAP1 SSTORE POP PUSH1 0x0 DUP1 SLOAD SWAP1 PUSH2 0x100 EXP SWAP1 DIV PUSH20 0xFFFFFFFFFFFFFFFFFFFFFFFFFFFFFFFFFFFFFFFF AND PUSH20 0xFFFFFFFFFFFFFFFFFFFFFFFFFFFFFFFFFFFFFFFF AND PUSH4 0x23B872DD CALLER ADDRESS DUP15 PUSH1 0x40 MLOAD DUP5 PUSH4 0xFFFFFFFF AND PUSH1 0xE0 SHL DUP2 MSTORE PUSH1 0x4 ADD PUSH2 0x52E SWAP4 SWAP3 SWAP2 SWAP1 PUSH2 0x1157 JUMP JUMPDEST PUSH1 0x20 PUSH1 0x40 MLOAD DUP1 DUP4 SUB DUP2 PUSH1 0x0 DUP8 GAS CALL ISZERO DUP1 ISZERO PUSH2 0x54D JUMPI RETURNDATASIZE PUSH1 0x0 DUP1 RETURNDATACOPY RETURNDATASIZE PUSH1 0x0 REVERT JUMPDEST POP POP POP POP PUSH1 0x40 MLOAD RETURNDATASIZE PUSH1 0x1F NOT PUSH1 0x1F DUP3 ADD AND DUP3 ADD DUP1 PUSH1 0x40 MSTORE POP DUP2 ADD SWAP1 PUSH2 0x571 SWAP2 SWAP1 PUSH2 0x11BA JUMP JUMPDEST POP PUSH32 0xB2E88791D817C746D5E5FE14D588911BB8E67F1FE02D38CF2ED5C01D9AC07A07 CALLER DUP13 DUP13 DUP13 TIMESTAMP DUP14 PUSH1 0x40 MLOAD PUSH2 0x5AB SWAP7 SWAP6 SWAP5 SWAP4 SWAP3 SWAP2 SWAP1 PUSH2 0x11E7 JUMP JUMPDEST PUSH1 0x40 MLOAD DUP1 SWAP2 SUB SWAP1 LOG1 POP POP POP POP POP POP POP POP POP POP POP JUMP JUMPDEST PUSH1 0x0 PUSH1 0x3 PUSH1 0x0 CALLER PUSH20 0xFFFFFFFFFFFFFFFFFFFFFFFFFFFFFFFFFFFFFFFF AND PUSH20 0xFFFFFFFFFFFFFFFFFFFFFFFFFFFFFFFFFFFFFFFF AND DUP2 MSTORE PUSH1 0x20 ADD SWAP1 DUP2 MSTORE PUSH1 0x20 ADD PUSH1 0x0 KECCAK256 DUP3 DUP2 SLOAD DUP2 LT PUSH2 0x613 JUMPI PUSH2 0x612 PUSH2 0x1248 JUMP JUMPDEST JUMPDEST SWAP1 PUSH1 0x0 MSTORE PUSH1 0x20 PUSH1 0x0 KECCAK256 SWAP1 PUSH1 0x7 MUL ADD SWAP1 POP DUP1 PUSH1 0x3 ADD PUSH1 0x0 SWAP1 SLOAD SWAP1 PUSH2 0x100 EXP SWAP1 DIV PUSH1 0xFF AND PUSH2 0x674 JUMPI PUSH1 0x40 MLOAD PUSH32 0x8C379A000000000000000000000000000000000000000000000000000000000 DUP2 MSTORE PUSH1 0x4 ADD PUSH2 0x66B SWAP1 PUSH2 0x12C3 JUMP JUMPDEST PUSH1 0x40 MLOAD DUP1 SWAP2 SUB SWAP1 REVERT JUMPDEST DUP1 PUSH1 0x1 ADD SLOAD PUSH2 0x681 PUSH2 0x8BC JUMP JUMPDEST GT PUSH2 0x6C1 JUMPI PUSH1 0x40 MLOAD PUSH32 0x8C379A000000000000000000000000000000000000000000000000000000000 DUP2 MSTORE PUSH1 0x4 ADD PUSH2 0x6B8 SWAP1 PUSH2 0x1355 JUMP JUMPDEST PUSH1 0x40 MLOAD DUP1 SWAP2 SUB SWAP1 REVERT JUMPDEST PUSH2 0x6C9 PUSH2 0x8BC JUMP JUMPDEST DUP2 PUSH1 0x1 ADD SLOAD DUP3 PUSH1 0x3 ADD PUSH1 0x2 SWAP1 SLOAD SWAP1 PUSH2 0x100 EXP SWAP1 DIV PUSH1 0xFF AND PUSH1 0xFF AND PUSH2 0x6ED SWAP2 SWAP1 PUSH2 0x1375 JUMP JUMPDEST LT PUSH2 0x72D JUMPI PUSH1 0x40 MLOAD PUSH32 0x8C379A000000000000000000000000000000000000000000000000000000000 DUP2 MSTORE PUSH1 0x4 ADD PUSH2 0x724 SWAP1 PUSH2 0x13F5 JUMP JUMPDEST PUSH1 0x40 MLOAD DUP1 SWAP2 SUB SWAP1 REVERT JUMPDEST PUSH1 0x0 PUSH2 0x738 DUP4 PUSH2 0x8C4 JUMP JUMPDEST SWAP1 POP PUSH1 0x0 DUP2 GT PUSH2 0x77D JUMPI PUSH1 0x40 MLOAD PUSH32 0x8C379A000000000000000000000000000000000000000000000000000000000 DUP2 MSTORE PUSH1 0x4 ADD PUSH2 0x774 SWAP1 PUSH2 0x1461 JUMP JUMPDEST PUSH1 0x40 MLOAD DUP1 SWAP2 SUB SWAP1 REVERT JUMPDEST PUSH1 0x0 DUP1 SLOAD SWAP1 PUSH2 0x100 EXP SWAP1 DIV PUSH20 0xFFFFFFFFFFFFFFFFFFFFFFFFFFFFFFFFFFFFFFFF AND PUSH20 0xFFFFFFFFFFFFFFFFFFFFFFFFFFFFFFFFFFFFFFFF AND PUSH4 0xA9059CBB CALLER DUP4 PUSH1 0x40 MLOAD DUP4 PUSH4 0xFFFFFFFF AND PUSH1 0xE0 SHL DUP2 MSTORE PUSH1 0x4 ADD PUSH2 0x7D8 SWAP3 SWAP2 SWAP1 PUSH2 0x1481 JUMP JUMPDEST PUSH1 0x20 PUSH1 0x40 MLOAD DUP1 DUP4 SUB DUP2 PUSH1 0x0 DUP8 GAS CALL ISZERO DUP1 ISZERO PUSH2 0x7F7 JUMPI RETURNDATASIZE PUSH1 0x0 DUP1 RETURNDATACOPY RETURNDATASIZE PUSH1 0x0 REVERT JUMPDEST POP POP POP POP PUSH1 0x40 MLOAD RETURNDATASIZE PUSH1 0x1F NOT PUSH1 0x1F DUP3 ADD AND DUP3 ADD DUP1 PUSH1 0x40 MSTORE POP DUP2 ADD SWAP1 PUSH2 0x81B SWAP2 SWAP1 PUSH2 0x11BA JUMP JUMPDEST POP DUP1 DUP3 PUSH1 0x6 ADD PUSH1 0x0 DUP3 DUP3 SLOAD PUSH2 0x830 SWAP2 SWAP1 PUSH2 0x1375 JUMP JUMPDEST SWAP3 POP POP DUP2 SWAP1 SSTORE POP DUP1 DUP3 PUSH1 0x0 ADD PUSH1 0x0 DUP3 DUP3 SLOAD PUSH2 0x84B SWAP2 SWAP1 PUSH2 0x14AA JUMP JUMPDEST SWAP3 POP POP DUP2 SWAP1 SSTORE POP PUSH1 0x0 DUP3 PUSH1 0x0 ADD SLOAD SUB PUSH2 0x87C JUMPI PUSH1 0x0 DUP3 PUSH1 0x3 ADD PUSH1 0x0 PUSH2 0x100 EXP DUP2 SLOAD DUP2 PUSH1 0xFF MUL NOT AND SWAP1 DUP4 ISZERO ISZERO MUL OR SWAP1 SSTORE POP JUMPDEST PUSH32 0xCCDB21E8B29FBF756F29D5F05C72606CA9E8160EC1A135CA6F50DAE471188CEC CALLER DUP5 DUP4 PUSH1 0x40 MLOAD PUSH2 0x8AF SWAP4 SWAP3 SWAP2 SWAP1 PUSH2 0x14DE JUMP JUMPDEST PUSH1 0x40 MLOAD DUP1 SWAP2 SUB SWAP1 LOG1 POP POP POP JUMP JUMPDEST PUSH1 0x0 TIMESTAMP SWAP1 POP SWAP1 JUMP JUMPDEST PUSH1 0x0 DUP1 PUSH1 0x3 PUSH1 0x0 CALLER PUSH20 0xFFFFFFFFFFFFFFFFFFFFFFFFFFFFFFFFFFFFFFFF AND PUSH20 0xFFFFFFFFFFFFFFFFFFFFFFFFFFFFFFFFFFFFFFFF AND DUP2 MSTORE PUSH1 0x20 ADD SWAP1 DUP2 MSTORE PUSH1 0x20 ADD PUSH1 0x0 KECCAK256 DUP4 DUP2 SLOAD DUP2 LT PUSH2 0x918 JUMPI PUSH2 0x917 PUSH2 0x1248 JUMP JUMPDEST JUMPDEST SWAP1 PUSH1 0x0 MSTORE PUSH1 0x20 PUSH1 0x0 KECCAK256 SWAP1 PUSH1 0x7 MUL ADD SWAP1 POP PUSH1 0x0 DUP2 PUSH1 0x3 ADD PUSH1 0x1 SWAP1 SLOAD SWAP1 PUSH2 0x100 EXP SWAP1 DIV PUSH1 0xFF AND PUSH1 0xFF AND DUP3 PUSH1 0x1 ADD SLOAD PUSH2 0x94C PUSH2 0x8BC JUMP JUMPDEST PUSH2 0x956 SWAP2 SWAP1 PUSH2 0x14AA JUMP JUMPDEST PUSH2 0x960 SWAP2 SWAP1 PUSH2 0x1126 JUMP JUMPDEST SWAP1 POP PUSH1 0x0 DUP3 PUSH1 0x6 ADD SLOAD DUP4 PUSH1 0x4 ADD SLOAD DUP4 PUSH2 0x979 SWAP2 SWAP1 PUSH2 0x10B5 JUMP JUMPDEST PUSH2 0x983 SWAP2 SWAP1 PUSH2 0x14AA JUMP JUMPDEST SWAP1 POP DUP3 PUSH1 0x0 ADD SLOAD DUP2 LT ISZERO PUSH2 0x99C JUMPI DUP1 SWAP4 POP POP POP POP PUSH2 0x9A7 JUMP JUMPDEST DUP3 PUSH1 0x0 ADD SLOAD SWAP4 POP POP POP POP JUMPDEST SWAP2 SWAP1 POP JUMP JUMPDEST PUSH1 0x4 PUSH1 0x20 MSTORE DUP1 PUSH1 0x0 MSTORE PUSH1 0x40 PUSH1 0x0 KECCAK256 PUSH1 0x0 SWAP2 POP SLOAD SWAP1 PUSH2 0x100 EXP SWAP1 DIV PUSH1 0xFF AND DUP2 JUMP JUMPDEST PUSH1 0x3 PUSH1 0x20 MSTORE DUP2 PUSH1 0x0 MSTORE PUSH1 0x40 PUSH1 0x0 KECCAK256 DUP2 DUP2 SLOAD DUP2 LT PUSH2 0x9E8 JUMPI PUSH1 0x0 DUP1 REVERT JUMPDEST SWAP1 PUSH1 0x0 MSTORE PUSH1 0x20 PUSH1 0x0 KECCAK256 SWAP1 PUSH1 0x7 MUL ADD PUSH1 0x0 SWAP2 POP SWAP2 POP POP DUP1 PUSH1 0x0 ADD SLOAD SWAP1 DUP1 PUSH1 0x1 ADD SLOAD SWAP1 DUP1 PUSH1 0x2 ADD SLOAD SWAP1 DUP1 PUSH1 0x3 ADD PUSH1 0x0 SWAP1 SLOAD SWAP1 PUSH2 0x100 EXP SWAP1 DIV PUSH1 0xFF AND SWAP1 DUP1 PUSH1 0x3 ADD PUSH1 0x1 SWAP1 SLOAD SWAP1 PUSH2 0x100 EXP SWAP1 DIV PUSH1 0xFF AND SWAP1 DUP1 PUSH1 0x3 ADD PUSH1 0x2 SWAP1 SLOAD SWAP1 PUSH2 0x100 EXP SWAP1 DIV PUSH1 0xFF AND SWAP1 DUP1 PUSH1 0x4 ADD SLOAD SWAP1 DUP1 PUSH1 0x5 ADD PUSH1 0x0 SWAP1 SLOAD SWAP1 PUSH2 0x100 EXP SWAP1 DIV PUSH20 0xFFFFFFFFFFFFFFFFFFFFFFFFFFFFFFFFFFFFFFFF AND SWAP1 DUP1 PUSH1 0x6 ADD SLOAD SWAP1 POP DUP10 JUMP JUMPDEST PUSH1 0x1 PUSH1 0x0 SWAP1 SLOAD SWAP1 PUSH2 0x100 EXP SWAP1 DIV PUSH20 0xFFFFFFFFFFFFFFFFFFFFFFFFFFFFFFFFFFFFFFFF AND PUSH20 0xFFFFFFFFFFFFFFFFFFFFFFFFFFFFFFFFFFFFFFFF AND CALLER PUSH20 0xFFFFFFFFFFFFFFFFFFFFFFFFFFFFFFFFFFFFFFFF AND EQ PUSH2 0xB0E JUMPI PUSH1 0x40 MLOAD PUSH32 0x8C379A000000000000000000000000000000000000000000000000000000000 DUP2 MSTORE PUSH1 0x4 ADD PUSH2 0xB05 SWAP1 PUSH2 0x1587 JUMP JUMPDEST PUSH1 0x40 MLOAD DUP1 SWAP2 SUB SWAP1 REVERT JUMPDEST PUSH1 0x1 PUSH1 0x4 PUSH1 0x0 DUP4 PUSH20 0xFFFFFFFFFFFFFFFFFFFFFFFFFFFFFFFFFFFFFFFF AND PUSH20 0xFFFFFFFFFFFFFFFFFFFFFFFFFFFFFFFFFFFFFFFF AND DUP2 MSTORE PUSH1 0x20 ADD SWAP1 DUP2 MSTORE PUSH1 0x20 ADD PUSH1 0x0 KECCAK256 PUSH1 0x0 PUSH2 0x100 EXP DUP2 SLOAD DUP2 PUSH1 0xFF MUL NOT AND SWAP1 DUP4 ISZERO ISZERO MUL OR SWAP1 SSTORE POP POP JUMP JUMPDEST PUSH1 0x0 DUP1 SLOAD SWAP1 PUSH2 0x100 EXP SWAP1 DIV PUSH20 0xFFFFFFFFFFFFFFFFFFFFFFFFFFFFFFFFFFFFFFFF AND DUP2 JUMP JUMPDEST PUSH1 0x0 DUP1 REVERT JUMPDEST PUSH1 0x0 DUP2 SWAP1 POP SWAP2 SWAP1 POP JUMP JUMPDEST PUSH2 0xBA5 DUP2 PUSH2 0xB92 JUMP JUMPDEST DUP2 EQ PUSH2 0xBB0 JUMPI PUSH1 0x0 DUP1 REVERT JUMPDEST POP JUMP JUMPDEST PUSH1 0x0 DUP2 CALLDATALOAD SWAP1 POP PUSH2 0xBC2 DUP2 PUSH2 0xB9C JUMP JUMPDEST SWAP3 SWAP2 POP POP JUMP JUMPDEST PUSH1 0x0 PUSH1 0xFF DUP3 AND SWAP1 POP SWAP2 SWAP1 POP JUMP JUMPDEST PUSH2 0xBDE DUP2 PUSH2 0xBC8 JUMP JUMPDEST DUP2 EQ PUSH2 0xBE9 JUMPI PUSH1 0x0 DUP1 REVERT JUMPDEST POP JUMP JUMPDEST PUSH1 0x0 DUP2 CALLDATALOAD SWAP1 POP PUSH2 0xBFB DUP2 PUSH2 0xBD5 JUMP JUMPDEST SWAP3 SWAP2 POP POP JUMP JUMPDEST PUSH1 0x0 PUSH20 0xFFFFFFFFFFFFFFFFFFFFFFFFFFFFFFFFFFFFFFFF DUP3 AND SWAP1 POP SWAP2 SWAP1 POP JUMP JUMPDEST PUSH1 0x0 PUSH2 0xC2C DUP3 PUSH2 0xC01 JUMP JUMPDEST SWAP1 POP SWAP2 SWAP1 POP JUMP JUMPDEST PUSH2 0xC3C DUP2 PUSH2 0xC21 JUMP JUMPDEST DUP2 EQ PUSH2 0xC47 JUMPI PUSH1 0x0 DUP1 REVERT JUMPDEST POP JUMP JUMPDEST PUSH1 0x0 DUP2 CALLDATALOAD SWAP1 POP PUSH2 0xC59 DUP2 PUSH2 0xC33 JUMP JUMPDEST SWAP3 SWAP2 POP POP JUMP JUMPDEST PUSH1 0x0 DUP1 PUSH1 0x0 DUP1 PUSH1 0x0 DUP1 PUSH1 0xC0 DUP8 DUP10 SUB SLT ISZERO PUSH2 0xC7C JUMPI PUSH2 0xC7B PUSH2 0xB8D JUMP JUMPDEST JUMPDEST PUSH1 0x0 PUSH2 0xC8A DUP10 DUP3 DUP11 ADD PUSH2 0xBB3 JUMP JUMPDEST SWAP7 POP POP PUSH1 0x20 PUSH2 0xC9B DUP10 DUP3 DUP11 ADD PUSH2 0xBB3 JUMP JUMPDEST SWAP6 POP POP PUSH1 0x40 PUSH2 0xCAC DUP10 DUP3 DUP11 ADD PUSH2 0xBEC JUMP JUMPDEST SWAP5 POP POP PUSH1 0x60 PUSH2 0xCBD DUP10 DUP3 DUP11 ADD PUSH2 0xBEC JUMP JUMPDEST SWAP4 POP POP PUSH1 0x80 PUSH2 0xCCE DUP10 DUP3 DUP11 ADD PUSH2 0xC4A JUMP JUMPDEST SWAP3 POP POP PUSH1 0xA0 PUSH2 0xCDF DUP10 DUP3 DUP11 ADD PUSH2 0xC4A JUMP JUMPDEST SWAP2 POP POP SWAP3 SWAP6 POP SWAP3 SWAP6 POP SWAP3 SWAP6 JUMP JUMPDEST PUSH1 0x0 PUSH1 0x20 DUP3 DUP5 SUB SLT ISZERO PUSH2 0xD02 JUMPI PUSH2 0xD01 PUSH2 0xB8D JUMP JUMPDEST JUMPDEST PUSH1 0x0 PUSH2 0xD10 DUP5 DUP3 DUP6 ADD PUSH2 0xBB3 JUMP JUMPDEST SWAP2 POP POP SWAP3 SWAP2 POP POP JUMP JUMPDEST PUSH2 0xD22 DUP2 PUSH2 0xB92 JUMP JUMPDEST DUP3 MSTORE POP POP JUMP JUMPDEST PUSH1 0x0 PUSH1 0x20 DUP3 ADD SWAP1 POP PUSH2 0xD3D PUSH1 0x0 DUP4 ADD DUP5 PUSH2 0xD19 JUMP JUMPDEST SWAP3 SWAP2 POP POP JUMP JUMPDEST PUSH1 0x0 PUSH1 0x20 DUP3 DUP5 SUB SLT ISZERO PUSH2 0xD59 JUMPI PUSH2 0xD58 PUSH2 0xB8D JUMP JUMPDEST JUMPDEST PUSH1 0x0 PUSH2 0xD67 DUP5 DUP3 DUP6 ADD PUSH2 0xC4A JUMP JUMPDEST SWAP2 POP POP SWAP3 SWAP2 POP POP JUMP JUMPDEST PUSH1 0x0 DUP2 ISZERO ISZERO SWAP1 POP SWAP2 SWAP1 POP JUMP JUMPDEST PUSH2 0xD85 DUP2 PUSH2 0xD70 JUMP JUMPDEST DUP3 MSTORE POP POP JUMP JUMPDEST PUSH1 0x0 PUSH1 0x20 DUP3 ADD SWAP1 POP PUSH2 0xDA0 PUSH1 0x0 DUP4 ADD DUP5 PUSH2 0xD7C JUMP JUMPDEST SWAP3 SWAP2 POP POP JUMP JUMPDEST PUSH1 0x0 DUP1 PUSH1 0x40 DUP4 DUP6 SUB SLT ISZERO PUSH2 0xDBD JUMPI PUSH2 0xDBC PUSH2 0xB8D JUMP JUMPDEST JUMPDEST PUSH1 0x0 PUSH2 0xDCB DUP6 DUP3 DUP7 ADD PUSH2 0xC4A JUMP JUMPDEST SWAP3 POP POP PUSH1 0x20 PUSH2 0xDDC DUP6 DUP3 DUP7 ADD PUSH2 0xBB3 JUMP JUMPDEST SWAP2 POP POP SWAP3 POP SWAP3 SWAP1 POP JUMP JUMPDEST PUSH2 0xDEF DUP2 PUSH2 0xBC8 JUMP JUMPDEST DUP3 MSTORE POP POP JUMP JUMPDEST PUSH2 0xDFE DUP2 PUSH2 0xC21 JUMP JUMPDEST DUP3 MSTORE POP POP JUMP JUMPDEST PUSH1 0x0 PUSH2 0x120 DUP3 ADD SWAP1 POP PUSH2 0xE1A PUSH1 0x0 DUP4 ADD DUP13 PUSH2 0xD19 JUMP JUMPDEST PUSH2 0xE27 PUSH1 0x20 DUP4 ADD DUP12 PUSH2 0xD19 JUMP JUMPDEST PUSH2 0xE34 PUSH1 0x40 DUP4 ADD DUP11 PUSH2 0xD19 JUMP JUMPDEST PUSH2 0xE41 PUSH1 0x60 DUP4 ADD DUP10 PUSH2 0xD7C JUMP JUMPDEST PUSH2 0xE4E PUSH1 0x80 DUP4 ADD DUP9 PUSH2 0xDE6 JUMP JUMPDEST PUSH2 0xE5B PUSH1 0xA0 DUP4 ADD DUP8 PUSH2 0xDE6 JUMP JUMPDEST PUSH2 0xE68 PUSH1 0xC0 DUP4 ADD DUP7 PUSH2 0xD19 JUMP JUMPDEST PUSH2 0xE75 PUSH1 0xE0 DUP4 ADD DUP6 PUSH2 0xDF5 JUMP JUMPDEST PUSH2 0xE83 PUSH2 0x100 DUP4 ADD DUP5 PUSH2 0xD19 JUMP JUMPDEST SWAP11 SWAP10 POP POP POP POP POP POP POP POP POP POP JUMP JUMPDEST PUSH1 0x0 DUP2 SWAP1 POP SWAP2 SWAP1 POP JUMP JUMPDEST PUSH1 0x0 PUSH2 0xEB6 PUSH2 0xEB1 PUSH2 0xEAC DUP5 PUSH2 0xC01 JUMP JUMPDEST PUSH2 0xE91 JUMP JUMPDEST PUSH2 0xC01 JUMP JUMPDEST SWAP1 POP SWAP2 SWAP1 POP JUMP JUMPDEST PUSH1 0x0 PUSH2 0xEC8 DUP3 PUSH2 0xE9B JUMP JUMPDEST SWAP1 POP SWAP2 SWAP1 POP JUMP JUMPDEST PUSH1 0x0 PUSH2 0xEDA DUP3 PUSH2 0xEBD JUMP JUMPDEST SWAP1 POP SWAP2 SWAP1 POP JUMP JUMPDEST PUSH2 0xEEA DUP2 PUSH2 0xECF JUMP JUMPDEST DUP3 MSTORE POP POP JUMP JUMPDEST PUSH1 0x0 PUSH1 0x20 DUP3 ADD SWAP1 POP PUSH2 0xF05 PUSH1 0x0 DUP4 ADD DUP5 PUSH2 0xEE1 JUMP JUMPDEST SWAP3 SWAP2 POP POP JUMP JUMPDEST PUSH1 0x0 DUP3 DUP3 MSTORE PUSH1 0x20 DUP3 ADD SWAP1 POP SWAP3 SWAP2 POP POP JUMP JUMPDEST PUSH32 0x416D6F756E74206E6F74206265205A65726F0000000000000000000000000000 PUSH1 0x0 DUP3 ADD MSTORE POP JUMP JUMPDEST PUSH1 0x0 PUSH2 0xF52 PUSH1 0x12 DUP4 PUSH2 0xF0B JUMP JUMPDEST SWAP2 POP PUSH2 0xF5D DUP3 PUSH2 0xF1C JUMP JUMPDEST PUSH1 0x20 DUP3 ADD SWAP1 POP SWAP2 SWAP1 POP JUMP JUMPDEST PUSH1 0x0 PUSH1 0x20 DUP3 ADD SWAP1 POP DUP2 DUP2 SUB PUSH1 0x0 DUP4 ADD MSTORE PUSH2 0xF81 DUP2 PUSH2 0xF45 JUMP JUMPDEST SWAP1 POP SWAP2 SWAP1 POP JUMP JUMPDEST PUSH32 0x596F7520617265206E6F7420616C6C6F77656420746F20757365207468697320 PUSH1 0x0 DUP3 ADD MSTORE PUSH32 0x636F6E74726163742E0000000000000000000000000000000000000000000000 PUSH1 0x20 DUP3 ADD MSTORE POP JUMP JUMPDEST PUSH1 0x0 PUSH2 0xFE4 PUSH1 0x29 DUP4 PUSH2 0xF0B JUMP JUMPDEST SWAP2 POP PUSH2 0xFEF DUP3 PUSH2 0xF88 JUMP JUMPDEST PUSH1 0x40 DUP3 ADD SWAP1 POP SWAP2 SWAP1 POP JUMP JUMPDEST PUSH1 0x0 PUSH1 0x20 DUP3 ADD SWAP1 POP DUP2 DUP2 SUB PUSH1 0x0 DUP4 ADD MSTORE PUSH2 0x1013 DUP2 PUSH2 0xFD7 JUMP JUMPDEST SWAP1 POP SWAP2 SWAP1 POP JUMP JUMPDEST PUSH32 0x436C696666206D757374206D65206C657373207468616E206475726174696F6E PUSH1 0x0 DUP3 ADD MSTORE POP JUMP JUMPDEST PUSH1 0x0 PUSH2 0x1050 PUSH1 0x20 DUP4 PUSH2 0xF0B JUMP JUMPDEST SWAP2 POP PUSH2 0x105B DUP3 PUSH2 0x101A JUMP JUMPDEST PUSH1 0x20 DUP3 ADD SWAP1 POP SWAP2 SWAP1 POP JUMP JUMPDEST PUSH1 0x0 PUSH1 0x20 DUP3 ADD SWAP1 POP DUP2 DUP2 SUB PUSH1 0x0 DUP4 ADD MSTORE PUSH2 0x107F DUP2 PUSH2 0x1043 JUMP JUMPDEST SWAP1 POP SWAP2 SWAP1 POP JUMP JUMPDEST PUSH32 0x4E487B7100000000000000000000000000000000000000000000000000000000 PUSH1 0x0 MSTORE PUSH1 0x11 PUSH1 0x4 MSTORE PUSH1 0x24 PUSH1 0x0 REVERT JUMPDEST PUSH1 0x0 PUSH2 0x10C0 DUP3 PUSH2 0xB92 JUMP JUMPDEST SWAP2 POP PUSH2 0x10CB DUP4 PUSH2 0xB92 JUMP JUMPDEST SWAP3 POP DUP3 DUP3 MUL PUSH2 0x10D9 DUP2 PUSH2 0xB92 JUMP JUMPDEST SWAP2 POP DUP3 DUP3 DIV DUP5 EQ DUP4 ISZERO OR PUSH2 0x10F0 JUMPI PUSH2 0x10EF PUSH2 0x1086 JUMP JUMPDEST JUMPDEST POP SWAP3 SWAP2 POP POP JUMP JUMPDEST PUSH32 0x4E487B7100000000000000000000000000000000000000000000000000000000 PUSH1 0x0 MSTORE PUSH1 0x12 PUSH1 0x4 MSTORE PUSH1 0x24 PUSH1 0x0 REVERT JUMPDEST PUSH1 0x0 PUSH2 0x1131 DUP3 PUSH2 0xB92 JUMP JUMPDEST SWAP2 POP PUSH2 0x113C DUP4 PUSH2 0xB92 JUMP JUMPDEST SWAP3 POP DUP3 PUSH2 0x114C JUMPI PUSH2 0x114B PUSH2 0x10F7 JUMP JUMPDEST JUMPDEST DUP3 DUP3 DIV SWAP1 POP SWAP3 SWAP2 POP POP JUMP JUMPDEST PUSH1 0x0 PUSH1 0x60 DUP3 ADD SWAP1 POP PUSH2 0x116C PUSH1 0x0 DUP4 ADD DUP7 PUSH2 0xDF5 JUMP JUMPDEST PUSH2 0x1179 PUSH1 0x20 DUP4 ADD DUP6 PUSH2 0xDF5 JUMP JUMPDEST PUSH2 0x1186 PUSH1 0x40 DUP4 ADD DUP5 PUSH2 0xD19 JUMP JUMPDEST SWAP5 SWAP4 POP POP POP POP JUMP JUMPDEST PUSH2 0x1197 DUP2 PUSH2 0xD70 JUMP JUMPDEST DUP2 EQ PUSH2 0x11A2 JUMPI PUSH1 0x0 DUP1 REVERT JUMPDEST POP JUMP JUMPDEST PUSH1 0x0 DUP2 MLOAD SWAP1 POP PUSH2 0x11B4 DUP2 PUSH2 0x118E JUMP JUMPDEST SWAP3 SWAP2 POP POP JUMP JUMPDEST PUSH1 0x0 PUSH1 0x20 DUP3 DUP5 SUB SLT ISZERO PUSH2 0x11D0 JUMPI PUSH2 0x11CF PUSH2 0xB8D JUMP JUMPDEST JUMPDEST PUSH1 0x0 PUSH2 0x11DE DUP5 DUP3 DUP6 ADD PUSH2 0x11A5 JUMP JUMPDEST SWAP2 POP POP SWAP3 SWAP2 POP POP JUMP JUMPDEST PUSH1 0x0 PUSH1 0xC0 DUP3 ADD SWAP1 POP PUSH2 0x11FC PUSH1 0x0 DUP4 ADD DUP10 PUSH2 0xDF5 JUMP JUMPDEST PUSH2 0x1209 PUSH1 0x20 DUP4 ADD DUP9 PUSH2 0xD19 JUMP JUMPDEST PUSH2 0x1216 PUSH1 0x40 DUP4 ADD DUP8 PUSH2 0xD19 JUMP JUMPDEST PUSH2 0x1223 PUSH1 0x60 DUP4 ADD DUP7 PUSH2 0xDE6 JUMP JUMPDEST PUSH2 0x1230 PUSH1 0x80 DUP4 ADD DUP6 PUSH2 0xD19 JUMP JUMPDEST PUSH2 0x123D PUSH1 0xA0 DUP4 ADD DUP5 PUSH2 0xDE6 JUMP JUMPDEST SWAP8 SWAP7 POP POP POP POP POP POP POP JUMP JUMPDEST PUSH32 0x4E487B7100000000000000000000000000000000000000000000000000000000 PUSH1 0x0 MSTORE PUSH1 0x32 PUSH1 0x4 MSTORE PUSH1 0x24 PUSH1 0x0 REVERT JUMPDEST PUSH32 0x46756E64732068617665206E6F74206265656E206C6F636B6564000000000000 PUSH1 0x0 DUP3 ADD MSTORE POP JUMP JUMPDEST PUSH1 0x0 PUSH2 0x12AD PUSH1 0x1A DUP4 PUSH2 0xF0B JUMP JUMPDEST SWAP2 POP PUSH2 0x12B8 DUP3 PUSH2 0x1277 JUMP JUMPDEST PUSH1 0x20 DUP3 ADD SWAP1 POP SWAP2 SWAP1 POP JUMP JUMPDEST PUSH1 0x0 PUSH1 0x20 DUP3 ADD SWAP1 POP DUP2 DUP2 SUB PUSH1 0x0 DUP4 ADD MSTORE PUSH2 0x12DC DUP2 PUSH2 0x12A0 JUMP JUMPDEST SWAP1 POP SWAP2 SWAP1 POP JUMP JUMPDEST PUSH32 0x546F6B656E20756E646572206C6F636B696E6720706C6561736520776169742E PUSH1 0x0 DUP3 ADD MSTORE PUSH32 0x2E00000000000000000000000000000000000000000000000000000000000000 PUSH1 0x20 DUP3 ADD MSTORE POP JUMP JUMPDEST PUSH1 0x0 PUSH2 0x133F PUSH1 0x21 DUP4 PUSH2 0xF0B JUMP JUMPDEST SWAP2 POP PUSH2 0x134A DUP3 PUSH2 0x12E3 JUMP JUMPDEST PUSH1 0x40 DUP3 ADD SWAP1 POP SWAP2 SWAP1 POP JUMP JUMPDEST PUSH1 0x0 PUSH1 0x20 DUP3 ADD SWAP1 POP DUP2 DUP2 SUB PUSH1 0x0 DUP4 ADD MSTORE PUSH2 0x136E DUP2 PUSH2 0x1332 JUMP JUMPDEST SWAP1 POP SWAP2 SWAP1 POP JUMP JUMPDEST PUSH1 0x0 PUSH2 0x1380 DUP3 PUSH2 0xB92 JUMP JUMPDEST SWAP2 POP PUSH2 0x138B DUP4 PUSH2 0xB92 JUMP JUMPDEST SWAP3 POP DUP3 DUP3 ADD SWAP1 POP DUP1 DUP3 GT ISZERO PUSH2 0x13A3 JUMPI PUSH2 0x13A2 PUSH2 0x1086 JUMP JUMPDEST JUMPDEST SWAP3 SWAP2 POP POP JUMP JUMPDEST PUSH32 0x436C696666206973206E6F7420656E646564207965742E000000000000000000 PUSH1 0x0 DUP3 ADD MSTORE POP JUMP JUMPDEST PUSH1 0x0 PUSH2 0x13DF PUSH1 0x17 DUP4 PUSH2 0xF0B JUMP JUMPDEST SWAP2 POP PUSH2 0x13EA DUP3 PUSH2 0x13A9 JUMP JUMPDEST PUSH1 0x20 DUP3 ADD SWAP1 POP SWAP2 SWAP1 POP JUMP JUMPDEST PUSH1 0x0 PUSH1 0x20 DUP3 ADD SWAP1 POP DUP2 DUP2 SUB PUSH1 0x0 DUP4 ADD MSTORE PUSH2 0x140E DUP2 PUSH2 0x13D2 JUMP JUMPDEST SWAP1 POP SWAP2 SWAP1 POP JUMP JUMPDEST PUSH32 0x4E6F7420656E6F75676820616D6F756E7420666F722077697468647261770000 PUSH1 0x0 DUP3 ADD MSTORE POP JUMP JUMPDEST PUSH1 0x0 PUSH2 0x144B PUSH1 0x1E DUP4 PUSH2 0xF0B JUMP JUMPDEST SWAP2 POP PUSH2 0x1456 DUP3 PUSH2 0x1415 JUMP JUMPDEST PUSH1 0x20 DUP3 ADD SWAP1 POP SWAP2 SWAP1 POP JUMP JUMPDEST PUSH1 0x0 PUSH1 0x20 DUP3 ADD SWAP1 POP DUP2 DUP2 SUB PUSH1 0x0 DUP4 ADD MSTORE PUSH2 0x147A DUP2 PUSH2 0x143E JUMP JUMPDEST SWAP1 POP SWAP2 SWAP1 POP JUMP JUMPDEST PUSH1 0x0 PUSH1 0x40 DUP3 ADD SWAP1 POP PUSH2 0x1496 PUSH1 0x0 DUP4 ADD DUP6 PUSH2 0xDF5 JUMP JUMPDEST PUSH2 0x14A3 PUSH1 0x20 DUP4 ADD DUP5 PUSH2 0xD19 JUMP JUMPDEST SWAP4 SWAP3 POP POP POP JUMP JUMPDEST PUSH1 0x0 PUSH2 0x14B5 DUP3 PUSH2 0xB92 JUMP JUMPDEST SWAP2 POP PUSH2 0x14C0 DUP4 PUSH2 0xB92 JUMP JUMPDEST SWAP3 POP DUP3 DUP3 SUB SWAP1 POP DUP2 DUP2 GT ISZERO PUSH2 0x14D8 JUMPI PUSH2 0x14D7 PUSH2 0x1086 JUMP JUMPDEST JUMPDEST SWAP3 SWAP2 POP POP JUMP JUMPDEST PUSH1 0x0 PUSH1 0x60 DUP3 ADD SWAP1 POP PUSH2 0x14F3 PUSH1 0x0 DUP4 ADD DUP7 PUSH2 0xDF5 JUMP JUMPDEST PUSH2 0x1500 PUSH1 0x20 DUP4 ADD DUP6 PUSH2 0xD19 JUMP JUMPDEST PUSH2 0x150D PUSH1 0x40 DUP4 ADD DUP5 PUSH2 0xD19 JUMP JUMPDEST SWAP5 SWAP4 POP POP POP POP JUMP JUMPDEST PUSH32 0x4F6E6C792074686520636F6E7472616374206F776E65722063616E2063616C6C PUSH1 0x0 DUP3 ADD MSTORE PUSH32 0x20746869732066756E6374696F6E000000000000000000000000000000000000 PUSH1 0x20 DUP3 ADD MSTORE POP JUMP JUMPDEST PUSH1 0x0 PUSH2 0x1571 PUSH1 0x2E DUP4 PUSH2 0xF0B JUMP JUMPDEST SWAP2 POP PUSH2 0x157C DUP3 PUSH2 0x1515 JUMP JUMPDEST PUSH1 0x40 DUP3 ADD SWAP1 POP SWAP2 SWAP1 POP JUMP JUMPDEST PUSH1 0x0 PUSH1 0x20 DUP3 ADD SWAP1 POP DUP2 DUP2 SUB PUSH1 0x0 DUP4 ADD MSTORE PUSH2 0x15A0 DUP2 PUSH2 0x1564 JUMP JUMPDEST SWAP1 POP SWAP2 SWAP1 POP JUMP INVALID LOG2 PUSH5 0x6970667358 0x22 SLT KECCAK256 0xF6 0xBB 0xB9 DUP8 GASLIMIT 0xE9 0x5F 0x4F GAS STOP DUP1 0xBA 0xC6 0xC9 DUP15 0xBD 0xD9 INVALID 0x2E DELEGATECALL NUMBER 0xC6 MSTORE SWAP1 CHAINID 0xE1 0xD0 0x27 SWAP1 0xCF LOG3 OR PUSH5 0x736F6C6343 STOP ADDMOD SLT STOP CALLER "
				},
				"gasEstimates": {
					"creation": {
						"codeDepositCost": "1119400",
						"executionCost": "25426",
						"totalCost": "1144826"
					},
					"external": {
						"addWhitelist(address)": "27026",
						"calculate_available_withdraw_token(uint256)": "infinite",
						"getTime()": "381",
						"lock(uint256,uint256,uint8,uint8,address,address)": "infinite",
						"token()": "infinite",
						"vestings(address,uint256)": "infinite",
						"whitelist(address)": "2845",
						"withdraw(uint256)": "infinite"
					}
				},
				"methodIdentifiers": {
					"addWhitelist(address)": "f80f5dd5",
					"calculate_available_withdraw_token(uint256)": "5952ffd1",
					"getTime()": "557ed1ba",
					"lock(uint256,uint256,uint8,uint8,address,address)": "1a072a22",
					"token()": "fc0c546a",
					"vestings(address,uint256)": "bd84477d",
					"whitelist(address)": "9b19251a",
					"withdraw(uint256)": "2e1a7d4d"
				}
			},
			"storageLayout": {
				"storage": [
					{
						"astId": 717,
						"contract": "Vesting Contract/version2.sol:Vesting",
						"label": "token",
						"offset": 0,
						"slot": "0",
						"type": "t_contract(ERC20)586"
					},
					{
						"astId": 719,
						"contract": "Vesting Contract/version2.sol:Vesting",
						"label": "owner",
						"offset": 0,
						"slot": "1",
						"type": "t_address"
					},
					{
						"astId": 721,
						"contract": "Vesting Contract/version2.sol:Vesting",
						"label": "contractAddress",
						"offset": 0,
						"slot": "2",
						"type": "t_address"
					},
					{
						"astId": 755,
						"contract": "Vesting Contract/version2.sol:Vesting",
						"label": "vestings",
						"offset": 0,
						"slot": "3",
						"type": "t_mapping(t_address,t_array(t_struct(VestingSchedule)749_storage)dyn_storage)"
					},
					{
						"astId": 759,
						"contract": "Vesting Contract/version2.sol:Vesting",
						"label": "whitelist",
						"offset": 0,
						"slot": "4",
						"type": "t_mapping(t_address,t_bool)"
					}
				],
				"types": {
					"t_address": {
						"encoding": "inplace",
						"label": "address",
						"numberOfBytes": "20"
					},
					"t_array(t_struct(VestingSchedule)749_storage)dyn_storage": {
						"base": "t_struct(VestingSchedule)749_storage",
						"encoding": "dynamic_array",
						"label": "struct Vesting.VestingSchedule[]",
						"numberOfBytes": "32"
					},
					"t_bool": {
						"encoding": "inplace",
						"label": "bool",
						"numberOfBytes": "1"
					},
					"t_contract(ERC20)586": {
						"encoding": "inplace",
						"label": "contract ERC20",
						"numberOfBytes": "20"
					},
					"t_mapping(t_address,t_array(t_struct(VestingSchedule)749_storage)dyn_storage)": {
						"encoding": "mapping",
						"key": "t_address",
						"label": "mapping(address => struct Vesting.VestingSchedule[])",
						"numberOfBytes": "32",
						"value": "t_array(t_struct(VestingSchedule)749_storage)dyn_storage"
					},
					"t_mapping(t_address,t_bool)": {
						"encoding": "mapping",
						"key": "t_address",
						"label": "mapping(address => bool)",
						"numberOfBytes": "32",
						"value": "t_bool"
					},
					"t_struct(VestingSchedule)749_storage": {
						"encoding": "inplace",
						"label": "struct Vesting.VestingSchedule",
						"members": [
							{
								"astId": 732,
								"contract": "Vesting Contract/version2.sol:Vesting",
								"label": "amount",
								"offset": 0,
								"slot": "0",
								"type": "t_uint256"
							},
							{
								"astId": 734,
								"contract": "Vesting Contract/version2.sol:Vesting",
								"label": "start",
								"offset": 0,
								"slot": "1",
								"type": "t_uint256"
							},
							{
								"astId": 736,
								"contract": "Vesting Contract/version2.sol:Vesting",
								"label": "duration",
								"offset": 0,
								"slot": "2",
								"type": "t_uint256"
							},
							{
								"astId": 738,
								"contract": "Vesting Contract/version2.sol:Vesting",
								"label": "locked",
								"offset": 0,
								"slot": "3",
								"type": "t_bool"
							},
							{
								"astId": 740,
								"contract": "Vesting Contract/version2.sol:Vesting",
								"label": "slice_period",
								"offset": 1,
								"slot": "3",
								"type": "t_uint8"
							},
							{
								"astId": 742,
								"contract": "Vesting Contract/version2.sol:Vesting",
								"label": "cliff",
								"offset": 2,
								"slot": "3",
								"type": "t_uint8"
							},
							{
								"astId": 744,
								"contract": "Vesting Contract/version2.sol:Vesting",
								"label": "recive_on_interval",
								"offset": 0,
								"slot": "4",
								"type": "t_uint256"
							},
							{
								"astId": 746,
								"contract": "Vesting Contract/version2.sol:Vesting",
								"label": "beneficiaries",
								"offset": 0,
								"slot": "5",
								"type": "t_address"
							},
							{
								"astId": 748,
								"contract": "Vesting Contract/version2.sol:Vesting",
								"label": "temp",
								"offset": 0,
								"slot": "6",
								"type": "t_uint256"
							}
						],
						"numberOfBytes": "224"
					},
					"t_uint256": {
						"encoding": "inplace",
						"label": "uint256",
						"numberOfBytes": "32"
					},
					"t_uint8": {
						"encoding": "inplace",
						"label": "uint8",
						"numberOfBytes": "1"
					}
				}
			},
			"userdoc": {
				"kind": "user",
				"methods": {},
				"version": 1
			}
		}
	}
}