{
	"data": {
		"bytecode": {
			"linkReferences": {},
			"object": "60806040526040518060600160405280600160ff168152602001600260ff168152602001600360ff1681525060009060036200003d92919062000225565b5060405180606001604052806040518060400160405280600581526020017f6170706c6500000000000000000000000000000000000000000000000000000081525081526020016040518060400160405280600681526020017f62616e616e61000000000000000000000000000000000000000000000000000081525081526020016040518060400160405280600481526020017f6b6572690000000000000000000000000000000000000000000000000000000081525081525060019060036200010a9291906200027c565b5060405180604001604052806040518060400160405280600581526020017f68726c6c6f00000000000000000000000000000000000000000000000000000081525081526020016040518060400160405280600281526020017f766b00000000000000000000000000000000000000000000000000000000000081525081525060029060026200019c929190620002dc565b5060405180604001604052806040518060600160405280600160ff168152602001600260ff168152602001600360ff1681525081526020016040518060600160405280600460ff168152602001600560ff168152602001600660ff168152508152506003906002620002109291906200033c565b503480156200021e57600080fd5b50620007d7565b82805482825590600052602060002090810192821562000269579160200282015b8281111562000268578251829060ff1690559160200191906001019062000246565b5b5090506200027891906200039e565b5090565b828054828255906000526020600020908101928215620002c9579160200282015b82811115620002c8578251829081620002b79190620006f0565b50916020019190600101906200029d565b5b509050620002d89190620003bd565b5090565b82805482825590600052602060002090810192821562000329579160200282015b8281111562000328578251829081620003179190620006f0565b5091602001919060010190620002fd565b5b509050620003389190620003bd565b5090565b8280548282559060005260206000209081019282156200038b579160200282015b828111156200038a578251829060036200037992919062000225565b50916020019190600101906200035d565b5b5090506200039a9190620003e5565b5090565b5b80821115620003b95760008160009055506001016200039f565b5090565b5b80821115620003e15760008181620003d791906200040d565b50600101620003be565b5090565b5b80821115620004095760008181620003ff919062000453565b50600101620003e6565b5090565b5080546200041b90620004df565b6000825580601f106200042f575062000450565b601f0160209004906000526020600020908101906200044f91906200039e565b5b50565b50805460008255906000526020600020908101906200047391906200039e565b50565b600081519050919050565b7f4e487b7100000000000000000000000000000000000000000000000000000000600052604160045260246000fd5b7f4e487b7100000000000000000000000000000000000000000000000000000000600052602260045260246000fd5b60006002820490506001821680620004f857607f821691505b6020821081036200050e576200050d620004b0565b5b50919050565b60008190508160005260206000209050919050565b60006020601f8301049050919050565b600082821b905092915050565b600060088302620005787fffffffffffffffffffffffffffffffffffffffffffffffffffffffffffffffff8262000539565b62000584868362000539565b95508019841693508086168417925050509392505050565b6000819050919050565b6000819050919050565b6000620005d1620005cb620005c5846200059c565b620005a6565b6200059c565b9050919050565b6000819050919050565b620005ed83620005b0565b62000605620005fc82620005d8565b84845462000546565b825550505050565b600090565b6200061c6200060d565b62000629818484620005e2565b505050565b5b8181101562000651576200064560008262000612565b6001810190506200062f565b5050565b601f821115620006a0576200066a8162000514565b620006758462000529565b8101602085101562000685578190505b6200069d620006948562000529565b8301826200062e565b50505b505050565b600082821c905092915050565b6000620006c560001984600802620006a5565b1980831691505092915050565b6000620006e08383620006b2565b9150826002028217905092915050565b620006fb8262000476565b67ffffffffffffffff81111562000717576200071662000481565b5b620007238254620004df565b6200073082828562000655565b600060209050601f83116001811462000768576000841562000753578287015190505b6200075f8582620006d2565b865550620007cf565b601f198416620007788662000514565b60005b82811015620007a2578489015182556001820191506020850194506020810190506200077b565b86831015620007c25784890151620007be601f891682620006b2565b8355505b6001600288020188555050505b505050505050565b610c6780620007e76000396000f3fe608060405234801561001057600080fd5b50600436106100625760003560e01c806362666f86146100675780636c3755ad14610097578063a80d136e146100c7578063b10a4c6c146100f7578063dd74706c14610127578063ee5ddf0414610145575b600080fd5b610081600480360381019061007c91906104b8565b610161565b60405161008e9190610575565b60405180910390f35b6100b160048036038101906100ac91906104b8565b61020d565b6040516100be9190610575565b60405180910390f35b6100e160048036038101906100dc9190610597565b6102b9565b6040516100ee91906105e6565b60405180910390f35b610111600480360381019061010c91906104b8565b6102f6565b60405161011e91906105e6565b60405180910390f35b61012f61031a565b60405161013c919061070d565b60405180910390f35b61015f600480360381019061015a9190610864565b610436565b005b6001818154811061017157600080fd5b90600052602060002001600091509050805461018c906108dc565b80601f01602080910402602001604051908101604052809291908181526020018280546101b8906108dc565b80156102055780601f106101da57610100808354040283529160200191610205565b820191906000526020600020905b8154815290600101906020018083116101e857829003601f168201915b505050505081565b6002818154811061021d57600080fd5b906000526020600020016000915090508054610238906108dc565b80601f0160208091040260200160405190810160405280929190818152602001828054610264906108dc565b80156102b15780601f10610286576101008083540402835291602001916102b1565b820191906000526020600020905b81548152906001019060200180831161029457829003601f168201915b505050505081565b600382815481106102c957600080fd5b9060005260206000200181815481106102e157600080fd5b90600052602060002001600091509150505481565b6000818154811061030657600080fd5b906000526020600020016000915090505481565b606060005b60028054905081101561035e57600281815481106103405761033f61090d565b5b906000526020600020505080806103569061096b565b91505061031f565b506002805480602002602001604051908101604052809291908181526020016000905b8282101561042d5783829060005260206000200180546103a0906108dc565b80601f01602080910402602001604051908101604052809291908181526020018280546103cc906108dc565b80156104195780601f106103ee57610100808354040283529160200191610419565b820191906000526020600020905b8154815290600101906020018083116103fc57829003601f168201915b505050505081526020019060010190610381565b50505050905090565b60028190806001815401808255809150506001900390600052602060002001600090919091909150908161046a9190610b5f565b5050565b6000604051905090565b600080fd5b600080fd5b6000819050919050565b61049581610482565b81146104a057600080fd5b50565b6000813590506104b28161048c565b92915050565b6000602082840312156104ce576104cd610478565b5b60006104dc848285016104a3565b91505092915050565b600081519050919050565b600082825260208201905092915050565b60005b8381101561051f578082015181840152602081019050610504565b60008484015250505050565b6000601f19601f8301169050919050565b6000610547826104e5565b61055181856104f0565b9350610561818560208601610501565b61056a8161052b565b840191505092915050565b6000602082019050818103600083015261058f818461053c565b905092915050565b600080604083850312156105ae576105ad610478565b5b60006105bc858286016104a3565b92505060206105cd858286016104a3565b9150509250929050565b6105e081610482565b82525050565b60006020820190506105fb60008301846105d7565b92915050565b600081519050919050565b600082825260208201905092915050565b6000819050602082019050919050565b600082825260208201905092915050565b6000610649826104e5565b610653818561062d565b9350610663818560208601610501565b61066c8161052b565b840191505092915050565b6000610683838361063e565b905092915050565b6000602082019050919050565b60006106a382610601565b6106ad818561060c565b9350836020820285016106bf8561061d565b8060005b858110156106fb57848403895281516106dc8582610677565b94506106e78361068b565b925060208a019950506001810190506106c3565b50829750879550505050505092915050565b600060208201905081810360008301526107278184610698565b905092915050565b600080fd5b600080fd5b7f4e487b7100000000000000000000000000000000000000000000000000000000600052604160045260246000fd5b6107718261052b565b810181811067ffffffffffffffff821117156107905761078f610739565b5b80604052505050565b60006107a361046e565b90506107af8282610768565b919050565b600067ffffffffffffffff8211156107cf576107ce610739565b5b6107d88261052b565b9050602081019050919050565b82818337600083830152505050565b6000610807610802846107b4565b610799565b90508281526020810184848401111561082357610822610734565b5b61082e8482856107e5565b509392505050565b600082601f83011261084b5761084a61072f565b5b813561085b8482602086016107f4565b91505092915050565b60006020828403121561087a57610879610478565b5b600082013567ffffffffffffffff8111156108985761089761047d565b5b6108a484828501610836565b91505092915050565b7f4e487b7100000000000000000000000000000000000000000000000000000000600052602260045260246000fd5b600060028204905060018216806108f457607f821691505b602082108103610907576109066108ad565b5b50919050565b7f4e487b7100000000000000000000000000000000000000000000000000000000600052603260045260246000fd5b7f4e487b7100000000000000000000000000000000000000000000000000000000600052601160045260246000fd5b600061097682610482565b91507fffffffffffffffffffffffffffffffffffffffffffffffffffffffffffffffff82036109a8576109a761093c565b5b600182019050919050565b60008190508160005260206000209050919050565b60006020601f8301049050919050565b600082821b905092915050565b600060088302610a157fffffffffffffffffffffffffffffffffffffffffffffffffffffffffffffffff826109d8565b610a1f86836109d8565b95508019841693508086168417925050509392505050565b6000819050919050565b6000610a5c610a57610a5284610482565b610a37565b610482565b9050919050565b6000819050919050565b610a7683610a41565b610a8a610a8282610a63565b8484546109e5565b825550505050565b600090565b610a9f610a92565b610aaa818484610a6d565b505050565b5b81811015610ace57610ac3600082610a97565b600181019050610ab0565b5050565b601f821115610b1357610ae4816109b3565b610aed846109c8565b81016020851015610afc578190505b610b10610b08856109c8565b830182610aaf565b50505b505050565b600082821c905092915050565b6000610b3660001984600802610b18565b1980831691505092915050565b6000610b4f8383610b25565b9150826002028217905092915050565b610b68826104e5565b67ffffffffffffffff811115610b8157610b80610739565b5b610b8b82546108dc565b610b96828285610ad2565b600060209050601f831160018114610bc95760008415610bb7578287015190505b610bc18582610b43565b865550610c29565b601f198416610bd7866109b3565b60005b82811015610bff57848901518255600182019150602085019450602081019050610bda565b86831015610c1c5784890151610c18601f891682610b25565b8355505b6001600288020188555050505b50505050505056fea2646970667358221220e4428698319e9e56e80e3ca417cd8b4db01726c48a0e17a0fce1f9b3514d346364736f6c63430008120033",
			"opcodes": "PUSH1 0x80 PUSH1 0x40 MSTORE PUSH1 0x40 MLOAD DUP1 PUSH1 0x60 ADD PUSH1 0x40 MSTORE DUP1 PUSH1 0x1 PUSH1 0xFF AND DUP2 MSTORE PUSH1 0x20 ADD PUSH1 0x2 PUSH1 0xFF AND DUP2 MSTORE PUSH1 0x20 ADD PUSH1 0x3 PUSH1 0xFF AND DUP2 MSTORE POP PUSH1 0x0 SWAP1 PUSH1 0x3 PUSH3 0x3D SWAP3 SWAP2 SWAP1 PUSH3 0x225 JUMP JUMPDEST POP PUSH1 0x40 MLOAD DUP1 PUSH1 0x60 ADD PUSH1 0x40 MSTORE DUP1 PUSH1 0x40 MLOAD DUP1 PUSH1 0x40 ADD PUSH1 0x40 MSTORE DUP1 PUSH1 0x5 DUP2 MSTORE PUSH1 0x20 ADD PUSH32 0x6170706C65000000000000000000000000000000000000000000000000000000 DUP2 MSTORE POP DUP2 MSTORE PUSH1 0x20 ADD PUSH1 0x40 MLOAD DUP1 PUSH1 0x40 ADD PUSH1 0x40 MSTORE DUP1 PUSH1 0x6 DUP2 MSTORE PUSH1 0x20 ADD PUSH32 0x62616E616E610000000000000000000000000000000000000000000000000000 DUP2 MSTORE POP DUP2 MSTORE PUSH1 0x20 ADD PUSH1 0x40 MLOAD DUP1 PUSH1 0x40 ADD PUSH1 0x40 MSTORE DUP1 PUSH1 0x4 DUP2 MSTORE PUSH1 0x20 ADD PUSH32 0x6B65726900000000000000000000000000000000000000000000000000000000 DUP2 MSTORE POP DUP2 MSTORE POP PUSH1 0x1 SWAP1 PUSH1 0x3 PUSH3 0x10A SWAP3 SWAP2 SWAP1 PUSH3 0x27C JUMP JUMPDEST POP PUSH1 0x40 MLOAD DUP1 PUSH1 0x40 ADD PUSH1 0x40 MSTORE DUP1 PUSH1 0x40 MLOAD DUP1 PUSH1 0x40 ADD PUSH1 0x40 MSTORE DUP1 PUSH1 0x5 DUP2 MSTORE PUSH1 0x20 ADD PUSH32 0x68726C6C6F000000000000000000000000000000000000000000000000000000 DUP2 MSTORE POP DUP2 MSTORE PUSH1 0x20 ADD PUSH1 0x40 MLOAD DUP1 PUSH1 0x40 ADD PUSH1 0x40 MSTORE DUP1 PUSH1 0x2 DUP2 MSTORE PUSH1 0x20 ADD PUSH32 0x766B000000000000000000000000000000000000000000000000000000000000 DUP2 MSTORE POP DUP2 MSTORE POP PUSH1 0x2 SWAP1 PUSH1 0x2 PUSH3 0x19C SWAP3 SWAP2 SWAP1 PUSH3 0x2DC JUMP JUMPDEST POP PUSH1 0x40 MLOAD DUP1 PUSH1 0x40 ADD PUSH1 0x40 MSTORE DUP1 PUSH1 0x40 MLOAD DUP1 PUSH1 0x60 ADD PUSH1 0x40 MSTORE DUP1 PUSH1 0x1 PUSH1 0xFF AND DUP2 MSTORE PUSH1 0x20 ADD PUSH1 0x2 PUSH1 0xFF AND DUP2 MSTORE PUSH1 0x20 ADD PUSH1 0x3 PUSH1 0xFF AND DUP2 MSTORE POP DUP2 MSTORE PUSH1 0x20 ADD PUSH1 0x40 MLOAD DUP1 PUSH1 0x60 ADD PUSH1 0x40 MSTORE DUP1 PUSH1 0x4 PUSH1 0xFF AND DUP2 MSTORE PUSH1 0x20 ADD PUSH1 0x5 PUSH1 0xFF AND DUP2 MSTORE PUSH1 0x20 ADD PUSH1 0x6 PUSH1 0xFF AND DUP2 MSTORE POP DUP2 MSTORE POP PUSH1 0x3 SWAP1 PUSH1 0x2 PUSH3 0x210 SWAP3 SWAP2 SWAP1 PUSH3 0x33C JUMP JUMPDEST POP CALLVALUE DUP1 ISZERO PUSH3 0x21E JUMPI PUSH1 0x0 DUP1 REVERT JUMPDEST POP PUSH3 0x7D7 JUMP JUMPDEST DUP3 DUP1 SLOAD DUP3 DUP3 SSTORE SWAP1 PUSH1 0x0 MSTORE PUSH1 0x20 PUSH1 0x0 KECCAK256 SWAP1 DUP2 ADD SWAP3 DUP3 ISZERO PUSH3 0x269 JUMPI SWAP2 PUSH1 0x20 MUL DUP3 ADD JUMPDEST DUP3 DUP2 GT ISZERO PUSH3 0x268 JUMPI DUP3 MLOAD DUP3 SWAP1 PUSH1 0xFF AND SWAP1 SSTORE SWAP2 PUSH1 0x20 ADD SWAP2 SWAP1 PUSH1 0x1 ADD SWAP1 PUSH3 0x246 JUMP JUMPDEST JUMPDEST POP SWAP1 POP PUSH3 0x278 SWAP2 SWAP1 PUSH3 0x39E JUMP JUMPDEST POP SWAP1 JUMP JUMPDEST DUP3 DUP1 SLOAD DUP3 DUP3 SSTORE SWAP1 PUSH1 0x0 MSTORE PUSH1 0x20 PUSH1 0x0 KECCAK256 SWAP1 DUP2 ADD SWAP3 DUP3 ISZERO PUSH3 0x2C9 JUMPI SWAP2 PUSH1 0x20 MUL DUP3 ADD JUMPDEST DUP3 DUP2 GT ISZERO PUSH3 0x2C8 JUMPI DUP3 MLOAD DUP3 SWAP1 DUP2 PUSH3 0x2B7 SWAP2 SWAP1 PUSH3 0x6F0 JUMP JUMPDEST POP SWAP2 PUSH1 0x20 ADD SWAP2 SWAP1 PUSH1 0x1 ADD SWAP1 PUSH3 0x29D JUMP JUMPDEST JUMPDEST POP SWAP1 POP PUSH3 0x2D8 SWAP2 SWAP1 PUSH3 0x3BD JUMP JUMPDEST POP SWAP1 JUMP JUMPDEST DUP3 DUP1 SLOAD DUP3 DUP3 SSTORE SWAP1 PUSH1 0x0 MSTORE PUSH1 0x20 PUSH1 0x0 KECCAK256 SWAP1 DUP2 ADD SWAP3 DUP3 ISZERO PUSH3 0x329 JUMPI SWAP2 PUSH1 0x20 MUL DUP3 ADD JUMPDEST DUP3 DUP2 GT ISZERO PUSH3 0x328 JUMPI DUP3 MLOAD DUP3 SWAP1 DUP2 PUSH3 0x317 SWAP2 SWAP1 PUSH3 0x6F0 JUMP JUMPDEST POP SWAP2 PUSH1 0x20 ADD SWAP2 SWAP1 PUSH1 0x1 ADD SWAP1 PUSH3 0x2FD JUMP JUMPDEST JUMPDEST POP SWAP1 POP PUSH3 0x338 SWAP2 SWAP1 PUSH3 0x3BD JUMP JUMPDEST POP SWAP1 JUMP JUMPDEST DUP3 DUP1 SLOAD DUP3 DUP3 SSTORE SWAP1 PUSH1 0x0 MSTORE PUSH1 0x20 PUSH1 0x0 KECCAK256 SWAP1 DUP2 ADD SWAP3 DUP3 ISZERO PUSH3 0x38B JUMPI SWAP2 PUSH1 0x20 MUL DUP3 ADD JUMPDEST DUP3 DUP2 GT ISZERO PUSH3 0x38A JUMPI DUP3 MLOAD DUP3 SWAP1 PUSH1 0x3 PUSH3 0x379 SWAP3 SWAP2 SWAP1 PUSH3 0x225 JUMP JUMPDEST POP SWAP2 PUSH1 0x20 ADD SWAP2 SWAP1 PUSH1 0x1 ADD SWAP1 PUSH3 0x35D JUMP JUMPDEST JUMPDEST POP SWAP1 POP PUSH3 0x39A SWAP2 SWAP1 PUSH3 0x3E5 JUMP JUMPDEST POP SWAP1 JUMP JUMPDEST JUMPDEST DUP1 DUP3 GT ISZERO PUSH3 0x3B9 JUMPI PUSH1 0x0 DUP2 PUSH1 0x0 SWAP1 SSTORE POP PUSH1 0x1 ADD PUSH3 0x39F JUMP JUMPDEST POP SWAP1 JUMP JUMPDEST JUMPDEST DUP1 DUP3 GT ISZERO PUSH3 0x3E1 JUMPI PUSH1 0x0 DUP2 DUP2 PUSH3 0x3D7 SWAP2 SWAP1 PUSH3 0x40D JUMP JUMPDEST POP PUSH1 0x1 ADD PUSH3 0x3BE JUMP JUMPDEST POP SWAP1 JUMP JUMPDEST JUMPDEST DUP1 DUP3 GT ISZERO PUSH3 0x409 JUMPI PUSH1 0x0 DUP2 DUP2 PUSH3 0x3FF SWAP2 SWAP1 PUSH3 0x453 JUMP JUMPDEST POP PUSH1 0x1 ADD PUSH3 0x3E6 JUMP JUMPDEST POP SWAP1 JUMP JUMPDEST POP DUP1 SLOAD PUSH3 0x41B SWAP1 PUSH3 0x4DF JUMP JUMPDEST PUSH1 0x0 DUP3 SSTORE DUP1 PUSH1 0x1F LT PUSH3 0x42F JUMPI POP PUSH3 0x450 JUMP JUMPDEST PUSH1 0x1F ADD PUSH1 0x20 SWAP1 DIV SWAP1 PUSH1 0x0 MSTORE PUSH1 0x20 PUSH1 0x0 KECCAK256 SWAP1 DUP2 ADD SWAP1 PUSH3 0x44F SWAP2 SWAP1 PUSH3 0x39E JUMP JUMPDEST JUMPDEST POP JUMP JUMPDEST POP DUP1 SLOAD PUSH1 0x0 DUP3 SSTORE SWAP1 PUSH1 0x0 MSTORE PUSH1 0x20 PUSH1 0x0 KECCAK256 SWAP1 DUP2 ADD SWAP1 PUSH3 0x473 SWAP2 SWAP1 PUSH3 0x39E JUMP JUMPDEST POP JUMP JUMPDEST PUSH1 0x0 DUP2 MLOAD SWAP1 POP SWAP2 SWAP1 POP JUMP JUMPDEST PUSH32 0x4E487B7100000000000000000000000000000000000000000000000000000000 PUSH1 0x0 MSTORE PUSH1 0x41 PUSH1 0x4 MSTORE PUSH1 0x24 PUSH1 0x0 REVERT JUMPDEST PUSH32 0x4E487B7100000000000000000000000000000000000000000000000000000000 PUSH1 0x0 MSTORE PUSH1 0x22 PUSH1 0x4 MSTORE PUSH1 0x24 PUSH1 0x0 REVERT JUMPDEST PUSH1 0x0 PUSH1 0x2 DUP3 DIV SWAP1 POP PUSH1 0x1 DUP3 AND DUP1 PUSH3 0x4F8 JUMPI PUSH1 0x7F DUP3 AND SWAP2 POP JUMPDEST PUSH1 0x20 DUP3 LT DUP2 SUB PUSH3 0x50E JUMPI PUSH3 0x50D PUSH3 0x4B0 JUMP JUMPDEST JUMPDEST POP SWAP2 SWAP1 POP JUMP JUMPDEST PUSH1 0x0 DUP2 SWAP1 POP DUP2 PUSH1 0x0 MSTORE PUSH1 0x20 PUSH1 0x0 KECCAK256 SWAP1 POP SWAP2 SWAP1 POP JUMP JUMPDEST PUSH1 0x0 PUSH1 0x20 PUSH1 0x1F DUP4 ADD DIV SWAP1 POP SWAP2 SWAP1 POP JUMP JUMPDEST PUSH1 0x0 DUP3 DUP3 SHL SWAP1 POP SWAP3 SWAP2 POP POP JUMP JUMPDEST PUSH1 0x0 PUSH1 0x8 DUP4 MUL PUSH3 0x578 PUSH32 0xFFFFFFFFFFFFFFFFFFFFFFFFFFFFFFFFFFFFFFFFFFFFFFFFFFFFFFFFFFFFFFFF DUP3 PUSH3 0x539 JUMP JUMPDEST PUSH3 0x584 DUP7 DUP4 PUSH3 0x539 JUMP JUMPDEST SWAP6 POP DUP1 NOT DUP5 AND SWAP4 POP DUP1 DUP7 AND DUP5 OR SWAP3 POP POP POP SWAP4 SWAP3 POP POP POP JUMP JUMPDEST PUSH1 0x0 DUP2 SWAP1 POP SWAP2 SWAP1 POP JUMP JUMPDEST PUSH1 0x0 DUP2 SWAP1 POP SWAP2 SWAP1 POP JUMP JUMPDEST PUSH1 0x0 PUSH3 0x5D1 PUSH3 0x5CB PUSH3 0x5C5 DUP5 PUSH3 0x59C JUMP JUMPDEST PUSH3 0x5A6 JUMP JUMPDEST PUSH3 0x59C JUMP JUMPDEST SWAP1 POP SWAP2 SWAP1 POP JUMP JUMPDEST PUSH1 0x0 DUP2 SWAP1 POP SWAP2 SWAP1 POP JUMP JUMPDEST PUSH3 0x5ED DUP4 PUSH3 0x5B0 JUMP JUMPDEST PUSH3 0x605 PUSH3 0x5FC DUP3 PUSH3 0x5D8 JUMP JUMPDEST DUP5 DUP5 SLOAD PUSH3 0x546 JUMP JUMPDEST DUP3 SSTORE POP POP POP POP JUMP JUMPDEST PUSH1 0x0 SWAP1 JUMP JUMPDEST PUSH3 0x61C PUSH3 0x60D JUMP JUMPDEST PUSH3 0x629 DUP2 DUP5 DUP5 PUSH3 0x5E2 JUMP JUMPDEST POP POP POP JUMP JUMPDEST JUMPDEST DUP2 DUP2 LT ISZERO PUSH3 0x651 JUMPI PUSH3 0x645 PUSH1 0x0 DUP3 PUSH3 0x612 JUMP JUMPDEST PUSH1 0x1 DUP2 ADD SWAP1 POP PUSH3 0x62F JUMP JUMPDEST POP POP JUMP JUMPDEST PUSH1 0x1F DUP3 GT ISZERO PUSH3 0x6A0 JUMPI PUSH3 0x66A DUP2 PUSH3 0x514 JUMP JUMPDEST PUSH3 0x675 DUP5 PUSH3 0x529 JUMP JUMPDEST DUP2 ADD PUSH1 0x20 DUP6 LT ISZERO PUSH3 0x685 JUMPI DUP2 SWAP1 POP JUMPDEST PUSH3 0x69D PUSH3 0x694 DUP6 PUSH3 0x529 JUMP JUMPDEST DUP4 ADD DUP3 PUSH3 0x62E JUMP JUMPDEST POP POP JUMPDEST POP POP POP JUMP JUMPDEST PUSH1 0x0 DUP3 DUP3 SHR SWAP1 POP SWAP3 SWAP2 POP POP JUMP JUMPDEST PUSH1 0x0 PUSH3 0x6C5 PUSH1 0x0 NOT DUP5 PUSH1 0x8 MUL PUSH3 0x6A5 JUMP JUMPDEST NOT DUP1 DUP4 AND SWAP2 POP POP SWAP3 SWAP2 POP POP JUMP JUMPDEST PUSH1 0x0 PUSH3 0x6E0 DUP4 DUP4 PUSH3 0x6B2 JUMP JUMPDEST SWAP2 POP DUP3 PUSH1 0x2 MUL DUP3 OR SWAP1 POP SWAP3 SWAP2 POP POP JUMP JUMPDEST PUSH3 0x6FB DUP3 PUSH3 0x476 JUMP JUMPDEST PUSH8 0xFFFFFFFFFFFFFFFF DUP2 GT ISZERO PUSH3 0x717 JUMPI PUSH3 0x716 PUSH3 0x481 JUMP JUMPDEST JUMPDEST PUSH3 0x723 DUP3 SLOAD PUSH3 0x4DF JUMP JUMPDEST PUSH3 0x730 DUP3 DUP3 DUP6 PUSH3 0x655 JUMP JUMPDEST PUSH1 0x0 PUSH1 0x20 SWAP1 POP PUSH1 0x1F DUP4 GT PUSH1 0x1 DUP2 EQ PUSH3 0x768 JUMPI PUSH1 0x0 DUP5 ISZERO PUSH3 0x753 JUMPI DUP3 DUP8 ADD MLOAD SWAP1 POP JUMPDEST PUSH3 0x75F DUP6 DUP3 PUSH3 0x6D2 JUMP JUMPDEST DUP7 SSTORE POP PUSH3 0x7CF JUMP JUMPDEST PUSH1 0x1F NOT DUP5 AND PUSH3 0x778 DUP7 PUSH3 0x514 JUMP JUMPDEST PUSH1 0x0 JUMPDEST DUP3 DUP2 LT ISZERO PUSH3 0x7A2 JUMPI DUP5 DUP10 ADD MLOAD DUP3 SSTORE PUSH1 0x1 DUP3 ADD SWAP2 POP PUSH1 0x20 DUP6 ADD SWAP5 POP PUSH1 0x20 DUP2 ADD SWAP1 POP PUSH3 0x77B JUMP JUMPDEST DUP7 DUP4 LT ISZERO PUSH3 0x7C2 JUMPI DUP5 DUP10 ADD MLOAD PUSH3 0x7BE PUSH1 0x1F DUP10 AND DUP3 PUSH3 0x6B2 JUMP JUMPDEST DUP4 SSTORE POP JUMPDEST PUSH1 0x1 PUSH1 0x2 DUP9 MUL ADD DUP9 SSTORE POP POP POP JUMPDEST POP POP POP POP POP POP JUMP JUMPDEST PUSH2 0xC67 DUP1 PUSH3 0x7E7 PUSH1 0x0 CODECOPY PUSH1 0x0 RETURN INVALID PUSH1 0x80 PUSH1 0x40 MSTORE CALLVALUE DUP1 ISZERO PUSH2 0x10 JUMPI PUSH1 0x0 DUP1 REVERT JUMPDEST POP PUSH1 0x4 CALLDATASIZE LT PUSH2 0x62 JUMPI PUSH1 0x0 CALLDATALOAD PUSH1 0xE0 SHR DUP1 PUSH4 0x62666F86 EQ PUSH2 0x67 JUMPI DUP1 PUSH4 0x6C3755AD EQ PUSH2 0x97 JUMPI DUP1 PUSH4 0xA80D136E EQ PUSH2 0xC7 JUMPI DUP1 PUSH4 0xB10A4C6C EQ PUSH2 0xF7 JUMPI DUP1 PUSH4 0xDD74706C EQ PUSH2 0x127 JUMPI DUP1 PUSH4 0xEE5DDF04 EQ PUSH2 0x145 JUMPI JUMPDEST PUSH1 0x0 DUP1 REVERT JUMPDEST PUSH2 0x81 PUSH1 0x4 DUP1 CALLDATASIZE SUB DUP2 ADD SWAP1 PUSH2 0x7C SWAP2 SWAP1 PUSH2 0x4B8 JUMP JUMPDEST PUSH2 0x161 JUMP JUMPDEST PUSH1 0x40 MLOAD PUSH2 0x8E SWAP2 SWAP1 PUSH2 0x575 JUMP JUMPDEST PUSH1 0x40 MLOAD DUP1 SWAP2 SUB SWAP1 RETURN JUMPDEST PUSH2 0xB1 PUSH1 0x4 DUP1 CALLDATASIZE SUB DUP2 ADD SWAP1 PUSH2 0xAC SWAP2 SWAP1 PUSH2 0x4B8 JUMP JUMPDEST PUSH2 0x20D JUMP JUMPDEST PUSH1 0x40 MLOAD PUSH2 0xBE SWAP2 SWAP1 PUSH2 0x575 JUMP JUMPDEST PUSH1 0x40 MLOAD DUP1 SWAP2 SUB SWAP1 RETURN JUMPDEST PUSH2 0xE1 PUSH1 0x4 DUP1 CALLDATASIZE SUB DUP2 ADD SWAP1 PUSH2 0xDC SWAP2 SWAP1 PUSH2 0x597 JUMP JUMPDEST PUSH2 0x2B9 JUMP JUMPDEST PUSH1 0x40 MLOAD PUSH2 0xEE SWAP2 SWAP1 PUSH2 0x5E6 JUMP JUMPDEST PUSH1 0x40 MLOAD DUP1 SWAP2 SUB SWAP1 RETURN JUMPDEST PUSH2 0x111 PUSH1 0x4 DUP1 CALLDATASIZE SUB DUP2 ADD SWAP1 PUSH2 0x10C SWAP2 SWAP1 PUSH2 0x4B8 JUMP JUMPDEST PUSH2 0x2F6 JUMP JUMPDEST PUSH1 0x40 MLOAD PUSH2 0x11E SWAP2 SWAP1 PUSH2 0x5E6 JUMP JUMPDEST PUSH1 0x40 MLOAD DUP1 SWAP2 SUB SWAP1 RETURN JUMPDEST PUSH2 0x12F PUSH2 0x31A JUMP JUMPDEST PUSH1 0x40 MLOAD PUSH2 0x13C SWAP2 SWAP1 PUSH2 0x70D JUMP JUMPDEST PUSH1 0x40 MLOAD DUP1 SWAP2 SUB SWAP1 RETURN JUMPDEST PUSH2 0x15F PUSH1 0x4 DUP1 CALLDATASIZE SUB DUP2 ADD SWAP1 PUSH2 0x15A SWAP2 SWAP1 PUSH2 0x864 JUMP JUMPDEST PUSH2 0x436 JUMP JUMPDEST STOP JUMPDEST PUSH1 0x1 DUP2 DUP2 SLOAD DUP2 LT PUSH2 0x171 JUMPI PUSH1 0x0 DUP1 REVERT JUMPDEST SWAP1 PUSH1 0x0 MSTORE PUSH1 0x20 PUSH1 0x0 KECCAK256 ADD PUSH1 0x0 SWAP2 POP SWAP1 POP DUP1 SLOAD PUSH2 0x18C SWAP1 PUSH2 0x8DC JUMP JUMPDEST DUP1 PUSH1 0x1F ADD PUSH1 0x20 DUP1 SWAP2 DIV MUL PUSH1 0x20 ADD PUSH1 0x40 MLOAD SWAP1 DUP2 ADD PUSH1 0x40 MSTORE DUP1 SWAP3 SWAP2 SWAP1 DUP2 DUP2 MSTORE PUSH1 0x20 ADD DUP3 DUP1 SLOAD PUSH2 0x1B8 SWAP1 PUSH2 0x8DC JUMP JUMPDEST DUP1 ISZERO PUSH2 0x205 JUMPI DUP1 PUSH1 0x1F LT PUSH2 0x1DA JUMPI PUSH2 0x100 DUP1 DUP4 SLOAD DIV MUL DUP4 MSTORE SWAP2 PUSH1 0x20 ADD SWAP2 PUSH2 0x205 JUMP JUMPDEST DUP3 ADD SWAP2 SWAP1 PUSH1 0x0 MSTORE PUSH1 0x20 PUSH1 0x0 KECCAK256 SWAP1 JUMPDEST DUP2 SLOAD DUP2 MSTORE SWAP1 PUSH1 0x1 ADD SWAP1 PUSH1 0x20 ADD DUP1 DUP4 GT PUSH2 0x1E8 JUMPI DUP3 SWAP1 SUB PUSH1 0x1F AND DUP3 ADD SWAP2 JUMPDEST POP POP POP POP POP DUP2 JUMP JUMPDEST PUSH1 0x2 DUP2 DUP2 SLOAD DUP2 LT PUSH2 0x21D JUMPI PUSH1 0x0 DUP1 REVERT JUMPDEST SWAP1 PUSH1 0x0 MSTORE PUSH1 0x20 PUSH1 0x0 KECCAK256 ADD PUSH1 0x0 SWAP2 POP SWAP1 POP DUP1 SLOAD PUSH2 0x238 SWAP1 PUSH2 0x8DC JUMP JUMPDEST DUP1 PUSH1 0x1F ADD PUSH1 0x20 DUP1 SWAP2 DIV MUL PUSH1 0x20 ADD PUSH1 0x40 MLOAD SWAP1 DUP2 ADD PUSH1 0x40 MSTORE DUP1 SWAP3 SWAP2 SWAP1 DUP2 DUP2 MSTORE PUSH1 0x20 ADD DUP3 DUP1 SLOAD PUSH2 0x264 SWAP1 PUSH2 0x8DC JUMP JUMPDEST DUP1 ISZERO PUSH2 0x2B1 JUMPI DUP1 PUSH1 0x1F LT PUSH2 0x286 JUMPI PUSH2 0x100 DUP1 DUP4 SLOAD DIV MUL DUP4 MSTORE SWAP2 PUSH1 0x20 ADD SWAP2 PUSH2 0x2B1 JUMP JUMPDEST DUP3 ADD SWAP2 SWAP1 PUSH1 0x0 MSTORE PUSH1 0x20 PUSH1 0x0 KECCAK256 SWAP1 JUMPDEST DUP2 SLOAD DUP2 MSTORE SWAP1 PUSH1 0x1 ADD SWAP1 PUSH1 0x20 ADD DUP1 DUP4 GT PUSH2 0x294 JUMPI DUP3 SWAP1 SUB PUSH1 0x1F AND DUP3 ADD SWAP2 JUMPDEST POP POP POP POP POP DUP2 JUMP JUMPDEST PUSH1 0x3 DUP3 DUP2 SLOAD DUP2 LT PUSH2 0x2C9 JUMPI PUSH1 0x0 DUP1 REVERT JUMPDEST SWAP1 PUSH1 0x0 MSTORE PUSH1 0x20 PUSH1 0x0 KECCAK256 ADD DUP2 DUP2 SLOAD DUP2 LT PUSH2 0x2E1 JUMPI PUSH1 0x0 DUP1 REVERT JUMPDEST SWAP1 PUSH1 0x0 MSTORE PUSH1 0x20 PUSH1 0x0 KECCAK256 ADD PUSH1 0x0 SWAP2 POP SWAP2 POP POP SLOAD DUP2 JUMP JUMPDEST PUSH1 0x0 DUP2 DUP2 SLOAD DUP2 LT PUSH2 0x306 JUMPI PUSH1 0x0 DUP1 REVERT JUMPDEST SWAP1 PUSH1 0x0 MSTORE PUSH1 0x20 PUSH1 0x0 KECCAK256 ADD PUSH1 0x0 SWAP2 POP SWAP1 POP SLOAD DUP2 JUMP JUMPDEST PUSH1 0x60 PUSH1 0x0 JUMPDEST PUSH1 0x2 DUP1 SLOAD SWAP1 POP DUP2 LT ISZERO PUSH2 0x35E JUMPI PUSH1 0x2 DUP2 DUP2 SLOAD DUP2 LT PUSH2 0x340 JUMPI PUSH2 0x33F PUSH2 0x90D JUMP JUMPDEST JUMPDEST SWAP1 PUSH1 0x0 MSTORE PUSH1 0x20 PUSH1 0x0 KECCAK256 POP POP DUP1 DUP1 PUSH2 0x356 SWAP1 PUSH2 0x96B JUMP JUMPDEST SWAP2 POP POP PUSH2 0x31F JUMP JUMPDEST POP PUSH1 0x2 DUP1 SLOAD DUP1 PUSH1 0x20 MUL PUSH1 0x20 ADD PUSH1 0x40 MLOAD SWAP1 DUP2 ADD PUSH1 0x40 MSTORE DUP1 SWAP3 SWAP2 SWAP1 DUP2 DUP2 MSTORE PUSH1 0x20 ADD PUSH1 0x0 SWAP1 JUMPDEST DUP3 DUP3 LT ISZERO PUSH2 0x42D JUMPI DUP4 DUP3 SWAP1 PUSH1 0x0 MSTORE PUSH1 0x20 PUSH1 0x0 KECCAK256 ADD DUP1 SLOAD PUSH2 0x3A0 SWAP1 PUSH2 0x8DC JUMP JUMPDEST DUP1 PUSH1 0x1F ADD PUSH1 0x20 DUP1 SWAP2 DIV MUL PUSH1 0x20 ADD PUSH1 0x40 MLOAD SWAP1 DUP2 ADD PUSH1 0x40 MSTORE DUP1 SWAP3 SWAP2 SWAP1 DUP2 DUP2 MSTORE PUSH1 0x20 ADD DUP3 DUP1 SLOAD PUSH2 0x3CC SWAP1 PUSH2 0x8DC JUMP JUMPDEST DUP1 ISZERO PUSH2 0x419 JUMPI DUP1 PUSH1 0x1F LT PUSH2 0x3EE JUMPI PUSH2 0x100 DUP1 DUP4 SLOAD DIV MUL DUP4 MSTORE SWAP2 PUSH1 0x20 ADD SWAP2 PUSH2 0x419 JUMP JUMPDEST DUP3 ADD SWAP2 SWAP1 PUSH1 0x0 MSTORE PUSH1 0x20 PUSH1 0x0 KECCAK256 SWAP1 JUMPDEST DUP2 SLOAD DUP2 MSTORE SWAP1 PUSH1 0x1 ADD SWAP1 PUSH1 0x20 ADD DUP1 DUP4 GT PUSH2 0x3FC JUMPI DUP3 SWAP1 SUB PUSH1 0x1F AND DUP3 ADD SWAP2 JUMPDEST POP POP POP POP POP DUP2 MSTORE PUSH1 0x20 ADD SWAP1 PUSH1 0x1 ADD SWAP1 PUSH2 0x381 JUMP JUMPDEST POP POP POP POP SWAP1 POP SWAP1 JUMP JUMPDEST PUSH1 0x2 DUP2 SWAP1 DUP1 PUSH1 0x1 DUP2 SLOAD ADD DUP1 DUP3 SSTORE DUP1 SWAP2 POP POP PUSH1 0x1 SWAP1 SUB SWAP1 PUSH1 0x0 MSTORE PUSH1 0x20 PUSH1 0x0 KECCAK256 ADD PUSH1 0x0 SWAP1 SWAP2 SWAP1 SWAP2 SWAP1 SWAP2 POP SWAP1 DUP2 PUSH2 0x46A SWAP2 SWAP1 PUSH2 0xB5F JUMP JUMPDEST POP POP JUMP JUMPDEST PUSH1 0x0 PUSH1 0x40 MLOAD SWAP1 POP SWAP1 JUMP JUMPDEST PUSH1 0x0 DUP1 REVERT JUMPDEST PUSH1 0x0 DUP1 REVERT JUMPDEST PUSH1 0x0 DUP2 SWAP1 POP SWAP2 SWAP1 POP JUMP JUMPDEST PUSH2 0x495 DUP2 PUSH2 0x482 JUMP JUMPDEST DUP2 EQ PUSH2 0x4A0 JUMPI PUSH1 0x0 DUP1 REVERT JUMPDEST POP JUMP JUMPDEST PUSH1 0x0 DUP2 CALLDATALOAD SWAP1 POP PUSH2 0x4B2 DUP2 PUSH2 0x48C JUMP JUMPDEST SWAP3 SWAP2 POP POP JUMP JUMPDEST PUSH1 0x0 PUSH1 0x20 DUP3 DUP5 SUB SLT ISZERO PUSH2 0x4CE JUMPI PUSH2 0x4CD PUSH2 0x478 JUMP JUMPDEST JUMPDEST PUSH1 0x0 PUSH2 0x4DC DUP5 DUP3 DUP6 ADD PUSH2 0x4A3 JUMP JUMPDEST SWAP2 POP POP SWAP3 SWAP2 POP POP JUMP JUMPDEST PUSH1 0x0 DUP2 MLOAD SWAP1 POP SWAP2 SWAP1 POP JUMP JUMPDEST PUSH1 0x0 DUP3 DUP3 MSTORE PUSH1 0x20 DUP3 ADD SWAP1 POP SWAP3 SWAP2 POP POP JUMP JUMPDEST PUSH1 0x0 JUMPDEST DUP4 DUP2 LT ISZERO PUSH2 0x51F JUMPI DUP1 DUP3 ADD MLOAD DUP2 DUP5 ADD MSTORE PUSH1 0x20 DUP2 ADD SWAP1 POP PUSH2 0x504 JUMP JUMPDEST PUSH1 0x0 DUP5 DUP5 ADD MSTORE POP POP POP POP JUMP JUMPDEST PUSH1 0x0 PUSH1 0x1F NOT PUSH1 0x1F DUP4 ADD AND SWAP1 POP SWAP2 SWAP1 POP JUMP JUMPDEST PUSH1 0x0 PUSH2 0x547 DUP3 PUSH2 0x4E5 JUMP JUMPDEST PUSH2 0x551 DUP2 DUP6 PUSH2 0x4F0 JUMP JUMPDEST SWAP4 POP PUSH2 0x561 DUP2 DUP6 PUSH1 0x20 DUP7 ADD PUSH2 0x501 JUMP JUMPDEST PUSH2 0x56A DUP2 PUSH2 0x52B JUMP JUMPDEST DUP5 ADD SWAP2 POP POP SWAP3 SWAP2 POP POP JUMP JUMPDEST PUSH1 0x0 PUSH1 0x20 DUP3 ADD SWAP1 POP DUP2 DUP2 SUB PUSH1 0x0 DUP4 ADD MSTORE PUSH2 0x58F DUP2 DUP5 PUSH2 0x53C JUMP JUMPDEST SWAP1 POP SWAP3 SWAP2 POP POP JUMP JUMPDEST PUSH1 0x0 DUP1 PUSH1 0x40 DUP4 DUP6 SUB SLT ISZERO PUSH2 0x5AE JUMPI PUSH2 0x5AD PUSH2 0x478 JUMP JUMPDEST JUMPDEST PUSH1 0x0 PUSH2 0x5BC DUP6 DUP3 DUP7 ADD PUSH2 0x4A3 JUMP JUMPDEST SWAP3 POP POP PUSH1 0x20 PUSH2 0x5CD DUP6 DUP3 DUP7 ADD PUSH2 0x4A3 JUMP JUMPDEST SWAP2 POP POP SWAP3 POP SWAP3 SWAP1 POP JUMP JUMPDEST PUSH2 0x5E0 DUP2 PUSH2 0x482 JUMP JUMPDEST DUP3 MSTORE POP POP JUMP JUMPDEST PUSH1 0x0 PUSH1 0x20 DUP3 ADD SWAP1 POP PUSH2 0x5FB PUSH1 0x0 DUP4 ADD DUP5 PUSH2 0x5D7 JUMP JUMPDEST SWAP3 SWAP2 POP POP JUMP JUMPDEST PUSH1 0x0 DUP2 MLOAD SWAP1 POP SWAP2 SWAP1 POP JUMP JUMPDEST PUSH1 0x0 DUP3 DUP3 MSTORE PUSH1 0x20 DUP3 ADD SWAP1 POP SWAP3 SWAP2 POP POP JUMP JUMPDEST PUSH1 0x0 DUP2 SWAP1 POP PUSH1 0x20 DUP3 ADD SWAP1 POP SWAP2 SWAP1 POP JUMP JUMPDEST PUSH1 0x0 DUP3 DUP3 MSTORE PUSH1 0x20 DUP3 ADD SWAP1 POP SWAP3 SWAP2 POP POP JUMP JUMPDEST PUSH1 0x0 PUSH2 0x649 DUP3 PUSH2 0x4E5 JUMP JUMPDEST PUSH2 0x653 DUP2 DUP6 PUSH2 0x62D JUMP JUMPDEST SWAP4 POP PUSH2 0x663 DUP2 DUP6 PUSH1 0x20 DUP7 ADD PUSH2 0x501 JUMP JUMPDEST PUSH2 0x66C DUP2 PUSH2 0x52B JUMP JUMPDEST DUP5 ADD SWAP2 POP POP SWAP3 SWAP2 POP POP JUMP JUMPDEST PUSH1 0x0 PUSH2 0x683 DUP4 DUP4 PUSH2 0x63E JUMP JUMPDEST SWAP1 POP SWAP3 SWAP2 POP POP JUMP JUMPDEST PUSH1 0x0 PUSH1 0x20 DUP3 ADD SWAP1 POP SWAP2 SWAP1 POP JUMP JUMPDEST PUSH1 0x0 PUSH2 0x6A3 DUP3 PUSH2 0x601 JUMP JUMPDEST PUSH2 0x6AD DUP2 DUP6 PUSH2 0x60C JUMP JUMPDEST SWAP4 POP DUP4 PUSH1 0x20 DUP3 MUL DUP6 ADD PUSH2 0x6BF DUP6 PUSH2 0x61D JUMP JUMPDEST DUP1 PUSH1 0x0 JUMPDEST DUP6 DUP2 LT ISZERO PUSH2 0x6FB JUMPI DUP5 DUP5 SUB DUP10 MSTORE DUP2 MLOAD PUSH2 0x6DC DUP6 DUP3 PUSH2 0x677 JUMP JUMPDEST SWAP5 POP PUSH2 0x6E7 DUP4 PUSH2 0x68B JUMP JUMPDEST SWAP3 POP PUSH1 0x20 DUP11 ADD SWAP10 POP POP PUSH1 0x1 DUP2 ADD SWAP1 POP PUSH2 0x6C3 JUMP JUMPDEST POP DUP3 SWAP8 POP DUP8 SWAP6 POP POP POP POP POP POP SWAP3 SWAP2 POP POP JUMP JUMPDEST PUSH1 0x0 PUSH1 0x20 DUP3 ADD SWAP1 POP DUP2 DUP2 SUB PUSH1 0x0 DUP4 ADD MSTORE PUSH2 0x727 DUP2 DUP5 PUSH2 0x698 JUMP JUMPDEST SWAP1 POP SWAP3 SWAP2 POP POP JUMP JUMPDEST PUSH1 0x0 DUP1 REVERT JUMPDEST PUSH1 0x0 DUP1 REVERT JUMPDEST PUSH32 0x4E487B7100000000000000000000000000000000000000000000000000000000 PUSH1 0x0 MSTORE PUSH1 0x41 PUSH1 0x4 MSTORE PUSH1 0x24 PUSH1 0x0 REVERT JUMPDEST PUSH2 0x771 DUP3 PUSH2 0x52B JUMP JUMPDEST DUP2 ADD DUP2 DUP2 LT PUSH8 0xFFFFFFFFFFFFFFFF DUP3 GT OR ISZERO PUSH2 0x790 JUMPI PUSH2 0x78F PUSH2 0x739 JUMP JUMPDEST JUMPDEST DUP1 PUSH1 0x40 MSTORE POP POP POP JUMP JUMPDEST PUSH1 0x0 PUSH2 0x7A3 PUSH2 0x46E JUMP JUMPDEST SWAP1 POP PUSH2 0x7AF DUP3 DUP3 PUSH2 0x768 JUMP JUMPDEST SWAP2 SWAP1 POP JUMP JUMPDEST PUSH1 0x0 PUSH8 0xFFFFFFFFFFFFFFFF DUP3 GT ISZERO PUSH2 0x7CF JUMPI PUSH2 0x7CE PUSH2 0x739 JUMP JUMPDEST JUMPDEST PUSH2 0x7D8 DUP3 PUSH2 0x52B JUMP JUMPDEST SWAP1 POP PUSH1 0x20 DUP2 ADD SWAP1 POP SWAP2 SWAP1 POP JUMP JUMPDEST DUP3 DUP2 DUP4 CALLDATACOPY PUSH1 0x0 DUP4 DUP4 ADD MSTORE POP POP POP JUMP JUMPDEST PUSH1 0x0 PUSH2 0x807 PUSH2 0x802 DUP5 PUSH2 0x7B4 JUMP JUMPDEST PUSH2 0x799 JUMP JUMPDEST SWAP1 POP DUP3 DUP2 MSTORE PUSH1 0x20 DUP2 ADD DUP5 DUP5 DUP5 ADD GT ISZERO PUSH2 0x823 JUMPI PUSH2 0x822 PUSH2 0x734 JUMP JUMPDEST JUMPDEST PUSH2 0x82E DUP5 DUP3 DUP6 PUSH2 0x7E5 JUMP JUMPDEST POP SWAP4 SWAP3 POP POP POP JUMP JUMPDEST PUSH1 0x0 DUP3 PUSH1 0x1F DUP4 ADD SLT PUSH2 0x84B JUMPI PUSH2 0x84A PUSH2 0x72F JUMP JUMPDEST JUMPDEST DUP2 CALLDATALOAD PUSH2 0x85B DUP5 DUP3 PUSH1 0x20 DUP7 ADD PUSH2 0x7F4 JUMP JUMPDEST SWAP2 POP POP SWAP3 SWAP2 POP POP JUMP JUMPDEST PUSH1 0x0 PUSH1 0x20 DUP3 DUP5 SUB SLT ISZERO PUSH2 0x87A JUMPI PUSH2 0x879 PUSH2 0x478 JUMP JUMPDEST JUMPDEST PUSH1 0x0 DUP3 ADD CALLDATALOAD PUSH8 0xFFFFFFFFFFFFFFFF DUP2 GT ISZERO PUSH2 0x898 JUMPI PUSH2 0x897 PUSH2 0x47D JUMP JUMPDEST JUMPDEST PUSH2 0x8A4 DUP5 DUP3 DUP6 ADD PUSH2 0x836 JUMP JUMPDEST SWAP2 POP POP SWAP3 SWAP2 POP POP JUMP JUMPDEST PUSH32 0x4E487B7100000000000000000000000000000000000000000000000000000000 PUSH1 0x0 MSTORE PUSH1 0x22 PUSH1 0x4 MSTORE PUSH1 0x24 PUSH1 0x0 REVERT JUMPDEST PUSH1 0x0 PUSH1 0x2 DUP3 DIV SWAP1 POP PUSH1 0x1 DUP3 AND DUP1 PUSH2 0x8F4 JUMPI PUSH1 0x7F DUP3 AND SWAP2 POP JUMPDEST PUSH1 0x20 DUP3 LT DUP2 SUB PUSH2 0x907 JUMPI PUSH2 0x906 PUSH2 0x8AD JUMP JUMPDEST JUMPDEST POP SWAP2 SWAP1 POP JUMP JUMPDEST PUSH32 0x4E487B7100000000000000000000000000000000000000000000000000000000 PUSH1 0x0 MSTORE PUSH1 0x32 PUSH1 0x4 MSTORE PUSH1 0x24 PUSH1 0x0 REVERT JUMPDEST PUSH32 0x4E487B7100000000000000000000000000000000000000000000000000000000 PUSH1 0x0 MSTORE PUSH1 0x11 PUSH1 0x4 MSTORE PUSH1 0x24 PUSH1 0x0 REVERT JUMPDEST PUSH1 0x0 PUSH2 0x976 DUP3 PUSH2 0x482 JUMP JUMPDEST SWAP2 POP PUSH32 0xFFFFFFFFFFFFFFFFFFFFFFFFFFFFFFFFFFFFFFFFFFFFFFFFFFFFFFFFFFFFFFFF DUP3 SUB PUSH2 0x9A8 JUMPI PUSH2 0x9A7 PUSH2 0x93C JUMP JUMPDEST JUMPDEST PUSH1 0x1 DUP3 ADD SWAP1 POP SWAP2 SWAP1 POP JUMP JUMPDEST PUSH1 0x0 DUP2 SWAP1 POP DUP2 PUSH1 0x0 MSTORE PUSH1 0x20 PUSH1 0x0 KECCAK256 SWAP1 POP SWAP2 SWAP1 POP JUMP JUMPDEST PUSH1 0x0 PUSH1 0x20 PUSH1 0x1F DUP4 ADD DIV SWAP1 POP SWAP2 SWAP1 POP JUMP JUMPDEST PUSH1 0x0 DUP3 DUP3 SHL SWAP1 POP SWAP3 SWAP2 POP POP JUMP JUMPDEST PUSH1 0x0 PUSH1 0x8 DUP4 MUL PUSH2 0xA15 PUSH32 0xFFFFFFFFFFFFFFFFFFFFFFFFFFFFFFFFFFFFFFFFFFFFFFFFFFFFFFFFFFFFFFFF DUP3 PUSH2 0x9D8 JUMP JUMPDEST PUSH2 0xA1F DUP7 DUP4 PUSH2 0x9D8 JUMP JUMPDEST SWAP6 POP DUP1 NOT DUP5 AND SWAP4 POP DUP1 DUP7 AND DUP5 OR SWAP3 POP POP POP SWAP4 SWAP3 POP POP POP JUMP JUMPDEST PUSH1 0x0 DUP2 SWAP1 POP SWAP2 SWAP1 POP JUMP JUMPDEST PUSH1 0x0 PUSH2 0xA5C PUSH2 0xA57 PUSH2 0xA52 DUP5 PUSH2 0x482 JUMP JUMPDEST PUSH2 0xA37 JUMP JUMPDEST PUSH2 0x482 JUMP JUMPDEST SWAP1 POP SWAP2 SWAP1 POP JUMP JUMPDEST PUSH1 0x0 DUP2 SWAP1 POP SWAP2 SWAP1 POP JUMP JUMPDEST PUSH2 0xA76 DUP4 PUSH2 0xA41 JUMP JUMPDEST PUSH2 0xA8A PUSH2 0xA82 DUP3 PUSH2 0xA63 JUMP JUMPDEST DUP5 DUP5 SLOAD PUSH2 0x9E5 JUMP JUMPDEST DUP3 SSTORE POP POP POP POP JUMP JUMPDEST PUSH1 0x0 SWAP1 JUMP JUMPDEST PUSH2 0xA9F PUSH2 0xA92 JUMP JUMPDEST PUSH2 0xAAA DUP2 DUP5 DUP5 PUSH2 0xA6D JUMP JUMPDEST POP POP POP JUMP JUMPDEST JUMPDEST DUP2 DUP2 LT ISZERO PUSH2 0xACE JUMPI PUSH2 0xAC3 PUSH1 0x0 DUP3 PUSH2 0xA97 JUMP JUMPDEST PUSH1 0x1 DUP2 ADD SWAP1 POP PUSH2 0xAB0 JUMP JUMPDEST POP POP JUMP JUMPDEST PUSH1 0x1F DUP3 GT ISZERO PUSH2 0xB13 JUMPI PUSH2 0xAE4 DUP2 PUSH2 0x9B3 JUMP JUMPDEST PUSH2 0xAED DUP5 PUSH2 0x9C8 JUMP JUMPDEST DUP2 ADD PUSH1 0x20 DUP6 LT ISZERO PUSH2 0xAFC JUMPI DUP2 SWAP1 POP JUMPDEST PUSH2 0xB10 PUSH2 0xB08 DUP6 PUSH2 0x9C8 JUMP JUMPDEST DUP4 ADD DUP3 PUSH2 0xAAF JUMP JUMPDEST POP POP JUMPDEST POP POP POP JUMP JUMPDEST PUSH1 0x0 DUP3 DUP3 SHR SWAP1 POP SWAP3 SWAP2 POP POP JUMP JUMPDEST PUSH1 0x0 PUSH2 0xB36 PUSH1 0x0 NOT DUP5 PUSH1 0x8 MUL PUSH2 0xB18 JUMP JUMPDEST NOT DUP1 DUP4 AND SWAP2 POP POP SWAP3 SWAP2 POP POP JUMP JUMPDEST PUSH1 0x0 PUSH2 0xB4F DUP4 DUP4 PUSH2 0xB25 JUMP JUMPDEST SWAP2 POP DUP3 PUSH1 0x2 MUL DUP3 OR SWAP1 POP SWAP3 SWAP2 POP POP JUMP JUMPDEST PUSH2 0xB68 DUP3 PUSH2 0x4E5 JUMP JUMPDEST PUSH8 0xFFFFFFFFFFFFFFFF DUP2 GT ISZERO PUSH2 0xB81 JUMPI PUSH2 0xB80 PUSH2 0x739 JUMP JUMPDEST JUMPDEST PUSH2 0xB8B DUP3 SLOAD PUSH2 0x8DC JUMP JUMPDEST PUSH2 0xB96 DUP3 DUP3 DUP6 PUSH2 0xAD2 JUMP JUMPDEST PUSH1 0x0 PUSH1 0x20 SWAP1 POP PUSH1 0x1F DUP4 GT PUSH1 0x1 DUP2 EQ PUSH2 0xBC9 JUMPI PUSH1 0x0 DUP5 ISZERO PUSH2 0xBB7 JUMPI DUP3 DUP8 ADD MLOAD SWAP1 POP JUMPDEST PUSH2 0xBC1 DUP6 DUP3 PUSH2 0xB43 JUMP JUMPDEST DUP7 SSTORE POP PUSH2 0xC29 JUMP JUMPDEST PUSH1 0x1F NOT DUP5 AND PUSH2 0xBD7 DUP7 PUSH2 0x9B3 JUMP JUMPDEST PUSH1 0x0 JUMPDEST DUP3 DUP2 LT ISZERO PUSH2 0xBFF JUMPI DUP5 DUP10 ADD MLOAD DUP3 SSTORE PUSH1 0x1 DUP3 ADD SWAP2 POP PUSH1 0x20 DUP6 ADD SWAP5 POP PUSH1 0x20 DUP2 ADD SWAP1 POP PUSH2 0xBDA JUMP JUMPDEST DUP7 DUP4 LT ISZERO PUSH2 0xC1C JUMPI DUP5 DUP10 ADD MLOAD PUSH2 0xC18 PUSH1 0x1F DUP10 AND DUP3 PUSH2 0xB25 JUMP JUMPDEST DUP4 SSTORE POP JUMPDEST PUSH1 0x1 PUSH1 0x2 DUP9 MUL ADD DUP9 SSTORE POP POP POP JUMPDEST POP POP POP POP POP POP JUMP INVALID LOG2 PUSH5 0x6970667358 0x22 SLT KECCAK256 0xE4 TIMESTAMP DUP7 SWAP9 BALANCE SWAP15 SWAP15 JUMP 0xE8 0xE EXTCODECOPY LOG4 OR 0xCD DUP12 0x4D 0xB0 OR 0x26 0xC4 DUP11 0xE OR LOG0 0xFC 0xE1 0xF9 0xB3 MLOAD 0x4D CALLVALUE PUSH4 0x64736F6C PUSH4 0x43000812 STOP CALLER "
		},
		"gasEstimates": {
			"creation": {
				"codeDepositCost": "635000",
				"executionCost": "infinite",
				"totalCost": "infinite"
			},
			"external": {
				"arr_2d(uint256,uint256)": "infinite",
				"myarray(uint256)": "infinite",
				"myfruite(uint256)": "infinite",
				"pushdata(string)": "infinite",
				"temp(uint256)": "infinite",
				"valueVCount()": "infinite"
			}
		},
		"methodIdentifiers": {
			"arr_2d(uint256,uint256)": "a80d136e",
			"myarray(uint256)": "b10a4c6c",
			"myfruite(uint256)": "62666f86",
			"pushdata(string)": "ee5ddf04",
			"temp(uint256)": "6c3755ad",
			"valueVCount()": "dd74706c"
		}
	},
	"abi": [
		{
			"inputs": [
				{
					"internalType": "uint256",
					"name": "",
					"type": "uint256"
				},
				{
					"internalType": "uint256",
					"name": "",
					"type": "uint256"
				}
			],
			"name": "arr_2d",
			"outputs": [
				{
					"internalType": "uint256",
					"name": "",
					"type": "uint256"
				}
			],
			"stateMutability": "view",
			"type": "function"
		},
		{
			"inputs": [
				{
					"internalType": "uint256",
					"name": "",
					"type": "uint256"
				}
			],
			"name": "myarray",
			"outputs": [
				{
					"internalType": "uint256",
					"name": "",
					"type": "uint256"
				}
			],
			"stateMutability": "view",
			"type": "function"
		},
		{
			"inputs": [
				{
					"internalType": "uint256",
					"name": "",
					"type": "uint256"
				}
			],
			"name": "myfruite",
			"outputs": [
				{
					"internalType": "string",
					"name": "",
					"type": "string"
				}
			],
			"stateMutability": "view",
			"type": "function"
		},
		{
			"inputs": [
				{
					"internalType": "string",
					"name": "_value",
					"type": "string"
				}
			],
			"name": "pushdata",
			"outputs": [],
			"stateMutability": "nonpayable",
			"type": "function"
		},
		{
			"inputs": [
				{
					"internalType": "uint256",
					"name": "",
					"type": "uint256"
				}
			],
			"name": "temp",
			"outputs": [
				{
					"internalType": "string",
					"name": "",
					"type": "string"
				}
			],
			"stateMutability": "view",
			"type": "function"
		},
		{
			"inputs": [],
			"name": "valueVCount",
			"outputs": [
				{
					"internalType": "string[]",
					"name": "",
					"type": "string[]"
				}
			],
			"stateMutability": "view",
			"type": "function"
		}
	]
}